{
  "transactions": [
    {
      "hash": "0xb68e3d16e04a97f6ac58fc87ee4ef90a06548b9c6d4e677b9f4a5c7848cdeee8",
      "transactionType": "CALL",
      "contractName": null,
      "contractAddress": "0x309488d8698c9dda39ba4cce9f163932d1984d8b",
      "function": "mint(address,uint256)",
      "arguments": [
        "0x4F88F1014Dd6Ca0507780380111c098BeE6b87e6",
        "9999999999000000000000"
      ],
      "transaction": {
        "from": "0xb7d030f7c6406446e703e73b3d1dd8611a2d87b6",
        "to": "0x309488d8698c9dda39ba4cce9f163932d1984d8b",
        "gas": "0xd06b",
        "value": "0x0",
        "input": "0x40c10f190000000000000000000000004f88f1014dd6ca0507780380111c098bee6b87e600000000000000000000000000000000000000000000021e19e0c8d1dd9af000",
        "nonce": "0x206",
        "chainId": "0xaa36a7"
      },
      "additionalContracts": [],
      "isFixedGasLimit": false
    },
    {
      "hash": "0xf01eb74f97ace14c0fa782fc1e7a4541e30f8f245c9d5bb69b853404815c3806",
      "transactionType": "CALL",
      "contractName": null,
      "contractAddress": "0x309488d8698c9dda39ba4cce9f163932d1984d8b",
      "function": "mint(address,uint256)",
      "arguments": [
        "0xC31f6b8133d618aD2ff1AC5fAA3Fc4B20557B901",
        "9999999999000000000000"
      ],
      "transaction": {
        "from": "0xb7d030f7c6406446e703e73b3d1dd8611a2d87b6",
        "to": "0x309488d8698c9dda39ba4cce9f163932d1984d8b",
        "gas": "0xd06b",
        "value": "0x0",
        "input": "0x40c10f19000000000000000000000000c31f6b8133d618ad2ff1ac5faa3fc4b20557b90100000000000000000000000000000000000000000000021e19e0c8d1dd9af000",
        "nonce": "0x207",
        "chainId": "0xaa36a7"
      },
      "additionalContracts": [],
      "isFixedGasLimit": false
    },
    {
      "hash": "0xa465a49fba7f12dffd55878a13bf754675ae9397a6f384aaaee56e4d04161c07",
      "transactionType": "CALL",
      "contractName": null,
      "contractAddress": "0x309488d8698c9dda39ba4cce9f163932d1984d8b",
      "function": "mint(address,uint256)",
      "arguments": [
        "0x66E675533020c3CDeE2F33E372320B7e2692211e",
        "9999999999000000000000"
      ],
      "transaction": {
        "from": "0xb7d030f7c6406446e703e73b3d1dd8611a2d87b6",
        "to": "0x309488d8698c9dda39ba4cce9f163932d1984d8b",
        "gas": "0xd06b",
        "value": "0x0",
        "input": "0x40c10f1900000000000000000000000066e675533020c3cdee2f33e372320b7e2692211e00000000000000000000000000000000000000000000021e19e0c8d1dd9af000",
        "nonce": "0x208",
        "chainId": "0xaa36a7"
      },
      "additionalContracts": [],
      "isFixedGasLimit": false
    },
    {
      "hash": "0x47984697c991a2c22529006ecf163a4bcaae3e83094634980b237a2085fc1da3",
      "transactionType": "CALL",
      "contractName": null,
      "contractAddress": "0x309488d8698c9dda39ba4cce9f163932d1984d8b",
      "function": "mint(address,uint256)",
      "arguments": [
        "0x8c4Eb6988A199DAbcae0Ce31052b3f3aC591787e",
        "9999999999000000000000"
      ],
      "transaction": {
        "from": "0xb7d030f7c6406446e703e73b3d1dd8611a2d87b6",
        "to": "0x309488d8698c9dda39ba4cce9f163932d1984d8b",
        "gas": "0xd06b",
        "value": "0x0",
        "input": "0x40c10f190000000000000000000000008c4eb6988a199dabcae0ce31052b3f3ac591787e00000000000000000000000000000000000000000000021e19e0c8d1dd9af000",
        "nonce": "0x209",
        "chainId": "0xaa36a7"
      },
      "additionalContracts": [],
      "isFixedGasLimit": false
    },
    {
      "hash": "0xf5c7562760d7774f10f12008731376a2994a6aac6bfac998093d4419b8c8e07b",
      "transactionType": "CALL",
      "contractName": null,
      "contractAddress": "0x9e0d7b454676116c123d56ff4d5ed609d75ad00e",
      "function": "mint(address,uint256)",
      "arguments": [
        "0x4F88F1014Dd6Ca0507780380111c098BeE6b87e6",
        "9999999999000000000000"
      ],
      "transaction": {
        "from": "0xb7d030f7c6406446e703e73b3d1dd8611a2d87b6",
        "to": "0x9e0d7b454676116c123d56ff4d5ed609d75ad00e",
        "gas": "0xd06b",
        "value": "0x0",
        "input": "0x40c10f190000000000000000000000004f88f1014dd6ca0507780380111c098bee6b87e600000000000000000000000000000000000000000000021e19e0c8d1dd9af000",
        "nonce": "0x20a",
        "chainId": "0xaa36a7"
      },
      "additionalContracts": [],
      "isFixedGasLimit": false
    },
    {
      "hash": "0x50803d73299722e3fe981b6243f509b87b918762b8a0a88753caddf7a43b28d4",
      "transactionType": "CALL",
      "contractName": null,
      "contractAddress": "0x9e0d7b454676116c123d56ff4d5ed609d75ad00e",
      "function": "mint(address,uint256)",
      "arguments": [
        "0xC31f6b8133d618aD2ff1AC5fAA3Fc4B20557B901",
        "9999999999000000000000"
      ],
      "transaction": {
        "from": "0xb7d030f7c6406446e703e73b3d1dd8611a2d87b6",
        "to": "0x9e0d7b454676116c123d56ff4d5ed609d75ad00e",
        "gas": "0xd06b",
        "value": "0x0",
        "input": "0x40c10f19000000000000000000000000c31f6b8133d618ad2ff1ac5faa3fc4b20557b90100000000000000000000000000000000000000000000021e19e0c8d1dd9af000",
        "nonce": "0x20b",
        "chainId": "0xaa36a7"
      },
      "additionalContracts": [],
      "isFixedGasLimit": false
    },
    {
      "hash": "0x6b8da06fe479efc44bf6e28ec93eccbe8a093d3f3b50e1160befeec2bdc52a18",
      "transactionType": "CALL",
      "contractName": null,
      "contractAddress": "0x9e0d7b454676116c123d56ff4d5ed609d75ad00e",
      "function": "mint(address,uint256)",
      "arguments": [
        "0x66E675533020c3CDeE2F33E372320B7e2692211e",
        "9999999999000000000000"
      ],
      "transaction": {
        "from": "0xb7d030f7c6406446e703e73b3d1dd8611a2d87b6",
        "to": "0x9e0d7b454676116c123d56ff4d5ed609d75ad00e",
        "gas": "0xd06b",
        "value": "0x0",
        "input": "0x40c10f1900000000000000000000000066e675533020c3cdee2f33e372320b7e2692211e00000000000000000000000000000000000000000000021e19e0c8d1dd9af000",
        "nonce": "0x20c",
        "chainId": "0xaa36a7"
      },
      "additionalContracts": [],
      "isFixedGasLimit": false
    },
    {
      "hash": "0x225cde88ed0e1ea42da713eed2206ddee8355fcd9cd06958de9368780fe7124b",
      "transactionType": "CALL",
      "contractName": null,
      "contractAddress": "0x9e0d7b454676116c123d56ff4d5ed609d75ad00e",
      "function": "mint(address,uint256)",
      "arguments": [
        "0x8c4Eb6988A199DAbcae0Ce31052b3f3aC591787e",
        "9999999999000000000000"
      ],
      "transaction": {
        "from": "0xb7d030f7c6406446e703e73b3d1dd8611a2d87b6",
        "to": "0x9e0d7b454676116c123d56ff4d5ed609d75ad00e",
        "gas": "0xd06b",
        "value": "0x0",
        "input": "0x40c10f190000000000000000000000008c4eb6988a199dabcae0ce31052b3f3ac591787e00000000000000000000000000000000000000000000021e19e0c8d1dd9af000",
        "nonce": "0x20d",
        "chainId": "0xaa36a7"
      },
      "additionalContracts": [],
      "isFixedGasLimit": false
    },
    {
      "hash": "0x6aec7ee7c4ee21b989d14970989c3706079defce248266f16960a74f0491a635",
      "transactionType": "CALL",
      "contractName": null,
      "contractAddress": "0x8621186d94319349a870c4099465770f0e4ff3cd",
      "function": "mint(address,uint256)",
      "arguments": [
        "0x4F88F1014Dd6Ca0507780380111c098BeE6b87e6",
        "9999999990000000000"
      ],
      "transaction": {
        "from": "0xb7d030f7c6406446e703e73b3d1dd8611a2d87b6",
        "to": "0x8621186d94319349a870c4099465770f0e4ff3cd",
        "gas": "0xd048",
        "value": "0x0",
        "input": "0x40c10f190000000000000000000000004f88f1014dd6ca0507780380111c098bee6b87e60000000000000000000000000000000000000000000000008ac7230235dc1c00",
        "nonce": "0x20e",
        "chainId": "0xaa36a7"
      },
      "additionalContracts": [],
      "isFixedGasLimit": false
    },
    {
      "hash": null,
      "transactionType": "CALL",
      "contractName": null,
      "contractAddress": "0x8621186d94319349a870c4099465770f0e4ff3cd",
      "function": "mint(address,uint256)",
      "arguments": [
        "0xC31f6b8133d618aD2ff1AC5fAA3Fc4B20557B901",
        "9999999990000000000"
      ],
      "transaction": {
        "from": "0xb7d030f7c6406446e703e73b3d1dd8611a2d87b6",
        "to": "0x8621186d94319349a870c4099465770f0e4ff3cd",
        "gas": "0xd048",
        "value": "0x0",
        "input": "0x40c10f19000000000000000000000000c31f6b8133d618ad2ff1ac5faa3fc4b20557b9010000000000000000000000000000000000000000000000008ac7230235dc1c00",
        "nonce": "0x20f",
        "chainId": "0xaa36a7"
      },
      "additionalContracts": [],
      "isFixedGasLimit": false
    },
    {
      "hash": null,
      "transactionType": "CALL",
      "contractName": null,
      "contractAddress": "0x8621186d94319349a870c4099465770f0e4ff3cd",
      "function": "mint(address,uint256)",
      "arguments": [
        "0x66E675533020c3CDeE2F33E372320B7e2692211e",
        "9999999990000000000"
      ],
      "transaction": {
        "from": "0xb7d030f7c6406446e703e73b3d1dd8611a2d87b6",
        "to": "0x8621186d94319349a870c4099465770f0e4ff3cd",
        "gas": "0xd048",
        "value": "0x0",
        "input": "0x40c10f1900000000000000000000000066e675533020c3cdee2f33e372320b7e2692211e0000000000000000000000000000000000000000000000008ac7230235dc1c00",
        "nonce": "0x210",
        "chainId": "0xaa36a7"
      },
      "additionalContracts": [],
      "isFixedGasLimit": false
    },
    {
      "hash": null,
      "transactionType": "CALL",
      "contractName": null,
      "contractAddress": "0x8621186d94319349a870c4099465770f0e4ff3cd",
      "function": "mint(address,uint256)",
      "arguments": [
        "0x8c4Eb6988A199DAbcae0Ce31052b3f3aC591787e",
        "9999999990000000000"
      ],
      "transaction": {
        "from": "0xb7d030f7c6406446e703e73b3d1dd8611a2d87b6",
        "to": "0x8621186d94319349a870c4099465770f0e4ff3cd",
        "gas": "0xd048",
        "value": "0x0",
        "input": "0x40c10f190000000000000000000000008c4eb6988a199dabcae0ce31052b3f3ac591787e0000000000000000000000000000000000000000000000008ac7230235dc1c00",
        "nonce": "0x211",
        "chainId": "0xaa36a7"
      },
      "additionalContracts": [],
      "isFixedGasLimit": false
    }
  ],
  "receipts": [],
  "libraries": [],
  "pending": [
    "0xb68e3d16e04a97f6ac58fc87ee4ef90a06548b9c6d4e677b9f4a5c7848cdeee8",
    "0xf01eb74f97ace14c0fa782fc1e7a4541e30f8f245c9d5bb69b853404815c3806",
    "0xa465a49fba7f12dffd55878a13bf754675ae9397a6f384aaaee56e4d04161c07",
    "0x47984697c991a2c22529006ecf163a4bcaae3e83094634980b237a2085fc1da3",
    "0xf5c7562760d7774f10f12008731376a2994a6aac6bfac998093d4419b8c8e07b",
    "0x50803d73299722e3fe981b6243f509b87b918762b8a0a88753caddf7a43b28d4",
    "0x6b8da06fe479efc44bf6e28ec93eccbe8a093d3f3b50e1160befeec2bdc52a18",
    "0x225cde88ed0e1ea42da713eed2206ddee8355fcd9cd06958de9368780fe7124b",
    "0x6aec7ee7c4ee21b989d14970989c3706079defce248266f16960a74f0491a635"
  ],
  "returns": {},
  "timestamp": 1729760672,
  "chain": 11155111,
  "commit": "85c4afb"
}