{
  "transactions": [
    {
      "hash": "0xdaa0deba20ea288d2436569e1ffafbd7cf1cd34c4313ba4ab62c0a7622a69abf",
      "transactionType": "CALL",
      "contractName": null,
      "contractAddress": "0x6eb220a1c1d1cc65cd0568eca810b5022d0d6f4e",
      "function": "setFeePerSponsorTicket(uint256)",
      "arguments": [
        "800000000000000"
      ],
      "transaction": {
        "from": "0xf53f105e90b3e9ea928926a5a78e921d8168e213",
        "to": "0x6eb220a1c1d1cc65cd0568eca810b5022d0d6f4e",
        "gas": "0xa1d0",
        "value": "0x0",
        "input": "0x149caac80000000000000000000000000000000000000000000000000002d79883d20000",
        "nonce": "0x40",
        "chainId": "0x1"
      },
      "additionalContracts": [],
      "isFixedGasLimit": false
    }
  ],
  "receipts": [
    {
      "status": "0x1",
      "cumulativeGasUsed": "0xd7eab3",
      "logs": [
        {
          "address": "0x6eb220a1c1d1cc65cd0568eca810b5022d0d6f4e",
          "topics": [
            "0xc213c63ebbcc7cf00b0153c23fbac46f00d360b97b2a9b8f14174cdb9fa635de"
          ],
          "data": "0x0000000000000000000000000000000000000000000000000002d79883d20000",
          "blockHash": "0xa71eb13c1512b8a0f609cd6a7144d99704fd314c2cbb1d08f398f34df02cb2de",
          "blockNumber": "0x136d232",
          "transactionHash": "0xdaa0deba20ea288d2436569e1ffafbd7cf1cd34c4313ba4ab62c0a7622a69abf",
          "transactionIndex": "0x9d",
          "logIndex": "0x190",
          "removed": false
        }
      ],
      "logsBloom": "0x00000000080000000000000000000000000000000000000000000000000002000000000000000000000000000000000000000000000000000000000000000000000000000000000000000000000000000000000000000000000000000000000000000200000000000000000000000000000000000000000000000000000000000000000000000000000000000000000000000000000000000000000000000000000000000000000000000000000000000000000000000008000000000000000000000000000000000000040000000000000000000000000000000000000000000000000000000000000000000000000000000000000000000000000000000200",
      "type": "0x2",
      "transactionHash": "0xdaa0deba20ea288d2436569e1ffafbd7cf1cd34c4313ba4ab62c0a7622a69abf",
      "transactionIndex": "0x9d",
      "blockHash": "0xa71eb13c1512b8a0f609cd6a7144d99704fd314c2cbb1d08f398f34df02cb2de",
      "blockNumber": "0x136d232",
      "gasUsed": "0x7527",
      "effectiveGasPrice": "0x1db243b4d",
      "from": "0xf53f105e90b3e9ea928926a5a78e921d8168e213",
      "to": "0x6eb220a1c1d1cc65cd0568eca810b5022d0d6f4e",
      "contractAddress": null
    }
  ],
  "libraries": [],
  "pending": [],
  "returns": {},
  "timestamp": 1721746601,
  "chain": 1,
  "commit": "2695015"
}