{
  "transactions": [
    {
      "hash": "0x8095421ffd4ea5fba581f08a1adb224cde9330b05f91fd10ea366015f659ca61",
      "transactionType": "CALL",
      "contractName": null,
      "contractAddress": "0xf74d7124909f634b38799d871fd9f633b223b2c6",
      "function": "transferIn(address,address,uint256)",
      "arguments": [
        "0x0000000000000000000000000000000000000000",
        "0xf53f105E90b3e9Ea928926A5A78E921D8168e213",
        "10000000000000000"
      ],
      "transaction": {
        "from": "0xf53f105e90b3e9ea928926a5a78e921d8168e213",
        "to": "0xf74d7124909f634b38799d871fd9f633b223b2c6",
        "gas": "0x9afe",
        "value": "0x2386f26fc10000",
        "input": "0xe4652f490000000000000000000000000000000000000000000000000000000000000000000000000000000000000000f53f105e90b3e9ea928926a5a78e921d8168e213000000000000000000000000000000000000000000000000002386f26fc10000",
        "nonce": "0x41",
        "chainId": "0x1"
      },
      "additionalContracts": [],
      "isFixedGasLimit": false
    }
  ],
  "receipts": [
    {
      "status": "0x1",
      "cumulativeGasUsed": "0xd72586",
      "logs": [
        {
          "address": "0xf74d7124909f634b38799d871fd9f633b223b2c6",
          "topics": [
            "0x8ab008cb8444c6d8f2fa3dc0b159b5a86c62b00092219a6c69757805cbf7bde7",
            "0x0000000000000000000000000000000000000000000000000000000000000000",
            "0x000000000000000000000000f53f105e90b3e9ea928926a5a78e921d8168e213"
          ],
          "data": "0x000000000000000000000000000000000000000000000000002386f26fc10000",
          "blockHash": "0xde7684873731eb3b613e5201acf3d1078937446996b65febe20c2187ca98612d",
          "blockNumber": "0x136d265",
          "transactionHash": "0x8095421ffd4ea5fba581f08a1adb224cde9330b05f91fd10ea366015f659ca61",
          "transactionIndex": "0x12a",
          "logIndex": "0xfe",
          "removed": false
        }
      ],
      "logsBloom": "0x00000000000000000000000000000000000000000000000008000000000000000000000000000000000000000000000000800004000000000000000000000000000000000000000000000000000000000000000000000000000000000000000000000000020000000000000000000800000000000000000000000000000000000000000000000800000000000000000000000000000000000000000000000000000000000000000000000000000000000000200000000800000000000000000000000000000000000000000000000000000000002000008000000000000820000000000000000000000000000000000000000000000000000000000000000000",
      "type": "0x2",
      "transactionHash": "0x8095421ffd4ea5fba581f08a1adb224cde9330b05f91fd10ea366015f659ca61",
      "transactionIndex": "0x12a",
      "blockHash": "0xde7684873731eb3b613e5201acf3d1078937446996b65febe20c2187ca98612d",
      "blockNumber": "0x136d265",
      "gasUsed": "0x7037",
      "effectiveGasPrice": "0x18fdcddb3",
      "from": "0xf53f105e90b3e9ea928926a5a78e921d8168e213",
      "to": "0xf74d7124909f634b38799d871fd9f633b223b2c6",
      "contractAddress": null
    }
  ],
  "libraries": [],
  "pending": [],
  "returns": {},
  "timestamp": 1721747209,
  "chain": 1,
  "commit": "0647337"
}