{
  "transactions": [
    {
      "hash": "0x771164892d1b37a9160becc8f3cdd4af75f991ee93bf4ebe42f92c670aee55e8",
      "transactionType": "CALL",
      "contractName": null,
      "contractAddress": "0xb4bb45fe7595105fdb425a9e024cfdeadf321ef6",
      "function": "setExecutor(address,bool)",
      "arguments": [
        "0x08E3dBFCF164Df355E36B65B4e71D9E66483e083",
        "true"
      ],
      "transaction": {
        "from": "0xb7d030f7c6406446e703e73b3d1dd8611a2d87b6",
        "to": "0xb4bb45fe7595105fdb425a9e024cfdeadf321ef6",
        "gas": "0x12063",
        "value": "0x0",
        "input": "0x1e1bff3f00000000000000000000000008e3dbfcf164df355e36b65b4e71d9e66483e0830000000000000000000000000000000000000000000000000000000000000001",
        "nonce": "0xea",
        "chainId": "0x66eee"
      },
      "additionalContracts": [],
      "isFixedGasLimit": false
    }
  ],
  "receipts": [
    {
      "status": "0x1",
      "cumulativeGasUsed": "0xd36e",
      "logs": [
        {
          "address": "0xb4bb45fe7595105fdb425a9e024cfdeadf321ef6",
          "topics": [
            "0x9fdbc2d48b8a0db2f62663bf9312ad02f5b1f6414ad600b55a247d09aeec3ea2"
          ],
          "data": "0x00000000000000000000000008e3dbfcf164df355e36b65b4e71d9e66483e0830000000000000000000000000000000000000000000000000000000000000001",
          "blockHash": "0x67ea18c13db79aaaa848e59e040279d228c006639333395fbf290655c4a4d422",
          "blockNumber": "0x589fc2e",
          "transactionHash": "0x771164892d1b37a9160becc8f3cdd4af75f991ee93bf4ebe42f92c670aee55e8",
          "transactionIndex": "0x1",
          "logIndex": "0x0",
          "removed": false
        }
      ],
      "logsBloom": "0x00000000000000000000000000000000100000000040000020000000000000000000000000000000000000000000000000000000000000000000000000000000000000000000000000000000000000000000000800000000000000000000000000000000000000000000000000000000000000000000000000000000000000000000000000000000000000000000000000000000000000000000000000000000000000000000000000000000000000000000000000000000000000000000000000000000000000000000000000000000000000000000000000000000000000000000000000000000000000000000000000000000000000000000100040000000",
      "type": "0x2",
      "transactionHash": "0x771164892d1b37a9160becc8f3cdd4af75f991ee93bf4ebe42f92c670aee55e8",
      "transactionIndex": "0x1",
      "blockHash": "0x67ea18c13db79aaaa848e59e040279d228c006639333395fbf290655c4a4d422",
      "blockNumber": "0x589fc2e",
      "gasUsed": "0xd36e",
      "effectiveGasPrice": "0x5f5e100",
      "from": "0xb7d030f7c6406446e703e73b3d1dd8611a2d87b6",
      "to": "0xb4bb45fe7595105fdb425a9e024cfdeadf321ef6",
      "contractAddress": null,
      "gasUsedForL1": "0x193c",
      "l1BlockNumber": "0x6a707a"
    }
  ],
  "libraries": [],
  "pending": [],
  "returns": {},
  "timestamp": 1730278651,
  "chain": 421614,
  "commit": "d5ea916"
}