{
  "transactions": [
    {
      "hash": "0xed136f4fdfb52e38dc1f6e802d50d5bba4a724ef5ab1bf7b7772fb02020c3737",
      "transactionType": "CALL",
      "contractName": null,
      "contractAddress": "0x7c9612ed0716cc48474acb908b4766239709d6a0",
      "function": "setExecutor(address,bool)",
      "arguments": [
        "0x08E3dBFCF164Df355E36B65B4e71D9E66483e083",
        "true"
      ],
      "transaction": {
        "from": "0xb7d030f7c6406446e703e73b3d1dd8611a2d87b6",
        "to": "0x7c9612ed0716cc48474acb908b4766239709d6a0",
        "gas": "0x12063",
        "value": "0x0",
        "input": "0x1e1bff3f00000000000000000000000008e3dbfcf164df355e36b65b4e71d9e66483e0830000000000000000000000000000000000000000000000000000000000000001",
        "nonce": "0xe9",
        "chainId": "0x66eee"
      },
      "additionalContracts": [],
      "isFixedGasLimit": false
    }
  ],
  "receipts": [
    {
      "status": "0x1",
      "cumulativeGasUsed": "0xd392",
      "logs": [
        {
          "address": "0x7c9612ed0716cc48474acb908b4766239709d6a0",
          "topics": [
            "0x9fdbc2d48b8a0db2f62663bf9312ad02f5b1f6414ad600b55a247d09aeec3ea2"
          ],
          "data": "0x00000000000000000000000008e3dbfcf164df355e36b65b4e71d9e66483e0830000000000000000000000000000000000000000000000000000000000000001",
          "blockHash": "0xec327308f79b248308df35bf90f2e3a29fecaf181700effe4464d6193049d2cb",
          "blockNumber": "0x589fb95",
          "transactionHash": "0xed136f4fdfb52e38dc1f6e802d50d5bba4a724ef5ab1bf7b7772fb02020c3737",
          "transactionIndex": "0x1",
          "logIndex": "0x0",
          "removed": false
        }
      ],
      "logsBloom": "0x00000000000000000000000000000000100000000000000020000000000000000000000000000000000000000000000000000000000000000000000000000000000000000000000000000000000000000000000000000000000000000000000000000000000000002000000000000000000000000000000000000000000000000000000000000000000000000000000000000000000000000000000000000000000000000000000000000000000000000000008000000000000000000000000000000000000000000080000000000000000000000000000000000000000000000000000000000000000000000000000000000000000000000000000040000000",
      "type": "0x2",
      "transactionHash": "0xed136f4fdfb52e38dc1f6e802d50d5bba4a724ef5ab1bf7b7772fb02020c3737",
      "transactionIndex": "0x1",
      "blockHash": "0xec327308f79b248308df35bf90f2e3a29fecaf181700effe4464d6193049d2cb",
      "blockNumber": "0x589fb95",
      "gasUsed": "0xd392",
      "effectiveGasPrice": "0x5f5e100",
      "from": "0xb7d030f7c6406446e703e73b3d1dd8611a2d87b6",
      "to": "0x7c9612ed0716cc48474acb908b4766239709d6a0",
      "contractAddress": null,
      "gasUsedForL1": "0x1960",
      "l1BlockNumber": "0x6a7077"
    }
  ],
  "libraries": [],
  "pending": [],
  "returns": {},
  "timestamp": 1730278606,
  "chain": 421614,
  "commit": "d5ea916"
}