{
  "transactions": [
    {
      "hash": "0xd83ba23a0098b8f57c61e61abdadf0df2416bfaeb0d09fb3ae4ac1c89668cb21",
      "transactionType": "CALL",
      "contractName": null,
      "contractAddress": "0x49bb830d9fd2e877be6b4c5564bbf245f2179fd9",
      "function": "setAddress(string,address)",
      "arguments": [
        "\"ERC6551Registry\"",
        "0x60f1D5BC00E85ad6bf3899A244aefe71f56a0796"
      ],
      "transaction": {
        "from": "0xb7d030f7c6406446e703e73b3d1dd8611a2d87b6",
        "to": "0x49bb830d9fd2e877be6b4c5564bbf245f2179fd9",
        "gas": "0x109b2",
        "value": "0x0",
        "input": "0x9b2ea4bd000000000000000000000000000000000000000000000000000000000000004000000000000000000000000060f1d5bc00e85ad6bf3899a244aefe71f56a0796000000000000000000000000000000000000000000000000000000000000000f4552433635353152656769737472790000000000000000000000000000000000",
        "nonce": "0x130",
        "chainId": "0x14a34"
      },
      "additionalContracts": [],
      "isFixedGasLimit": false
    }
  ],
  "receipts": [
    {
      "status": "0x1",
      "cumulativeGasUsed": "0x2bec6",
      "logs": [
        {
          "address": "0x49bb830d9fd2e877be6b4c5564bbf245f2179fd9",
          "topics": [
            "0xb0377b4035c2bd5b6aeb3eb7f139162c730ea47b957e4354f8a81ebb99573dec"
          ],
          "data": "0x000000000000000000000000000000000000000000000000000000000000004000000000000000000000000060f1d5bc00e85ad6bf3899a244aefe71f56a0796000000000000000000000000000000000000000000000000000000000000000f4552433635353152656769737472790000000000000000000000000000000000",
          "blockHash": "0xa5b5c6a0bc15f40603c45f5193f4e6b0f15d675abee664c123b209d5d6481818",
          "blockNumber": "0xaed459",
          "transactionHash": "0xd83ba23a0098b8f57c61e61abdadf0df2416bfaeb0d09fb3ae4ac1c89668cb21",
          "transactionIndex": "0x2",
          "logIndex": "0x1",
          "removed": false
        }
      ],
      "logsBloom": "0x00000000000000000000000000000000000000000000000000000002000000000000000000000000000000000000000000000000000000000000000000000001000000000000000000000000000000000000000000000000000000000000000000000000000000000000000000000000000000000000000000000000000000000000000000000000000000000000000000000000000000000000000000000000000000000000000000000000000000000000000000000000000000000000080000000000000000000000000000000000004000000000000000000000000000000000000000001000000000000000000000000400000000000000000000000000",
      "type": "0x2",
      "transactionHash": "0xd83ba23a0098b8f57c61e61abdadf0df2416bfaeb0d09fb3ae4ac1c89668cb21",
      "transactionIndex": "0x2",
      "blockHash": "0xa5b5c6a0bc15f40603c45f5193f4e6b0f15d675abee664c123b209d5d6481818",
      "blockNumber": "0xaed459",
      "gasUsed": "0xc05d",
      "effectiveGasPrice": "0xf437b",
      "from": "0xb7d030f7c6406446e703e73b3d1dd8611a2d87b6",
      "to": "0x49bb830d9fd2e877be6b4c5564bbf245f2179fd9",
      "contractAddress": null,
      "l1BaseFeeScalar": "0x44d",
      "l1BlobBaseFee": "0x1",
      "l1BlobBaseFeeScalar": "0xa118b",
      "l1Fee": "0x285ed3d",
      "l1GasPrice": "0x1563588",
      "l1GasUsed": "0x6b2"
    }
  ],
  "libraries": [],
  "pending": [],
  "returns": {},
  "timestamp": 1718683543,
  "chain": 84532,
  "commit": "de99658"
}