{
  "transactions": [
    {
      "hash": "0xd00eadb86e60c208cc7fab28ba52c930110a942a38f30724f5490b043a8d66fe",
      "transactionType": "CALL",
      "contractName": null,
      "contractAddress": "0xa80f5b8d1126d7a2eb1ce271483cf70bbb4e6e0a",
      "function": "setFeePerSponsorTicket(uint256)",
      "arguments": [
        "1000000000000"
      ],
      "transaction": {
        "from": "0xb7d030f7c6406446e703e73b3d1dd8611a2d87b6",
        "to": "0xa80f5b8d1126d7a2eb1ce271483cf70bbb4e6e0a",
        "gas": "0x9b44",
        "value": "0x0",
        "input": "0x149caac8000000000000000000000000000000000000000000000000000000e8d4a51000",
        "nonce": "0x17b",
        "chainId": "0x14a34"
      },
      "additionalContracts": [],
      "isFixedGasLimit": false
    }
  ],
  "receipts": [
    {
      "status": "0x1",
      "cumulativeGasUsed": "0x14fc76",
      "logs": [
        {
          "address": "0xa80f5b8d1126d7a2eb1ce271483cf70bbb4e6e0a",
          "topics": [
            "0xc213c63ebbcc7cf00b0153c23fbac46f00d360b97b2a9b8f14174cdb9fa635de"
          ],
          "data": "0x000000000000000000000000000000000000000000000000000000e8d4a51000",
          "blockHash": "0x95a66d68c5085ad0228d518f61fffdff368962fd39ff7b186fdce01448848639",
          "blockNumber": "0xb46062",
          "transactionHash": "0xd00eadb86e60c208cc7fab28ba52c930110a942a38f30724f5490b043a8d66fe",
          "transactionIndex": "0x3",
          "logIndex": "0x1c",
          "removed": false
        }
      ],
      "logsBloom": "0x00000000080000000010000000000000000000000000000000000000000000000000000000000000000000000000000000000000000000000000000000000000000000000000000000000000000000000000000000000000000000000000000000000200000000000000000000000000000000000000000000000000000000000000000000000000000000000000000000000000000000000000000000000000000000000000000000000000000000000000000000000000000000000000000000000000000000000000040000000000000000000000000040000000000000000000000000000000000000000000000000000000000000000000001000000000",
      "type": "0x2",
      "transactionHash": "0xd00eadb86e60c208cc7fab28ba52c930110a942a38f30724f5490b043a8d66fe",
      "transactionIndex": "0x3",
      "blockHash": "0x95a66d68c5085ad0228d518f61fffdff368962fd39ff7b186fdce01448848639",
      "blockNumber": "0xb46062",
      "gasUsed": "0x6a2b",
      "effectiveGasPrice": "0xf7634",
      "from": "0xb7d030f7c6406446e703e73b3d1dd8611a2d87b6",
      "to": "0xa80f5b8d1126d7a2eb1ce271483cf70bbb4e6e0a",
      "contractAddress": null,
      "l1BaseFeeScalar": "0x44d",
      "l1BlobBaseFee": "0x1",
      "l1BlobBaseFeeScalar": "0xa118b",
      "l1Fee": "0x9353566c1",
      "l1GasPrice": "0x53a1b4a76",
      "l1GasUsed": "0x640"
    }
  ],
  "libraries": [],
  "pending": [],
  "returns": {},
  "timestamp": 1719410602,
  "chain": 84532,
  "commit": "299ff3d"
}