{
  "transactions": [
    {
      "hash": "0xdb17f585a51141bfcc94f11faf1682da3813ab650ac8bfe6bb4910f661bc491f",
      "transactionType": "CALL",
      "contractName": null,
      "contractAddress": "0xc45f19217e064EcE272e55EE7aAD36cc91e7ADA3",
      "function": "setAddresses(string[],address[])",
      "arguments": [
        "[\"UNISWAP_ROUTER\", \"UNISWAP_QUOTER\", \"TOKEN_WETH\", \"TOKEN_USDC\"]",
        "[0x2626664c2603336E57B271c5C0b26F421741e481, 0x3d4e44Eb1374240CE5F1B871ab261CD16335B76a, 0x4200000000000000000000000000000000000006, 0x833589fCD6eDb6E08f4c7C32D4f71b54bdA02913]"
      ],
      "transaction": {
        "type": "0x02",
        "from": "0xf53f105e90b3e9ea928926a5a78e921d8168e213",
        "to": "0xc45f19217e064ece272e55ee7aad36cc91e7ada3",
        "gas": "0x2e544",
        "value": "0x0",
        "data": "0x7d69a892000000000000000000000000000000000000000000000000000000000000004000000000000000000000000000000000000000000000000000000000000001e00000000000000000000000000000000000000000000000000000000000000004000000000000000000000000000000000000000000000000000000000000008000000000000000000000000000000000000000000000000000000000000000c000000000000000000000000000000000000000000000000000000000000001000000000000000000000000000000000000000000000000000000000000000140000000000000000000000000000000000000000000000000000000000000000e554e49535741505f524f55544552000000000000000000000000000000000000000000000000000000000000000000000000000000000000000000000000000e554e49535741505f51554f544552000000000000000000000000000000000000000000000000000000000000000000000000000000000000000000000000000a544f4b454e5f5745544800000000000000000000000000000000000000000000000000000000000000000000000000000000000000000000000000000000000a544f4b454e5f555344430000000000000000000000000000000000000000000000000000000000000000000000000000000000000000000000000000000000040000000000000000000000002626664c2603336e57b271c5c0b26f421741e4810000000000000000000000003d4e44eb1374240ce5f1b871ab261cd16335b76a0000000000000000000000004200000000000000000000000000000000000006000000000000000000000000833589fcd6edb6e08f4c7c32d4f71b54bda02913",
        "nonce": "0x5a",
        "accessList": []
      },
      "additionalContracts": [],
      "isFixedGasLimit": false
    }
  ],
  "receipts": [
    {
      "transactionHash": "0xdb17f585a51141bfcc94f11faf1682da3813ab650ac8bfe6bb4910f661bc491f",
      "transactionIndex": "0x1",
      "blockHash": "0x7cfeb011cbef5957e6c2a8f0584f57b85acf3b12bb940a8a47be85c010932d07",
      "blockNumber": "0x16c3456",
      "from": "0xf53f105E90b3e9Ea928926A5A78E921D8168e213",
      "to": "0xc45f19217e064EcE272e55EE7aAD36cc91e7ADA3",
      "cumulativeGasUsed": "0x2d1e5",
      "gasUsed": "0x1fada",
      "contractAddress": null,
      "logs": [
        {
          "address": "0xc45f19217e064EcE272e55EE7aAD36cc91e7ADA3",
          "topics": [
            "0xb0377b4035c2bd5b6aeb3eb7f139162c730ea47b957e4354f8a81ebb99573dec"
          ],
          "data": "0x00000000000000000000000000000000000000000000000000000000000000400000000000000000000000002626664c2603336e57b271c5c0b26f421741e481000000000000000000000000000000000000000000000000000000000000000e554e49535741505f524f55544552000000000000000000000000000000000000",
          "blockHash": "0x7cfeb011cbef5957e6c2a8f0584f57b85acf3b12bb940a8a47be85c010932d07",
          "blockNumber": "0x16c3456",
          "transactionHash": "0xdb17f585a51141bfcc94f11faf1682da3813ab650ac8bfe6bb4910f661bc491f",
          "transactionIndex": "0x1",
          "logIndex": "0x0",
          "removed": false
        },
        {
          "address": "0xc45f19217e064EcE272e55EE7aAD36cc91e7ADA3",
          "topics": [
            "0xb0377b4035c2bd5b6aeb3eb7f139162c730ea47b957e4354f8a81ebb99573dec"
          ],
          "data": "0x00000000000000000000000000000000000000000000000000000000000000400000000000000000000000003d4e44eb1374240ce5f1b871ab261cd16335b76a000000000000000000000000000000000000000000000000000000000000000e554e49535741505f51554f544552000000000000000000000000000000000000",
          "blockHash": "0x7cfeb011cbef5957e6c2a8f0584f57b85acf3b12bb940a8a47be85c010932d07",
          "blockNumber": "0x16c3456",
          "transactionHash": "0xdb17f585a51141bfcc94f11faf1682da3813ab650ac8bfe6bb4910f661bc491f",
          "transactionIndex": "0x1",
          "logIndex": "0x1",
          "removed": false
        },
        {
          "address": "0xc45f19217e064EcE272e55EE7aAD36cc91e7ADA3",
          "topics": [
            "0xb0377b4035c2bd5b6aeb3eb7f139162c730ea47b957e4354f8a81ebb99573dec"
          ],
          "data": "0x00000000000000000000000000000000000000000000000000000000000000400000000000000000000000004200000000000000000000000000000000000006000000000000000000000000000000000000000000000000000000000000000a544f4b454e5f5745544800000000000000000000000000000000000000000000",
          "blockHash": "0x7cfeb011cbef5957e6c2a8f0584f57b85acf3b12bb940a8a47be85c010932d07",
          "blockNumber": "0x16c3456",
          "transactionHash": "0xdb17f585a51141bfcc94f11faf1682da3813ab650ac8bfe6bb4910f661bc491f",
          "transactionIndex": "0x1",
          "logIndex": "0x2",
          "removed": false
        },
        {
          "address": "0xc45f19217e064EcE272e55EE7aAD36cc91e7ADA3",
          "topics": [
            "0xb0377b4035c2bd5b6aeb3eb7f139162c730ea47b957e4354f8a81ebb99573dec"
          ],
          "data": "0x0000000000000000000000000000000000000000000000000000000000000040000000000000000000000000833589fcd6edb6e08f4c7c32d4f71b54bda02913000000000000000000000000000000000000000000000000000000000000000a544f4b454e5f5553444300000000000000000000000000000000000000000000",
          "blockHash": "0x7cfeb011cbef5957e6c2a8f0584f57b85acf3b12bb940a8a47be85c010932d07",
          "blockNumber": "0x16c3456",
          "transactionHash": "0xdb17f585a51141bfcc94f11faf1682da3813ab650ac8bfe6bb4910f661bc491f",
          "transactionIndex": "0x1",
          "logIndex": "0x3",
          "removed": false
        }
      ],
      "status": "0x1",
      "logsBloom": "0x00000000000000000000000000000000000000000000000000000000000000000000000000000000000000000000000000000000000010000000000000000000000000000000000000000000000000000000000000000000000000000000000000000000000000000000000000000000000000000040000000000000000000000000000000000000000000000000000000000000000000000000000000000000000000000000000000000000000000000000000000000000000000000000080000000000000000000000000000000000004000000000000000000000000000000000000000000000000010000000000000000400000000000000000000000000",
      "type": "0x2",
      "effectiveGasPrice": "0xb3a03157"
    }
  ],
  "libraries": [],
  "pending": [],
  "returns": {},
  "timestamp": 1734526356,
  "chain": 8453,
  "commit": "68a85b8"
}