{
  "transactions": [
    {
      "hash": "0x85f6323f2e075ecc325bcb088e16536117af15c131cd23e74d1e62533f967cea",
      "transactionType": "CALL",
      "contractName": null,
      "contractAddress": "0xc45f19217e064EcE272e55EE7aAD36cc91e7ADA3",
      "function": "setAddresses(string[],address[])",
      "arguments": [
        "[\"UNISWAP_ROUTER\", \"UNISWAP_QUOTER\", \"TOKEN_WETH\", \"TOKEN_USDC\"]",
        "[0x0000000000000000000000000000000000000000, 0x0000000000000000000000000000000000000000, 0x0000000000000000000000000000000000000000, 0x0000000000000000000000000000000000000000]"
      ],
      "transaction": {
        "type": "0x02",
        "from": "0xf53f105e90b3e9ea928926a5a78e921d8168e213",
        "to": "0xc45f19217e064ece272e55ee7aad36cc91e7ada3",
        "gas": "0x11a45",
        "value": "0x0",
        "data": "0x7d69a892000000000000000000000000000000000000000000000000000000000000004000000000000000000000000000000000000000000000000000000000000001e00000000000000000000000000000000000000000000000000000000000000004000000000000000000000000000000000000000000000000000000000000008000000000000000000000000000000000000000000000000000000000000000c000000000000000000000000000000000000000000000000000000000000001000000000000000000000000000000000000000000000000000000000000000140000000000000000000000000000000000000000000000000000000000000000e554e49535741505f524f55544552000000000000000000000000000000000000000000000000000000000000000000000000000000000000000000000000000e554e49535741505f51554f544552000000000000000000000000000000000000000000000000000000000000000000000000000000000000000000000000000a544f4b454e5f5745544800000000000000000000000000000000000000000000000000000000000000000000000000000000000000000000000000000000000a544f4b454e5f555344430000000000000000000000000000000000000000000000000000000000000000000000000000000000000000000000000000000000040000000000000000000000000000000000000000000000000000000000000000000000000000000000000000000000000000000000000000000000000000000000000000000000000000000000000000000000000000000000000000000000000000000000000000000000000000000000000000000000000000000000000000",
        "nonce": "0x59",
        "accessList": []
      },
      "additionalContracts": [],
      "isFixedGasLimit": false
    }
  ],
  "receipts": [
    {
      "transactionHash": "0x85f6323f2e075ecc325bcb088e16536117af15c131cd23e74d1e62533f967cea",
      "transactionIndex": "0x1",
      "blockHash": "0xddfc16e3ecc087b084fae89bd345d6a8f2aeb01abe22048a80c46989c0ff8b4f",
      "blockNumber": "0x16c3411",
      "from": "0xf53f105E90b3e9Ea928926A5A78E921D8168e213",
      "to": "0xc45f19217e064EcE272e55EE7aAD36cc91e7ADA3",
      "cumulativeGasUsed": "0x16c59",
      "gasUsed": "0xc102",
      "contractAddress": null,
      "logs": [
        {
          "address": "0xc45f19217e064EcE272e55EE7aAD36cc91e7ADA3",
          "topics": [
            "0xb0377b4035c2bd5b6aeb3eb7f139162c730ea47b957e4354f8a81ebb99573dec"
          ],
          "data": "0x00000000000000000000000000000000000000000000000000000000000000400000000000000000000000000000000000000000000000000000000000000000000000000000000000000000000000000000000000000000000000000000000e554e49535741505f524f55544552000000000000000000000000000000000000",
          "blockHash": "0xddfc16e3ecc087b084fae89bd345d6a8f2aeb01abe22048a80c46989c0ff8b4f",
          "blockNumber": "0x16c3411",
          "transactionHash": "0x85f6323f2e075ecc325bcb088e16536117af15c131cd23e74d1e62533f967cea",
          "transactionIndex": "0x1",
          "logIndex": "0x0",
          "removed": false
        },
        {
          "address": "0xc45f19217e064EcE272e55EE7aAD36cc91e7ADA3",
          "topics": [
            "0xb0377b4035c2bd5b6aeb3eb7f139162c730ea47b957e4354f8a81ebb99573dec"
          ],
          "data": "0x00000000000000000000000000000000000000000000000000000000000000400000000000000000000000000000000000000000000000000000000000000000000000000000000000000000000000000000000000000000000000000000000e554e49535741505f51554f544552000000000000000000000000000000000000",
          "blockHash": "0xddfc16e3ecc087b084fae89bd345d6a8f2aeb01abe22048a80c46989c0ff8b4f",
          "blockNumber": "0x16c3411",
          "transactionHash": "0x85f6323f2e075ecc325bcb088e16536117af15c131cd23e74d1e62533f967cea",
          "transactionIndex": "0x1",
          "logIndex": "0x1",
          "removed": false
        },
        {
          "address": "0xc45f19217e064EcE272e55EE7aAD36cc91e7ADA3",
          "topics": [
            "0xb0377b4035c2bd5b6aeb3eb7f139162c730ea47b957e4354f8a81ebb99573dec"
          ],
          "data": "0x00000000000000000000000000000000000000000000000000000000000000400000000000000000000000000000000000000000000000000000000000000000000000000000000000000000000000000000000000000000000000000000000a544f4b454e5f5745544800000000000000000000000000000000000000000000",
          "blockHash": "0xddfc16e3ecc087b084fae89bd345d6a8f2aeb01abe22048a80c46989c0ff8b4f",
          "blockNumber": "0x16c3411",
          "transactionHash": "0x85f6323f2e075ecc325bcb088e16536117af15c131cd23e74d1e62533f967cea",
          "transactionIndex": "0x1",
          "logIndex": "0x2",
          "removed": false
        },
        {
          "address": "0xc45f19217e064EcE272e55EE7aAD36cc91e7ADA3",
          "topics": [
            "0xb0377b4035c2bd5b6aeb3eb7f139162c730ea47b957e4354f8a81ebb99573dec"
          ],
          "data": "0x00000000000000000000000000000000000000000000000000000000000000400000000000000000000000000000000000000000000000000000000000000000000000000000000000000000000000000000000000000000000000000000000a544f4b454e5f5553444300000000000000000000000000000000000000000000",
          "blockHash": "0xddfc16e3ecc087b084fae89bd345d6a8f2aeb01abe22048a80c46989c0ff8b4f",
          "blockNumber": "0x16c3411",
          "transactionHash": "0x85f6323f2e075ecc325bcb088e16536117af15c131cd23e74d1e62533f967cea",
          "transactionIndex": "0x1",
          "logIndex": "0x3",
          "removed": false
        }
      ],
      "status": "0x1",
      "logsBloom": "0x00000000000000000000000000000000000000000000000000000000000000000000000000000000000000000000000000000000000010000000000000000000000000000000000000000000000000000000000000000000000000000000000000000000000000000000000000000000000000000040000000000000000000000000000000000000000000000000000000000000000000000000000000000000000000000000000000000000000000000000000000000000000000000000080000000000000000000000000000000000004000000000000000000000000000000000000000000000000010000000000000000400000000000000000000000000",
      "type": "0x2",
      "effectiveGasPrice": "0xb398a1a6"
    }
  ],
  "libraries": [],
  "pending": [],
  "returns": {},
  "timestamp": 1734526219,
  "chain": 8453,
  "commit": "68a85b8"
}