{
  "transactions": [
    {
      "hash": "0x2f41d6605f33f7fad921ec9f10b6e6ef70282a10619d6650768421283cb9b522",
      "transactionType": "CALL",
      "contractName": null,
      "contractAddress": "0xc45f19217e064ece272e55ee7aad36cc91e7ada3",
      "function": "setAddresses(string[],address[])",
      "arguments": [
        "[\"UNISWAP_ROUTER\", \"UNISWAP_QUOTER\", \"TOKEN_WETH\", \"TOKEN_USDC\"]",
        "[0x0000000000000000000000000000000000000000, 0x0000000000000000000000000000000000000000, 0x0000000000000000000000000000000000000000, 0x0000000000000000000000000000000000000000]"
      ],
      "transaction": {
        "from": "0xf53f105e90b3e9ea928926a5a78e921d8168e213",
        "to": "0xc45f19217e064ece272e55ee7aad36cc91e7ada3",
        "gas": "0x11a45",
        "value": "0x0",
        "input": "0x7d69a892000000000000000000000000000000000000000000000000000000000000004000000000000000000000000000000000000000000000000000000000000001e00000000000000000000000000000000000000000000000000000000000000004000000000000000000000000000000000000000000000000000000000000008000000000000000000000000000000000000000000000000000000000000000c000000000000000000000000000000000000000000000000000000000000001000000000000000000000000000000000000000000000000000000000000000140000000000000000000000000000000000000000000000000000000000000000e554e49535741505f524f55544552000000000000000000000000000000000000000000000000000000000000000000000000000000000000000000000000000e554e49535741505f51554f544552000000000000000000000000000000000000000000000000000000000000000000000000000000000000000000000000000a544f4b454e5f5745544800000000000000000000000000000000000000000000000000000000000000000000000000000000000000000000000000000000000a544f4b454e5f555344430000000000000000000000000000000000000000000000000000000000000000000000000000000000000000000000000000000000040000000000000000000000000000000000000000000000000000000000000000000000000000000000000000000000000000000000000000000000000000000000000000000000000000000000000000000000000000000000000000000000000000000000000000000000000000000000000000000000000000000000000000",
        "nonce": "0x52",
        "chainId": "0x2105"
      },
      "additionalContracts": [],
      "isFixedGasLimit": false
    }
  ],
  "receipts": [
    {
      "status": "0x1",
      "cumulativeGasUsed": "0x1f43fa2",
      "logs": [
        {
          "address": "0xc45f19217e064ece272e55ee7aad36cc91e7ada3",
          "topics": [
            "0xb0377b4035c2bd5b6aeb3eb7f139162c730ea47b957e4354f8a81ebb99573dec"
          ],
          "data": "0x00000000000000000000000000000000000000000000000000000000000000400000000000000000000000000000000000000000000000000000000000000000000000000000000000000000000000000000000000000000000000000000000e554e49535741505f524f55544552000000000000000000000000000000000000",
          "blockHash": "0x442213cb6c1f192c1056543f0cbbb78c670537c5844f0a4dbc880e4ed43d61f4",
          "blockNumber": "0x16b9b5a",
          "transactionHash": "0x2f41d6605f33f7fad921ec9f10b6e6ef70282a10619d6650768421283cb9b522",
          "transactionIndex": "0xe2",
          "logIndex": "0x237",
          "removed": false
        },
        {
          "address": "0xc45f19217e064ece272e55ee7aad36cc91e7ada3",
          "topics": [
            "0xb0377b4035c2bd5b6aeb3eb7f139162c730ea47b957e4354f8a81ebb99573dec"
          ],
          "data": "0x00000000000000000000000000000000000000000000000000000000000000400000000000000000000000000000000000000000000000000000000000000000000000000000000000000000000000000000000000000000000000000000000e554e49535741505f51554f544552000000000000000000000000000000000000",
          "blockHash": "0x442213cb6c1f192c1056543f0cbbb78c670537c5844f0a4dbc880e4ed43d61f4",
          "blockNumber": "0x16b9b5a",
          "transactionHash": "0x2f41d6605f33f7fad921ec9f10b6e6ef70282a10619d6650768421283cb9b522",
          "transactionIndex": "0xe2",
          "logIndex": "0x238",
          "removed": false
        },
        {
          "address": "0xc45f19217e064ece272e55ee7aad36cc91e7ada3",
          "topics": [
            "0xb0377b4035c2bd5b6aeb3eb7f139162c730ea47b957e4354f8a81ebb99573dec"
          ],
          "data": "0x00000000000000000000000000000000000000000000000000000000000000400000000000000000000000000000000000000000000000000000000000000000000000000000000000000000000000000000000000000000000000000000000a544f4b454e5f5745544800000000000000000000000000000000000000000000",
          "blockHash": "0x442213cb6c1f192c1056543f0cbbb78c670537c5844f0a4dbc880e4ed43d61f4",
          "blockNumber": "0x16b9b5a",
          "transactionHash": "0x2f41d6605f33f7fad921ec9f10b6e6ef70282a10619d6650768421283cb9b522",
          "transactionIndex": "0xe2",
          "logIndex": "0x239",
          "removed": false
        },
        {
          "address": "0xc45f19217e064ece272e55ee7aad36cc91e7ada3",
          "topics": [
            "0xb0377b4035c2bd5b6aeb3eb7f139162c730ea47b957e4354f8a81ebb99573dec"
          ],
          "data": "0x00000000000000000000000000000000000000000000000000000000000000400000000000000000000000000000000000000000000000000000000000000000000000000000000000000000000000000000000000000000000000000000000a544f4b454e5f5553444300000000000000000000000000000000000000000000",
          "blockHash": "0x442213cb6c1f192c1056543f0cbbb78c670537c5844f0a4dbc880e4ed43d61f4",
          "blockNumber": "0x16b9b5a",
          "transactionHash": "0x2f41d6605f33f7fad921ec9f10b6e6ef70282a10619d6650768421283cb9b522",
          "transactionIndex": "0xe2",
          "logIndex": "0x23a",
          "removed": false
        }
      ],
      "logsBloom": "0x00000000000000000000000000000000000000000000000000000000000000000000000000000000000000000000000000000000000010000000000000000000000000000000000000000000000000000000000000000000000000000000000000000000000000000000000000000000000000000040000000000000000000000000000000000000000000000000000000000000000000000000000000000000000000000000000000000000000000000000000000000000000000000000080000000000000000000000000000000000004000000000000000000000000000000000000000000000000010000000000000000400000000000000000000000000",
      "type": "0x2",
      "transactionHash": "0x2f41d6605f33f7fad921ec9f10b6e6ef70282a10619d6650768421283cb9b522",
      "transactionIndex": "0xe2",
      "blockHash": "0x442213cb6c1f192c1056543f0cbbb78c670537c5844f0a4dbc880e4ed43d61f4",
      "blockNumber": "0x16b9b5a",
      "gasUsed": "0xc102",
      "effectiveGasPrice": "0x2493948",
      "from": "0xf53f105e90b3e9ea928926a5a78e921d8168e213",
      "to": "0xc45f19217e064ece272e55ee7aad36cc91e7ada3",
      "contractAddress": null,
      "l1BaseFeeScalar": "0x8dd",
      "l1BlobBaseFee": "0x3d7925e",
      "l1BlobBaseFeeScalar": "0x101c12",
      "l1Fee": "0x35266233ac",
      "l1GasPrice": "0x8de5708d4",
      "l1GasUsed": "0x9d5"
    }
  ],
  "libraries": [],
  "pending": [],
  "returns": {},
  "timestamp": 1734448029,
  "chain": 8453,
  "commit": "73a901b"
}