{
  "transactions": [
    {
      "hash": "0x684d3a41f74ea7b9829fa72c3d5930d1a76af8f98fd3bbfb9252582cd2cd9b29",
      "transactionType": "CREATE",
      "contractName": "NFTVault",
      "contractAddress": "0xfc795dd1faacf2f3758832bfcae1d090836ecfdd",
      "function": null,
      "arguments": null,
      "transaction": {
        "from": "0xf53f105e90b3e9ea928926a5a78e921d8168e213",
        "gas": "0x22f9ad",
        "value": "0x0",
        "input": "0x608060405234801561000f575f80fd5b5061001a5f3361004b565b506100457f241ecf16d79d0f8dbfb92cbc07fe17840425976cf0667f022fe9877caa831b083361004b565b506100f4565b5f828152602081815260408083206001600160a01b038516845290915281205460ff166100eb575f838152602081815260408083206001600160a01b03861684529091529020805460ff191660011790556100a33390565b6001600160a01b0316826001600160a01b0316847f2f8788117e7eff1d82e926ec794901d17c78024a50270940304540a733656f0d60405160405180910390a45060016100ee565b505f5b92915050565b610ce9806101015f395ff3fe608060405234801561000f575f80fd5b50600436106100fb575f3560e01c8063a217fddf11610093578063cc05447f11610063578063cc05447f14610224578063d547741f14610237578063ec87621c1461024a578063f23a6e611461025e575f80fd5b8063a217fddf146101e4578063b72ac8ea146101eb578063bc197c81146101fe578063be4dc94f14610211575f80fd5b806326e885e3116100ce57806326e885e3146101985780632f2ff15d146101ab57806336568abe146101be57806391d14854146101d1575f80fd5b806301ffc9a7146100ff5780630e29ca0114610127578063150b7a021461013c578063248a9ca314610168575b5f80fd5b61011261010d36600461078c565b610271565b60405190151581526020015b60405180910390f35b61013a61013536600461087f565b6102b6565b005b61014f61014a3660046108f0565b610336565b6040516001600160e01b0319909116815260200161011e565b61018a610176366004610958565b5f9081526020819052604090206001015490565b60405190815260200161011e565b61013a6101a636600461096f565b610394565b61013a6101b936600461098a565b6103b9565b61013a6101cc36600461098a565b6103e3565b6101126101df36600461098a565b61041b565b61018a5f81565b61013a6101f93660046109b8565b610443565b61014f61020c366004610a73565b6104c3565b61013a61021f36600461096f565b610525565b61013a610232366004610a73565b610546565b61013a61024536600461098a565b610591565b61018a5f80516020610c9483398151915281565b61014f61026c36600461087f565b6105b5565b5f6001600160e01b03198216630a85bd0160e11b14806102a157506001600160e01b03198216630271189760e51b145b806102b057506102b082610616565b92915050565b5f80516020610c948339815191526102cd8161064a565b604051637921219560e11b81526001600160a01b0387169063f242432a906103019030908990899089908990600401610b50565b5f604051808303815f87803b158015610318575f80fd5b505af115801561032a573d5f803e3d5ffd5b50505050505050505050565b5f82846001600160a01b0316866001600160a01b03167fa05d90f300156ad1b545bc5d8197024456f21d22a708f5af04dd293e3d6052518560405161037b9190610b89565b60405180910390a450630a85bd0160e11b949350505050565b5f61039e8161064a565b6103b55f80516020610c94833981519152836103b9565b5050565b5f828152602081905260409020600101546103d38161064a565b6103dd8383610657565b50505050565b6001600160a01b038116331461040c5760405163334bd91960e11b815260040160405180910390fd5b61041682826106e6565b505050565b5f918252602082815260408084206001600160a01b0393909316845291905290205460ff1690565b5f80516020610c9483398151915261045a8161064a565b604051632142170760e11b81523060048201526001600160a01b038481166024830152604482018490528516906342842e0e906064015f604051808303815f87803b1580156104a7575f80fd5b505af11580156104b9573d5f803e3d5ffd5b5050505050505050565b5f846001600160a01b0316866001600160a01b03167f2360e6b28d144bcde27ca99baa660f822a59e919f243c01dfaec5a55986df5f586868660405161050b93929190610bd4565b60405180910390a35063bc197c8160e01b95945050505050565b5f61052f8161064a565b6103b55f80516020610c9483398151915283610591565b5f80516020610c9483398151915261055d8161064a565b604051631759616b60e11b81526001600160a01b03871690632eb2c2d6906103019030908990899089908990600401610c16565b5f828152602081905260409020600101546105ab8161064a565b6103dd83836106e6565b5f83856001600160a01b0316876001600160a01b03167f01109c91bca177ae1324bc2fc89be4b2573d2e59ad0cc75b1f3d3aa807814d3686866040516105fc929190610c73565b60405180910390a45063f23a6e6160e01b95945050505050565b5f6001600160e01b03198216637965db0b60e01b14806102b057506301ffc9a760e01b6001600160e01b03198316146102b0565b610654813361074f565b50565b5f610662838361041b565b6106df575f838152602081815260408083206001600160a01b03861684529091529020805460ff191660011790556106973390565b6001600160a01b0316826001600160a01b0316847f2f8788117e7eff1d82e926ec794901d17c78024a50270940304540a733656f0d60405160405180910390a45060016102b0565b505f6102b0565b5f6106f1838361041b565b156106df575f838152602081815260408083206001600160a01b0386168085529252808320805460ff1916905551339286917ff6391f5c32d9c69d2a47ea670b442974b53935d1edc7fd64eb21e047a839171b9190a45060016102b0565b610759828261041b565b6103b55760405163e2517d3f60e01b81526001600160a01b03821660048201526024810183905260440160405180910390fd5b5f6020828403121561079c575f80fd5b81356001600160e01b0319811681146107b3575f80fd5b9392505050565b6001600160a01b0381168114610654575f80fd5b634e487b7160e01b5f52604160045260245ffd5b604051601f8201601f1916810167ffffffffffffffff8111828210171561080b5761080b6107ce565b604052919050565b5f82601f830112610822575f80fd5b813567ffffffffffffffff81111561083c5761083c6107ce565b61084f601f8201601f19166020016107e2565b818152846020838601011115610863575f80fd5b816020850160208301375f918101602001919091529392505050565b5f805f805f60a08688031215610893575f80fd5b853561089e816107ba565b945060208601356108ae816107ba565b93506040860135925060608601359150608086013567ffffffffffffffff8111156108d7575f80fd5b6108e388828901610813565b9150509295509295909350565b5f805f8060808587031215610903575f80fd5b843561090e816107ba565b9350602085013561091e816107ba565b925060408501359150606085013567ffffffffffffffff811115610940575f80fd5b61094c87828801610813565b91505092959194509250565b5f60208284031215610968575f80fd5b5035919050565b5f6020828403121561097f575f80fd5b81356107b3816107ba565b5f806040838503121561099b575f80fd5b8235915060208301356109ad816107ba565b809150509250929050565b5f805f606084860312156109ca575f80fd5b83356109d5816107ba565b925060208401356109e5816107ba565b929592945050506040919091013590565b5f82601f830112610a05575f80fd5b8135602067ffffffffffffffff821115610a2157610a216107ce565b8160051b610a308282016107e2565b9283528481018201928281019087851115610a49575f80fd5b83870192505b84831015610a6857823582529183019190830190610a4f565b979650505050505050565b5f805f805f60a08688031215610a87575f80fd5b8535610a92816107ba565b94506020860135610aa2816107ba565b9350604086013567ffffffffffffffff80821115610abe575f80fd5b610aca89838a016109f6565b94506060880135915080821115610adf575f80fd5b610aeb89838a016109f6565b93506080880135915080821115610b00575f80fd5b506108e388828901610813565b5f81518084525f5b81811015610b3157602081850181015186830182015201610b15565b505f602082860101526020601f19601f83011685010191505092915050565b6001600160a01b03868116825285166020820152604081018490526060810183905260a0608082018190525f90610a6890830184610b0d565b602081525f6107b36020830184610b0d565b5f8151808452602080850194508084015f5b83811015610bc957815187529582019590820190600101610bad565b509495945050505050565b606081525f610be66060830186610b9b565b8281036020840152610bf88186610b9b565b90508281036040840152610c0c8185610b0d565b9695505050505050565b6001600160a01b0386811682528516602082015260a0604082018190525f90610c4190830186610b9b565b8281036060840152610c538186610b9b565b90508281036080840152610c678185610b0d565b98975050505050505050565b828152604060208201525f610c8b6040830184610b0d565b94935050505056fe241ecf16d79d0f8dbfb92cbc07fe17840425976cf0667f022fe9877caa831b08a2646970667358221220cd45b6e59081e419c13721f87555d8656b00dfe4713c42ebde71890ec758e19064736f6c63430008140033",
        "nonce": "0x44",
        "chainId": "0xa4b1"
      },
      "additionalContracts": [],
      "isFixedGasLimit": false
    },
    {
      "hash": "0x7b9e9dbfc5824bc7d662bc2f99a6494d9c1520cb758347ba504778ddf19f675c",
      "transactionType": "CALL",
      "contractName": "NFTVault",
      "contractAddress": "0xfc795dd1faacf2f3758832bfcae1d090836ecfdd",
      "function": "grantManagerRole(address)",
      "arguments": [
        "0xe335Cf211aA52f3a84257F61dde34C3BDFced560"
      ],
      "transaction": {
        "from": "0xf53f105e90b3e9ea928926a5a78e921d8168e213",
        "to": "0xfc795dd1faacf2f3758832bfcae1d090836ecfdd",
        "gas": "0x1d95a",
        "value": "0x0",
        "input": "0x26e885e3000000000000000000000000e335cf211aa52f3a84257f61dde34c3bdfced560",
        "nonce": "0x45",
        "chainId": "0xa4b1"
      },
      "additionalContracts": [],
      "isFixedGasLimit": false
    },
    {
      "hash": "0x888dcde4cd903c1f2002d35660d580aaf42c883b76662c32450a357edb4110c4",
      "transactionType": "CALL",
      "contractName": null,
      "contractAddress": "0x6a9ab4532a1ad2441238125a966033e4aa859b0a",
      "function": "setAddresses(string[],address[])",
      "arguments": [
        "[\"NFTVault\"]",
        "[0xfC795Dd1FaaCF2F3758832BfCae1d090836ecFDD]"
      ],
      "transaction": {
        "from": "0xf53f105e90b3e9ea928926a5a78e921d8168e213",
        "to": "0x6a9ab4532a1ad2441238125a966033e4aa859b0a",
        "gas": "0x36b75",
        "value": "0x0",
        "input": "0x7d69a892000000000000000000000000000000000000000000000000000000000000004000000000000000000000000000000000000000000000000000000000000000c00000000000000000000000000000000000000000000000000000000000000001000000000000000000000000000000000000000000000000000000000000002000000000000000000000000000000000000000000000000000000000000000084e46545661756c740000000000000000000000000000000000000000000000000000000000000000000000000000000000000000000000000000000000000001000000000000000000000000fc795dd1faacf2f3758832bfcae1d090836ecfdd",
        "nonce": "0x46",
        "chainId": "0xa4b1"
      },
      "additionalContracts": [],
      "isFixedGasLimit": false
    }
  ],
  "receipts": [
    {
      "status": "0x1",
      "cumulativeGasUsed": "0x2df9d1",
      "logs": [
        {
          "address": "0xfc795dd1faacf2f3758832bfcae1d090836ecfdd",
          "topics": [
            "0x2f8788117e7eff1d82e926ec794901d17c78024a50270940304540a733656f0d",
            "0x0000000000000000000000000000000000000000000000000000000000000000",
            "0x000000000000000000000000f53f105e90b3e9ea928926a5a78e921d8168e213",
            "0x000000000000000000000000f53f105e90b3e9ea928926a5a78e921d8168e213"
          ],
          "data": "0x",
          "blockHash": "0x4dbb1b1715f5ba35e2f412f07d10c847d73b7b9a19c96e4e4c565629c879c6f6",
          "blockNumber": "0x112ac826",
          "transactionHash": "0x684d3a41f74ea7b9829fa72c3d5930d1a76af8f98fd3bbfb9252582cd2cd9b29",
          "transactionIndex": "0x2",
          "logIndex": "0xd",
          "removed": false
        },
        {
          "address": "0xfc795dd1faacf2f3758832bfcae1d090836ecfdd",
          "topics": [
            "0x2f8788117e7eff1d82e926ec794901d17c78024a50270940304540a733656f0d",
            "0x241ecf16d79d0f8dbfb92cbc07fe17840425976cf0667f022fe9877caa831b08",
            "0x000000000000000000000000f53f105e90b3e9ea928926a5a78e921d8168e213",
            "0x000000000000000000000000f53f105e90b3e9ea928926a5a78e921d8168e213"
          ],
          "data": "0x",
          "blockHash": "0x4dbb1b1715f5ba35e2f412f07d10c847d73b7b9a19c96e4e4c565629c879c6f6",
          "blockNumber": "0x112ac826",
          "transactionHash": "0x684d3a41f74ea7b9829fa72c3d5930d1a76af8f98fd3bbfb9252582cd2cd9b29",
          "transactionIndex": "0x2",
          "logIndex": "0xe",
          "removed": false
        }
      ],
      "logsBloom": "0x00000004000000000000000000000000000000000000000000000000000000000000000000000000000000000000000000000004000000000000000000000000000000000020000000000000000000000000000000000000000000000000000000000000020000000004000000000800000000000000000000000000000000002000000000000000000000000000000000000000000000000000000000000000000000000000000000000000000000000000200000000000001000000000000000000000000080000000020000000000000000002000000100000000000020000000000000000000000000000000000000000000000000000000000000100000",
      "type": "0x2",
      "transactionHash": "0x684d3a41f74ea7b9829fa72c3d5930d1a76af8f98fd3bbfb9252582cd2cd9b29",
      "transactionIndex": "0x2",
      "blockHash": "0x4dbb1b1715f5ba35e2f412f07d10c847d73b7b9a19c96e4e4c565629c879c6f6",
      "blockNumber": "0x112ac826",
      "gasUsed": "0x19240f",
      "effectiveGasPrice": "0x989680",
      "from": "0xf53f105e90b3e9ea928926a5a78e921d8168e213",
      "to": null,
      "contractAddress": "0xfc795dd1faacf2f3758832bfcae1d090836ecfdd",
      "gasUsedForL1": "0xc9dc8",
      "l1BlockNumber": "0x1479c8d"
    },
    {
      "status": "0x1",
      "cumulativeGasUsed": "0x78394",
      "logs": [
        {
          "address": "0xfc795dd1faacf2f3758832bfcae1d090836ecfdd",
          "topics": [
            "0x2f8788117e7eff1d82e926ec794901d17c78024a50270940304540a733656f0d",
            "0x241ecf16d79d0f8dbfb92cbc07fe17840425976cf0667f022fe9877caa831b08",
            "0x000000000000000000000000e335cf211aa52f3a84257f61dde34c3bdfced560",
            "0x000000000000000000000000f53f105e90b3e9ea928926a5a78e921d8168e213"
          ],
          "data": "0x",
          "blockHash": "0x3240db8a64667f59e17664988c6ee70ff82b76d8a1f12b2460740330caf0ab7e",
          "blockNumber": "0x112ac82c",
          "transactionHash": "0x7b9e9dbfc5824bc7d662bc2f99a6494d9c1520cb758347ba504778ddf19f675c",
          "transactionIndex": "0x4",
          "logIndex": "0x2",
          "removed": false
        }
      ],
      "logsBloom": "0x00000004000000000000000000000000000000000000000000000000000000000000000000000000000000000000000000000004000000000000000000000000000000000020000000000000000000000000000000000000000000000000000000000000000000000004000000000000000000000000000000000000000000002000000000000000800040000000000000000000000000000000000000000000000000000000000000000000000000000000200000000000001000000000000000000000000080000000020000000000000800002000000100000000000000000000000000000000000000000000000000000000000000000000000000100000",
      "type": "0x2",
      "transactionHash": "0x7b9e9dbfc5824bc7d662bc2f99a6494d9c1520cb758347ba504778ddf19f675c",
      "transactionIndex": "0x4",
      "blockHash": "0x3240db8a64667f59e17664988c6ee70ff82b76d8a1f12b2460740330caf0ab7e",
      "blockNumber": "0x112ac82c",
      "gasUsed": "0x197be",
      "effectiveGasPrice": "0x989680",
      "from": "0xf53f105e90b3e9ea928926a5a78e921d8168e213",
      "to": "0xfc795dd1faacf2f3758832bfcae1d090836ecfdd",
      "contractAddress": null,
      "gasUsedForL1": "0xcf1b",
      "l1BlockNumber": "0x1479c8e"
    },
    {
      "status": "0x1",
      "cumulativeGasUsed": "0x9aae8",
      "logs": [
        {
          "address": "0x6a9ab4532a1ad2441238125a966033e4aa859b0a",
          "topics": [
            "0xb0377b4035c2bd5b6aeb3eb7f139162c730ea47b957e4354f8a81ebb99573dec"
          ],
          "data": "0x0000000000000000000000000000000000000000000000000000000000000040000000000000000000000000fc795dd1faacf2f3758832bfcae1d090836ecfdd00000000000000000000000000000000000000000000000000000000000000084e46545661756c74000000000000000000000000000000000000000000000000",
          "blockHash": "0xe29793c4444ed13bbf76cb76615870b3e19410c4ed0c6546f66b777ccc1685df",
          "blockNumber": "0x112ac832",
          "transactionHash": "0x888dcde4cd903c1f2002d35660d580aaf42c883b76662c32450a357edb4110c4",
          "transactionIndex": "0x4",
          "logIndex": "0x5",
          "removed": false
        }
      ],
      "logsBloom": "0x00000200000000080000000000000000000000000000000000000000000000000000000000000000000000000000000000000000000000000000000000000200000000000000000000000000000000000000000000000000000000000000000000000000000000000000000000000000000000000000000000000000000000000000000000000000000000000000000000000000000000000000000000000000000000000000000000000000000000000000000000000000000000000000080000000000000000000000000000000000004000000000000000000000000000000000000000000000000000000000000000000400000000000000000000000000",
      "type": "0x2",
      "transactionHash": "0x888dcde4cd903c1f2002d35660d580aaf42c883b76662c32450a357edb4110c4",
      "transactionIndex": "0x4",
      "blockHash": "0xe29793c4444ed13bbf76cb76615870b3e19410c4ed0c6546f66b777ccc1685df",
      "blockNumber": "0x112ac832",
      "gasUsed": "0x23ddc",
      "effectiveGasPrice": "0x989680",
      "from": "0xf53f105e90b3e9ea928926a5a78e921d8168e213",
      "to": "0x6a9ab4532a1ad2441238125a966033e4aa859b0a",
      "contractAddress": null,
      "gasUsedForL1": "0x17709",
      "l1BlockNumber": "0x1479c8e"
    }
  ],
  "libraries": [],
  "pending": [],
  "returns": {},
  "timestamp": 1735019419,
  "chain": 42161,
  "commit": "29ed9ec"
}