{
  "transactions": [
    {
      "hash": "0xd6fb9cf0ac22973318f5014f42e4254c82a60dbe3a54e9f3d5ed9804dc4324df",
      "transactionType": "CALL",
      "contractName": null,
      "contractAddress": "0xfe4bcdbdc3fd3db643c4acb2b9d4a4d34354f623",
      "function": "setExecutor(address,bool)",
      "arguments": [
        "0x08E3dBFCF164Df355E36B65B4e71D9E66483e083",
        "true"
      ],
      "transaction": {
        "from": "0xb7d030f7c6406446e703e73b3d1dd8611a2d87b6",
        "to": "0xfe4bcdbdc3fd3db643c4acb2b9d4a4d34354f623",
        "gas": "0x1104f",
        "value": "0x0",
        "input": "0x1e1bff3f00000000000000000000000008e3dbfcf164df355e36b65b4e71d9e66483e0830000000000000000000000000000000000000000000000000000000000000001",
        "nonce": "0x222",
        "chainId": "0xaa36a7"
      },
      "additionalContracts": [],
      "isFixedGasLimit": false
    }
  ],
  "receipts": [
    {
      "status": "0x1",
      "cumulativeGasUsed": "0x6a7747",
      "logs": [
        {
          "address": "0xfe4bcdbdc3fd3db643c4acb2b9d4a4d34354f623",
          "topics": [
            "0x9fdbc2d48b8a0db2f62663bf9312ad02f5b1f6414ad600b55a247d09aeec3ea2"
          ],
          "data": "0x00000000000000000000000008e3dbfcf164df355e36b65b4e71d9e66483e0830000000000000000000000000000000000000000000000000000000000000001",
          "blockHash": "0x6b5b11ef7e68ec980b6d99fc59672713c1dc598100ead59d7cee6d27d1926955",
          "blockNumber": "0x6a707c",
          "transactionHash": "0xd6fb9cf0ac22973318f5014f42e4254c82a60dbe3a54e9f3d5ed9804dc4324df",
          "transactionIndex": "0x4a",
          "logIndex": "0x5f",
          "removed": false
        }
      ],
      "logsBloom": "0x00000000000020000000000000000000100020000000000020000000000000000000000000000000000000000000000000000000000000000000000000000000000000000000000000000000000000000000000000000000000000000000000000000000000000000000000000000000000000000100000000000000000000000000000000000000000000000000000000000000000000000000000000000000000000000000000000000000000000000000000000000000000000000000000000000000000000000000000000000000000000000000000000000000000000000000000000000000000000000000000000000000000000000000000040000000",
      "type": "0x2",
      "transactionHash": "0xd6fb9cf0ac22973318f5014f42e4254c82a60dbe3a54e9f3d5ed9804dc4324df",
      "transactionIndex": "0x4a",
      "blockHash": "0x6b5b11ef7e68ec980b6d99fc59672713c1dc598100ead59d7cee6d27d1926955",
      "blockNumber": "0x6a707c",
      "gasUsed": "0xba32",
      "effectiveGasPrice": "0x3afb92487",
      "from": "0xb7d030f7c6406446e703e73b3d1dd8611a2d87b6",
      "to": "0xfe4bcdbdc3fd3db643c4acb2b9d4a4d34354f623",
      "contractAddress": null
    }
  ],
  "libraries": [],
  "pending": [],
  "returns": {},
  "timestamp": 1730278659,
  "chain": 11155111,
  "commit": "d5ea916"
}