{
  "transactions": [
    {
      "hash": "0x27c7040a0dfee6276dbe3d9cdfaee3ea295ed8f7cb59625f627d050b14244f2c",
      "transactionType": "CALL",
      "contractName": null,
      "contractAddress": "0x88b4388b261b31f858a5ac5b707c4f857a9792e4",
      "function": "setExecutor(address,bool)",
      "arguments": [
        "0x08E3dBFCF164Df355E36B65B4e71D9E66483e083",
        "true"
      ],
      "transaction": {
        "from": "0xb7d030f7c6406446e703e73b3d1dd8611a2d87b6",
        "to": "0x88b4388b261b31f858a5ac5b707c4f857a9792e4",
        "gas": "0x1104f",
        "value": "0x0",
        "input": "0x1e1bff3f00000000000000000000000008e3dbfcf164df355e36b65b4e71d9e66483e0830000000000000000000000000000000000000000000000000000000000000001",
        "nonce": "0x221",
        "chainId": "0xaa36a7"
      },
      "additionalContracts": [],
      "isFixedGasLimit": false
    }
  ],
  "receipts": [
    {
      "status": "0x1",
      "cumulativeGasUsed": "0x906e8f",
      "logs": [
        {
          "address": "0x88b4388b261b31f858a5ac5b707c4f857a9792e4",
          "topics": [
            "0x9fdbc2d48b8a0db2f62663bf9312ad02f5b1f6414ad600b55a247d09aeec3ea2"
          ],
          "data": "0x00000000000000000000000008e3dbfcf164df355e36b65b4e71d9e66483e0830000000000000000000000000000000000000000000000000000000000000001",
          "blockHash": "0x427a8a63546f53ffb58e5291d94641b182f7b3da0e6480e66176d60c98fd38fc",
          "blockNumber": "0x6a6fa8",
          "transactionHash": "0x27c7040a0dfee6276dbe3d9cdfaee3ea295ed8f7cb59625f627d050b14244f2c",
          "transactionIndex": "0x3c",
          "logIndex": "0x52",
          "removed": false
        }
      ],
      "logsBloom": "0x00000000000000000000000000000000100000000000000020000000000000000000000000000000000000000000000000000000000000000000000000000000000000000000000000000040000000000000000000000000000000000000000000000000000000000000000000000000000000000000000000000000000000000000000000000000000000000000000000000000000000000000000000000000000000000000000000000000000000000000000000000000000000000000000000000000000008000000000000000000000000000000000100000000000000000000000000000000000000000000000000000000000000000000000040000000",
      "type": "0x2",
      "transactionHash": "0x27c7040a0dfee6276dbe3d9cdfaee3ea295ed8f7cb59625f627d050b14244f2c",
      "transactionIndex": "0x3c",
      "blockHash": "0x427a8a63546f53ffb58e5291d94641b182f7b3da0e6480e66176d60c98fd38fc",
      "blockNumber": "0x6a6fa8",
      "gasUsed": "0xba32",
      "effectiveGasPrice": "0x252b06eb6",
      "from": "0xb7d030f7c6406446e703e73b3d1dd8611a2d87b6",
      "to": "0x88b4388b261b31f858a5ac5b707c4f857a9792e4",
      "contractAddress": null
    }
  ],
  "libraries": [],
  "pending": [],
  "returns": {},
  "timestamp": 1730275970,
  "chain": 11155111,
  "commit": "d5ea916"
}