{
  "transactions": [
    {
      "hash": null,
      "transactionType": "CALL",
      "contractName": null,
      "contractAddress": "0xf99e6913b949d6e3da3e217d0f5e09b7f7b7d2b1",
      "function": "sendERC721(address,address,uint256)",
      "arguments": [
        "0xe223dF3cF0953048eb3c575abcD81818C9ea74B8",
        "0x3260e5D0a58f2e8c592AdEa06bA0100CB09f26Ea",
        "311"
      ],
      "transaction": {
        "from": "0xe335cf211aa52f3a84257f61dde34c3bdfced560",
        "to": "0xf99e6913b949d6e3da3e217d0f5e09b7f7b7d2b1",
        "gas": "0x12f93",
        "value": "0x0",
        "input": "0xb72ac8ea000000000000000000000000e223df3cf0953048eb3c575abcd81818c9ea74b80000000000000000000000003260e5d0a58f2e8c592adea06ba0100cb09f26ea0000000000000000000000000000000000000000000000000000000000000137",
        "nonce": "0xb1",
        "chainId": "0x2105"
      },
      "additionalContracts": [],
      "isFixedGasLimit": false
    }
  ],
  "receipts": [],
  "libraries": [],
  "pending": [],
  "returns": {},
  "timestamp": 1724689369,
  "chain": 8453,
  "commit": "3ef6d26"
}