{
  "transactions": [
    {
      "hash": "0x33a6c0391382e5da2209988f40cfef3137b4e2d2c714869e7d6c4d008811571b",
      "transactionType": "CALL",
      "contractName": null,
      "contractAddress": "0xf99e6913b949d6e3da3e217d0f5e09b7f7b7d2b1",
      "function": "sendERC721(address,address,uint256)",
      "arguments": [
        "0xe223dF3cF0953048eb3c575abcD81818C9ea74B8",
        "0x3260e5D0a58f2e8c592AdEa06bA0100CB09f26Ea",
        "311"
      ],
      "transaction": {
        "from": "0xf53f105e90b3e9ea928926a5a78e921d8168e213",
        "to": "0xf99e6913b949d6e3da3e217d0f5e09b7f7b7d2b1",
        "gas": "0x12f93",
        "value": "0x0",
        "input": "0xb72ac8ea000000000000000000000000e223df3cf0953048eb3c575abcd81818c9ea74b80000000000000000000000003260e5d0a58f2e8c592adea06ba0100cb09f26ea0000000000000000000000000000000000000000000000000000000000000137",
        "nonce": "0x1b",
        "chainId": "0x2105"
      },
      "additionalContracts": [],
      "isFixedGasLimit": false
    }
  ],
  "receipts": [
    {
      "status": "0x1",
      "cumulativeGasUsed": "0x1021128",
      "logs": [
        {
          "address": "0xe223df3cf0953048eb3c575abcd81818c9ea74b8",
          "topics": [
            "0xddf252ad1be2c89b69c2b068fc378daa952ba7f163c4a11628f55a4df523b3ef",
            "0x000000000000000000000000f99e6913b949d6e3da3e217d0f5e09b7f7b7d2b1",
            "0x0000000000000000000000003260e5d0a58f2e8c592adea06ba0100cb09f26ea",
            "0x0000000000000000000000000000000000000000000000000000000000000137"
          ],
          "data": "0x",
          "blockHash": "0x209e8d82750babaa22e770d759fefe3bccba626cefc9a97ffbeabbfa423d3d7e",
          "blockNumber": "0x12127b0",
          "transactionHash": "0x33a6c0391382e5da2209988f40cfef3137b4e2d2c714869e7d6c4d008811571b",
          "transactionIndex": "0x53",
          "logIndex": "0x135",
          "removed": false
        }
      ],
      "logsBloom": "0x0000000000000000000000000000000000000000000000000000000000000000000000000000000000000000000000000000000000000000000000200000000000000000000000000000000a000000000000000000000000000080200000000000000000000000000000000000000000000000000000000000000010000000000000000010000000000000000000000000000002000000000000000000000000000000000000000000000000000000000000080000000000000004000800000000000002000000000000000000000000000000000000000000000000000000000100000000000000000000000000000000000000000008000000020000000000",
      "type": "0x2",
      "transactionHash": "0x33a6c0391382e5da2209988f40cfef3137b4e2d2c714869e7d6c4d008811571b",
      "transactionIndex": "0x53",
      "blockHash": "0x209e8d82750babaa22e770d759fefe3bccba626cefc9a97ffbeabbfa423d3d7e",
      "blockNumber": "0x12127b0",
      "gasUsed": "0xcf93",
      "effectiveGasPrice": "0x9506b5",
      "from": "0xf53f105e90b3e9ea928926a5a78e921d8168e213",
      "to": "0xf99e6913b949d6e3da3e217d0f5e09b7f7b7d2b1",
      "contractAddress": null,
      "l1BaseFeeScalar": "0x8dd",
      "l1BlobBaseFee": "0x1",
      "l1BlobBaseFeeScalar": "0x101c12",
      "l1Fee": "0x2491849f9",
      "l1GasPrice": "0x9798f44f",
      "l1GasUsed": "0x6a4"
    }
  ],
  "libraries": [],
  "pending": [],
  "returns": {},
  "timestamp": 1724689480,
  "chain": 8453,
  "commit": "3ef6d26"
}