{
  "transactions": [
    {
      "hash": "0x0ad5fde354e4a19a262511df94ecddf95d5888b46e30cd3fd7262f400e2ab976",
      "transactionType": "CALL",
      "contractName": null,
      "contractAddress": "0xbec73a3ed80216efbc5203dc014f183f582e97c0",
      "function": "setFeePerSponsorTicket(uint256)",
      "arguments": [
        "12000000000000"
      ],
      "transaction": {
        "from": "0xf53f105e90b3e9ea928926a5a78e921d8168e213",
        "to": "0xbec73a3ed80216efbc5203dc014f183f582e97c0",
        "gas": "0xa1d0",
        "value": "0x0",
        "input": "0x149caac800000000000000000000000000000000000000000000000000000ae9f7bcc000",
        "nonce": "0x17",
        "chainId": "0x2105"
      },
      "additionalContracts": [],
      "isFixedGasLimit": false
    }
  ],
  "receipts": [
    {
      "status": "0x1",
      "cumulativeGasUsed": "0xec8a1d",
      "logs": [
        {
          "address": "0xbec73a3ed80216efbc5203dc014f183f582e97c0",
          "topics": [
            "0xc213c63ebbcc7cf00b0153c23fbac46f00d360b97b2a9b8f14174cdb9fa635de"
          ],
          "data": "0x00000000000000000000000000000000000000000000000000000ae9f7bcc000",
          "blockHash": "0x5c8a09a52b5acdb8fef91de1045da48c366583f565e162611dba6d41e3f81d04",
          "blockNumber": "0x10c36a0",
          "transactionHash": "0x0ad5fde354e4a19a262511df94ecddf95d5888b46e30cd3fd7262f400e2ab976",
          "transactionIndex": "0x36",
          "logIndex": "0x9f",
          "removed": false
        }
      ],
      "logsBloom": "0x00000000080000000000000000000000000000000000000000000400000000000000000000000000000000000000000000000000000000000000000000000100000000000000000000000000000000000000000000000000000000000000000000000200000000000000000000000000000000000000000000000000000000000000000000000000000000000000000000000000000000000000000000000000000000000000000000000100000000000000000000000000000000000000000000000000000000000000040000000000000000000000000000000000000000000000000000000000000000000000000000000000000000000000000000000000",
      "type": "0x2",
      "transactionHash": "0x0ad5fde354e4a19a262511df94ecddf95d5888b46e30cd3fd7262f400e2ab976",
      "transactionIndex": "0x36",
      "blockHash": "0x5c8a09a52b5acdb8fef91de1045da48c366583f565e162611dba6d41e3f81d04",
      "blockNumber": "0x10c36a0",
      "gasUsed": "0x7527",
      "effectiveGasPrice": "0x10b8bfc",
      "from": "0xf53f105e90b3e9ea928926a5a78e921d8168e213",
      "to": "0xbec73a3ed80216efbc5203dc014f183f582e97c0",
      "contractAddress": null,
      "l1BaseFeeScalar": "0x8dd",
      "l1BlobBaseFee": "0x1",
      "l1BlobBaseFeeScalar": "0x101c12",
      "l1Fee": "0x215390e2b",
      "l1GasPrice": "0x92e08e00",
      "l1GasUsed": "0x640"
    }
  ],
  "libraries": [],
  "pending": [],
  "returns": {},
  "timestamp": 1721944617,
  "chain": 8453,
  "commit": "8895c4a"
}