{
  "transactions": [
    {
      "hash": "0x274f4c304826edf202773829cdf8e606073cbc0cda5a475826930a269dd8fa59",
      "transactionType": "CALL",
      "contractName": null,
      "contractAddress": "0x14a7eafa20bdb3ce9ace524f443e9e1460c63a38",
      "function": "mint(address,uint256)",
      "arguments": [
        "0x4F88F1014Dd6Ca0507780380111c098BeE6b87e6",
        "9999999999000000000000"
      ],
      "transaction": {
        "from": "0xb7d030f7c6406446e703e73b3d1dd8611a2d87b6",
        "to": "0x14a7eafa20bdb3ce9ace524f443e9e1460c63a38",
        "gas": "0xd06b",
        "value": "0x0",
        "input": "0x40c10f190000000000000000000000004f88f1014dd6ca0507780380111c098bee6b87e600000000000000000000000000000000000000000000021e19e0c8d1dd9af000",
        "nonce": "0x1bc",
        "chainId": "0x14a34"
      },
      "additionalContracts": [],
      "isFixedGasLimit": false
    },
    {
      "hash": "0x072aa56c8740bc0dca708084a9110cc6266f9e635d95f81e372806114ccc04e1",
      "transactionType": "CALL",
      "contractName": null,
      "contractAddress": "0x14a7eafa20bdb3ce9ace524f443e9e1460c63a38",
      "function": "mint(address,uint256)",
      "arguments": [
        "0xC31f6b8133d618aD2ff1AC5fAA3Fc4B20557B901",
        "9999999999000000000000"
      ],
      "transaction": {
        "from": "0xb7d030f7c6406446e703e73b3d1dd8611a2d87b6",
        "to": "0x14a7eafa20bdb3ce9ace524f443e9e1460c63a38",
        "gas": "0xd06b",
        "value": "0x0",
        "input": "0x40c10f19000000000000000000000000c31f6b8133d618ad2ff1ac5faa3fc4b20557b90100000000000000000000000000000000000000000000021e19e0c8d1dd9af000",
        "nonce": "0x1bd",
        "chainId": "0x14a34"
      },
      "additionalContracts": [],
      "isFixedGasLimit": false
    },
    {
      "hash": "0x95567e00d39f16c0ac70033900371c9029307a18d9f6eef835246b7219aa1675",
      "transactionType": "CALL",
      "contractName": null,
      "contractAddress": "0x14a7eafa20bdb3ce9ace524f443e9e1460c63a38",
      "function": "mint(address,uint256)",
      "arguments": [
        "0x66E675533020c3CDeE2F33E372320B7e2692211e",
        "9999999999000000000000"
      ],
      "transaction": {
        "from": "0xb7d030f7c6406446e703e73b3d1dd8611a2d87b6",
        "to": "0x14a7eafa20bdb3ce9ace524f443e9e1460c63a38",
        "gas": "0xd06b",
        "value": "0x0",
        "input": "0x40c10f1900000000000000000000000066e675533020c3cdee2f33e372320b7e2692211e00000000000000000000000000000000000000000000021e19e0c8d1dd9af000",
        "nonce": "0x1be",
        "chainId": "0x14a34"
      },
      "additionalContracts": [],
      "isFixedGasLimit": false
    },
    {
      "hash": "0x2e55f162779c45c098b0fbcfcf6d6539fc5b11e883f63d07aea24777f686ed6d",
      "transactionType": "CALL",
      "contractName": null,
      "contractAddress": "0x14a7eafa20bdb3ce9ace524f443e9e1460c63a38",
      "function": "mint(address,uint256)",
      "arguments": [
        "0x8c4Eb6988A199DAbcae0Ce31052b3f3aC591787e",
        "9999999999000000000000"
      ],
      "transaction": {
        "from": "0xb7d030f7c6406446e703e73b3d1dd8611a2d87b6",
        "to": "0x14a7eafa20bdb3ce9ace524f443e9e1460c63a38",
        "gas": "0xd06b",
        "value": "0x0",
        "input": "0x40c10f190000000000000000000000008c4eb6988a199dabcae0ce31052b3f3ac591787e00000000000000000000000000000000000000000000021e19e0c8d1dd9af000",
        "nonce": "0x1bf",
        "chainId": "0x14a34"
      },
      "additionalContracts": [],
      "isFixedGasLimit": false
    },
    {
      "hash": "0x2920163fa6c67c85f9632c0b171a9d9b6cabbf91cb677400fcb7b9ac66c93a12",
      "transactionType": "CALL",
      "contractName": null,
      "contractAddress": "0x1e080310b2a0a24c70f31e1ac44e9fa35edb53ae",
      "function": "mint(address,uint256)",
      "arguments": [
        "0x4F88F1014Dd6Ca0507780380111c098BeE6b87e6",
        "9999999999000000000000"
      ],
      "transaction": {
        "from": "0xb7d030f7c6406446e703e73b3d1dd8611a2d87b6",
        "to": "0x1e080310b2a0a24c70f31e1ac44e9fa35edb53ae",
        "gas": "0xd06b",
        "value": "0x0",
        "input": "0x40c10f190000000000000000000000004f88f1014dd6ca0507780380111c098bee6b87e600000000000000000000000000000000000000000000021e19e0c8d1dd9af000",
        "nonce": "0x1c0",
        "chainId": "0x14a34"
      },
      "additionalContracts": [],
      "isFixedGasLimit": false
    },
    {
      "hash": "0xcac82698c6f9be78ca9fdecf1bb27080846c62866593be77e0db3b7a07bc5942",
      "transactionType": "CALL",
      "contractName": null,
      "contractAddress": "0x1e080310b2a0a24c70f31e1ac44e9fa35edb53ae",
      "function": "mint(address,uint256)",
      "arguments": [
        "0xC31f6b8133d618aD2ff1AC5fAA3Fc4B20557B901",
        "9999999999000000000000"
      ],
      "transaction": {
        "from": "0xb7d030f7c6406446e703e73b3d1dd8611a2d87b6",
        "to": "0x1e080310b2a0a24c70f31e1ac44e9fa35edb53ae",
        "gas": "0xd06b",
        "value": "0x0",
        "input": "0x40c10f19000000000000000000000000c31f6b8133d618ad2ff1ac5faa3fc4b20557b90100000000000000000000000000000000000000000000021e19e0c8d1dd9af000",
        "nonce": "0x1c1",
        "chainId": "0x14a34"
      },
      "additionalContracts": [],
      "isFixedGasLimit": false
    },
    {
      "hash": "0x0bce2a38d448ab551f63aacdc15f628a4b6c56075c1470a8b138fc21fb541a17",
      "transactionType": "CALL",
      "contractName": null,
      "contractAddress": "0x1e080310b2a0a24c70f31e1ac44e9fa35edb53ae",
      "function": "mint(address,uint256)",
      "arguments": [
        "0x66E675533020c3CDeE2F33E372320B7e2692211e",
        "9999999999000000000000"
      ],
      "transaction": {
        "from": "0xb7d030f7c6406446e703e73b3d1dd8611a2d87b6",
        "to": "0x1e080310b2a0a24c70f31e1ac44e9fa35edb53ae",
        "gas": "0xd06b",
        "value": "0x0",
        "input": "0x40c10f1900000000000000000000000066e675533020c3cdee2f33e372320b7e2692211e00000000000000000000000000000000000000000000021e19e0c8d1dd9af000",
        "nonce": "0x1c2",
        "chainId": "0x14a34"
      },
      "additionalContracts": [],
      "isFixedGasLimit": false
    },
    {
      "hash": "0x5d5de452b0061edad233bf5d064c1621952843d23d11cb38bd45df36f2bc621b",
      "transactionType": "CALL",
      "contractName": null,
      "contractAddress": "0x1e080310b2a0a24c70f31e1ac44e9fa35edb53ae",
      "function": "mint(address,uint256)",
      "arguments": [
        "0x8c4Eb6988A199DAbcae0Ce31052b3f3aC591787e",
        "9999999999000000000000"
      ],
      "transaction": {
        "from": "0xb7d030f7c6406446e703e73b3d1dd8611a2d87b6",
        "to": "0x1e080310b2a0a24c70f31e1ac44e9fa35edb53ae",
        "gas": "0xd06b",
        "value": "0x0",
        "input": "0x40c10f190000000000000000000000008c4eb6988a199dabcae0ce31052b3f3ac591787e00000000000000000000000000000000000000000000021e19e0c8d1dd9af000",
        "nonce": "0x1c3",
        "chainId": "0x14a34"
      },
      "additionalContracts": [],
      "isFixedGasLimit": false
    },
    {
      "hash": "0x99f9ad3d01d76196a0cfd96697dfb40b4f7679149a262ea0f69bc6af9e3ffa4f",
      "transactionType": "CALL",
      "contractName": null,
      "contractAddress": "0x1db0411a812be7b0cf9d5d6ed3813fa5e3c702b9",
      "function": "mint(address,uint256)",
      "arguments": [
        "0x4F88F1014Dd6Ca0507780380111c098BeE6b87e6",
        "9999999990000000000"
      ],
      "transaction": {
        "from": "0xb7d030f7c6406446e703e73b3d1dd8611a2d87b6",
        "to": "0x1db0411a812be7b0cf9d5d6ed3813fa5e3c702b9",
        "gas": "0xd048",
        "value": "0x0",
        "input": "0x40c10f190000000000000000000000004f88f1014dd6ca0507780380111c098bee6b87e60000000000000000000000000000000000000000000000008ac7230235dc1c00",
        "nonce": "0x1c4",
        "chainId": "0x14a34"
      },
      "additionalContracts": [],
      "isFixedGasLimit": false
    },
    {
      "hash": "0x66c1b4d1200fac5e1eda7436adb930114ab4455e5b054601f22867c3414a0671",
      "transactionType": "CALL",
      "contractName": null,
      "contractAddress": "0x1db0411a812be7b0cf9d5d6ed3813fa5e3c702b9",
      "function": "mint(address,uint256)",
      "arguments": [
        "0xC31f6b8133d618aD2ff1AC5fAA3Fc4B20557B901",
        "9999999990000000000"
      ],
      "transaction": {
        "from": "0xb7d030f7c6406446e703e73b3d1dd8611a2d87b6",
        "to": "0x1db0411a812be7b0cf9d5d6ed3813fa5e3c702b9",
        "gas": "0xd048",
        "value": "0x0",
        "input": "0x40c10f19000000000000000000000000c31f6b8133d618ad2ff1ac5faa3fc4b20557b9010000000000000000000000000000000000000000000000008ac7230235dc1c00",
        "nonce": "0x1c5",
        "chainId": "0x14a34"
      },
      "additionalContracts": [],
      "isFixedGasLimit": false
    },
    {
      "hash": "0xbec27a65e545a71e1bb702fe501c21797853d933f9ef68350e7ed984e188f288",
      "transactionType": "CALL",
      "contractName": null,
      "contractAddress": "0x1db0411a812be7b0cf9d5d6ed3813fa5e3c702b9",
      "function": "mint(address,uint256)",
      "arguments": [
        "0x66E675533020c3CDeE2F33E372320B7e2692211e",
        "9999999990000000000"
      ],
      "transaction": {
        "from": "0xb7d030f7c6406446e703e73b3d1dd8611a2d87b6",
        "to": "0x1db0411a812be7b0cf9d5d6ed3813fa5e3c702b9",
        "gas": "0xd048",
        "value": "0x0",
        "input": "0x40c10f1900000000000000000000000066e675533020c3cdee2f33e372320b7e2692211e0000000000000000000000000000000000000000000000008ac7230235dc1c00",
        "nonce": "0x1c6",
        "chainId": "0x14a34"
      },
      "additionalContracts": [],
      "isFixedGasLimit": false
    },
    {
      "hash": "0xb14761fa6732d8451cc0c216c0b6334467a8054c7d611fd259157e4d2ac51d97",
      "transactionType": "CALL",
      "contractName": null,
      "contractAddress": "0x1db0411a812be7b0cf9d5d6ed3813fa5e3c702b9",
      "function": "mint(address,uint256)",
      "arguments": [
        "0x8c4Eb6988A199DAbcae0Ce31052b3f3aC591787e",
        "9999999990000000000"
      ],
      "transaction": {
        "from": "0xb7d030f7c6406446e703e73b3d1dd8611a2d87b6",
        "to": "0x1db0411a812be7b0cf9d5d6ed3813fa5e3c702b9",
        "gas": "0xd048",
        "value": "0x0",
        "input": "0x40c10f190000000000000000000000008c4eb6988a199dabcae0ce31052b3f3ac591787e0000000000000000000000000000000000000000000000008ac7230235dc1c00",
        "nonce": "0x1c7",
        "chainId": "0x14a34"
      },
      "additionalContracts": [],
      "isFixedGasLimit": false
    }
  ],
  "receipts": [
    {
      "status": "0x1",
      "cumulativeGasUsed": "0x220bfa",
      "logs": [
        {
          "address": "0x14a7eafa20bdb3ce9ace524f443e9e1460c63a38",
          "topics": [
            "0xddf252ad1be2c89b69c2b068fc378daa952ba7f163c4a11628f55a4df523b3ef",
            "0x0000000000000000000000000000000000000000000000000000000000000000",
            "0x0000000000000000000000004f88f1014dd6ca0507780380111c098bee6b87e6"
          ],
          "data": "0x00000000000000000000000000000000000000000000021e19e0c8d1dd9af000",
          "blockHash": "0x86cb99fe77a582cd0ce18e08d68185777f0e5719b8063eb679dc2c9fb7ed3247",
          "blockNumber": "0x103575c",
          "transactionHash": "0x274f4c304826edf202773829cdf8e606073cbc0cda5a475826930a269dd8fa59",
          "transactionIndex": "0xc",
          "logIndex": "0x10",
          "removed": false
        }
      ],
      "logsBloom": "0x00000000000000000000000002000000000000000000000000000000000000000000000000000000000000000000000000000000000000000000000000000000000000000000000000000008000000000000000000000000000000000000000000080000020000000000000000000800000000000000000000000410000000000000000000000000000000000000000000000000000000000000000000000000000000000000000000000000000000000000000004000200000000000000000000000002000000000000000000000000000000000000000000000000000020000000000000000000000000000000000000000000008000000000000000000000",
      "type": "0x2",
      "transactionHash": "0x274f4c304826edf202773829cdf8e606073cbc0cda5a475826930a269dd8fa59",
      "transactionIndex": "0xc",
      "blockHash": "0x86cb99fe77a582cd0ce18e08d68185777f0e5719b8063eb679dc2c9fb7ed3247",
      "blockNumber": "0x103575c",
      "gasUsed": "0x8e83",
      "effectiveGasPrice": "0x225091e",
      "from": "0xb7d030f7c6406446e703e73b3d1dd8611a2d87b6",
      "to": "0x14a7eafa20bdb3ce9ace524f443e9e1460c63a38",
      "contractAddress": null,
      "l1BaseFeeScalar": "0x44d",
      "l1BlobBaseFee": "0x1",
      "l1BlobBaseFeeScalar": "0xa118b",
      "l1Fee": "0xde3d9903",
      "l1GasPrice": "0x7e288bf6",
      "l1GasUsed": "0x640"
    },
    {
      "status": "0x1",
      "cumulativeGasUsed": "0x229a7d",
      "logs": [
        {
          "address": "0x14a7eafa20bdb3ce9ace524f443e9e1460c63a38",
          "topics": [
            "0xddf252ad1be2c89b69c2b068fc378daa952ba7f163c4a11628f55a4df523b3ef",
            "0x0000000000000000000000000000000000000000000000000000000000000000",
            "0x000000000000000000000000c31f6b8133d618ad2ff1ac5faa3fc4b20557b901"
          ],
          "data": "0x00000000000000000000000000000000000000000000021e19e0c8d1dd9af000",
          "blockHash": "0x86cb99fe77a582cd0ce18e08d68185777f0e5719b8063eb679dc2c9fb7ed3247",
          "blockNumber": "0x103575c",
          "transactionHash": "0x072aa56c8740bc0dca708084a9110cc6266f9e635d95f81e372806114ccc04e1",
          "transactionIndex": "0xd",
          "logIndex": "0x11",
          "removed": false
        }
      ],
      "logsBloom": "0x00000000000000000000000000000000000000000000000000000000000000000000000000000000000000000000000000000000000000000000000000000000000000000000000000000008000000000000000000000000000000000000000000080000020000000000000000000800000000000000000000000410400000000000000000000000000000000000000000000002000000000000000000000000000000000000000000000000000000000000000000000200080000000000000000000002000000000000000000000000000000000000000000000000000020000000000000000000000000000000000000000000000000000000000000000000",
      "type": "0x2",
      "transactionHash": "0x072aa56c8740bc0dca708084a9110cc6266f9e635d95f81e372806114ccc04e1",
      "transactionIndex": "0xd",
      "blockHash": "0x86cb99fe77a582cd0ce18e08d68185777f0e5719b8063eb679dc2c9fb7ed3247",
      "blockNumber": "0x103575c",
      "gasUsed": "0x8e83",
      "effectiveGasPrice": "0x225091e",
      "from": "0xb7d030f7c6406446e703e73b3d1dd8611a2d87b6",
      "to": "0x14a7eafa20bdb3ce9ace524f443e9e1460c63a38",
      "contractAddress": null,
      "l1BaseFeeScalar": "0x44d",
      "l1BlobBaseFee": "0x1",
      "l1BlobBaseFeeScalar": "0xa118b",
      "l1Fee": "0xde3d9903",
      "l1GasPrice": "0x7e288bf6",
      "l1GasUsed": "0x640"
    },
    {
      "status": "0x1",
      "cumulativeGasUsed": "0x232900",
      "logs": [
        {
          "address": "0x14a7eafa20bdb3ce9ace524f443e9e1460c63a38",
          "topics": [
            "0xddf252ad1be2c89b69c2b068fc378daa952ba7f163c4a11628f55a4df523b3ef",
            "0x0000000000000000000000000000000000000000000000000000000000000000",
            "0x00000000000000000000000066e675533020c3cdee2f33e372320b7e2692211e"
          ],
          "data": "0x00000000000000000000000000000000000000000000021e19e0c8d1dd9af000",
          "blockHash": "0x86cb99fe77a582cd0ce18e08d68185777f0e5719b8063eb679dc2c9fb7ed3247",
          "blockNumber": "0x103575c",
          "transactionHash": "0x95567e00d39f16c0ac70033900371c9029307a18d9f6eef835246b7219aa1675",
          "transactionIndex": "0xe",
          "logIndex": "0x12",
          "removed": false
        }
      ],
      "logsBloom": "0x00000000000000000000000000000000000000000000000000000000001000000000000000000000000000000000000000000000000000000000000000000000000000000000000000000008000008000000000000000000000000000000000000080000020000000000000000000800000000000000000000000410000000000000000000000000000000000000000000000000002000000000000000000000000000000000000000000000000000000000000000000200000000000000000000000002000000000000000000000000000000000000000000000000000020000000000000000000000000000000000000000000000000000000000000000000",
      "type": "0x2",
      "transactionHash": "0x95567e00d39f16c0ac70033900371c9029307a18d9f6eef835246b7219aa1675",
      "transactionIndex": "0xe",
      "blockHash": "0x86cb99fe77a582cd0ce18e08d68185777f0e5719b8063eb679dc2c9fb7ed3247",
      "blockNumber": "0x103575c",
      "gasUsed": "0x8e83",
      "effectiveGasPrice": "0x225091e",
      "from": "0xb7d030f7c6406446e703e73b3d1dd8611a2d87b6",
      "to": "0x14a7eafa20bdb3ce9ace524f443e9e1460c63a38",
      "contractAddress": null,
      "l1BaseFeeScalar": "0x44d",
      "l1BlobBaseFee": "0x1",
      "l1BlobBaseFeeScalar": "0xa118b",
      "l1Fee": "0xde3d9903",
      "l1GasPrice": "0x7e288bf6",
      "l1GasUsed": "0x640"
    },
    {
      "status": "0x1",
      "cumulativeGasUsed": "0x23b783",
      "logs": [
        {
          "address": "0x14a7eafa20bdb3ce9ace524f443e9e1460c63a38",
          "topics": [
            "0xddf252ad1be2c89b69c2b068fc378daa952ba7f163c4a11628f55a4df523b3ef",
            "0x0000000000000000000000000000000000000000000000000000000000000000",
            "0x0000000000000000000000008c4eb6988a199dabcae0ce31052b3f3ac591787e"
          ],
          "data": "0x00000000000000000000000000000000000000000000021e19e0c8d1dd9af000",
          "blockHash": "0x86cb99fe77a582cd0ce18e08d68185777f0e5719b8063eb679dc2c9fb7ed3247",
          "blockNumber": "0x103575c",
          "transactionHash": "0x2e55f162779c45c098b0fbcfcf6d6539fc5b11e883f63d07aea24777f686ed6d",
          "transactionIndex": "0xf",
          "logIndex": "0x13",
          "removed": false
        }
      ],
      "logsBloom": "0x00000000000000000000000000000000000000000000000000000000000000000000000000000000000000000000000000000000000040000000000000000000000000000000000000000008000000000000000000000000000000000000000000080000020000000000000000000800000000000000000000000410000000000000000100000000000000000000000000000000000000000000000000000000000000000000000000000000000001000000000000000200000000000000000000000002000000000000000000000000000000000000000000000000000020000000000000000000000000000000000000000000000000000000000000000000",
      "type": "0x2",
      "transactionHash": "0x2e55f162779c45c098b0fbcfcf6d6539fc5b11e883f63d07aea24777f686ed6d",
      "transactionIndex": "0xf",
      "blockHash": "0x86cb99fe77a582cd0ce18e08d68185777f0e5719b8063eb679dc2c9fb7ed3247",
      "blockNumber": "0x103575c",
      "gasUsed": "0x8e83",
      "effectiveGasPrice": "0x225091e",
      "from": "0xb7d030f7c6406446e703e73b3d1dd8611a2d87b6",
      "to": "0x14a7eafa20bdb3ce9ace524f443e9e1460c63a38",
      "contractAddress": null,
      "l1BaseFeeScalar": "0x44d",
      "l1BlobBaseFee": "0x1",
      "l1BlobBaseFeeScalar": "0xa118b",
      "l1Fee": "0xde3d9903",
      "l1GasPrice": "0x7e288bf6",
      "l1GasUsed": "0x640"
    },
    {
      "status": "0x1",
      "cumulativeGasUsed": "0x244606",
      "logs": [
        {
          "address": "0x1e080310b2a0a24c70f31e1ac44e9fa35edb53ae",
          "topics": [
            "0xddf252ad1be2c89b69c2b068fc378daa952ba7f163c4a11628f55a4df523b3ef",
            "0x0000000000000000000000000000000000000000000000000000000000000000",
            "0x0000000000000000000000004f88f1014dd6ca0507780380111c098bee6b87e6"
          ],
          "data": "0x00000000000000000000000000000000000000000000021e19e0c8d1dd9af000",
          "blockHash": "0x86cb99fe77a582cd0ce18e08d68185777f0e5719b8063eb679dc2c9fb7ed3247",
          "blockNumber": "0x103575c",
          "transactionHash": "0x2920163fa6c67c85f9632c0b171a9d9b6cabbf91cb677400fcb7b9ac66c93a12",
          "transactionIndex": "0x10",
          "logIndex": "0x14",
          "removed": false
        }
      ],
      "logsBloom": "0x00000000000000000000000002000000000000008000000000000000000000000000000000000000000000000000000000000000000000000000000000000000000000000000000000000008000000000000000000000000000000000000000000000000020000000000000000000800000000000000000000000010000000000000000000000000000000000000000000000000000000000000000000000000000000000000000000000000000000000000000004040000000000000000000000000002000000000000000000000000000000000000000000000000000020000000000000000000000000000000010000000000008000000000000000000000",
      "type": "0x2",
      "transactionHash": "0x2920163fa6c67c85f9632c0b171a9d9b6cabbf91cb677400fcb7b9ac66c93a12",
      "transactionIndex": "0x10",
      "blockHash": "0x86cb99fe77a582cd0ce18e08d68185777f0e5719b8063eb679dc2c9fb7ed3247",
      "blockNumber": "0x103575c",
      "gasUsed": "0x8e83",
      "effectiveGasPrice": "0x225091e",
      "from": "0xb7d030f7c6406446e703e73b3d1dd8611a2d87b6",
      "to": "0x1e080310b2a0a24c70f31e1ac44e9fa35edb53ae",
      "contractAddress": null,
      "l1BaseFeeScalar": "0x44d",
      "l1BlobBaseFee": "0x1",
      "l1BlobBaseFeeScalar": "0xa118b",
      "l1Fee": "0xde3d9903",
      "l1GasPrice": "0x7e288bf6",
      "l1GasUsed": "0x640"
    },
    {
      "status": "0x1",
      "cumulativeGasUsed": "0x141350",
      "logs": [
        {
          "address": "0x1e080310b2a0a24c70f31e1ac44e9fa35edb53ae",
          "topics": [
            "0xddf252ad1be2c89b69c2b068fc378daa952ba7f163c4a11628f55a4df523b3ef",
            "0x0000000000000000000000000000000000000000000000000000000000000000",
            "0x000000000000000000000000c31f6b8133d618ad2ff1ac5faa3fc4b20557b901"
          ],
          "data": "0x00000000000000000000000000000000000000000000021e19e0c8d1dd9af000",
          "blockHash": "0x38f3f83e16b61452f5aec9fca9f339bb0429bc4ff7212f4421c7aad64fff71e5",
          "blockNumber": "0x103575d",
          "transactionHash": "0xcac82698c6f9be78ca9fdecf1bb27080846c62866593be77e0db3b7a07bc5942",
          "transactionIndex": "0x6",
          "logIndex": "0x5",
          "removed": false
        }
      ],
      "logsBloom": "0x00000000000000000000000000000000000000008000000000000000000000000000000000000000000000000000000000000000000000000000000000000000000000000000000000000008000000000000000000000000000000000000000000000000020000000000000000000800000000000000000000000010400000000000000000000000000000000000000000000002000000000000000000000000000000000000000000000000000000000000000000040000080000000000000000000002000000000000000000000000000000000000000000000000000020000000000000000000000000000000010000000000000000000000000000000000",
      "type": "0x2",
      "transactionHash": "0xcac82698c6f9be78ca9fdecf1bb27080846c62866593be77e0db3b7a07bc5942",
      "transactionIndex": "0x6",
      "blockHash": "0x38f3f83e16b61452f5aec9fca9f339bb0429bc4ff7212f4421c7aad64fff71e5",
      "blockNumber": "0x103575d",
      "gasUsed": "0x8e83",
      "effectiveGasPrice": "0x224289f",
      "from": "0xb7d030f7c6406446e703e73b3d1dd8611a2d87b6",
      "to": "0x1e080310b2a0a24c70f31e1ac44e9fa35edb53ae",
      "contractAddress": null,
      "l1BaseFeeScalar": "0x44d",
      "l1BlobBaseFee": "0x1",
      "l1BlobBaseFeeScalar": "0xa118b",
      "l1Fee": "0xde3d9903",
      "l1GasPrice": "0x7e288bf6",
      "l1GasUsed": "0x640"
    },
    {
      "status": "0x1",
      "cumulativeGasUsed": "0x14a1d3",
      "logs": [
        {
          "address": "0x1e080310b2a0a24c70f31e1ac44e9fa35edb53ae",
          "topics": [
            "0xddf252ad1be2c89b69c2b068fc378daa952ba7f163c4a11628f55a4df523b3ef",
            "0x0000000000000000000000000000000000000000000000000000000000000000",
            "0x00000000000000000000000066e675533020c3cdee2f33e372320b7e2692211e"
          ],
          "data": "0x00000000000000000000000000000000000000000000021e19e0c8d1dd9af000",
          "blockHash": "0x38f3f83e16b61452f5aec9fca9f339bb0429bc4ff7212f4421c7aad64fff71e5",
          "blockNumber": "0x103575d",
          "transactionHash": "0x0bce2a38d448ab551f63aacdc15f628a4b6c56075c1470a8b138fc21fb541a17",
          "transactionIndex": "0x7",
          "logIndex": "0x6",
          "removed": false
        }
      ],
      "logsBloom": "0x00000000000000000000000000000000000000008000000000000000001000000000000000000000000000000000000000000000000000000000000000000000000000000000000000000008000008000000000000000000000000000000000000000000020000000000000000000800000000000000000000000010000000000000000000000000000000000000000000000000002000000000000000000000000000000000000000000000000000000000000000040000000000000000000000000002000000000000000000000000000000000000000000000000000020000000000000000000000000000000010000000000000000000000000000000000",
      "type": "0x2",
      "transactionHash": "0x0bce2a38d448ab551f63aacdc15f628a4b6c56075c1470a8b138fc21fb541a17",
      "transactionIndex": "0x7",
      "blockHash": "0x38f3f83e16b61452f5aec9fca9f339bb0429bc4ff7212f4421c7aad64fff71e5",
      "blockNumber": "0x103575d",
      "gasUsed": "0x8e83",
      "effectiveGasPrice": "0x224289f",
      "from": "0xb7d030f7c6406446e703e73b3d1dd8611a2d87b6",
      "to": "0x1e080310b2a0a24c70f31e1ac44e9fa35edb53ae",
      "contractAddress": null,
      "l1BaseFeeScalar": "0x44d",
      "l1BlobBaseFee": "0x1",
      "l1BlobBaseFeeScalar": "0xa118b",
      "l1Fee": "0xde3d9903",
      "l1GasPrice": "0x7e288bf6",
      "l1GasUsed": "0x640"
    },
    {
      "status": "0x1",
      "cumulativeGasUsed": "0x153056",
      "logs": [
        {
          "address": "0x1e080310b2a0a24c70f31e1ac44e9fa35edb53ae",
          "topics": [
            "0xddf252ad1be2c89b69c2b068fc378daa952ba7f163c4a11628f55a4df523b3ef",
            "0x0000000000000000000000000000000000000000000000000000000000000000",
            "0x0000000000000000000000008c4eb6988a199dabcae0ce31052b3f3ac591787e"
          ],
          "data": "0x00000000000000000000000000000000000000000000021e19e0c8d1dd9af000",
          "blockHash": "0x38f3f83e16b61452f5aec9fca9f339bb0429bc4ff7212f4421c7aad64fff71e5",
          "blockNumber": "0x103575d",
          "transactionHash": "0x5d5de452b0061edad233bf5d064c1621952843d23d11cb38bd45df36f2bc621b",
          "transactionIndex": "0x8",
          "logIndex": "0x7",
          "removed": false
        }
      ],
      "logsBloom": "0x00000000000000000000000000000000000000008000000000000000000000000000000000000000000000000000000000000000000040000000000000000000000000000000000000000008000000000000000000000000000000000000000000000000020000000000000000000800000000000000000000000010000000000000000100000000000000000000000000000000000000000000000000000000000000000000000000000000000001000000000000040000000000000000000000000002000000000000000000000000000000000000000000000000000020000000000000000000000000000000010000000000000000000000000000000000",
      "type": "0x2",
      "transactionHash": "0x5d5de452b0061edad233bf5d064c1621952843d23d11cb38bd45df36f2bc621b",
      "transactionIndex": "0x8",
      "blockHash": "0x38f3f83e16b61452f5aec9fca9f339bb0429bc4ff7212f4421c7aad64fff71e5",
      "blockNumber": "0x103575d",
      "gasUsed": "0x8e83",
      "effectiveGasPrice": "0x224289f",
      "from": "0xb7d030f7c6406446e703e73b3d1dd8611a2d87b6",
      "to": "0x1e080310b2a0a24c70f31e1ac44e9fa35edb53ae",
      "contractAddress": null,
      "l1BaseFeeScalar": "0x44d",
      "l1BlobBaseFee": "0x1",
      "l1BlobBaseFeeScalar": "0xa118b",
      "l1Fee": "0xde3d9903",
      "l1GasPrice": "0x7e288bf6",
      "l1GasUsed": "0x640"
    },
    {
      "status": "0x1",
      "cumulativeGasUsed": "0x15bec1",
      "logs": [
        {
          "address": "0x1db0411a812be7b0cf9d5d6ed3813fa5e3c702b9",
          "topics": [
            "0xddf252ad1be2c89b69c2b068fc378daa952ba7f163c4a11628f55a4df523b3ef",
            "0x0000000000000000000000000000000000000000000000000000000000000000",
            "0x0000000000000000000000004f88f1014dd6ca0507780380111c098bee6b87e6"
          ],
          "data": "0x0000000000000000000000000000000000000000000000008ac7230235dc1c00",
          "blockHash": "0x38f3f83e16b61452f5aec9fca9f339bb0429bc4ff7212f4421c7aad64fff71e5",
          "blockNumber": "0x103575d",
          "transactionHash": "0x99f9ad3d01d76196a0cfd96697dfb40b4f7679149a262ea0f69bc6af9e3ffa4f",
          "transactionIndex": "0x9",
          "logIndex": "0x8",
          "removed": false
        }
      ],
      "logsBloom": "0x00000000000000008000000002000000000000000000000000000000000000000000000000000000000000000000000000000000000000000000000000000000000000000002000000000008000000000000000000000000000000000000000000000000020000000000000000000800000000000000000000000010000000000000000000000000000000000080000000000000000000000000000000000000000000000000000000000000000000000000000004000000000000000000000000000002000000000000000000000000000000000000000000000000000020000000000000000000000000000000000000000000008000000000000000000000",
      "type": "0x2",
      "transactionHash": "0x99f9ad3d01d76196a0cfd96697dfb40b4f7679149a262ea0f69bc6af9e3ffa4f",
      "transactionIndex": "0x9",
      "blockHash": "0x38f3f83e16b61452f5aec9fca9f339bb0429bc4ff7212f4421c7aad64fff71e5",
      "blockNumber": "0x103575d",
      "gasUsed": "0x8e6b",
      "effectiveGasPrice": "0x224289f",
      "from": "0xb7d030f7c6406446e703e73b3d1dd8611a2d87b6",
      "to": "0x1db0411a812be7b0cf9d5d6ed3813fa5e3c702b9",
      "contractAddress": null,
      "l1BaseFeeScalar": "0x44d",
      "l1BlobBaseFee": "0x1",
      "l1BlobBaseFeeScalar": "0xa118b",
      "l1Fee": "0xde3d9903",
      "l1GasPrice": "0x7e288bf6",
      "l1GasUsed": "0x640"
    },
    {
      "status": "0x1",
      "cumulativeGasUsed": "0x164d2c",
      "logs": [
        {
          "address": "0x1db0411a812be7b0cf9d5d6ed3813fa5e3c702b9",
          "topics": [
            "0xddf252ad1be2c89b69c2b068fc378daa952ba7f163c4a11628f55a4df523b3ef",
            "0x0000000000000000000000000000000000000000000000000000000000000000",
            "0x000000000000000000000000c31f6b8133d618ad2ff1ac5faa3fc4b20557b901"
          ],
          "data": "0x0000000000000000000000000000000000000000000000008ac7230235dc1c00",
          "blockHash": "0x38f3f83e16b61452f5aec9fca9f339bb0429bc4ff7212f4421c7aad64fff71e5",
          "blockNumber": "0x103575d",
          "transactionHash": "0x66c1b4d1200fac5e1eda7436adb930114ab4455e5b054601f22867c3414a0671",
          "transactionIndex": "0xa",
          "logIndex": "0x9",
          "removed": false
        }
      ],
      "logsBloom": "0x00000000000000008000000000000000000000000000000000000000000000000000000000000000000000000000000000000000000000000000000000000000000000000002000000000008000000000000000000000000000000000000000000000000020000000000000000000800000000000000000000000010400000000000000000000000000000000080000000000002000000000000000000000000000000000000000000000000000000000000000000000000080000000000000000000002000000000000000000000000000000000000000000000000000020000000000000000000000000000000000000000000000000000000000000000000",
      "type": "0x2",
      "transactionHash": "0x66c1b4d1200fac5e1eda7436adb930114ab4455e5b054601f22867c3414a0671",
      "transactionIndex": "0xa",
      "blockHash": "0x38f3f83e16b61452f5aec9fca9f339bb0429bc4ff7212f4421c7aad64fff71e5",
      "blockNumber": "0x103575d",
      "gasUsed": "0x8e6b",
      "effectiveGasPrice": "0x224289f",
      "from": "0xb7d030f7c6406446e703e73b3d1dd8611a2d87b6",
      "to": "0x1db0411a812be7b0cf9d5d6ed3813fa5e3c702b9",
      "contractAddress": null,
      "l1BaseFeeScalar": "0x44d",
      "l1BlobBaseFee": "0x1",
      "l1BlobBaseFeeScalar": "0xa118b",
      "l1Fee": "0xde3d9903",
      "l1GasPrice": "0x7e288bf6",
      "l1GasUsed": "0x640"
    },
    {
      "status": "0x1",
      "cumulativeGasUsed": "0x16db97",
      "logs": [
        {
          "address": "0x1db0411a812be7b0cf9d5d6ed3813fa5e3c702b9",
          "topics": [
            "0xddf252ad1be2c89b69c2b068fc378daa952ba7f163c4a11628f55a4df523b3ef",
            "0x0000000000000000000000000000000000000000000000000000000000000000",
            "0x00000000000000000000000066e675533020c3cdee2f33e372320b7e2692211e"
          ],
          "data": "0x0000000000000000000000000000000000000000000000008ac7230235dc1c00",
          "blockHash": "0x38f3f83e16b61452f5aec9fca9f339bb0429bc4ff7212f4421c7aad64fff71e5",
          "blockNumber": "0x103575d",
          "transactionHash": "0xbec27a65e545a71e1bb702fe501c21797853d933f9ef68350e7ed984e188f288",
          "transactionIndex": "0xb",
          "logIndex": "0xa",
          "removed": false
        }
      ],
      "logsBloom": "0x00000000000000008000000000000000000000000000000000000000001000000000000000000000000000000000000000000000000000000000000000000000000000000002000000000008000008000000000000000000000000000000000000000000020000000000000000000800000000000000000000000010000000000000000000000000000000000080000000000000002000000000000000000000000000000000000000000000000000000000000000000000000000000000000000000002000000000000000000000000000000000000000000000000000020000000000000000000000000000000000000000000000000000000000000000000",
      "type": "0x2",
      "transactionHash": "0xbec27a65e545a71e1bb702fe501c21797853d933f9ef68350e7ed984e188f288",
      "transactionIndex": "0xb",
      "blockHash": "0x38f3f83e16b61452f5aec9fca9f339bb0429bc4ff7212f4421c7aad64fff71e5",
      "blockNumber": "0x103575d",
      "gasUsed": "0x8e6b",
      "effectiveGasPrice": "0x224289f",
      "from": "0xb7d030f7c6406446e703e73b3d1dd8611a2d87b6",
      "to": "0x1db0411a812be7b0cf9d5d6ed3813fa5e3c702b9",
      "contractAddress": null,
      "l1BaseFeeScalar": "0x44d",
      "l1BlobBaseFee": "0x1",
      "l1BlobBaseFeeScalar": "0xa118b",
      "l1Fee": "0xde3d9903",
      "l1GasPrice": "0x7e288bf6",
      "l1GasUsed": "0x640"
    },
    {
      "status": "0x1",
      "cumulativeGasUsed": "0x176a02",
      "logs": [
        {
          "address": "0x1db0411a812be7b0cf9d5d6ed3813fa5e3c702b9",
          "topics": [
            "0xddf252ad1be2c89b69c2b068fc378daa952ba7f163c4a11628f55a4df523b3ef",
            "0x0000000000000000000000000000000000000000000000000000000000000000",
            "0x0000000000000000000000008c4eb6988a199dabcae0ce31052b3f3ac591787e"
          ],
          "data": "0x0000000000000000000000000000000000000000000000008ac7230235dc1c00",
          "blockHash": "0x38f3f83e16b61452f5aec9fca9f339bb0429bc4ff7212f4421c7aad64fff71e5",
          "blockNumber": "0x103575d",
          "transactionHash": "0xb14761fa6732d8451cc0c216c0b6334467a8054c7d611fd259157e4d2ac51d97",
          "transactionIndex": "0xc",
          "logIndex": "0xb",
          "removed": false
        }
      ],
      "logsBloom": "0x00000000000000008000000000000000000000000000000000000000000000000000000000000000000000000000000000000000000040000000000000000000000000000002000000000008000000000000000000000000000000000000000000000000020000000000000000000800000000000000000000000010000000000000000100000000000000000080000000000000000000000000000000000000000000000000000000000000000001000000000000000000000000000000000000000002000000000000000000000000000000000000000000000000000020000000000000000000000000000000000000000000000000000000000000000000",
      "type": "0x2",
      "transactionHash": "0xb14761fa6732d8451cc0c216c0b6334467a8054c7d611fd259157e4d2ac51d97",
      "transactionIndex": "0xc",
      "blockHash": "0x38f3f83e16b61452f5aec9fca9f339bb0429bc4ff7212f4421c7aad64fff71e5",
      "blockNumber": "0x103575d",
      "gasUsed": "0x8e6b",
      "effectiveGasPrice": "0x224289f",
      "from": "0xb7d030f7c6406446e703e73b3d1dd8611a2d87b6",
      "to": "0x1db0411a812be7b0cf9d5d6ed3813fa5e3c702b9",
      "contractAddress": null,
      "l1BaseFeeScalar": "0x44d",
      "l1BlobBaseFee": "0x1",
      "l1BlobBaseFeeScalar": "0xa118b",
      "l1Fee": "0xde3d9903",
      "l1GasPrice": "0x7e288bf6",
      "l1GasUsed": "0x640"
    }
  ],
  "libraries": [],
  "pending": [],
  "returns": {},
  "timestamp": 1729760671,
  "chain": 84532,
  "commit": "85c4afb"
}