{
  "transactions": [
    {
      "hash": "0xe3effb2b5a4aed073881bd8efd9742c5bd5bd64396b249ae5c0506e3268d1892",
      "transactionType": "CREATE",
      "contractName": "MockERC20",
      "contractAddress": "0x5122b4e1af1af9475d5f894ca009d88710063674",
      "function": null,
      "arguments": [
        "0xB7d030F7c6406446e703E73B3d1dd8611A2D87b6",
        "Tether USD",
        "USDT"
      ],
      "transaction": {
        "from": "0xb7d030f7c6406446e703e73b3d1dd8611a2d87b6",
        "gas": "0xcd6fe",
        "value": "0x0",
        "input": "0x608060405234801561000f575f5ffd5b50604051610c7d380380610c7d83398101604081905261002e9161017a565b828282600361003d8382610280565b50600461004a8282610280565b5050506001600160a01b03811661007a57604051631e4fbdf760e01b81525f600482015260240160405180910390fd5b6100838161008c565b5050505061033a565b600580546001600160a01b038381166001600160a01b0319831681179093556040519116919082907f8be0079c531659141344cd1fd0a4f28419497f9722a3daafe3b4186f6b6457e0905f90a35050565b634e487b7160e01b5f52604160045260245ffd5b5f82601f830112610100575f5ffd5b81516001600160401b03811115610119576101196100dd565b604051601f8201601f19908116603f011681016001600160401b0381118282101715610147576101476100dd565b60405281815283820160200185101561015e575f5ffd5b8160208501602083015e5f918101602001919091529392505050565b5f5f5f6060848603121561018c575f5ffd5b83516001600160a01b03811681146101a2575f5ffd5b60208501519093506001600160401b038111156101bd575f5ffd5b6101c9868287016100f1565b604086015190935090506001600160401b038111156101e6575f5ffd5b6101f2868287016100f1565b9150509250925092565b600181811c9082168061021057607f821691505b60208210810361022e57634e487b7160e01b5f52602260045260245ffd5b50919050565b601f82111561027b57805f5260205f20601f840160051c810160208510156102595750805b601f840160051c820191505b81811015610278575f8155600101610265565b50505b505050565b81516001600160401b03811115610299576102996100dd565b6102ad816102a784546101fc565b84610234565b6020601f8211600181146102df575f83156102c85750848201515b5f19600385901b1c1916600184901b178455610278565b5f84815260208120601f198516915b8281101561030e57878501518255602094850194600190920191016102ee565b508482101561032b57868401515f19600387901b60f8161c191681555b50505050600190811b01905550565b610936806103475f395ff3fe608060405234801561000f575f5ffd5b50600436106100f0575f3560e01c806370a082311161009357806395d89b411161006357806395d89b41146101ef578063a9059cbb146101f7578063dd62ed3e1461020a578063f2fde38b14610242575f5ffd5b806370a0823114610191578063715018a6146101b957806379cc6790146101c15780638da5cb5b146101d4575f5ffd5b806323b872dd116100ce57806323b872dd14610147578063313ce5671461015a57806340c10f191461016957806342966c681461017e575f5ffd5b806306fdde03146100f4578063095ea7b31461011257806318160ddd14610135575b5f5ffd5b6100fc610255565b604051610109919061078f565b60405180910390f35b6101256101203660046107df565b6102e5565b6040519015158152602001610109565b6002545b604051908152602001610109565b610125610155366004610807565b6102fe565b60405160128152602001610109565b61017c6101773660046107df565b610321565b005b61017c61018c366004610841565b610337565b61013961019f366004610858565b6001600160a01b03165f9081526020819052604090205490565b61017c610344565b61017c6101cf3660046107df565b610357565b6005546040516001600160a01b039091168152602001610109565b6100fc61036c565b6101256102053660046107df565b61037b565b610139610218366004610878565b6001600160a01b039182165f90815260016020908152604080832093909416825291909152205490565b61017c610250366004610858565b610388565b606060038054610264906108a9565b80601f0160208091040260200160405190810160405280929190818152602001828054610290906108a9565b80156102db5780601f106102b2576101008083540402835291602001916102db565b820191905f5260205f20905b8154815290600101906020018083116102be57829003601f168201915b5050505050905090565b5f336102f28185856103c7565b60019150505b92915050565b5f3361030b8582856103d9565b610316858585610454565b506001949350505050565b6103296104b1565b61033382826104de565b5050565b6103413382610512565b50565b61034c6104b1565b6103555f610546565b565b6103628233836103d9565b6103338282610512565b606060048054610264906108a9565b5f336102f2818585610454565b6103906104b1565b6001600160a01b0381166103be57604051631e4fbdf760e01b81525f60048201526024015b60405180910390fd5b61034181610546565b6103d48383836001610597565b505050565b6001600160a01b038381165f908152600160209081526040808320938616835292905220545f19811461044e578181101561044057604051637dc7a0d960e11b81526001600160a01b038416600482015260248101829052604481018390526064016103b5565b61044e84848484035f610597565b50505050565b6001600160a01b03831661047d57604051634b637e8f60e11b81525f60048201526024016103b5565b6001600160a01b0382166104a65760405163ec442f0560e01b81525f60048201526024016103b5565b6103d4838383610669565b6005546001600160a01b031633146103555760405163118cdaa760e01b81523360048201526024016103b5565b6001600160a01b0382166105075760405163ec442f0560e01b81525f60048201526024016103b5565b6103335f8383610669565b6001600160a01b03821661053b57604051634b637e8f60e11b81525f60048201526024016103b5565b610333825f83610669565b600580546001600160a01b038381166001600160a01b0319831681179093556040519116919082907f8be0079c531659141344cd1fd0a4f28419497f9722a3daafe3b4186f6b6457e0905f90a35050565b6001600160a01b0384166105c05760405163e602df0560e01b81525f60048201526024016103b5565b6001600160a01b0383166105e957604051634a1406b160e11b81525f60048201526024016103b5565b6001600160a01b038085165f908152600160209081526040808320938716835292905220829055801561044e57826001600160a01b0316846001600160a01b03167f8c5be1e5ebec7d5bd14f71427d1e84f3dd0314c0f7b2291e5b200ac8c7c3b9258460405161065b91815260200190565b60405180910390a350505050565b6001600160a01b038316610693578060025f82825461068891906108e1565b909155506107039050565b6001600160a01b0383165f90815260208190526040902054818110156106e55760405163391434e360e21b81526001600160a01b038516600482015260248101829052604481018390526064016103b5565b6001600160a01b0384165f9081526020819052604090209082900390555b6001600160a01b03821661071f5760028054829003905561073d565b6001600160a01b0382165f9081526020819052604090208054820190555b816001600160a01b0316836001600160a01b03167fddf252ad1be2c89b69c2b068fc378daa952ba7f163c4a11628f55a4df523b3ef8360405161078291815260200190565b60405180910390a3505050565b602081525f82518060208401528060208501604085015e5f604082850101526040601f19601f83011684010191505092915050565b80356001600160a01b03811681146107da575f5ffd5b919050565b5f5f604083850312156107f0575f5ffd5b6107f9836107c4565b946020939093013593505050565b5f5f5f60608486031215610819575f5ffd5b610822846107c4565b9250610830602085016107c4565b929592945050506040919091013590565b5f60208284031215610851575f5ffd5b5035919050565b5f60208284031215610868575f5ffd5b610871826107c4565b9392505050565b5f5f60408385031215610889575f5ffd5b610892836107c4565b91506108a0602084016107c4565b90509250929050565b600181811c908216806108bd57607f821691505b6020821081036108db57634e487b7160e01b5f52602260045260245ffd5b50919050565b808201808211156102f857634e487b7160e01b5f52601160045260245ffdfea26469706673582212208f97296811ea14804e2948934adf3226228e332197d873abb05876c52c6b4fd664736f6c634300081c0033000000000000000000000000b7d030f7c6406446e703e73b3d1dd8611a2d87b6000000000000000000000000000000000000000000000000000000000000006000000000000000000000000000000000000000000000000000000000000000a0000000000000000000000000000000000000000000000000000000000000000a546574686572205553440000000000000000000000000000000000000000000000000000000000000000000000000000000000000000000000000000000000045553445400000000000000000000000000000000000000000000000000000000",
        "nonce": "0x1f",
        "chainId": "0x279f"
      },
      "additionalContracts": [],
      "isFixedGasLimit": false
    },
    {
      "hash": "0xa1d50f599d0942c0d7d2bf8c16258ad7a236ee46604a5fdf31d3e84e24b910d4",
      "transactionType": "CALL",
      "contractName": "MockERC20",
      "contractAddress": "0x5122b4e1af1af9475d5f894ca009d88710063674",
      "function": "mint(address,uint256)",
      "arguments": [
        "0xB7d030F7c6406446e703E73B3d1dd8611A2D87b6",
        "10000000000000000000000"
      ],
      "transaction": {
        "from": "0xb7d030f7c6406446e703e73b3d1dd8611a2d87b6",
        "to": "0x5122b4e1af1af9475d5f894ca009d88710063674",
        "gas": "0x17d4b",
        "value": "0x0",
        "input": "0x40c10f19000000000000000000000000b7d030f7c6406446e703e73b3d1dd8611a2d87b600000000000000000000000000000000000000000000021e19e0c9bab2400000",
        "nonce": "0x20",
        "chainId": "0x279f"
      },
      "additionalContracts": [],
      "isFixedGasLimit": false
    },
    {
      "hash": "0x283d050d06892719e488c6727084a0d0239749b8dbb3ce15068bd8b22e0bf07b",
      "transactionType": "CALL",
      "contractName": "MockERC20",
      "contractAddress": "0x5122b4e1af1af9475d5f894ca009d88710063674",
      "function": "mint(address,uint256)",
      "arguments": [
        "0x4F88F1014Dd6Ca0507780380111c098BeE6b87e6",
        "10000000000000000000000"
      ],
      "transaction": {
        "from": "0xb7d030f7c6406446e703e73b3d1dd8611a2d87b6",
        "to": "0x5122b4e1af1af9475d5f894ca009d88710063674",
        "gas": "0x13209",
        "value": "0x0",
        "input": "0x40c10f190000000000000000000000004f88f1014dd6ca0507780380111c098bee6b87e600000000000000000000000000000000000000000000021e19e0c9bab2400000",
        "nonce": "0x21",
        "chainId": "0x279f"
      },
      "additionalContracts": [],
      "isFixedGasLimit": false
    },
    {
      "hash": "0x7526c297774398ca81bee5e5380a7498fde1da94ad704716db62d4f57c1e8730",
      "transactionType": "CALL",
      "contractName": "MockERC20",
      "contractAddress": "0x5122b4e1af1af9475d5f894ca009d88710063674",
      "function": "mint(address,uint256)",
      "arguments": [
        "0xC31f6b8133d618aD2ff1AC5fAA3Fc4B20557B901",
        "10000000000000000000000"
      ],
      "transaction": {
        "from": "0xb7d030f7c6406446e703e73b3d1dd8611a2d87b6",
        "to": "0x5122b4e1af1af9475d5f894ca009d88710063674",
        "gas": "0x13209",
        "value": "0x0",
        "input": "0x40c10f19000000000000000000000000c31f6b8133d618ad2ff1ac5faa3fc4b20557b90100000000000000000000000000000000000000000000021e19e0c9bab2400000",
        "nonce": "0x22",
        "chainId": "0x279f"
      },
      "additionalContracts": [],
      "isFixedGasLimit": false
    },
    {
      "hash": "0xbb1d5d6640b30017de8c7a4e377f0cf9c82ef9a3a42c7cb22fde31a9671ec3af",
      "transactionType": "CALL",
      "contractName": "MockERC20",
      "contractAddress": "0x5122b4e1af1af9475d5f894ca009d88710063674",
      "function": "mint(address,uint256)",
      "arguments": [
        "0x66E675533020c3CDeE2F33E372320B7e2692211e",
        "10000000000000000000000"
      ],
      "transaction": {
        "from": "0xb7d030f7c6406446e703e73b3d1dd8611a2d87b6",
        "to": "0x5122b4e1af1af9475d5f894ca009d88710063674",
        "gas": "0x13209",
        "value": "0x0",
        "input": "0x40c10f1900000000000000000000000066e675533020c3cdee2f33e372320b7e2692211e00000000000000000000000000000000000000000000021e19e0c9bab2400000",
        "nonce": "0x23",
        "chainId": "0x279f"
      },
      "additionalContracts": [],
      "isFixedGasLimit": false
    },
    {
      "hash": "0x8ca79b80ef1607e4c7ec375fade6394530a2a92f6fad91646897c4e95c783349",
      "transactionType": "CALL",
      "contractName": "MockERC20",
      "contractAddress": "0x5122b4e1af1af9475d5f894ca009d88710063674",
      "function": "mint(address,uint256)",
      "arguments": [
        "0x8c4Eb6988A199DAbcae0Ce31052b3f3aC591787e",
        "10000000000000000000000"
      ],
      "transaction": {
        "from": "0xb7d030f7c6406446e703e73b3d1dd8611a2d87b6",
        "to": "0x5122b4e1af1af9475d5f894ca009d88710063674",
        "gas": "0x13209",
        "value": "0x0",
        "input": "0x40c10f190000000000000000000000008c4eb6988a199dabcae0ce31052b3f3ac591787e00000000000000000000000000000000000000000000021e19e0c9bab2400000",
        "nonce": "0x24",
        "chainId": "0x279f"
      },
      "additionalContracts": [],
      "isFixedGasLimit": false
    },
    {
      "hash": "0xc7ec906c6ed01b15b96162c4011c0844d58cc5b06e7ad009a4ab77f1b96eaca4",
      "transactionType": "CREATE",
      "contractName": "MockERC20",
      "contractAddress": "0xb3b7229796e9f43a4a4a8172a2b227db1b416a27",
      "function": null,
      "arguments": [
        "0xB7d030F7c6406446e703E73B3d1dd8611A2D87b6",
        "USD Coin",
        "USDC"
      ],
      "transaction": {
        "from": "0xb7d030f7c6406446e703e73b3d1dd8611a2d87b6",
        "gas": "0xcd6df",
        "value": "0x0",
        "input": "0x608060405234801561000f575f5ffd5b50604051610c7d380380610c7d83398101604081905261002e9161017a565b828282600361003d8382610280565b50600461004a8282610280565b5050506001600160a01b03811661007a57604051631e4fbdf760e01b81525f600482015260240160405180910390fd5b6100838161008c565b5050505061033a565b600580546001600160a01b038381166001600160a01b0319831681179093556040519116919082907f8be0079c531659141344cd1fd0a4f28419497f9722a3daafe3b4186f6b6457e0905f90a35050565b634e487b7160e01b5f52604160045260245ffd5b5f82601f830112610100575f5ffd5b81516001600160401b03811115610119576101196100dd565b604051601f8201601f19908116603f011681016001600160401b0381118282101715610147576101476100dd565b60405281815283820160200185101561015e575f5ffd5b8160208501602083015e5f918101602001919091529392505050565b5f5f5f6060848603121561018c575f5ffd5b83516001600160a01b03811681146101a2575f5ffd5b60208501519093506001600160401b038111156101bd575f5ffd5b6101c9868287016100f1565b604086015190935090506001600160401b038111156101e6575f5ffd5b6101f2868287016100f1565b9150509250925092565b600181811c9082168061021057607f821691505b60208210810361022e57634e487b7160e01b5f52602260045260245ffd5b50919050565b601f82111561027b57805f5260205f20601f840160051c810160208510156102595750805b601f840160051c820191505b81811015610278575f8155600101610265565b50505b505050565b81516001600160401b03811115610299576102996100dd565b6102ad816102a784546101fc565b84610234565b6020601f8211600181146102df575f83156102c85750848201515b5f19600385901b1c1916600184901b178455610278565b5f84815260208120601f198516915b8281101561030e57878501518255602094850194600190920191016102ee565b508482101561032b57868401515f19600387901b60f8161c191681555b50505050600190811b01905550565b610936806103475f395ff3fe608060405234801561000f575f5ffd5b50600436106100f0575f3560e01c806370a082311161009357806395d89b411161006357806395d89b41146101ef578063a9059cbb146101f7578063dd62ed3e1461020a578063f2fde38b14610242575f5ffd5b806370a0823114610191578063715018a6146101b957806379cc6790146101c15780638da5cb5b146101d4575f5ffd5b806323b872dd116100ce57806323b872dd14610147578063313ce5671461015a57806340c10f191461016957806342966c681461017e575f5ffd5b806306fdde03146100f4578063095ea7b31461011257806318160ddd14610135575b5f5ffd5b6100fc610255565b604051610109919061078f565b60405180910390f35b6101256101203660046107df565b6102e5565b6040519015158152602001610109565b6002545b604051908152602001610109565b610125610155366004610807565b6102fe565b60405160128152602001610109565b61017c6101773660046107df565b610321565b005b61017c61018c366004610841565b610337565b61013961019f366004610858565b6001600160a01b03165f9081526020819052604090205490565b61017c610344565b61017c6101cf3660046107df565b610357565b6005546040516001600160a01b039091168152602001610109565b6100fc61036c565b6101256102053660046107df565b61037b565b610139610218366004610878565b6001600160a01b039182165f90815260016020908152604080832093909416825291909152205490565b61017c610250366004610858565b610388565b606060038054610264906108a9565b80601f0160208091040260200160405190810160405280929190818152602001828054610290906108a9565b80156102db5780601f106102b2576101008083540402835291602001916102db565b820191905f5260205f20905b8154815290600101906020018083116102be57829003601f168201915b5050505050905090565b5f336102f28185856103c7565b60019150505b92915050565b5f3361030b8582856103d9565b610316858585610454565b506001949350505050565b6103296104b1565b61033382826104de565b5050565b6103413382610512565b50565b61034c6104b1565b6103555f610546565b565b6103628233836103d9565b6103338282610512565b606060048054610264906108a9565b5f336102f2818585610454565b6103906104b1565b6001600160a01b0381166103be57604051631e4fbdf760e01b81525f60048201526024015b60405180910390fd5b61034181610546565b6103d48383836001610597565b505050565b6001600160a01b038381165f908152600160209081526040808320938616835292905220545f19811461044e578181101561044057604051637dc7a0d960e11b81526001600160a01b038416600482015260248101829052604481018390526064016103b5565b61044e84848484035f610597565b50505050565b6001600160a01b03831661047d57604051634b637e8f60e11b81525f60048201526024016103b5565b6001600160a01b0382166104a65760405163ec442f0560e01b81525f60048201526024016103b5565b6103d4838383610669565b6005546001600160a01b031633146103555760405163118cdaa760e01b81523360048201526024016103b5565b6001600160a01b0382166105075760405163ec442f0560e01b81525f60048201526024016103b5565b6103335f8383610669565b6001600160a01b03821661053b57604051634b637e8f60e11b81525f60048201526024016103b5565b610333825f83610669565b600580546001600160a01b038381166001600160a01b0319831681179093556040519116919082907f8be0079c531659141344cd1fd0a4f28419497f9722a3daafe3b4186f6b6457e0905f90a35050565b6001600160a01b0384166105c05760405163e602df0560e01b81525f60048201526024016103b5565b6001600160a01b0383166105e957604051634a1406b160e11b81525f60048201526024016103b5565b6001600160a01b038085165f908152600160209081526040808320938716835292905220829055801561044e57826001600160a01b0316846001600160a01b03167f8c5be1e5ebec7d5bd14f71427d1e84f3dd0314c0f7b2291e5b200ac8c7c3b9258460405161065b91815260200190565b60405180910390a350505050565b6001600160a01b038316610693578060025f82825461068891906108e1565b909155506107039050565b6001600160a01b0383165f90815260208190526040902054818110156106e55760405163391434e360e21b81526001600160a01b038516600482015260248101829052604481018390526064016103b5565b6001600160a01b0384165f9081526020819052604090209082900390555b6001600160a01b03821661071f5760028054829003905561073d565b6001600160a01b0382165f9081526020819052604090208054820190555b816001600160a01b0316836001600160a01b03167fddf252ad1be2c89b69c2b068fc378daa952ba7f163c4a11628f55a4df523b3ef8360405161078291815260200190565b60405180910390a3505050565b602081525f82518060208401528060208501604085015e5f604082850101526040601f19601f83011684010191505092915050565b80356001600160a01b03811681146107da575f5ffd5b919050565b5f5f604083850312156107f0575f5ffd5b6107f9836107c4565b946020939093013593505050565b5f5f5f60608486031215610819575f5ffd5b610822846107c4565b9250610830602085016107c4565b929592945050506040919091013590565b5f60208284031215610851575f5ffd5b5035919050565b5f60208284031215610868575f5ffd5b610871826107c4565b9392505050565b5f5f60408385031215610889575f5ffd5b610892836107c4565b91506108a0602084016107c4565b90509250929050565b600181811c908216806108bd57607f821691505b6020821081036108db57634e487b7160e01b5f52602260045260245ffd5b50919050565b808201808211156102f857634e487b7160e01b5f52601160045260245ffdfea26469706673582212208f97296811ea14804e2948934adf3226228e332197d873abb05876c52c6b4fd664736f6c634300081c0033000000000000000000000000b7d030f7c6406446e703e73b3d1dd8611a2d87b6000000000000000000000000000000000000000000000000000000000000006000000000000000000000000000000000000000000000000000000000000000a0000000000000000000000000000000000000000000000000000000000000000855534420436f696e00000000000000000000000000000000000000000000000000000000000000000000000000000000000000000000000000000000000000045553444300000000000000000000000000000000000000000000000000000000",
        "nonce": "0x25",
        "chainId": "0x279f"
      },
      "additionalContracts": [],
      "isFixedGasLimit": false
    },
    {
      "hash": "0x7bae3c35f76f9c602d2aa5a7406a917a625218351bee5b8b3844c12f6c1ea2f8",
      "transactionType": "CALL",
      "contractName": "MockERC20",
      "contractAddress": "0xb3b7229796e9f43a4a4a8172a2b227db1b416a27",
      "function": "mint(address,uint256)",
      "arguments": [
        "0xB7d030F7c6406446e703E73B3d1dd8611A2D87b6",
        "10000000000000000000000"
      ],
      "transaction": {
        "from": "0xb7d030f7c6406446e703e73b3d1dd8611a2d87b6",
        "to": "0xb3b7229796e9f43a4a4a8172a2b227db1b416a27",
        "gas": "0x17d4b",
        "value": "0x0",
        "input": "0x40c10f19000000000000000000000000b7d030f7c6406446e703e73b3d1dd8611a2d87b600000000000000000000000000000000000000000000021e19e0c9bab2400000",
        "nonce": "0x26",
        "chainId": "0x279f"
      },
      "additionalContracts": [],
      "isFixedGasLimit": false
    },
    {
      "hash": "0x135bce7455b1f567b603e1755f78e57a64f0433544449a1bacfa401a7dc658d2",
      "transactionType": "CALL",
      "contractName": "MockERC20",
      "contractAddress": "0xb3b7229796e9f43a4a4a8172a2b227db1b416a27",
      "function": "mint(address,uint256)",
      "arguments": [
        "0x4F88F1014Dd6Ca0507780380111c098BeE6b87e6",
        "10000000000000000000000"
      ],
      "transaction": {
        "from": "0xb7d030f7c6406446e703e73b3d1dd8611a2d87b6",
        "to": "0xb3b7229796e9f43a4a4a8172a2b227db1b416a27",
        "gas": "0x13209",
        "value": "0x0",
        "input": "0x40c10f190000000000000000000000004f88f1014dd6ca0507780380111c098bee6b87e600000000000000000000000000000000000000000000021e19e0c9bab2400000",
        "nonce": "0x27",
        "chainId": "0x279f"
      },
      "additionalContracts": [],
      "isFixedGasLimit": false
    },
    {
      "hash": "0x74d525436907179041a3dfe94c058be527fcc516b1987d1ba83ff393fb88f0cd",
      "transactionType": "CALL",
      "contractName": "MockERC20",
      "contractAddress": "0xb3b7229796e9f43a4a4a8172a2b227db1b416a27",
      "function": "mint(address,uint256)",
      "arguments": [
        "0xC31f6b8133d618aD2ff1AC5fAA3Fc4B20557B901",
        "10000000000000000000000"
      ],
      "transaction": {
        "from": "0xb7d030f7c6406446e703e73b3d1dd8611a2d87b6",
        "to": "0xb3b7229796e9f43a4a4a8172a2b227db1b416a27",
        "gas": "0x13209",
        "value": "0x0",
        "input": "0x40c10f19000000000000000000000000c31f6b8133d618ad2ff1ac5faa3fc4b20557b90100000000000000000000000000000000000000000000021e19e0c9bab2400000",
        "nonce": "0x28",
        "chainId": "0x279f"
      },
      "additionalContracts": [],
      "isFixedGasLimit": false
    },
    {
      "hash": "0xb91e214b928d458c9a02bb60e701bf62a134ca5eae24d7d74e829ce8b09d695c",
      "transactionType": "CALL",
      "contractName": "MockERC20",
      "contractAddress": "0xb3b7229796e9f43a4a4a8172a2b227db1b416a27",
      "function": "mint(address,uint256)",
      "arguments": [
        "0x66E675533020c3CDeE2F33E372320B7e2692211e",
        "10000000000000000000000"
      ],
      "transaction": {
        "from": "0xb7d030f7c6406446e703e73b3d1dd8611a2d87b6",
        "to": "0xb3b7229796e9f43a4a4a8172a2b227db1b416a27",
        "gas": "0x13209",
        "value": "0x0",
        "input": "0x40c10f1900000000000000000000000066e675533020c3cdee2f33e372320b7e2692211e00000000000000000000000000000000000000000000021e19e0c9bab2400000",
        "nonce": "0x29",
        "chainId": "0x279f"
      },
      "additionalContracts": [],
      "isFixedGasLimit": false
    },
    {
      "hash": "0xa807be6a17cb0b22680961b95aaa8253fc88667458ee3d496226329d63efcf6f",
      "transactionType": "CALL",
      "contractName": "MockERC20",
      "contractAddress": "0xb3b7229796e9f43a4a4a8172a2b227db1b416a27",
      "function": "mint(address,uint256)",
      "arguments": [
        "0x8c4Eb6988A199DAbcae0Ce31052b3f3aC591787e",
        "10000000000000000000000"
      ],
      "transaction": {
        "from": "0xb7d030f7c6406446e703e73b3d1dd8611a2d87b6",
        "to": "0xb3b7229796e9f43a4a4a8172a2b227db1b416a27",
        "gas": "0x13209",
        "value": "0x0",
        "input": "0x40c10f190000000000000000000000008c4eb6988a199dabcae0ce31052b3f3ac591787e00000000000000000000000000000000000000000000021e19e0c9bab2400000",
        "nonce": "0x2a",
        "chainId": "0x279f"
      },
      "additionalContracts": [],
      "isFixedGasLimit": false
    },
    {
      "hash": "0x11ba28d0271d0e428803e8a2e2bbbd6310ddcddaf1759f02083a3c94d2fe002a",
      "transactionType": "CREATE",
      "contractName": "MockERC20",
      "contractAddress": "0xbd2bfbac84de0f743390262822e0a6d4ff41a348",
      "function": null,
      "arguments": [
        "0xB7d030F7c6406446e703E73B3d1dd8611A2D87b6",
        "Wrapped BTC",
        "WBTC"
      ],
      "transaction": {
        "from": "0xb7d030f7c6406446e703e73b3d1dd8611a2d87b6",
        "gas": "0xcd70e",
        "value": "0x0",
        "input": "0x608060405234801561000f575f5ffd5b50604051610c7d380380610c7d83398101604081905261002e9161017a565b828282600361003d8382610280565b50600461004a8282610280565b5050506001600160a01b03811661007a57604051631e4fbdf760e01b81525f600482015260240160405180910390fd5b6100838161008c565b5050505061033a565b600580546001600160a01b038381166001600160a01b0319831681179093556040519116919082907f8be0079c531659141344cd1fd0a4f28419497f9722a3daafe3b4186f6b6457e0905f90a35050565b634e487b7160e01b5f52604160045260245ffd5b5f82601f830112610100575f5ffd5b81516001600160401b03811115610119576101196100dd565b604051601f8201601f19908116603f011681016001600160401b0381118282101715610147576101476100dd565b60405281815283820160200185101561015e575f5ffd5b8160208501602083015e5f918101602001919091529392505050565b5f5f5f6060848603121561018c575f5ffd5b83516001600160a01b03811681146101a2575f5ffd5b60208501519093506001600160401b038111156101bd575f5ffd5b6101c9868287016100f1565b604086015190935090506001600160401b038111156101e6575f5ffd5b6101f2868287016100f1565b9150509250925092565b600181811c9082168061021057607f821691505b60208210810361022e57634e487b7160e01b5f52602260045260245ffd5b50919050565b601f82111561027b57805f5260205f20601f840160051c810160208510156102595750805b601f840160051c820191505b81811015610278575f8155600101610265565b50505b505050565b81516001600160401b03811115610299576102996100dd565b6102ad816102a784546101fc565b84610234565b6020601f8211600181146102df575f83156102c85750848201515b5f19600385901b1c1916600184901b178455610278565b5f84815260208120601f198516915b8281101561030e57878501518255602094850194600190920191016102ee565b508482101561032b57868401515f19600387901b60f8161c191681555b50505050600190811b01905550565b610936806103475f395ff3fe608060405234801561000f575f5ffd5b50600436106100f0575f3560e01c806370a082311161009357806395d89b411161006357806395d89b41146101ef578063a9059cbb146101f7578063dd62ed3e1461020a578063f2fde38b14610242575f5ffd5b806370a0823114610191578063715018a6146101b957806379cc6790146101c15780638da5cb5b146101d4575f5ffd5b806323b872dd116100ce57806323b872dd14610147578063313ce5671461015a57806340c10f191461016957806342966c681461017e575f5ffd5b806306fdde03146100f4578063095ea7b31461011257806318160ddd14610135575b5f5ffd5b6100fc610255565b604051610109919061078f565b60405180910390f35b6101256101203660046107df565b6102e5565b6040519015158152602001610109565b6002545b604051908152602001610109565b610125610155366004610807565b6102fe565b60405160128152602001610109565b61017c6101773660046107df565b610321565b005b61017c61018c366004610841565b610337565b61013961019f366004610858565b6001600160a01b03165f9081526020819052604090205490565b61017c610344565b61017c6101cf3660046107df565b610357565b6005546040516001600160a01b039091168152602001610109565b6100fc61036c565b6101256102053660046107df565b61037b565b610139610218366004610878565b6001600160a01b039182165f90815260016020908152604080832093909416825291909152205490565b61017c610250366004610858565b610388565b606060038054610264906108a9565b80601f0160208091040260200160405190810160405280929190818152602001828054610290906108a9565b80156102db5780601f106102b2576101008083540402835291602001916102db565b820191905f5260205f20905b8154815290600101906020018083116102be57829003601f168201915b5050505050905090565b5f336102f28185856103c7565b60019150505b92915050565b5f3361030b8582856103d9565b610316858585610454565b506001949350505050565b6103296104b1565b61033382826104de565b5050565b6103413382610512565b50565b61034c6104b1565b6103555f610546565b565b6103628233836103d9565b6103338282610512565b606060048054610264906108a9565b5f336102f2818585610454565b6103906104b1565b6001600160a01b0381166103be57604051631e4fbdf760e01b81525f60048201526024015b60405180910390fd5b61034181610546565b6103d48383836001610597565b505050565b6001600160a01b038381165f908152600160209081526040808320938616835292905220545f19811461044e578181101561044057604051637dc7a0d960e11b81526001600160a01b038416600482015260248101829052604481018390526064016103b5565b61044e84848484035f610597565b50505050565b6001600160a01b03831661047d57604051634b637e8f60e11b81525f60048201526024016103b5565b6001600160a01b0382166104a65760405163ec442f0560e01b81525f60048201526024016103b5565b6103d4838383610669565b6005546001600160a01b031633146103555760405163118cdaa760e01b81523360048201526024016103b5565b6001600160a01b0382166105075760405163ec442f0560e01b81525f60048201526024016103b5565b6103335f8383610669565b6001600160a01b03821661053b57604051634b637e8f60e11b81525f60048201526024016103b5565b610333825f83610669565b600580546001600160a01b038381166001600160a01b0319831681179093556040519116919082907f8be0079c531659141344cd1fd0a4f28419497f9722a3daafe3b4186f6b6457e0905f90a35050565b6001600160a01b0384166105c05760405163e602df0560e01b81525f60048201526024016103b5565b6001600160a01b0383166105e957604051634a1406b160e11b81525f60048201526024016103b5565b6001600160a01b038085165f908152600160209081526040808320938716835292905220829055801561044e57826001600160a01b0316846001600160a01b03167f8c5be1e5ebec7d5bd14f71427d1e84f3dd0314c0f7b2291e5b200ac8c7c3b9258460405161065b91815260200190565b60405180910390a350505050565b6001600160a01b038316610693578060025f82825461068891906108e1565b909155506107039050565b6001600160a01b0383165f90815260208190526040902054818110156106e55760405163391434e360e21b81526001600160a01b038516600482015260248101829052604481018390526064016103b5565b6001600160a01b0384165f9081526020819052604090209082900390555b6001600160a01b03821661071f5760028054829003905561073d565b6001600160a01b0382165f9081526020819052604090208054820190555b816001600160a01b0316836001600160a01b03167fddf252ad1be2c89b69c2b068fc378daa952ba7f163c4a11628f55a4df523b3ef8360405161078291815260200190565b60405180910390a3505050565b602081525f82518060208401528060208501604085015e5f604082850101526040601f19601f83011684010191505092915050565b80356001600160a01b03811681146107da575f5ffd5b919050565b5f5f604083850312156107f0575f5ffd5b6107f9836107c4565b946020939093013593505050565b5f5f5f60608486031215610819575f5ffd5b610822846107c4565b9250610830602085016107c4565b929592945050506040919091013590565b5f60208284031215610851575f5ffd5b5035919050565b5f60208284031215610868575f5ffd5b610871826107c4565b9392505050565b5f5f60408385031215610889575f5ffd5b610892836107c4565b91506108a0602084016107c4565b90509250929050565b600181811c908216806108bd57607f821691505b6020821081036108db57634e487b7160e01b5f52602260045260245ffd5b50919050565b808201808211156102f857634e487b7160e01b5f52601160045260245ffdfea26469706673582212208f97296811ea14804e2948934adf3226228e332197d873abb05876c52c6b4fd664736f6c634300081c0033000000000000000000000000b7d030f7c6406446e703e73b3d1dd8611a2d87b6000000000000000000000000000000000000000000000000000000000000006000000000000000000000000000000000000000000000000000000000000000a0000000000000000000000000000000000000000000000000000000000000000b577261707065642042544300000000000000000000000000000000000000000000000000000000000000000000000000000000000000000000000000000000045742544300000000000000000000000000000000000000000000000000000000",
        "nonce": "0x2b",
        "chainId": "0x279f"
      },
      "additionalContracts": [],
      "isFixedGasLimit": false
    },
    {
      "hash": "0x36a4b5f6d62b0ecafb5ab2b3a920c9970761c731774ef8df3f91e24136370477",
      "transactionType": "CALL",
      "contractName": "MockERC20",
      "contractAddress": "0xbd2bfbac84de0f743390262822e0a6d4ff41a348",
      "function": "mint(address,uint256)",
      "arguments": [
        "0xB7d030F7c6406446e703E73B3d1dd8611A2D87b6",
        "10000000000000000000000"
      ],
      "transaction": {
        "from": "0xb7d030f7c6406446e703e73b3d1dd8611a2d87b6",
        "to": "0xbd2bfbac84de0f743390262822e0a6d4ff41a348",
        "gas": "0x17d4b",
        "value": "0x0",
        "input": "0x40c10f19000000000000000000000000b7d030f7c6406446e703e73b3d1dd8611a2d87b600000000000000000000000000000000000000000000021e19e0c9bab2400000",
        "nonce": "0x2c",
        "chainId": "0x279f"
      },
      "additionalContracts": [],
      "isFixedGasLimit": false
    },
    {
      "hash": "0xe9168650e05dcd255dd116e9c64e5864c2f425e842e3c454fa0b055efa23965b",
      "transactionType": "CALL",
      "contractName": "MockERC20",
      "contractAddress": "0xbd2bfbac84de0f743390262822e0a6d4ff41a348",
      "function": "mint(address,uint256)",
      "arguments": [
        "0x4F88F1014Dd6Ca0507780380111c098BeE6b87e6",
        "10000000000000000000000"
      ],
      "transaction": {
        "from": "0xb7d030f7c6406446e703e73b3d1dd8611a2d87b6",
        "to": "0xbd2bfbac84de0f743390262822e0a6d4ff41a348",
        "gas": "0x13209",
        "value": "0x0",
        "input": "0x40c10f190000000000000000000000004f88f1014dd6ca0507780380111c098bee6b87e600000000000000000000000000000000000000000000021e19e0c9bab2400000",
        "nonce": "0x2d",
        "chainId": "0x279f"
      },
      "additionalContracts": [],
      "isFixedGasLimit": false
    },
    {
      "hash": "0x28db394f16854d2486fa601cefc0fa954ea945b5222f66645d519a2289949c5e",
      "transactionType": "CALL",
      "contractName": "MockERC20",
      "contractAddress": "0xbd2bfbac84de0f743390262822e0a6d4ff41a348",
      "function": "mint(address,uint256)",
      "arguments": [
        "0xC31f6b8133d618aD2ff1AC5fAA3Fc4B20557B901",
        "10000000000000000000000"
      ],
      "transaction": {
        "from": "0xb7d030f7c6406446e703e73b3d1dd8611a2d87b6",
        "to": "0xbd2bfbac84de0f743390262822e0a6d4ff41a348",
        "gas": "0x13209",
        "value": "0x0",
        "input": "0x40c10f19000000000000000000000000c31f6b8133d618ad2ff1ac5faa3fc4b20557b90100000000000000000000000000000000000000000000021e19e0c9bab2400000",
        "nonce": "0x2e",
        "chainId": "0x279f"
      },
      "additionalContracts": [],
      "isFixedGasLimit": false
    },
    {
      "hash": "0x502d4154c91a69f99277f0e4e81d3f39c7e53ffb3dfcac84a5ada860e42a6243",
      "transactionType": "CALL",
      "contractName": "MockERC20",
      "contractAddress": "0xbd2bfbac84de0f743390262822e0a6d4ff41a348",
      "function": "mint(address,uint256)",
      "arguments": [
        "0x66E675533020c3CDeE2F33E372320B7e2692211e",
        "10000000000000000000000"
      ],
      "transaction": {
        "from": "0xb7d030f7c6406446e703e73b3d1dd8611a2d87b6",
        "to": "0xbd2bfbac84de0f743390262822e0a6d4ff41a348",
        "gas": "0x13209",
        "value": "0x0",
        "input": "0x40c10f1900000000000000000000000066e675533020c3cdee2f33e372320b7e2692211e00000000000000000000000000000000000000000000021e19e0c9bab2400000",
        "nonce": "0x2f",
        "chainId": "0x279f"
      },
      "additionalContracts": [],
      "isFixedGasLimit": false
    },
    {
      "hash": "0x36e57053365332646badded8b93b9d4a0fa055d5f462899e66aaca6eedae1832",
      "transactionType": "CALL",
      "contractName": "MockERC20",
      "contractAddress": "0xbd2bfbac84de0f743390262822e0a6d4ff41a348",
      "function": "mint(address,uint256)",
      "arguments": [
        "0x8c4Eb6988A199DAbcae0Ce31052b3f3aC591787e",
        "10000000000000000000000"
      ],
      "transaction": {
        "from": "0xb7d030f7c6406446e703e73b3d1dd8611a2d87b6",
        "to": "0xbd2bfbac84de0f743390262822e0a6d4ff41a348",
        "gas": "0x13209",
        "value": "0x0",
        "input": "0x40c10f190000000000000000000000008c4eb6988a199dabcae0ce31052b3f3ac591787e00000000000000000000000000000000000000000000021e19e0c9bab2400000",
        "nonce": "0x30",
        "chainId": "0x279f"
      },
      "additionalContracts": [],
      "isFixedGasLimit": false
    }
  ],
  "receipts": [
    {
      "status": "0x1",
      "cumulativeGasUsed": "0x9e075",
      "logs": [
        {
          "address": "0x5122b4e1af1af9475d5f894ca009d88710063674",
          "topics": [
            "0x8be0079c531659141344cd1fd0a4f28419497f9722a3daafe3b4186f6b6457e0",
            "0x0000000000000000000000000000000000000000000000000000000000000000",
            "0x000000000000000000000000b7d030f7c6406446e703e73b3d1dd8611a2d87b6"
          ],
          "data": "0x",
          "blockHash": "0x8e8480cb4971a1bc9c72b5af3c45285b7e8a1f8fad33d64df256133feb83a006",
          "blockNumber": "0x309330",
          "blockTimestamp": "0x67aeffa2",
          "transactionHash": "0xe3effb2b5a4aed073881bd8efd9742c5bd5bd64396b249ae5c0506e3268d1892",
          "transactionIndex": "0x0",
          "logIndex": "0x0",
          "removed": false
        }
      ],
      "logsBloom": "0x00000000000000000000000000000000000000000000000000800000000000000000000000000000000000000000000000000000000000000000000000000000000000000000000000000000000000000001000000400000000000001000000000000000020000000000000000000800000000000000000200000000000000400000800000000000000000000000000000000000000000000000000000000020000000000000000000000000010000000000000000000000000000000000000000000000000000000000000000000000000000000000000000000000000020000000000000000000000000000000000000000000000000000000000000000000",
      "type": "0x2",
      "transactionHash": "0xe3effb2b5a4aed073881bd8efd9742c5bd5bd64396b249ae5c0506e3268d1892",
      "transactionIndex": "0x0",
      "blockHash": "0x8e8480cb4971a1bc9c72b5af3c45285b7e8a1f8fad33d64df256133feb83a006",
      "blockNumber": "0x309330",
      "gasUsed": "0x9e075",
      "effectiveGasPrice": "0xba43b7401",
      "from": "0xb7d030f7c6406446e703e73b3d1dd8611a2d87b6",
      "to": null,
      "contractAddress": "0x5122b4e1af1af9475d5f894ca009d88710063674"
    },
    {
      "status": "0x1",
      "cumulativeGasUsed": "0xaf483",
      "logs": [
        {
          "address": "0x5122b4e1af1af9475d5f894ca009d88710063674",
          "topics": [
            "0xddf252ad1be2c89b69c2b068fc378daa952ba7f163c4a11628f55a4df523b3ef",
            "0x0000000000000000000000000000000000000000000000000000000000000000",
            "0x000000000000000000000000b7d030f7c6406446e703e73b3d1dd8611a2d87b6"
          ],
          "data": "0x00000000000000000000000000000000000000000000021e19e0c9bab2400000",
          "blockHash": "0x8e8480cb4971a1bc9c72b5af3c45285b7e8a1f8fad33d64df256133feb83a006",
          "blockNumber": "0x309330",
          "blockTimestamp": "0x67aeffa2",
          "transactionHash": "0xa1d50f599d0942c0d7d2bf8c16258ad7a236ee46604a5fdf31d3e84e24b910d4",
          "transactionIndex": "0x1",
          "logIndex": "0x1",
          "removed": false
        }
      ],
      "logsBloom": "0x00000000000000000000000000000000000000000000000000000000000000000000000000000000000000000000000000000000000000000000000000000000000000000000000000000008000000000000000000400000000000001000000000000000020000000000000000000800000000000000000200000010000000000000800000000000000000000000000000000000000000000000000000000020000000000000000000000000010000000000000000000000000000000000000000000002000000000000000000000000000000000000000000000000000020000000000000000000000000000000000000000000000000000000000000000000",
      "type": "0x2",
      "transactionHash": "0xa1d50f599d0942c0d7d2bf8c16258ad7a236ee46604a5fdf31d3e84e24b910d4",
      "transactionIndex": "0x1",
      "blockHash": "0x8e8480cb4971a1bc9c72b5af3c45285b7e8a1f8fad33d64df256133feb83a006",
      "blockNumber": "0x309330",
      "gasUsed": "0x1140e",
      "effectiveGasPrice": "0xba43b7401",
      "from": "0xb7d030f7c6406446e703e73b3d1dd8611a2d87b6",
      "to": "0x5122b4e1af1af9475d5f894ca009d88710063674",
      "contractAddress": null
    },
    {
      "status": "0x1",
      "cumulativeGasUsed": "0xbc5c5",
      "logs": [
        {
          "address": "0x5122b4e1af1af9475d5f894ca009d88710063674",
          "topics": [
            "0xddf252ad1be2c89b69c2b068fc378daa952ba7f163c4a11628f55a4df523b3ef",
            "0x0000000000000000000000000000000000000000000000000000000000000000",
            "0x0000000000000000000000004f88f1014dd6ca0507780380111c098bee6b87e6"
          ],
          "data": "0x00000000000000000000000000000000000000000000021e19e0c9bab2400000",
          "blockHash": "0x8e8480cb4971a1bc9c72b5af3c45285b7e8a1f8fad33d64df256133feb83a006",
          "blockNumber": "0x309330",
          "blockTimestamp": "0x67aeffa2",
          "transactionHash": "0x283d050d06892719e488c6727084a0d0239749b8dbb3ce15068bd8b22e0bf07b",
          "transactionIndex": "0x2",
          "logIndex": "0x2",
          "removed": false
        }
      ],
      "logsBloom": "0x00000000000000000000000002000000000000000000000000000000000000000000000000000000000000000000000000000000000000000000000000000000000000000000000000000008000000000000000000000000000000001000000000000000020000000000000000000800000000000000000000000010000000000000800000000000000000000000000000000000000000000000000000000000000000000000000000000000010000000000000004000000000000000000000000000002000000000000000000000000000000000000000000000000000020000000000000000000000000000000000000000000008000000000000000000000",
      "type": "0x2",
      "transactionHash": "0x283d050d06892719e488c6727084a0d0239749b8dbb3ce15068bd8b22e0bf07b",
      "transactionIndex": "0x2",
      "blockHash": "0x8e8480cb4971a1bc9c72b5af3c45285b7e8a1f8fad33d64df256133feb83a006",
      "blockNumber": "0x309330",
      "gasUsed": "0xd142",
      "effectiveGasPrice": "0xba43b7401",
      "from": "0xb7d030f7c6406446e703e73b3d1dd8611a2d87b6",
      "to": "0x5122b4e1af1af9475d5f894ca009d88710063674",
      "contractAddress": null
    },
    {
      "status": "0x1",
      "cumulativeGasUsed": "0xc9707",
      "logs": [
        {
          "address": "0x5122b4e1af1af9475d5f894ca009d88710063674",
          "topics": [
            "0xddf252ad1be2c89b69c2b068fc378daa952ba7f163c4a11628f55a4df523b3ef",
            "0x0000000000000000000000000000000000000000000000000000000000000000",
            "0x000000000000000000000000c31f6b8133d618ad2ff1ac5faa3fc4b20557b901"
          ],
          "data": "0x00000000000000000000000000000000000000000000021e19e0c9bab2400000",
          "blockHash": "0x8e8480cb4971a1bc9c72b5af3c45285b7e8a1f8fad33d64df256133feb83a006",
          "blockNumber": "0x309330",
          "blockTimestamp": "0x67aeffa2",
          "transactionHash": "0x7526c297774398ca81bee5e5380a7498fde1da94ad704716db62d4f57c1e8730",
          "transactionIndex": "0x3",
          "logIndex": "0x3",
          "removed": false
        }
      ],
      "logsBloom": "0x00000000000000000000000000000000000000000000000000000000000000000000000000000000000000000000000000000000000000000000000000000000000000000000000000000008000000000000000000000000000000001000000000000000020000000000000000000800000000000000000000000010400000000000800000000000000000000000000000000002000000000000000000000000000000000000000000000000010000000000000000000000080000000000000000000002000000000000000000000000000000000000000000000000000020000000000000000000000000000000000000000000000000000000000000000000",
      "type": "0x2",
      "transactionHash": "0x7526c297774398ca81bee5e5380a7498fde1da94ad704716db62d4f57c1e8730",
      "transactionIndex": "0x3",
      "blockHash": "0x8e8480cb4971a1bc9c72b5af3c45285b7e8a1f8fad33d64df256133feb83a006",
      "blockNumber": "0x309330",
      "gasUsed": "0xd142",
      "effectiveGasPrice": "0xba43b7401",
      "from": "0xb7d030f7c6406446e703e73b3d1dd8611a2d87b6",
      "to": "0x5122b4e1af1af9475d5f894ca009d88710063674",
      "contractAddress": null
    },
    {
      "status": "0x1",
      "cumulativeGasUsed": "0xd6849",
      "logs": [
        {
          "address": "0x5122b4e1af1af9475d5f894ca009d88710063674",
          "topics": [
            "0xddf252ad1be2c89b69c2b068fc378daa952ba7f163c4a11628f55a4df523b3ef",
            "0x0000000000000000000000000000000000000000000000000000000000000000",
            "0x00000000000000000000000066e675533020c3cdee2f33e372320b7e2692211e"
          ],
          "data": "0x00000000000000000000000000000000000000000000021e19e0c9bab2400000",
          "blockHash": "0x8e8480cb4971a1bc9c72b5af3c45285b7e8a1f8fad33d64df256133feb83a006",
          "blockNumber": "0x309330",
          "blockTimestamp": "0x67aeffa2",
          "transactionHash": "0xbb1d5d6640b30017de8c7a4e377f0cf9c82ef9a3a42c7cb22fde31a9671ec3af",
          "transactionIndex": "0x4",
          "logIndex": "0x4",
          "removed": false
        }
      ],
      "logsBloom": "0x00000000000000000000000000000000000000000000000000000000001000000000000000000000000000000000000000000000000000000000000000000000000000000000000000000008000008000000000000000000000000001000000000000000020000000000000000000800000000000000000000000010000000000000800000000000000000000000000000000000002000000000000000000000000000000000000000000000010000000000000000000000000000000000000000000002000000000000000000000000000000000000000000000000000020000000000000000000000000000000000000000000000000000000000000000000",
      "type": "0x2",
      "transactionHash": "0xbb1d5d6640b30017de8c7a4e377f0cf9c82ef9a3a42c7cb22fde31a9671ec3af",
      "transactionIndex": "0x4",
      "blockHash": "0x8e8480cb4971a1bc9c72b5af3c45285b7e8a1f8fad33d64df256133feb83a006",
      "blockNumber": "0x309330",
      "gasUsed": "0xd142",
      "effectiveGasPrice": "0xba43b7401",
      "from": "0xb7d030f7c6406446e703e73b3d1dd8611a2d87b6",
      "to": "0x5122b4e1af1af9475d5f894ca009d88710063674",
      "contractAddress": null
    },
    {
      "status": "0x1",
      "cumulativeGasUsed": "0xe398b",
      "logs": [
        {
          "address": "0x5122b4e1af1af9475d5f894ca009d88710063674",
          "topics": [
            "0xddf252ad1be2c89b69c2b068fc378daa952ba7f163c4a11628f55a4df523b3ef",
            "0x0000000000000000000000000000000000000000000000000000000000000000",
            "0x0000000000000000000000008c4eb6988a199dabcae0ce31052b3f3ac591787e"
          ],
          "data": "0x00000000000000000000000000000000000000000000021e19e0c9bab2400000",
          "blockHash": "0x8e8480cb4971a1bc9c72b5af3c45285b7e8a1f8fad33d64df256133feb83a006",
          "blockNumber": "0x309330",
          "blockTimestamp": "0x67aeffa2",
          "transactionHash": "0x8ca79b80ef1607e4c7ec375fade6394530a2a92f6fad91646897c4e95c783349",
          "transactionIndex": "0x5",
          "logIndex": "0x5",
          "removed": false
        }
      ],
      "logsBloom": "0x00000000000000000000000000000000000000000000000000000000000000000000000000000000000000000000000000000000000040000000000000000000000000000000000000000008000000000000000000000000000000001000000000000000020000000000000000000800000000000000000000000010000000000000800100000000000000000000000000000000000000000000000000000000000000000000000000000000010001000000000000000000000000000000000000000002000000000000000000000000000000000000000000000000000020000000000000000000000000000000000000000000000000000000000000000000",
      "type": "0x2",
      "transactionHash": "0x8ca79b80ef1607e4c7ec375fade6394530a2a92f6fad91646897c4e95c783349",
      "transactionIndex": "0x5",
      "blockHash": "0x8e8480cb4971a1bc9c72b5af3c45285b7e8a1f8fad33d64df256133feb83a006",
      "blockNumber": "0x309330",
      "gasUsed": "0xd142",
      "effectiveGasPrice": "0xba43b7401",
      "from": "0xb7d030f7c6406446e703e73b3d1dd8611a2d87b6",
      "to": "0x5122b4e1af1af9475d5f894ca009d88710063674",
      "contractAddress": null
    },
    {
      "status": "0x1",
      "cumulativeGasUsed": "0x1819e8",
      "logs": [
        {
          "address": "0xb3b7229796e9f43a4a4a8172a2b227db1b416a27",
          "topics": [
            "0x8be0079c531659141344cd1fd0a4f28419497f9722a3daafe3b4186f6b6457e0",
            "0x0000000000000000000000000000000000000000000000000000000000000000",
            "0x000000000000000000000000b7d030f7c6406446e703e73b3d1dd8611a2d87b6"
          ],
          "data": "0x",
          "blockHash": "0x8e8480cb4971a1bc9c72b5af3c45285b7e8a1f8fad33d64df256133feb83a006",
          "blockNumber": "0x309330",
          "blockTimestamp": "0x67aeffa2",
          "transactionHash": "0xc7ec906c6ed01b15b96162c4011c0844d58cc5b06e7ad009a4ab77f1b96eaca4",
          "transactionIndex": "0x6",
          "logIndex": "0x6",
          "removed": false
        }
      ],
      "logsBloom": "0x00000000000001000000000000000000000000000000000000800000000000000000000000000000000000000000000000000000000000000000000000000000000000000000000000000000000000000001000000400000000000000000000000000000020000000000000000000800000000000000000200000000000000400000000000000000000000000010000000000000000000000000000000000020000000000000000000000000000000000000000000000000000000000000000000000000000000000000000000000000000000000000000000000000000020000000000000000000000000000000000000000000000000000000000000000080",
      "type": "0x2",
      "transactionHash": "0xc7ec906c6ed01b15b96162c4011c0844d58cc5b06e7ad009a4ab77f1b96eaca4",
      "transactionIndex": "0x6",
      "blockHash": "0x8e8480cb4971a1bc9c72b5af3c45285b7e8a1f8fad33d64df256133feb83a006",
      "blockNumber": "0x309330",
      "gasUsed": "0x9e05d",
      "effectiveGasPrice": "0xba43b7401",
      "from": "0xb7d030f7c6406446e703e73b3d1dd8611a2d87b6",
      "to": null,
      "contractAddress": "0xb3b7229796e9f43a4a4a8172a2b227db1b416a27"
    },
    {
      "status": "0x1",
      "cumulativeGasUsed": "0x192df6",
      "logs": [
        {
          "address": "0xb3b7229796e9f43a4a4a8172a2b227db1b416a27",
          "topics": [
            "0xddf252ad1be2c89b69c2b068fc378daa952ba7f163c4a11628f55a4df523b3ef",
            "0x0000000000000000000000000000000000000000000000000000000000000000",
            "0x000000000000000000000000b7d030f7c6406446e703e73b3d1dd8611a2d87b6"
          ],
          "data": "0x00000000000000000000000000000000000000000000021e19e0c9bab2400000",
          "blockHash": "0x8e8480cb4971a1bc9c72b5af3c45285b7e8a1f8fad33d64df256133feb83a006",
          "blockNumber": "0x309330",
          "blockTimestamp": "0x67aeffa2",
          "transactionHash": "0x7bae3c35f76f9c602d2aa5a7406a917a625218351bee5b8b3844c12f6c1ea2f8",
          "transactionIndex": "0x7",
          "logIndex": "0x7",
          "removed": false
        }
      ],
      "logsBloom": "0x00000000000001000000000000000000000000000000000000000000000000000000000000000000000000000000000000000000000000000000000000000000000000000000000000000008000000000000000000400000000000000000000000000000020000000000000000000800000000000000000200000010000000000000000000000000000000000010000000000000000000000000000000000020000000000000000000000000000000000000000000000000000000000000000000000002000000000000000000000000000000000000000000000000000020000000000000000000000000000000000000000000000000000000000000000080",
      "type": "0x2",
      "transactionHash": "0x7bae3c35f76f9c602d2aa5a7406a917a625218351bee5b8b3844c12f6c1ea2f8",
      "transactionIndex": "0x7",
      "blockHash": "0x8e8480cb4971a1bc9c72b5af3c45285b7e8a1f8fad33d64df256133feb83a006",
      "blockNumber": "0x309330",
      "gasUsed": "0x1140e",
      "effectiveGasPrice": "0xba43b7401",
      "from": "0xb7d030f7c6406446e703e73b3d1dd8611a2d87b6",
      "to": "0xb3b7229796e9f43a4a4a8172a2b227db1b416a27",
      "contractAddress": null
    },
    {
      "status": "0x1",
      "cumulativeGasUsed": "0xd142",
      "logs": [
        {
          "address": "0xb3b7229796e9f43a4a4a8172a2b227db1b416a27",
          "topics": [
            "0xddf252ad1be2c89b69c2b068fc378daa952ba7f163c4a11628f55a4df523b3ef",
            "0x0000000000000000000000000000000000000000000000000000000000000000",
            "0x0000000000000000000000004f88f1014dd6ca0507780380111c098bee6b87e6"
          ],
          "data": "0x00000000000000000000000000000000000000000000021e19e0c9bab2400000",
          "blockHash": "0xb6133bd1ed3f9c03b48d35ee041624862e0ea355e1a7df7c1ee4bf312745dccc",
          "blockNumber": "0x309332",
          "blockTimestamp": "0x67aeffa4",
          "transactionHash": "0x135bce7455b1f567b603e1755f78e57a64f0433544449a1bacfa401a7dc658d2",
          "transactionIndex": "0x0",
          "logIndex": "0x0",
          "removed": false
        }
      ],
      "logsBloom": "0x00000000000001000000000002000000000000000000000000000000000000000000000000000000000000000000000000000000000000000000000000000000000000000000000000000008000000000000000000000000000000000000000000000000020000000000000000000800000000000000000000000010000000000000000000000000000000000010000000000000000000000000000000000000000000000000000000000000000000000000000004000000000000000000000000000002000000000000000000000000000000000000000000000000000020000000000000000000000000000000000000000000008000000000000000000080",
      "type": "0x2",
      "transactionHash": "0x135bce7455b1f567b603e1755f78e57a64f0433544449a1bacfa401a7dc658d2",
      "transactionIndex": "0x0",
      "blockHash": "0xb6133bd1ed3f9c03b48d35ee041624862e0ea355e1a7df7c1ee4bf312745dccc",
      "blockNumber": "0x309332",
      "gasUsed": "0xd142",
      "effectiveGasPrice": "0xba43b7401",
      "from": "0xb7d030f7c6406446e703e73b3d1dd8611a2d87b6",
      "to": "0xb3b7229796e9f43a4a4a8172a2b227db1b416a27",
      "contractAddress": null
    },
    {
      "status": "0x1",
      "cumulativeGasUsed": "0x1a284",
      "logs": [
        {
          "address": "0xb3b7229796e9f43a4a4a8172a2b227db1b416a27",
          "topics": [
            "0xddf252ad1be2c89b69c2b068fc378daa952ba7f163c4a11628f55a4df523b3ef",
            "0x0000000000000000000000000000000000000000000000000000000000000000",
            "0x000000000000000000000000c31f6b8133d618ad2ff1ac5faa3fc4b20557b901"
          ],
          "data": "0x00000000000000000000000000000000000000000000021e19e0c9bab2400000",
          "blockHash": "0xb6133bd1ed3f9c03b48d35ee041624862e0ea355e1a7df7c1ee4bf312745dccc",
          "blockNumber": "0x309332",
          "blockTimestamp": "0x67aeffa4",
          "transactionHash": "0x74d525436907179041a3dfe94c058be527fcc516b1987d1ba83ff393fb88f0cd",
          "transactionIndex": "0x1",
          "logIndex": "0x1",
          "removed": false
        }
      ],
      "logsBloom": "0x00000000000001000000000000000000000000000000000000000000000000000000000000000000000000000000000000000000000000000000000000000000000000000000000000000008000000000000000000000000000000000000000000000000020000000000000000000800000000000000000000000010400000000000000000000000000000000010000000000002000000000000000000000000000000000000000000000000000000000000000000000000080000000000000000000002000000000000000000000000000000000000000000000000000020000000000000000000000000000000000000000000000000000000000000000080",
      "type": "0x2",
      "transactionHash": "0x74d525436907179041a3dfe94c058be527fcc516b1987d1ba83ff393fb88f0cd",
      "transactionIndex": "0x1",
      "blockHash": "0xb6133bd1ed3f9c03b48d35ee041624862e0ea355e1a7df7c1ee4bf312745dccc",
      "blockNumber": "0x309332",
      "gasUsed": "0xd142",
      "effectiveGasPrice": "0xba43b7401",
      "from": "0xb7d030f7c6406446e703e73b3d1dd8611a2d87b6",
      "to": "0xb3b7229796e9f43a4a4a8172a2b227db1b416a27",
      "contractAddress": null
    },
    {
      "status": "0x1",
      "cumulativeGasUsed": "0x273c6",
      "logs": [
        {
          "address": "0xb3b7229796e9f43a4a4a8172a2b227db1b416a27",
          "topics": [
            "0xddf252ad1be2c89b69c2b068fc378daa952ba7f163c4a11628f55a4df523b3ef",
            "0x0000000000000000000000000000000000000000000000000000000000000000",
            "0x00000000000000000000000066e675533020c3cdee2f33e372320b7e2692211e"
          ],
          "data": "0x00000000000000000000000000000000000000000000021e19e0c9bab2400000",
          "blockHash": "0xb6133bd1ed3f9c03b48d35ee041624862e0ea355e1a7df7c1ee4bf312745dccc",
          "blockNumber": "0x309332",
          "blockTimestamp": "0x67aeffa4",
          "transactionHash": "0xb91e214b928d458c9a02bb60e701bf62a134ca5eae24d7d74e829ce8b09d695c",
          "transactionIndex": "0x2",
          "logIndex": "0x2",
          "removed": false
        }
      ],
      "logsBloom": "0x00000000000001000000000000000000000000000000000000000000001000000000000000000000000000000000000000000000000000000000000000000000000000000000000000000008000008000000000000000000000000000000000000000000020000000000000000000800000000000000000000000010000000000000000000000000000000000010000000000000002000000000000000000000000000000000000000000000000000000000000000000000000000000000000000000002000000000000000000000000000000000000000000000000000020000000000000000000000000000000000000000000000000000000000000000080",
      "type": "0x2",
      "transactionHash": "0xb91e214b928d458c9a02bb60e701bf62a134ca5eae24d7d74e829ce8b09d695c",
      "transactionIndex": "0x2",
      "blockHash": "0xb6133bd1ed3f9c03b48d35ee041624862e0ea355e1a7df7c1ee4bf312745dccc",
      "blockNumber": "0x309332",
      "gasUsed": "0xd142",
      "effectiveGasPrice": "0xba43b7401",
      "from": "0xb7d030f7c6406446e703e73b3d1dd8611a2d87b6",
      "to": "0xb3b7229796e9f43a4a4a8172a2b227db1b416a27",
      "contractAddress": null
    },
    {
      "status": "0x1",
      "cumulativeGasUsed": "0x34508",
      "logs": [
        {
          "address": "0xb3b7229796e9f43a4a4a8172a2b227db1b416a27",
          "topics": [
            "0xddf252ad1be2c89b69c2b068fc378daa952ba7f163c4a11628f55a4df523b3ef",
            "0x0000000000000000000000000000000000000000000000000000000000000000",
            "0x0000000000000000000000008c4eb6988a199dabcae0ce31052b3f3ac591787e"
          ],
          "data": "0x00000000000000000000000000000000000000000000021e19e0c9bab2400000",
          "blockHash": "0xb6133bd1ed3f9c03b48d35ee041624862e0ea355e1a7df7c1ee4bf312745dccc",
          "blockNumber": "0x309332",
          "blockTimestamp": "0x67aeffa4",
          "transactionHash": "0xa807be6a17cb0b22680961b95aaa8253fc88667458ee3d496226329d63efcf6f",
          "transactionIndex": "0x3",
          "logIndex": "0x3",
          "removed": false
        }
      ],
      "logsBloom": "0x00000000000001000000000000000000000000000000000000000000000000000000000000000000000000000000000000000000000040000000000000000000000000000000000000000008000000000000000000000000000000000000000000000000020000000000000000000800000000000000000000000010000000000000000100000000000000000010000000000000000000000000000000000000000000000000000000000000000001000000000000000000000000000000000000000002000000000000000000000000000000000000000000000000000020000000000000000000000000000000000000000000000000000000000000000080",
      "type": "0x2",
      "transactionHash": "0xa807be6a17cb0b22680961b95aaa8253fc88667458ee3d496226329d63efcf6f",
      "transactionIndex": "0x3",
      "blockHash": "0xb6133bd1ed3f9c03b48d35ee041624862e0ea355e1a7df7c1ee4bf312745dccc",
      "blockNumber": "0x309332",
      "gasUsed": "0xd142",
      "effectiveGasPrice": "0xba43b7401",
      "from": "0xb7d030f7c6406446e703e73b3d1dd8611a2d87b6",
      "to": "0xb3b7229796e9f43a4a4a8172a2b227db1b416a27",
      "contractAddress": null
    },
    {
      "status": "0x1",
      "cumulativeGasUsed": "0xd2589",
      "logs": [
        {
          "address": "0xbd2bfbac84de0f743390262822e0a6d4ff41a348",
          "topics": [
            "0x8be0079c531659141344cd1fd0a4f28419497f9722a3daafe3b4186f6b6457e0",
            "0x0000000000000000000000000000000000000000000000000000000000000000",
            "0x000000000000000000000000b7d030f7c6406446e703e73b3d1dd8611a2d87b6"
          ],
          "data": "0x",
          "blockHash": "0xb6133bd1ed3f9c03b48d35ee041624862e0ea355e1a7df7c1ee4bf312745dccc",
          "blockNumber": "0x309332",
          "blockTimestamp": "0x67aeffa4",
          "transactionHash": "0x11ba28d0271d0e428803e8a2e2bbbd6310ddcddaf1759f02083a3c94d2fe002a",
          "transactionIndex": "0x4",
          "logIndex": "0x4",
          "removed": false
        }
      ],
      "logsBloom": "0x00000000000000000000000000000000000000000000000000800000000000000000000000000000000000000000000000000000000000000000000000002000000000000000000000000000000000000001000000400000000000000000000000000000020000000000000000000800000000000000000200000000000000400000000000000000000000000000000000000000000000000000000000000020000000000000000000000000000000000000000000000000000000000000008000000000000000000000000000000000000000000000000000000000000020080000000000000000000000000000000000000000000000000000000000000000",
      "type": "0x2",
      "transactionHash": "0x11ba28d0271d0e428803e8a2e2bbbd6310ddcddaf1759f02083a3c94d2fe002a",
      "transactionIndex": "0x4",
      "blockHash": "0xb6133bd1ed3f9c03b48d35ee041624862e0ea355e1a7df7c1ee4bf312745dccc",
      "blockNumber": "0x309332",
      "gasUsed": "0x9e081",
      "effectiveGasPrice": "0xba43b7401",
      "from": "0xb7d030f7c6406446e703e73b3d1dd8611a2d87b6",
      "to": null,
      "contractAddress": "0xbd2bfbac84de0f743390262822e0a6d4ff41a348"
    },
    {
      "status": "0x1",
      "cumulativeGasUsed": "0xe3997",
      "logs": [
        {
          "address": "0xbd2bfbac84de0f743390262822e0a6d4ff41a348",
          "topics": [
            "0xddf252ad1be2c89b69c2b068fc378daa952ba7f163c4a11628f55a4df523b3ef",
            "0x0000000000000000000000000000000000000000000000000000000000000000",
            "0x000000000000000000000000b7d030f7c6406446e703e73b3d1dd8611a2d87b6"
          ],
          "data": "0x00000000000000000000000000000000000000000000021e19e0c9bab2400000",
          "blockHash": "0xb6133bd1ed3f9c03b48d35ee041624862e0ea355e1a7df7c1ee4bf312745dccc",
          "blockNumber": "0x309332",
          "blockTimestamp": "0x67aeffa4",
          "transactionHash": "0x36a4b5f6d62b0ecafb5ab2b3a920c9970761c731774ef8df3f91e24136370477",
          "transactionIndex": "0x5",
          "logIndex": "0x5",
          "removed": false
        }
      ],
      "logsBloom": "0x00000000000000000000000000000000000000000000000000000000000000000000000000000000000000000000000000000000000000000000000000002000000000000000000000000008000000000000000000400000000000000000000000000000020000000000000000000800000000000000000200000010000000000000000000000000000000000000000000000000000000000000000000000020000000000000000000000000000000000000000000000000000000000000008000000002000000000000000000000000000000000000000000000000000020080000000000000000000000000000000000000000000000000000000000000000",
      "type": "0x2",
      "transactionHash": "0x36a4b5f6d62b0ecafb5ab2b3a920c9970761c731774ef8df3f91e24136370477",
      "transactionIndex": "0x5",
      "blockHash": "0xb6133bd1ed3f9c03b48d35ee041624862e0ea355e1a7df7c1ee4bf312745dccc",
      "blockNumber": "0x309332",
      "gasUsed": "0x1140e",
      "effectiveGasPrice": "0xba43b7401",
      "from": "0xb7d030f7c6406446e703e73b3d1dd8611a2d87b6",
      "to": "0xbd2bfbac84de0f743390262822e0a6d4ff41a348",
      "contractAddress": null
    },
    {
      "status": "0x1",
      "cumulativeGasUsed": "0xf0ad9",
      "logs": [
        {
          "address": "0xbd2bfbac84de0f743390262822e0a6d4ff41a348",
          "topics": [
            "0xddf252ad1be2c89b69c2b068fc378daa952ba7f163c4a11628f55a4df523b3ef",
            "0x0000000000000000000000000000000000000000000000000000000000000000",
            "0x0000000000000000000000004f88f1014dd6ca0507780380111c098bee6b87e6"
          ],
          "data": "0x00000000000000000000000000000000000000000000021e19e0c9bab2400000",
          "blockHash": "0xb6133bd1ed3f9c03b48d35ee041624862e0ea355e1a7df7c1ee4bf312745dccc",
          "blockNumber": "0x309332",
          "blockTimestamp": "0x67aeffa4",
          "transactionHash": "0xe9168650e05dcd255dd116e9c64e5864c2f425e842e3c454fa0b055efa23965b",
          "transactionIndex": "0x6",
          "logIndex": "0x6",
          "removed": false
        }
      ],
      "logsBloom": "0x00000000000000000000000002000000000000000000000000000000000000000000000000000000000000000000000000000000000000000000000000002000000000000000000000000008000000000000000000000000000000000000000000000000020000000000000000000800000000000000000000000010000000000000000000000000000000000000000000000000000000000000000000000000000000000000000000000000000000000000000004000000000000000000008000000002000000000000000000000000000000000000000000000000000020080000000000000000000000000000000000000000008000000000000000000000",
      "type": "0x2",
      "transactionHash": "0xe9168650e05dcd255dd116e9c64e5864c2f425e842e3c454fa0b055efa23965b",
      "transactionIndex": "0x6",
      "blockHash": "0xb6133bd1ed3f9c03b48d35ee041624862e0ea355e1a7df7c1ee4bf312745dccc",
      "blockNumber": "0x309332",
      "gasUsed": "0xd142",
      "effectiveGasPrice": "0xba43b7401",
      "from": "0xb7d030f7c6406446e703e73b3d1dd8611a2d87b6",
      "to": "0xbd2bfbac84de0f743390262822e0a6d4ff41a348",
      "contractAddress": null
    },
    {
      "status": "0x1",
      "cumulativeGasUsed": "0xfdc1b",
      "logs": [
        {
          "address": "0xbd2bfbac84de0f743390262822e0a6d4ff41a348",
          "topics": [
            "0xddf252ad1be2c89b69c2b068fc378daa952ba7f163c4a11628f55a4df523b3ef",
            "0x0000000000000000000000000000000000000000000000000000000000000000",
            "0x000000000000000000000000c31f6b8133d618ad2ff1ac5faa3fc4b20557b901"
          ],
          "data": "0x00000000000000000000000000000000000000000000021e19e0c9bab2400000",
          "blockHash": "0xb6133bd1ed3f9c03b48d35ee041624862e0ea355e1a7df7c1ee4bf312745dccc",
          "blockNumber": "0x309332",
          "blockTimestamp": "0x67aeffa4",
          "transactionHash": "0x28db394f16854d2486fa601cefc0fa954ea945b5222f66645d519a2289949c5e",
          "transactionIndex": "0x7",
          "logIndex": "0x7",
          "removed": false
        }
      ],
      "logsBloom": "0x00000000000000000000000000000000000000000000000000000000000000000000000000000000000000000000000000000000000000000000000000002000000000000000000000000008000000000000000000000000000000000000000000000000020000000000000000000800000000000000000000000010400000000000000000000000000000000000000000000002000000000000000000000000000000000000000000000000000000000000000000000000080000000000008000000002000000000000000000000000000000000000000000000000000020080000000000000000000000000000000000000000000000000000000000000000",
      "type": "0x2",
      "transactionHash": "0x28db394f16854d2486fa601cefc0fa954ea945b5222f66645d519a2289949c5e",
      "transactionIndex": "0x7",
      "blockHash": "0xb6133bd1ed3f9c03b48d35ee041624862e0ea355e1a7df7c1ee4bf312745dccc",
      "blockNumber": "0x309332",
      "gasUsed": "0xd142",
      "effectiveGasPrice": "0xba43b7401",
      "from": "0xb7d030f7c6406446e703e73b3d1dd8611a2d87b6",
      "to": "0xbd2bfbac84de0f743390262822e0a6d4ff41a348",
      "contractAddress": null
    },
    {
      "status": "0x1",
      "cumulativeGasUsed": "0x10ad5d",
      "logs": [
        {
          "address": "0xbd2bfbac84de0f743390262822e0a6d4ff41a348",
          "topics": [
            "0xddf252ad1be2c89b69c2b068fc378daa952ba7f163c4a11628f55a4df523b3ef",
            "0x0000000000000000000000000000000000000000000000000000000000000000",
            "0x00000000000000000000000066e675533020c3cdee2f33e372320b7e2692211e"
          ],
          "data": "0x00000000000000000000000000000000000000000000021e19e0c9bab2400000",
          "blockHash": "0xb6133bd1ed3f9c03b48d35ee041624862e0ea355e1a7df7c1ee4bf312745dccc",
          "blockNumber": "0x309332",
          "blockTimestamp": "0x67aeffa4",
          "transactionHash": "0x502d4154c91a69f99277f0e4e81d3f39c7e53ffb3dfcac84a5ada860e42a6243",
          "transactionIndex": "0x8",
          "logIndex": "0x8",
          "removed": false
        }
      ],
      "logsBloom": "0x00000000000000000000000000000000000000000000000000000000001000000000000000000000000000000000000000000000000000000000000000002000000000000000000000000008000008000000000000000000000000000000000000000000020000000000000000000800000000000000000000000010000000000000000000000000000000000000000000000000002000000000000000000000000000000000000000000000000000000000000000000000000000000000008000000002000000000000000000000000000000000000000000000000000020080000000000000000000000000000000000000000000000000000000000000000",
      "type": "0x2",
      "transactionHash": "0x502d4154c91a69f99277f0e4e81d3f39c7e53ffb3dfcac84a5ada860e42a6243",
      "transactionIndex": "0x8",
      "blockHash": "0xb6133bd1ed3f9c03b48d35ee041624862e0ea355e1a7df7c1ee4bf312745dccc",
      "blockNumber": "0x309332",
      "gasUsed": "0xd142",
      "effectiveGasPrice": "0xba43b7401",
      "from": "0xb7d030f7c6406446e703e73b3d1dd8611a2d87b6",
      "to": "0xbd2bfbac84de0f743390262822e0a6d4ff41a348",
      "contractAddress": null
    },
    {
      "status": "0x1",
      "cumulativeGasUsed": "0x117e9f",
      "logs": [
        {
          "address": "0xbd2bfbac84de0f743390262822e0a6d4ff41a348",
          "topics": [
            "0xddf252ad1be2c89b69c2b068fc378daa952ba7f163c4a11628f55a4df523b3ef",
            "0x0000000000000000000000000000000000000000000000000000000000000000",
            "0x0000000000000000000000008c4eb6988a199dabcae0ce31052b3f3ac591787e"
          ],
          "data": "0x00000000000000000000000000000000000000000000021e19e0c9bab2400000",
          "blockHash": "0xb6133bd1ed3f9c03b48d35ee041624862e0ea355e1a7df7c1ee4bf312745dccc",
          "blockNumber": "0x309332",
          "blockTimestamp": "0x67aeffa4",
          "transactionHash": "0x36e57053365332646badded8b93b9d4a0fa055d5f462899e66aaca6eedae1832",
          "transactionIndex": "0x9",
          "logIndex": "0x9",
          "removed": false
        }
      ],
      "logsBloom": "0x00000000000000000000000000000000000000000000000000000000000000000000000000000000000000000000000000000000000040000000000000002000000000000000000000000008000000000000000000000000000000000000000000000000020000000000000000000800000000000000000000000010000000000000000100000000000000000000000000000000000000000000000000000000000000000000000000000000000001000000000000000000000000000000008000000002000000000000000000000000000000000000000000000000000020080000000000000000000000000000000000000000000000000000000000000000",
      "type": "0x2",
      "transactionHash": "0x36e57053365332646badded8b93b9d4a0fa055d5f462899e66aaca6eedae1832",
      "transactionIndex": "0x9",
      "blockHash": "0xb6133bd1ed3f9c03b48d35ee041624862e0ea355e1a7df7c1ee4bf312745dccc",
      "blockNumber": "0x309332",
      "gasUsed": "0xd142",
      "effectiveGasPrice": "0xba43b7401",
      "from": "0xb7d030f7c6406446e703e73b3d1dd8611a2d87b6",
      "to": "0xbd2bfbac84de0f743390262822e0a6d4ff41a348",
      "contractAddress": null
    }
  ],
  "libraries": [],
  "pending": [],
  "returns": {},
  "timestamp": 1739522051,
  "chain": 10143,
  "commit": "b3d52c9"
}