{
  "transactions": [
    {
      "hash": "0xcae1804f2d441ee691e7600f31f79570b87de5895e418625e0e290e48e60d6e5",
      "transactionType": "CREATE",
      "contractName": "MockERC20",
      "contractAddress": "0x647173d64468ea070ab467b5bc593543ae6b03ae",
      "function": null,
      "arguments": [
        "0xB7d030F7c6406446e703E73B3d1dd8611A2D87b6",
        "Tether USD",
        "USDT"
      ],
      "transaction": {
        "from": "0xb7d030f7c6406446e703e73b3d1dd8611a2d87b6",
        "gas": "0xcd6fe",
        "value": "0x0",
        "input": "0x608060405234801561000f575f5ffd5b50604051610c7d380380610c7d83398101604081905261002e9161017a565b828282600361003d8382610280565b50600461004a8282610280565b5050506001600160a01b03811661007a57604051631e4fbdf760e01b81525f600482015260240160405180910390fd5b6100838161008c565b5050505061033a565b600580546001600160a01b038381166001600160a01b0319831681179093556040519116919082907f8be0079c531659141344cd1fd0a4f28419497f9722a3daafe3b4186f6b6457e0905f90a35050565b634e487b7160e01b5f52604160045260245ffd5b5f82601f830112610100575f5ffd5b81516001600160401b03811115610119576101196100dd565b604051601f8201601f19908116603f011681016001600160401b0381118282101715610147576101476100dd565b60405281815283820160200185101561015e575f5ffd5b8160208501602083015e5f918101602001919091529392505050565b5f5f5f6060848603121561018c575f5ffd5b83516001600160a01b03811681146101a2575f5ffd5b60208501519093506001600160401b038111156101bd575f5ffd5b6101c9868287016100f1565b604086015190935090506001600160401b038111156101e6575f5ffd5b6101f2868287016100f1565b9150509250925092565b600181811c9082168061021057607f821691505b60208210810361022e57634e487b7160e01b5f52602260045260245ffd5b50919050565b601f82111561027b57805f5260205f20601f840160051c810160208510156102595750805b601f840160051c820191505b81811015610278575f8155600101610265565b50505b505050565b81516001600160401b03811115610299576102996100dd565b6102ad816102a784546101fc565b84610234565b6020601f8211600181146102df575f83156102c85750848201515b5f19600385901b1c1916600184901b178455610278565b5f84815260208120601f198516915b8281101561030e57878501518255602094850194600190920191016102ee565b508482101561032b57868401515f19600387901b60f8161c191681555b50505050600190811b01905550565b610936806103475f395ff3fe608060405234801561000f575f5ffd5b50600436106100f0575f3560e01c806370a082311161009357806395d89b411161006357806395d89b41146101ef578063a9059cbb146101f7578063dd62ed3e1461020a578063f2fde38b14610242575f5ffd5b806370a0823114610191578063715018a6146101b957806379cc6790146101c15780638da5cb5b146101d4575f5ffd5b806323b872dd116100ce57806323b872dd14610147578063313ce5671461015a57806340c10f191461016957806342966c681461017e575f5ffd5b806306fdde03146100f4578063095ea7b31461011257806318160ddd14610135575b5f5ffd5b6100fc610255565b604051610109919061078f565b60405180910390f35b6101256101203660046107df565b6102e5565b6040519015158152602001610109565b6002545b604051908152602001610109565b610125610155366004610807565b6102fe565b60405160128152602001610109565b61017c6101773660046107df565b610321565b005b61017c61018c366004610841565b610337565b61013961019f366004610858565b6001600160a01b03165f9081526020819052604090205490565b61017c610344565b61017c6101cf3660046107df565b610357565b6005546040516001600160a01b039091168152602001610109565b6100fc61036c565b6101256102053660046107df565b61037b565b610139610218366004610878565b6001600160a01b039182165f90815260016020908152604080832093909416825291909152205490565b61017c610250366004610858565b610388565b606060038054610264906108a9565b80601f0160208091040260200160405190810160405280929190818152602001828054610290906108a9565b80156102db5780601f106102b2576101008083540402835291602001916102db565b820191905f5260205f20905b8154815290600101906020018083116102be57829003601f168201915b5050505050905090565b5f336102f28185856103c7565b60019150505b92915050565b5f3361030b8582856103d9565b610316858585610454565b506001949350505050565b6103296104b1565b61033382826104de565b5050565b6103413382610512565b50565b61034c6104b1565b6103555f610546565b565b6103628233836103d9565b6103338282610512565b606060048054610264906108a9565b5f336102f2818585610454565b6103906104b1565b6001600160a01b0381166103be57604051631e4fbdf760e01b81525f60048201526024015b60405180910390fd5b61034181610546565b6103d48383836001610597565b505050565b6001600160a01b038381165f908152600160209081526040808320938616835292905220545f19811461044e578181101561044057604051637dc7a0d960e11b81526001600160a01b038416600482015260248101829052604481018390526064016103b5565b61044e84848484035f610597565b50505050565b6001600160a01b03831661047d57604051634b637e8f60e11b81525f60048201526024016103b5565b6001600160a01b0382166104a65760405163ec442f0560e01b81525f60048201526024016103b5565b6103d4838383610669565b6005546001600160a01b031633146103555760405163118cdaa760e01b81523360048201526024016103b5565b6001600160a01b0382166105075760405163ec442f0560e01b81525f60048201526024016103b5565b6103335f8383610669565b6001600160a01b03821661053b57604051634b637e8f60e11b81525f60048201526024016103b5565b610333825f83610669565b600580546001600160a01b038381166001600160a01b0319831681179093556040519116919082907f8be0079c531659141344cd1fd0a4f28419497f9722a3daafe3b4186f6b6457e0905f90a35050565b6001600160a01b0384166105c05760405163e602df0560e01b81525f60048201526024016103b5565b6001600160a01b0383166105e957604051634a1406b160e11b81525f60048201526024016103b5565b6001600160a01b038085165f908152600160209081526040808320938716835292905220829055801561044e57826001600160a01b0316846001600160a01b03167f8c5be1e5ebec7d5bd14f71427d1e84f3dd0314c0f7b2291e5b200ac8c7c3b9258460405161065b91815260200190565b60405180910390a350505050565b6001600160a01b038316610693578060025f82825461068891906108e1565b909155506107039050565b6001600160a01b0383165f90815260208190526040902054818110156106e55760405163391434e360e21b81526001600160a01b038516600482015260248101829052604481018390526064016103b5565b6001600160a01b0384165f9081526020819052604090209082900390555b6001600160a01b03821661071f5760028054829003905561073d565b6001600160a01b0382165f9081526020819052604090208054820190555b816001600160a01b0316836001600160a01b03167fddf252ad1be2c89b69c2b068fc378daa952ba7f163c4a11628f55a4df523b3ef8360405161078291815260200190565b60405180910390a3505050565b602081525f82518060208401528060208501604085015e5f604082850101526040601f19601f83011684010191505092915050565b80356001600160a01b03811681146107da575f5ffd5b919050565b5f5f604083850312156107f0575f5ffd5b6107f9836107c4565b946020939093013593505050565b5f5f5f60608486031215610819575f5ffd5b610822846107c4565b9250610830602085016107c4565b929592945050506040919091013590565b5f60208284031215610851575f5ffd5b5035919050565b5f60208284031215610868575f5ffd5b610871826107c4565b9392505050565b5f5f60408385031215610889575f5ffd5b610892836107c4565b91506108a0602084016107c4565b90509250929050565b600181811c908216806108bd57607f821691505b6020821081036108db57634e487b7160e01b5f52602260045260245ffd5b50919050565b808201808211156102f857634e487b7160e01b5f52601160045260245ffdfea26469706673582212208f97296811ea14804e2948934adf3226228e332197d873abb05876c52c6b4fd664736f6c634300081c0033000000000000000000000000b7d030f7c6406446e703e73b3d1dd8611a2d87b6000000000000000000000000000000000000000000000000000000000000006000000000000000000000000000000000000000000000000000000000000000a0000000000000000000000000000000000000000000000000000000000000000a546574686572205553440000000000000000000000000000000000000000000000000000000000000000000000000000000000000000000000000000000000045553445400000000000000000000000000000000000000000000000000000000",
        "nonce": "0x4f",
        "chainId": "0x279f"
      },
      "additionalContracts": [],
      "isFixedGasLimit": false
    },
    {
      "hash": "0x8499ec89475b4e2b2ef9385557c34231b1b80dd8563bda6f4fd4186055975996",
      "transactionType": "CALL",
      "contractName": "MockERC20",
      "contractAddress": "0x647173d64468ea070ab467b5bc593543ae6b03ae",
      "function": "mint(address,uint256)",
      "arguments": [
        "0xB7d030F7c6406446e703E73B3d1dd8611A2D87b6",
        "10000000000000000000000"
      ],
      "transaction": {
        "from": "0xb7d030f7c6406446e703e73b3d1dd8611a2d87b6",
        "to": "0x647173d64468ea070ab467b5bc593543ae6b03ae",
        "gas": "0x17d4b",
        "value": "0x0",
        "input": "0x40c10f19000000000000000000000000b7d030f7c6406446e703e73b3d1dd8611a2d87b600000000000000000000000000000000000000000000021e19e0c9bab2400000",
        "nonce": "0x50",
        "chainId": "0x279f"
      },
      "additionalContracts": [],
      "isFixedGasLimit": false
    },
    {
      "hash": "0xb40a8c927de7c482cd65ecc7d9c2c9bcd80a8ae11a7139cdd397b352701d5e9c",
      "transactionType": "CALL",
      "contractName": "MockERC20",
      "contractAddress": "0x647173d64468ea070ab467b5bc593543ae6b03ae",
      "function": "mint(address,uint256)",
      "arguments": [
        "0x4F88F1014Dd6Ca0507780380111c098BeE6b87e6",
        "10000000000000000000000"
      ],
      "transaction": {
        "from": "0xb7d030f7c6406446e703e73b3d1dd8611a2d87b6",
        "to": "0x647173d64468ea070ab467b5bc593543ae6b03ae",
        "gas": "0x13209",
        "value": "0x0",
        "input": "0x40c10f190000000000000000000000004f88f1014dd6ca0507780380111c098bee6b87e600000000000000000000000000000000000000000000021e19e0c9bab2400000",
        "nonce": "0x51",
        "chainId": "0x279f"
      },
      "additionalContracts": [],
      "isFixedGasLimit": false
    },
    {
      "hash": "0xa2d0bba15091a8bb70a5df299ed3f77e14e537641f20e9a23077dd42eb5b0f93",
      "transactionType": "CALL",
      "contractName": "MockERC20",
      "contractAddress": "0x647173d64468ea070ab467b5bc593543ae6b03ae",
      "function": "mint(address,uint256)",
      "arguments": [
        "0xC31f6b8133d618aD2ff1AC5fAA3Fc4B20557B901",
        "10000000000000000000000"
      ],
      "transaction": {
        "from": "0xb7d030f7c6406446e703e73b3d1dd8611a2d87b6",
        "to": "0x647173d64468ea070ab467b5bc593543ae6b03ae",
        "gas": "0x13209",
        "value": "0x0",
        "input": "0x40c10f19000000000000000000000000c31f6b8133d618ad2ff1ac5faa3fc4b20557b90100000000000000000000000000000000000000000000021e19e0c9bab2400000",
        "nonce": "0x52",
        "chainId": "0x279f"
      },
      "additionalContracts": [],
      "isFixedGasLimit": false
    },
    {
      "hash": "0xd4c65a845c35f20e3e2114c0ffd56b55869a92826a4555afc506b7cdc58644d2",
      "transactionType": "CALL",
      "contractName": "MockERC20",
      "contractAddress": "0x647173d64468ea070ab467b5bc593543ae6b03ae",
      "function": "mint(address,uint256)",
      "arguments": [
        "0x66E675533020c3CDeE2F33E372320B7e2692211e",
        "10000000000000000000000"
      ],
      "transaction": {
        "from": "0xb7d030f7c6406446e703e73b3d1dd8611a2d87b6",
        "to": "0x647173d64468ea070ab467b5bc593543ae6b03ae",
        "gas": "0x13209",
        "value": "0x0",
        "input": "0x40c10f1900000000000000000000000066e675533020c3cdee2f33e372320b7e2692211e00000000000000000000000000000000000000000000021e19e0c9bab2400000",
        "nonce": "0x53",
        "chainId": "0x279f"
      },
      "additionalContracts": [],
      "isFixedGasLimit": false
    },
    {
      "hash": "0x6ef5d8b13013ebbf7177011ad738b98141b7dfdbfe04382e35ccd74745b72420",
      "transactionType": "CALL",
      "contractName": "MockERC20",
      "contractAddress": "0x647173d64468ea070ab467b5bc593543ae6b03ae",
      "function": "mint(address,uint256)",
      "arguments": [
        "0x8c4Eb6988A199DAbcae0Ce31052b3f3aC591787e",
        "10000000000000000000000"
      ],
      "transaction": {
        "from": "0xb7d030f7c6406446e703e73b3d1dd8611a2d87b6",
        "to": "0x647173d64468ea070ab467b5bc593543ae6b03ae",
        "gas": "0x13209",
        "value": "0x0",
        "input": "0x40c10f190000000000000000000000008c4eb6988a199dabcae0ce31052b3f3ac591787e00000000000000000000000000000000000000000000021e19e0c9bab2400000",
        "nonce": "0x54",
        "chainId": "0x279f"
      },
      "additionalContracts": [],
      "isFixedGasLimit": false
    },
    {
      "hash": "0xa76e07b924ec1aa36cff5c5d3d9d5eef23425cfa9bf87346e808e0d1579df0e1",
      "transactionType": "CREATE",
      "contractName": "MockERC20",
      "contractAddress": "0xe062b5d1ed7e6ed2da5b3e0e15505ce08bc158e4",
      "function": null,
      "arguments": [
        "0xB7d030F7c6406446e703E73B3d1dd8611A2D87b6",
        "USD Coin",
        "USDC"
      ],
      "transaction": {
        "from": "0xb7d030f7c6406446e703e73b3d1dd8611a2d87b6",
        "gas": "0xcd6df",
        "value": "0x0",
        "input": "0x608060405234801561000f575f5ffd5b50604051610c7d380380610c7d83398101604081905261002e9161017a565b828282600361003d8382610280565b50600461004a8282610280565b5050506001600160a01b03811661007a57604051631e4fbdf760e01b81525f600482015260240160405180910390fd5b6100838161008c565b5050505061033a565b600580546001600160a01b038381166001600160a01b0319831681179093556040519116919082907f8be0079c531659141344cd1fd0a4f28419497f9722a3daafe3b4186f6b6457e0905f90a35050565b634e487b7160e01b5f52604160045260245ffd5b5f82601f830112610100575f5ffd5b81516001600160401b03811115610119576101196100dd565b604051601f8201601f19908116603f011681016001600160401b0381118282101715610147576101476100dd565b60405281815283820160200185101561015e575f5ffd5b8160208501602083015e5f918101602001919091529392505050565b5f5f5f6060848603121561018c575f5ffd5b83516001600160a01b03811681146101a2575f5ffd5b60208501519093506001600160401b038111156101bd575f5ffd5b6101c9868287016100f1565b604086015190935090506001600160401b038111156101e6575f5ffd5b6101f2868287016100f1565b9150509250925092565b600181811c9082168061021057607f821691505b60208210810361022e57634e487b7160e01b5f52602260045260245ffd5b50919050565b601f82111561027b57805f5260205f20601f840160051c810160208510156102595750805b601f840160051c820191505b81811015610278575f8155600101610265565b50505b505050565b81516001600160401b03811115610299576102996100dd565b6102ad816102a784546101fc565b84610234565b6020601f8211600181146102df575f83156102c85750848201515b5f19600385901b1c1916600184901b178455610278565b5f84815260208120601f198516915b8281101561030e57878501518255602094850194600190920191016102ee565b508482101561032b57868401515f19600387901b60f8161c191681555b50505050600190811b01905550565b610936806103475f395ff3fe608060405234801561000f575f5ffd5b50600436106100f0575f3560e01c806370a082311161009357806395d89b411161006357806395d89b41146101ef578063a9059cbb146101f7578063dd62ed3e1461020a578063f2fde38b14610242575f5ffd5b806370a0823114610191578063715018a6146101b957806379cc6790146101c15780638da5cb5b146101d4575f5ffd5b806323b872dd116100ce57806323b872dd14610147578063313ce5671461015a57806340c10f191461016957806342966c681461017e575f5ffd5b806306fdde03146100f4578063095ea7b31461011257806318160ddd14610135575b5f5ffd5b6100fc610255565b604051610109919061078f565b60405180910390f35b6101256101203660046107df565b6102e5565b6040519015158152602001610109565b6002545b604051908152602001610109565b610125610155366004610807565b6102fe565b60405160128152602001610109565b61017c6101773660046107df565b610321565b005b61017c61018c366004610841565b610337565b61013961019f366004610858565b6001600160a01b03165f9081526020819052604090205490565b61017c610344565b61017c6101cf3660046107df565b610357565b6005546040516001600160a01b039091168152602001610109565b6100fc61036c565b6101256102053660046107df565b61037b565b610139610218366004610878565b6001600160a01b039182165f90815260016020908152604080832093909416825291909152205490565b61017c610250366004610858565b610388565b606060038054610264906108a9565b80601f0160208091040260200160405190810160405280929190818152602001828054610290906108a9565b80156102db5780601f106102b2576101008083540402835291602001916102db565b820191905f5260205f20905b8154815290600101906020018083116102be57829003601f168201915b5050505050905090565b5f336102f28185856103c7565b60019150505b92915050565b5f3361030b8582856103d9565b610316858585610454565b506001949350505050565b6103296104b1565b61033382826104de565b5050565b6103413382610512565b50565b61034c6104b1565b6103555f610546565b565b6103628233836103d9565b6103338282610512565b606060048054610264906108a9565b5f336102f2818585610454565b6103906104b1565b6001600160a01b0381166103be57604051631e4fbdf760e01b81525f60048201526024015b60405180910390fd5b61034181610546565b6103d48383836001610597565b505050565b6001600160a01b038381165f908152600160209081526040808320938616835292905220545f19811461044e578181101561044057604051637dc7a0d960e11b81526001600160a01b038416600482015260248101829052604481018390526064016103b5565b61044e84848484035f610597565b50505050565b6001600160a01b03831661047d57604051634b637e8f60e11b81525f60048201526024016103b5565b6001600160a01b0382166104a65760405163ec442f0560e01b81525f60048201526024016103b5565b6103d4838383610669565b6005546001600160a01b031633146103555760405163118cdaa760e01b81523360048201526024016103b5565b6001600160a01b0382166105075760405163ec442f0560e01b81525f60048201526024016103b5565b6103335f8383610669565b6001600160a01b03821661053b57604051634b637e8f60e11b81525f60048201526024016103b5565b610333825f83610669565b600580546001600160a01b038381166001600160a01b0319831681179093556040519116919082907f8be0079c531659141344cd1fd0a4f28419497f9722a3daafe3b4186f6b6457e0905f90a35050565b6001600160a01b0384166105c05760405163e602df0560e01b81525f60048201526024016103b5565b6001600160a01b0383166105e957604051634a1406b160e11b81525f60048201526024016103b5565b6001600160a01b038085165f908152600160209081526040808320938716835292905220829055801561044e57826001600160a01b0316846001600160a01b03167f8c5be1e5ebec7d5bd14f71427d1e84f3dd0314c0f7b2291e5b200ac8c7c3b9258460405161065b91815260200190565b60405180910390a350505050565b6001600160a01b038316610693578060025f82825461068891906108e1565b909155506107039050565b6001600160a01b0383165f90815260208190526040902054818110156106e55760405163391434e360e21b81526001600160a01b038516600482015260248101829052604481018390526064016103b5565b6001600160a01b0384165f9081526020819052604090209082900390555b6001600160a01b03821661071f5760028054829003905561073d565b6001600160a01b0382165f9081526020819052604090208054820190555b816001600160a01b0316836001600160a01b03167fddf252ad1be2c89b69c2b068fc378daa952ba7f163c4a11628f55a4df523b3ef8360405161078291815260200190565b60405180910390a3505050565b602081525f82518060208401528060208501604085015e5f604082850101526040601f19601f83011684010191505092915050565b80356001600160a01b03811681146107da575f5ffd5b919050565b5f5f604083850312156107f0575f5ffd5b6107f9836107c4565b946020939093013593505050565b5f5f5f60608486031215610819575f5ffd5b610822846107c4565b9250610830602085016107c4565b929592945050506040919091013590565b5f60208284031215610851575f5ffd5b5035919050565b5f60208284031215610868575f5ffd5b610871826107c4565b9392505050565b5f5f60408385031215610889575f5ffd5b610892836107c4565b91506108a0602084016107c4565b90509250929050565b600181811c908216806108bd57607f821691505b6020821081036108db57634e487b7160e01b5f52602260045260245ffd5b50919050565b808201808211156102f857634e487b7160e01b5f52601160045260245ffdfea26469706673582212208f97296811ea14804e2948934adf3226228e332197d873abb05876c52c6b4fd664736f6c634300081c0033000000000000000000000000b7d030f7c6406446e703e73b3d1dd8611a2d87b6000000000000000000000000000000000000000000000000000000000000006000000000000000000000000000000000000000000000000000000000000000a0000000000000000000000000000000000000000000000000000000000000000855534420436f696e00000000000000000000000000000000000000000000000000000000000000000000000000000000000000000000000000000000000000045553444300000000000000000000000000000000000000000000000000000000",
        "nonce": "0x55",
        "chainId": "0x279f"
      },
      "additionalContracts": [],
      "isFixedGasLimit": false
    },
    {
      "hash": "0x15036f05611c43160459d39ca5053660dfc1bef343a6798bfb4248d0209a46f8",
      "transactionType": "CALL",
      "contractName": "MockERC20",
      "contractAddress": "0xe062b5d1ed7e6ed2da5b3e0e15505ce08bc158e4",
      "function": "mint(address,uint256)",
      "arguments": [
        "0xB7d030F7c6406446e703E73B3d1dd8611A2D87b6",
        "10000000000000000000000"
      ],
      "transaction": {
        "from": "0xb7d030f7c6406446e703e73b3d1dd8611a2d87b6",
        "to": "0xe062b5d1ed7e6ed2da5b3e0e15505ce08bc158e4",
        "gas": "0x17d4b",
        "value": "0x0",
        "input": "0x40c10f19000000000000000000000000b7d030f7c6406446e703e73b3d1dd8611a2d87b600000000000000000000000000000000000000000000021e19e0c9bab2400000",
        "nonce": "0x56",
        "chainId": "0x279f"
      },
      "additionalContracts": [],
      "isFixedGasLimit": false
    },
    {
      "hash": "0xdcc225cd67a4354b12cb333895f83f56b3100225b82e780ea8452d668125a9d7",
      "transactionType": "CALL",
      "contractName": "MockERC20",
      "contractAddress": "0xe062b5d1ed7e6ed2da5b3e0e15505ce08bc158e4",
      "function": "mint(address,uint256)",
      "arguments": [
        "0x4F88F1014Dd6Ca0507780380111c098BeE6b87e6",
        "10000000000000000000000"
      ],
      "transaction": {
        "from": "0xb7d030f7c6406446e703e73b3d1dd8611a2d87b6",
        "to": "0xe062b5d1ed7e6ed2da5b3e0e15505ce08bc158e4",
        "gas": "0x13209",
        "value": "0x0",
        "input": "0x40c10f190000000000000000000000004f88f1014dd6ca0507780380111c098bee6b87e600000000000000000000000000000000000000000000021e19e0c9bab2400000",
        "nonce": "0x57",
        "chainId": "0x279f"
      },
      "additionalContracts": [],
      "isFixedGasLimit": false
    },
    {
      "hash": "0x33f0516aa0f75f6f5ec05717d2599bb56829a2485af2d1ecedc4638e7b3e9744",
      "transactionType": "CALL",
      "contractName": "MockERC20",
      "contractAddress": "0xe062b5d1ed7e6ed2da5b3e0e15505ce08bc158e4",
      "function": "mint(address,uint256)",
      "arguments": [
        "0xC31f6b8133d618aD2ff1AC5fAA3Fc4B20557B901",
        "10000000000000000000000"
      ],
      "transaction": {
        "from": "0xb7d030f7c6406446e703e73b3d1dd8611a2d87b6",
        "to": "0xe062b5d1ed7e6ed2da5b3e0e15505ce08bc158e4",
        "gas": "0x13209",
        "value": "0x0",
        "input": "0x40c10f19000000000000000000000000c31f6b8133d618ad2ff1ac5faa3fc4b20557b90100000000000000000000000000000000000000000000021e19e0c9bab2400000",
        "nonce": "0x58",
        "chainId": "0x279f"
      },
      "additionalContracts": [],
      "isFixedGasLimit": false
    },
    {
      "hash": "0xe058dd8f810ed118cb35878ddb393d72da8eb61f6c218b74957b37b7b3ddc029",
      "transactionType": "CALL",
      "contractName": "MockERC20",
      "contractAddress": "0xe062b5d1ed7e6ed2da5b3e0e15505ce08bc158e4",
      "function": "mint(address,uint256)",
      "arguments": [
        "0x66E675533020c3CDeE2F33E372320B7e2692211e",
        "10000000000000000000000"
      ],
      "transaction": {
        "from": "0xb7d030f7c6406446e703e73b3d1dd8611a2d87b6",
        "to": "0xe062b5d1ed7e6ed2da5b3e0e15505ce08bc158e4",
        "gas": "0x13209",
        "value": "0x0",
        "input": "0x40c10f1900000000000000000000000066e675533020c3cdee2f33e372320b7e2692211e00000000000000000000000000000000000000000000021e19e0c9bab2400000",
        "nonce": "0x59",
        "chainId": "0x279f"
      },
      "additionalContracts": [],
      "isFixedGasLimit": false
    },
    {
      "hash": "0xc09f2032d84ff8ae2a22a2af8842f52ec9435a5dab669743c19c695c1ad535ca",
      "transactionType": "CALL",
      "contractName": "MockERC20",
      "contractAddress": "0xe062b5d1ed7e6ed2da5b3e0e15505ce08bc158e4",
      "function": "mint(address,uint256)",
      "arguments": [
        "0x8c4Eb6988A199DAbcae0Ce31052b3f3aC591787e",
        "10000000000000000000000"
      ],
      "transaction": {
        "from": "0xb7d030f7c6406446e703e73b3d1dd8611a2d87b6",
        "to": "0xe062b5d1ed7e6ed2da5b3e0e15505ce08bc158e4",
        "gas": "0x13209",
        "value": "0x0",
        "input": "0x40c10f190000000000000000000000008c4eb6988a199dabcae0ce31052b3f3ac591787e00000000000000000000000000000000000000000000021e19e0c9bab2400000",
        "nonce": "0x5a",
        "chainId": "0x279f"
      },
      "additionalContracts": [],
      "isFixedGasLimit": false
    },
    {
      "hash": "0x491d6ffe0b9eb28727a6cc36b0dd9f235b86f3a4bcca6853ee7f221fd7f083a8",
      "transactionType": "CREATE",
      "contractName": "MockERC20",
      "contractAddress": "0xacd113f08220c09114265bdb9369cc8960d3d407",
      "function": null,
      "arguments": [
        "0xB7d030F7c6406446e703E73B3d1dd8611A2D87b6",
        "Wrapped BTC",
        "WBTC"
      ],
      "transaction": {
        "from": "0xb7d030f7c6406446e703e73b3d1dd8611a2d87b6",
        "gas": "0xcd70e",
        "value": "0x0",
        "input": "0x608060405234801561000f575f5ffd5b50604051610c7d380380610c7d83398101604081905261002e9161017a565b828282600361003d8382610280565b50600461004a8282610280565b5050506001600160a01b03811661007a57604051631e4fbdf760e01b81525f600482015260240160405180910390fd5b6100838161008c565b5050505061033a565b600580546001600160a01b038381166001600160a01b0319831681179093556040519116919082907f8be0079c531659141344cd1fd0a4f28419497f9722a3daafe3b4186f6b6457e0905f90a35050565b634e487b7160e01b5f52604160045260245ffd5b5f82601f830112610100575f5ffd5b81516001600160401b03811115610119576101196100dd565b604051601f8201601f19908116603f011681016001600160401b0381118282101715610147576101476100dd565b60405281815283820160200185101561015e575f5ffd5b8160208501602083015e5f918101602001919091529392505050565b5f5f5f6060848603121561018c575f5ffd5b83516001600160a01b03811681146101a2575f5ffd5b60208501519093506001600160401b038111156101bd575f5ffd5b6101c9868287016100f1565b604086015190935090506001600160401b038111156101e6575f5ffd5b6101f2868287016100f1565b9150509250925092565b600181811c9082168061021057607f821691505b60208210810361022e57634e487b7160e01b5f52602260045260245ffd5b50919050565b601f82111561027b57805f5260205f20601f840160051c810160208510156102595750805b601f840160051c820191505b81811015610278575f8155600101610265565b50505b505050565b81516001600160401b03811115610299576102996100dd565b6102ad816102a784546101fc565b84610234565b6020601f8211600181146102df575f83156102c85750848201515b5f19600385901b1c1916600184901b178455610278565b5f84815260208120601f198516915b8281101561030e57878501518255602094850194600190920191016102ee565b508482101561032b57868401515f19600387901b60f8161c191681555b50505050600190811b01905550565b610936806103475f395ff3fe608060405234801561000f575f5ffd5b50600436106100f0575f3560e01c806370a082311161009357806395d89b411161006357806395d89b41146101ef578063a9059cbb146101f7578063dd62ed3e1461020a578063f2fde38b14610242575f5ffd5b806370a0823114610191578063715018a6146101b957806379cc6790146101c15780638da5cb5b146101d4575f5ffd5b806323b872dd116100ce57806323b872dd14610147578063313ce5671461015a57806340c10f191461016957806342966c681461017e575f5ffd5b806306fdde03146100f4578063095ea7b31461011257806318160ddd14610135575b5f5ffd5b6100fc610255565b604051610109919061078f565b60405180910390f35b6101256101203660046107df565b6102e5565b6040519015158152602001610109565b6002545b604051908152602001610109565b610125610155366004610807565b6102fe565b60405160128152602001610109565b61017c6101773660046107df565b610321565b005b61017c61018c366004610841565b610337565b61013961019f366004610858565b6001600160a01b03165f9081526020819052604090205490565b61017c610344565b61017c6101cf3660046107df565b610357565b6005546040516001600160a01b039091168152602001610109565b6100fc61036c565b6101256102053660046107df565b61037b565b610139610218366004610878565b6001600160a01b039182165f90815260016020908152604080832093909416825291909152205490565b61017c610250366004610858565b610388565b606060038054610264906108a9565b80601f0160208091040260200160405190810160405280929190818152602001828054610290906108a9565b80156102db5780601f106102b2576101008083540402835291602001916102db565b820191905f5260205f20905b8154815290600101906020018083116102be57829003601f168201915b5050505050905090565b5f336102f28185856103c7565b60019150505b92915050565b5f3361030b8582856103d9565b610316858585610454565b506001949350505050565b6103296104b1565b61033382826104de565b5050565b6103413382610512565b50565b61034c6104b1565b6103555f610546565b565b6103628233836103d9565b6103338282610512565b606060048054610264906108a9565b5f336102f2818585610454565b6103906104b1565b6001600160a01b0381166103be57604051631e4fbdf760e01b81525f60048201526024015b60405180910390fd5b61034181610546565b6103d48383836001610597565b505050565b6001600160a01b038381165f908152600160209081526040808320938616835292905220545f19811461044e578181101561044057604051637dc7a0d960e11b81526001600160a01b038416600482015260248101829052604481018390526064016103b5565b61044e84848484035f610597565b50505050565b6001600160a01b03831661047d57604051634b637e8f60e11b81525f60048201526024016103b5565b6001600160a01b0382166104a65760405163ec442f0560e01b81525f60048201526024016103b5565b6103d4838383610669565b6005546001600160a01b031633146103555760405163118cdaa760e01b81523360048201526024016103b5565b6001600160a01b0382166105075760405163ec442f0560e01b81525f60048201526024016103b5565b6103335f8383610669565b6001600160a01b03821661053b57604051634b637e8f60e11b81525f60048201526024016103b5565b610333825f83610669565b600580546001600160a01b038381166001600160a01b0319831681179093556040519116919082907f8be0079c531659141344cd1fd0a4f28419497f9722a3daafe3b4186f6b6457e0905f90a35050565b6001600160a01b0384166105c05760405163e602df0560e01b81525f60048201526024016103b5565b6001600160a01b0383166105e957604051634a1406b160e11b81525f60048201526024016103b5565b6001600160a01b038085165f908152600160209081526040808320938716835292905220829055801561044e57826001600160a01b0316846001600160a01b03167f8c5be1e5ebec7d5bd14f71427d1e84f3dd0314c0f7b2291e5b200ac8c7c3b9258460405161065b91815260200190565b60405180910390a350505050565b6001600160a01b038316610693578060025f82825461068891906108e1565b909155506107039050565b6001600160a01b0383165f90815260208190526040902054818110156106e55760405163391434e360e21b81526001600160a01b038516600482015260248101829052604481018390526064016103b5565b6001600160a01b0384165f9081526020819052604090209082900390555b6001600160a01b03821661071f5760028054829003905561073d565b6001600160a01b0382165f9081526020819052604090208054820190555b816001600160a01b0316836001600160a01b03167fddf252ad1be2c89b69c2b068fc378daa952ba7f163c4a11628f55a4df523b3ef8360405161078291815260200190565b60405180910390a3505050565b602081525f82518060208401528060208501604085015e5f604082850101526040601f19601f83011684010191505092915050565b80356001600160a01b03811681146107da575f5ffd5b919050565b5f5f604083850312156107f0575f5ffd5b6107f9836107c4565b946020939093013593505050565b5f5f5f60608486031215610819575f5ffd5b610822846107c4565b9250610830602085016107c4565b929592945050506040919091013590565b5f60208284031215610851575f5ffd5b5035919050565b5f60208284031215610868575f5ffd5b610871826107c4565b9392505050565b5f5f60408385031215610889575f5ffd5b610892836107c4565b91506108a0602084016107c4565b90509250929050565b600181811c908216806108bd57607f821691505b6020821081036108db57634e487b7160e01b5f52602260045260245ffd5b50919050565b808201808211156102f857634e487b7160e01b5f52601160045260245ffdfea26469706673582212208f97296811ea14804e2948934adf3226228e332197d873abb05876c52c6b4fd664736f6c634300081c0033000000000000000000000000b7d030f7c6406446e703e73b3d1dd8611a2d87b6000000000000000000000000000000000000000000000000000000000000006000000000000000000000000000000000000000000000000000000000000000a0000000000000000000000000000000000000000000000000000000000000000b577261707065642042544300000000000000000000000000000000000000000000000000000000000000000000000000000000000000000000000000000000045742544300000000000000000000000000000000000000000000000000000000",
        "nonce": "0x5b",
        "chainId": "0x279f"
      },
      "additionalContracts": [],
      "isFixedGasLimit": false
    },
    {
      "hash": "0x4bd249144465951e0eeffe7ada6fd65cb13defb010537e2e4564e354ca0a50bb",
      "transactionType": "CALL",
      "contractName": "MockERC20",
      "contractAddress": "0xacd113f08220c09114265bdb9369cc8960d3d407",
      "function": "mint(address,uint256)",
      "arguments": [
        "0xB7d030F7c6406446e703E73B3d1dd8611A2D87b6",
        "10000000000000000000000"
      ],
      "transaction": {
        "from": "0xb7d030f7c6406446e703e73b3d1dd8611a2d87b6",
        "to": "0xacd113f08220c09114265bdb9369cc8960d3d407",
        "gas": "0x17d4b",
        "value": "0x0",
        "input": "0x40c10f19000000000000000000000000b7d030f7c6406446e703e73b3d1dd8611a2d87b600000000000000000000000000000000000000000000021e19e0c9bab2400000",
        "nonce": "0x5c",
        "chainId": "0x279f"
      },
      "additionalContracts": [],
      "isFixedGasLimit": false
    },
    {
      "hash": "0x15b6fe2a1fe3c159514ef6e8d025330e262354ef3b924c33a90a98d9928aef9f",
      "transactionType": "CALL",
      "contractName": "MockERC20",
      "contractAddress": "0xacd113f08220c09114265bdb9369cc8960d3d407",
      "function": "mint(address,uint256)",
      "arguments": [
        "0x4F88F1014Dd6Ca0507780380111c098BeE6b87e6",
        "10000000000000000000000"
      ],
      "transaction": {
        "from": "0xb7d030f7c6406446e703e73b3d1dd8611a2d87b6",
        "to": "0xacd113f08220c09114265bdb9369cc8960d3d407",
        "gas": "0x13209",
        "value": "0x0",
        "input": "0x40c10f190000000000000000000000004f88f1014dd6ca0507780380111c098bee6b87e600000000000000000000000000000000000000000000021e19e0c9bab2400000",
        "nonce": "0x5d",
        "chainId": "0x279f"
      },
      "additionalContracts": [],
      "isFixedGasLimit": false
    },
    {
      "hash": "0xc9056ba1decaa1399b2f98987c12ed39201943f2eb32a3f5681c72deeecc0a48",
      "transactionType": "CALL",
      "contractName": "MockERC20",
      "contractAddress": "0xacd113f08220c09114265bdb9369cc8960d3d407",
      "function": "mint(address,uint256)",
      "arguments": [
        "0xC31f6b8133d618aD2ff1AC5fAA3Fc4B20557B901",
        "10000000000000000000000"
      ],
      "transaction": {
        "from": "0xb7d030f7c6406446e703e73b3d1dd8611a2d87b6",
        "to": "0xacd113f08220c09114265bdb9369cc8960d3d407",
        "gas": "0x13209",
        "value": "0x0",
        "input": "0x40c10f19000000000000000000000000c31f6b8133d618ad2ff1ac5faa3fc4b20557b90100000000000000000000000000000000000000000000021e19e0c9bab2400000",
        "nonce": "0x5e",
        "chainId": "0x279f"
      },
      "additionalContracts": [],
      "isFixedGasLimit": false
    },
    {
      "hash": "0xcf9f2ddcdde4771f46237c29a98fa3eb8921540f5a9c24d67a1aed52df96370e",
      "transactionType": "CALL",
      "contractName": "MockERC20",
      "contractAddress": "0xacd113f08220c09114265bdb9369cc8960d3d407",
      "function": "mint(address,uint256)",
      "arguments": [
        "0x66E675533020c3CDeE2F33E372320B7e2692211e",
        "10000000000000000000000"
      ],
      "transaction": {
        "from": "0xb7d030f7c6406446e703e73b3d1dd8611a2d87b6",
        "to": "0xacd113f08220c09114265bdb9369cc8960d3d407",
        "gas": "0x13209",
        "value": "0x0",
        "input": "0x40c10f1900000000000000000000000066e675533020c3cdee2f33e372320b7e2692211e00000000000000000000000000000000000000000000021e19e0c9bab2400000",
        "nonce": "0x5f",
        "chainId": "0x279f"
      },
      "additionalContracts": [],
      "isFixedGasLimit": false
    },
    {
      "hash": "0x777cafc05e0eb695bc1498222920fa18b771296f5d7a87195f6885f0ae6ab4f2",
      "transactionType": "CALL",
      "contractName": "MockERC20",
      "contractAddress": "0xacd113f08220c09114265bdb9369cc8960d3d407",
      "function": "mint(address,uint256)",
      "arguments": [
        "0x8c4Eb6988A199DAbcae0Ce31052b3f3aC591787e",
        "10000000000000000000000"
      ],
      "transaction": {
        "from": "0xb7d030f7c6406446e703e73b3d1dd8611a2d87b6",
        "to": "0xacd113f08220c09114265bdb9369cc8960d3d407",
        "gas": "0x13209",
        "value": "0x0",
        "input": "0x40c10f190000000000000000000000008c4eb6988a199dabcae0ce31052b3f3ac591787e00000000000000000000000000000000000000000000021e19e0c9bab2400000",
        "nonce": "0x60",
        "chainId": "0x279f"
      },
      "additionalContracts": [],
      "isFixedGasLimit": false
    }
  ],
  "receipts": [
    {
      "status": "0x1",
      "cumulativeGasUsed": "0x124eae",
      "logs": [
        {
          "address": "0x647173d64468ea070ab467b5bc593543ae6b03ae",
          "topics": [
            "0x8be0079c531659141344cd1fd0a4f28419497f9722a3daafe3b4186f6b6457e0",
            "0x0000000000000000000000000000000000000000000000000000000000000000",
            "0x000000000000000000000000b7d030f7c6406446e703e73b3d1dd8611a2d87b6"
          ],
          "data": "0x",
          "blockHash": "0xaa298f76913ca3572f6ab742dc9ef7db827d51fb31d27aa086271ff7ea3d076d",
          "blockNumber": "0x369286",
          "blockTimestamp": "0x67b2cf42",
          "transactionHash": "0xcae1804f2d441ee691e7600f31f79570b87de5895e418625e0e290e48e60d6e5",
          "transactionIndex": "0x1",
          "logIndex": "0x6",
          "removed": false
        }
      ],
      "logsBloom": "0x00000000000000000000000000000000000000000000000000800000000000000000000000000000000000000000000000000000000000000000000000000200000000000000000000000000000000000001000000400000000000000000000000000000020000000000000000000800000000000000000200000000000002400000000000000000000000000000000000000000000000004000000000000020000000000000000000000000000000000000000000000000000000000000000000000000000000000000000000000000000000000000000000000000000020000000000000000000000000000000000000000000000000000000000000000000",
      "type": "0x2",
      "transactionHash": "0xcae1804f2d441ee691e7600f31f79570b87de5895e418625e0e290e48e60d6e5",
      "transactionIndex": "0x1",
      "blockHash": "0xaa298f76913ca3572f6ab742dc9ef7db827d51fb31d27aa086271ff7ea3d076d",
      "blockNumber": "0x369286",
      "gasUsed": "0xcd6fe",
      "effectiveGasPrice": "0xba43b7401",
      "from": "0xb7d030f7c6406446e703e73b3d1dd8611a2d87b6",
      "to": null,
      "contractAddress": "0x647173d64468ea070ab467b5bc593543ae6b03ae"
    },
    {
      "status": "0x1",
      "cumulativeGasUsed": "0x17d4b",
      "logs": [
        {
          "address": "0x647173d64468ea070ab467b5bc593543ae6b03ae",
          "topics": [
            "0xddf252ad1be2c89b69c2b068fc378daa952ba7f163c4a11628f55a4df523b3ef",
            "0x0000000000000000000000000000000000000000000000000000000000000000",
            "0x000000000000000000000000b7d030f7c6406446e703e73b3d1dd8611a2d87b6"
          ],
          "data": "0x00000000000000000000000000000000000000000000021e19e0c9bab2400000",
          "blockHash": "0x4930c03940fa6c0f91fcd775fbd05f6556bad406d6b57e561de3c241d4cbad7f",
          "blockNumber": "0x369287",
          "blockTimestamp": "0x67b2cf42",
          "transactionHash": "0x8499ec89475b4e2b2ef9385557c34231b1b80dd8563bda6f4fd4186055975996",
          "transactionIndex": "0x0",
          "logIndex": "0x0",
          "removed": false
        }
      ],
      "logsBloom": "0x00000000000000000000000000000000000000000000000000000000000000000000000000000000000000000000000000000000000000000000000000000200000000000000000000000008000000000000000000400000000000000000000000000000020000000000000000000800000000000000000200000010000002000000000000000000000000000000000000000000000000004000000000000020000000000000000000000000000000000000000000000000000000000000000000000002000000000000000000000000000000000000000000000000000020000000000000000000000000000000000000000000000000000000000000000000",
      "type": "0x2",
      "transactionHash": "0x8499ec89475b4e2b2ef9385557c34231b1b80dd8563bda6f4fd4186055975996",
      "transactionIndex": "0x0",
      "blockHash": "0x4930c03940fa6c0f91fcd775fbd05f6556bad406d6b57e561de3c241d4cbad7f",
      "blockNumber": "0x369287",
      "gasUsed": "0x17d4b",
      "effectiveGasPrice": "0xba43b7401",
      "from": "0xb7d030f7c6406446e703e73b3d1dd8611a2d87b6",
      "to": "0x647173d64468ea070ab467b5bc593543ae6b03ae",
      "contractAddress": null
    },
    {
      "status": "0x1",
      "cumulativeGasUsed": "0x2af54",
      "logs": [
        {
          "address": "0x647173d64468ea070ab467b5bc593543ae6b03ae",
          "topics": [
            "0xddf252ad1be2c89b69c2b068fc378daa952ba7f163c4a11628f55a4df523b3ef",
            "0x0000000000000000000000000000000000000000000000000000000000000000",
            "0x0000000000000000000000004f88f1014dd6ca0507780380111c098bee6b87e6"
          ],
          "data": "0x00000000000000000000000000000000000000000000021e19e0c9bab2400000",
          "blockHash": "0x4930c03940fa6c0f91fcd775fbd05f6556bad406d6b57e561de3c241d4cbad7f",
          "blockNumber": "0x369287",
          "blockTimestamp": "0x67b2cf42",
          "transactionHash": "0xb40a8c927de7c482cd65ecc7d9c2c9bcd80a8ae11a7139cdd397b352701d5e9c",
          "transactionIndex": "0x1",
          "logIndex": "0x1",
          "removed": false
        }
      ],
      "logsBloom": "0x00000000000000000000000002000000000000000000000000000000000000000000000000000000000000000000000000000000000000000000000000000200000000000000000000000008000000000000000000000000000000000000000000000000020000000000000000000800000000000000000000000010000002000000000000000000000000000000000000000000000000004000000000000000000000000000000000000000000000000000000004000000000000000000000000000002000000000000000000000000000000000000000000000000000020000000000000000000000000000000000000000000008000000000000000000000",
      "type": "0x2",
      "transactionHash": "0xb40a8c927de7c482cd65ecc7d9c2c9bcd80a8ae11a7139cdd397b352701d5e9c",
      "transactionIndex": "0x1",
      "blockHash": "0x4930c03940fa6c0f91fcd775fbd05f6556bad406d6b57e561de3c241d4cbad7f",
      "blockNumber": "0x369287",
      "gasUsed": "0x13209",
      "effectiveGasPrice": "0xba43b7401",
      "from": "0xb7d030f7c6406446e703e73b3d1dd8611a2d87b6",
      "to": "0x647173d64468ea070ab467b5bc593543ae6b03ae",
      "contractAddress": null
    },
    {
      "status": "0x1",
      "cumulativeGasUsed": "0x3e15d",
      "logs": [
        {
          "address": "0x647173d64468ea070ab467b5bc593543ae6b03ae",
          "topics": [
            "0xddf252ad1be2c89b69c2b068fc378daa952ba7f163c4a11628f55a4df523b3ef",
            "0x0000000000000000000000000000000000000000000000000000000000000000",
            "0x000000000000000000000000c31f6b8133d618ad2ff1ac5faa3fc4b20557b901"
          ],
          "data": "0x00000000000000000000000000000000000000000000021e19e0c9bab2400000",
          "blockHash": "0x4930c03940fa6c0f91fcd775fbd05f6556bad406d6b57e561de3c241d4cbad7f",
          "blockNumber": "0x369287",
          "blockTimestamp": "0x67b2cf42",
          "transactionHash": "0xa2d0bba15091a8bb70a5df299ed3f77e14e537641f20e9a23077dd42eb5b0f93",
          "transactionIndex": "0x2",
          "logIndex": "0x2",
          "removed": false
        }
      ],
      "logsBloom": "0x00000000000000000000000000000000000000000000000000000000000000000000000000000000000000000000000000000000000000000000000000000200000000000000000000000008000000000000000000000000000000000000000000000000020000000000000000000800000000000000000000000010400002000000000000000000000000000000000000000002000000004000000000000000000000000000000000000000000000000000000000000000080000000000000000000002000000000000000000000000000000000000000000000000000020000000000000000000000000000000000000000000000000000000000000000000",
      "type": "0x2",
      "transactionHash": "0xa2d0bba15091a8bb70a5df299ed3f77e14e537641f20e9a23077dd42eb5b0f93",
      "transactionIndex": "0x2",
      "blockHash": "0x4930c03940fa6c0f91fcd775fbd05f6556bad406d6b57e561de3c241d4cbad7f",
      "blockNumber": "0x369287",
      "gasUsed": "0x13209",
      "effectiveGasPrice": "0xba43b7401",
      "from": "0xb7d030f7c6406446e703e73b3d1dd8611a2d87b6",
      "to": "0x647173d64468ea070ab467b5bc593543ae6b03ae",
      "contractAddress": null
    },
    {
      "status": "0x1",
      "cumulativeGasUsed": "0x51366",
      "logs": [
        {
          "address": "0x647173d64468ea070ab467b5bc593543ae6b03ae",
          "topics": [
            "0xddf252ad1be2c89b69c2b068fc378daa952ba7f163c4a11628f55a4df523b3ef",
            "0x0000000000000000000000000000000000000000000000000000000000000000",
            "0x00000000000000000000000066e675533020c3cdee2f33e372320b7e2692211e"
          ],
          "data": "0x00000000000000000000000000000000000000000000021e19e0c9bab2400000",
          "blockHash": "0x4930c03940fa6c0f91fcd775fbd05f6556bad406d6b57e561de3c241d4cbad7f",
          "blockNumber": "0x369287",
          "blockTimestamp": "0x67b2cf42",
          "transactionHash": "0xd4c65a845c35f20e3e2114c0ffd56b55869a92826a4555afc506b7cdc58644d2",
          "transactionIndex": "0x3",
          "logIndex": "0x3",
          "removed": false
        }
      ],
      "logsBloom": "0x00000000000000000000000000000000000000000000000000000000001000000000000000000000000000000000000000000000000000000000000000000200000000000000000000000008000008000000000000000000000000000000000000000000020000000000000000000800000000000000000000000010000002000000000000000000000000000000000000000000002000004000000000000000000000000000000000000000000000000000000000000000000000000000000000000002000000000000000000000000000000000000000000000000000020000000000000000000000000000000000000000000000000000000000000000000",
      "type": "0x2",
      "transactionHash": "0xd4c65a845c35f20e3e2114c0ffd56b55869a92826a4555afc506b7cdc58644d2",
      "transactionIndex": "0x3",
      "blockHash": "0x4930c03940fa6c0f91fcd775fbd05f6556bad406d6b57e561de3c241d4cbad7f",
      "blockNumber": "0x369287",
      "gasUsed": "0x13209",
      "effectiveGasPrice": "0xba43b7401",
      "from": "0xb7d030f7c6406446e703e73b3d1dd8611a2d87b6",
      "to": "0x647173d64468ea070ab467b5bc593543ae6b03ae",
      "contractAddress": null
    },
    {
      "status": "0x1",
      "cumulativeGasUsed": "0x6456f",
      "logs": [
        {
          "address": "0x647173d64468ea070ab467b5bc593543ae6b03ae",
          "topics": [
            "0xddf252ad1be2c89b69c2b068fc378daa952ba7f163c4a11628f55a4df523b3ef",
            "0x0000000000000000000000000000000000000000000000000000000000000000",
            "0x0000000000000000000000008c4eb6988a199dabcae0ce31052b3f3ac591787e"
          ],
          "data": "0x00000000000000000000000000000000000000000000021e19e0c9bab2400000",
          "blockHash": "0x4930c03940fa6c0f91fcd775fbd05f6556bad406d6b57e561de3c241d4cbad7f",
          "blockNumber": "0x369287",
          "blockTimestamp": "0x67b2cf42",
          "transactionHash": "0x6ef5d8b13013ebbf7177011ad738b98141b7dfdbfe04382e35ccd74745b72420",
          "transactionIndex": "0x4",
          "logIndex": "0x4",
          "removed": false
        }
      ],
      "logsBloom": "0x00000000000000000000000000000000000000000000000000000000000000000000000000000000000000000000000000000000000040000000000000000200000000000000000000000008000000000000000000000000000000000000000000000000020000000000000000000800000000000000000000000010000002000000000100000000000000000000000000000000000000004000000000000000000000000000000000000000000001000000000000000000000000000000000000000002000000000000000000000000000000000000000000000000000020000000000000000000000000000000000000000000000000000000000000000000",
      "type": "0x2",
      "transactionHash": "0x6ef5d8b13013ebbf7177011ad738b98141b7dfdbfe04382e35ccd74745b72420",
      "transactionIndex": "0x4",
      "blockHash": "0x4930c03940fa6c0f91fcd775fbd05f6556bad406d6b57e561de3c241d4cbad7f",
      "blockNumber": "0x369287",
      "gasUsed": "0x13209",
      "effectiveGasPrice": "0xba43b7401",
      "from": "0xb7d030f7c6406446e703e73b3d1dd8611a2d87b6",
      "to": "0x647173d64468ea070ab467b5bc593543ae6b03ae",
      "contractAddress": null
    },
    {
      "status": "0x1",
      "cumulativeGasUsed": "0x131c4e",
      "logs": [
        {
          "address": "0xe062b5d1ed7e6ed2da5b3e0e15505ce08bc158e4",
          "topics": [
            "0x8be0079c531659141344cd1fd0a4f28419497f9722a3daafe3b4186f6b6457e0",
            "0x0000000000000000000000000000000000000000000000000000000000000000",
            "0x000000000000000000000000b7d030f7c6406446e703e73b3d1dd8611a2d87b6"
          ],
          "data": "0x",
          "blockHash": "0x4930c03940fa6c0f91fcd775fbd05f6556bad406d6b57e561de3c241d4cbad7f",
          "blockNumber": "0x369287",
          "blockTimestamp": "0x67b2cf42",
          "transactionHash": "0xa76e07b924ec1aa36cff5c5d3d9d5eef23425cfa9bf87346e808e0d1579df0e1",
          "transactionIndex": "0x5",
          "logIndex": "0x5",
          "removed": false
        }
      ],
      "logsBloom": "0x00000000000000000000000000000000000000000000000000800000000000000000000000000000000000000000000000000000000000000000000000000000000000000000000000000000000000000001000000400000000000000000000000000000020000000000000000000880000000000020000200000000000000400000000000000000000000000000000000000000000000000000000000000020000000000800000000000000000000000000000000000000000000000000000000000000000000000000000000000000000000000000000000000000000020000000000000000000000000000000000000000000000000000000000000000000",
      "type": "0x2",
      "transactionHash": "0xa76e07b924ec1aa36cff5c5d3d9d5eef23425cfa9bf87346e808e0d1579df0e1",
      "transactionIndex": "0x5",
      "blockHash": "0x4930c03940fa6c0f91fcd775fbd05f6556bad406d6b57e561de3c241d4cbad7f",
      "blockNumber": "0x369287",
      "gasUsed": "0xcd6df",
      "effectiveGasPrice": "0xba43b7401",
      "from": "0xb7d030f7c6406446e703e73b3d1dd8611a2d87b6",
      "to": null,
      "contractAddress": "0xe062b5d1ed7e6ed2da5b3e0e15505ce08bc158e4"
    },
    {
      "status": "0x1",
      "cumulativeGasUsed": "0x149999",
      "logs": [
        {
          "address": "0xe062b5d1ed7e6ed2da5b3e0e15505ce08bc158e4",
          "topics": [
            "0xddf252ad1be2c89b69c2b068fc378daa952ba7f163c4a11628f55a4df523b3ef",
            "0x0000000000000000000000000000000000000000000000000000000000000000",
            "0x000000000000000000000000b7d030f7c6406446e703e73b3d1dd8611a2d87b6"
          ],
          "data": "0x00000000000000000000000000000000000000000000021e19e0c9bab2400000",
          "blockHash": "0x4930c03940fa6c0f91fcd775fbd05f6556bad406d6b57e561de3c241d4cbad7f",
          "blockNumber": "0x369287",
          "blockTimestamp": "0x67b2cf42",
          "transactionHash": "0x15036f05611c43160459d39ca5053660dfc1bef343a6798bfb4248d0209a46f8",
          "transactionIndex": "0x6",
          "logIndex": "0x6",
          "removed": false
        }
      ],
      "logsBloom": "0x00000000000000000000000000000000000000000000000000000000000000000000000000000000000000000000000000000000000000000000000000000000000000000000000000000008000000000000000000400000000000000000000000000000020000000000000000000880000000000020000200000010000000000000000000000000000000000000000000000000000000000000000000000020000000000800000000000000000000000000000000000000000000000000000000000002000000000000000000000000000000000000000000000000000020000000000000000000000000000000000000000000000000000000000000000000",
      "type": "0x2",
      "transactionHash": "0x15036f05611c43160459d39ca5053660dfc1bef343a6798bfb4248d0209a46f8",
      "transactionIndex": "0x6",
      "blockHash": "0x4930c03940fa6c0f91fcd775fbd05f6556bad406d6b57e561de3c241d4cbad7f",
      "blockNumber": "0x369287",
      "gasUsed": "0x17d4b",
      "effectiveGasPrice": "0xba43b7401",
      "from": "0xb7d030f7c6406446e703e73b3d1dd8611a2d87b6",
      "to": "0xe062b5d1ed7e6ed2da5b3e0e15505ce08bc158e4",
      "contractAddress": null
    },
    {
      "status": "0x1",
      "cumulativeGasUsed": "0x15cba2",
      "logs": [
        {
          "address": "0xe062b5d1ed7e6ed2da5b3e0e15505ce08bc158e4",
          "topics": [
            "0xddf252ad1be2c89b69c2b068fc378daa952ba7f163c4a11628f55a4df523b3ef",
            "0x0000000000000000000000000000000000000000000000000000000000000000",
            "0x0000000000000000000000004f88f1014dd6ca0507780380111c098bee6b87e6"
          ],
          "data": "0x00000000000000000000000000000000000000000000021e19e0c9bab2400000",
          "blockHash": "0x4930c03940fa6c0f91fcd775fbd05f6556bad406d6b57e561de3c241d4cbad7f",
          "blockNumber": "0x369287",
          "blockTimestamp": "0x67b2cf42",
          "transactionHash": "0xdcc225cd67a4354b12cb333895f83f56b3100225b82e780ea8452d668125a9d7",
          "transactionIndex": "0x7",
          "logIndex": "0x7",
          "removed": false
        }
      ],
      "logsBloom": "0x00000000000000000000000002000000000000000000000000000000000000000000000000000000000000000000000000000000000000000000000000000000000000000000000000000008000000000000000000000000000000000000000000000000020000000000000000000880000000000020000000000010000000000000000000000000000000000000000000000000000000000000000000000000000000000800000000000000000000000000000004000000000000000000000000000002000000000000000000000000000000000000000000000000000020000000000000000000000000000000000000000000008000000000000000000000",
      "type": "0x2",
      "transactionHash": "0xdcc225cd67a4354b12cb333895f83f56b3100225b82e780ea8452d668125a9d7",
      "transactionIndex": "0x7",
      "blockHash": "0x4930c03940fa6c0f91fcd775fbd05f6556bad406d6b57e561de3c241d4cbad7f",
      "blockNumber": "0x369287",
      "gasUsed": "0x13209",
      "effectiveGasPrice": "0xba43b7401",
      "from": "0xb7d030f7c6406446e703e73b3d1dd8611a2d87b6",
      "to": "0xe062b5d1ed7e6ed2da5b3e0e15505ce08bc158e4",
      "contractAddress": null
    },
    {
      "status": "0x1",
      "cumulativeGasUsed": "0x16fdab",
      "logs": [
        {
          "address": "0xe062b5d1ed7e6ed2da5b3e0e15505ce08bc158e4",
          "topics": [
            "0xddf252ad1be2c89b69c2b068fc378daa952ba7f163c4a11628f55a4df523b3ef",
            "0x0000000000000000000000000000000000000000000000000000000000000000",
            "0x000000000000000000000000c31f6b8133d618ad2ff1ac5faa3fc4b20557b901"
          ],
          "data": "0x00000000000000000000000000000000000000000000021e19e0c9bab2400000",
          "blockHash": "0x4930c03940fa6c0f91fcd775fbd05f6556bad406d6b57e561de3c241d4cbad7f",
          "blockNumber": "0x369287",
          "blockTimestamp": "0x67b2cf42",
          "transactionHash": "0x33f0516aa0f75f6f5ec05717d2599bb56829a2485af2d1ecedc4638e7b3e9744",
          "transactionIndex": "0x8",
          "logIndex": "0x8",
          "removed": false
        }
      ],
      "logsBloom": "0x00000000000000000000000000000000000000000000000000000000000000000000000000000000000000000000000000000000000000000000000000000000000000000000000000000008000000000000000000000000000000000000000000000000020000000000000000000880000000000020000000000010400000000000000000000000000000000000000000000002000000000000000000000000000000000800000000000000000000000000000000000000080000000000000000000002000000000000000000000000000000000000000000000000000020000000000000000000000000000000000000000000000000000000000000000000",
      "type": "0x2",
      "transactionHash": "0x33f0516aa0f75f6f5ec05717d2599bb56829a2485af2d1ecedc4638e7b3e9744",
      "transactionIndex": "0x8",
      "blockHash": "0x4930c03940fa6c0f91fcd775fbd05f6556bad406d6b57e561de3c241d4cbad7f",
      "blockNumber": "0x369287",
      "gasUsed": "0x13209",
      "effectiveGasPrice": "0xba43b7401",
      "from": "0xb7d030f7c6406446e703e73b3d1dd8611a2d87b6",
      "to": "0xe062b5d1ed7e6ed2da5b3e0e15505ce08bc158e4",
      "contractAddress": null
    },
    {
      "status": "0x1",
      "cumulativeGasUsed": "0x182fb4",
      "logs": [
        {
          "address": "0xe062b5d1ed7e6ed2da5b3e0e15505ce08bc158e4",
          "topics": [
            "0xddf252ad1be2c89b69c2b068fc378daa952ba7f163c4a11628f55a4df523b3ef",
            "0x0000000000000000000000000000000000000000000000000000000000000000",
            "0x00000000000000000000000066e675533020c3cdee2f33e372320b7e2692211e"
          ],
          "data": "0x00000000000000000000000000000000000000000000021e19e0c9bab2400000",
          "blockHash": "0x4930c03940fa6c0f91fcd775fbd05f6556bad406d6b57e561de3c241d4cbad7f",
          "blockNumber": "0x369287",
          "blockTimestamp": "0x67b2cf42",
          "transactionHash": "0xe058dd8f810ed118cb35878ddb393d72da8eb61f6c218b74957b37b7b3ddc029",
          "transactionIndex": "0x9",
          "logIndex": "0x9",
          "removed": false
        }
      ],
      "logsBloom": "0x00000000000000000000000000000000000000000000000000000000001000000000000000000000000000000000000000000000000000000000000000000000000000000000000000000008000008000000000000000000000000000000000000000000020000000000000000000880000000000020000000000010000000000000000000000000000000000000000000000000002000000000000000000000000000000800000000000000000000000000000000000000000000000000000000000002000000000000000000000000000000000000000000000000000020000000000000000000000000000000000000000000000000000000000000000000",
      "type": "0x2",
      "transactionHash": "0xe058dd8f810ed118cb35878ddb393d72da8eb61f6c218b74957b37b7b3ddc029",
      "transactionIndex": "0x9",
      "blockHash": "0x4930c03940fa6c0f91fcd775fbd05f6556bad406d6b57e561de3c241d4cbad7f",
      "blockNumber": "0x369287",
      "gasUsed": "0x13209",
      "effectiveGasPrice": "0xba43b7401",
      "from": "0xb7d030f7c6406446e703e73b3d1dd8611a2d87b6",
      "to": "0xe062b5d1ed7e6ed2da5b3e0e15505ce08bc158e4",
      "contractAddress": null
    },
    {
      "status": "0x1",
      "cumulativeGasUsed": "0x1961bd",
      "logs": [
        {
          "address": "0xe062b5d1ed7e6ed2da5b3e0e15505ce08bc158e4",
          "topics": [
            "0xddf252ad1be2c89b69c2b068fc378daa952ba7f163c4a11628f55a4df523b3ef",
            "0x0000000000000000000000000000000000000000000000000000000000000000",
            "0x0000000000000000000000008c4eb6988a199dabcae0ce31052b3f3ac591787e"
          ],
          "data": "0x00000000000000000000000000000000000000000000021e19e0c9bab2400000",
          "blockHash": "0x4930c03940fa6c0f91fcd775fbd05f6556bad406d6b57e561de3c241d4cbad7f",
          "blockNumber": "0x369287",
          "blockTimestamp": "0x67b2cf42",
          "transactionHash": "0xc09f2032d84ff8ae2a22a2af8842f52ec9435a5dab669743c19c695c1ad535ca",
          "transactionIndex": "0xa",
          "logIndex": "0xa",
          "removed": false
        }
      ],
      "logsBloom": "0x00000000000000000000000000000000000000000000000000000000000000000000000000000000000000000000000000000000000040000000000000000000000000000000000000000008000000000000000000000000000000000000000000000000020000000000000000000880000000000020000000000010000000000000000100000000000000000000000000000000000000000000000000000000000000000800000000000000000001000000000000000000000000000000000000000002000000000000000000000000000000000000000000000000000020000000000000000000000000000000000000000000000000000000000000000000",
      "type": "0x2",
      "transactionHash": "0xc09f2032d84ff8ae2a22a2af8842f52ec9435a5dab669743c19c695c1ad535ca",
      "transactionIndex": "0xa",
      "blockHash": "0x4930c03940fa6c0f91fcd775fbd05f6556bad406d6b57e561de3c241d4cbad7f",
      "blockNumber": "0x369287",
      "gasUsed": "0x13209",
      "effectiveGasPrice": "0xba43b7401",
      "from": "0xb7d030f7c6406446e703e73b3d1dd8611a2d87b6",
      "to": "0xe062b5d1ed7e6ed2da5b3e0e15505ce08bc158e4",
      "contractAddress": null
    },
    {
      "status": "0x1",
      "cumulativeGasUsed": "0x2638cb",
      "logs": [
        {
          "address": "0xacd113f08220c09114265bdb9369cc8960d3d407",
          "topics": [
            "0x8be0079c531659141344cd1fd0a4f28419497f9722a3daafe3b4186f6b6457e0",
            "0x0000000000000000000000000000000000000000000000000000000000000000",
            "0x000000000000000000000000b7d030f7c6406446e703e73b3d1dd8611a2d87b6"
          ],
          "data": "0x",
          "blockHash": "0x4930c03940fa6c0f91fcd775fbd05f6556bad406d6b57e561de3c241d4cbad7f",
          "blockNumber": "0x369287",
          "blockTimestamp": "0x67b2cf42",
          "transactionHash": "0x491d6ffe0b9eb28727a6cc36b0dd9f235b86f3a4bcca6853ee7f221fd7f083a8",
          "transactionIndex": "0xb",
          "logIndex": "0xb",
          "removed": false
        }
      ],
      "logsBloom": "0x00000000000000000000000000000000000000000000000000800000000000000000000000000000000000000000000000000000040000000000000000000000000000000000000000000000000000000001000000400000000000000000000000000000020000000000000000000800000000000000000200000000000000400000000000000000000000000000000000000000000000000000000000000020000000000000000000000000000000000000080000000000000000000000000000000000000000000000000000000000000000000800000000000000000020000000000000000000000000000000000000000000000000000000000000000000",
      "type": "0x2",
      "transactionHash": "0x491d6ffe0b9eb28727a6cc36b0dd9f235b86f3a4bcca6853ee7f221fd7f083a8",
      "transactionIndex": "0xb",
      "blockHash": "0x4930c03940fa6c0f91fcd775fbd05f6556bad406d6b57e561de3c241d4cbad7f",
      "blockNumber": "0x369287",
      "gasUsed": "0xcd70e",
      "effectiveGasPrice": "0xba43b7401",
      "from": "0xb7d030f7c6406446e703e73b3d1dd8611a2d87b6",
      "to": null,
      "contractAddress": "0xacd113f08220c09114265bdb9369cc8960d3d407"
    },
    {
      "status": "0x1",
      "cumulativeGasUsed": "0x27b616",
      "logs": [
        {
          "address": "0xacd113f08220c09114265bdb9369cc8960d3d407",
          "topics": [
            "0xddf252ad1be2c89b69c2b068fc378daa952ba7f163c4a11628f55a4df523b3ef",
            "0x0000000000000000000000000000000000000000000000000000000000000000",
            "0x000000000000000000000000b7d030f7c6406446e703e73b3d1dd8611a2d87b6"
          ],
          "data": "0x00000000000000000000000000000000000000000000021e19e0c9bab2400000",
          "blockHash": "0x4930c03940fa6c0f91fcd775fbd05f6556bad406d6b57e561de3c241d4cbad7f",
          "blockNumber": "0x369287",
          "blockTimestamp": "0x67b2cf42",
          "transactionHash": "0x4bd249144465951e0eeffe7ada6fd65cb13defb010537e2e4564e354ca0a50bb",
          "transactionIndex": "0xc",
          "logIndex": "0xc",
          "removed": false
        }
      ],
      "logsBloom": "0x00000000000000000000000000000000000000000000000000000000000000000000000000000000000000000000000000000000040000000000000000000000000000000000000000000008000000000000000000400000000000000000000000000000020000000000000000000800000000000000000200000010000000000000000000000000000000000000000000000000000000000000000000000020000000000000000000000000000000000000080000000000000000000000000000000002000000000000000000000000000000000800000000000000000020000000000000000000000000000000000000000000000000000000000000000000",
      "type": "0x2",
      "transactionHash": "0x4bd249144465951e0eeffe7ada6fd65cb13defb010537e2e4564e354ca0a50bb",
      "transactionIndex": "0xc",
      "blockHash": "0x4930c03940fa6c0f91fcd775fbd05f6556bad406d6b57e561de3c241d4cbad7f",
      "blockNumber": "0x369287",
      "gasUsed": "0x17d4b",
      "effectiveGasPrice": "0xba43b7401",
      "from": "0xb7d030f7c6406446e703e73b3d1dd8611a2d87b6",
      "to": "0xacd113f08220c09114265bdb9369cc8960d3d407",
      "contractAddress": null
    },
    {
      "status": "0x1",
      "cumulativeGasUsed": "0x28e81f",
      "logs": [
        {
          "address": "0xacd113f08220c09114265bdb9369cc8960d3d407",
          "topics": [
            "0xddf252ad1be2c89b69c2b068fc378daa952ba7f163c4a11628f55a4df523b3ef",
            "0x0000000000000000000000000000000000000000000000000000000000000000",
            "0x0000000000000000000000004f88f1014dd6ca0507780380111c098bee6b87e6"
          ],
          "data": "0x00000000000000000000000000000000000000000000021e19e0c9bab2400000",
          "blockHash": "0x4930c03940fa6c0f91fcd775fbd05f6556bad406d6b57e561de3c241d4cbad7f",
          "blockNumber": "0x369287",
          "blockTimestamp": "0x67b2cf42",
          "transactionHash": "0x15b6fe2a1fe3c159514ef6e8d025330e262354ef3b924c33a90a98d9928aef9f",
          "transactionIndex": "0xd",
          "logIndex": "0xd",
          "removed": false
        }
      ],
      "logsBloom": "0x00000000000000000000000002000000000000000000000000000000000000000000000000000000000000000000000000000000040000000000000000000000000000000000000000000008000000000000000000000000000000000000000000000000020000000000000000000800000000000000000000000010000000000000000000000000000000000000000000000000000000000000000000000000000000000000000000000000000000000000080004000000000000000000000000000002000000000000000000000000000000000800000000000000000020000000000000000000000000000000000000000000008000000000000000000000",
      "type": "0x2",
      "transactionHash": "0x15b6fe2a1fe3c159514ef6e8d025330e262354ef3b924c33a90a98d9928aef9f",
      "transactionIndex": "0xd",
      "blockHash": "0x4930c03940fa6c0f91fcd775fbd05f6556bad406d6b57e561de3c241d4cbad7f",
      "blockNumber": "0x369287",
      "gasUsed": "0x13209",
      "effectiveGasPrice": "0xba43b7401",
      "from": "0xb7d030f7c6406446e703e73b3d1dd8611a2d87b6",
      "to": "0xacd113f08220c09114265bdb9369cc8960d3d407",
      "contractAddress": null
    },
    {
      "status": "0x1",
      "cumulativeGasUsed": "0x2a1a28",
      "logs": [
        {
          "address": "0xacd113f08220c09114265bdb9369cc8960d3d407",
          "topics": [
            "0xddf252ad1be2c89b69c2b068fc378daa952ba7f163c4a11628f55a4df523b3ef",
            "0x0000000000000000000000000000000000000000000000000000000000000000",
            "0x000000000000000000000000c31f6b8133d618ad2ff1ac5faa3fc4b20557b901"
          ],
          "data": "0x00000000000000000000000000000000000000000000021e19e0c9bab2400000",
          "blockHash": "0x4930c03940fa6c0f91fcd775fbd05f6556bad406d6b57e561de3c241d4cbad7f",
          "blockNumber": "0x369287",
          "blockTimestamp": "0x67b2cf42",
          "transactionHash": "0xc9056ba1decaa1399b2f98987c12ed39201943f2eb32a3f5681c72deeecc0a48",
          "transactionIndex": "0xe",
          "logIndex": "0xe",
          "removed": false
        }
      ],
      "logsBloom": "0x00000000000000000000000000000000000000000000000000000000000000000000000000000000000000000000000000000000040000000000000000000000000000000000000000000008000000000000000000000000000000000000000000000000020000000000000000000800000000000000000000000010400000000000000000000000000000000000000000000002000000000000000000000000000000000000000000000000000000000000080000000000080000000000000000000002000000000000000000000000000000000800000000000000000020000000000000000000000000000000000000000000000000000000000000000000",
      "type": "0x2",
      "transactionHash": "0xc9056ba1decaa1399b2f98987c12ed39201943f2eb32a3f5681c72deeecc0a48",
      "transactionIndex": "0xe",
      "blockHash": "0x4930c03940fa6c0f91fcd775fbd05f6556bad406d6b57e561de3c241d4cbad7f",
      "blockNumber": "0x369287",
      "gasUsed": "0x13209",
      "effectiveGasPrice": "0xba43b7401",
      "from": "0xb7d030f7c6406446e703e73b3d1dd8611a2d87b6",
      "to": "0xacd113f08220c09114265bdb9369cc8960d3d407",
      "contractAddress": null
    },
    {
      "status": "0x1",
      "cumulativeGasUsed": "0x2b4c31",
      "logs": [
        {
          "address": "0xacd113f08220c09114265bdb9369cc8960d3d407",
          "topics": [
            "0xddf252ad1be2c89b69c2b068fc378daa952ba7f163c4a11628f55a4df523b3ef",
            "0x0000000000000000000000000000000000000000000000000000000000000000",
            "0x00000000000000000000000066e675533020c3cdee2f33e372320b7e2692211e"
          ],
          "data": "0x00000000000000000000000000000000000000000000021e19e0c9bab2400000",
          "blockHash": "0x4930c03940fa6c0f91fcd775fbd05f6556bad406d6b57e561de3c241d4cbad7f",
          "blockNumber": "0x369287",
          "blockTimestamp": "0x67b2cf42",
          "transactionHash": "0xcf9f2ddcdde4771f46237c29a98fa3eb8921540f5a9c24d67a1aed52df96370e",
          "transactionIndex": "0xf",
          "logIndex": "0xf",
          "removed": false
        }
      ],
      "logsBloom": "0x00000000000000000000000000000000000000000000000000000000001000000000000000000000000000000000000000000000040000000000000000000000000000000000000000000008000008000000000000000000000000000000000000000000020000000000000000000800000000000000000000000010000000000000000000000000000000000000000000000000002000000000000000000000000000000000000000000000000000000000080000000000000000000000000000000002000000000000000000000000000000000800000000000000000020000000000000000000000000000000000000000000000000000000000000000000",
      "type": "0x2",
      "transactionHash": "0xcf9f2ddcdde4771f46237c29a98fa3eb8921540f5a9c24d67a1aed52df96370e",
      "transactionIndex": "0xf",
      "blockHash": "0x4930c03940fa6c0f91fcd775fbd05f6556bad406d6b57e561de3c241d4cbad7f",
      "blockNumber": "0x369287",
      "gasUsed": "0x13209",
      "effectiveGasPrice": "0xba43b7401",
      "from": "0xb7d030f7c6406446e703e73b3d1dd8611a2d87b6",
      "to": "0xacd113f08220c09114265bdb9369cc8960d3d407",
      "contractAddress": null
    },
    {
      "status": "0x1",
      "cumulativeGasUsed": "0x2c7e3a",
      "logs": [
        {
          "address": "0xacd113f08220c09114265bdb9369cc8960d3d407",
          "topics": [
            "0xddf252ad1be2c89b69c2b068fc378daa952ba7f163c4a11628f55a4df523b3ef",
            "0x0000000000000000000000000000000000000000000000000000000000000000",
            "0x0000000000000000000000008c4eb6988a199dabcae0ce31052b3f3ac591787e"
          ],
          "data": "0x00000000000000000000000000000000000000000000021e19e0c9bab2400000",
          "blockHash": "0x4930c03940fa6c0f91fcd775fbd05f6556bad406d6b57e561de3c241d4cbad7f",
          "blockNumber": "0x369287",
          "blockTimestamp": "0x67b2cf42",
          "transactionHash": "0x777cafc05e0eb695bc1498222920fa18b771296f5d7a87195f6885f0ae6ab4f2",
          "transactionIndex": "0x10",
          "logIndex": "0x10",
          "removed": false
        }
      ],
      "logsBloom": "0x00000000000000000000000000000000000000000000000000000000000000000000000000000000000000000000000000000000040040000000000000000000000000000000000000000008000000000000000000000000000000000000000000000000020000000000000000000800000000000000000000000010000000000000000100000000000000000000000000000000000000000000000000000000000000000000000000000000000001000000080000000000000000000000000000000002000000000000000000000000000000000800000000000000000020000000000000000000000000000000000000000000000000000000000000000000",
      "type": "0x2",
      "transactionHash": "0x777cafc05e0eb695bc1498222920fa18b771296f5d7a87195f6885f0ae6ab4f2",
      "transactionIndex": "0x10",
      "blockHash": "0x4930c03940fa6c0f91fcd775fbd05f6556bad406d6b57e561de3c241d4cbad7f",
      "blockNumber": "0x369287",
      "gasUsed": "0x13209",
      "effectiveGasPrice": "0xba43b7401",
      "from": "0xb7d030f7c6406446e703e73b3d1dd8611a2d87b6",
      "to": "0xacd113f08220c09114265bdb9369cc8960d3d407",
      "contractAddress": null
    }
  ],
  "libraries": [],
  "pending": [],
  "returns": {},
  "timestamp": 1739771797,
  "chain": 10143,
  "commit": "3858836"
}