{
  "transactions": [
    {
      "hash": "0x29550e61b1c7ab9241f551dda6bd87b80d767f9fcb920ccb56d3ea2c4d793da5",
      "transactionType": "CALL",
      "contractName": null,
      "contractAddress": "0x11d0e669d24f682f7690fdf5407b20287050a74a",
      "function": "setFeePerSponsorTicket(uint256)",
      "arguments": [
        "1000000000000"
      ],
      "transaction": {
        "from": "0xb7d030f7c6406446e703e73b3d1dd8611a2d87b6",
        "to": "0x11d0e669d24f682f7690fdf5407b20287050a74a",
        "gas": "0xab43",
        "value": "0x0",
        "input": "0x149caac8000000000000000000000000000000000000000000000000000000e8d4a51000",
        "nonce": "0x1a6",
        "chainId": "0xaa36a7"
      },
      "additionalContracts": [],
      "isFixedGasLimit": false
    },
    {
      "hash": "0x99a5f667622025099fe956934e3f9cd0af6b94eb97857c06b9453e5fd0514a9e",
      "transactionType": "CALL",
      "contractName": null,
      "contractAddress": "0x01b793fdf3d21d8c9cd52de3ad5b50c5c95009a3",
      "function": "setFeePerSponsorTicket(uint256)",
      "arguments": [
        "1000000000000"
      ],
      "transaction": {
        "from": "0xb7d030f7c6406446e703e73b3d1dd8611a2d87b6",
        "to": "0x01b793fdf3d21d8c9cd52de3ad5b50c5c95009a3",
        "gas": "0xab43",
        "value": "0x0",
        "input": "0x149caac8000000000000000000000000000000000000000000000000000000e8d4a51000",
        "nonce": "0x1a7",
        "chainId": "0xaa36a7"
      },
      "additionalContracts": [],
      "isFixedGasLimit": false
    }
  ],
  "receipts": [
    {
      "status": "0x1",
      "cumulativeGasUsed": "0x10448d3",
      "logs": [
        {
          "address": "0x11d0e669d24f682f7690fdf5407b20287050a74a",
          "topics": [
            "0xc213c63ebbcc7cf00b0153c23fbac46f00d360b97b2a9b8f14174cdb9fa635de"
          ],
          "data": "0x000000000000000000000000000000000000000000000000000000e8d4a51000",
          "blockHash": "0x7ec27c20f668478aea153c6d74bfe382b80e3654206ed109ae2c27f6f38bcfe5",
          "blockNumber": "0x5e784c",
          "transactionHash": "0x29550e61b1c7ab9241f551dda6bd87b80d767f9fcb920ccb56d3ea2c4d793da5",
          "transactionIndex": "0x89",
          "logIndex": "0xc9",
          "removed": false
        }
      ],
      "logsBloom": "0x00000000080000000000000000000000000000000000000000000000000000000000000000000000000000000000000000000000000000000000000000000000000000000000000000000000000000000000000000000000000000000000000000000200000000000000000000000000000000000000000000000000000000000000000000000000000000000000000000000000000000000000000000000000000000000000000000000000000000000000000000000000000000000000000000000000000000080000040000000000000000200000000000000000000001000000000000000000000000000000000000000000000000000000000000000000",
      "type": "0x2",
      "transactionHash": "0x29550e61b1c7ab9241f551dda6bd87b80d767f9fcb920ccb56d3ea2c4d793da5",
      "transactionIndex": "0x89",
      "blockHash": "0x7ec27c20f668478aea153c6d74bfe382b80e3654206ed109ae2c27f6f38bcfe5",
      "blockNumber": "0x5e784c",
      "gasUsed": "0x751b",
      "effectiveGasPrice": "0x4860a4c67",
      "from": "0xb7d030f7c6406446e703e73b3d1dd8611a2d87b6",
      "to": "0x11d0e669d24f682f7690fdf5407b20287050a74a",
      "contractAddress": null
    },
    {
      "status": "0x1",
      "cumulativeGasUsed": "0x104bdee",
      "logs": [
        {
          "address": "0x01b793fdf3d21d8c9cd52de3ad5b50c5c95009a3",
          "topics": [
            "0xc213c63ebbcc7cf00b0153c23fbac46f00d360b97b2a9b8f14174cdb9fa635de"
          ],
          "data": "0x000000000000000000000000000000000000000000000000000000e8d4a51000",
          "blockHash": "0x7ec27c20f668478aea153c6d74bfe382b80e3654206ed109ae2c27f6f38bcfe5",
          "blockNumber": "0x5e784c",
          "transactionHash": "0x99a5f667622025099fe956934e3f9cd0af6b94eb97857c06b9453e5fd0514a9e",
          "transactionIndex": "0x8a",
          "logIndex": "0xca",
          "removed": false
        }
      ],
      "logsBloom": "0x00000000080000000000000000000000000000000000000000000000000000000000000000000000000000000000000000000000000000000000000000000000000000000000000000000000000000000000000000000080020000000000000000000200000800000000000000000000000000000000000000000000000000000000000000000000000000000000000000000000000000000000000000000000000000000000000000000000000000000000000000000000000000000000000000000000000000000000040000000000000000000000000000000000000000000000000000000000000000000000000000000000000000000000000000000000",
      "type": "0x2",
      "transactionHash": "0x99a5f667622025099fe956934e3f9cd0af6b94eb97857c06b9453e5fd0514a9e",
      "transactionIndex": "0x8a",
      "blockHash": "0x7ec27c20f668478aea153c6d74bfe382b80e3654206ed109ae2c27f6f38bcfe5",
      "blockNumber": "0x5e784c",
      "gasUsed": "0x751b",
      "effectiveGasPrice": "0x4860a4c67",
      "from": "0xb7d030f7c6406446e703e73b3d1dd8611a2d87b6",
      "to": "0x01b793fdf3d21d8c9cd52de3ad5b50c5c95009a3",
      "contractAddress": null
    }
  ],
  "libraries": [],
  "pending": [],
  "returns": {},
  "timestamp": 1719410725,
  "chain": 11155111,
  "commit": "299ff3d"
}