{
  "transactions": [
    {
      "hash": "0x6b5f5b391d557d96cc2cddb990682c3a85c79ae95ba435a1890e696b27610d96",
      "transactionType": "CALL",
      "contractName": null,
      "contractAddress": "0xa436364dafb5388f4756cd334e41948a3f8bff1d",
      "function": "setAddress(string,address)",
      "arguments": [
        "\"ERC6551Registry\"",
        "0x20A63B1532649FE80c9Df43fb827c155447fD75E"
      ],
      "transaction": {
        "from": "0xb7d030f7c6406446e703e73b3d1dd8611a2d87b6",
        "to": "0xa436364dafb5388f4756cd334e41948a3f8bff1d",
        "gas": "0x11966",
        "value": "0x0",
        "input": "0x9b2ea4bd000000000000000000000000000000000000000000000000000000000000004000000000000000000000000020a63b1532649fe80c9df43fb827c155447fd75e000000000000000000000000000000000000000000000000000000000000000f4552433635353152656769737472790000000000000000000000000000000000",
        "nonce": "0x18a",
        "chainId": "0xaa36a7"
      },
      "additionalContracts": [],
      "isFixedGasLimit": false
    }
  ],
  "receipts": [
    {
      "status": "0x1",
      "cumulativeGasUsed": "0x8f0076",
      "logs": [
        {
          "address": "0xa436364dafb5388f4756cd334e41948a3f8bff1d",
          "topics": [
            "0xb0377b4035c2bd5b6aeb3eb7f139162c730ea47b957e4354f8a81ebb99573dec"
          ],
          "data": "0x000000000000000000000000000000000000000000000000000000000000004000000000000000000000000020a63b1532649fe80c9df43fb827c155447fd75e000000000000000000000000000000000000000000000000000000000000000f4552433635353152656769737472790000000000000000000000000000000000",
          "blockHash": "0x7d2149419fcd3700eaaa6d0b328773f667b239e44be2e0d2df7fd9cad3022aa1",
          "blockNumber": "0x5d8dfe",
          "transactionHash": "0x6b5f5b391d557d96cc2cddb990682c3a85c79ae95ba435a1890e696b27610d96",
          "transactionIndex": "0x4a",
          "logIndex": "0x85",
          "removed": false
        }
      ],
      "logsBloom": "0x00000000000000000000000000000000000000000000000000000000000000000000000000000000000000000000000000000000000000000000000080000000000000000000000000000000000000000001000000000000000000000000000000000000000000000000000000000000000000000000000000000000000000000000000000000000000000000000000000000000000000000000000000000000000000000000000000000000000000000000000000000000000000000000080000000000000000000000000000000000004000000000000000000000080000000000000000000000000000000000000000000400000000000000000000000000",
      "type": "0x2",
      "transactionHash": "0x6b5f5b391d557d96cc2cddb990682c3a85c79ae95ba435a1890e696b27610d96",
      "transactionIndex": "0x4a",
      "blockHash": "0x7d2149419fcd3700eaaa6d0b328773f667b239e44be2e0d2df7fd9cad3022aa1",
      "blockNumber": "0x5d8dfe",
      "gasUsed": "0xc069",
      "effectiveGasPrice": "0x19e1ac6",
      "from": "0xb7d030f7c6406446e703e73b3d1dd8611a2d87b6",
      "to": "0xa436364dafb5388f4756cd334e41948a3f8bff1d",
      "contractAddress": null
    }
  ],
  "libraries": [],
  "pending": [],
  "returns": {},
  "timestamp": 1718683492,
  "chain": 11155111,
  "commit": "de99658"
}