{
  "transactions": [
    {
      "hash": "0x3c8a8d3495e5f1a4bc8124f2c50458367fa913c26d08bbd26ff4197c6f63d186",
      "transactionType": "CALL",
      "contractName": null,
      "contractAddress": "0x1c7d4b196cb0c7b01d743fbc6116a902379c7238",
      "function": "approve(address,uint256)",
      "arguments": [
        "0x3bFA4769FB09eefC5a80d6E87c3B9C650f7Ae48E",
        "1000000"
      ],
      "transaction": {
        "from": "0xb7d030f7c6406446e703e73b3d1dd8611a2d87b6",
        "to": "0x1c7d4b196cb0c7b01d743fbc6116a902379c7238",
        "gas": "0x12b1b",
        "value": "0x0",
        "input": "0x095ea7b30000000000000000000000003bfa4769fb09eefc5a80d6e87c3b9c650f7ae48e00000000000000000000000000000000000000000000000000000000000f4240",
        "nonce": "0x23b",
        "chainId": "0xaa36a7"
      },
      "additionalContracts": [],
      "isFixedGasLimit": false
    },
    {
      "hash": "0x6f6ce4d822e6406d4d62411dd04b0a8c501877fae731dd55d8e79469d63d5a7e",
      "transactionType": "CALL",
      "contractName": null,
      "contractAddress": "0x3bfa4769fb09eefc5a80d6e87c3b9c650f7ae48e",
      "function": "exactInputSingle((address,address,uint24,address,uint256,uint256,uint160))",
      "arguments": [
        "(0x1c7D4B196Cb0C7B01d743Fbc6116a902379C7238, 0xfFf9976782d46CC05630D1f6eBAb18b2324d6B14, 100, 0xB7d030F7c6406446e703E73B3d1dd8611A2D87b6, 1000000, 0, 0)"
      ],
      "transaction": {
        "from": "0xb7d030f7c6406446e703e73b3d1dd8611a2d87b6",
        "to": "0x3bfa4769fb09eefc5a80d6e87c3b9c650f7ae48e",
        "gas": "0x289db",
        "value": "0x0",
        "input": "0x04e45aaf0000000000000000000000001c7d4b196cb0c7b01d743fbc6116a902379c7238000000000000000000000000fff9976782d46cc05630d1f6ebab18b2324d6b140000000000000000000000000000000000000000000000000000000000000064000000000000000000000000b7d030f7c6406446e703e73b3d1dd8611a2d87b600000000000000000000000000000000000000000000000000000000000f424000000000000000000000000000000000000000000000000000000000000000000000000000000000000000000000000000000000000000000000000000000000",
        "nonce": "0x23c",
        "chainId": "0xaa36a7"
      },
      "additionalContracts": [],
      "isFixedGasLimit": false
    }
  ],
  "receipts": [
    {
      "status": "0x1",
      "cumulativeGasUsed": "0xb54cdb",
      "logs": [
        {
          "address": "0x1c7d4b196cb0c7b01d743fbc6116a902379c7238",
          "topics": [
            "0x8c5be1e5ebec7d5bd14f71427d1e84f3dd0314c0f7b2291e5b200ac8c7c3b925",
            "0x000000000000000000000000b7d030f7c6406446e703e73b3d1dd8611a2d87b6",
            "0x0000000000000000000000003bfa4769fb09eefc5a80d6e87c3b9c650f7ae48e"
          ],
          "data": "0x00000000000000000000000000000000000000000000000000000000000f4240",
          "blockHash": "0xe4d43d9eda72627fae4d4c40f73ff6d0d600f25ce67cab943caa766df867b5b1",
          "blockNumber": "0x6c9191",
          "transactionHash": "0x3c8a8d3495e5f1a4bc8124f2c50458367fa913c26d08bbd26ff4197c6f63d186",
          "transactionIndex": "0x42",
          "logIndex": "0x69",
          "removed": false
        }
      ],
      "logsBloom": "0x00000000000000000000000000000000000000000000040000000000000200000000000000000000000000000000000000000000000000000000000000200000000000000000000000000000000000000000000000400000000000000000000000000000000000000000000000000000000000000000000200000000000000000000000000100000000000000000000000000000000000000000000000000020020000000000000000000000000000000000000000000000000000000000000000000000000000000000000000000000000000000000000000000000000000000010000000000000000010000000000000000000000000400000200000000000",
      "type": "0x2",
      "transactionHash": "0x3c8a8d3495e5f1a4bc8124f2c50458367fa913c26d08bbd26ff4197c6f63d186",
      "transactionIndex": "0x42",
      "blockHash": "0xe4d43d9eda72627fae4d4c40f73ff6d0d600f25ce67cab943caa766df867b5b1",
      "blockNumber": "0x6c9191",
      "gasUsed": "0xd88d",
      "effectiveGasPrice": "0x980b09c6c",
      "from": "0xb7d030f7c6406446e703e73b3d1dd8611a2d87b6",
      "to": "0x1c7d4b196cb0c7b01d743fbc6116a902379c7238",
      "contractAddress": null
    },
    {
      "status": "0x1",
      "cumulativeGasUsed": "0xb70934",
      "logs": [
        {
          "address": "0xfff9976782d46cc05630d1f6ebab18b2324d6b14",
          "topics": [
            "0xddf252ad1be2c89b69c2b068fc378daa952ba7f163c4a11628f55a4df523b3ef",
            "0x000000000000000000000000feed501c2b21d315f04946f85fc6416b640240b5",
            "0x000000000000000000000000b7d030f7c6406446e703e73b3d1dd8611a2d87b6"
          ],
          "data": "0x0000000000000000000000000000000000000000000000000000005eae8c7f09",
          "blockHash": "0xe4d43d9eda72627fae4d4c40f73ff6d0d600f25ce67cab943caa766df867b5b1",
          "blockNumber": "0x6c9191",
          "transactionHash": "0x6f6ce4d822e6406d4d62411dd04b0a8c501877fae731dd55d8e79469d63d5a7e",
          "transactionIndex": "0x43",
          "logIndex": "0x6a",
          "removed": false
        },
        {
          "address": "0x1c7d4b196cb0c7b01d743fbc6116a902379c7238",
          "topics": [
            "0xddf252ad1be2c89b69c2b068fc378daa952ba7f163c4a11628f55a4df523b3ef",
            "0x000000000000000000000000b7d030f7c6406446e703e73b3d1dd8611a2d87b6",
            "0x000000000000000000000000feed501c2b21d315f04946f85fc6416b640240b5"
          ],
          "data": "0x00000000000000000000000000000000000000000000000000000000000f4240",
          "blockHash": "0xe4d43d9eda72627fae4d4c40f73ff6d0d600f25ce67cab943caa766df867b5b1",
          "blockNumber": "0x6c9191",
          "transactionHash": "0x6f6ce4d822e6406d4d62411dd04b0a8c501877fae731dd55d8e79469d63d5a7e",
          "transactionIndex": "0x43",
          "logIndex": "0x6b",
          "removed": false
        },
        {
          "address": "0xfeed501c2b21d315f04946f85fc6416b640240b5",
          "topics": [
            "0xc42079f94a6350d7e6235f29174924f928cc2ac818eb64fed8004e115fbcca67",
            "0x0000000000000000000000003bfa4769fb09eefc5a80d6e87c3b9c650f7ae48e",
            "0x000000000000000000000000b7d030f7c6406446e703e73b3d1dd8611a2d87b6"
          ],
          "data": "0x00000000000000000000000000000000000000000000000000000000000f4240ffffffffffffffffffffffffffffffffffffffffffffffffffffffa1517380f7000000000000000000000000000000000000027dba2c9e263a27cc578c543987000000000000000000000000000000000000000000000000021b07d0172871d2000000000000000000000000000000000000000000000000000000000001f88c",
          "blockHash": "0xe4d43d9eda72627fae4d4c40f73ff6d0d600f25ce67cab943caa766df867b5b1",
          "blockNumber": "0x6c9191",
          "transactionHash": "0x6f6ce4d822e6406d4d62411dd04b0a8c501877fae731dd55d8e79469d63d5a7e",
          "transactionIndex": "0x43",
          "logIndex": "0x6c",
          "removed": false
        }
      ],
      "logsBloom": "0x00000000000000000000000000000000000000000000040000000000000200000000000000000000000000000000000000000000000020000000000000000000000800000000004800000008000000000000000000400000000000000000000000000000000000000000000000000000000000000000000200000010000800000040000000100000000800000000000000000000000000000000000000000020000020000000000000000000000000000000000800000000200000000000000000000002000080000002000000000000000000000000000000000000000000000000000000000000000010000000000000000000000000400000200000000000",
      "type": "0x2",
      "transactionHash": "0x6f6ce4d822e6406d4d62411dd04b0a8c501877fae731dd55d8e79469d63d5a7e",
      "transactionIndex": "0x43",
      "blockHash": "0xe4d43d9eda72627fae4d4c40f73ff6d0d600f25ce67cab943caa766df867b5b1",
      "blockNumber": "0x6c9191",
      "gasUsed": "0x1bc59",
      "effectiveGasPrice": "0x980b09c6c",
      "from": "0xb7d030f7c6406446e703e73b3d1dd8611a2d87b6",
      "to": "0x3bfa4769fb09eefc5a80d6e87c3b9c650f7ae48e",
      "contractAddress": null
    }
  ],
  "libraries": [],
  "pending": [],
  "returns": {},
  "timestamp": 1732097645,
  "chain": 11155111,
  "commit": "07515e4"
}