{
  "transactions": [
    {
      "hash": "0x8e1c1eaa25ff08163b0e43210b2bcde848c778d59acebeb757ed46eed8347c4d",
      "transactionType": "CREATE",
      "contractName": null,
      "contractAddress": "0x353d0e3aa8dc709934ca0e023181a53404e9c317",
      "function": null,
      "arguments": null,
      "transaction": {
        "from": "0xb7d030f7c6406446e703e73b3d1dd8611a2d87b6",
        "gas": "0xcf1da",
        "value": "0x0",
        "input": "0x608060405234801562000010575f80fd5b5060405162000cd938038062000cd98339810160408190526200003391620001a8565b8282826003620000448382620002b8565b506004620000538282620002b8565b5050506001600160a01b0381166200008457604051631e4fbdf760e01b81525f600482015260240160405180910390fd5b6200008f8162000099565b5050505062000380565b600580546001600160a01b038381166001600160a01b0319831681179093556040519116919082907f8be0079c531659141344cd1fd0a4f28419497f9722a3daafe3b4186f6b6457e0905f90a35050565b634e487b7160e01b5f52604160045260245ffd5b5f82601f8301126200010e575f80fd5b81516001600160401b03808211156200012b576200012b620000ea565b604051601f8301601f19908116603f01168101908282118183101715620001565762000156620000ea565b8160405283815260209250868385880101111562000172575f80fd5b5f91505b8382101562000195578582018301518183018401529082019062000176565b5f93810190920192909252949350505050565b5f805f60608486031215620001bb575f80fd5b83516001600160a01b0381168114620001d2575f80fd5b60208501519093506001600160401b0380821115620001ef575f80fd5b620001fd87838801620000fe565b9350604086015191508082111562000213575f80fd5b506200022286828701620000fe565b9150509250925092565b600181811c908216806200024157607f821691505b6020821081036200026057634e487b7160e01b5f52602260045260245ffd5b50919050565b601f821115620002b3575f81815260208120601f850160051c810160208610156200028e5750805b601f850160051c820191505b81811015620002af578281556001016200029a565b5050505b505050565b81516001600160401b03811115620002d457620002d4620000ea565b620002ec81620002e584546200022c565b8462000266565b602080601f83116001811462000322575f84156200030a5750858301515b5f19600386901b1c1916600185901b178555620002af565b5f85815260208120601f198616915b82811015620003525788860151825594840194600190910190840162000331565b50858210156200037057878501515f19600388901b60f8161c191681555b5050505050600190811b01905550565b61094b806200038e5f395ff3fe608060405234801561000f575f80fd5b50600436106100f0575f3560e01c806370a082311161009357806395d89b411161006357806395d89b41146101ef578063a9059cbb146101f7578063dd62ed3e1461020a578063f2fde38b14610242575f80fd5b806370a0823114610191578063715018a6146101b957806379cc6790146101c15780638da5cb5b146101d4575f80fd5b806323b872dd116100ce57806323b872dd14610147578063313ce5671461015a57806340c10f191461016957806342966c681461017e575f80fd5b806306fdde03146100f4578063095ea7b31461011257806318160ddd14610135575b5f80fd5b6100fc610255565b604051610109919061078f565b60405180910390f35b6101256101203660046107f5565b6102e5565b6040519015158152602001610109565b6002545b604051908152602001610109565b61012561015536600461081d565b6102fe565b60405160128152602001610109565b61017c6101773660046107f5565b610321565b005b61017c61018c366004610856565b610337565b61013961019f36600461086d565b6001600160a01b03165f9081526020819052604090205490565b61017c610344565b61017c6101cf3660046107f5565b610357565b6005546040516001600160a01b039091168152602001610109565b6100fc61036c565b6101256102053660046107f5565b61037b565b61013961021836600461088d565b6001600160a01b039182165f90815260016020908152604080832093909416825291909152205490565b61017c61025036600461086d565b610388565b606060038054610264906108be565b80601f0160208091040260200160405190810160405280929190818152602001828054610290906108be565b80156102db5780601f106102b2576101008083540402835291602001916102db565b820191905f5260205f20905b8154815290600101906020018083116102be57829003601f168201915b5050505050905090565b5f336102f28185856103c7565b60019150505b92915050565b5f3361030b8582856103d9565b610316858585610454565b506001949350505050565b6103296104b1565b61033382826104de565b5050565b6103413382610512565b50565b61034c6104b1565b6103555f610546565b565b6103628233836103d9565b6103338282610512565b606060048054610264906108be565b5f336102f2818585610454565b6103906104b1565b6001600160a01b0381166103be57604051631e4fbdf760e01b81525f60048201526024015b60405180910390fd5b61034181610546565b6103d48383836001610597565b505050565b6001600160a01b038381165f908152600160209081526040808320938616835292905220545f19811461044e578181101561044057604051637dc7a0d960e11b81526001600160a01b038416600482015260248101829052604481018390526064016103b5565b61044e84848484035f610597565b50505050565b6001600160a01b03831661047d57604051634b637e8f60e11b81525f60048201526024016103b5565b6001600160a01b0382166104a65760405163ec442f0560e01b81525f60048201526024016103b5565b6103d4838383610669565b6005546001600160a01b031633146103555760405163118cdaa760e01b81523360048201526024016103b5565b6001600160a01b0382166105075760405163ec442f0560e01b81525f60048201526024016103b5565b6103335f8383610669565b6001600160a01b03821661053b57604051634b637e8f60e11b81525f60048201526024016103b5565b610333825f83610669565b600580546001600160a01b038381166001600160a01b0319831681179093556040519116919082907f8be0079c531659141344cd1fd0a4f28419497f9722a3daafe3b4186f6b6457e0905f90a35050565b6001600160a01b0384166105c05760405163e602df0560e01b81525f60048201526024016103b5565b6001600160a01b0383166105e957604051634a1406b160e11b81525f60048201526024016103b5565b6001600160a01b038085165f908152600160209081526040808320938716835292905220829055801561044e57826001600160a01b0316846001600160a01b03167f8c5be1e5ebec7d5bd14f71427d1e84f3dd0314c0f7b2291e5b200ac8c7c3b9258460405161065b91815260200190565b60405180910390a350505050565b6001600160a01b038316610693578060025f82825461068891906108f6565b909155506107039050565b6001600160a01b0383165f90815260208190526040902054818110156106e55760405163391434e360e21b81526001600160a01b038516600482015260248101829052604481018390526064016103b5565b6001600160a01b0384165f9081526020819052604090209082900390555b6001600160a01b03821661071f5760028054829003905561073d565b6001600160a01b0382165f9081526020819052604090208054820190555b816001600160a01b0316836001600160a01b03167fddf252ad1be2c89b69c2b068fc378daa952ba7f163c4a11628f55a4df523b3ef8360405161078291815260200190565b60405180910390a3505050565b5f6020808352835180828501525f5b818110156107ba5785810183015185820160400152820161079e565b505f604082860101526040601f19601f8301168501019250505092915050565b80356001600160a01b03811681146107f0575f80fd5b919050565b5f8060408385031215610806575f80fd5b61080f836107da565b946020939093013593505050565b5f805f6060848603121561082f575f80fd5b610838846107da565b9250610846602085016107da565b9150604084013590509250925092565b5f60208284031215610866575f80fd5b5035919050565b5f6020828403121561087d575f80fd5b610886826107da565b9392505050565b5f806040838503121561089e575f80fd5b6108a7836107da565b91506108b5602084016107da565b90509250929050565b600181811c908216806108d257607f821691505b6020821081036108f057634e487b7160e01b5f52602260045260245ffd5b50919050565b808201808211156102f857634e487b7160e01b5f52601160045260245ffdfea2646970667358221220d4345b66bfb7412d2ea509531419dca8158f537841ee0d9aa80e3d80c30a67d364736f6c63430008140033000000000000000000000000b7d030f7c6406446e703e73b3d1dd8611a2d87b6000000000000000000000000000000000000000000000000000000000000006000000000000000000000000000000000000000000000000000000000000000a0000000000000000000000000000000000000000000000000000000000000000a546574686572205553440000000000000000000000000000000000000000000000000000000000000000000000000000000000000000000000000000000000045553445400000000000000000000000000000000000000000000000000000000",
        "nonce": "0x1e3",
        "chainId": "0xaa36a7"
      },
      "additionalContracts": [],
      "isFixedGasLimit": false
    },
    {
      "hash": "0xea472bd3d70851a854c2bdd1df90ad38e369554eeabc4b1554d77c222627760e",
      "transactionType": "CALL",
      "contractName": null,
      "contractAddress": "0x353d0e3aa8dc709934ca0e023181a53404e9c317",
      "function": "mint(address,uint256)",
      "arguments": [
        "0xB7d030F7c6406446e703E73B3d1dd8611A2D87b6",
        "1000000000000"
      ],
      "transaction": {
        "from": "0xb7d030f7c6406446e703e73b3d1dd8611a2d87b6",
        "to": "0x353d0e3aa8dc709934ca0e023181a53404e9c317",
        "gas": "0x17d0a",
        "value": "0x0",
        "input": "0x40c10f19000000000000000000000000b7d030f7c6406446e703e73b3d1dd8611a2d87b6000000000000000000000000000000000000000000000000000000e8d4a51000",
        "nonce": "0x1e4",
        "chainId": "0xaa36a7"
      },
      "additionalContracts": [],
      "isFixedGasLimit": false
    },
    {
      "hash": "0x1240d56656f11254b199150dca1923ba3cacbfa89a44339f8fc666dfcfe0b7fc",
      "transactionType": "CALL",
      "contractName": null,
      "contractAddress": "0x353d0e3aa8dc709934ca0e023181a53404e9c317",
      "function": "mint(address,uint256)",
      "arguments": [
        "0x4F88F1014Dd6Ca0507780380111c098BeE6b87e6",
        "1000000000000"
      ],
      "transaction": {
        "from": "0xb7d030f7c6406446e703e73b3d1dd8611a2d87b6",
        "to": "0x353d0e3aa8dc709934ca0e023181a53404e9c317",
        "gas": "0x131c4",
        "value": "0x0",
        "input": "0x40c10f190000000000000000000000004f88f1014dd6ca0507780380111c098bee6b87e6000000000000000000000000000000000000000000000000000000e8d4a51000",
        "nonce": "0x1e5",
        "chainId": "0xaa36a7"
      },
      "additionalContracts": [],
      "isFixedGasLimit": false
    },
    {
      "hash": "0xec33d262ebb59051862ee2daf0e2d76320a93ff074440b966201c94208d7e8c7",
      "transactionType": "CALL",
      "contractName": null,
      "contractAddress": "0x353d0e3aa8dc709934ca0e023181a53404e9c317",
      "function": "mint(address,uint256)",
      "arguments": [
        "0xC31f6b8133d618aD2ff1AC5fAA3Fc4B20557B901",
        "1000000000000"
      ],
      "transaction": {
        "from": "0xb7d030f7c6406446e703e73b3d1dd8611a2d87b6",
        "to": "0x353d0e3aa8dc709934ca0e023181a53404e9c317",
        "gas": "0x131c4",
        "value": "0x0",
        "input": "0x40c10f19000000000000000000000000c31f6b8133d618ad2ff1ac5faa3fc4b20557b901000000000000000000000000000000000000000000000000000000e8d4a51000",
        "nonce": "0x1e6",
        "chainId": "0xaa36a7"
      },
      "additionalContracts": [],
      "isFixedGasLimit": false
    },
    {
      "hash": "0x007a0c8417ed2f844dc39dfaeb6ef8ffe796e28e331d759d64e6af713a6facf3",
      "transactionType": "CALL",
      "contractName": null,
      "contractAddress": "0x353d0e3aa8dc709934ca0e023181a53404e9c317",
      "function": "mint(address,uint256)",
      "arguments": [
        "0x66E675533020c3CDeE2F33E372320B7e2692211e",
        "1000000000000"
      ],
      "transaction": {
        "from": "0xb7d030f7c6406446e703e73b3d1dd8611a2d87b6",
        "to": "0x353d0e3aa8dc709934ca0e023181a53404e9c317",
        "gas": "0x131c4",
        "value": "0x0",
        "input": "0x40c10f1900000000000000000000000066e675533020c3cdee2f33e372320b7e2692211e000000000000000000000000000000000000000000000000000000e8d4a51000",
        "nonce": "0x1e7",
        "chainId": "0xaa36a7"
      },
      "additionalContracts": [],
      "isFixedGasLimit": false
    },
    {
      "hash": "0x038d3eca7a939fcfac08676a444f5585e52abe9b5df32d6261cf06f5504c6738",
      "transactionType": "CREATE",
      "contractName": null,
      "contractAddress": "0x52df2bf0e618474037feb0e80794543833245f95",
      "function": null,
      "arguments": null,
      "transaction": {
        "from": "0xb7d030f7c6406446e703e73b3d1dd8611a2d87b6",
        "gas": "0xcf1bb",
        "value": "0x0",
        "input": "0x608060405234801562000010575f80fd5b5060405162000cd938038062000cd98339810160408190526200003391620001a8565b8282826003620000448382620002b8565b506004620000538282620002b8565b5050506001600160a01b0381166200008457604051631e4fbdf760e01b81525f600482015260240160405180910390fd5b6200008f8162000099565b5050505062000380565b600580546001600160a01b038381166001600160a01b0319831681179093556040519116919082907f8be0079c531659141344cd1fd0a4f28419497f9722a3daafe3b4186f6b6457e0905f90a35050565b634e487b7160e01b5f52604160045260245ffd5b5f82601f8301126200010e575f80fd5b81516001600160401b03808211156200012b576200012b620000ea565b604051601f8301601f19908116603f01168101908282118183101715620001565762000156620000ea565b8160405283815260209250868385880101111562000172575f80fd5b5f91505b8382101562000195578582018301518183018401529082019062000176565b5f93810190920192909252949350505050565b5f805f60608486031215620001bb575f80fd5b83516001600160a01b0381168114620001d2575f80fd5b60208501519093506001600160401b0380821115620001ef575f80fd5b620001fd87838801620000fe565b9350604086015191508082111562000213575f80fd5b506200022286828701620000fe565b9150509250925092565b600181811c908216806200024157607f821691505b6020821081036200026057634e487b7160e01b5f52602260045260245ffd5b50919050565b601f821115620002b3575f81815260208120601f850160051c810160208610156200028e5750805b601f850160051c820191505b81811015620002af578281556001016200029a565b5050505b505050565b81516001600160401b03811115620002d457620002d4620000ea565b620002ec81620002e584546200022c565b8462000266565b602080601f83116001811462000322575f84156200030a5750858301515b5f19600386901b1c1916600185901b178555620002af565b5f85815260208120601f198616915b82811015620003525788860151825594840194600190910190840162000331565b50858210156200037057878501515f19600388901b60f8161c191681555b5050505050600190811b01905550565b61094b806200038e5f395ff3fe608060405234801561000f575f80fd5b50600436106100f0575f3560e01c806370a082311161009357806395d89b411161006357806395d89b41146101ef578063a9059cbb146101f7578063dd62ed3e1461020a578063f2fde38b14610242575f80fd5b806370a0823114610191578063715018a6146101b957806379cc6790146101c15780638da5cb5b146101d4575f80fd5b806323b872dd116100ce57806323b872dd14610147578063313ce5671461015a57806340c10f191461016957806342966c681461017e575f80fd5b806306fdde03146100f4578063095ea7b31461011257806318160ddd14610135575b5f80fd5b6100fc610255565b604051610109919061078f565b60405180910390f35b6101256101203660046107f5565b6102e5565b6040519015158152602001610109565b6002545b604051908152602001610109565b61012561015536600461081d565b6102fe565b60405160128152602001610109565b61017c6101773660046107f5565b610321565b005b61017c61018c366004610856565b610337565b61013961019f36600461086d565b6001600160a01b03165f9081526020819052604090205490565b61017c610344565b61017c6101cf3660046107f5565b610357565b6005546040516001600160a01b039091168152602001610109565b6100fc61036c565b6101256102053660046107f5565b61037b565b61013961021836600461088d565b6001600160a01b039182165f90815260016020908152604080832093909416825291909152205490565b61017c61025036600461086d565b610388565b606060038054610264906108be565b80601f0160208091040260200160405190810160405280929190818152602001828054610290906108be565b80156102db5780601f106102b2576101008083540402835291602001916102db565b820191905f5260205f20905b8154815290600101906020018083116102be57829003601f168201915b5050505050905090565b5f336102f28185856103c7565b60019150505b92915050565b5f3361030b8582856103d9565b610316858585610454565b506001949350505050565b6103296104b1565b61033382826104de565b5050565b6103413382610512565b50565b61034c6104b1565b6103555f610546565b565b6103628233836103d9565b6103338282610512565b606060048054610264906108be565b5f336102f2818585610454565b6103906104b1565b6001600160a01b0381166103be57604051631e4fbdf760e01b81525f60048201526024015b60405180910390fd5b61034181610546565b6103d48383836001610597565b505050565b6001600160a01b038381165f908152600160209081526040808320938616835292905220545f19811461044e578181101561044057604051637dc7a0d960e11b81526001600160a01b038416600482015260248101829052604481018390526064016103b5565b61044e84848484035f610597565b50505050565b6001600160a01b03831661047d57604051634b637e8f60e11b81525f60048201526024016103b5565b6001600160a01b0382166104a65760405163ec442f0560e01b81525f60048201526024016103b5565b6103d4838383610669565b6005546001600160a01b031633146103555760405163118cdaa760e01b81523360048201526024016103b5565b6001600160a01b0382166105075760405163ec442f0560e01b81525f60048201526024016103b5565b6103335f8383610669565b6001600160a01b03821661053b57604051634b637e8f60e11b81525f60048201526024016103b5565b610333825f83610669565b600580546001600160a01b038381166001600160a01b0319831681179093556040519116919082907f8be0079c531659141344cd1fd0a4f28419497f9722a3daafe3b4186f6b6457e0905f90a35050565b6001600160a01b0384166105c05760405163e602df0560e01b81525f60048201526024016103b5565b6001600160a01b0383166105e957604051634a1406b160e11b81525f60048201526024016103b5565b6001600160a01b038085165f908152600160209081526040808320938716835292905220829055801561044e57826001600160a01b0316846001600160a01b03167f8c5be1e5ebec7d5bd14f71427d1e84f3dd0314c0f7b2291e5b200ac8c7c3b9258460405161065b91815260200190565b60405180910390a350505050565b6001600160a01b038316610693578060025f82825461068891906108f6565b909155506107039050565b6001600160a01b0383165f90815260208190526040902054818110156106e55760405163391434e360e21b81526001600160a01b038516600482015260248101829052604481018390526064016103b5565b6001600160a01b0384165f9081526020819052604090209082900390555b6001600160a01b03821661071f5760028054829003905561073d565b6001600160a01b0382165f9081526020819052604090208054820190555b816001600160a01b0316836001600160a01b03167fddf252ad1be2c89b69c2b068fc378daa952ba7f163c4a11628f55a4df523b3ef8360405161078291815260200190565b60405180910390a3505050565b5f6020808352835180828501525f5b818110156107ba5785810183015185820160400152820161079e565b505f604082860101526040601f19601f8301168501019250505092915050565b80356001600160a01b03811681146107f0575f80fd5b919050565b5f8060408385031215610806575f80fd5b61080f836107da565b946020939093013593505050565b5f805f6060848603121561082f575f80fd5b610838846107da565b9250610846602085016107da565b9150604084013590509250925092565b5f60208284031215610866575f80fd5b5035919050565b5f6020828403121561087d575f80fd5b610886826107da565b9392505050565b5f806040838503121561089e575f80fd5b6108a7836107da565b91506108b5602084016107da565b90509250929050565b600181811c908216806108d257607f821691505b6020821081036108f057634e487b7160e01b5f52602260045260245ffd5b50919050565b808201808211156102f857634e487b7160e01b5f52601160045260245ffdfea2646970667358221220d4345b66bfb7412d2ea509531419dca8158f537841ee0d9aa80e3d80c30a67d364736f6c63430008140033000000000000000000000000b7d030f7c6406446e703e73b3d1dd8611a2d87b6000000000000000000000000000000000000000000000000000000000000006000000000000000000000000000000000000000000000000000000000000000a0000000000000000000000000000000000000000000000000000000000000000855534420436f696e00000000000000000000000000000000000000000000000000000000000000000000000000000000000000000000000000000000000000045553444300000000000000000000000000000000000000000000000000000000",
        "nonce": "0x1e8",
        "chainId": "0xaa36a7"
      },
      "additionalContracts": [],
      "isFixedGasLimit": false
    },
    {
      "hash": "0x2f9abb853003688a90b53806766a22dbe62bdee4c3c45896112e910af3049a0f",
      "transactionType": "CALL",
      "contractName": null,
      "contractAddress": "0x52df2bf0e618474037feb0e80794543833245f95",
      "function": "mint(address,uint256)",
      "arguments": [
        "0xB7d030F7c6406446e703E73B3d1dd8611A2D87b6",
        "1000000000000"
      ],
      "transaction": {
        "from": "0xb7d030f7c6406446e703e73b3d1dd8611a2d87b6",
        "to": "0x52df2bf0e618474037feb0e80794543833245f95",
        "gas": "0x17d0a",
        "value": "0x0",
        "input": "0x40c10f19000000000000000000000000b7d030f7c6406446e703e73b3d1dd8611a2d87b6000000000000000000000000000000000000000000000000000000e8d4a51000",
        "nonce": "0x1e9",
        "chainId": "0xaa36a7"
      },
      "additionalContracts": [],
      "isFixedGasLimit": false
    },
    {
      "hash": "0x3c4ebb99bd90ef4e55a04a789b743e4292d4881dce32cc2cbbeeabdd7a66c9e4",
      "transactionType": "CALL",
      "contractName": null,
      "contractAddress": "0x52df2bf0e618474037feb0e80794543833245f95",
      "function": "mint(address,uint256)",
      "arguments": [
        "0x4F88F1014Dd6Ca0507780380111c098BeE6b87e6",
        "1000000000000"
      ],
      "transaction": {
        "from": "0xb7d030f7c6406446e703e73b3d1dd8611a2d87b6",
        "to": "0x52df2bf0e618474037feb0e80794543833245f95",
        "gas": "0x131c4",
        "value": "0x0",
        "input": "0x40c10f190000000000000000000000004f88f1014dd6ca0507780380111c098bee6b87e6000000000000000000000000000000000000000000000000000000e8d4a51000",
        "nonce": "0x1ea",
        "chainId": "0xaa36a7"
      },
      "additionalContracts": [],
      "isFixedGasLimit": false
    },
    {
      "hash": "0xb4cb8024c1d11a66dd9ba92bfa409b2b2cbef3d5d3cd6e40be4e1e9f7f0bbaa2",
      "transactionType": "CALL",
      "contractName": null,
      "contractAddress": "0x52df2bf0e618474037feb0e80794543833245f95",
      "function": "mint(address,uint256)",
      "arguments": [
        "0xC31f6b8133d618aD2ff1AC5fAA3Fc4B20557B901",
        "1000000000000"
      ],
      "transaction": {
        "from": "0xb7d030f7c6406446e703e73b3d1dd8611a2d87b6",
        "to": "0x52df2bf0e618474037feb0e80794543833245f95",
        "gas": "0x131c4",
        "value": "0x0",
        "input": "0x40c10f19000000000000000000000000c31f6b8133d618ad2ff1ac5faa3fc4b20557b901000000000000000000000000000000000000000000000000000000e8d4a51000",
        "nonce": "0x1eb",
        "chainId": "0xaa36a7"
      },
      "additionalContracts": [],
      "isFixedGasLimit": false
    },
    {
      "hash": "0x95b1c5414492f319a2f3afed896a0f78b2ea1fb557e0a5065626e7b514ec6147",
      "transactionType": "CALL",
      "contractName": null,
      "contractAddress": "0x52df2bf0e618474037feb0e80794543833245f95",
      "function": "mint(address,uint256)",
      "arguments": [
        "0x66E675533020c3CDeE2F33E372320B7e2692211e",
        "1000000000000"
      ],
      "transaction": {
        "from": "0xb7d030f7c6406446e703e73b3d1dd8611a2d87b6",
        "to": "0x52df2bf0e618474037feb0e80794543833245f95",
        "gas": "0x131c4",
        "value": "0x0",
        "input": "0x40c10f1900000000000000000000000066e675533020c3cdee2f33e372320b7e2692211e000000000000000000000000000000000000000000000000000000e8d4a51000",
        "nonce": "0x1ec",
        "chainId": "0xaa36a7"
      },
      "additionalContracts": [],
      "isFixedGasLimit": false
    },
    {
      "hash": "0x1b71b1df3c1ed0993e3f54a60d23f7b50f467b940017184dc0fb33fdea71bf0a",
      "transactionType": "CREATE",
      "contractName": null,
      "contractAddress": "0xbf064ed5c19fac019c405a39c19dba2f5677cde0",
      "function": null,
      "arguments": null,
      "transaction": {
        "from": "0xb7d030f7c6406446e703e73b3d1dd8611a2d87b6",
        "gas": "0xcf1e9",
        "value": "0x0",
        "input": "0x608060405234801562000010575f80fd5b5060405162000cd938038062000cd98339810160408190526200003391620001a8565b8282826003620000448382620002b8565b506004620000538282620002b8565b5050506001600160a01b0381166200008457604051631e4fbdf760e01b81525f600482015260240160405180910390fd5b6200008f8162000099565b5050505062000380565b600580546001600160a01b038381166001600160a01b0319831681179093556040519116919082907f8be0079c531659141344cd1fd0a4f28419497f9722a3daafe3b4186f6b6457e0905f90a35050565b634e487b7160e01b5f52604160045260245ffd5b5f82601f8301126200010e575f80fd5b81516001600160401b03808211156200012b576200012b620000ea565b604051601f8301601f19908116603f01168101908282118183101715620001565762000156620000ea565b8160405283815260209250868385880101111562000172575f80fd5b5f91505b8382101562000195578582018301518183018401529082019062000176565b5f93810190920192909252949350505050565b5f805f60608486031215620001bb575f80fd5b83516001600160a01b0381168114620001d2575f80fd5b60208501519093506001600160401b0380821115620001ef575f80fd5b620001fd87838801620000fe565b9350604086015191508082111562000213575f80fd5b506200022286828701620000fe565b9150509250925092565b600181811c908216806200024157607f821691505b6020821081036200026057634e487b7160e01b5f52602260045260245ffd5b50919050565b601f821115620002b3575f81815260208120601f850160051c810160208610156200028e5750805b601f850160051c820191505b81811015620002af578281556001016200029a565b5050505b505050565b81516001600160401b03811115620002d457620002d4620000ea565b620002ec81620002e584546200022c565b8462000266565b602080601f83116001811462000322575f84156200030a5750858301515b5f19600386901b1c1916600185901b178555620002af565b5f85815260208120601f198616915b82811015620003525788860151825594840194600190910190840162000331565b50858210156200037057878501515f19600388901b60f8161c191681555b5050505050600190811b01905550565b61094b806200038e5f395ff3fe608060405234801561000f575f80fd5b50600436106100f0575f3560e01c806370a082311161009357806395d89b411161006357806395d89b41146101ef578063a9059cbb146101f7578063dd62ed3e1461020a578063f2fde38b14610242575f80fd5b806370a0823114610191578063715018a6146101b957806379cc6790146101c15780638da5cb5b146101d4575f80fd5b806323b872dd116100ce57806323b872dd14610147578063313ce5671461015a57806340c10f191461016957806342966c681461017e575f80fd5b806306fdde03146100f4578063095ea7b31461011257806318160ddd14610135575b5f80fd5b6100fc610255565b604051610109919061078f565b60405180910390f35b6101256101203660046107f5565b6102e5565b6040519015158152602001610109565b6002545b604051908152602001610109565b61012561015536600461081d565b6102fe565b60405160128152602001610109565b61017c6101773660046107f5565b610321565b005b61017c61018c366004610856565b610337565b61013961019f36600461086d565b6001600160a01b03165f9081526020819052604090205490565b61017c610344565b61017c6101cf3660046107f5565b610357565b6005546040516001600160a01b039091168152602001610109565b6100fc61036c565b6101256102053660046107f5565b61037b565b61013961021836600461088d565b6001600160a01b039182165f90815260016020908152604080832093909416825291909152205490565b61017c61025036600461086d565b610388565b606060038054610264906108be565b80601f0160208091040260200160405190810160405280929190818152602001828054610290906108be565b80156102db5780601f106102b2576101008083540402835291602001916102db565b820191905f5260205f20905b8154815290600101906020018083116102be57829003601f168201915b5050505050905090565b5f336102f28185856103c7565b60019150505b92915050565b5f3361030b8582856103d9565b610316858585610454565b506001949350505050565b6103296104b1565b61033382826104de565b5050565b6103413382610512565b50565b61034c6104b1565b6103555f610546565b565b6103628233836103d9565b6103338282610512565b606060048054610264906108be565b5f336102f2818585610454565b6103906104b1565b6001600160a01b0381166103be57604051631e4fbdf760e01b81525f60048201526024015b60405180910390fd5b61034181610546565b6103d48383836001610597565b505050565b6001600160a01b038381165f908152600160209081526040808320938616835292905220545f19811461044e578181101561044057604051637dc7a0d960e11b81526001600160a01b038416600482015260248101829052604481018390526064016103b5565b61044e84848484035f610597565b50505050565b6001600160a01b03831661047d57604051634b637e8f60e11b81525f60048201526024016103b5565b6001600160a01b0382166104a65760405163ec442f0560e01b81525f60048201526024016103b5565b6103d4838383610669565b6005546001600160a01b031633146103555760405163118cdaa760e01b81523360048201526024016103b5565b6001600160a01b0382166105075760405163ec442f0560e01b81525f60048201526024016103b5565b6103335f8383610669565b6001600160a01b03821661053b57604051634b637e8f60e11b81525f60048201526024016103b5565b610333825f83610669565b600580546001600160a01b038381166001600160a01b0319831681179093556040519116919082907f8be0079c531659141344cd1fd0a4f28419497f9722a3daafe3b4186f6b6457e0905f90a35050565b6001600160a01b0384166105c05760405163e602df0560e01b81525f60048201526024016103b5565b6001600160a01b0383166105e957604051634a1406b160e11b81525f60048201526024016103b5565b6001600160a01b038085165f908152600160209081526040808320938716835292905220829055801561044e57826001600160a01b0316846001600160a01b03167f8c5be1e5ebec7d5bd14f71427d1e84f3dd0314c0f7b2291e5b200ac8c7c3b9258460405161065b91815260200190565b60405180910390a350505050565b6001600160a01b038316610693578060025f82825461068891906108f6565b909155506107039050565b6001600160a01b0383165f90815260208190526040902054818110156106e55760405163391434e360e21b81526001600160a01b038516600482015260248101829052604481018390526064016103b5565b6001600160a01b0384165f9081526020819052604090209082900390555b6001600160a01b03821661071f5760028054829003905561073d565b6001600160a01b0382165f9081526020819052604090208054820190555b816001600160a01b0316836001600160a01b03167fddf252ad1be2c89b69c2b068fc378daa952ba7f163c4a11628f55a4df523b3ef8360405161078291815260200190565b60405180910390a3505050565b5f6020808352835180828501525f5b818110156107ba5785810183015185820160400152820161079e565b505f604082860101526040601f19601f8301168501019250505092915050565b80356001600160a01b03811681146107f0575f80fd5b919050565b5f8060408385031215610806575f80fd5b61080f836107da565b946020939093013593505050565b5f805f6060848603121561082f575f80fd5b610838846107da565b9250610846602085016107da565b9150604084013590509250925092565b5f60208284031215610866575f80fd5b5035919050565b5f6020828403121561087d575f80fd5b610886826107da565b9392505050565b5f806040838503121561089e575f80fd5b6108a7836107da565b91506108b5602084016107da565b90509250929050565b600181811c908216806108d257607f821691505b6020821081036108f057634e487b7160e01b5f52602260045260245ffd5b50919050565b808201808211156102f857634e487b7160e01b5f52601160045260245ffdfea2646970667358221220d4345b66bfb7412d2ea509531419dca8158f537841ee0d9aa80e3d80c30a67d364736f6c63430008140033000000000000000000000000b7d030f7c6406446e703e73b3d1dd8611a2d87b6000000000000000000000000000000000000000000000000000000000000006000000000000000000000000000000000000000000000000000000000000000a0000000000000000000000000000000000000000000000000000000000000000b577261707065642042544300000000000000000000000000000000000000000000000000000000000000000000000000000000000000000000000000000000045742544300000000000000000000000000000000000000000000000000000000",
        "nonce": "0x1ed",
        "chainId": "0xaa36a7"
      },
      "additionalContracts": [],
      "isFixedGasLimit": false
    },
    {
      "hash": "0x12b24e26a7292bc6fdb206efd540b47385499832f7f100ca969a517eda624dd6",
      "transactionType": "CALL",
      "contractName": null,
      "contractAddress": "0xbf064ed5c19fac019c405a39c19dba2f5677cde0",
      "function": "mint(address,uint256)",
      "arguments": [
        "0xB7d030F7c6406446e703E73B3d1dd8611A2D87b6",
        "10000000000"
      ],
      "transaction": {
        "from": "0xb7d030f7c6406446e703e73b3d1dd8611a2d87b6",
        "to": "0xbf064ed5c19fac019c405a39c19dba2f5677cde0",
        "gas": "0x17d0a",
        "value": "0x0",
        "input": "0x40c10f19000000000000000000000000b7d030f7c6406446e703e73b3d1dd8611a2d87b600000000000000000000000000000000000000000000000000000002540be400",
        "nonce": "0x1ee",
        "chainId": "0xaa36a7"
      },
      "additionalContracts": [],
      "isFixedGasLimit": false
    },
    {
      "hash": "0x96ec5fa23de7f150c9baaabc2d511ebcffa1158f9802599abe617afe2b1f532c",
      "transactionType": "CALL",
      "contractName": null,
      "contractAddress": "0xbf064ed5c19fac019c405a39c19dba2f5677cde0",
      "function": "mint(address,uint256)",
      "arguments": [
        "0x4F88F1014Dd6Ca0507780380111c098BeE6b87e6",
        "10000000000"
      ],
      "transaction": {
        "from": "0xb7d030f7c6406446e703e73b3d1dd8611a2d87b6",
        "to": "0xbf064ed5c19fac019c405a39c19dba2f5677cde0",
        "gas": "0x131c4",
        "value": "0x0",
        "input": "0x40c10f190000000000000000000000004f88f1014dd6ca0507780380111c098bee6b87e600000000000000000000000000000000000000000000000000000002540be400",
        "nonce": "0x1ef",
        "chainId": "0xaa36a7"
      },
      "additionalContracts": [],
      "isFixedGasLimit": false
    },
    {
      "hash": "0x19fc5c2bf226c71835302df4ca81def4f979779a4239d9edf5b2937d7d9c6f91",
      "transactionType": "CALL",
      "contractName": null,
      "contractAddress": "0xbf064ed5c19fac019c405a39c19dba2f5677cde0",
      "function": "mint(address,uint256)",
      "arguments": [
        "0xC31f6b8133d618aD2ff1AC5fAA3Fc4B20557B901",
        "10000000000"
      ],
      "transaction": {
        "from": "0xb7d030f7c6406446e703e73b3d1dd8611a2d87b6",
        "to": "0xbf064ed5c19fac019c405a39c19dba2f5677cde0",
        "gas": "0x131c4",
        "value": "0x0",
        "input": "0x40c10f19000000000000000000000000c31f6b8133d618ad2ff1ac5faa3fc4b20557b90100000000000000000000000000000000000000000000000000000002540be400",
        "nonce": "0x1f0",
        "chainId": "0xaa36a7"
      },
      "additionalContracts": [],
      "isFixedGasLimit": false
    },
    {
      "hash": "0x5acdbc3ab89fb0a4f61a96374d7fedd7d0a01e2829cdfda416b16ca117bc3f35",
      "transactionType": "CALL",
      "contractName": null,
      "contractAddress": "0xbf064ed5c19fac019c405a39c19dba2f5677cde0",
      "function": "mint(address,uint256)",
      "arguments": [
        "0x66E675533020c3CDeE2F33E372320B7e2692211e",
        "10000000000"
      ],
      "transaction": {
        "from": "0xb7d030f7c6406446e703e73b3d1dd8611a2d87b6",
        "to": "0xbf064ed5c19fac019c405a39c19dba2f5677cde0",
        "gas": "0x131c4",
        "value": "0x0",
        "input": "0x40c10f1900000000000000000000000066e675533020c3cdee2f33e372320b7e2692211e00000000000000000000000000000000000000000000000000000002540be400",
        "nonce": "0x1f1",
        "chainId": "0xaa36a7"
      },
      "additionalContracts": [],
      "isFixedGasLimit": false
    },
    {
      "hash": "0xced01adad791332b4a54a42734dda563c897a190fad60038df75570eafe06861",
      "transactionType": "CALL",
      "contractName": null,
      "contractAddress": "0xa436364dafb5388f4756cd334e41948a3f8bff1d",
      "function": "setAddresses(string[],address[])",
      "arguments": [
        "[\"TOKEN_USDT\", \"TOKEN_USDC\", \"TOKEN_WBTC\"]",
        "[0x353d0E3aa8DC709934Ca0E023181a53404e9c317, 0x52dF2bf0E618474037fEB0e80794543833245f95, 0xbF064eD5c19faC019c405a39C19dBa2f5677Cde0]"
      ],
      "transaction": {
        "from": "0xb7d030f7c6406446e703e73b3d1dd8611a2d87b6",
        "to": "0xa436364dafb5388f4756cd334e41948a3f8bff1d",
        "gas": "0x24f96",
        "value": "0x0",
        "input": "0x7d69a892000000000000000000000000000000000000000000000000000000000000004000000000000000000000000000000000000000000000000000000000000001800000000000000000000000000000000000000000000000000000000000000003000000000000000000000000000000000000000000000000000000000000006000000000000000000000000000000000000000000000000000000000000000a000000000000000000000000000000000000000000000000000000000000000e0000000000000000000000000000000000000000000000000000000000000000a544f4b454e5f5553445400000000000000000000000000000000000000000000000000000000000000000000000000000000000000000000000000000000000a544f4b454e5f5553444300000000000000000000000000000000000000000000000000000000000000000000000000000000000000000000000000000000000a544f4b454e5f57425443000000000000000000000000000000000000000000000000000000000000000000000000000000000000000000000000000000000003000000000000000000000000353d0e3aa8dc709934ca0e023181a53404e9c31700000000000000000000000052df2bf0e618474037feb0e80794543833245f95000000000000000000000000bf064ed5c19fac019c405a39c19dba2f5677cde0",
        "nonce": "0x1f2",
        "chainId": "0xaa36a7"
      },
      "additionalContracts": [],
      "isFixedGasLimit": false
    }
  ],
  "receipts": [
    {
      "status": "0x1",
      "cumulativeGasUsed": "0x1916898",
      "logs": [
        {
          "address": "0x353d0e3aa8dc709934ca0e023181a53404e9c317",
          "topics": [
            "0x8be0079c531659141344cd1fd0a4f28419497f9722a3daafe3b4186f6b6457e0",
            "0x0000000000000000000000000000000000000000000000000000000000000000",
            "0x000000000000000000000000b7d030f7c6406446e703e73b3d1dd8611a2d87b6"
          ],
          "data": "0x",
          "blockHash": "0x7957f82b55891930ead9a65cb51475bbb6c6df287ddc7a32dfabcb3e83690d47",
          "blockNumber": "0x69cf06",
          "transactionHash": "0x8e1c1eaa25ff08163b0e43210b2bcde848c778d59acebeb757ed46eed8347c4d",
          "transactionIndex": "0x92",
          "logIndex": "0xde",
          "removed": false
        }
      ],
      "logsBloom": "0x00000000000000000000000000000000000000000000000000800000000000000000000000000000000000000000000000000000000002000000000000000000000000000000000000000000000000000001000000400000000000000000000000000000020000000000000000000800000000000000000200000000000000400000000000000800000000000000000000000000000000000080000000000020000000000000000000000000000000000000000000000000000000000000000000000000000000000000000000000000000000000000000000000000000020000000000000000000000000000000000000000000000000000000000000000000",
      "type": "0x2",
      "transactionHash": "0x8e1c1eaa25ff08163b0e43210b2bcde848c778d59acebeb757ed46eed8347c4d",
      "transactionIndex": "0x92",
      "blockHash": "0x7957f82b55891930ead9a65cb51475bbb6c6df287ddc7a32dfabcb3e83690d47",
      "blockNumber": "0x69cf06",
      "gasUsed": "0x9f51e",
      "effectiveGasPrice": "0x17340563",
      "from": "0xb7d030f7c6406446e703e73b3d1dd8611a2d87b6",
      "to": null,
      "contractAddress": "0x353d0e3aa8dc709934ca0e023181a53404e9c317"
    },
    {
      "status": "0x1",
      "cumulativeGasUsed": "0x1927c77",
      "logs": [
        {
          "address": "0x353d0e3aa8dc709934ca0e023181a53404e9c317",
          "topics": [
            "0xddf252ad1be2c89b69c2b068fc378daa952ba7f163c4a11628f55a4df523b3ef",
            "0x0000000000000000000000000000000000000000000000000000000000000000",
            "0x000000000000000000000000b7d030f7c6406446e703e73b3d1dd8611a2d87b6"
          ],
          "data": "0x000000000000000000000000000000000000000000000000000000e8d4a51000",
          "blockHash": "0x7957f82b55891930ead9a65cb51475bbb6c6df287ddc7a32dfabcb3e83690d47",
          "blockNumber": "0x69cf06",
          "transactionHash": "0xea472bd3d70851a854c2bdd1df90ad38e369554eeabc4b1554d77c222627760e",
          "transactionIndex": "0x93",
          "logIndex": "0xdf",
          "removed": false
        }
      ],
      "logsBloom": "0x00000000000000000000000000000000000000000000000000000000000000000000000000000000000000000000000000000000000002000000000000000000000000000000000000000008000000000000000000400000000000000000000000000000020000000000000000000800000000000000000200000010000000000000000000000800000000000000000000000000000000000080000000000020000000000000000000000000000000000000000000000000000000000000000000000002000000000000000000000000000000000000000000000000000020000000000000000000000000000000000000000000000000000000000000000000",
      "type": "0x2",
      "transactionHash": "0xea472bd3d70851a854c2bdd1df90ad38e369554eeabc4b1554d77c222627760e",
      "transactionIndex": "0x93",
      "blockHash": "0x7957f82b55891930ead9a65cb51475bbb6c6df287ddc7a32dfabcb3e83690d47",
      "blockNumber": "0x69cf06",
      "gasUsed": "0x113df",
      "effectiveGasPrice": "0x17340563",
      "from": "0xb7d030f7c6406446e703e73b3d1dd8611a2d87b6",
      "to": "0x353d0e3aa8dc709934ca0e023181a53404e9c317",
      "contractAddress": null
    },
    {
      "status": "0x1",
      "cumulativeGasUsed": "0x1934d8a",
      "logs": [
        {
          "address": "0x353d0e3aa8dc709934ca0e023181a53404e9c317",
          "topics": [
            "0xddf252ad1be2c89b69c2b068fc378daa952ba7f163c4a11628f55a4df523b3ef",
            "0x0000000000000000000000000000000000000000000000000000000000000000",
            "0x0000000000000000000000004f88f1014dd6ca0507780380111c098bee6b87e6"
          ],
          "data": "0x000000000000000000000000000000000000000000000000000000e8d4a51000",
          "blockHash": "0x7957f82b55891930ead9a65cb51475bbb6c6df287ddc7a32dfabcb3e83690d47",
          "blockNumber": "0x69cf06",
          "transactionHash": "0x1240d56656f11254b199150dca1923ba3cacbfa89a44339f8fc666dfcfe0b7fc",
          "transactionIndex": "0x94",
          "logIndex": "0xe0",
          "removed": false
        }
      ],
      "logsBloom": "0x00000000000000000000000002000000000000000000000000000000000000000000000000000000000000000000000000000000000002000000000000000000000000000000000000000008000000000000000000000000000000000000000000000000020000000000000000000800000000000000000000000010000000000000000000000800000000000000000000000000000000000080000000000000000000000000000000000000000000000000000004000000000000000000000000000002000000000000000000000000000000000000000000000000000020000000000000000000000000000000000000000000008000000000000000000000",
      "type": "0x2",
      "transactionHash": "0x1240d56656f11254b199150dca1923ba3cacbfa89a44339f8fc666dfcfe0b7fc",
      "transactionIndex": "0x94",
      "blockHash": "0x7957f82b55891930ead9a65cb51475bbb6c6df287ddc7a32dfabcb3e83690d47",
      "blockNumber": "0x69cf06",
      "gasUsed": "0xd113",
      "effectiveGasPrice": "0x17340563",
      "from": "0xb7d030f7c6406446e703e73b3d1dd8611a2d87b6",
      "to": "0x353d0e3aa8dc709934ca0e023181a53404e9c317",
      "contractAddress": null
    },
    {
      "status": "0x1",
      "cumulativeGasUsed": "0x1941e9d",
      "logs": [
        {
          "address": "0x353d0e3aa8dc709934ca0e023181a53404e9c317",
          "topics": [
            "0xddf252ad1be2c89b69c2b068fc378daa952ba7f163c4a11628f55a4df523b3ef",
            "0x0000000000000000000000000000000000000000000000000000000000000000",
            "0x000000000000000000000000c31f6b8133d618ad2ff1ac5faa3fc4b20557b901"
          ],
          "data": "0x000000000000000000000000000000000000000000000000000000e8d4a51000",
          "blockHash": "0x7957f82b55891930ead9a65cb51475bbb6c6df287ddc7a32dfabcb3e83690d47",
          "blockNumber": "0x69cf06",
          "transactionHash": "0xec33d262ebb59051862ee2daf0e2d76320a93ff074440b966201c94208d7e8c7",
          "transactionIndex": "0x95",
          "logIndex": "0xe1",
          "removed": false
        }
      ],
      "logsBloom": "0x00000000000000000000000000000000000000000000000000000000000000000000000000000000000000000000000000000000000002000000000000000000000000000000000000000008000000000000000000000000000000000000000000000000020000000000000000000800000000000000000000000010400000000000000000000800000000000000000000000002000000000080000000000000000000000000000000000000000000000000000000000000080000000000000000000002000000000000000000000000000000000000000000000000000020000000000000000000000000000000000000000000000000000000000000000000",
      "type": "0x2",
      "transactionHash": "0xec33d262ebb59051862ee2daf0e2d76320a93ff074440b966201c94208d7e8c7",
      "transactionIndex": "0x95",
      "blockHash": "0x7957f82b55891930ead9a65cb51475bbb6c6df287ddc7a32dfabcb3e83690d47",
      "blockNumber": "0x69cf06",
      "gasUsed": "0xd113",
      "effectiveGasPrice": "0x17340563",
      "from": "0xb7d030f7c6406446e703e73b3d1dd8611a2d87b6",
      "to": "0x353d0e3aa8dc709934ca0e023181a53404e9c317",
      "contractAddress": null
    },
    {
      "status": "0x1",
      "cumulativeGasUsed": "0x194efb0",
      "logs": [
        {
          "address": "0x353d0e3aa8dc709934ca0e023181a53404e9c317",
          "topics": [
            "0xddf252ad1be2c89b69c2b068fc378daa952ba7f163c4a11628f55a4df523b3ef",
            "0x0000000000000000000000000000000000000000000000000000000000000000",
            "0x00000000000000000000000066e675533020c3cdee2f33e372320b7e2692211e"
          ],
          "data": "0x000000000000000000000000000000000000000000000000000000e8d4a51000",
          "blockHash": "0x7957f82b55891930ead9a65cb51475bbb6c6df287ddc7a32dfabcb3e83690d47",
          "blockNumber": "0x69cf06",
          "transactionHash": "0x007a0c8417ed2f844dc39dfaeb6ef8ffe796e28e331d759d64e6af713a6facf3",
          "transactionIndex": "0x96",
          "logIndex": "0xe2",
          "removed": false
        }
      ],
      "logsBloom": "0x00000000000000000000000000000000000000000000000000000000001000000000000000000000000000000000000000000000000002000000000000000000000000000000000000000008000008000000000000000000000000000000000000000000020000000000000000000800000000000000000000000010000000000000000000000800000000000000000000000000002000000080000000000000000000000000000000000000000000000000000000000000000000000000000000000002000000000000000000000000000000000000000000000000000020000000000000000000000000000000000000000000000000000000000000000000",
      "type": "0x2",
      "transactionHash": "0x007a0c8417ed2f844dc39dfaeb6ef8ffe796e28e331d759d64e6af713a6facf3",
      "transactionIndex": "0x96",
      "blockHash": "0x7957f82b55891930ead9a65cb51475bbb6c6df287ddc7a32dfabcb3e83690d47",
      "blockNumber": "0x69cf06",
      "gasUsed": "0xd113",
      "effectiveGasPrice": "0x17340563",
      "from": "0xb7d030f7c6406446e703e73b3d1dd8611a2d87b6",
      "to": "0x353d0e3aa8dc709934ca0e023181a53404e9c317",
      "contractAddress": null
    },
    {
      "status": "0x1",
      "cumulativeGasUsed": "0x19ee4b6",
      "logs": [
        {
          "address": "0x52df2bf0e618474037feb0e80794543833245f95",
          "topics": [
            "0x8be0079c531659141344cd1fd0a4f28419497f9722a3daafe3b4186f6b6457e0",
            "0x0000000000000000000000000000000000000000000000000000000000000000",
            "0x000000000000000000000000b7d030f7c6406446e703e73b3d1dd8611a2d87b6"
          ],
          "data": "0x",
          "blockHash": "0x7957f82b55891930ead9a65cb51475bbb6c6df287ddc7a32dfabcb3e83690d47",
          "blockNumber": "0x69cf06",
          "transactionHash": "0x038d3eca7a939fcfac08676a444f5585e52abe9b5df32d6261cf06f5504c6738",
          "transactionIndex": "0x97",
          "logIndex": "0xe3",
          "removed": false
        }
      ],
      "logsBloom": "0x00000000000000000000000000000000000000000000000000800000000000000000000000000000000000000000000000000000000000000000000000000000000000000000000000000000000000000001000000400000000000000000000000000000020000000000000000000800000000000000000200000000000000400000000000000000000000000000000000000000000000000000000000000020000000000000000000002000400000000000000000000000000000000000010000000000000000000000000000000000000000000000000000000000000020000000000000000000000000000000000000000000000000000000000000000000",
      "type": "0x2",
      "transactionHash": "0x038d3eca7a939fcfac08676a444f5585e52abe9b5df32d6261cf06f5504c6738",
      "transactionIndex": "0x97",
      "blockHash": "0x7957f82b55891930ead9a65cb51475bbb6c6df287ddc7a32dfabcb3e83690d47",
      "blockNumber": "0x69cf06",
      "gasUsed": "0x9f506",
      "effectiveGasPrice": "0x17340563",
      "from": "0xb7d030f7c6406446e703e73b3d1dd8611a2d87b6",
      "to": null,
      "contractAddress": "0x52df2bf0e618474037feb0e80794543833245f95"
    },
    {
      "status": "0x1",
      "cumulativeGasUsed": "0x19ff895",
      "logs": [
        {
          "address": "0x52df2bf0e618474037feb0e80794543833245f95",
          "topics": [
            "0xddf252ad1be2c89b69c2b068fc378daa952ba7f163c4a11628f55a4df523b3ef",
            "0x0000000000000000000000000000000000000000000000000000000000000000",
            "0x000000000000000000000000b7d030f7c6406446e703e73b3d1dd8611a2d87b6"
          ],
          "data": "0x000000000000000000000000000000000000000000000000000000e8d4a51000",
          "blockHash": "0x7957f82b55891930ead9a65cb51475bbb6c6df287ddc7a32dfabcb3e83690d47",
          "blockNumber": "0x69cf06",
          "transactionHash": "0x2f9abb853003688a90b53806766a22dbe62bdee4c3c45896112e910af3049a0f",
          "transactionIndex": "0x98",
          "logIndex": "0xe4",
          "removed": false
        }
      ],
      "logsBloom": "0x00000000000000000000000000000000000000000000000000000000000000000000000000000000000000000000000000000000000000000000000000000000000000000000000000000008000000000000000000400000000000000000000000000000020000000000000000000800000000000000000200000010000000000000000000000000000000000000000000000000000000000000000000000020000000000000000000002000400000000000000000000000000000000000010000000002000000000000000000000000000000000000000000000000000020000000000000000000000000000000000000000000000000000000000000000000",
      "type": "0x2",
      "transactionHash": "0x2f9abb853003688a90b53806766a22dbe62bdee4c3c45896112e910af3049a0f",
      "transactionIndex": "0x98",
      "blockHash": "0x7957f82b55891930ead9a65cb51475bbb6c6df287ddc7a32dfabcb3e83690d47",
      "blockNumber": "0x69cf06",
      "gasUsed": "0x113df",
      "effectiveGasPrice": "0x17340563",
      "from": "0xb7d030f7c6406446e703e73b3d1dd8611a2d87b6",
      "to": "0x52df2bf0e618474037feb0e80794543833245f95",
      "contractAddress": null
    },
    {
      "status": "0x1",
      "cumulativeGasUsed": "0x1a0c9a8",
      "logs": [
        {
          "address": "0x52df2bf0e618474037feb0e80794543833245f95",
          "topics": [
            "0xddf252ad1be2c89b69c2b068fc378daa952ba7f163c4a11628f55a4df523b3ef",
            "0x0000000000000000000000000000000000000000000000000000000000000000",
            "0x0000000000000000000000004f88f1014dd6ca0507780380111c098bee6b87e6"
          ],
          "data": "0x000000000000000000000000000000000000000000000000000000e8d4a51000",
          "blockHash": "0x7957f82b55891930ead9a65cb51475bbb6c6df287ddc7a32dfabcb3e83690d47",
          "blockNumber": "0x69cf06",
          "transactionHash": "0x3c4ebb99bd90ef4e55a04a789b743e4292d4881dce32cc2cbbeeabdd7a66c9e4",
          "transactionIndex": "0x99",
          "logIndex": "0xe5",
          "removed": false
        }
      ],
      "logsBloom": "0x00000000000000000000000002000000000000000000000000000000000000000000000000000000000000000000000000000000000000000000000000000000000000000000000000000008000000000000000000000000000000000000000000000000020000000000000000000800000000000000000000000010000000000000000000000000000000000000000000000000000000000000000000000000000000000000000000002000400000000000000004000000000000000000010000000002000000000000000000000000000000000000000000000000000020000000000000000000000000000000000000000000008000000000000000000000",
      "type": "0x2",
      "transactionHash": "0x3c4ebb99bd90ef4e55a04a789b743e4292d4881dce32cc2cbbeeabdd7a66c9e4",
      "transactionIndex": "0x99",
      "blockHash": "0x7957f82b55891930ead9a65cb51475bbb6c6df287ddc7a32dfabcb3e83690d47",
      "blockNumber": "0x69cf06",
      "gasUsed": "0xd113",
      "effectiveGasPrice": "0x17340563",
      "from": "0xb7d030f7c6406446e703e73b3d1dd8611a2d87b6",
      "to": "0x52df2bf0e618474037feb0e80794543833245f95",
      "contractAddress": null
    },
    {
      "status": "0x1",
      "cumulativeGasUsed": "0x1a19abb",
      "logs": [
        {
          "address": "0x52df2bf0e618474037feb0e80794543833245f95",
          "topics": [
            "0xddf252ad1be2c89b69c2b068fc378daa952ba7f163c4a11628f55a4df523b3ef",
            "0x0000000000000000000000000000000000000000000000000000000000000000",
            "0x000000000000000000000000c31f6b8133d618ad2ff1ac5faa3fc4b20557b901"
          ],
          "data": "0x000000000000000000000000000000000000000000000000000000e8d4a51000",
          "blockHash": "0x7957f82b55891930ead9a65cb51475bbb6c6df287ddc7a32dfabcb3e83690d47",
          "blockNumber": "0x69cf06",
          "transactionHash": "0xb4cb8024c1d11a66dd9ba92bfa409b2b2cbef3d5d3cd6e40be4e1e9f7f0bbaa2",
          "transactionIndex": "0x9a",
          "logIndex": "0xe6",
          "removed": false
        }
      ],
      "logsBloom": "0x00000000000000000000000000000000000000000000000000000000000000000000000000000000000000000000000000000000000000000000000000000000000000000000000000000008000000000000000000000000000000000000000000000000020000000000000000000800000000000000000000000010400000000000000000000000000000000000000000000002000000000000000000000000000000000000000000002000400000000000000000000000080000000000010000000002000000000000000000000000000000000000000000000000000020000000000000000000000000000000000000000000000000000000000000000000",
      "type": "0x2",
      "transactionHash": "0xb4cb8024c1d11a66dd9ba92bfa409b2b2cbef3d5d3cd6e40be4e1e9f7f0bbaa2",
      "transactionIndex": "0x9a",
      "blockHash": "0x7957f82b55891930ead9a65cb51475bbb6c6df287ddc7a32dfabcb3e83690d47",
      "blockNumber": "0x69cf06",
      "gasUsed": "0xd113",
      "effectiveGasPrice": "0x17340563",
      "from": "0xb7d030f7c6406446e703e73b3d1dd8611a2d87b6",
      "to": "0x52df2bf0e618474037feb0e80794543833245f95",
      "contractAddress": null
    },
    {
      "status": "0x1",
      "cumulativeGasUsed": "0x1a26bce",
      "logs": [
        {
          "address": "0x52df2bf0e618474037feb0e80794543833245f95",
          "topics": [
            "0xddf252ad1be2c89b69c2b068fc378daa952ba7f163c4a11628f55a4df523b3ef",
            "0x0000000000000000000000000000000000000000000000000000000000000000",
            "0x00000000000000000000000066e675533020c3cdee2f33e372320b7e2692211e"
          ],
          "data": "0x000000000000000000000000000000000000000000000000000000e8d4a51000",
          "blockHash": "0x7957f82b55891930ead9a65cb51475bbb6c6df287ddc7a32dfabcb3e83690d47",
          "blockNumber": "0x69cf06",
          "transactionHash": "0x95b1c5414492f319a2f3afed896a0f78b2ea1fb557e0a5065626e7b514ec6147",
          "transactionIndex": "0x9b",
          "logIndex": "0xe7",
          "removed": false
        }
      ],
      "logsBloom": "0x00000000000000000000000000000000000000000000000000000000001000000000000000000000000000000000000000000000000000000000000000000000000000000000000000000008000008000000000000000000000000000000000000000000020000000000000000000800000000000000000000000010000000000000000000000000000000000000000000000000002000000000000000000000000000000000000000002000400000000000000000000000000000000000010000000002000000000000000000000000000000000000000000000000000020000000000000000000000000000000000000000000000000000000000000000000",
      "type": "0x2",
      "transactionHash": "0x95b1c5414492f319a2f3afed896a0f78b2ea1fb557e0a5065626e7b514ec6147",
      "transactionIndex": "0x9b",
      "blockHash": "0x7957f82b55891930ead9a65cb51475bbb6c6df287ddc7a32dfabcb3e83690d47",
      "blockNumber": "0x69cf06",
      "gasUsed": "0xd113",
      "effectiveGasPrice": "0x17340563",
      "from": "0xb7d030f7c6406446e703e73b3d1dd8611a2d87b6",
      "to": "0x52df2bf0e618474037feb0e80794543833245f95",
      "contractAddress": null
    },
    {
      "status": "0x1",
      "cumulativeGasUsed": "0x1ac60f8",
      "logs": [
        {
          "address": "0xbf064ed5c19fac019c405a39c19dba2f5677cde0",
          "topics": [
            "0x8be0079c531659141344cd1fd0a4f28419497f9722a3daafe3b4186f6b6457e0",
            "0x0000000000000000000000000000000000000000000000000000000000000000",
            "0x000000000000000000000000b7d030f7c6406446e703e73b3d1dd8611a2d87b6"
          ],
          "data": "0x",
          "blockHash": "0x7957f82b55891930ead9a65cb51475bbb6c6df287ddc7a32dfabcb3e83690d47",
          "blockNumber": "0x69cf06",
          "transactionHash": "0x1b71b1df3c1ed0993e3f54a60d23f7b50f467b940017184dc0fb33fdea71bf0a",
          "transactionIndex": "0x9c",
          "logIndex": "0xe8",
          "removed": false
        }
      ],
      "logsBloom": "0x00000000000000000000004000000000000000000000000000800000000000000000000000000000000000000000000000000000000000000000000000200000000000000000000000000000000000000001000000400000000000000000000000000000020000000000000000000800000000000004000200000000000000400000000000000000000000000000000000000000000000000000000000000020000000000000000000000000000000000000000000000000000000000000000000000000000000000000000000000000000000000000000000000000000020000000000000000000000000000000000000000000000000000000000000000000",
      "type": "0x2",
      "transactionHash": "0x1b71b1df3c1ed0993e3f54a60d23f7b50f467b940017184dc0fb33fdea71bf0a",
      "transactionIndex": "0x9c",
      "blockHash": "0x7957f82b55891930ead9a65cb51475bbb6c6df287ddc7a32dfabcb3e83690d47",
      "blockNumber": "0x69cf06",
      "gasUsed": "0x9f52a",
      "effectiveGasPrice": "0x17340563",
      "from": "0xb7d030f7c6406446e703e73b3d1dd8611a2d87b6",
      "to": null,
      "contractAddress": "0xbf064ed5c19fac019c405a39c19dba2f5677cde0"
    },
    {
      "status": "0x1",
      "cumulativeGasUsed": "0x1ad74d7",
      "logs": [
        {
          "address": "0xbf064ed5c19fac019c405a39c19dba2f5677cde0",
          "topics": [
            "0xddf252ad1be2c89b69c2b068fc378daa952ba7f163c4a11628f55a4df523b3ef",
            "0x0000000000000000000000000000000000000000000000000000000000000000",
            "0x000000000000000000000000b7d030f7c6406446e703e73b3d1dd8611a2d87b6"
          ],
          "data": "0x00000000000000000000000000000000000000000000000000000002540be400",
          "blockHash": "0x7957f82b55891930ead9a65cb51475bbb6c6df287ddc7a32dfabcb3e83690d47",
          "blockNumber": "0x69cf06",
          "transactionHash": "0x12b24e26a7292bc6fdb206efd540b47385499832f7f100ca969a517eda624dd6",
          "transactionIndex": "0x9d",
          "logIndex": "0xe9",
          "removed": false
        }
      ],
      "logsBloom": "0x00000000000000000000004000000000000000000000000000000000000000000000000000000000000000000000000000000000000000000000000000200000000000000000000000000008000000000000000000400000000000000000000000000000020000000000000000000800000000000004000200000010000000000000000000000000000000000000000000000000000000000000000000000020000000000000000000000000000000000000000000000000000000000000000000000002000000000000000000000000000000000000000000000000000020000000000000000000000000000000000000000000000000000000000000000000",
      "type": "0x2",
      "transactionHash": "0x12b24e26a7292bc6fdb206efd540b47385499832f7f100ca969a517eda624dd6",
      "transactionIndex": "0x9d",
      "blockHash": "0x7957f82b55891930ead9a65cb51475bbb6c6df287ddc7a32dfabcb3e83690d47",
      "blockNumber": "0x69cf06",
      "gasUsed": "0x113df",
      "effectiveGasPrice": "0x17340563",
      "from": "0xb7d030f7c6406446e703e73b3d1dd8611a2d87b6",
      "to": "0xbf064ed5c19fac019c405a39c19dba2f5677cde0",
      "contractAddress": null
    },
    {
      "status": "0x1",
      "cumulativeGasUsed": "0x1ae45ea",
      "logs": [
        {
          "address": "0xbf064ed5c19fac019c405a39c19dba2f5677cde0",
          "topics": [
            "0xddf252ad1be2c89b69c2b068fc378daa952ba7f163c4a11628f55a4df523b3ef",
            "0x0000000000000000000000000000000000000000000000000000000000000000",
            "0x0000000000000000000000004f88f1014dd6ca0507780380111c098bee6b87e6"
          ],
          "data": "0x00000000000000000000000000000000000000000000000000000002540be400",
          "blockHash": "0x7957f82b55891930ead9a65cb51475bbb6c6df287ddc7a32dfabcb3e83690d47",
          "blockNumber": "0x69cf06",
          "transactionHash": "0x96ec5fa23de7f150c9baaabc2d511ebcffa1158f9802599abe617afe2b1f532c",
          "transactionIndex": "0x9e",
          "logIndex": "0xea",
          "removed": false
        }
      ],
      "logsBloom": "0x00000000000000000000004002000000000000000000000000000000000000000000000000000000000000000000000000000000000000000000000000200000000000000000000000000008000000000000000000000000000000000000000000000000020000000000000000000800000000000004000000000010000000000000000000000000000000000000000000000000000000000000000000000000000000000000000000000000000000000000000004000000000000000000000000000002000000000000000000000000000000000000000000000000000020000000000000000000000000000000000000000000008000000000000000000000",
      "type": "0x2",
      "transactionHash": "0x96ec5fa23de7f150c9baaabc2d511ebcffa1158f9802599abe617afe2b1f532c",
      "transactionIndex": "0x9e",
      "blockHash": "0x7957f82b55891930ead9a65cb51475bbb6c6df287ddc7a32dfabcb3e83690d47",
      "blockNumber": "0x69cf06",
      "gasUsed": "0xd113",
      "effectiveGasPrice": "0x17340563",
      "from": "0xb7d030f7c6406446e703e73b3d1dd8611a2d87b6",
      "to": "0xbf064ed5c19fac019c405a39c19dba2f5677cde0",
      "contractAddress": null
    },
    {
      "status": "0x1",
      "cumulativeGasUsed": "0x1af16fd",
      "logs": [
        {
          "address": "0xbf064ed5c19fac019c405a39c19dba2f5677cde0",
          "topics": [
            "0xddf252ad1be2c89b69c2b068fc378daa952ba7f163c4a11628f55a4df523b3ef",
            "0x0000000000000000000000000000000000000000000000000000000000000000",
            "0x000000000000000000000000c31f6b8133d618ad2ff1ac5faa3fc4b20557b901"
          ],
          "data": "0x00000000000000000000000000000000000000000000000000000002540be400",
          "blockHash": "0x7957f82b55891930ead9a65cb51475bbb6c6df287ddc7a32dfabcb3e83690d47",
          "blockNumber": "0x69cf06",
          "transactionHash": "0x19fc5c2bf226c71835302df4ca81def4f979779a4239d9edf5b2937d7d9c6f91",
          "transactionIndex": "0x9f",
          "logIndex": "0xeb",
          "removed": false
        }
      ],
      "logsBloom": "0x00000000000000000000004000000000000000000000000000000000000000000000000000000000000000000000000000000000000000000000000000200000000000000000000000000008000000000000000000000000000000000000000000000000020000000000000000000800000000000004000000000010400000000000000000000000000000000000000000000002000000000000000000000000000000000000000000000000000000000000000000000000080000000000000000000002000000000000000000000000000000000000000000000000000020000000000000000000000000000000000000000000000000000000000000000000",
      "type": "0x2",
      "transactionHash": "0x19fc5c2bf226c71835302df4ca81def4f979779a4239d9edf5b2937d7d9c6f91",
      "transactionIndex": "0x9f",
      "blockHash": "0x7957f82b55891930ead9a65cb51475bbb6c6df287ddc7a32dfabcb3e83690d47",
      "blockNumber": "0x69cf06",
      "gasUsed": "0xd113",
      "effectiveGasPrice": "0x17340563",
      "from": "0xb7d030f7c6406446e703e73b3d1dd8611a2d87b6",
      "to": "0xbf064ed5c19fac019c405a39c19dba2f5677cde0",
      "contractAddress": null
    },
    {
      "status": "0x1",
      "cumulativeGasUsed": "0x1afe810",
      "logs": [
        {
          "address": "0xbf064ed5c19fac019c405a39c19dba2f5677cde0",
          "topics": [
            "0xddf252ad1be2c89b69c2b068fc378daa952ba7f163c4a11628f55a4df523b3ef",
            "0x0000000000000000000000000000000000000000000000000000000000000000",
            "0x00000000000000000000000066e675533020c3cdee2f33e372320b7e2692211e"
          ],
          "data": "0x00000000000000000000000000000000000000000000000000000002540be400",
          "blockHash": "0x7957f82b55891930ead9a65cb51475bbb6c6df287ddc7a32dfabcb3e83690d47",
          "blockNumber": "0x69cf06",
          "transactionHash": "0x5acdbc3ab89fb0a4f61a96374d7fedd7d0a01e2829cdfda416b16ca117bc3f35",
          "transactionIndex": "0xa0",
          "logIndex": "0xec",
          "removed": false
        }
      ],
      "logsBloom": "0x00000000000000000000004000000000000000000000000000000000001000000000000000000000000000000000000000000000000000000000000000200000000000000000000000000008000008000000000000000000000000000000000000000000020000000000000000000800000000000004000000000010000000000000000000000000000000000000000000000000002000000000000000000000000000000000000000000000000000000000000000000000000000000000000000000002000000000000000000000000000000000000000000000000000020000000000000000000000000000000000000000000000000000000000000000000",
      "type": "0x2",
      "transactionHash": "0x5acdbc3ab89fb0a4f61a96374d7fedd7d0a01e2829cdfda416b16ca117bc3f35",
      "transactionIndex": "0xa0",
      "blockHash": "0x7957f82b55891930ead9a65cb51475bbb6c6df287ddc7a32dfabcb3e83690d47",
      "blockNumber": "0x69cf06",
      "gasUsed": "0xd113",
      "effectiveGasPrice": "0x17340563",
      "from": "0xb7d030f7c6406446e703e73b3d1dd8611a2d87b6",
      "to": "0xbf064ed5c19fac019c405a39c19dba2f5677cde0",
      "contractAddress": null
    },
    {
      "status": "0x1",
      "cumulativeGasUsed": "0x1b17c91",
      "logs": [
        {
          "address": "0xa436364dafb5388f4756cd334e41948a3f8bff1d",
          "topics": [
            "0xb0377b4035c2bd5b6aeb3eb7f139162c730ea47b957e4354f8a81ebb99573dec"
          ],
          "data": "0x0000000000000000000000000000000000000000000000000000000000000040000000000000000000000000353d0e3aa8dc709934ca0e023181a53404e9c317000000000000000000000000000000000000000000000000000000000000000a544f4b454e5f5553445400000000000000000000000000000000000000000000",
          "blockHash": "0x7957f82b55891930ead9a65cb51475bbb6c6df287ddc7a32dfabcb3e83690d47",
          "blockNumber": "0x69cf06",
          "transactionHash": "0xced01adad791332b4a54a42734dda563c897a190fad60038df75570eafe06861",
          "transactionIndex": "0xa1",
          "logIndex": "0xed",
          "removed": false
        },
        {
          "address": "0xa436364dafb5388f4756cd334e41948a3f8bff1d",
          "topics": [
            "0xb0377b4035c2bd5b6aeb3eb7f139162c730ea47b957e4354f8a81ebb99573dec"
          ],
          "data": "0x000000000000000000000000000000000000000000000000000000000000004000000000000000000000000052df2bf0e618474037feb0e80794543833245f95000000000000000000000000000000000000000000000000000000000000000a544f4b454e5f5553444300000000000000000000000000000000000000000000",
          "blockHash": "0x7957f82b55891930ead9a65cb51475bbb6c6df287ddc7a32dfabcb3e83690d47",
          "blockNumber": "0x69cf06",
          "transactionHash": "0xced01adad791332b4a54a42734dda563c897a190fad60038df75570eafe06861",
          "transactionIndex": "0xa1",
          "logIndex": "0xee",
          "removed": false
        },
        {
          "address": "0xa436364dafb5388f4756cd334e41948a3f8bff1d",
          "topics": [
            "0xb0377b4035c2bd5b6aeb3eb7f139162c730ea47b957e4354f8a81ebb99573dec"
          ],
          "data": "0x0000000000000000000000000000000000000000000000000000000000000040000000000000000000000000bf064ed5c19fac019c405a39c19dba2f5677cde0000000000000000000000000000000000000000000000000000000000000000a544f4b454e5f5742544300000000000000000000000000000000000000000000",
          "blockHash": "0x7957f82b55891930ead9a65cb51475bbb6c6df287ddc7a32dfabcb3e83690d47",
          "blockNumber": "0x69cf06",
          "transactionHash": "0xced01adad791332b4a54a42734dda563c897a190fad60038df75570eafe06861",
          "transactionIndex": "0xa1",
          "logIndex": "0xef",
          "removed": false
        }
      ],
      "logsBloom": "0x00000000000000000000000000000000000000000000000000000000000000000000000000000000000000000000000000000000000000000000000080000000000000000000000000000000000000000001000000000000000000000000000000000000000000000000000000000000000000000000000000000000000000000000000000000000000000000000000000000000000000000000000000000000000000000000000000000000000000000000000000000000000000000000080000000000000000000000000000000000004000000000000000000000080000000000000000000000000000000000000000000400000000000000000000000000",
      "type": "0x2",
      "transactionHash": "0xced01adad791332b4a54a42734dda563c897a190fad60038df75570eafe06861",
      "transactionIndex": "0xa1",
      "blockHash": "0x7957f82b55891930ead9a65cb51475bbb6c6df287ddc7a32dfabcb3e83690d47",
      "blockNumber": "0x69cf06",
      "gasUsed": "0x19481",
      "effectiveGasPrice": "0x17340563",
      "from": "0xb7d030f7c6406446e703e73b3d1dd8611a2d87b6",
      "to": "0xa436364dafb5388f4756cd334e41948a3f8bff1d",
      "contractAddress": null
    }
  ],
  "libraries": [],
  "pending": [],
  "returns": {},
  "timestamp": 1729752765,
  "chain": 11155111,
  "commit": "7f9b915"
}