{
  "transactions": [
    {
      "hash": "0x73211bd713ea9baeca1d2781e8cf42206199e00f3cb5c1e3ea54078c92bde805",
      "transactionType": "CREATE",
      "contractName": null,
      "contractAddress": "0x309488d8698c9dda39ba4cce9f163932d1984d8b",
      "function": null,
      "arguments": null,
      "transaction": {
        "from": "0xb7d030f7c6406446e703e73b3d1dd8611a2d87b6",
        "gas": "0xcf1da",
        "value": "0x0",
        "input": "0x608060405234801562000010575f80fd5b5060405162000cd938038062000cd98339810160408190526200003391620001a8565b8282826003620000448382620002b8565b506004620000538282620002b8565b5050506001600160a01b0381166200008457604051631e4fbdf760e01b81525f600482015260240160405180910390fd5b6200008f8162000099565b5050505062000380565b600580546001600160a01b038381166001600160a01b0319831681179093556040519116919082907f8be0079c531659141344cd1fd0a4f28419497f9722a3daafe3b4186f6b6457e0905f90a35050565b634e487b7160e01b5f52604160045260245ffd5b5f82601f8301126200010e575f80fd5b81516001600160401b03808211156200012b576200012b620000ea565b604051601f8301601f19908116603f01168101908282118183101715620001565762000156620000ea565b8160405283815260209250868385880101111562000172575f80fd5b5f91505b8382101562000195578582018301518183018401529082019062000176565b5f93810190920192909252949350505050565b5f805f60608486031215620001bb575f80fd5b83516001600160a01b0381168114620001d2575f80fd5b60208501519093506001600160401b0380821115620001ef575f80fd5b620001fd87838801620000fe565b9350604086015191508082111562000213575f80fd5b506200022286828701620000fe565b9150509250925092565b600181811c908216806200024157607f821691505b6020821081036200026057634e487b7160e01b5f52602260045260245ffd5b50919050565b601f821115620002b3575f81815260208120601f850160051c810160208610156200028e5750805b601f850160051c820191505b81811015620002af578281556001016200029a565b5050505b505050565b81516001600160401b03811115620002d457620002d4620000ea565b620002ec81620002e584546200022c565b8462000266565b602080601f83116001811462000322575f84156200030a5750858301515b5f19600386901b1c1916600185901b178555620002af565b5f85815260208120601f198616915b82811015620003525788860151825594840194600190910190840162000331565b50858210156200037057878501515f19600388901b60f8161c191681555b5050505050600190811b01905550565b61094b806200038e5f395ff3fe608060405234801561000f575f80fd5b50600436106100f0575f3560e01c806370a082311161009357806395d89b411161006357806395d89b41146101ef578063a9059cbb146101f7578063dd62ed3e1461020a578063f2fde38b14610242575f80fd5b806370a0823114610191578063715018a6146101b957806379cc6790146101c15780638da5cb5b146101d4575f80fd5b806323b872dd116100ce57806323b872dd14610147578063313ce5671461015a57806340c10f191461016957806342966c681461017e575f80fd5b806306fdde03146100f4578063095ea7b31461011257806318160ddd14610135575b5f80fd5b6100fc610255565b604051610109919061078f565b60405180910390f35b6101256101203660046107f5565b6102e5565b6040519015158152602001610109565b6002545b604051908152602001610109565b61012561015536600461081d565b6102fe565b60405160128152602001610109565b61017c6101773660046107f5565b610321565b005b61017c61018c366004610856565b610337565b61013961019f36600461086d565b6001600160a01b03165f9081526020819052604090205490565b61017c610344565b61017c6101cf3660046107f5565b610357565b6005546040516001600160a01b039091168152602001610109565b6100fc61036c565b6101256102053660046107f5565b61037b565b61013961021836600461088d565b6001600160a01b039182165f90815260016020908152604080832093909416825291909152205490565b61017c61025036600461086d565b610388565b606060038054610264906108be565b80601f0160208091040260200160405190810160405280929190818152602001828054610290906108be565b80156102db5780601f106102b2576101008083540402835291602001916102db565b820191905f5260205f20905b8154815290600101906020018083116102be57829003601f168201915b5050505050905090565b5f336102f28185856103c7565b60019150505b92915050565b5f3361030b8582856103d9565b610316858585610454565b506001949350505050565b6103296104b1565b61033382826104de565b5050565b6103413382610512565b50565b61034c6104b1565b6103555f610546565b565b6103628233836103d9565b6103338282610512565b606060048054610264906108be565b5f336102f2818585610454565b6103906104b1565b6001600160a01b0381166103be57604051631e4fbdf760e01b81525f60048201526024015b60405180910390fd5b61034181610546565b6103d48383836001610597565b505050565b6001600160a01b038381165f908152600160209081526040808320938616835292905220545f19811461044e578181101561044057604051637dc7a0d960e11b81526001600160a01b038416600482015260248101829052604481018390526064016103b5565b61044e84848484035f610597565b50505050565b6001600160a01b03831661047d57604051634b637e8f60e11b81525f60048201526024016103b5565b6001600160a01b0382166104a65760405163ec442f0560e01b81525f60048201526024016103b5565b6103d4838383610669565b6005546001600160a01b031633146103555760405163118cdaa760e01b81523360048201526024016103b5565b6001600160a01b0382166105075760405163ec442f0560e01b81525f60048201526024016103b5565b6103335f8383610669565b6001600160a01b03821661053b57604051634b637e8f60e11b81525f60048201526024016103b5565b610333825f83610669565b600580546001600160a01b038381166001600160a01b0319831681179093556040519116919082907f8be0079c531659141344cd1fd0a4f28419497f9722a3daafe3b4186f6b6457e0905f90a35050565b6001600160a01b0384166105c05760405163e602df0560e01b81525f60048201526024016103b5565b6001600160a01b0383166105e957604051634a1406b160e11b81525f60048201526024016103b5565b6001600160a01b038085165f908152600160209081526040808320938716835292905220829055801561044e57826001600160a01b0316846001600160a01b03167f8c5be1e5ebec7d5bd14f71427d1e84f3dd0314c0f7b2291e5b200ac8c7c3b9258460405161065b91815260200190565b60405180910390a350505050565b6001600160a01b038316610693578060025f82825461068891906108f6565b909155506107039050565b6001600160a01b0383165f90815260208190526040902054818110156106e55760405163391434e360e21b81526001600160a01b038516600482015260248101829052604481018390526064016103b5565b6001600160a01b0384165f9081526020819052604090209082900390555b6001600160a01b03821661071f5760028054829003905561073d565b6001600160a01b0382165f9081526020819052604090208054820190555b816001600160a01b0316836001600160a01b03167fddf252ad1be2c89b69c2b068fc378daa952ba7f163c4a11628f55a4df523b3ef8360405161078291815260200190565b60405180910390a3505050565b5f6020808352835180828501525f5b818110156107ba5785810183015185820160400152820161079e565b505f604082860101526040601f19601f8301168501019250505092915050565b80356001600160a01b03811681146107f0575f80fd5b919050565b5f8060408385031215610806575f80fd5b61080f836107da565b946020939093013593505050565b5f805f6060848603121561082f575f80fd5b610838846107da565b9250610846602085016107da565b9150604084013590509250925092565b5f60208284031215610866575f80fd5b5035919050565b5f6020828403121561087d575f80fd5b610886826107da565b9392505050565b5f806040838503121561089e575f80fd5b6108a7836107da565b91506108b5602084016107da565b90509250929050565b600181811c908216806108d257607f821691505b6020821081036108f057634e487b7160e01b5f52602260045260245ffd5b50919050565b808201808211156102f857634e487b7160e01b5f52601160045260245ffdfea2646970667358221220d4345b66bfb7412d2ea509531419dca8158f537841ee0d9aa80e3d80c30a67d364736f6c63430008140033000000000000000000000000b7d030f7c6406446e703e73b3d1dd8611a2d87b6000000000000000000000000000000000000000000000000000000000000006000000000000000000000000000000000000000000000000000000000000000a0000000000000000000000000000000000000000000000000000000000000000a546574686572205553440000000000000000000000000000000000000000000000000000000000000000000000000000000000000000000000000000000000045553445400000000000000000000000000000000000000000000000000000000",
        "nonce": "0x1f3",
        "chainId": "0xaa36a7"
      },
      "additionalContracts": [],
      "isFixedGasLimit": false
    },
    {
      "hash": "0x59e6826dc8c8ceb9d0b5b0800bb32303db7701b3910721ebf0fa8cd66af4552e",
      "transactionType": "CALL",
      "contractName": null,
      "contractAddress": "0x309488d8698c9dda39ba4cce9f163932d1984d8b",
      "function": "mint(address,uint256)",
      "arguments": [
        "0xB7d030F7c6406446e703E73B3d1dd8611A2D87b6",
        "1000000000000"
      ],
      "transaction": {
        "from": "0xb7d030f7c6406446e703e73b3d1dd8611a2d87b6",
        "to": "0x309488d8698c9dda39ba4cce9f163932d1984d8b",
        "gas": "0x17d0a",
        "value": "0x0",
        "input": "0x40c10f19000000000000000000000000b7d030f7c6406446e703e73b3d1dd8611a2d87b6000000000000000000000000000000000000000000000000000000e8d4a51000",
        "nonce": "0x1f4",
        "chainId": "0xaa36a7"
      },
      "additionalContracts": [],
      "isFixedGasLimit": false
    },
    {
      "hash": "0xa45bfd828301c94eb1cc8f040454daed0ec6bb854e0057be5f29070eb4c6fc79",
      "transactionType": "CALL",
      "contractName": null,
      "contractAddress": "0x309488d8698c9dda39ba4cce9f163932d1984d8b",
      "function": "mint(address,uint256)",
      "arguments": [
        "0x4F88F1014Dd6Ca0507780380111c098BeE6b87e6",
        "1000000000000"
      ],
      "transaction": {
        "from": "0xb7d030f7c6406446e703e73b3d1dd8611a2d87b6",
        "to": "0x309488d8698c9dda39ba4cce9f163932d1984d8b",
        "gas": "0x131c4",
        "value": "0x0",
        "input": "0x40c10f190000000000000000000000004f88f1014dd6ca0507780380111c098bee6b87e6000000000000000000000000000000000000000000000000000000e8d4a51000",
        "nonce": "0x1f5",
        "chainId": "0xaa36a7"
      },
      "additionalContracts": [],
      "isFixedGasLimit": false
    },
    {
      "hash": "0x3bfaa6e3a6324e50915e3ca615190007fe0a87d1b2b07e3e5198e84f43ed34be",
      "transactionType": "CALL",
      "contractName": null,
      "contractAddress": "0x309488d8698c9dda39ba4cce9f163932d1984d8b",
      "function": "mint(address,uint256)",
      "arguments": [
        "0xC31f6b8133d618aD2ff1AC5fAA3Fc4B20557B901",
        "1000000000000"
      ],
      "transaction": {
        "from": "0xb7d030f7c6406446e703e73b3d1dd8611a2d87b6",
        "to": "0x309488d8698c9dda39ba4cce9f163932d1984d8b",
        "gas": "0x131c4",
        "value": "0x0",
        "input": "0x40c10f19000000000000000000000000c31f6b8133d618ad2ff1ac5faa3fc4b20557b901000000000000000000000000000000000000000000000000000000e8d4a51000",
        "nonce": "0x1f6",
        "chainId": "0xaa36a7"
      },
      "additionalContracts": [],
      "isFixedGasLimit": false
    },
    {
      "hash": "0x1d5d24ce4cedbb9b0d5b7ffb8a607e29e6310e07841e60de86e299a24379c922",
      "transactionType": "CALL",
      "contractName": null,
      "contractAddress": "0x309488d8698c9dda39ba4cce9f163932d1984d8b",
      "function": "mint(address,uint256)",
      "arguments": [
        "0x66E675533020c3CDeE2F33E372320B7e2692211e",
        "1000000000000"
      ],
      "transaction": {
        "from": "0xb7d030f7c6406446e703e73b3d1dd8611a2d87b6",
        "to": "0x309488d8698c9dda39ba4cce9f163932d1984d8b",
        "gas": "0x131c4",
        "value": "0x0",
        "input": "0x40c10f1900000000000000000000000066e675533020c3cdee2f33e372320b7e2692211e000000000000000000000000000000000000000000000000000000e8d4a51000",
        "nonce": "0x1f7",
        "chainId": "0xaa36a7"
      },
      "additionalContracts": [],
      "isFixedGasLimit": false
    },
    {
      "hash": "0xbb2eea0c21606cdcdb7083bf2eb748839f505eca439cb631e40d4573a8a69e4c",
      "transactionType": "CALL",
      "contractName": null,
      "contractAddress": "0x309488d8698c9dda39ba4cce9f163932d1984d8b",
      "function": "mint(address,uint256)",
      "arguments": [
        "0x8c4Eb6988A199DAbcae0Ce31052b3f3aC591787e",
        "1000000000000"
      ],
      "transaction": {
        "from": "0xb7d030f7c6406446e703e73b3d1dd8611a2d87b6",
        "to": "0x309488d8698c9dda39ba4cce9f163932d1984d8b",
        "gas": "0x131c4",
        "value": "0x0",
        "input": "0x40c10f190000000000000000000000008c4eb6988a199dabcae0ce31052b3f3ac591787e000000000000000000000000000000000000000000000000000000e8d4a51000",
        "nonce": "0x1f8",
        "chainId": "0xaa36a7"
      },
      "additionalContracts": [],
      "isFixedGasLimit": false
    },
    {
      "hash": "0xe476fc191ca98343ebd895de460aaf9382fa2414bccc797602d7f7b6572c6b30",
      "transactionType": "CREATE",
      "contractName": null,
      "contractAddress": "0x9e0d7b454676116c123d56ff4d5ed609d75ad00e",
      "function": null,
      "arguments": null,
      "transaction": {
        "from": "0xb7d030f7c6406446e703e73b3d1dd8611a2d87b6",
        "gas": "0xcf1bb",
        "value": "0x0",
        "input": "0x608060405234801562000010575f80fd5b5060405162000cd938038062000cd98339810160408190526200003391620001a8565b8282826003620000448382620002b8565b506004620000538282620002b8565b5050506001600160a01b0381166200008457604051631e4fbdf760e01b81525f600482015260240160405180910390fd5b6200008f8162000099565b5050505062000380565b600580546001600160a01b038381166001600160a01b0319831681179093556040519116919082907f8be0079c531659141344cd1fd0a4f28419497f9722a3daafe3b4186f6b6457e0905f90a35050565b634e487b7160e01b5f52604160045260245ffd5b5f82601f8301126200010e575f80fd5b81516001600160401b03808211156200012b576200012b620000ea565b604051601f8301601f19908116603f01168101908282118183101715620001565762000156620000ea565b8160405283815260209250868385880101111562000172575f80fd5b5f91505b8382101562000195578582018301518183018401529082019062000176565b5f93810190920192909252949350505050565b5f805f60608486031215620001bb575f80fd5b83516001600160a01b0381168114620001d2575f80fd5b60208501519093506001600160401b0380821115620001ef575f80fd5b620001fd87838801620000fe565b9350604086015191508082111562000213575f80fd5b506200022286828701620000fe565b9150509250925092565b600181811c908216806200024157607f821691505b6020821081036200026057634e487b7160e01b5f52602260045260245ffd5b50919050565b601f821115620002b3575f81815260208120601f850160051c810160208610156200028e5750805b601f850160051c820191505b81811015620002af578281556001016200029a565b5050505b505050565b81516001600160401b03811115620002d457620002d4620000ea565b620002ec81620002e584546200022c565b8462000266565b602080601f83116001811462000322575f84156200030a5750858301515b5f19600386901b1c1916600185901b178555620002af565b5f85815260208120601f198616915b82811015620003525788860151825594840194600190910190840162000331565b50858210156200037057878501515f19600388901b60f8161c191681555b5050505050600190811b01905550565b61094b806200038e5f395ff3fe608060405234801561000f575f80fd5b50600436106100f0575f3560e01c806370a082311161009357806395d89b411161006357806395d89b41146101ef578063a9059cbb146101f7578063dd62ed3e1461020a578063f2fde38b14610242575f80fd5b806370a0823114610191578063715018a6146101b957806379cc6790146101c15780638da5cb5b146101d4575f80fd5b806323b872dd116100ce57806323b872dd14610147578063313ce5671461015a57806340c10f191461016957806342966c681461017e575f80fd5b806306fdde03146100f4578063095ea7b31461011257806318160ddd14610135575b5f80fd5b6100fc610255565b604051610109919061078f565b60405180910390f35b6101256101203660046107f5565b6102e5565b6040519015158152602001610109565b6002545b604051908152602001610109565b61012561015536600461081d565b6102fe565b60405160128152602001610109565b61017c6101773660046107f5565b610321565b005b61017c61018c366004610856565b610337565b61013961019f36600461086d565b6001600160a01b03165f9081526020819052604090205490565b61017c610344565b61017c6101cf3660046107f5565b610357565b6005546040516001600160a01b039091168152602001610109565b6100fc61036c565b6101256102053660046107f5565b61037b565b61013961021836600461088d565b6001600160a01b039182165f90815260016020908152604080832093909416825291909152205490565b61017c61025036600461086d565b610388565b606060038054610264906108be565b80601f0160208091040260200160405190810160405280929190818152602001828054610290906108be565b80156102db5780601f106102b2576101008083540402835291602001916102db565b820191905f5260205f20905b8154815290600101906020018083116102be57829003601f168201915b5050505050905090565b5f336102f28185856103c7565b60019150505b92915050565b5f3361030b8582856103d9565b610316858585610454565b506001949350505050565b6103296104b1565b61033382826104de565b5050565b6103413382610512565b50565b61034c6104b1565b6103555f610546565b565b6103628233836103d9565b6103338282610512565b606060048054610264906108be565b5f336102f2818585610454565b6103906104b1565b6001600160a01b0381166103be57604051631e4fbdf760e01b81525f60048201526024015b60405180910390fd5b61034181610546565b6103d48383836001610597565b505050565b6001600160a01b038381165f908152600160209081526040808320938616835292905220545f19811461044e578181101561044057604051637dc7a0d960e11b81526001600160a01b038416600482015260248101829052604481018390526064016103b5565b61044e84848484035f610597565b50505050565b6001600160a01b03831661047d57604051634b637e8f60e11b81525f60048201526024016103b5565b6001600160a01b0382166104a65760405163ec442f0560e01b81525f60048201526024016103b5565b6103d4838383610669565b6005546001600160a01b031633146103555760405163118cdaa760e01b81523360048201526024016103b5565b6001600160a01b0382166105075760405163ec442f0560e01b81525f60048201526024016103b5565b6103335f8383610669565b6001600160a01b03821661053b57604051634b637e8f60e11b81525f60048201526024016103b5565b610333825f83610669565b600580546001600160a01b038381166001600160a01b0319831681179093556040519116919082907f8be0079c531659141344cd1fd0a4f28419497f9722a3daafe3b4186f6b6457e0905f90a35050565b6001600160a01b0384166105c05760405163e602df0560e01b81525f60048201526024016103b5565b6001600160a01b0383166105e957604051634a1406b160e11b81525f60048201526024016103b5565b6001600160a01b038085165f908152600160209081526040808320938716835292905220829055801561044e57826001600160a01b0316846001600160a01b03167f8c5be1e5ebec7d5bd14f71427d1e84f3dd0314c0f7b2291e5b200ac8c7c3b9258460405161065b91815260200190565b60405180910390a350505050565b6001600160a01b038316610693578060025f82825461068891906108f6565b909155506107039050565b6001600160a01b0383165f90815260208190526040902054818110156106e55760405163391434e360e21b81526001600160a01b038516600482015260248101829052604481018390526064016103b5565b6001600160a01b0384165f9081526020819052604090209082900390555b6001600160a01b03821661071f5760028054829003905561073d565b6001600160a01b0382165f9081526020819052604090208054820190555b816001600160a01b0316836001600160a01b03167fddf252ad1be2c89b69c2b068fc378daa952ba7f163c4a11628f55a4df523b3ef8360405161078291815260200190565b60405180910390a3505050565b5f6020808352835180828501525f5b818110156107ba5785810183015185820160400152820161079e565b505f604082860101526040601f19601f8301168501019250505092915050565b80356001600160a01b03811681146107f0575f80fd5b919050565b5f8060408385031215610806575f80fd5b61080f836107da565b946020939093013593505050565b5f805f6060848603121561082f575f80fd5b610838846107da565b9250610846602085016107da565b9150604084013590509250925092565b5f60208284031215610866575f80fd5b5035919050565b5f6020828403121561087d575f80fd5b610886826107da565b9392505050565b5f806040838503121561089e575f80fd5b6108a7836107da565b91506108b5602084016107da565b90509250929050565b600181811c908216806108d257607f821691505b6020821081036108f057634e487b7160e01b5f52602260045260245ffd5b50919050565b808201808211156102f857634e487b7160e01b5f52601160045260245ffdfea2646970667358221220d4345b66bfb7412d2ea509531419dca8158f537841ee0d9aa80e3d80c30a67d364736f6c63430008140033000000000000000000000000b7d030f7c6406446e703e73b3d1dd8611a2d87b6000000000000000000000000000000000000000000000000000000000000006000000000000000000000000000000000000000000000000000000000000000a0000000000000000000000000000000000000000000000000000000000000000855534420436f696e00000000000000000000000000000000000000000000000000000000000000000000000000000000000000000000000000000000000000045553444300000000000000000000000000000000000000000000000000000000",
        "nonce": "0x1f9",
        "chainId": "0xaa36a7"
      },
      "additionalContracts": [],
      "isFixedGasLimit": false
    },
    {
      "hash": "0x4ea6261834d7b6733e293301087f701bebf1231821a06efc0c402fe604c82c81",
      "transactionType": "CALL",
      "contractName": null,
      "contractAddress": "0x9e0d7b454676116c123d56ff4d5ed609d75ad00e",
      "function": "mint(address,uint256)",
      "arguments": [
        "0xB7d030F7c6406446e703E73B3d1dd8611A2D87b6",
        "1000000000000"
      ],
      "transaction": {
        "from": "0xb7d030f7c6406446e703e73b3d1dd8611a2d87b6",
        "to": "0x9e0d7b454676116c123d56ff4d5ed609d75ad00e",
        "gas": "0x17d0a",
        "value": "0x0",
        "input": "0x40c10f19000000000000000000000000b7d030f7c6406446e703e73b3d1dd8611a2d87b6000000000000000000000000000000000000000000000000000000e8d4a51000",
        "nonce": "0x1fa",
        "chainId": "0xaa36a7"
      },
      "additionalContracts": [],
      "isFixedGasLimit": false
    },
    {
      "hash": "0x1dfcdea00d4d807766208fd8ffb7c5146c1c1efe00268eeea47d66eba418ebda",
      "transactionType": "CALL",
      "contractName": null,
      "contractAddress": "0x9e0d7b454676116c123d56ff4d5ed609d75ad00e",
      "function": "mint(address,uint256)",
      "arguments": [
        "0x4F88F1014Dd6Ca0507780380111c098BeE6b87e6",
        "1000000000000"
      ],
      "transaction": {
        "from": "0xb7d030f7c6406446e703e73b3d1dd8611a2d87b6",
        "to": "0x9e0d7b454676116c123d56ff4d5ed609d75ad00e",
        "gas": "0x131c4",
        "value": "0x0",
        "input": "0x40c10f190000000000000000000000004f88f1014dd6ca0507780380111c098bee6b87e6000000000000000000000000000000000000000000000000000000e8d4a51000",
        "nonce": "0x1fb",
        "chainId": "0xaa36a7"
      },
      "additionalContracts": [],
      "isFixedGasLimit": false
    },
    {
      "hash": "0x16818d322f685c185cbf5947b1b00234b46ec43ec79ff46c11531b3994fea3b5",
      "transactionType": "CALL",
      "contractName": null,
      "contractAddress": "0x9e0d7b454676116c123d56ff4d5ed609d75ad00e",
      "function": "mint(address,uint256)",
      "arguments": [
        "0xC31f6b8133d618aD2ff1AC5fAA3Fc4B20557B901",
        "1000000000000"
      ],
      "transaction": {
        "from": "0xb7d030f7c6406446e703e73b3d1dd8611a2d87b6",
        "to": "0x9e0d7b454676116c123d56ff4d5ed609d75ad00e",
        "gas": "0x131c4",
        "value": "0x0",
        "input": "0x40c10f19000000000000000000000000c31f6b8133d618ad2ff1ac5faa3fc4b20557b901000000000000000000000000000000000000000000000000000000e8d4a51000",
        "nonce": "0x1fc",
        "chainId": "0xaa36a7"
      },
      "additionalContracts": [],
      "isFixedGasLimit": false
    },
    {
      "hash": "0x32b0c8dc0867162be3b187e042511657d86618b5d71e11979c6de3fb04dee4e5",
      "transactionType": "CALL",
      "contractName": null,
      "contractAddress": "0x9e0d7b454676116c123d56ff4d5ed609d75ad00e",
      "function": "mint(address,uint256)",
      "arguments": [
        "0x66E675533020c3CDeE2F33E372320B7e2692211e",
        "1000000000000"
      ],
      "transaction": {
        "from": "0xb7d030f7c6406446e703e73b3d1dd8611a2d87b6",
        "to": "0x9e0d7b454676116c123d56ff4d5ed609d75ad00e",
        "gas": "0x131c4",
        "value": "0x0",
        "input": "0x40c10f1900000000000000000000000066e675533020c3cdee2f33e372320b7e2692211e000000000000000000000000000000000000000000000000000000e8d4a51000",
        "nonce": "0x1fd",
        "chainId": "0xaa36a7"
      },
      "additionalContracts": [],
      "isFixedGasLimit": false
    },
    {
      "hash": "0x1d810552729bad4fc3885350cc813ed74b7d2740d88f0ecfcc0985983ecab9f6",
      "transactionType": "CALL",
      "contractName": null,
      "contractAddress": "0x9e0d7b454676116c123d56ff4d5ed609d75ad00e",
      "function": "mint(address,uint256)",
      "arguments": [
        "0x8c4Eb6988A199DAbcae0Ce31052b3f3aC591787e",
        "1000000000000"
      ],
      "transaction": {
        "from": "0xb7d030f7c6406446e703e73b3d1dd8611a2d87b6",
        "to": "0x9e0d7b454676116c123d56ff4d5ed609d75ad00e",
        "gas": "0x131c4",
        "value": "0x0",
        "input": "0x40c10f190000000000000000000000008c4eb6988a199dabcae0ce31052b3f3ac591787e000000000000000000000000000000000000000000000000000000e8d4a51000",
        "nonce": "0x1fe",
        "chainId": "0xaa36a7"
      },
      "additionalContracts": [],
      "isFixedGasLimit": false
    },
    {
      "hash": "0x385075b056ab7e5c69d53581c3e391548fd1cbd8d1c666b4742f333ecca7014e",
      "transactionType": "CREATE",
      "contractName": null,
      "contractAddress": "0x8621186d94319349a870c4099465770f0e4ff3cd",
      "function": null,
      "arguments": null,
      "transaction": {
        "from": "0xb7d030f7c6406446e703e73b3d1dd8611a2d87b6",
        "gas": "0xcf1e9",
        "value": "0x0",
        "input": "0x608060405234801562000010575f80fd5b5060405162000cd938038062000cd98339810160408190526200003391620001a8565b8282826003620000448382620002b8565b506004620000538282620002b8565b5050506001600160a01b0381166200008457604051631e4fbdf760e01b81525f600482015260240160405180910390fd5b6200008f8162000099565b5050505062000380565b600580546001600160a01b038381166001600160a01b0319831681179093556040519116919082907f8be0079c531659141344cd1fd0a4f28419497f9722a3daafe3b4186f6b6457e0905f90a35050565b634e487b7160e01b5f52604160045260245ffd5b5f82601f8301126200010e575f80fd5b81516001600160401b03808211156200012b576200012b620000ea565b604051601f8301601f19908116603f01168101908282118183101715620001565762000156620000ea565b8160405283815260209250868385880101111562000172575f80fd5b5f91505b8382101562000195578582018301518183018401529082019062000176565b5f93810190920192909252949350505050565b5f805f60608486031215620001bb575f80fd5b83516001600160a01b0381168114620001d2575f80fd5b60208501519093506001600160401b0380821115620001ef575f80fd5b620001fd87838801620000fe565b9350604086015191508082111562000213575f80fd5b506200022286828701620000fe565b9150509250925092565b600181811c908216806200024157607f821691505b6020821081036200026057634e487b7160e01b5f52602260045260245ffd5b50919050565b601f821115620002b3575f81815260208120601f850160051c810160208610156200028e5750805b601f850160051c820191505b81811015620002af578281556001016200029a565b5050505b505050565b81516001600160401b03811115620002d457620002d4620000ea565b620002ec81620002e584546200022c565b8462000266565b602080601f83116001811462000322575f84156200030a5750858301515b5f19600386901b1c1916600185901b178555620002af565b5f85815260208120601f198616915b82811015620003525788860151825594840194600190910190840162000331565b50858210156200037057878501515f19600388901b60f8161c191681555b5050505050600190811b01905550565b61094b806200038e5f395ff3fe608060405234801561000f575f80fd5b50600436106100f0575f3560e01c806370a082311161009357806395d89b411161006357806395d89b41146101ef578063a9059cbb146101f7578063dd62ed3e1461020a578063f2fde38b14610242575f80fd5b806370a0823114610191578063715018a6146101b957806379cc6790146101c15780638da5cb5b146101d4575f80fd5b806323b872dd116100ce57806323b872dd14610147578063313ce5671461015a57806340c10f191461016957806342966c681461017e575f80fd5b806306fdde03146100f4578063095ea7b31461011257806318160ddd14610135575b5f80fd5b6100fc610255565b604051610109919061078f565b60405180910390f35b6101256101203660046107f5565b6102e5565b6040519015158152602001610109565b6002545b604051908152602001610109565b61012561015536600461081d565b6102fe565b60405160128152602001610109565b61017c6101773660046107f5565b610321565b005b61017c61018c366004610856565b610337565b61013961019f36600461086d565b6001600160a01b03165f9081526020819052604090205490565b61017c610344565b61017c6101cf3660046107f5565b610357565b6005546040516001600160a01b039091168152602001610109565b6100fc61036c565b6101256102053660046107f5565b61037b565b61013961021836600461088d565b6001600160a01b039182165f90815260016020908152604080832093909416825291909152205490565b61017c61025036600461086d565b610388565b606060038054610264906108be565b80601f0160208091040260200160405190810160405280929190818152602001828054610290906108be565b80156102db5780601f106102b2576101008083540402835291602001916102db565b820191905f5260205f20905b8154815290600101906020018083116102be57829003601f168201915b5050505050905090565b5f336102f28185856103c7565b60019150505b92915050565b5f3361030b8582856103d9565b610316858585610454565b506001949350505050565b6103296104b1565b61033382826104de565b5050565b6103413382610512565b50565b61034c6104b1565b6103555f610546565b565b6103628233836103d9565b6103338282610512565b606060048054610264906108be565b5f336102f2818585610454565b6103906104b1565b6001600160a01b0381166103be57604051631e4fbdf760e01b81525f60048201526024015b60405180910390fd5b61034181610546565b6103d48383836001610597565b505050565b6001600160a01b038381165f908152600160209081526040808320938616835292905220545f19811461044e578181101561044057604051637dc7a0d960e11b81526001600160a01b038416600482015260248101829052604481018390526064016103b5565b61044e84848484035f610597565b50505050565b6001600160a01b03831661047d57604051634b637e8f60e11b81525f60048201526024016103b5565b6001600160a01b0382166104a65760405163ec442f0560e01b81525f60048201526024016103b5565b6103d4838383610669565b6005546001600160a01b031633146103555760405163118cdaa760e01b81523360048201526024016103b5565b6001600160a01b0382166105075760405163ec442f0560e01b81525f60048201526024016103b5565b6103335f8383610669565b6001600160a01b03821661053b57604051634b637e8f60e11b81525f60048201526024016103b5565b610333825f83610669565b600580546001600160a01b038381166001600160a01b0319831681179093556040519116919082907f8be0079c531659141344cd1fd0a4f28419497f9722a3daafe3b4186f6b6457e0905f90a35050565b6001600160a01b0384166105c05760405163e602df0560e01b81525f60048201526024016103b5565b6001600160a01b0383166105e957604051634a1406b160e11b81525f60048201526024016103b5565b6001600160a01b038085165f908152600160209081526040808320938716835292905220829055801561044e57826001600160a01b0316846001600160a01b03167f8c5be1e5ebec7d5bd14f71427d1e84f3dd0314c0f7b2291e5b200ac8c7c3b9258460405161065b91815260200190565b60405180910390a350505050565b6001600160a01b038316610693578060025f82825461068891906108f6565b909155506107039050565b6001600160a01b0383165f90815260208190526040902054818110156106e55760405163391434e360e21b81526001600160a01b038516600482015260248101829052604481018390526064016103b5565b6001600160a01b0384165f9081526020819052604090209082900390555b6001600160a01b03821661071f5760028054829003905561073d565b6001600160a01b0382165f9081526020819052604090208054820190555b816001600160a01b0316836001600160a01b03167fddf252ad1be2c89b69c2b068fc378daa952ba7f163c4a11628f55a4df523b3ef8360405161078291815260200190565b60405180910390a3505050565b5f6020808352835180828501525f5b818110156107ba5785810183015185820160400152820161079e565b505f604082860101526040601f19601f8301168501019250505092915050565b80356001600160a01b03811681146107f0575f80fd5b919050565b5f8060408385031215610806575f80fd5b61080f836107da565b946020939093013593505050565b5f805f6060848603121561082f575f80fd5b610838846107da565b9250610846602085016107da565b9150604084013590509250925092565b5f60208284031215610866575f80fd5b5035919050565b5f6020828403121561087d575f80fd5b610886826107da565b9392505050565b5f806040838503121561089e575f80fd5b6108a7836107da565b91506108b5602084016107da565b90509250929050565b600181811c908216806108d257607f821691505b6020821081036108f057634e487b7160e01b5f52602260045260245ffd5b50919050565b808201808211156102f857634e487b7160e01b5f52601160045260245ffdfea2646970667358221220d4345b66bfb7412d2ea509531419dca8158f537841ee0d9aa80e3d80c30a67d364736f6c63430008140033000000000000000000000000b7d030f7c6406446e703e73b3d1dd8611a2d87b6000000000000000000000000000000000000000000000000000000000000006000000000000000000000000000000000000000000000000000000000000000a0000000000000000000000000000000000000000000000000000000000000000b577261707065642042544300000000000000000000000000000000000000000000000000000000000000000000000000000000000000000000000000000000045742544300000000000000000000000000000000000000000000000000000000",
        "nonce": "0x1ff",
        "chainId": "0xaa36a7"
      },
      "additionalContracts": [],
      "isFixedGasLimit": false
    },
    {
      "hash": "0x532885758fb2d0f7ca6656722cba8e8b87a24d83005996a612b512882a5d5de9",
      "transactionType": "CALL",
      "contractName": null,
      "contractAddress": "0x8621186d94319349a870c4099465770f0e4ff3cd",
      "function": "mint(address,uint256)",
      "arguments": [
        "0xB7d030F7c6406446e703E73B3d1dd8611A2D87b6",
        "10000000000"
      ],
      "transaction": {
        "from": "0xb7d030f7c6406446e703e73b3d1dd8611a2d87b6",
        "to": "0x8621186d94319349a870c4099465770f0e4ff3cd",
        "gas": "0x17d0a",
        "value": "0x0",
        "input": "0x40c10f19000000000000000000000000b7d030f7c6406446e703e73b3d1dd8611a2d87b600000000000000000000000000000000000000000000000000000002540be400",
        "nonce": "0x200",
        "chainId": "0xaa36a7"
      },
      "additionalContracts": [],
      "isFixedGasLimit": false
    },
    {
      "hash": "0x22099207dadccbbe16833e3e5c0fe43a789e6816b7415d54b097c6729994798f",
      "transactionType": "CALL",
      "contractName": null,
      "contractAddress": "0x8621186d94319349a870c4099465770f0e4ff3cd",
      "function": "mint(address,uint256)",
      "arguments": [
        "0x4F88F1014Dd6Ca0507780380111c098BeE6b87e6",
        "10000000000"
      ],
      "transaction": {
        "from": "0xb7d030f7c6406446e703e73b3d1dd8611a2d87b6",
        "to": "0x8621186d94319349a870c4099465770f0e4ff3cd",
        "gas": "0x131c4",
        "value": "0x0",
        "input": "0x40c10f190000000000000000000000004f88f1014dd6ca0507780380111c098bee6b87e600000000000000000000000000000000000000000000000000000002540be400",
        "nonce": "0x201",
        "chainId": "0xaa36a7"
      },
      "additionalContracts": [],
      "isFixedGasLimit": false
    },
    {
      "hash": "0xe05d007de35869986057b51443d773000cfa39a02180b504317629800e3c6676",
      "transactionType": "CALL",
      "contractName": null,
      "contractAddress": "0x8621186d94319349a870c4099465770f0e4ff3cd",
      "function": "mint(address,uint256)",
      "arguments": [
        "0xC31f6b8133d618aD2ff1AC5fAA3Fc4B20557B901",
        "10000000000"
      ],
      "transaction": {
        "from": "0xb7d030f7c6406446e703e73b3d1dd8611a2d87b6",
        "to": "0x8621186d94319349a870c4099465770f0e4ff3cd",
        "gas": "0x131c4",
        "value": "0x0",
        "input": "0x40c10f19000000000000000000000000c31f6b8133d618ad2ff1ac5faa3fc4b20557b90100000000000000000000000000000000000000000000000000000002540be400",
        "nonce": "0x202",
        "chainId": "0xaa36a7"
      },
      "additionalContracts": [],
      "isFixedGasLimit": false
    },
    {
      "hash": "0xbcf2ebbd779b072cbb894fc3a898bb2a650d4f88955ab3e473c8a01d60b314a3",
      "transactionType": "CALL",
      "contractName": null,
      "contractAddress": "0x8621186d94319349a870c4099465770f0e4ff3cd",
      "function": "mint(address,uint256)",
      "arguments": [
        "0x66E675533020c3CDeE2F33E372320B7e2692211e",
        "10000000000"
      ],
      "transaction": {
        "from": "0xb7d030f7c6406446e703e73b3d1dd8611a2d87b6",
        "to": "0x8621186d94319349a870c4099465770f0e4ff3cd",
        "gas": "0x131c4",
        "value": "0x0",
        "input": "0x40c10f1900000000000000000000000066e675533020c3cdee2f33e372320b7e2692211e00000000000000000000000000000000000000000000000000000002540be400",
        "nonce": "0x203",
        "chainId": "0xaa36a7"
      },
      "additionalContracts": [],
      "isFixedGasLimit": false
    },
    {
      "hash": "0x83ba8c5e541c284f8e46086fe41b8a42a7eafa107fd626ed5baa3478b04da777",
      "transactionType": "CALL",
      "contractName": null,
      "contractAddress": "0x8621186d94319349a870c4099465770f0e4ff3cd",
      "function": "mint(address,uint256)",
      "arguments": [
        "0x8c4Eb6988A199DAbcae0Ce31052b3f3aC591787e",
        "10000000000"
      ],
      "transaction": {
        "from": "0xb7d030f7c6406446e703e73b3d1dd8611a2d87b6",
        "to": "0x8621186d94319349a870c4099465770f0e4ff3cd",
        "gas": "0x131c4",
        "value": "0x0",
        "input": "0x40c10f190000000000000000000000008c4eb6988a199dabcae0ce31052b3f3ac591787e00000000000000000000000000000000000000000000000000000002540be400",
        "nonce": "0x204",
        "chainId": "0xaa36a7"
      },
      "additionalContracts": [],
      "isFixedGasLimit": false
    },
    {
      "hash": "0xb3c3b33279669d927808206be75bb8689ea3872d2d8c484c22a884fd882baf2b",
      "transactionType": "CALL",
      "contractName": null,
      "contractAddress": "0x09748f6411a4d1a84a87645a3e406dcb3c31fc73",
      "function": "setAddresses(string[],address[])",
      "arguments": [
        "[\"TOKEN_USDT\", \"TOKEN_USDC\", \"TOKEN_WBTC\"]",
        "[0x309488D8698C9DdA39Ba4Cce9f163932d1984d8b, 0x9e0D7B454676116C123d56ff4d5ed609D75Ad00E, 0x8621186D94319349A870c4099465770f0E4FF3cD]"
      ],
      "transaction": {
        "from": "0xb7d030f7c6406446e703e73b3d1dd8611a2d87b6",
        "to": "0x09748f6411a4d1a84a87645a3e406dcb3c31fc73",
        "gas": "0x24f96",
        "value": "0x0",
        "input": "0x7d69a892000000000000000000000000000000000000000000000000000000000000004000000000000000000000000000000000000000000000000000000000000001800000000000000000000000000000000000000000000000000000000000000003000000000000000000000000000000000000000000000000000000000000006000000000000000000000000000000000000000000000000000000000000000a000000000000000000000000000000000000000000000000000000000000000e0000000000000000000000000000000000000000000000000000000000000000a544f4b454e5f5553445400000000000000000000000000000000000000000000000000000000000000000000000000000000000000000000000000000000000a544f4b454e5f5553444300000000000000000000000000000000000000000000000000000000000000000000000000000000000000000000000000000000000a544f4b454e5f57425443000000000000000000000000000000000000000000000000000000000000000000000000000000000000000000000000000000000003000000000000000000000000309488d8698c9dda39ba4cce9f163932d1984d8b0000000000000000000000009e0d7b454676116c123d56ff4d5ed609d75ad00e0000000000000000000000008621186d94319349a870c4099465770f0e4ff3cd",
        "nonce": "0x205",
        "chainId": "0xaa36a7"
      },
      "additionalContracts": [],
      "isFixedGasLimit": false
    }
  ],
  "receipts": [
    {
      "status": "0x1",
      "cumulativeGasUsed": "0xede77a",
      "logs": [
        {
          "address": "0x309488d8698c9dda39ba4cce9f163932d1984d8b",
          "topics": [
            "0x8be0079c531659141344cd1fd0a4f28419497f9722a3daafe3b4186f6b6457e0",
            "0x0000000000000000000000000000000000000000000000000000000000000000",
            "0x000000000000000000000000b7d030f7c6406446e703e73b3d1dd8611a2d87b6"
          ],
          "data": "0x",
          "blockHash": "0x9e1c160d83b734402df393d1dabee6518c5c514bc41e5c89db68209b0d6918ca",
          "blockNumber": "0x69cf82",
          "transactionHash": "0x73211bd713ea9baeca1d2781e8cf42206199e00f3cb5c1e3ea54078c92bde805",
          "transactionIndex": "0x42",
          "logIndex": "0x88",
          "removed": false
        }
      ],
      "logsBloom": "0x00000000000000000000000000000200000000000000000000800000000000000000000000000000000000000000000000000000000000000000000000000000000000000000000000000000000800000001000000400000000000000000000000000000020000000000000000000800000000000000000200000000000000600000000000000000000000000000000000000000000000000000000000000020000000000000000000000000000000000000000000000000000000000000000000000000000000000000000000000000000000000000000000000000000020000000000000000000000000000000000000000000000000000000000000000000",
      "type": "0x2",
      "transactionHash": "0x73211bd713ea9baeca1d2781e8cf42206199e00f3cb5c1e3ea54078c92bde805",
      "transactionIndex": "0x42",
      "blockHash": "0x9e1c160d83b734402df393d1dabee6518c5c514bc41e5c89db68209b0d6918ca",
      "blockNumber": "0x69cf82",
      "gasUsed": "0x9f51e",
      "effectiveGasPrice": "0x32baa0f9",
      "from": "0xb7d030f7c6406446e703e73b3d1dd8611a2d87b6",
      "to": null,
      "contractAddress": "0x309488d8698c9dda39ba4cce9f163932d1984d8b"
    },
    {
      "status": "0x1",
      "cumulativeGasUsed": "0xeefb59",
      "logs": [
        {
          "address": "0x309488d8698c9dda39ba4cce9f163932d1984d8b",
          "topics": [
            "0xddf252ad1be2c89b69c2b068fc378daa952ba7f163c4a11628f55a4df523b3ef",
            "0x0000000000000000000000000000000000000000000000000000000000000000",
            "0x000000000000000000000000b7d030f7c6406446e703e73b3d1dd8611a2d87b6"
          ],
          "data": "0x000000000000000000000000000000000000000000000000000000e8d4a51000",
          "blockHash": "0x9e1c160d83b734402df393d1dabee6518c5c514bc41e5c89db68209b0d6918ca",
          "blockNumber": "0x69cf82",
          "transactionHash": "0x59e6826dc8c8ceb9d0b5b0800bb32303db7701b3910721ebf0fa8cd66af4552e",
          "transactionIndex": "0x43",
          "logIndex": "0x89",
          "removed": false
        }
      ],
      "logsBloom": "0x00000000000000000000000000000200000000000000000000000000000000000000000000000000000000000000000000000000000000000000000000000000000000000000000000000008000800000000000000400000000000000000000000000000020000000000000000000800000000000000000200000010000000200000000000000000000000000000000000000000000000000000000000000020000000000000000000000000000000000000000000000000000000000000000000000002000000000000000000000000000000000000000000000000000020000000000000000000000000000000000000000000000000000000000000000000",
      "type": "0x2",
      "transactionHash": "0x59e6826dc8c8ceb9d0b5b0800bb32303db7701b3910721ebf0fa8cd66af4552e",
      "transactionIndex": "0x43",
      "blockHash": "0x9e1c160d83b734402df393d1dabee6518c5c514bc41e5c89db68209b0d6918ca",
      "blockNumber": "0x69cf82",
      "gasUsed": "0x113df",
      "effectiveGasPrice": "0x32baa0f9",
      "from": "0xb7d030f7c6406446e703e73b3d1dd8611a2d87b6",
      "to": "0x309488d8698c9dda39ba4cce9f163932d1984d8b",
      "contractAddress": null
    },
    {
      "status": "0x1",
      "cumulativeGasUsed": "0xefcc6c",
      "logs": [
        {
          "address": "0x309488d8698c9dda39ba4cce9f163932d1984d8b",
          "topics": [
            "0xddf252ad1be2c89b69c2b068fc378daa952ba7f163c4a11628f55a4df523b3ef",
            "0x0000000000000000000000000000000000000000000000000000000000000000",
            "0x0000000000000000000000004f88f1014dd6ca0507780380111c098bee6b87e6"
          ],
          "data": "0x000000000000000000000000000000000000000000000000000000e8d4a51000",
          "blockHash": "0x9e1c160d83b734402df393d1dabee6518c5c514bc41e5c89db68209b0d6918ca",
          "blockNumber": "0x69cf82",
          "transactionHash": "0xa45bfd828301c94eb1cc8f040454daed0ec6bb854e0057be5f29070eb4c6fc79",
          "transactionIndex": "0x44",
          "logIndex": "0x8a",
          "removed": false
        }
      ],
      "logsBloom": "0x00000000000000000000000002000200000000000000000000000000000000000000000000000000000000000000000000000000000000000000000000000000000000000000000000000008000800000000000000000000000000000000000000000000020000000000000000000800000000000000000000000010000000200000000000000000000000000000000000000000000000000000000000000000000000000000000000000000000000000000000004000000000000000000000000000002000000000000000000000000000000000000000000000000000020000000000000000000000000000000000000000000008000000000000000000000",
      "type": "0x2",
      "transactionHash": "0xa45bfd828301c94eb1cc8f040454daed0ec6bb854e0057be5f29070eb4c6fc79",
      "transactionIndex": "0x44",
      "blockHash": "0x9e1c160d83b734402df393d1dabee6518c5c514bc41e5c89db68209b0d6918ca",
      "blockNumber": "0x69cf82",
      "gasUsed": "0xd113",
      "effectiveGasPrice": "0x32baa0f9",
      "from": "0xb7d030f7c6406446e703e73b3d1dd8611a2d87b6",
      "to": "0x309488d8698c9dda39ba4cce9f163932d1984d8b",
      "contractAddress": null
    },
    {
      "status": "0x1",
      "cumulativeGasUsed": "0xf09d7f",
      "logs": [
        {
          "address": "0x309488d8698c9dda39ba4cce9f163932d1984d8b",
          "topics": [
            "0xddf252ad1be2c89b69c2b068fc378daa952ba7f163c4a11628f55a4df523b3ef",
            "0x0000000000000000000000000000000000000000000000000000000000000000",
            "0x000000000000000000000000c31f6b8133d618ad2ff1ac5faa3fc4b20557b901"
          ],
          "data": "0x000000000000000000000000000000000000000000000000000000e8d4a51000",
          "blockHash": "0x9e1c160d83b734402df393d1dabee6518c5c514bc41e5c89db68209b0d6918ca",
          "blockNumber": "0x69cf82",
          "transactionHash": "0x3bfaa6e3a6324e50915e3ca615190007fe0a87d1b2b07e3e5198e84f43ed34be",
          "transactionIndex": "0x45",
          "logIndex": "0x8b",
          "removed": false
        }
      ],
      "logsBloom": "0x00000000000000000000000000000200000000000000000000000000000000000000000000000000000000000000000000000000000000000000000000000000000000000000000000000008000800000000000000000000000000000000000000000000020000000000000000000800000000000000000000000010400000200000000000000000000000000000000000000002000000000000000000000000000000000000000000000000000000000000000000000000080000000000000000000002000000000000000000000000000000000000000000000000000020000000000000000000000000000000000000000000000000000000000000000000",
      "type": "0x2",
      "transactionHash": "0x3bfaa6e3a6324e50915e3ca615190007fe0a87d1b2b07e3e5198e84f43ed34be",
      "transactionIndex": "0x45",
      "blockHash": "0x9e1c160d83b734402df393d1dabee6518c5c514bc41e5c89db68209b0d6918ca",
      "blockNumber": "0x69cf82",
      "gasUsed": "0xd113",
      "effectiveGasPrice": "0x32baa0f9",
      "from": "0xb7d030f7c6406446e703e73b3d1dd8611a2d87b6",
      "to": "0x309488d8698c9dda39ba4cce9f163932d1984d8b",
      "contractAddress": null
    },
    {
      "status": "0x1",
      "cumulativeGasUsed": "0xf16e92",
      "logs": [
        {
          "address": "0x309488d8698c9dda39ba4cce9f163932d1984d8b",
          "topics": [
            "0xddf252ad1be2c89b69c2b068fc378daa952ba7f163c4a11628f55a4df523b3ef",
            "0x0000000000000000000000000000000000000000000000000000000000000000",
            "0x00000000000000000000000066e675533020c3cdee2f33e372320b7e2692211e"
          ],
          "data": "0x000000000000000000000000000000000000000000000000000000e8d4a51000",
          "blockHash": "0x9e1c160d83b734402df393d1dabee6518c5c514bc41e5c89db68209b0d6918ca",
          "blockNumber": "0x69cf82",
          "transactionHash": "0x1d5d24ce4cedbb9b0d5b7ffb8a607e29e6310e07841e60de86e299a24379c922",
          "transactionIndex": "0x46",
          "logIndex": "0x8c",
          "removed": false
        }
      ],
      "logsBloom": "0x00000000000000000000000000000200000000000000000000000000001000000000000000000000000000000000000000000000000000000000000000000000000000000000000000000008000808000000000000000000000000000000000000000000020000000000000000000800000000000000000000000010000000200000000000000000000000000000000000000000002000000000000000000000000000000000000000000000000000000000000000000000000000000000000000000002000000000000000000000000000000000000000000000000000020000000000000000000000000000000000000000000000000000000000000000000",
      "type": "0x2",
      "transactionHash": "0x1d5d24ce4cedbb9b0d5b7ffb8a607e29e6310e07841e60de86e299a24379c922",
      "transactionIndex": "0x46",
      "blockHash": "0x9e1c160d83b734402df393d1dabee6518c5c514bc41e5c89db68209b0d6918ca",
      "blockNumber": "0x69cf82",
      "gasUsed": "0xd113",
      "effectiveGasPrice": "0x32baa0f9",
      "from": "0xb7d030f7c6406446e703e73b3d1dd8611a2d87b6",
      "to": "0x309488d8698c9dda39ba4cce9f163932d1984d8b",
      "contractAddress": null
    },
    {
      "status": "0x1",
      "cumulativeGasUsed": "0xf23fa5",
      "logs": [
        {
          "address": "0x309488d8698c9dda39ba4cce9f163932d1984d8b",
          "topics": [
            "0xddf252ad1be2c89b69c2b068fc378daa952ba7f163c4a11628f55a4df523b3ef",
            "0x0000000000000000000000000000000000000000000000000000000000000000",
            "0x0000000000000000000000008c4eb6988a199dabcae0ce31052b3f3ac591787e"
          ],
          "data": "0x000000000000000000000000000000000000000000000000000000e8d4a51000",
          "blockHash": "0x9e1c160d83b734402df393d1dabee6518c5c514bc41e5c89db68209b0d6918ca",
          "blockNumber": "0x69cf82",
          "transactionHash": "0xbb2eea0c21606cdcdb7083bf2eb748839f505eca439cb631e40d4573a8a69e4c",
          "transactionIndex": "0x47",
          "logIndex": "0x8d",
          "removed": false
        }
      ],
      "logsBloom": "0x00000000000000000000000000000200000000000000000000000000000000000000000000000000000000000000000000000000000040000000000000000000000000000000000000000008000800000000000000000000000000000000000000000000020000000000000000000800000000000000000000000010000000200000000100000000000000000000000000000000000000000000000000000000000000000000000000000000000001000000000000000000000000000000000000000002000000000000000000000000000000000000000000000000000020000000000000000000000000000000000000000000000000000000000000000000",
      "type": "0x2",
      "transactionHash": "0xbb2eea0c21606cdcdb7083bf2eb748839f505eca439cb631e40d4573a8a69e4c",
      "transactionIndex": "0x47",
      "blockHash": "0x9e1c160d83b734402df393d1dabee6518c5c514bc41e5c89db68209b0d6918ca",
      "blockNumber": "0x69cf82",
      "gasUsed": "0xd113",
      "effectiveGasPrice": "0x32baa0f9",
      "from": "0xb7d030f7c6406446e703e73b3d1dd8611a2d87b6",
      "to": "0x309488d8698c9dda39ba4cce9f163932d1984d8b",
      "contractAddress": null
    },
    {
      "status": "0x1",
      "cumulativeGasUsed": "0xfc34ab",
      "logs": [
        {
          "address": "0x9e0d7b454676116c123d56ff4d5ed609d75ad00e",
          "topics": [
            "0x8be0079c531659141344cd1fd0a4f28419497f9722a3daafe3b4186f6b6457e0",
            "0x0000000000000000000000000000000000000000000000000000000000000000",
            "0x000000000000000000000000b7d030f7c6406446e703e73b3d1dd8611a2d87b6"
          ],
          "data": "0x",
          "blockHash": "0x9e1c160d83b734402df393d1dabee6518c5c514bc41e5c89db68209b0d6918ca",
          "blockNumber": "0x69cf82",
          "transactionHash": "0xe476fc191ca98343ebd895de460aaf9382fa2414bccc797602d7f7b6572c6b30",
          "transactionIndex": "0x48",
          "logIndex": "0x8e",
          "removed": false
        }
      ],
      "logsBloom": "0x00000000000000000000000000000000000000000000000000800000000000000000000000000000000000000000000000000000000000000000000000000000000000000000000000000000000000000001000000400000000000000000000000000000020000000000200000000a00000000000000000200000000000000400000000000000000000000000000000000000000000000000000000000000020000000000000000000000000000000000000000000000000000020000000000000000000000000000000000000000000000000000000000000000000000020000000000000000000000000000000000000000000000000000000000000000000",
      "type": "0x2",
      "transactionHash": "0xe476fc191ca98343ebd895de460aaf9382fa2414bccc797602d7f7b6572c6b30",
      "transactionIndex": "0x48",
      "blockHash": "0x9e1c160d83b734402df393d1dabee6518c5c514bc41e5c89db68209b0d6918ca",
      "blockNumber": "0x69cf82",
      "gasUsed": "0x9f506",
      "effectiveGasPrice": "0x32baa0f9",
      "from": "0xb7d030f7c6406446e703e73b3d1dd8611a2d87b6",
      "to": null,
      "contractAddress": "0x9e0d7b454676116c123d56ff4d5ed609d75ad00e"
    },
    {
      "status": "0x1",
      "cumulativeGasUsed": "0xfd488a",
      "logs": [
        {
          "address": "0x9e0d7b454676116c123d56ff4d5ed609d75ad00e",
          "topics": [
            "0xddf252ad1be2c89b69c2b068fc378daa952ba7f163c4a11628f55a4df523b3ef",
            "0x0000000000000000000000000000000000000000000000000000000000000000",
            "0x000000000000000000000000b7d030f7c6406446e703e73b3d1dd8611a2d87b6"
          ],
          "data": "0x000000000000000000000000000000000000000000000000000000e8d4a51000",
          "blockHash": "0x9e1c160d83b734402df393d1dabee6518c5c514bc41e5c89db68209b0d6918ca",
          "blockNumber": "0x69cf82",
          "transactionHash": "0x4ea6261834d7b6733e293301087f701bebf1231821a06efc0c402fe604c82c81",
          "transactionIndex": "0x49",
          "logIndex": "0x8f",
          "removed": false
        }
      ],
      "logsBloom": "0x00000000000000000000000000000000000000000000000000000000000000000000000000000000000000000000000000000000000000000000000000000000000000000000000000000008000000000000000000400000000000000000000000000000020000000000200000000a00000000000000000200000010000000000000000000000000000000000000000000000000000000000000000000000020000000000000000000000000000000000000000000000000000020000000000000000002000000000000000000000000000000000000000000000000000020000000000000000000000000000000000000000000000000000000000000000000",
      "type": "0x2",
      "transactionHash": "0x4ea6261834d7b6733e293301087f701bebf1231821a06efc0c402fe604c82c81",
      "transactionIndex": "0x49",
      "blockHash": "0x9e1c160d83b734402df393d1dabee6518c5c514bc41e5c89db68209b0d6918ca",
      "blockNumber": "0x69cf82",
      "gasUsed": "0x113df",
      "effectiveGasPrice": "0x32baa0f9",
      "from": "0xb7d030f7c6406446e703e73b3d1dd8611a2d87b6",
      "to": "0x9e0d7b454676116c123d56ff4d5ed609d75ad00e",
      "contractAddress": null
    },
    {
      "status": "0x1",
      "cumulativeGasUsed": "0xfe6ba5",
      "logs": [
        {
          "address": "0x9e0d7b454676116c123d56ff4d5ed609d75ad00e",
          "topics": [
            "0xddf252ad1be2c89b69c2b068fc378daa952ba7f163c4a11628f55a4df523b3ef",
            "0x0000000000000000000000000000000000000000000000000000000000000000",
            "0x0000000000000000000000004f88f1014dd6ca0507780380111c098bee6b87e6"
          ],
          "data": "0x000000000000000000000000000000000000000000000000000000e8d4a51000",
          "blockHash": "0x9e1c160d83b734402df393d1dabee6518c5c514bc41e5c89db68209b0d6918ca",
          "blockNumber": "0x69cf82",
          "transactionHash": "0x1dfcdea00d4d807766208fd8ffb7c5146c1c1efe00268eeea47d66eba418ebda",
          "transactionIndex": "0x4b",
          "logIndex": "0x90",
          "removed": false
        }
      ],
      "logsBloom": "0x00000000000000000000000002000000000000000000000000000000000000000000000000000000000000000000000000000000000000000000000000000000000000000000000000000008000000000000000000000000000000000000000000000000020000000000200000000a00000000000000000000000010000000000000000000000000000000000000000000000000000000000000000000000000000000000000000000000000000000000000000004000000000020000000000000000002000000000000000000000000000000000000000000000000000020000000000000000000000000000000000000000000008000000000000000000000",
      "type": "0x2",
      "transactionHash": "0x1dfcdea00d4d807766208fd8ffb7c5146c1c1efe00268eeea47d66eba418ebda",
      "transactionIndex": "0x4b",
      "blockHash": "0x9e1c160d83b734402df393d1dabee6518c5c514bc41e5c89db68209b0d6918ca",
      "blockNumber": "0x69cf82",
      "gasUsed": "0xd113",
      "effectiveGasPrice": "0x32baa0f9",
      "from": "0xb7d030f7c6406446e703e73b3d1dd8611a2d87b6",
      "to": "0x9e0d7b454676116c123d56ff4d5ed609d75ad00e",
      "contractAddress": null
    },
    {
      "status": "0x1",
      "cumulativeGasUsed": "0xffe0c8",
      "logs": [
        {
          "address": "0x9e0d7b454676116c123d56ff4d5ed609d75ad00e",
          "topics": [
            "0xddf252ad1be2c89b69c2b068fc378daa952ba7f163c4a11628f55a4df523b3ef",
            "0x0000000000000000000000000000000000000000000000000000000000000000",
            "0x000000000000000000000000c31f6b8133d618ad2ff1ac5faa3fc4b20557b901"
          ],
          "data": "0x000000000000000000000000000000000000000000000000000000e8d4a51000",
          "blockHash": "0x9e1c160d83b734402df393d1dabee6518c5c514bc41e5c89db68209b0d6918ca",
          "blockNumber": "0x69cf82",
          "transactionHash": "0x16818d322f685c185cbf5947b1b00234b46ec43ec79ff46c11531b3994fea3b5",
          "transactionIndex": "0x4e",
          "logIndex": "0x91",
          "removed": false
        }
      ],
      "logsBloom": "0x00000000000000000000000000000000000000000000000000000000000000000000000000000000000000000000000000000000000000000000000000000000000000000000000000000008000000000000000000000000000000000000000000000000020000000000200000000a00000000000000000000000010400000000000000000000000000000000000000000000002000000000000000000000000000000000000000000000000000000000000000000000000080020000000000000000002000000000000000000000000000000000000000000000000000020000000000000000000000000000000000000000000000000000000000000000000",
      "type": "0x2",
      "transactionHash": "0x16818d322f685c185cbf5947b1b00234b46ec43ec79ff46c11531b3994fea3b5",
      "transactionIndex": "0x4e",
      "blockHash": "0x9e1c160d83b734402df393d1dabee6518c5c514bc41e5c89db68209b0d6918ca",
      "blockNumber": "0x69cf82",
      "gasUsed": "0xd113",
      "effectiveGasPrice": "0x32baa0f9",
      "from": "0xb7d030f7c6406446e703e73b3d1dd8611a2d87b6",
      "to": "0x9e0d7b454676116c123d56ff4d5ed609d75ad00e",
      "contractAddress": null
    },
    {
      "status": "0x1",
      "cumulativeGasUsed": "0x100b1db",
      "logs": [
        {
          "address": "0x9e0d7b454676116c123d56ff4d5ed609d75ad00e",
          "topics": [
            "0xddf252ad1be2c89b69c2b068fc378daa952ba7f163c4a11628f55a4df523b3ef",
            "0x0000000000000000000000000000000000000000000000000000000000000000",
            "0x00000000000000000000000066e675533020c3cdee2f33e372320b7e2692211e"
          ],
          "data": "0x000000000000000000000000000000000000000000000000000000e8d4a51000",
          "blockHash": "0x9e1c160d83b734402df393d1dabee6518c5c514bc41e5c89db68209b0d6918ca",
          "blockNumber": "0x69cf82",
          "transactionHash": "0x32b0c8dc0867162be3b187e042511657d86618b5d71e11979c6de3fb04dee4e5",
          "transactionIndex": "0x4f",
          "logIndex": "0x92",
          "removed": false
        }
      ],
      "logsBloom": "0x00000000000000000000000000000000000000000000000000000000001000000000000000000000000000000000000000000000000000000000000000000000000000000000000000000008000008000000000000000000000000000000000000000000020000000000200000000a00000000000000000000000010000000000000000000000000000000000000000000000000002000000000000000000000000000000000000000000000000000000000000000000000000020000000000000000002000000000000000000000000000000000000000000000000000020000000000000000000000000000000000000000000000000000000000000000000",
      "type": "0x2",
      "transactionHash": "0x32b0c8dc0867162be3b187e042511657d86618b5d71e11979c6de3fb04dee4e5",
      "transactionIndex": "0x4f",
      "blockHash": "0x9e1c160d83b734402df393d1dabee6518c5c514bc41e5c89db68209b0d6918ca",
      "blockNumber": "0x69cf82",
      "gasUsed": "0xd113",
      "effectiveGasPrice": "0x32baa0f9",
      "from": "0xb7d030f7c6406446e703e73b3d1dd8611a2d87b6",
      "to": "0x9e0d7b454676116c123d56ff4d5ed609d75ad00e",
      "contractAddress": null
    },
    {
      "status": "0x1",
      "cumulativeGasUsed": "0x10182ee",
      "logs": [
        {
          "address": "0x9e0d7b454676116c123d56ff4d5ed609d75ad00e",
          "topics": [
            "0xddf252ad1be2c89b69c2b068fc378daa952ba7f163c4a11628f55a4df523b3ef",
            "0x0000000000000000000000000000000000000000000000000000000000000000",
            "0x0000000000000000000000008c4eb6988a199dabcae0ce31052b3f3ac591787e"
          ],
          "data": "0x000000000000000000000000000000000000000000000000000000e8d4a51000",
          "blockHash": "0x9e1c160d83b734402df393d1dabee6518c5c514bc41e5c89db68209b0d6918ca",
          "blockNumber": "0x69cf82",
          "transactionHash": "0x1d810552729bad4fc3885350cc813ed74b7d2740d88f0ecfcc0985983ecab9f6",
          "transactionIndex": "0x50",
          "logIndex": "0x93",
          "removed": false
        }
      ],
      "logsBloom": "0x00000000000000000000000000000000000000000000000000000000000000000000000000000000000000000000000000000000000040000000000000000000000000000000000000000008000000000000000000000000000000000000000000000000020000000000200000000a00000000000000000000000010000000000000000100000000000000000000000000000000000000000000000000000000000000000000000000000000000001000000000000000000000020000000000000000002000000000000000000000000000000000000000000000000000020000000000000000000000000000000000000000000000000000000000000000000",
      "type": "0x2",
      "transactionHash": "0x1d810552729bad4fc3885350cc813ed74b7d2740d88f0ecfcc0985983ecab9f6",
      "transactionIndex": "0x50",
      "blockHash": "0x9e1c160d83b734402df393d1dabee6518c5c514bc41e5c89db68209b0d6918ca",
      "blockNumber": "0x69cf82",
      "gasUsed": "0xd113",
      "effectiveGasPrice": "0x32baa0f9",
      "from": "0xb7d030f7c6406446e703e73b3d1dd8611a2d87b6",
      "to": "0x9e0d7b454676116c123d56ff4d5ed609d75ad00e",
      "contractAddress": null
    },
    {
      "status": "0x1",
      "cumulativeGasUsed": "0x10b7818",
      "logs": [
        {
          "address": "0x8621186d94319349a870c4099465770f0e4ff3cd",
          "topics": [
            "0x8be0079c531659141344cd1fd0a4f28419497f9722a3daafe3b4186f6b6457e0",
            "0x0000000000000000000000000000000000000000000000000000000000000000",
            "0x000000000000000000000000b7d030f7c6406446e703e73b3d1dd8611a2d87b6"
          ],
          "data": "0x",
          "blockHash": "0x9e1c160d83b734402df393d1dabee6518c5c514bc41e5c89db68209b0d6918ca",
          "blockNumber": "0x69cf82",
          "transactionHash": "0x385075b056ab7e5c69d53581c3e391548fd1cbd8d1c666b4742f333ecca7014e",
          "transactionIndex": "0x51",
          "logIndex": "0x94",
          "removed": false
        }
      ],
      "logsBloom": "0x00000000000000000000000000000000000000000000000000800000000000000000000000000000000000000000200000000000000000000000000000000000000000000020000000000000000000000001000000400000000000000000000000000000020000010000000000000800000000000000000200000000000000400000000000000000000000000000000000000000000000000000000000000020000000000000000000000000000000000000000000000000000000000000000000000000000000000000000000000000000000000000000000000000000020000000000000000000000000000000000000000000000000000000000000000000",
      "type": "0x2",
      "transactionHash": "0x385075b056ab7e5c69d53581c3e391548fd1cbd8d1c666b4742f333ecca7014e",
      "transactionIndex": "0x51",
      "blockHash": "0x9e1c160d83b734402df393d1dabee6518c5c514bc41e5c89db68209b0d6918ca",
      "blockNumber": "0x69cf82",
      "gasUsed": "0x9f52a",
      "effectiveGasPrice": "0x32baa0f9",
      "from": "0xb7d030f7c6406446e703e73b3d1dd8611a2d87b6",
      "to": null,
      "contractAddress": "0x8621186d94319349a870c4099465770f0e4ff3cd"
    },
    {
      "status": "0x1",
      "cumulativeGasUsed": "0x10c8bf7",
      "logs": [
        {
          "address": "0x8621186d94319349a870c4099465770f0e4ff3cd",
          "topics": [
            "0xddf252ad1be2c89b69c2b068fc378daa952ba7f163c4a11628f55a4df523b3ef",
            "0x0000000000000000000000000000000000000000000000000000000000000000",
            "0x000000000000000000000000b7d030f7c6406446e703e73b3d1dd8611a2d87b6"
          ],
          "data": "0x00000000000000000000000000000000000000000000000000000002540be400",
          "blockHash": "0x9e1c160d83b734402df393d1dabee6518c5c514bc41e5c89db68209b0d6918ca",
          "blockNumber": "0x69cf82",
          "transactionHash": "0x532885758fb2d0f7ca6656722cba8e8b87a24d83005996a612b512882a5d5de9",
          "transactionIndex": "0x52",
          "logIndex": "0x95",
          "removed": false
        }
      ],
      "logsBloom": "0x00000000000000000000000000000000000000000000000000000000000000000000000000000000000000000000200000000000000000000000000000000000000000000020000000000008000000000000000000400000000000000000000000000000020000010000000000000800000000000000000200000010000000000000000000000000000000000000000000000000000000000000000000000020000000000000000000000000000000000000000000000000000000000000000000000002000000000000000000000000000000000000000000000000000020000000000000000000000000000000000000000000000000000000000000000000",
      "type": "0x2",
      "transactionHash": "0x532885758fb2d0f7ca6656722cba8e8b87a24d83005996a612b512882a5d5de9",
      "transactionIndex": "0x52",
      "blockHash": "0x9e1c160d83b734402df393d1dabee6518c5c514bc41e5c89db68209b0d6918ca",
      "blockNumber": "0x69cf82",
      "gasUsed": "0x113df",
      "effectiveGasPrice": "0x32baa0f9",
      "from": "0xb7d030f7c6406446e703e73b3d1dd8611a2d87b6",
      "to": "0x8621186d94319349a870c4099465770f0e4ff3cd",
      "contractAddress": null
    },
    {
      "status": "0x1",
      "cumulativeGasUsed": "0x10d5d0a",
      "logs": [
        {
          "address": "0x8621186d94319349a870c4099465770f0e4ff3cd",
          "topics": [
            "0xddf252ad1be2c89b69c2b068fc378daa952ba7f163c4a11628f55a4df523b3ef",
            "0x0000000000000000000000000000000000000000000000000000000000000000",
            "0x0000000000000000000000004f88f1014dd6ca0507780380111c098bee6b87e6"
          ],
          "data": "0x00000000000000000000000000000000000000000000000000000002540be400",
          "blockHash": "0x9e1c160d83b734402df393d1dabee6518c5c514bc41e5c89db68209b0d6918ca",
          "blockNumber": "0x69cf82",
          "transactionHash": "0x22099207dadccbbe16833e3e5c0fe43a789e6816b7415d54b097c6729994798f",
          "transactionIndex": "0x53",
          "logIndex": "0x96",
          "removed": false
        }
      ],
      "logsBloom": "0x00000000000000000000000002000000000000000000000000000000000000000000000000000000000000000000200000000000000000000000000000000000000000000020000000000008000000000000000000000000000000000000000000000000020000010000000000000800000000000000000000000010000000000000000000000000000000000000000000000000000000000000000000000000000000000000000000000000000000000000000004000000000000000000000000000002000000000000000000000000000000000000000000000000000020000000000000000000000000000000000000000000008000000000000000000000",
      "type": "0x2",
      "transactionHash": "0x22099207dadccbbe16833e3e5c0fe43a789e6816b7415d54b097c6729994798f",
      "transactionIndex": "0x53",
      "blockHash": "0x9e1c160d83b734402df393d1dabee6518c5c514bc41e5c89db68209b0d6918ca",
      "blockNumber": "0x69cf82",
      "gasUsed": "0xd113",
      "effectiveGasPrice": "0x32baa0f9",
      "from": "0xb7d030f7c6406446e703e73b3d1dd8611a2d87b6",
      "to": "0x8621186d94319349a870c4099465770f0e4ff3cd",
      "contractAddress": null
    },
    {
      "status": "0x1",
      "cumulativeGasUsed": "0x10e2e1d",
      "logs": [
        {
          "address": "0x8621186d94319349a870c4099465770f0e4ff3cd",
          "topics": [
            "0xddf252ad1be2c89b69c2b068fc378daa952ba7f163c4a11628f55a4df523b3ef",
            "0x0000000000000000000000000000000000000000000000000000000000000000",
            "0x000000000000000000000000c31f6b8133d618ad2ff1ac5faa3fc4b20557b901"
          ],
          "data": "0x00000000000000000000000000000000000000000000000000000002540be400",
          "blockHash": "0x9e1c160d83b734402df393d1dabee6518c5c514bc41e5c89db68209b0d6918ca",
          "blockNumber": "0x69cf82",
          "transactionHash": "0xe05d007de35869986057b51443d773000cfa39a02180b504317629800e3c6676",
          "transactionIndex": "0x54",
          "logIndex": "0x97",
          "removed": false
        }
      ],
      "logsBloom": "0x00000000000000000000000000000000000000000000000000000000000000000000000000000000000000000000200000000000000000000000000000000000000000000020000000000008000000000000000000000000000000000000000000000000020000010000000000000800000000000000000000000010400000000000000000000000000000000000000000000002000000000000000000000000000000000000000000000000000000000000000000000000080000000000000000000002000000000000000000000000000000000000000000000000000020000000000000000000000000000000000000000000000000000000000000000000",
      "type": "0x2",
      "transactionHash": "0xe05d007de35869986057b51443d773000cfa39a02180b504317629800e3c6676",
      "transactionIndex": "0x54",
      "blockHash": "0x9e1c160d83b734402df393d1dabee6518c5c514bc41e5c89db68209b0d6918ca",
      "blockNumber": "0x69cf82",
      "gasUsed": "0xd113",
      "effectiveGasPrice": "0x32baa0f9",
      "from": "0xb7d030f7c6406446e703e73b3d1dd8611a2d87b6",
      "to": "0x8621186d94319349a870c4099465770f0e4ff3cd",
      "contractAddress": null
    },
    {
      "status": "0x1",
      "cumulativeGasUsed": "0x10eff30",
      "logs": [
        {
          "address": "0x8621186d94319349a870c4099465770f0e4ff3cd",
          "topics": [
            "0xddf252ad1be2c89b69c2b068fc378daa952ba7f163c4a11628f55a4df523b3ef",
            "0x0000000000000000000000000000000000000000000000000000000000000000",
            "0x00000000000000000000000066e675533020c3cdee2f33e372320b7e2692211e"
          ],
          "data": "0x00000000000000000000000000000000000000000000000000000002540be400",
          "blockHash": "0x9e1c160d83b734402df393d1dabee6518c5c514bc41e5c89db68209b0d6918ca",
          "blockNumber": "0x69cf82",
          "transactionHash": "0xbcf2ebbd779b072cbb894fc3a898bb2a650d4f88955ab3e473c8a01d60b314a3",
          "transactionIndex": "0x55",
          "logIndex": "0x98",
          "removed": false
        }
      ],
      "logsBloom": "0x00000000000000000000000000000000000000000000000000000000001000000000000000000000000000000000200000000000000000000000000000000000000000000020000000000008000008000000000000000000000000000000000000000000020000010000000000000800000000000000000000000010000000000000000000000000000000000000000000000000002000000000000000000000000000000000000000000000000000000000000000000000000000000000000000000002000000000000000000000000000000000000000000000000000020000000000000000000000000000000000000000000000000000000000000000000",
      "type": "0x2",
      "transactionHash": "0xbcf2ebbd779b072cbb894fc3a898bb2a650d4f88955ab3e473c8a01d60b314a3",
      "transactionIndex": "0x55",
      "blockHash": "0x9e1c160d83b734402df393d1dabee6518c5c514bc41e5c89db68209b0d6918ca",
      "blockNumber": "0x69cf82",
      "gasUsed": "0xd113",
      "effectiveGasPrice": "0x32baa0f9",
      "from": "0xb7d030f7c6406446e703e73b3d1dd8611a2d87b6",
      "to": "0x8621186d94319349a870c4099465770f0e4ff3cd",
      "contractAddress": null
    },
    {
      "status": "0x1",
      "cumulativeGasUsed": "0x111236d",
      "logs": [
        {
          "address": "0x8621186d94319349a870c4099465770f0e4ff3cd",
          "topics": [
            "0xddf252ad1be2c89b69c2b068fc378daa952ba7f163c4a11628f55a4df523b3ef",
            "0x0000000000000000000000000000000000000000000000000000000000000000",
            "0x0000000000000000000000008c4eb6988a199dabcae0ce31052b3f3ac591787e"
          ],
          "data": "0x00000000000000000000000000000000000000000000000000000002540be400",
          "blockHash": "0x9e1c160d83b734402df393d1dabee6518c5c514bc41e5c89db68209b0d6918ca",
          "blockNumber": "0x69cf82",
          "transactionHash": "0x83ba8c5e541c284f8e46086fe41b8a42a7eafa107fd626ed5baa3478b04da777",
          "transactionIndex": "0x57",
          "logIndex": "0x9a",
          "removed": false
        }
      ],
      "logsBloom": "0x00000000000000000000000000000000000000000000000000000000000000000000000000000000000000000000200000000000000040000000000000000000000000000020000000000008000000000000000000000000000000000000000000000000020000010000000000000800000000000000000000000010000000000000000100000000000000000000000000000000000000000000000000000000000000000000000000000000000001000000000000000000000000000000000000000002000000000000000000000000000000000000000000000000000020000000000000000000000000000000000000000000000000000000000000000000",
      "type": "0x2",
      "transactionHash": "0x83ba8c5e541c284f8e46086fe41b8a42a7eafa107fd626ed5baa3478b04da777",
      "transactionIndex": "0x57",
      "blockHash": "0x9e1c160d83b734402df393d1dabee6518c5c514bc41e5c89db68209b0d6918ca",
      "blockNumber": "0x69cf82",
      "gasUsed": "0xd113",
      "effectiveGasPrice": "0x32baa0f9",
      "from": "0xb7d030f7c6406446e703e73b3d1dd8611a2d87b6",
      "to": "0x8621186d94319349a870c4099465770f0e4ff3cd",
      "contractAddress": null
    },
    {
      "status": "0x1",
      "cumulativeGasUsed": "0x112b7ee",
      "logs": [
        {
          "address": "0x09748f6411a4d1a84a87645a3e406dcb3c31fc73",
          "topics": [
            "0xb0377b4035c2bd5b6aeb3eb7f139162c730ea47b957e4354f8a81ebb99573dec"
          ],
          "data": "0x0000000000000000000000000000000000000000000000000000000000000040000000000000000000000000309488d8698c9dda39ba4cce9f163932d1984d8b000000000000000000000000000000000000000000000000000000000000000a544f4b454e5f5553445400000000000000000000000000000000000000000000",
          "blockHash": "0x9e1c160d83b734402df393d1dabee6518c5c514bc41e5c89db68209b0d6918ca",
          "blockNumber": "0x69cf82",
          "transactionHash": "0xb3c3b33279669d927808206be75bb8689ea3872d2d8c484c22a884fd882baf2b",
          "transactionIndex": "0x58",
          "logIndex": "0x9b",
          "removed": false
        },
        {
          "address": "0x09748f6411a4d1a84a87645a3e406dcb3c31fc73",
          "topics": [
            "0xb0377b4035c2bd5b6aeb3eb7f139162c730ea47b957e4354f8a81ebb99573dec"
          ],
          "data": "0x00000000000000000000000000000000000000000000000000000000000000400000000000000000000000009e0d7b454676116c123d56ff4d5ed609d75ad00e000000000000000000000000000000000000000000000000000000000000000a544f4b454e5f5553444300000000000000000000000000000000000000000000",
          "blockHash": "0x9e1c160d83b734402df393d1dabee6518c5c514bc41e5c89db68209b0d6918ca",
          "blockNumber": "0x69cf82",
          "transactionHash": "0xb3c3b33279669d927808206be75bb8689ea3872d2d8c484c22a884fd882baf2b",
          "transactionIndex": "0x58",
          "logIndex": "0x9c",
          "removed": false
        },
        {
          "address": "0x09748f6411a4d1a84a87645a3e406dcb3c31fc73",
          "topics": [
            "0xb0377b4035c2bd5b6aeb3eb7f139162c730ea47b957e4354f8a81ebb99573dec"
          ],
          "data": "0x00000000000000000000000000000000000000000000000000000000000000400000000000000000000000008621186d94319349a870c4099465770f0e4ff3cd000000000000000000000000000000000000000000000000000000000000000a544f4b454e5f5742544300000000000000000000000000000000000000000000",
          "blockHash": "0x9e1c160d83b734402df393d1dabee6518c5c514bc41e5c89db68209b0d6918ca",
          "blockNumber": "0x69cf82",
          "transactionHash": "0xb3c3b33279669d927808206be75bb8689ea3872d2d8c484c22a884fd882baf2b",
          "transactionIndex": "0x58",
          "logIndex": "0x9d",
          "removed": false
        }
      ],
      "logsBloom": "0x00000000000000000000000000000000000000000000000000000000000000000000000000000000000000000000000000000000000000000000000000000000000000000000000000000000000000000010000000000000000000000000000000000000000000000000000000000000000000000000000000000000000000000000000000000000000000000000000000000000000001000000000000000000000000000000000000000000000000000000000000000000000000000000080000000000000008000000000000000000004000000000000000000000000000000000000000000000000000000000000000000400000000000000000000000000",
      "type": "0x2",
      "transactionHash": "0xb3c3b33279669d927808206be75bb8689ea3872d2d8c484c22a884fd882baf2b",
      "transactionIndex": "0x58",
      "blockHash": "0x9e1c160d83b734402df393d1dabee6518c5c514bc41e5c89db68209b0d6918ca",
      "blockNumber": "0x69cf82",
      "gasUsed": "0x19481",
      "effectiveGasPrice": "0x32baa0f9",
      "from": "0xb7d030f7c6406446e703e73b3d1dd8611a2d87b6",
      "to": "0x09748f6411a4d1a84a87645a3e406dcb3c31fc73",
      "contractAddress": null
    }
  ],
  "libraries": [],
  "pending": [],
  "returns": {},
  "timestamp": 1729754346,
  "chain": 11155111,
  "commit": "7f9b915"
}