{
  "transactions": [
    {
      "hash": "0x0a7c72120792f95bd65a284e9ab01ca6fe0feb8a95ceb84766c533d8d2e52516",
      "transactionType": "CALL",
      "contractName": null,
      "contractAddress": "0xbec73a3ed80216efbc5203dc014f183f582e97c0",
      "function": "setFeePerSponsorTicket(uint256)",
      "arguments": [
        "600000000000"
      ],
      "transaction": {
        "from": "0xf53f105e90b3e9ea928926a5a78e921d8168e213",
        "to": "0xbec73a3ed80216efbc5203dc014f183f582e97c0",
        "gas": "0xab43",
        "value": "0x0",
        "input": "0x149caac80000000000000000000000000000000000000000000000000000008bb2c97000",
        "nonce": "0x1b",
        "chainId": "0x76adf1"
      },
      "additionalContracts": [],
      "isFixedGasLimit": false
    }
  ],
  "receipts": [
    {
      "status": "0x1",
      "cumulativeGasUsed": "0x6e654",
      "logs": [
        {
          "address": "0xbec73a3ed80216efbc5203dc014f183f582e97c0",
          "topics": [
            "0xc213c63ebbcc7cf00b0153c23fbac46f00d360b97b2a9b8f14174cdb9fa635de"
          ],
          "data": "0x0000000000000000000000000000000000000000000000000000008bb2c97000",
          "blockHash": "0xe1ea403fc0d62c7ad6256c1023ca161f2ad7c421449b69ea4ce10f5179a7fbf5",
          "blockNumber": "0x10cf14e",
          "transactionHash": "0x0a7c72120792f95bd65a284e9ab01ca6fe0feb8a95ceb84766c533d8d2e52516",
          "transactionIndex": "0x2",
          "logIndex": "0x8",
          "removed": false
        }
      ],
      "logsBloom": "0x00000000080000000000000000000000000000000000000000000400000000000000000000000000000000000000000000000000000000000000000000000100000000000000000000000000000000000000000000000000000000000000000000000200000000000000000000000000000000000000000000000000000000000000000000000000000000000000000000000000000000000000000000000000000000000000000000000100000000000000000000000000000000000000000000000000000000000000040000000000000000000000000000000000000000000000000000000000000000000000000000000000000000000000000000000000",
      "type": "0x2",
      "transactionHash": "0x0a7c72120792f95bd65a284e9ab01ca6fe0feb8a95ceb84766c533d8d2e52516",
      "transactionIndex": "0x2",
      "blockHash": "0xe1ea403fc0d62c7ad6256c1023ca161f2ad7c421449b69ea4ce10f5179a7fbf5",
      "blockNumber": "0x10cf14e",
      "gasUsed": "0x751b",
      "effectiveGasPrice": "0x1879c",
      "from": "0xf53f105e90b3e9ea928926a5a78e921d8168e213",
      "to": "0xbec73a3ed80216efbc5203dc014f183f582e97c0",
      "contractAddress": null,
      "l1BaseFeeScalar": "0x4e20",
      "l1BlobBaseFee": "0x1",
      "l1BlobBaseFeeScalar": "0x9ab40",
      "l1Fee": "0x10fab233bf",
      "l1GasPrice": "0x87d5919c",
      "l1GasUsed": "0x640"
    }
  ],
  "libraries": [],
  "pending": [],
  "returns": {},
  "timestamp": 1721944686,
  "chain": 7777777,
  "commit": "8895c4a"
}