{
  "transactions": [
    {
      "hash": "0x3733a0a54e039c929be8687270935970ceab5734521950652c01784aceda8ba2",
      "transactionType": "CALL",
      "contractName": null,
      "contractAddress": "0x2e3a8cf0022140a40a7474d879942f0e55bc57de",
      "function": "mint(address,uint256)",
      "arguments": [
        "0x4F88F1014Dd6Ca0507780380111c098BeE6b87e6",
        "9999999999000000000000"
      ],
      "transaction": {
        "from": "0xb7d030f7c6406446e703e73b3d1dd8611a2d87b6",
        "to": "0x2e3a8cf0022140a40a7474d879942f0e55bc57de",
        "gas": "0xc00f",
        "value": "0x0",
        "input": "0x40c10f190000000000000000000000004f88f1014dd6ca0507780380111c098bee6b87e600000000000000000000000000000000000000000000021e19e0c8d1dd9af000",
        "nonce": "0xcb",
        "chainId": "0x66eee"
      },
      "additionalContracts": [],
      "isFixedGasLimit": false
    },
    {
      "hash": "0x408e5a078fe2c31d81e12c7eb94a34732f7915e0db76c6aba851a007a8a3676b",
      "transactionType": "CALL",
      "contractName": null,
      "contractAddress": "0x2e3a8cf0022140a40a7474d879942f0e55bc57de",
      "function": "mint(address,uint256)",
      "arguments": [
        "0xC31f6b8133d618aD2ff1AC5fAA3Fc4B20557B901",
        "9999999999000000000000"
      ],
      "transaction": {
        "from": "0xb7d030f7c6406446e703e73b3d1dd8611a2d87b6",
        "to": "0x2e3a8cf0022140a40a7474d879942f0e55bc57de",
        "gas": "0xc00f",
        "value": "0x0",
        "input": "0x40c10f19000000000000000000000000c31f6b8133d618ad2ff1ac5faa3fc4b20557b90100000000000000000000000000000000000000000000021e19e0c8d1dd9af000",
        "nonce": "0xcc",
        "chainId": "0x66eee"
      },
      "additionalContracts": [],
      "isFixedGasLimit": false
    },
    {
      "hash": "0x6bd50715e3f7aaf968ee2dd0c8897708735ef5ff0b2f63636274545dbf266c87",
      "transactionType": "CALL",
      "contractName": null,
      "contractAddress": "0x2e3a8cf0022140a40a7474d879942f0e55bc57de",
      "function": "mint(address,uint256)",
      "arguments": [
        "0x66E675533020c3CDeE2F33E372320B7e2692211e",
        "9999999999000000000000"
      ],
      "transaction": {
        "from": "0xb7d030f7c6406446e703e73b3d1dd8611a2d87b6",
        "to": "0x2e3a8cf0022140a40a7474d879942f0e55bc57de",
        "gas": "0xc00f",
        "value": "0x0",
        "input": "0x40c10f1900000000000000000000000066e675533020c3cdee2f33e372320b7e2692211e00000000000000000000000000000000000000000000021e19e0c8d1dd9af000",
        "nonce": "0xcd",
        "chainId": "0x66eee"
      },
      "additionalContracts": [],
      "isFixedGasLimit": false
    },
    {
      "hash": "0x05ba19ed1e7e05b579172b00117bb9e3beacedee1582bf5c35d4fcbfcce52fce",
      "transactionType": "CALL",
      "contractName": null,
      "contractAddress": "0x2e3a8cf0022140a40a7474d879942f0e55bc57de",
      "function": "mint(address,uint256)",
      "arguments": [
        "0x8c4Eb6988A199DAbcae0Ce31052b3f3aC591787e",
        "9999999999000000000000"
      ],
      "transaction": {
        "from": "0xb7d030f7c6406446e703e73b3d1dd8611a2d87b6",
        "to": "0x2e3a8cf0022140a40a7474d879942f0e55bc57de",
        "gas": "0xc00f",
        "value": "0x0",
        "input": "0x40c10f190000000000000000000000008c4eb6988a199dabcae0ce31052b3f3ac591787e00000000000000000000000000000000000000000000021e19e0c8d1dd9af000",
        "nonce": "0xce",
        "chainId": "0x66eee"
      },
      "additionalContracts": [],
      "isFixedGasLimit": false
    },
    {
      "hash": "0x7257217d2281725a30c1b90ff812194805b6c169ff20756ef2ac79787e9a18e8",
      "transactionType": "CALL",
      "contractName": null,
      "contractAddress": "0x1e3151ef594580773651c826414a8b97cdf6ff10",
      "function": "mint(address,uint256)",
      "arguments": [
        "0x4F88F1014Dd6Ca0507780380111c098BeE6b87e6",
        "9999999999000000000000"
      ],
      "transaction": {
        "from": "0xb7d030f7c6406446e703e73b3d1dd8611a2d87b6",
        "to": "0x1e3151ef594580773651c826414a8b97cdf6ff10",
        "gas": "0xc00f",
        "value": "0x0",
        "input": "0x40c10f190000000000000000000000004f88f1014dd6ca0507780380111c098bee6b87e600000000000000000000000000000000000000000000021e19e0c8d1dd9af000",
        "nonce": "0xcf",
        "chainId": "0x66eee"
      },
      "additionalContracts": [],
      "isFixedGasLimit": false
    },
    {
      "hash": "0x8a6586ce6e2366efee1ddc340ed12b25e379521f61db6f06273251c6fdb525e8",
      "transactionType": "CALL",
      "contractName": null,
      "contractAddress": "0x1e3151ef594580773651c826414a8b97cdf6ff10",
      "function": "mint(address,uint256)",
      "arguments": [
        "0xC31f6b8133d618aD2ff1AC5fAA3Fc4B20557B901",
        "9999999999000000000000"
      ],
      "transaction": {
        "from": "0xb7d030f7c6406446e703e73b3d1dd8611a2d87b6",
        "to": "0x1e3151ef594580773651c826414a8b97cdf6ff10",
        "gas": "0xc00f",
        "value": "0x0",
        "input": "0x40c10f19000000000000000000000000c31f6b8133d618ad2ff1ac5faa3fc4b20557b90100000000000000000000000000000000000000000000021e19e0c8d1dd9af000",
        "nonce": "0xd0",
        "chainId": "0x66eee"
      },
      "additionalContracts": [],
      "isFixedGasLimit": false
    },
    {
      "hash": "0x9b9845e2f1d74cd8bd96415843504c677da088752d6970b9be8c937c8b5532f5",
      "transactionType": "CALL",
      "contractName": null,
      "contractAddress": "0x1e3151ef594580773651c826414a8b97cdf6ff10",
      "function": "mint(address,uint256)",
      "arguments": [
        "0x66E675533020c3CDeE2F33E372320B7e2692211e",
        "9999999999000000000000"
      ],
      "transaction": {
        "from": "0xb7d030f7c6406446e703e73b3d1dd8611a2d87b6",
        "to": "0x1e3151ef594580773651c826414a8b97cdf6ff10",
        "gas": "0xc00f",
        "value": "0x0",
        "input": "0x40c10f1900000000000000000000000066e675533020c3cdee2f33e372320b7e2692211e00000000000000000000000000000000000000000000021e19e0c8d1dd9af000",
        "nonce": "0xd1",
        "chainId": "0x66eee"
      },
      "additionalContracts": [],
      "isFixedGasLimit": false
    },
    {
      "hash": "0x008b6ba8cf8e0f48b7215cb340849cef6318c6e72b23bd17d1266191205fe37c",
      "transactionType": "CALL",
      "contractName": null,
      "contractAddress": "0x1e3151ef594580773651c826414a8b97cdf6ff10",
      "function": "mint(address,uint256)",
      "arguments": [
        "0x8c4Eb6988A199DAbcae0Ce31052b3f3aC591787e",
        "9999999999000000000000"
      ],
      "transaction": {
        "from": "0xb7d030f7c6406446e703e73b3d1dd8611a2d87b6",
        "to": "0x1e3151ef594580773651c826414a8b97cdf6ff10",
        "gas": "0xc00f",
        "value": "0x0",
        "input": "0x40c10f190000000000000000000000008c4eb6988a199dabcae0ce31052b3f3ac591787e00000000000000000000000000000000000000000000021e19e0c8d1dd9af000",
        "nonce": "0xd2",
        "chainId": "0x66eee"
      },
      "additionalContracts": [],
      "isFixedGasLimit": false
    },
    {
      "hash": "0x056c395b03b64e1aa3dc1119174ababc84fec00919bec09bf664b0050cb9f2a4",
      "transactionType": "CALL",
      "contractName": null,
      "contractAddress": "0xe51ade97db1151c6e8a7d465b84b29eb9422b5b8",
      "function": "mint(address,uint256)",
      "arguments": [
        "0x4F88F1014Dd6Ca0507780380111c098BeE6b87e6",
        "9999999990000000000"
      ],
      "transaction": {
        "from": "0xb7d030f7c6406446e703e73b3d1dd8611a2d87b6",
        "to": "0xe51ade97db1151c6e8a7d465b84b29eb9422b5b8",
        "gas": "0xbff0",
        "value": "0x0",
        "input": "0x40c10f190000000000000000000000004f88f1014dd6ca0507780380111c098bee6b87e60000000000000000000000000000000000000000000000008ac7230235dc1c00",
        "nonce": "0xd3",
        "chainId": "0x66eee"
      },
      "additionalContracts": [],
      "isFixedGasLimit": false
    },
    {
      "hash": "0xe767198ea1e7da2d5df60c66ed240148a74c70fdcb93eec5ee25e95361603f7e",
      "transactionType": "CALL",
      "contractName": null,
      "contractAddress": "0xe51ade97db1151c6e8a7d465b84b29eb9422b5b8",
      "function": "mint(address,uint256)",
      "arguments": [
        "0xC31f6b8133d618aD2ff1AC5fAA3Fc4B20557B901",
        "9999999990000000000"
      ],
      "transaction": {
        "from": "0xb7d030f7c6406446e703e73b3d1dd8611a2d87b6",
        "to": "0xe51ade97db1151c6e8a7d465b84b29eb9422b5b8",
        "gas": "0xbff0",
        "value": "0x0",
        "input": "0x40c10f19000000000000000000000000c31f6b8133d618ad2ff1ac5faa3fc4b20557b9010000000000000000000000000000000000000000000000008ac7230235dc1c00",
        "nonce": "0xd4",
        "chainId": "0x66eee"
      },
      "additionalContracts": [],
      "isFixedGasLimit": false
    },
    {
      "hash": "0x17e4e3a1d79862269d167ee2fa8329e9cb797c8bba11cc7608fc8e154ce03c40",
      "transactionType": "CALL",
      "contractName": null,
      "contractAddress": "0xe51ade97db1151c6e8a7d465b84b29eb9422b5b8",
      "function": "mint(address,uint256)",
      "arguments": [
        "0x66E675533020c3CDeE2F33E372320B7e2692211e",
        "9999999990000000000"
      ],
      "transaction": {
        "from": "0xb7d030f7c6406446e703e73b3d1dd8611a2d87b6",
        "to": "0xe51ade97db1151c6e8a7d465b84b29eb9422b5b8",
        "gas": "0xbff0",
        "value": "0x0",
        "input": "0x40c10f1900000000000000000000000066e675533020c3cdee2f33e372320b7e2692211e0000000000000000000000000000000000000000000000008ac7230235dc1c00",
        "nonce": "0xd5",
        "chainId": "0x66eee"
      },
      "additionalContracts": [],
      "isFixedGasLimit": false
    },
    {
      "hash": "0xc2fa43abe5e283d41b9744d31d15b7a72e01091b3664c6833aebf877d1cc58a5",
      "transactionType": "CALL",
      "contractName": null,
      "contractAddress": "0xe51ade97db1151c6e8a7d465b84b29eb9422b5b8",
      "function": "mint(address,uint256)",
      "arguments": [
        "0x8c4Eb6988A199DAbcae0Ce31052b3f3aC591787e",
        "9999999990000000000"
      ],
      "transaction": {
        "from": "0xb7d030f7c6406446e703e73b3d1dd8611a2d87b6",
        "to": "0xe51ade97db1151c6e8a7d465b84b29eb9422b5b8",
        "gas": "0xbff0",
        "value": "0x0",
        "input": "0x40c10f190000000000000000000000008c4eb6988a199dabcae0ce31052b3f3ac591787e0000000000000000000000000000000000000000000000008ac7230235dc1c00",
        "nonce": "0xd6",
        "chainId": "0x66eee"
      },
      "additionalContracts": [],
      "isFixedGasLimit": false
    }
  ],
  "receipts": [
    {
      "status": "0x1",
      "cumulativeGasUsed": "0x26a73",
      "logs": [
        {
          "address": "0x2e3a8cf0022140a40a7474d879942f0e55bc57de",
          "topics": [
            "0xddf252ad1be2c89b69c2b068fc378daa952ba7f163c4a11628f55a4df523b3ef",
            "0x0000000000000000000000000000000000000000000000000000000000000000",
            "0x0000000000000000000000004f88f1014dd6ca0507780380111c098bee6b87e6"
          ],
          "data": "0x00000000000000000000000000000000000000000000021e19e0c8d1dd9af000",
          "blockHash": "0x2d1be7a5bde107f3d54edc15c31c90abc38db32c412f2b74f0187d66c1ebb6cb",
          "blockNumber": "0x5705ea5",
          "transactionHash": "0x3733a0a54e039c929be8687270935970ceab5734521950652c01784aceda8ba2",
          "transactionIndex": "0x3",
          "logIndex": "0x4",
          "removed": false
        }
      ],
      "logsBloom": "0x00000000000000000000000002000000000000000000000000000000000000000000000000000000000000000000000000010000000000000000000000000000000000000000000000000008000000000000000000200000000000000000000000000000020000000000000000000800000000000000000000000010000000000000000000000000000000000000000000000000000000000000000000000000000000000000000000000001000000000000000004000000000000000000000000000002000000000000000000000000000000000000000000000000000020000000000000000000000000000000000000000000008000000000000000000000",
      "type": "0x2",
      "transactionHash": "0x3733a0a54e039c929be8687270935970ceab5734521950652c01784aceda8ba2",
      "transactionIndex": "0x3",
      "blockHash": "0x2d1be7a5bde107f3d54edc15c31c90abc38db32c412f2b74f0187d66c1ebb6cb",
      "blockNumber": "0x5705ea5",
      "gasUsed": "0x9177",
      "effectiveGasPrice": "0x5f5e100",
      "from": "0xb7d030f7c6406446e703e73b3d1dd8611a2d87b6",
      "to": "0x2e3a8cf0022140a40a7474d879942f0e55bc57de",
      "contractAddress": null,
      "gasUsedForL1": "0x2f4",
      "l1BlockNumber": "0x69d174"
    },
    {
      "status": "0x1",
      "cumulativeGasUsed": "0x14724",
      "logs": [
        {
          "address": "0x2e3a8cf0022140a40a7474d879942f0e55bc57de",
          "topics": [
            "0xddf252ad1be2c89b69c2b068fc378daa952ba7f163c4a11628f55a4df523b3ef",
            "0x0000000000000000000000000000000000000000000000000000000000000000",
            "0x000000000000000000000000c31f6b8133d618ad2ff1ac5faa3fc4b20557b901"
          ],
          "data": "0x00000000000000000000000000000000000000000000021e19e0c8d1dd9af000",
          "blockHash": "0x965ae5d6b779780d1f2d9d7cb8e9d8b7b55c4cf1e26e0f08da3ae32508b02f03",
          "blockNumber": "0x5705eaa",
          "transactionHash": "0x408e5a078fe2c31d81e12c7eb94a34732f7915e0db76c6aba851a007a8a3676b",
          "transactionIndex": "0x2",
          "logIndex": "0x1",
          "removed": false
        }
      ],
      "logsBloom": "0x00000000000000000000000000000000000000000000000000000000000000000000000000000000000000000000000000010000000000000000000000000000000000000000000000000008000000000000000000200000000000000000000000000000020000000000000000000800000000000000000000000010400000000000000000000000000000000000000000000002000000000000000000000000000000000000000000000001000000000000000000000000080000000000000000000002000000000000000000000000000000000000000000000000000020000000000000000000000000000000000000000000000000000000000000000000",
      "type": "0x2",
      "transactionHash": "0x408e5a078fe2c31d81e12c7eb94a34732f7915e0db76c6aba851a007a8a3676b",
      "transactionIndex": "0x2",
      "blockHash": "0x965ae5d6b779780d1f2d9d7cb8e9d8b7b55c4cf1e26e0f08da3ae32508b02f03",
      "blockNumber": "0x5705eaa",
      "gasUsed": "0x9177",
      "effectiveGasPrice": "0x5f5e100",
      "from": "0xb7d030f7c6406446e703e73b3d1dd8611a2d87b6",
      "to": "0x2e3a8cf0022140a40a7474d879942f0e55bc57de",
      "contractAddress": null,
      "gasUsedForL1": "0x2f4",
      "l1BlockNumber": "0x69d174"
    },
    {
      "status": "0x1",
      "cumulativeGasUsed": "0x9177",
      "logs": [
        {
          "address": "0x2e3a8cf0022140a40a7474d879942f0e55bc57de",
          "topics": [
            "0xddf252ad1be2c89b69c2b068fc378daa952ba7f163c4a11628f55a4df523b3ef",
            "0x0000000000000000000000000000000000000000000000000000000000000000",
            "0x00000000000000000000000066e675533020c3cdee2f33e372320b7e2692211e"
          ],
          "data": "0x00000000000000000000000000000000000000000000021e19e0c8d1dd9af000",
          "blockHash": "0xfbf2aa559519affc91f99b289920ea806c94c21fe12f23161b778ecc62a2efdc",
          "blockNumber": "0x5705eb0",
          "transactionHash": "0x6bd50715e3f7aaf968ee2dd0c8897708735ef5ff0b2f63636274545dbf266c87",
          "transactionIndex": "0x1",
          "logIndex": "0x0",
          "removed": false
        }
      ],
      "logsBloom": "0x00000000000000000000000000000000000000000000000000000000001000000000000000000000000000000000000000010000000000000000000000000000000000000000000000000008000008000000000000200000000000000000000000000000020000000000000000000800000000000000000000000010000000000000000000000000000000000000000000000000002000000000000000000000000000000000000000000001000000000000000000000000000000000000000000000002000000000000000000000000000000000000000000000000000020000000000000000000000000000000000000000000000000000000000000000000",
      "type": "0x2",
      "transactionHash": "0x6bd50715e3f7aaf968ee2dd0c8897708735ef5ff0b2f63636274545dbf266c87",
      "transactionIndex": "0x1",
      "blockHash": "0xfbf2aa559519affc91f99b289920ea806c94c21fe12f23161b778ecc62a2efdc",
      "blockNumber": "0x5705eb0",
      "gasUsed": "0x9177",
      "effectiveGasPrice": "0x5f5e100",
      "from": "0xb7d030f7c6406446e703e73b3d1dd8611a2d87b6",
      "to": "0x2e3a8cf0022140a40a7474d879942f0e55bc57de",
      "contractAddress": null,
      "gasUsedForL1": "0x2f4",
      "l1BlockNumber": "0x69d174"
    },
    {
      "status": "0x1",
      "cumulativeGasUsed": "0x9177",
      "logs": [
        {
          "address": "0x2e3a8cf0022140a40a7474d879942f0e55bc57de",
          "topics": [
            "0xddf252ad1be2c89b69c2b068fc378daa952ba7f163c4a11628f55a4df523b3ef",
            "0x0000000000000000000000000000000000000000000000000000000000000000",
            "0x0000000000000000000000008c4eb6988a199dabcae0ce31052b3f3ac591787e"
          ],
          "data": "0x00000000000000000000000000000000000000000000021e19e0c8d1dd9af000",
          "blockHash": "0xdf9f216f30d518fefb86fd6fe2f015c45faec986c350affdc8c47f5d080211c3",
          "blockNumber": "0x5705eb6",
          "transactionHash": "0x05ba19ed1e7e05b579172b00117bb9e3beacedee1582bf5c35d4fcbfcce52fce",
          "transactionIndex": "0x1",
          "logIndex": "0x0",
          "removed": false
        }
      ],
      "logsBloom": "0x00000000000000000000000000000000000000000000000000000000000000000000000000000000000000000000000000010000000040000000000000000000000000000000000000000008000000000000000000200000000000000000000000000000020000000000000000000800000000000000000000000010000000000000000100000000000000000000000000000000000000000000000000000000000000000000000000000001000001000000000000000000000000000000000000000002000000000000000000000000000000000000000000000000000020000000000000000000000000000000000000000000000000000000000000000000",
      "type": "0x2",
      "transactionHash": "0x05ba19ed1e7e05b579172b00117bb9e3beacedee1582bf5c35d4fcbfcce52fce",
      "transactionIndex": "0x1",
      "blockHash": "0xdf9f216f30d518fefb86fd6fe2f015c45faec986c350affdc8c47f5d080211c3",
      "blockNumber": "0x5705eb6",
      "gasUsed": "0x9177",
      "effectiveGasPrice": "0x5f5e100",
      "from": "0xb7d030f7c6406446e703e73b3d1dd8611a2d87b6",
      "to": "0x2e3a8cf0022140a40a7474d879942f0e55bc57de",
      "contractAddress": null,
      "gasUsedForL1": "0x2f4",
      "l1BlockNumber": "0x69d174"
    },
    {
      "status": "0x1",
      "cumulativeGasUsed": "0x9177",
      "logs": [
        {
          "address": "0x1e3151ef594580773651c826414a8b97cdf6ff10",
          "topics": [
            "0xddf252ad1be2c89b69c2b068fc378daa952ba7f163c4a11628f55a4df523b3ef",
            "0x0000000000000000000000000000000000000000000000000000000000000000",
            "0x0000000000000000000000004f88f1014dd6ca0507780380111c098bee6b87e6"
          ],
          "data": "0x00000000000000000000000000000000000000000000021e19e0c8d1dd9af000",
          "blockHash": "0x85787da7bb347011fb5a7847b5d80c5f6c1ba6807b66fba26178bc954e3f7e3b",
          "blockNumber": "0x5705ebc",
          "transactionHash": "0x7257217d2281725a30c1b90ff812194805b6c169ff20756ef2ac79787e9a18e8",
          "transactionIndex": "0x1",
          "logIndex": "0x0",
          "removed": false
        }
      ],
      "logsBloom": "0x04000000000000000000000002000000000000000000000000000000000000000000000000000000000000000000000000000000000000000000000000000000000000000000000000000008000000000000000000000000000000000000000000000000020000000000000000000800000000000000000000000010000000000000000000000000000000000000000000000000000000000000000000000000000000000000000000000000000000000000000004000000000000000000000000000002000000000000000000000000000000000000000000000000000020002000000000000000000000000000000800000000008000000000000000000000",
      "type": "0x2",
      "transactionHash": "0x7257217d2281725a30c1b90ff812194805b6c169ff20756ef2ac79787e9a18e8",
      "transactionIndex": "0x1",
      "blockHash": "0x85787da7bb347011fb5a7847b5d80c5f6c1ba6807b66fba26178bc954e3f7e3b",
      "blockNumber": "0x5705ebc",
      "gasUsed": "0x9177",
      "effectiveGasPrice": "0x5f5e100",
      "from": "0xb7d030f7c6406446e703e73b3d1dd8611a2d87b6",
      "to": "0x1e3151ef594580773651c826414a8b97cdf6ff10",
      "contractAddress": null,
      "gasUsedForL1": "0x2f4",
      "l1BlockNumber": "0x69d174"
    },
    {
      "status": "0x1",
      "cumulativeGasUsed": "0x22ea7",
      "logs": [
        {
          "address": "0x1e3151ef594580773651c826414a8b97cdf6ff10",
          "topics": [
            "0xddf252ad1be2c89b69c2b068fc378daa952ba7f163c4a11628f55a4df523b3ef",
            "0x0000000000000000000000000000000000000000000000000000000000000000",
            "0x000000000000000000000000c31f6b8133d618ad2ff1ac5faa3fc4b20557b901"
          ],
          "data": "0x00000000000000000000000000000000000000000000021e19e0c8d1dd9af000",
          "blockHash": "0xe131109cb025ae2cca323dcf09aee72e48cc3c4b8c14cc179d84e76b2bd47ba4",
          "blockNumber": "0x5705ec1",
          "transactionHash": "0x8a6586ce6e2366efee1ddc340ed12b25e379521f61db6f06273251c6fdb525e8",
          "transactionIndex": "0x3",
          "logIndex": "0x2",
          "removed": false
        }
      ],
      "logsBloom": "0x04000000000000000000000000000000000000000000000000000000000000000000000000000000000000000000000000000000000000000000000000000000000000000000000000000008000000000000000000000000000000000000000000000000020000000000000000000800000000000000000000000010400000000000000000000000000000000000000000000002000000000000000000000000000000000000000000000000000000000000000000000000080000000000000000000002000000000000000000000000000000000000000000000000000020002000000000000000000000000000000800000000000000000000000000000000",
      "type": "0x2",
      "transactionHash": "0x8a6586ce6e2366efee1ddc340ed12b25e379521f61db6f06273251c6fdb525e8",
      "transactionIndex": "0x3",
      "blockHash": "0xe131109cb025ae2cca323dcf09aee72e48cc3c4b8c14cc179d84e76b2bd47ba4",
      "blockNumber": "0x5705ec1",
      "gasUsed": "0x9177",
      "effectiveGasPrice": "0x5f5e100",
      "from": "0xb7d030f7c6406446e703e73b3d1dd8611a2d87b6",
      "to": "0x1e3151ef594580773651c826414a8b97cdf6ff10",
      "contractAddress": null,
      "gasUsedForL1": "0x2f4",
      "l1BlockNumber": "0x69d174"
    },
    {
      "status": "0x1",
      "cumulativeGasUsed": "0x9177",
      "logs": [
        {
          "address": "0x1e3151ef594580773651c826414a8b97cdf6ff10",
          "topics": [
            "0xddf252ad1be2c89b69c2b068fc378daa952ba7f163c4a11628f55a4df523b3ef",
            "0x0000000000000000000000000000000000000000000000000000000000000000",
            "0x00000000000000000000000066e675533020c3cdee2f33e372320b7e2692211e"
          ],
          "data": "0x00000000000000000000000000000000000000000000021e19e0c8d1dd9af000",
          "blockHash": "0x189e0a45ff876567c7876b1926b0171f5752a08e259d2d8564306b8c37be1558",
          "blockNumber": "0x5705ec6",
          "transactionHash": "0x9b9845e2f1d74cd8bd96415843504c677da088752d6970b9be8c937c8b5532f5",
          "transactionIndex": "0x1",
          "logIndex": "0x0",
          "removed": false
        }
      ],
      "logsBloom": "0x04000000000000000000000000000000000000000000000000000000001000000000000000000000000000000000000000000000000000000000000000000000000000000000000000000008000008000000000000000000000000000000000000000000020000000000000000000800000000000000000000000010000000000000000000000000000000000000000000000000002000000000000000000000000000000000000000000000000000000000000000000000000000000000000000000002000000000000000000000000000000000000000000000000000020002000000000000000000000000000000800000000000000000000000000000000",
      "type": "0x2",
      "transactionHash": "0x9b9845e2f1d74cd8bd96415843504c677da088752d6970b9be8c937c8b5532f5",
      "transactionIndex": "0x1",
      "blockHash": "0x189e0a45ff876567c7876b1926b0171f5752a08e259d2d8564306b8c37be1558",
      "blockNumber": "0x5705ec6",
      "gasUsed": "0x9177",
      "effectiveGasPrice": "0x5f5e100",
      "from": "0xb7d030f7c6406446e703e73b3d1dd8611a2d87b6",
      "to": "0x1e3151ef594580773651c826414a8b97cdf6ff10",
      "contractAddress": null,
      "gasUsedForL1": "0x2f4",
      "l1BlockNumber": "0x69d174"
    },
    {
      "status": "0x1",
      "cumulativeGasUsed": "0x146ff",
      "logs": [
        {
          "address": "0x1e3151ef594580773651c826414a8b97cdf6ff10",
          "topics": [
            "0xddf252ad1be2c89b69c2b068fc378daa952ba7f163c4a11628f55a4df523b3ef",
            "0x0000000000000000000000000000000000000000000000000000000000000000",
            "0x0000000000000000000000008c4eb6988a199dabcae0ce31052b3f3ac591787e"
          ],
          "data": "0x00000000000000000000000000000000000000000000021e19e0c8d1dd9af000",
          "blockHash": "0xdad7db4b411fef13df23ea8dd366c104adde1dc3a72c04d5b173a3b07f8f6b8f",
          "blockNumber": "0x5705ecb",
          "transactionHash": "0x008b6ba8cf8e0f48b7215cb340849cef6318c6e72b23bd17d1266191205fe37c",
          "transactionIndex": "0x2",
          "logIndex": "0x1",
          "removed": false
        }
      ],
      "logsBloom": "0x04000000000000000000000000000000000000000000000000000000000000000000000000000000000000000000000000000000000040000000000000000000000000000000000000000008000000000000000000000000000000000000000000000000020000000000000000000800000000000000000000000010000000000000000100000000000000000000000000000000000000000000000000000000000000000000000000000000000001000000000000000000000000000000000000000002000000000000000000000000000000000000000000000000000020002000000000000000000000000000000800000000000000000000000000000000",
      "type": "0x2",
      "transactionHash": "0x008b6ba8cf8e0f48b7215cb340849cef6318c6e72b23bd17d1266191205fe37c",
      "transactionIndex": "0x2",
      "blockHash": "0xdad7db4b411fef13df23ea8dd366c104adde1dc3a72c04d5b173a3b07f8f6b8f",
      "blockNumber": "0x5705ecb",
      "gasUsed": "0x9177",
      "effectiveGasPrice": "0x5f5e100",
      "from": "0xb7d030f7c6406446e703e73b3d1dd8611a2d87b6",
      "to": "0x1e3151ef594580773651c826414a8b97cdf6ff10",
      "contractAddress": null,
      "gasUsedForL1": "0x2f4",
      "l1BlockNumber": "0x69d174"
    },
    {
      "status": "0x1",
      "cumulativeGasUsed": "0x1393b",
      "logs": [
        {
          "address": "0xe51ade97db1151c6e8a7d465b84b29eb9422b5b8",
          "topics": [
            "0xddf252ad1be2c89b69c2b068fc378daa952ba7f163c4a11628f55a4df523b3ef",
            "0x0000000000000000000000000000000000000000000000000000000000000000",
            "0x0000000000000000000000004f88f1014dd6ca0507780380111c098bee6b87e6"
          ],
          "data": "0x0000000000000000000000000000000000000000000000008ac7230235dc1c00",
          "blockHash": "0xd819e6cae322dbe9121c5251839328f43b03186ef9eedf731aa7b803359a5b5c",
          "blockNumber": "0x5705ed1",
          "transactionHash": "0x056c395b03b64e1aa3dc1119174ababc84fec00919bec09bf664b0050cb9f2a4",
          "transactionIndex": "0x3",
          "logIndex": "0x0",
          "removed": false
        }
      ],
      "logsBloom": "0x00000000000000000000000002000000000000000000000000000000000000000000000000000000000000000000000000000000000000000000000000000000000000000000000000000008000000000000000000000000000000000008000000000000020000000000000000000800000000000000000000000010000000000000000000000000000000000000000000000000000000000000000000000000000000080000000000000000000000000000000004000000000020000000000000000002000000000000000000000000000000000000000000000000000020000000000000000000000000000000000000000000008000000000000000000000",
      "type": "0x2",
      "transactionHash": "0x056c395b03b64e1aa3dc1119174ababc84fec00919bec09bf664b0050cb9f2a4",
      "transactionIndex": "0x3",
      "blockHash": "0xd819e6cae322dbe9121c5251839328f43b03186ef9eedf731aa7b803359a5b5c",
      "blockNumber": "0x5705ed1",
      "gasUsed": "0x915f",
      "effectiveGasPrice": "0x5f5e100",
      "from": "0xb7d030f7c6406446e703e73b3d1dd8611a2d87b6",
      "to": "0xe51ade97db1151c6e8a7d465b84b29eb9422b5b8",
      "contractAddress": null,
      "gasUsedForL1": "0x2f4",
      "l1BlockNumber": "0x69d174"
    },
    {
      "status": "0x1",
      "cumulativeGasUsed": "0x14700",
      "logs": [
        {
          "address": "0xe51ade97db1151c6e8a7d465b84b29eb9422b5b8",
          "topics": [
            "0xddf252ad1be2c89b69c2b068fc378daa952ba7f163c4a11628f55a4df523b3ef",
            "0x0000000000000000000000000000000000000000000000000000000000000000",
            "0x000000000000000000000000c31f6b8133d618ad2ff1ac5faa3fc4b20557b901"
          ],
          "data": "0x0000000000000000000000000000000000000000000000008ac7230235dc1c00",
          "blockHash": "0x2fd3ef4f069bfa751b1f300075d767f7fb4dc09f8793155cfeb3755054fcfa0a",
          "blockNumber": "0x5705ed7",
          "transactionHash": "0xe767198ea1e7da2d5df60c66ed240148a74c70fdcb93eec5ee25e95361603f7e",
          "transactionIndex": "0x2",
          "logIndex": "0x1",
          "removed": false
        }
      ],
      "logsBloom": "0x00000000000000000000000000000000000000000000000000000000000000000000000000000000000000000000000000000000000000000000000000000000000000000000000000000008000000000000000000000000000000000008000000000000020000000000000000000800000000000000000000000010400000000000000000000000000000000000000000000002000000000000000000000000000000080000000000000000000000000000000000000000080020000000000000000002000000000000000000000000000000000000000000000000000020000000000000000000000000000000000000000000000000000000000000000000",
      "type": "0x2",
      "transactionHash": "0xe767198ea1e7da2d5df60c66ed240148a74c70fdcb93eec5ee25e95361603f7e",
      "transactionIndex": "0x2",
      "blockHash": "0x2fd3ef4f069bfa751b1f300075d767f7fb4dc09f8793155cfeb3755054fcfa0a",
      "blockNumber": "0x5705ed7",
      "gasUsed": "0x915f",
      "effectiveGasPrice": "0x5f5e100",
      "from": "0xb7d030f7c6406446e703e73b3d1dd8611a2d87b6",
      "to": "0xe51ade97db1151c6e8a7d465b84b29eb9422b5b8",
      "contractAddress": null,
      "gasUsedForL1": "0x2f4",
      "l1BlockNumber": "0x69d174"
    },
    {
      "status": "0x1",
      "cumulativeGasUsed": "0x2a459",
      "logs": [
        {
          "address": "0xe51ade97db1151c6e8a7d465b84b29eb9422b5b8",
          "topics": [
            "0xddf252ad1be2c89b69c2b068fc378daa952ba7f163c4a11628f55a4df523b3ef",
            "0x0000000000000000000000000000000000000000000000000000000000000000",
            "0x00000000000000000000000066e675533020c3cdee2f33e372320b7e2692211e"
          ],
          "data": "0x0000000000000000000000000000000000000000000000008ac7230235dc1c00",
          "blockHash": "0x0c71fe551715b95e4aec1570fbc299836e35aea286be2de2feb501d7a4e88f4f",
          "blockNumber": "0x5705edc",
          "transactionHash": "0x17e4e3a1d79862269d167ee2fa8329e9cb797c8bba11cc7608fc8e154ce03c40",
          "transactionIndex": "0x3",
          "logIndex": "0x3",
          "removed": false
        }
      ],
      "logsBloom": "0x00000000000000000000000000000000000000000000000000000000001000000000000000000000000000000000000000000000000000000000000000000000000000000000000000000008000008000000000000000000000000000008000000000000020000000000000000000800000000000000000000000010000000000000000000000000000000000000000000000000002000000000000000000000000000080000000000000000000000000000000000000000000020000000000000000002000000000000000000000000000000000000000000000000000020000000000000000000000000000000000000000000000000000000000000000000",
      "type": "0x2",
      "transactionHash": "0x17e4e3a1d79862269d167ee2fa8329e9cb797c8bba11cc7608fc8e154ce03c40",
      "transactionIndex": "0x3",
      "blockHash": "0x0c71fe551715b95e4aec1570fbc299836e35aea286be2de2feb501d7a4e88f4f",
      "blockNumber": "0x5705edc",
      "gasUsed": "0x915f",
      "effectiveGasPrice": "0x5f5e100",
      "from": "0xb7d030f7c6406446e703e73b3d1dd8611a2d87b6",
      "to": "0xe51ade97db1151c6e8a7d465b84b29eb9422b5b8",
      "contractAddress": null,
      "gasUsedForL1": "0x2f4",
      "l1BlockNumber": "0x69d176"
    },
    {
      "status": "0x1",
      "cumulativeGasUsed": "0xe56a",
      "logs": [
        {
          "address": "0xe51ade97db1151c6e8a7d465b84b29eb9422b5b8",
          "topics": [
            "0xddf252ad1be2c89b69c2b068fc378daa952ba7f163c4a11628f55a4df523b3ef",
            "0x0000000000000000000000000000000000000000000000000000000000000000",
            "0x0000000000000000000000008c4eb6988a199dabcae0ce31052b3f3ac591787e"
          ],
          "data": "0x0000000000000000000000000000000000000000000000008ac7230235dc1c00",
          "blockHash": "0xc334720ebe4c956a5dfe57453777fe502d2500591757a222f16742b21e0a3a20",
          "blockNumber": "0x5705ee2",
          "transactionHash": "0xc2fa43abe5e283d41b9744d31d15b7a72e01091b3664c6833aebf877d1cc58a5",
          "transactionIndex": "0x2",
          "logIndex": "0x0",
          "removed": false
        }
      ],
      "logsBloom": "0x00000000000000000000000000000000000000000000000000000000000000000000000000000000000000000000000000000000000040000000000000000000000000000000000000000008000000000000000000000000000000000008000000000000020000000000000000000800000000000000000000000010000000000000000100000000000000000000000000000000000000000000000000000000000000080000000000000000000001000000000000000000000020000000000000000002000000000000000000000000000000000000000000000000000020000000000000000000000000000000000000000000000000000000000000000000",
      "type": "0x2",
      "transactionHash": "0xc2fa43abe5e283d41b9744d31d15b7a72e01091b3664c6833aebf877d1cc58a5",
      "transactionIndex": "0x2",
      "blockHash": "0xc334720ebe4c956a5dfe57453777fe502d2500591757a222f16742b21e0a3a20",
      "blockNumber": "0x5705ee2",
      "gasUsed": "0x915f",
      "effectiveGasPrice": "0x5f5e100",
      "from": "0xb7d030f7c6406446e703e73b3d1dd8611a2d87b6",
      "to": "0xe51ade97db1151c6e8a7d465b84b29eb9422b5b8",
      "contractAddress": null,
      "gasUsedForL1": "0x2f4",
      "l1BlockNumber": "0x69d176"
    }
  ],
  "libraries": [],
  "pending": [],
  "returns": {},
  "timestamp": 1729760692,
  "chain": 421614,
  "commit": "85c4afb"
}