{
  "transactions": [
    {
      "hash": "0x8de96fe658f1b01c0a7ab64b2dbd4488f06737aa06f42514df63d225d540537c",
      "transactionType": "CALL",
      "contractName": null,
      "contractAddress": "0x181b6c4042b9c5c53194e007ae645415eaa0a50f",
      "function": "executeCall(address,uint256,bytes)",
      "arguments": [
        "0x78072889Ee4D7Fe1A100C25296AABBEA32e92Bea",
        "0",
        "0x42842e0e000000000000000000000000181b6c4042b9c5c53194e007ae645415eaa0a50f000000000000000000000000fc795dd1faacf2f3758832bfcae1d090836ecfdd00000000000000000000000000000000000000000000000000000000000a23fe"
      ],
      "transaction": {
        "from": "0xf53f105e90b3e9ea928926a5a78e921d8168e213",
        "to": "0x181b6c4042b9c5c53194e007ae645415eaa0a50f",
        "value": "0x0",
        "input": "0x9e5d4c4900000000000000000000000078072889ee4d7fe1a100c25296aabbea32e92bea00000000000000000000000000000000000000000000000000000000000000000000000000000000000000000000000000000000000000000000000000000060000000000000000000000000000000000000000000000000000000000000006442842e0e000000000000000000000000181b6c4042b9c5c53194e007ae645415eaa0a50f000000000000000000000000fc795dd1faacf2f3758832bfcae1d090836ecfdd00000000000000000000000000000000000000000000000000000000000a23fe00000000000000000000000000000000000000000000000000000000",
        "nonce": "0x47",
        "chainId": "0xa4b1"
      },
      "additionalContracts": [],
      "isFixedGasLimit": false
    }
  ],
  "receipts": [
    {
      "status": "0x1",
      "cumulativeGasUsed": "0x8d25d",
      "logs": [
        {
          "address": "0x181b6c4042b9c5c53194e007ae645415eaa0a50f",
          "topics": [
            "0x47d99ad340f52da66535aff7e10da1ceb85a32bcbd9fa1c42314d194545e14d2",
            "0x00000000000000000000000078072889ee4d7fe1a100c25296aabbea32e92bea",
            "0x0000000000000000000000000000000000000000000000000000000000000000"
          ],
          "data": "0x0000000000000000000000000000000000000000000000000000000000000020000000000000000000000000000000000000000000000000000000000000006442842e0e000000000000000000000000181b6c4042b9c5c53194e007ae645415eaa0a50f000000000000000000000000fc795dd1faacf2f3758832bfcae1d090836ecfdd00000000000000000000000000000000000000000000000000000000000a23fe00000000000000000000000000000000000000000000000000000000",
          "blockHash": "0x727462cad9fc8da74d3055c9dfa18efbd07fb6a60f5f9f5593501a70794ed656",
          "blockNumber": "0x112c553d",
          "transactionHash": "0x8de96fe658f1b01c0a7ab64b2dbd4488f06737aa06f42514df63d225d540537c",
          "transactionIndex": "0x1",
          "logIndex": "0x0",
          "removed": false
        },
        {
          "address": "0x78072889ee4d7fe1a100c25296aabbea32e92bea",
          "topics": [
            "0xddf252ad1be2c89b69c2b068fc378daa952ba7f163c4a11628f55a4df523b3ef",
            "0x000000000000000000000000181b6c4042b9c5c53194e007ae645415eaa0a50f",
            "0x000000000000000000000000fc795dd1faacf2f3758832bfcae1d090836ecfdd",
            "0x00000000000000000000000000000000000000000000000000000000000a23fe"
          ],
          "data": "0x",
          "blockHash": "0x727462cad9fc8da74d3055c9dfa18efbd07fb6a60f5f9f5593501a70794ed656",
          "blockNumber": "0x112c553d",
          "transactionHash": "0x8de96fe658f1b01c0a7ab64b2dbd4488f06737aa06f42514df63d225d540537c",
          "transactionIndex": "0x1",
          "logIndex": "0x1",
          "removed": false
        },
        {
          "address": "0xfc795dd1faacf2f3758832bfcae1d090836ecfdd",
          "topics": [
            "0xa05d90f300156ad1b545bc5d8197024456f21d22a708f5af04dd293e3d605251",
            "0x000000000000000000000000181b6c4042b9c5c53194e007ae645415eaa0a50f",
            "0x000000000000000000000000181b6c4042b9c5c53194e007ae645415eaa0a50f",
            "0x00000000000000000000000000000000000000000000000000000000000a23fe"
          ],
          "data": "0x00000000000000000000000000000000000000000000000000000000000000200000000000000000000000000000000000000000000000000000000000000000",
          "blockHash": "0x727462cad9fc8da74d3055c9dfa18efbd07fb6a60f5f9f5593501a70794ed656",
          "blockNumber": "0x112c553d",
          "transactionHash": "0x8de96fe658f1b01c0a7ab64b2dbd4488f06737aa06f42514df63d225d540537c",
          "transactionIndex": "0x1",
          "logIndex": "0x2",
          "removed": false
        }
      ],
      "logsBloom": "0x01000000000004000000000000000000000000000000000000000000000000000000000000000000000000000000000000000000000000000002000000000000000000000000000000080028000000008000000000000000000000000000000000000000020100000000000000000800000000000000000000000010000000002000000000000000000000000002000000400000000000080000000000000000000000000000000000000200000000000000040001000000000000000000000000010002004081000800000000000000000000000100040000000000004020000200000000020000000002000000000000000000000000000020000000100000",
      "type": "0x2",
      "transactionHash": "0x8de96fe658f1b01c0a7ab64b2dbd4488f06737aa06f42514df63d225d540537c",
      "transactionIndex": "0x1",
      "blockHash": "0x727462cad9fc8da74d3055c9dfa18efbd07fb6a60f5f9f5593501a70794ed656",
      "blockNumber": "0x112c553d",
      "gasUsed": "0x8d25d",
      "effectiveGasPrice": "0x989680",
      "from": "0xf53f105e90b3e9ea928926a5a78e921d8168e213",
      "to": "0x181b6c4042b9c5c53194e007ae645415eaa0a50f",
      "contractAddress": null,
      "gasUsedForL1": "0x689db",
      "l1BlockNumber": "0x147a4c5"
    }
  ],
  "libraries": [],
  "pending": [],
  "returns": {},
  "timestamp": 1735044839,
  "chain": 42161,
  "commit": "98a6857"
}