{
  "transactions": [
    {
      "hash": "0xae6df4f5a0891570b3abf81f1f194431610d5f786ffc28be90fa9f2263d3ecb3",
      "transactionType": "CALL",
      "contractName": null,
      "contractAddress": "0x1ce4a27fa620783daaa03cf6472d9c32121ec7f6",
      "function": "executeCall(address,uint256,bytes)",
      "arguments": [
        "0x47A91457a3a1f700097199Fd63c039c4784384aB",
        "0",
        "0x23b872dd0000000000000000000000001ce4a27fa620783daaa03cf6472d9c32121ec7f60000000000000000000000003260e5d0a58f2e8c592adea06ba0100cb09f26ea0000000000000000000000000000000000000000000000000000000005f6288a"
      ],
      "transaction": {
        "from": "0xf53f105e90b3e9ea928926a5a78e921d8168e213",
        "to": "0x1ce4a27fa620783daaa03cf6472d9c32121ec7f6",
        "gas": "0x5fcda",
        "value": "0x0",
        "input": "0x9e5d4c4900000000000000000000000047a91457a3a1f700097199fd63c039c4784384ab00000000000000000000000000000000000000000000000000000000000000000000000000000000000000000000000000000000000000000000000000000060000000000000000000000000000000000000000000000000000000000000006423b872dd0000000000000000000000001ce4a27fa620783daaa03cf6472d9c32121ec7f60000000000000000000000003260e5d0a58f2e8c592adea06ba0100cb09f26ea0000000000000000000000000000000000000000000000000000000005f6288a00000000000000000000000000000000000000000000000000000000",
        "nonce": "0x30",
        "chainId": "0xa4b1"
      },
      "additionalContracts": [],
      "isFixedGasLimit": false
    }
  ],
  "receipts": [
    {
      "status": "0x1",
      "cumulativeGasUsed": "0x8f36f",
      "logs": [
        {
          "address": "0x1ce4a27fa620783daaa03cf6472d9c32121ec7f6",
          "topics": [
            "0x47d99ad340f52da66535aff7e10da1ceb85a32bcbd9fa1c42314d194545e14d2",
            "0x00000000000000000000000047a91457a3a1f700097199fd63c039c4784384ab",
            "0x0000000000000000000000000000000000000000000000000000000000000000"
          ],
          "data": "0x0000000000000000000000000000000000000000000000000000000000000020000000000000000000000000000000000000000000000000000000000000006423b872dd0000000000000000000000001ce4a27fa620783daaa03cf6472d9c32121ec7f60000000000000000000000003260e5d0a58f2e8c592adea06ba0100cb09f26ea0000000000000000000000000000000000000000000000000000000005f6288a00000000000000000000000000000000000000000000000000000000",
          "blockHash": "0x35e532172a5193801662c5326702f6751db5927d64618f1bac48e13405e9ca83",
          "blockNumber": "0xf57c5a5",
          "transactionHash": "0xae6df4f5a0891570b3abf81f1f194431610d5f786ffc28be90fa9f2263d3ecb3",
          "transactionIndex": "0x2",
          "logIndex": "0xa",
          "removed": false
        },
        {
          "address": "0x47a91457a3a1f700097199fd63c039c4784384ab",
          "topics": [
            "0x8c5be1e5ebec7d5bd14f71427d1e84f3dd0314c0f7b2291e5b200ac8c7c3b925",
            "0x0000000000000000000000001ce4a27fa620783daaa03cf6472d9c32121ec7f6",
            "0x0000000000000000000000000000000000000000000000000000000000000000",
            "0x0000000000000000000000000000000000000000000000000000000005f6288a"
          ],
          "data": "0x",
          "blockHash": "0x35e532172a5193801662c5326702f6751db5927d64618f1bac48e13405e9ca83",
          "blockNumber": "0xf57c5a5",
          "transactionHash": "0xae6df4f5a0891570b3abf81f1f194431610d5f786ffc28be90fa9f2263d3ecb3",
          "transactionIndex": "0x2",
          "logIndex": "0xb",
          "removed": false
        },
        {
          "address": "0x47a91457a3a1f700097199fd63c039c4784384ab",
          "topics": [
            "0xddf252ad1be2c89b69c2b068fc378daa952ba7f163c4a11628f55a4df523b3ef",
            "0x0000000000000000000000001ce4a27fa620783daaa03cf6472d9c32121ec7f6",
            "0x0000000000000000000000003260e5d0a58f2e8c592adea06ba0100cb09f26ea",
            "0x0000000000000000000000000000000000000000000000000000000005f6288a"
          ],
          "data": "0x",
          "blockHash": "0x35e532172a5193801662c5326702f6751db5927d64618f1bac48e13405e9ca83",
          "blockNumber": "0xf57c5a5",
          "transactionHash": "0xae6df4f5a0891570b3abf81f1f194431610d5f786ffc28be90fa9f2263d3ecb3",
          "transactionIndex": "0x2",
          "logIndex": "0xc",
          "removed": false
        }
      ],
      "logsBloom": "0x0100000000000400000000000000000000000000000000000000000000000000000000008000000400000000000002000000000000000000000000200020000000000000000020000000000a020000000000000000020000080000202000000000000000020000000000000000000800000000000000000000000010000000000000000000000000000000000000000000000000000000008000000000000000020000000000000000000000000000000040000000000000000000200000000000000002000010000000000200000000000000000000001000000000000020000010008000000000000002000000000000000000000000000000000000000000",
      "type": "0x2",
      "transactionHash": "0xae6df4f5a0891570b3abf81f1f194431610d5f786ffc28be90fa9f2263d3ecb3",
      "transactionIndex": "0x2",
      "blockHash": "0x35e532172a5193801662c5326702f6751db5927d64618f1bac48e13405e9ca83",
      "blockNumber": "0xf57c5a5",
      "gasUsed": "0x3e904",
      "effectiveGasPrice": "0x989680",
      "from": "0xf53f105e90b3e9ea928926a5a78e921d8168e213",
      "to": "0x1ce4a27fa620783daaa03cf6472d9c32121ec7f6",
      "contractAddress": null,
      "gasUsedForL1": "0x25830",
      "l1BlockNumber": "0x13dded4"
    }
  ],
  "libraries": [],
  "pending": [],
  "returns": {},
  "timestamp": 1727319626,
  "chain": 42161,
  "commit": "3387e0c"
}