{
  "transactions": [
    {
      "hash": null,
      "transactionType": "CALL",
      "contractName": null,
      "contractAddress": "0x1ce4a27fa620783daaa03cf6472d9c32121ec7f6",
      "function": "executeCall(address,uint256,bytes)",
      "arguments": [
        "0x47A91457a3a1f700097199Fd63c039c4784384aB",
        "0",
        "0x23b872dd0000000000000000000000001ce4a27fa620783daaa03cf6472d9c32121ec7f60000000000000000000000003260e5d0a58f2e8c592adea06ba0100cb09f26ea0000000000000000000000000000000000000000000000000000000005f6288a"
      ],
      "transaction": {
        "from": "0xf53f105e90b3e9ea928926a5a78e921d8168e213",
        "to": "0x1ce4a27fa620783daaa03cf6472d9c32121ec7f6",
        "gas": "0x5fcda",
        "value": "0x0",
        "input": "0x9e5d4c4900000000000000000000000047a91457a3a1f700097199fd63c039c4784384ab00000000000000000000000000000000000000000000000000000000000000000000000000000000000000000000000000000000000000000000000000000060000000000000000000000000000000000000000000000000000000000000006423b872dd0000000000000000000000001ce4a27fa620783daaa03cf6472d9c32121ec7f60000000000000000000000003260e5d0a58f2e8c592adea06ba0100cb09f26ea0000000000000000000000000000000000000000000000000000000005f6288a00000000000000000000000000000000000000000000000000000000",
        "nonce": "0x30",
        "chainId": "0xa4b1"
      },
      "additionalContracts": [],
      "isFixedGasLimit": false
    }
  ],
  "receipts": [],
  "libraries": [],
  "pending": [],
  "returns": {},
  "timestamp": 1727319477,
  "chain": 42161,
  "commit": "3387e0c"
}