{
  "transactions": [
    {
      "hash": "0xae9f3be281461ca66bf804739d36f87730adced8611a57aa382db04aae6046f6",
      "transactionType": "CALL",
      "contractName": null,
      "contractAddress": "0xfaa1e72f8609a86f7cebbada0719fac617d67e18",
      "function": "setFeePerSponsorTicket(uint256)",
      "arguments": [
        "1000000000000"
      ],
      "transaction": {
        "from": "0xb7d030f7c6406446e703e73b3d1dd8611a2d87b6",
        "to": "0xfaa1e72f8609a86f7cebbada0719fac617d67e18",
        "gas": "0x5c4db",
        "value": "0x0",
        "input": "0x149caac8000000000000000000000000000000000000000000000000000000e8d4a51000",
        "nonce": "0x90",
        "chainId": "0x66eee"
      },
      "additionalContracts": [],
      "isFixedGasLimit": false
    },
    {
      "hash": "0x2e36c32e5425414b2d7de87ca25c37fcabe67b355f60ae7e83660284556cba98",
      "transactionType": "CALL",
      "contractName": null,
      "contractAddress": "0x75260d56366fba5933cb56efd5f671331ff9b6c5",
      "function": "setFeePerSponsorTicket(uint256)",
      "arguments": [
        "1000000000000"
      ],
      "transaction": {
        "from": "0xb7d030f7c6406446e703e73b3d1dd8611a2d87b6",
        "to": "0x75260d56366fba5933cb56efd5f671331ff9b6c5",
        "gas": "0x5c4db",
        "value": "0x0",
        "input": "0x149caac8000000000000000000000000000000000000000000000000000000e8d4a51000",
        "nonce": "0x91",
        "chainId": "0x66eee"
      },
      "additionalContracts": [],
      "isFixedGasLimit": false
    }
  ],
  "receipts": [
    {
      "status": "0x1",
      "cumulativeGasUsed": "0x36fe2",
      "logs": [
        {
          "address": "0xfaa1e72f8609a86f7cebbada0719fac617d67e18",
          "topics": [
            "0xc213c63ebbcc7cf00b0153c23fbac46f00d360b97b2a9b8f14174cdb9fa635de"
          ],
          "data": "0x000000000000000000000000000000000000000000000000000000e8d4a51000",
          "blockHash": "0x2a3b1ac2e31b2d94885fe2440e4c9e60a5ac37319657e7026ee11af0ee7e5e52",
          "blockNumber": "0x37dbccf",
          "transactionHash": "0xae9f3be281461ca66bf804739d36f87730adced8611a57aa382db04aae6046f6",
          "transactionIndex": "0x1",
          "logIndex": "0x0",
          "removed": false
        }
      ],
      "logsBloom": "0x00000000080000000000000000000000000000000000000000000000000000000000000000200000000000000000000000000000000000000000000000000000000000000000000000000000000000000000004000000000000000000000000000000200000000000000000000000000000000000000000000000000000000000000000000000000000000000000000000000000000000000000000000000000000000000000000000000000000000000000000000000000000000000000000000000000100000000000040000000000000000000000000000000000000000000000000000000000000000000000000000000000000000000000000000000000",
      "type": "0x2",
      "transactionHash": "0xae9f3be281461ca66bf804739d36f87730adced8611a57aa382db04aae6046f6",
      "transactionIndex": "0x1",
      "blockHash": "0x2a3b1ac2e31b2d94885fe2440e4c9e60a5ac37319657e7026ee11af0ee7e5e52",
      "blockNumber": "0x37dbccf",
      "gasUsed": "0x36fe2",
      "effectiveGasPrice": "0x5f5e100",
      "from": "0xb7d030f7c6406446e703e73b3d1dd8611a2d87b6",
      "to": "0xfaa1e72f8609a86f7cebbada0719fac617d67e18",
      "contractAddress": null,
      "gasUsedForL1": "0x2fac7",
      "l1BlockNumber": "0x5e7845"
    },
    {
      "status": "0x1",
      "cumulativeGasUsed": "0x36fe2",
      "logs": [
        {
          "address": "0x75260d56366fba5933cb56efd5f671331ff9b6c5",
          "topics": [
            "0xc213c63ebbcc7cf00b0153c23fbac46f00d360b97b2a9b8f14174cdb9fa635de"
          ],
          "data": "0x000000000000000000000000000000000000000000000000000000e8d4a51000",
          "blockHash": "0x3df8382950bbac09e8d35cb6d958917c79c92d405103871ed3fa5cb6c5b5f152",
          "blockNumber": "0x37dbcd5",
          "transactionHash": "0x2e36c32e5425414b2d7de87ca25c37fcabe67b355f60ae7e83660284556cba98",
          "transactionIndex": "0x1",
          "logIndex": "0x0",
          "removed": false
        }
      ],
      "logsBloom": "0x00000000080000000000000000000000002000000000000000000000000000000000000000000000000000000000000000000000000000000000000000000000000000000000000000000000000000000000002000000000000000000000000000000200000000000000000000000000000000000000000000000000000000000000000000000000000000000000000000000000000000000000000000000000000000000000000000000000000000000000000000000000000000000000000000000000000000000000040000000000000000000000000000000000000000000000000000000000000000000000000000000000000000000000000010000000",
      "type": "0x2",
      "transactionHash": "0x2e36c32e5425414b2d7de87ca25c37fcabe67b355f60ae7e83660284556cba98",
      "transactionIndex": "0x1",
      "blockHash": "0x3df8382950bbac09e8d35cb6d958917c79c92d405103871ed3fa5cb6c5b5f152",
      "blockNumber": "0x37dbcd5",
      "gasUsed": "0x36fe2",
      "effectiveGasPrice": "0x5f5e100",
      "from": "0xb7d030f7c6406446e703e73b3d1dd8611a2d87b6",
      "to": "0x75260d56366fba5933cb56efd5f671331ff9b6c5",
      "contractAddress": null,
      "gasUsedForL1": "0x2fac7",
      "l1BlockNumber": "0x5e7845"
    }
  ],
  "libraries": [],
  "pending": [],
  "returns": {},
  "timestamp": 1719410658,
  "chain": 421614,
  "commit": "299ff3d"
}