{
  "transactions": [
    {
      "hash": "0x4ad85f29cedf162be37df6dbcfd1657985c95a3ab01f5093d8e38652efdaadd8",
      "transactionType": "CALL",
      "contractName": null,
      "contractAddress": "0xd62df558426c7a37dcda006b83362b610423484b",
      "function": "setAddress(string,address)",
      "arguments": [
        "\"ERC6551Registry\"",
        "0xF0401c57Ff0Cb78Af5340dA8ABf79f7B1D9b4A50"
      ],
      "transaction": {
        "from": "0xb7d030f7c6406446e703e73b3d1dd8611a2d87b6",
        "to": "0xd62df558426c7a37dcda006b83362b610423484b",
        "gas": "0xfc63",
        "value": "0x0",
        "input": "0x9b2ea4bd0000000000000000000000000000000000000000000000000000000000000040000000000000000000000000f0401c57ff0cb78af5340da8abf79f7b1d9b4a50000000000000000000000000000000000000000000000000000000000000000f4552433635353152656769737472790000000000000000000000000000000000",
        "nonce": "0x75",
        "chainId": "0x66eee"
      },
      "additionalContracts": [],
      "isFixedGasLimit": false
    }
  ],
  "receipts": [
    {
      "status": "0x1",
      "cumulativeGasUsed": "0xc095",
      "logs": [
        {
          "address": "0xd62df558426c7a37dcda006b83362b610423484b",
          "topics": [
            "0xb0377b4035c2bd5b6aeb3eb7f139162c730ea47b957e4354f8a81ebb99573dec"
          ],
          "data": "0x0000000000000000000000000000000000000000000000000000000000000040000000000000000000000000f0401c57ff0cb78af5340da8abf79f7b1d9b4a50000000000000000000000000000000000000000000000000000000000000000f4552433635353152656769737472790000000000000000000000000000000000",
          "blockHash": "0x46c9777da3594bb68ce3c6e52d0f2abb3813d4c25fb3b49b1d77694547556732",
          "blockNumber": "0x353910b",
          "transactionHash": "0x4ad85f29cedf162be37df6dbcfd1657985c95a3ab01f5093d8e38652efdaadd8",
          "transactionIndex": "0x1",
          "logIndex": "0x0",
          "removed": false
        }
      ],
      "logsBloom": "0x00000000000000000000000000000000000000000000000000000000000000000000000000000000000000000000000000000000000000000000000000000000000800000000000000000000000000000000000000000000000000000000004000000000000000000000000000000000000000000000000000000000000000000000000000000000000000000000000000000000000000000000000000000000000000000000000000000000000000000001000000000000000000000000080000000000000000000000000000000000004000000000000000000000000000000000000000000000000000000000000000000400000000000000000000000000",
      "type": "0x2",
      "transactionHash": "0x4ad85f29cedf162be37df6dbcfd1657985c95a3ab01f5093d8e38652efdaadd8",
      "transactionIndex": "0x1",
      "blockHash": "0x46c9777da3594bb68ce3c6e52d0f2abb3813d4c25fb3b49b1d77694547556732",
      "blockNumber": "0x353910b",
      "gasUsed": "0xc095",
      "effectiveGasPrice": "0x5f5e100",
      "from": "0xb7d030f7c6406446e703e73b3d1dd8611a2d87b6",
      "to": "0xd62df558426c7a37dcda006b83362b610423484b",
      "contractAddress": null,
      "gasUsedForL1": "0x2c",
      "l1BlockNumber": "0x5d8e07"
    }
  ],
  "libraries": [],
  "pending": [],
  "returns": {},
  "timestamp": 1718683610,
  "chain": 421614,
  "commit": "de99658"
}