{
  "transactions": [
    {
      "hash": "0xd3b00c634dc116cacf805e6780067a3312fce273ff269741d3c5b1db2b80fa10",
      "transactionType": "CALL",
      "contractName": null,
      "contractAddress": "0x40dba44e7d95afff4bc8afa349393f26c8f61da6",
      "function": "setExecutor(address,bool)",
      "arguments": [
        "0x08E3dBFCF164Df355E36B65B4e71D9E66483e083",
        "true"
      ],
      "transaction": {
        "from": "0xb7d030f7c6406446e703e73b3d1dd8611a2d87b6",
        "to": "0x40dba44e7d95afff4bc8afa349393f26c8f61da6",
        "gas": "0x1104f",
        "value": "0x0",
        "input": "0x1e1bff3f00000000000000000000000008e3dbfcf164df355e36b65b4e71d9e66483e0830000000000000000000000000000000000000000000000000000000000000001",
        "nonce": "0x1dc",
        "chainId": "0x14a34"
      },
      "additionalContracts": [],
      "isFixedGasLimit": false
    }
  ],
  "receipts": [
    {
      "status": "0x1",
      "cumulativeGasUsed": "0x5767ec",
      "logs": [
        {
          "address": "0x40dba44e7d95afff4bc8afa349393f26c8f61da6",
          "topics": [
            "0x9fdbc2d48b8a0db2f62663bf9312ad02f5b1f6414ad600b55a247d09aeec3ea2"
          ],
          "data": "0x00000000000000000000000008e3dbfcf164df355e36b65b4e71d9e66483e0830000000000000000000000000000000000000000000000000000000000000001",
          "blockHash": "0x959a374c19f977f4dba8de47bcea67bbab0f47fa0d6272b575d19b64648fa251",
          "blockNumber": "0x1074b0c",
          "transactionHash": "0xd3b00c634dc116cacf805e6780067a3312fce273ff269741d3c5b1db2b80fa10",
          "transactionIndex": "0x14",
          "logIndex": "0x39",
          "removed": false
        }
      ],
      "logsBloom": "0x00000000000000000000000000000000100000000000000020000000000000000000001000000000000000000000000000000000000000000000000000000000000000000000000000000000000000000000000000000000000000000000000000000000000000000000000000000000000000000000000000000000000000000000000000000000000000000000000000000000000000000000000000020000000000000000000000000000000000000000000000000000000000000000000000000000000000000000000000000000000000000000000000000000000000000000000000000000000000000000000000000000000400000000000040000000",
      "type": "0x2",
      "transactionHash": "0xd3b00c634dc116cacf805e6780067a3312fce273ff269741d3c5b1db2b80fa10",
      "transactionIndex": "0x14",
      "blockHash": "0x959a374c19f977f4dba8de47bcea67bbab0f47fa0d6272b575d19b64648fa251",
      "blockNumber": "0x1074b0c",
      "gasUsed": "0xba32",
      "effectiveGasPrice": "0xf17b1",
      "from": "0xb7d030f7c6406446e703e73b3d1dd8611a2d87b6",
      "to": "0x40dba44e7d95afff4bc8afa349393f26c8f61da6",
      "contractAddress": null,
      "l1BaseFeeScalar": "0x44d",
      "l1BlobBaseFee": "0x1",
      "l1BlobBaseFeeScalar": "0xa118b",
      "l1Fee": "0x6a302f0b2",
      "l1GasPrice": "0x3c4787bef",
      "l1GasUsed": "0x640"
    }
  ],
  "libraries": [],
  "pending": [],
  "returns": {},
  "timestamp": 1730278655,
  "chain": 84532,
  "commit": "d5ea916"
}