{
  "transactions": [
    {
      "hash": "0xf91942dfacf65f246082ddf3d81d85f0cfd780eb3b3239983d2d608bd2d7f78f",
      "transactionType": "CALL",
      "contractName": null,
      "contractAddress": "0xa436364dafb5388f4756cd334e41948a3f8bff1d",
      "function": "setAddresses(string[],address[])",
      "arguments": [
        "[\"UNISWAP_ROUTER\", \"UNISWAP_QUOTER\", \"TOKEN_WETH\", \"TOKEN_USDC\"]",
        "[0x3bFA4769FB09eefC5a80d6E87c3B9C650f7Ae48E, 0xEd1f6473345F45b75F8179591dd5bA1888cf2FB3, 0xfFf9976782d46CC05630D1f6eBAb18b2324d6B14, 0x1c7D4B196Cb0C7B01d743Fbc6116a902379C7238]"
      ],
      "transaction": {
        "from": "0xb7d030f7c6406446e703e73b3d1dd8611a2d87b6",
        "to": "0xa436364dafb5388f4756cd334e41948a3f8bff1d",
        "gas": "0x18a3e",
        "value": "0x0",
        "input": "0x7d69a892000000000000000000000000000000000000000000000000000000000000004000000000000000000000000000000000000000000000000000000000000001e00000000000000000000000000000000000000000000000000000000000000004000000000000000000000000000000000000000000000000000000000000008000000000000000000000000000000000000000000000000000000000000000c000000000000000000000000000000000000000000000000000000000000001000000000000000000000000000000000000000000000000000000000000000140000000000000000000000000000000000000000000000000000000000000000e554e49535741505f524f55544552000000000000000000000000000000000000000000000000000000000000000000000000000000000000000000000000000e554e49535741505f51554f544552000000000000000000000000000000000000000000000000000000000000000000000000000000000000000000000000000a544f4b454e5f5745544800000000000000000000000000000000000000000000000000000000000000000000000000000000000000000000000000000000000a544f4b454e5f555344430000000000000000000000000000000000000000000000000000000000000000000000000000000000000000000000000000000000040000000000000000000000003bfa4769fb09eefc5a80d6e87c3b9c650f7ae48e000000000000000000000000ed1f6473345f45b75f8179591dd5ba1888cf2fb3000000000000000000000000fff9976782d46cc05630d1f6ebab18b2324d6b140000000000000000000000001c7d4b196cb0c7b01d743fbc6116a902379c7238",
        "nonce": "0x277",
        "chainId": "0xaa36a7"
      },
      "additionalContracts": [],
      "isFixedGasLimit": false
    }
  ],
  "receipts": [
    {
      "status": "0x1",
      "cumulativeGasUsed": "0x140f9b7",
      "logs": [
        {
          "address": "0xa436364dafb5388f4756cd334e41948a3f8bff1d",
          "topics": [
            "0xb0377b4035c2bd5b6aeb3eb7f139162c730ea47b957e4354f8a81ebb99573dec"
          ],
          "data": "0x00000000000000000000000000000000000000000000000000000000000000400000000000000000000000003bfa4769fb09eefc5a80d6e87c3b9c650f7ae48e000000000000000000000000000000000000000000000000000000000000000e554e49535741505f524f55544552000000000000000000000000000000000000",
          "blockHash": "0x68bba95515245a3253b2ba3b6a8021ce65751a21da50a6d473ce59f04c3453fc",
          "blockNumber": "0x6f3cb8",
          "transactionHash": "0xf91942dfacf65f246082ddf3d81d85f0cfd780eb3b3239983d2d608bd2d7f78f",
          "transactionIndex": "0x9b",
          "logIndex": "0x132",
          "removed": false
        },
        {
          "address": "0xa436364dafb5388f4756cd334e41948a3f8bff1d",
          "topics": [
            "0xb0377b4035c2bd5b6aeb3eb7f139162c730ea47b957e4354f8a81ebb99573dec"
          ],
          "data": "0x0000000000000000000000000000000000000000000000000000000000000040000000000000000000000000ed1f6473345f45b75f8179591dd5ba1888cf2fb3000000000000000000000000000000000000000000000000000000000000000e554e49535741505f51554f544552000000000000000000000000000000000000",
          "blockHash": "0x68bba95515245a3253b2ba3b6a8021ce65751a21da50a6d473ce59f04c3453fc",
          "blockNumber": "0x6f3cb8",
          "transactionHash": "0xf91942dfacf65f246082ddf3d81d85f0cfd780eb3b3239983d2d608bd2d7f78f",
          "transactionIndex": "0x9b",
          "logIndex": "0x133",
          "removed": false
        },
        {
          "address": "0xa436364dafb5388f4756cd334e41948a3f8bff1d",
          "topics": [
            "0xb0377b4035c2bd5b6aeb3eb7f139162c730ea47b957e4354f8a81ebb99573dec"
          ],
          "data": "0x0000000000000000000000000000000000000000000000000000000000000040000000000000000000000000fff9976782d46cc05630d1f6ebab18b2324d6b14000000000000000000000000000000000000000000000000000000000000000a544f4b454e5f5745544800000000000000000000000000000000000000000000",
          "blockHash": "0x68bba95515245a3253b2ba3b6a8021ce65751a21da50a6d473ce59f04c3453fc",
          "blockNumber": "0x6f3cb8",
          "transactionHash": "0xf91942dfacf65f246082ddf3d81d85f0cfd780eb3b3239983d2d608bd2d7f78f",
          "transactionIndex": "0x9b",
          "logIndex": "0x134",
          "removed": false
        },
        {
          "address": "0xa436364dafb5388f4756cd334e41948a3f8bff1d",
          "topics": [
            "0xb0377b4035c2bd5b6aeb3eb7f139162c730ea47b957e4354f8a81ebb99573dec"
          ],
          "data": "0x00000000000000000000000000000000000000000000000000000000000000400000000000000000000000001c7d4b196cb0c7b01d743fbc6116a902379c7238000000000000000000000000000000000000000000000000000000000000000a544f4b454e5f5553444300000000000000000000000000000000000000000000",
          "blockHash": "0x68bba95515245a3253b2ba3b6a8021ce65751a21da50a6d473ce59f04c3453fc",
          "blockNumber": "0x6f3cb8",
          "transactionHash": "0xf91942dfacf65f246082ddf3d81d85f0cfd780eb3b3239983d2d608bd2d7f78f",
          "transactionIndex": "0x9b",
          "logIndex": "0x135",
          "removed": false
        }
      ],
      "logsBloom": "0x00000000000000000000000000000000000000000000000000000000000000000000000000000000000000000000000000000000000000000000000080000000000000000000000000000000000000000001000000000000000000000000000000000000000000000000000000000000000000000000000000000000000000000000000000000000000000000000000000000000000000000000000000000000000000000000000000000000000000000000000000000000000000000000080000000000000000000000000000000000004000000000000000000000080000000000000000000000000000000000000000000400000000000000000000000000",
      "type": "0x2",
      "transactionHash": "0xf91942dfacf65f246082ddf3d81d85f0cfd780eb3b3239983d2d608bd2d7f78f",
      "transactionIndex": "0x9b",
      "blockHash": "0x68bba95515245a3253b2ba3b6a8021ce65751a21da50a6d473ce59f04c3453fc",
      "blockNumber": "0x6f3cb8",
      "gasUsed": "0x11d6e",
      "effectiveGasPrice": "0x6b2b09a36",
      "from": "0xb7d030f7c6406446e703e73b3d1dd8611a2d87b6",
      "to": "0xa436364dafb5388f4756cd334e41948a3f8bff1d",
      "contractAddress": null
    }
  ],
  "libraries": [],
  "pending": [],
  "returns": {},
  "timestamp": 1734342673,
  "chain": 11155111,
  "commit": "1231297"
}