{
  "transactions": [
    {
      "hash": "0x6d470a6fad568233b0721efe67187237f97e2e580357cc45b79caa2d6c7f5a38",
      "transactionType": "CALL",
      "contractName": null,
      "contractAddress": "0xa436364dafb5388f4756cd334e41948a3f8bff1d",
      "function": "setAddresses(string[],address[])",
      "arguments": [
        "[\"UNISWAP_ROUTER\", \"UNISWAP_QUOTER\", \"TOKEN_USDC\"]",
        "[0x3bFA4769FB09eefC5a80d6E87c3B9C650f7Ae48E, 0xEd1f6473345F45b75F8179591dd5bA1888cf2FB3, 0x309488D8698C9DdA39Ba4Cce9f163932d1984d8b]"
      ],
      "transaction": {
        "from": "0xb7d030f7c6406446e703e73b3d1dd8611a2d87b6",
        "to": "0xa436364dafb5388f4756cd334e41948a3f8bff1d",
        "gas": "0x1d2f9",
        "value": "0x0",
        "input": "0x7d69a892000000000000000000000000000000000000000000000000000000000000004000000000000000000000000000000000000000000000000000000000000001800000000000000000000000000000000000000000000000000000000000000003000000000000000000000000000000000000000000000000000000000000006000000000000000000000000000000000000000000000000000000000000000a000000000000000000000000000000000000000000000000000000000000000e0000000000000000000000000000000000000000000000000000000000000000e554e49535741505f524f55544552000000000000000000000000000000000000000000000000000000000000000000000000000000000000000000000000000e554e49535741505f51554f544552000000000000000000000000000000000000000000000000000000000000000000000000000000000000000000000000000a544f4b454e5f555344430000000000000000000000000000000000000000000000000000000000000000000000000000000000000000000000000000000000030000000000000000000000003bfa4769fb09eefc5a80d6e87c3b9c650f7ae48e000000000000000000000000ed1f6473345f45b75f8179591dd5ba1888cf2fb3000000000000000000000000309488d8698c9dda39ba4cce9f163932d1984d8b",
        "nonce": "0x269",
        "chainId": "0xaa36a7"
      },
      "additionalContracts": [],
      "isFixedGasLimit": false
    }
  ],
  "receipts": [
    {
      "status": "0x1",
      "cumulativeGasUsed": "0x948e1a",
      "logs": [
        {
          "address": "0xa436364dafb5388f4756cd334e41948a3f8bff1d",
          "topics": [
            "0xb0377b4035c2bd5b6aeb3eb7f139162c730ea47b957e4354f8a81ebb99573dec"
          ],
          "data": "0x00000000000000000000000000000000000000000000000000000000000000400000000000000000000000003bfa4769fb09eefc5a80d6e87c3b9c650f7ae48e000000000000000000000000000000000000000000000000000000000000000e554e49535741505f524f55544552000000000000000000000000000000000000",
          "blockHash": "0xd01ea7a6034552db10b9740e224f5c64873c2b8a3ca2672ff956ce4f3456288a",
          "blockNumber": "0x6f3a4b",
          "transactionHash": "0x6d470a6fad568233b0721efe67187237f97e2e580357cc45b79caa2d6c7f5a38",
          "transactionIndex": "0x61",
          "logIndex": "0xb7",
          "removed": false
        },
        {
          "address": "0xa436364dafb5388f4756cd334e41948a3f8bff1d",
          "topics": [
            "0xb0377b4035c2bd5b6aeb3eb7f139162c730ea47b957e4354f8a81ebb99573dec"
          ],
          "data": "0x0000000000000000000000000000000000000000000000000000000000000040000000000000000000000000ed1f6473345f45b75f8179591dd5ba1888cf2fb3000000000000000000000000000000000000000000000000000000000000000e554e49535741505f51554f544552000000000000000000000000000000000000",
          "blockHash": "0xd01ea7a6034552db10b9740e224f5c64873c2b8a3ca2672ff956ce4f3456288a",
          "blockNumber": "0x6f3a4b",
          "transactionHash": "0x6d470a6fad568233b0721efe67187237f97e2e580357cc45b79caa2d6c7f5a38",
          "transactionIndex": "0x61",
          "logIndex": "0xb8",
          "removed": false
        },
        {
          "address": "0xa436364dafb5388f4756cd334e41948a3f8bff1d",
          "topics": [
            "0xb0377b4035c2bd5b6aeb3eb7f139162c730ea47b957e4354f8a81ebb99573dec"
          ],
          "data": "0x0000000000000000000000000000000000000000000000000000000000000040000000000000000000000000309488d8698c9dda39ba4cce9f163932d1984d8b000000000000000000000000000000000000000000000000000000000000000a544f4b454e5f5553444300000000000000000000000000000000000000000000",
          "blockHash": "0xd01ea7a6034552db10b9740e224f5c64873c2b8a3ca2672ff956ce4f3456288a",
          "blockNumber": "0x6f3a4b",
          "transactionHash": "0x6d470a6fad568233b0721efe67187237f97e2e580357cc45b79caa2d6c7f5a38",
          "transactionIndex": "0x61",
          "logIndex": "0xb9",
          "removed": false
        }
      ],
      "logsBloom": "0x00000000000000000000000000000000000000000000000000000000000000000000000000000000000000000000000000000000000000000000000080000000000000000000000000000000000000000001000000000000000000000000000000000000000000000000000000000000000000000000000000000000000000000000000000000000000000000000000000000000000000000000000000000000000000000000000000000000000000000000000000000000000000000000080000000000000000000000000000000000004000000000000000000000080000000000000000000000000000000000000000000400000000000000000000000000",
      "type": "0x2",
      "transactionHash": "0x6d470a6fad568233b0721efe67187237f97e2e580357cc45b79caa2d6c7f5a38",
      "transactionIndex": "0x61",
      "blockHash": "0xd01ea7a6034552db10b9740e224f5c64873c2b8a3ca2672ff956ce4f3456288a",
      "blockNumber": "0x6f3a4b",
      "gasUsed": "0x15215",
      "effectiveGasPrice": "0x690f039a8",
      "from": "0xb7d030f7c6406446e703e73b3d1dd8611a2d87b6",
      "to": "0xa436364dafb5388f4756cd334e41948a3f8bff1d",
      "contractAddress": null
    }
  ],
  "libraries": [],
  "pending": [],
  "returns": {},
  "timestamp": 1734334662,
  "chain": 11155111,
  "commit": "9b642cd"
}