{
  "transactions": [
    {
      "hash": "0xc26b5500c45688bae17c79d7f30e484401a2f3924c6c1e38f9e02848858a784f",
      "transactionType": "CALL",
      "contractName": null,
      "contractAddress": "0x09748f6411a4d1a84a87645a3e406dcb3c31fc73",
      "function": "setAddresses(string[],address[])",
      "arguments": [
        "[\"UNISWAP_ROUTER\", \"UNISWAP_QUOTER\", \"TOKEN_WETH\", \"TOKEN_USDC\"]",
        "[0x3bFA4769FB09eefC5a80d6E87c3B9C650f7Ae48E, 0xEd1f6473345F45b75F8179591dd5bA1888cf2FB3, 0xfFf9976782d46CC05630D1f6eBAb18b2324d6B14, 0x1c7D4B196Cb0C7B01d743Fbc6116a902379C7238]"
      ],
      "transaction": {
        "from": "0xb7d030f7c6406446e703e73b3d1dd8611a2d87b6",
        "to": "0x09748f6411a4d1a84a87645a3e406dcb3c31fc73",
        "gas": "0x18a3e",
        "value": "0x0",
        "input": "0x7d69a892000000000000000000000000000000000000000000000000000000000000004000000000000000000000000000000000000000000000000000000000000001e00000000000000000000000000000000000000000000000000000000000000004000000000000000000000000000000000000000000000000000000000000008000000000000000000000000000000000000000000000000000000000000000c000000000000000000000000000000000000000000000000000000000000001000000000000000000000000000000000000000000000000000000000000000140000000000000000000000000000000000000000000000000000000000000000e554e49535741505f524f55544552000000000000000000000000000000000000000000000000000000000000000000000000000000000000000000000000000e554e49535741505f51554f544552000000000000000000000000000000000000000000000000000000000000000000000000000000000000000000000000000a544f4b454e5f5745544800000000000000000000000000000000000000000000000000000000000000000000000000000000000000000000000000000000000a544f4b454e5f555344430000000000000000000000000000000000000000000000000000000000000000000000000000000000000000000000000000000000040000000000000000000000003bfa4769fb09eefc5a80d6e87c3b9c650f7ae48e000000000000000000000000ed1f6473345f45b75f8179591dd5ba1888cf2fb3000000000000000000000000fff9976782d46cc05630d1f6ebab18b2324d6b140000000000000000000000001c7d4b196cb0c7b01d743fbc6116a902379c7238",
        "nonce": "0x276",
        "chainId": "0xaa36a7"
      },
      "additionalContracts": [],
      "isFixedGasLimit": false
    }
  ],
  "receipts": [
    {
      "status": "0x1",
      "cumulativeGasUsed": "0xcc78ad",
      "logs": [
        {
          "address": "0x09748f6411a4d1a84a87645a3e406dcb3c31fc73",
          "topics": [
            "0xb0377b4035c2bd5b6aeb3eb7f139162c730ea47b957e4354f8a81ebb99573dec"
          ],
          "data": "0x00000000000000000000000000000000000000000000000000000000000000400000000000000000000000003bfa4769fb09eefc5a80d6e87c3b9c650f7ae48e000000000000000000000000000000000000000000000000000000000000000e554e49535741505f524f55544552000000000000000000000000000000000000",
          "blockHash": "0xa41a9bc3f52928cd16785748e3191c38fe4bfc00b5995687cdc961a93dc9fc63",
          "blockNumber": "0x6f3cb6",
          "transactionHash": "0xc26b5500c45688bae17c79d7f30e484401a2f3924c6c1e38f9e02848858a784f",
          "transactionIndex": "0x7d",
          "logIndex": "0x13b",
          "removed": false
        },
        {
          "address": "0x09748f6411a4d1a84a87645a3e406dcb3c31fc73",
          "topics": [
            "0xb0377b4035c2bd5b6aeb3eb7f139162c730ea47b957e4354f8a81ebb99573dec"
          ],
          "data": "0x0000000000000000000000000000000000000000000000000000000000000040000000000000000000000000ed1f6473345f45b75f8179591dd5ba1888cf2fb3000000000000000000000000000000000000000000000000000000000000000e554e49535741505f51554f544552000000000000000000000000000000000000",
          "blockHash": "0xa41a9bc3f52928cd16785748e3191c38fe4bfc00b5995687cdc961a93dc9fc63",
          "blockNumber": "0x6f3cb6",
          "transactionHash": "0xc26b5500c45688bae17c79d7f30e484401a2f3924c6c1e38f9e02848858a784f",
          "transactionIndex": "0x7d",
          "logIndex": "0x13c",
          "removed": false
        },
        {
          "address": "0x09748f6411a4d1a84a87645a3e406dcb3c31fc73",
          "topics": [
            "0xb0377b4035c2bd5b6aeb3eb7f139162c730ea47b957e4354f8a81ebb99573dec"
          ],
          "data": "0x0000000000000000000000000000000000000000000000000000000000000040000000000000000000000000fff9976782d46cc05630d1f6ebab18b2324d6b14000000000000000000000000000000000000000000000000000000000000000a544f4b454e5f5745544800000000000000000000000000000000000000000000",
          "blockHash": "0xa41a9bc3f52928cd16785748e3191c38fe4bfc00b5995687cdc961a93dc9fc63",
          "blockNumber": "0x6f3cb6",
          "transactionHash": "0xc26b5500c45688bae17c79d7f30e484401a2f3924c6c1e38f9e02848858a784f",
          "transactionIndex": "0x7d",
          "logIndex": "0x13d",
          "removed": false
        },
        {
          "address": "0x09748f6411a4d1a84a87645a3e406dcb3c31fc73",
          "topics": [
            "0xb0377b4035c2bd5b6aeb3eb7f139162c730ea47b957e4354f8a81ebb99573dec"
          ],
          "data": "0x00000000000000000000000000000000000000000000000000000000000000400000000000000000000000001c7d4b196cb0c7b01d743fbc6116a902379c7238000000000000000000000000000000000000000000000000000000000000000a544f4b454e5f5553444300000000000000000000000000000000000000000000",
          "blockHash": "0xa41a9bc3f52928cd16785748e3191c38fe4bfc00b5995687cdc961a93dc9fc63",
          "blockNumber": "0x6f3cb6",
          "transactionHash": "0xc26b5500c45688bae17c79d7f30e484401a2f3924c6c1e38f9e02848858a784f",
          "transactionIndex": "0x7d",
          "logIndex": "0x13e",
          "removed": false
        }
      ],
      "logsBloom": "0x00000000000000000000000000000000000000000000000000000000000000000000000000000000000000000000000000000000000000000000000000000000000000000000000000000000000000000010000000000000000000000000000000000000000000000000000000000000000000000000000000000000000000000000000000000000000000000000000000000000000001000000000000000000000000000000000000000000000000000000000000000000000000000000080000000000000008000000000000000000004000000000000000000000000000000000000000000000000000000000000000000400000000000000000000000000",
      "type": "0x2",
      "transactionHash": "0xc26b5500c45688bae17c79d7f30e484401a2f3924c6c1e38f9e02848858a784f",
      "transactionIndex": "0x7d",
      "blockHash": "0xa41a9bc3f52928cd16785748e3191c38fe4bfc00b5995687cdc961a93dc9fc63",
      "blockNumber": "0x6f3cb6",
      "gasUsed": "0x11d6e",
      "effectiveGasPrice": "0x69637b2e0",
      "from": "0xb7d030f7c6406446e703e73b3d1dd8611a2d87b6",
      "to": "0x09748f6411a4d1a84a87645a3e406dcb3c31fc73",
      "contractAddress": null
    }
  ],
  "libraries": [],
  "pending": [],
  "returns": {},
  "timestamp": 1734342642,
  "chain": 11155111,
  "commit": "1231297"
}