{
  "transactions": [
    {
      "hash": "0x8d20e0771927a6bddc6e1e80831f5e4578e872fc8dcf4e9a50ed9b0f1c3cb3fc",
      "transactionType": "CALL",
      "contractName": null,
      "contractAddress": "0x09748f6411a4d1a84a87645a3e406dcb3c31fc73",
      "function": "setAddresses(string[],address[])",
      "arguments": [
        "[\"UNISWAP_ROUTER\", \"UNISWAP_QUOTER\"]",
        "[0x3bFA4769FB09eefC5a80d6E87c3B9C650f7Ae48E, 0xEd1f6473345F45b75F8179591dd5bA1888cf2FB3]"
      ],
      "transaction": {
        "from": "0xb7d030f7c6406446e703e73b3d1dd8611a2d87b6",
        "to": "0x09748f6411a4d1a84a87645a3e406dcb3c31fc73",
        "gas": "0x1a148",
        "value": "0x0",
        "input": "0x7d69a89200000000000000000000000000000000000000000000000000000000000000400000000000000000000000000000000000000000000000000000000000000120000000000000000000000000000000000000000000000000000000000000000200000000000000000000000000000000000000000000000000000000000000400000000000000000000000000000000000000000000000000000000000000080000000000000000000000000000000000000000000000000000000000000000e554e49535741505f524f55544552000000000000000000000000000000000000000000000000000000000000000000000000000000000000000000000000000e554e49535741505f51554f54455200000000000000000000000000000000000000000000000000000000000000000000000000000000000000000000000000020000000000000000000000003bfa4769fb09eefc5a80d6e87c3b9c650f7ae48e000000000000000000000000ed1f6473345f45b75f8179591dd5ba1888cf2fb3",
        "nonce": "0x275",
        "chainId": "0xaa36a7"
      },
      "additionalContracts": [],
      "isFixedGasLimit": false
    }
  ],
  "receipts": [
    {
      "status": "0x1",
      "cumulativeGasUsed": "0x174ae85",
      "logs": [
        {
          "address": "0x09748f6411a4d1a84a87645a3e406dcb3c31fc73",
          "topics": [
            "0xb0377b4035c2bd5b6aeb3eb7f139162c730ea47b957e4354f8a81ebb99573dec"
          ],
          "data": "0x00000000000000000000000000000000000000000000000000000000000000400000000000000000000000003bfa4769fb09eefc5a80d6e87c3b9c650f7ae48e000000000000000000000000000000000000000000000000000000000000000e554e49535741505f524f55544552000000000000000000000000000000000000",
          "blockHash": "0xd2f804024b9603fa446ea610598946b0bc3f8503821a1006fea56349a71667ea",
          "blockNumber": "0x6f3c89",
          "transactionHash": "0x8d20e0771927a6bddc6e1e80831f5e4578e872fc8dcf4e9a50ed9b0f1c3cb3fc",
          "transactionIndex": "0xbb",
          "logIndex": "0x260",
          "removed": false
        },
        {
          "address": "0x09748f6411a4d1a84a87645a3e406dcb3c31fc73",
          "topics": [
            "0xb0377b4035c2bd5b6aeb3eb7f139162c730ea47b957e4354f8a81ebb99573dec"
          ],
          "data": "0x0000000000000000000000000000000000000000000000000000000000000040000000000000000000000000ed1f6473345f45b75f8179591dd5ba1888cf2fb3000000000000000000000000000000000000000000000000000000000000000e554e49535741505f51554f544552000000000000000000000000000000000000",
          "blockHash": "0xd2f804024b9603fa446ea610598946b0bc3f8503821a1006fea56349a71667ea",
          "blockNumber": "0x6f3c89",
          "transactionHash": "0x8d20e0771927a6bddc6e1e80831f5e4578e872fc8dcf4e9a50ed9b0f1c3cb3fc",
          "transactionIndex": "0xbb",
          "logIndex": "0x261",
          "removed": false
        }
      ],
      "logsBloom": "0x00000000000000000000000000000000000000000000000000000000000000000000000000000000000000000000000000000000000000000000000000000000000000000000000000000000000000000010000000000000000000000000000000000000000000000000000000000000000000000000000000000000000000000000000000000000000000000000000000000000000001000000000000000000000000000000000000000000000000000000000000000000000000000000080000000000000008000000000000000000004000000000000000000000000000000000000000000000000000000000000000000400000000000000000000000000",
      "type": "0x2",
      "transactionHash": "0x8d20e0771927a6bddc6e1e80831f5e4578e872fc8dcf4e9a50ed9b0f1c3cb3fc",
      "transactionIndex": "0xbb",
      "blockHash": "0xd2f804024b9603fa446ea610598946b0bc3f8503821a1006fea56349a71667ea",
      "blockNumber": "0x6f3c89",
      "gasUsed": "0x12e1c",
      "effectiveGasPrice": "0x94ced6d20",
      "from": "0xb7d030f7c6406446e703e73b3d1dd8611a2d87b6",
      "to": "0x09748f6411a4d1a84a87645a3e406dcb3c31fc73",
      "contractAddress": null
    }
  ],
  "libraries": [],
  "pending": [],
  "returns": {},
  "timestamp": 1734342062,
  "chain": 11155111,
  "commit": "e628fc0"
}