{
  "transactions": [
    {
      "hash": "0x6b030124bd0ed0e48f28379cf23f64c4d66b95d5241622bbb0ee145f8d78a93a",
      "transactionType": "CALL",
      "contractName": null,
      "contractAddress": "0xa436364dafb5388f4756cd334e41948a3f8bff1d",
      "function": "setAddresses(string[],address[])",
      "arguments": [
        "[\"UNISWAP_ROUTER\", \"UNISWAP_QUOTER\", \"TOKEN_USDC\"]",
        "[0x3bFA4769FB09eefC5a80d6E87c3B9C650f7Ae48E, 0xEd1f6473345F45b75F8179591dd5bA1888cf2FB3, 0x52dF2bf0E618474037fEB0e80794543833245f95]"
      ],
      "transaction": {
        "from": "0xb7d030f7c6406446e703e73b3d1dd8611a2d87b6",
        "to": "0xa436364dafb5388f4756cd334e41948a3f8bff1d",
        "gas": "0xfc3b",
        "value": "0x0",
        "input": "0x7d69a892000000000000000000000000000000000000000000000000000000000000004000000000000000000000000000000000000000000000000000000000000001800000000000000000000000000000000000000000000000000000000000000003000000000000000000000000000000000000000000000000000000000000006000000000000000000000000000000000000000000000000000000000000000a000000000000000000000000000000000000000000000000000000000000000e0000000000000000000000000000000000000000000000000000000000000000e554e49535741505f524f55544552000000000000000000000000000000000000000000000000000000000000000000000000000000000000000000000000000e554e49535741505f51554f544552000000000000000000000000000000000000000000000000000000000000000000000000000000000000000000000000000a544f4b454e5f555344430000000000000000000000000000000000000000000000000000000000000000000000000000000000000000000000000000000000030000000000000000000000003bfa4769fb09eefc5a80d6e87c3b9c650f7ae48e000000000000000000000000ed1f6473345f45b75f8179591dd5ba1888cf2fb300000000000000000000000052df2bf0e618474037feb0e80794543833245f95",
        "nonce": "0x26a",
        "chainId": "0xaa36a7"
      },
      "additionalContracts": [],
      "isFixedGasLimit": false
    }
  ],
  "receipts": [
    {
      "status": "0x1",
      "cumulativeGasUsed": "0xbc7554",
      "logs": [
        {
          "address": "0xa436364dafb5388f4756cd334e41948a3f8bff1d",
          "topics": [
            "0xb0377b4035c2bd5b6aeb3eb7f139162c730ea47b957e4354f8a81ebb99573dec"
          ],
          "data": "0x00000000000000000000000000000000000000000000000000000000000000400000000000000000000000003bfa4769fb09eefc5a80d6e87c3b9c650f7ae48e000000000000000000000000000000000000000000000000000000000000000e554e49535741505f524f55544552000000000000000000000000000000000000",
          "blockHash": "0x5185410cecffb66fbe172f83aa795f4870aee5dc3d78eba70311c89521a11c12",
          "blockNumber": "0x6f3af2",
          "transactionHash": "0x6b030124bd0ed0e48f28379cf23f64c4d66b95d5241622bbb0ee145f8d78a93a",
          "transactionIndex": "0x65",
          "logIndex": "0xf2",
          "removed": false
        },
        {
          "address": "0xa436364dafb5388f4756cd334e41948a3f8bff1d",
          "topics": [
            "0xb0377b4035c2bd5b6aeb3eb7f139162c730ea47b957e4354f8a81ebb99573dec"
          ],
          "data": "0x0000000000000000000000000000000000000000000000000000000000000040000000000000000000000000ed1f6473345f45b75f8179591dd5ba1888cf2fb3000000000000000000000000000000000000000000000000000000000000000e554e49535741505f51554f544552000000000000000000000000000000000000",
          "blockHash": "0x5185410cecffb66fbe172f83aa795f4870aee5dc3d78eba70311c89521a11c12",
          "blockNumber": "0x6f3af2",
          "transactionHash": "0x6b030124bd0ed0e48f28379cf23f64c4d66b95d5241622bbb0ee145f8d78a93a",
          "transactionIndex": "0x65",
          "logIndex": "0xf3",
          "removed": false
        },
        {
          "address": "0xa436364dafb5388f4756cd334e41948a3f8bff1d",
          "topics": [
            "0xb0377b4035c2bd5b6aeb3eb7f139162c730ea47b957e4354f8a81ebb99573dec"
          ],
          "data": "0x000000000000000000000000000000000000000000000000000000000000004000000000000000000000000052df2bf0e618474037feb0e80794543833245f95000000000000000000000000000000000000000000000000000000000000000a544f4b454e5f5553444300000000000000000000000000000000000000000000",
          "blockHash": "0x5185410cecffb66fbe172f83aa795f4870aee5dc3d78eba70311c89521a11c12",
          "blockNumber": "0x6f3af2",
          "transactionHash": "0x6b030124bd0ed0e48f28379cf23f64c4d66b95d5241622bbb0ee145f8d78a93a",
          "transactionIndex": "0x65",
          "logIndex": "0xf4",
          "removed": false
        }
      ],
      "logsBloom": "0x00000000000000000000000000000000000000000000000000000000000000000000000000000000000000000000000000000000000000000000000080000000000000000000000000000000000000000001000000000000000000000000000000000000000000000000000000000000000000000000000000000000000000000000000000000000000000000000000000000000000000000000000000000000000000000000000000000000000000000000000000000000000000000000080000000000000000000000000000000000004000000000000000000000080000000000000000000000000000000000000000000400000000000000000000000000",
      "type": "0x2",
      "transactionHash": "0x6b030124bd0ed0e48f28379cf23f64c4d66b95d5241622bbb0ee145f8d78a93a",
      "transactionIndex": "0x65",
      "blockHash": "0x5185410cecffb66fbe172f83aa795f4870aee5dc3d78eba70311c89521a11c12",
      "blockNumber": "0x6f3af2",
      "gasUsed": "0xb69d",
      "effectiveGasPrice": "0x7a6b066f1",
      "from": "0xb7d030f7c6406446e703e73b3d1dd8611a2d87b6",
      "to": "0xa436364dafb5388f4756cd334e41948a3f8bff1d",
      "contractAddress": null
    }
  ],
  "libraries": [],
  "pending": [],
  "returns": {},
  "timestamp": 1734336786,
  "chain": 11155111,
  "commit": "9b642cd"
}