{
  "transactions": [
    {
      "hash": "0x562f61d5d2e8dafe4c40e0825a570e3421527b38b1066a0b865e5266af515cc3",
      "transactionType": "CALL",
      "contractName": null,
      "contractAddress": "0x6ac2fe2db1adf6be4fe129cfb1ee17511abf097b",
      "function": "setAddresses(string[],address[])",
      "arguments": [
        "[\"UNISWAP_ROUTER\", \"UNISWAP_QUOTER\", \"TOKEN_WETH\", \"\"]",
        "[0x94cC0AaC535CCDB3C01d6787D6413C739ae12bc4, 0xC5290058841028F1614F3A6F0F5816cAd0df5E27, 0x4200000000000000000000000000000000000006, 0x0000000000000000000000000000000000000000]"
      ],
      "transaction": {
        "from": "0xb7d030f7c6406446e703e73b3d1dd8611a2d87b6",
        "to": "0x6ac2fe2db1adf6be4fe129cfb1ee17511abf097b",
        "gas": "0x26f20",
        "value": "0x0",
        "input": "0x7d69a892000000000000000000000000000000000000000000000000000000000000004000000000000000000000000000000000000000000000000000000000000001c00000000000000000000000000000000000000000000000000000000000000004000000000000000000000000000000000000000000000000000000000000008000000000000000000000000000000000000000000000000000000000000000c000000000000000000000000000000000000000000000000000000000000001000000000000000000000000000000000000000000000000000000000000000140000000000000000000000000000000000000000000000000000000000000000e554e49535741505f524f55544552000000000000000000000000000000000000000000000000000000000000000000000000000000000000000000000000000e554e49535741505f51554f544552000000000000000000000000000000000000000000000000000000000000000000000000000000000000000000000000000a544f4b454e5f57455448000000000000000000000000000000000000000000000000000000000000000000000000000000000000000000000000000000000000000000000000000000000000000000000000000000000000000000000000000400000000000000000000000094cc0aac535ccdb3c01d6787d6413c739ae12bc4000000000000000000000000c5290058841028f1614f3a6f0f5816cad0df5e2700000000000000000000000042000000000000000000000000000000000000060000000000000000000000000000000000000000000000000000000000000000",
        "nonce": "0x1e3",
        "chainId": "0x14a34"
      },
      "additionalContracts": [],
      "isFixedGasLimit": false
    }
  ],
  "receipts": [
    {
      "status": "0x1",
      "cumulativeGasUsed": "0xc0e86",
      "logs": [
        {
          "address": "0x6ac2fe2db1adf6be4fe129cfb1ee17511abf097b",
          "topics": [
            "0xb0377b4035c2bd5b6aeb3eb7f139162c730ea47b957e4354f8a81ebb99573dec"
          ],
          "data": "0x000000000000000000000000000000000000000000000000000000000000004000000000000000000000000094cc0aac535ccdb3c01d6787d6413c739ae12bc4000000000000000000000000000000000000000000000000000000000000000e554e49535741505f524f55544552000000000000000000000000000000000000",
          "blockHash": "0xa1784e2771ad221a099945d7c4ed83c50851896be294ea71b1299e994cb5ae0b",
          "blockNumber": "0x12707d5",
          "transactionHash": "0x562f61d5d2e8dafe4c40e0825a570e3421527b38b1066a0b865e5266af515cc3",
          "transactionIndex": "0x5",
          "logIndex": "0x17",
          "removed": false
        },
        {
          "address": "0x6ac2fe2db1adf6be4fe129cfb1ee17511abf097b",
          "topics": [
            "0xb0377b4035c2bd5b6aeb3eb7f139162c730ea47b957e4354f8a81ebb99573dec"
          ],
          "data": "0x0000000000000000000000000000000000000000000000000000000000000040000000000000000000000000c5290058841028f1614f3a6f0f5816cad0df5e27000000000000000000000000000000000000000000000000000000000000000e554e49535741505f51554f544552000000000000000000000000000000000000",
          "blockHash": "0xa1784e2771ad221a099945d7c4ed83c50851896be294ea71b1299e994cb5ae0b",
          "blockNumber": "0x12707d5",
          "transactionHash": "0x562f61d5d2e8dafe4c40e0825a570e3421527b38b1066a0b865e5266af515cc3",
          "transactionIndex": "0x5",
          "logIndex": "0x18",
          "removed": false
        },
        {
          "address": "0x6ac2fe2db1adf6be4fe129cfb1ee17511abf097b",
          "topics": [
            "0xb0377b4035c2bd5b6aeb3eb7f139162c730ea47b957e4354f8a81ebb99573dec"
          ],
          "data": "0x00000000000000000000000000000000000000000000000000000000000000400000000000000000000000004200000000000000000000000000000000000006000000000000000000000000000000000000000000000000000000000000000a544f4b454e5f5745544800000000000000000000000000000000000000000000",
          "blockHash": "0xa1784e2771ad221a099945d7c4ed83c50851896be294ea71b1299e994cb5ae0b",
          "blockNumber": "0x12707d5",
          "transactionHash": "0x562f61d5d2e8dafe4c40e0825a570e3421527b38b1066a0b865e5266af515cc3",
          "transactionIndex": "0x5",
          "logIndex": "0x19",
          "removed": false
        },
        {
          "address": "0x6ac2fe2db1adf6be4fe129cfb1ee17511abf097b",
          "topics": [
            "0xb0377b4035c2bd5b6aeb3eb7f139162c730ea47b957e4354f8a81ebb99573dec"
          ],
          "data": "0x000000000000000000000000000000000000000000000000000000000000004000000000000000000000000000000000000000000000000000000000000000000000000000000000000000000000000000000000000000000000000000000000",
          "blockHash": "0xa1784e2771ad221a099945d7c4ed83c50851896be294ea71b1299e994cb5ae0b",
          "blockNumber": "0x12707d5",
          "transactionHash": "0x562f61d5d2e8dafe4c40e0825a570e3421527b38b1066a0b865e5266af515cc3",
          "transactionIndex": "0x5",
          "logIndex": "0x1a",
          "removed": false
        }
      ],
      "logsBloom": "0x00000000000000000000000000000000000000000000000000000000000000000000000000000000000000000000000000000000000000000000000000000000000000000000000000000000000000000000000000000000000000000000000000000000000000000000000000000000000000000000000000000000000000000000000000000000000000000000000000000000000000800000000000000000000000000000000000000000000000000000000000000000000000000000080000000000000000000000000000000000004000000000000000000000000000000000000000000000000000080000000001000400000000000000000000000000",
      "type": "0x2",
      "transactionHash": "0x562f61d5d2e8dafe4c40e0825a570e3421527b38b1066a0b865e5266af515cc3",
      "transactionIndex": "0x5",
      "blockHash": "0xa1784e2771ad221a099945d7c4ed83c50851896be294ea71b1299e994cb5ae0b",
      "blockNumber": "0x12707d5",
      "gasUsed": "0x1aa12",
      "effectiveGasPrice": "0x793d1",
      "from": "0xb7d030f7c6406446e703e73b3d1dd8611a2d87b6",
      "to": "0x6ac2fe2db1adf6be4fe129cfb1ee17511abf097b",
      "contractAddress": null,
      "l1BaseFeeScalar": "0x44d",
      "l1BlobBaseFee": "0x1",
      "l1BlobBaseFeeScalar": "0xa118b",
      "l1Fee": "0x43931d288a",
      "l1GasPrice": "0x1396f28b37",
      "l1GasUsed": "0xc3d"
    }
  ],
  "libraries": [],
  "pending": [],
  "returns": {},
  "timestamp": 1734438543,
  "chain": 84532,
  "commit": "6372f31"
}