{
  "transactions": [
    {
      "hash": "0xd090189b091dd8cbda77486d12135147b6e87efd717da9e898a8b13878a7c36b",
      "transactionType": "CALL",
      "contractName": null,
      "contractAddress": "0x6a9ab4532a1ad2441238125a966033e4aa859b0a",
      "function": "setAddresses(string[],address[])",
      "arguments": [
        "[\"UNISWAP_ROUTER\", \"UNISWAP_QUOTER\", \"TOKEN_WETH\", \"TOKEN_USDC\"]",
        "[0x68b3465833fb72A70ecDF485E0e4C7bD8665Fc45, 0x61fFE014bA17989E743c5F6cB21bF9697530B21e, 0x82aF49447D8a07e3bd95BD0d56f35241523fBab1, 0xaf88d065e77c8cC2239327C5EDb3A432268e5831]"
      ],
      "transaction": {
        "from": "0xf53f105e90b3e9ea928926a5a78e921d8168e213",
        "to": "0x6a9ab4532a1ad2441238125a966033e4aa859b0a",
        "gas": "0xf85c1",
        "value": "0x0",
        "input": "0x7d69a892000000000000000000000000000000000000000000000000000000000000004000000000000000000000000000000000000000000000000000000000000001e00000000000000000000000000000000000000000000000000000000000000004000000000000000000000000000000000000000000000000000000000000008000000000000000000000000000000000000000000000000000000000000000c000000000000000000000000000000000000000000000000000000000000001000000000000000000000000000000000000000000000000000000000000000140000000000000000000000000000000000000000000000000000000000000000e554e49535741505f524f55544552000000000000000000000000000000000000000000000000000000000000000000000000000000000000000000000000000e554e49535741505f51554f544552000000000000000000000000000000000000000000000000000000000000000000000000000000000000000000000000000a544f4b454e5f5745544800000000000000000000000000000000000000000000000000000000000000000000000000000000000000000000000000000000000a544f4b454e5f5553444300000000000000000000000000000000000000000000000000000000000000000000000000000000000000000000000000000000000400000000000000000000000068b3465833fb72a70ecdf485e0e4c7bd8665fc4500000000000000000000000061ffe014ba17989e743c5f6cb21bf9697530b21e00000000000000000000000082af49447d8a07e3bd95bd0d56f35241523fbab1000000000000000000000000af88d065e77c8cc2239327c5edb3a432268e5831",
        "nonce": "0x3d",
        "chainId": "0xa4b1"
      },
      "additionalContracts": [],
      "isFixedGasLimit": false
    }
  ],
  "receipts": [
    {
      "status": "0x1",
      "cumulativeGasUsed": "0xbb05f9",
      "logs": [
        {
          "address": "0x6a9ab4532a1ad2441238125a966033e4aa859b0a",
          "topics": [
            "0xb0377b4035c2bd5b6aeb3eb7f139162c730ea47b957e4354f8a81ebb99573dec"
          ],
          "data": "0x000000000000000000000000000000000000000000000000000000000000004000000000000000000000000068b3465833fb72a70ecdf485e0e4c7bd8665fc45000000000000000000000000000000000000000000000000000000000000000e554e49535741505f524f55544552000000000000000000000000000000000000",
          "blockHash": "0x909d3b3cb7f25cfa40bc8fb73f507187413a105791d4a1a2741314c8db2c8bea",
          "blockNumber": "0x1107ff4f",
          "transactionHash": "0xd090189b091dd8cbda77486d12135147b6e87efd717da9e898a8b13878a7c36b",
          "transactionIndex": "0x29",
          "logIndex": "0x37",
          "removed": false
        },
        {
          "address": "0x6a9ab4532a1ad2441238125a966033e4aa859b0a",
          "topics": [
            "0xb0377b4035c2bd5b6aeb3eb7f139162c730ea47b957e4354f8a81ebb99573dec"
          ],
          "data": "0x000000000000000000000000000000000000000000000000000000000000004000000000000000000000000061ffe014ba17989e743c5f6cb21bf9697530b21e000000000000000000000000000000000000000000000000000000000000000e554e49535741505f51554f544552000000000000000000000000000000000000",
          "blockHash": "0x909d3b3cb7f25cfa40bc8fb73f507187413a105791d4a1a2741314c8db2c8bea",
          "blockNumber": "0x1107ff4f",
          "transactionHash": "0xd090189b091dd8cbda77486d12135147b6e87efd717da9e898a8b13878a7c36b",
          "transactionIndex": "0x29",
          "logIndex": "0x38",
          "removed": false
        },
        {
          "address": "0x6a9ab4532a1ad2441238125a966033e4aa859b0a",
          "topics": [
            "0xb0377b4035c2bd5b6aeb3eb7f139162c730ea47b957e4354f8a81ebb99573dec"
          ],
          "data": "0x000000000000000000000000000000000000000000000000000000000000004000000000000000000000000082af49447d8a07e3bd95bd0d56f35241523fbab1000000000000000000000000000000000000000000000000000000000000000a544f4b454e5f5745544800000000000000000000000000000000000000000000",
          "blockHash": "0x909d3b3cb7f25cfa40bc8fb73f507187413a105791d4a1a2741314c8db2c8bea",
          "blockNumber": "0x1107ff4f",
          "transactionHash": "0xd090189b091dd8cbda77486d12135147b6e87efd717da9e898a8b13878a7c36b",
          "transactionIndex": "0x29",
          "logIndex": "0x39",
          "removed": false
        },
        {
          "address": "0x6a9ab4532a1ad2441238125a966033e4aa859b0a",
          "topics": [
            "0xb0377b4035c2bd5b6aeb3eb7f139162c730ea47b957e4354f8a81ebb99573dec"
          ],
          "data": "0x0000000000000000000000000000000000000000000000000000000000000040000000000000000000000000af88d065e77c8cc2239327c5edb3a432268e5831000000000000000000000000000000000000000000000000000000000000000a544f4b454e5f5553444300000000000000000000000000000000000000000000",
          "blockHash": "0x909d3b3cb7f25cfa40bc8fb73f507187413a105791d4a1a2741314c8db2c8bea",
          "blockNumber": "0x1107ff4f",
          "transactionHash": "0xd090189b091dd8cbda77486d12135147b6e87efd717da9e898a8b13878a7c36b",
          "transactionIndex": "0x29",
          "logIndex": "0x3a",
          "removed": false
        }
      ],
      "logsBloom": "0x00000200000000080000000000000000000000000000000000000000000000000000000000000000000000000000000000000000000000000000000000000200000000000000000000000000000000000000000000000000000000000000000000000000000000000000000000000000000000000000000000000000000000000000000000000000000000000000000000000000000000000000000000000000000000000000000000000000000000000000000000000000000000000000080000000000000000000000000000000000004000000000000000000000000000000000000000000000000000000000000000000400000000000000000000000000",
      "type": "0x2",
      "transactionHash": "0xd090189b091dd8cbda77486d12135147b6e87efd717da9e898a8b13878a7c36b",
      "transactionIndex": "0x29",
      "blockHash": "0x909d3b3cb7f25cfa40bc8fb73f507187413a105791d4a1a2741314c8db2c8bea",
      "blockNumber": "0x1107ff4f",
      "gasUsed": "0x8df0c",
      "effectiveGasPrice": "0xde03f0",
      "from": "0xf53f105e90b3e9ea928926a5a78e921d8168e213",
      "to": "0x6a9ab4532a1ad2441238125a966033e4aa859b0a",
      "contractAddress": null,
      "gasUsedForL1": "0x6e35a",
      "l1BlockNumber": "0x146e396"
    }
  ],
  "libraries": [],
  "pending": [],
  "returns": {},
  "timestamp": 1734447460,
  "chain": 42161,
  "commit": "73a901b"
}