{
  "transactions": [
    {
      "hash": null,
      "transactionType": "CALL",
      "contractName": null,
      "contractAddress": "0x2d37c6bfcb5cdd2cdb5c48c107b56a85b77d62e8",
      "function": "transferFrom(address,address,uint256)",
      "arguments": [
        "0xe335Cf211aA52f3a84257F61dde34C3BDFced560",
        "0x000000000000000000000000000000000000dEaD",
        "106"
      ],
      "transaction": {
        "from": "0xe335cf211aa52f3a84257f61dde34c3bdfced560",
        "to": "0x2d37c6bfcb5cdd2cdb5c48c107b56a85b77d62e8",
        "gas": "0xf612",
        "value": "0x0",
        "input": "0x23b872dd000000000000000000000000e335cf211aa52f3a84257f61dde34c3bdfced560000000000000000000000000000000000000000000000000000000000000dead000000000000000000000000000000000000000000000000000000000000006a",
        "nonce": "0x38a",
        "chainId": "0x2105"
      },
      "additionalContracts": [],
      "isFixedGasLimit": false
    },
    {
      "hash": null,
      "transactionType": "CALL",
      "contractName": null,
      "contractAddress": "0x2d37c6bfcb5cdd2cdb5c48c107b56a85b77d62e8",
      "function": "transferFrom(address,address,uint256)",
      "arguments": [
        "0xe335Cf211aA52f3a84257F61dde34C3BDFced560",
        "0x000000000000000000000000000000000000dEaD",
        "91"
      ],
      "transaction": {
        "from": "0xe335cf211aa52f3a84257f61dde34c3bdfced560",
        "to": "0x2d37c6bfcb5cdd2cdb5c48c107b56a85b77d62e8",
        "gas": "0xf612",
        "value": "0x0",
        "input": "0x23b872dd000000000000000000000000e335cf211aa52f3a84257f61dde34c3bdfced560000000000000000000000000000000000000000000000000000000000000dead000000000000000000000000000000000000000000000000000000000000005b",
        "nonce": "0x38b",
        "chainId": "0x2105"
      },
      "additionalContracts": [],
      "isFixedGasLimit": false
    },
    {
      "hash": null,
      "transactionType": "CALL",
      "contractName": null,
      "contractAddress": "0x2d37c6bfcb5cdd2cdb5c48c107b56a85b77d62e8",
      "function": "transferFrom(address,address,uint256)",
      "arguments": [
        "0xe335Cf211aA52f3a84257F61dde34C3BDFced560",
        "0x000000000000000000000000000000000000dEaD",
        "90"
      ],
      "transaction": {
        "from": "0xe335cf211aa52f3a84257f61dde34c3bdfced560",
        "to": "0x2d37c6bfcb5cdd2cdb5c48c107b56a85b77d62e8",
        "gas": "0xf612",
        "value": "0x0",
        "input": "0x23b872dd000000000000000000000000e335cf211aa52f3a84257f61dde34c3bdfced560000000000000000000000000000000000000000000000000000000000000dead000000000000000000000000000000000000000000000000000000000000005a",
        "nonce": "0x38c",
        "chainId": "0x2105"
      },
      "additionalContracts": [],
      "isFixedGasLimit": false
    },
    {
      "hash": null,
      "transactionType": "CALL",
      "contractName": null,
      "contractAddress": "0x2d37c6bfcb5cdd2cdb5c48c107b56a85b77d62e8",
      "function": "transferFrom(address,address,uint256)",
      "arguments": [
        "0xe335Cf211aA52f3a84257F61dde34C3BDFced560",
        "0x000000000000000000000000000000000000dEaD",
        "89"
      ],
      "transaction": {
        "from": "0xe335cf211aa52f3a84257f61dde34c3bdfced560",
        "to": "0x2d37c6bfcb5cdd2cdb5c48c107b56a85b77d62e8",
        "gas": "0xf612",
        "value": "0x0",
        "input": "0x23b872dd000000000000000000000000e335cf211aa52f3a84257f61dde34c3bdfced560000000000000000000000000000000000000000000000000000000000000dead0000000000000000000000000000000000000000000000000000000000000059",
        "nonce": "0x38d",
        "chainId": "0x2105"
      },
      "additionalContracts": [],
      "isFixedGasLimit": false
    },
    {
      "hash": null,
      "transactionType": "CALL",
      "contractName": null,
      "contractAddress": "0x2d37c6bfcb5cdd2cdb5c48c107b56a85b77d62e8",
      "function": "transferFrom(address,address,uint256)",
      "arguments": [
        "0xe335Cf211aA52f3a84257F61dde34C3BDFced560",
        "0x000000000000000000000000000000000000dEaD",
        "88"
      ],
      "transaction": {
        "from": "0xe335cf211aa52f3a84257f61dde34c3bdfced560",
        "to": "0x2d37c6bfcb5cdd2cdb5c48c107b56a85b77d62e8",
        "gas": "0xf612",
        "value": "0x0",
        "input": "0x23b872dd000000000000000000000000e335cf211aa52f3a84257f61dde34c3bdfced560000000000000000000000000000000000000000000000000000000000000dead0000000000000000000000000000000000000000000000000000000000000058",
        "nonce": "0x38e",
        "chainId": "0x2105"
      },
      "additionalContracts": [],
      "isFixedGasLimit": false
    },
    {
      "hash": null,
      "transactionType": "CALL",
      "contractName": null,
      "contractAddress": "0x2d37c6bfcb5cdd2cdb5c48c107b56a85b77d62e8",
      "function": "transferFrom(address,address,uint256)",
      "arguments": [
        "0xe335Cf211aA52f3a84257F61dde34C3BDFced560",
        "0x000000000000000000000000000000000000dEaD",
        "87"
      ],
      "transaction": {
        "from": "0xe335cf211aa52f3a84257f61dde34c3bdfced560",
        "to": "0x2d37c6bfcb5cdd2cdb5c48c107b56a85b77d62e8",
        "gas": "0xf612",
        "value": "0x0",
        "input": "0x23b872dd000000000000000000000000e335cf211aa52f3a84257f61dde34c3bdfced560000000000000000000000000000000000000000000000000000000000000dead0000000000000000000000000000000000000000000000000000000000000057",
        "nonce": "0x38f",
        "chainId": "0x2105"
      },
      "additionalContracts": [],
      "isFixedGasLimit": false
    },
    {
      "hash": null,
      "transactionType": "CALL",
      "contractName": null,
      "contractAddress": "0x2d37c6bfcb5cdd2cdb5c48c107b56a85b77d62e8",
      "function": "transferFrom(address,address,uint256)",
      "arguments": [
        "0xe335Cf211aA52f3a84257F61dde34C3BDFced560",
        "0x000000000000000000000000000000000000dEaD",
        "86"
      ],
      "transaction": {
        "from": "0xe335cf211aa52f3a84257f61dde34c3bdfced560",
        "to": "0x2d37c6bfcb5cdd2cdb5c48c107b56a85b77d62e8",
        "gas": "0xf612",
        "value": "0x0",
        "input": "0x23b872dd000000000000000000000000e335cf211aa52f3a84257f61dde34c3bdfced560000000000000000000000000000000000000000000000000000000000000dead0000000000000000000000000000000000000000000000000000000000000056",
        "nonce": "0x390",
        "chainId": "0x2105"
      },
      "additionalContracts": [],
      "isFixedGasLimit": false
    },
    {
      "hash": null,
      "transactionType": "CALL",
      "contractName": null,
      "contractAddress": "0x2d37c6bfcb5cdd2cdb5c48c107b56a85b77d62e8",
      "function": "transferFrom(address,address,uint256)",
      "arguments": [
        "0xe335Cf211aA52f3a84257F61dde34C3BDFced560",
        "0x000000000000000000000000000000000000dEaD",
        "85"
      ],
      "transaction": {
        "from": "0xe335cf211aa52f3a84257f61dde34c3bdfced560",
        "to": "0x2d37c6bfcb5cdd2cdb5c48c107b56a85b77d62e8",
        "gas": "0xf612",
        "value": "0x0",
        "input": "0x23b872dd000000000000000000000000e335cf211aa52f3a84257f61dde34c3bdfced560000000000000000000000000000000000000000000000000000000000000dead0000000000000000000000000000000000000000000000000000000000000055",
        "nonce": "0x391",
        "chainId": "0x2105"
      },
      "additionalContracts": [],
      "isFixedGasLimit": false
    },
    {
      "hash": null,
      "transactionType": "CALL",
      "contractName": null,
      "contractAddress": "0x2d37c6bfcb5cdd2cdb5c48c107b56a85b77d62e8",
      "function": "transferFrom(address,address,uint256)",
      "arguments": [
        "0xe335Cf211aA52f3a84257F61dde34C3BDFced560",
        "0x000000000000000000000000000000000000dEaD",
        "84"
      ],
      "transaction": {
        "from": "0xe335cf211aa52f3a84257f61dde34c3bdfced560",
        "to": "0x2d37c6bfcb5cdd2cdb5c48c107b56a85b77d62e8",
        "gas": "0xf612",
        "value": "0x0",
        "input": "0x23b872dd000000000000000000000000e335cf211aa52f3a84257f61dde34c3bdfced560000000000000000000000000000000000000000000000000000000000000dead0000000000000000000000000000000000000000000000000000000000000054",
        "nonce": "0x392",
        "chainId": "0x2105"
      },
      "additionalContracts": [],
      "isFixedGasLimit": false
    },
    {
      "hash": null,
      "transactionType": "CALL",
      "contractName": null,
      "contractAddress": "0x2d37c6bfcb5cdd2cdb5c48c107b56a85b77d62e8",
      "function": "transferFrom(address,address,uint256)",
      "arguments": [
        "0xe335Cf211aA52f3a84257F61dde34C3BDFced560",
        "0x000000000000000000000000000000000000dEaD",
        "83"
      ],
      "transaction": {
        "from": "0xe335cf211aa52f3a84257f61dde34c3bdfced560",
        "to": "0x2d37c6bfcb5cdd2cdb5c48c107b56a85b77d62e8",
        "gas": "0xf612",
        "value": "0x0",
        "input": "0x23b872dd000000000000000000000000e335cf211aa52f3a84257f61dde34c3bdfced560000000000000000000000000000000000000000000000000000000000000dead0000000000000000000000000000000000000000000000000000000000000053",
        "nonce": "0x393",
        "chainId": "0x2105"
      },
      "additionalContracts": [],
      "isFixedGasLimit": false
    },
    {
      "hash": null,
      "transactionType": "CALL",
      "contractName": null,
      "contractAddress": "0x2d37c6bfcb5cdd2cdb5c48c107b56a85b77d62e8",
      "function": "transferFrom(address,address,uint256)",
      "arguments": [
        "0xe335Cf211aA52f3a84257F61dde34C3BDFced560",
        "0x000000000000000000000000000000000000dEaD",
        "82"
      ],
      "transaction": {
        "from": "0xe335cf211aa52f3a84257f61dde34c3bdfced560",
        "to": "0x2d37c6bfcb5cdd2cdb5c48c107b56a85b77d62e8",
        "gas": "0xf612",
        "value": "0x0",
        "input": "0x23b872dd000000000000000000000000e335cf211aa52f3a84257f61dde34c3bdfced560000000000000000000000000000000000000000000000000000000000000dead0000000000000000000000000000000000000000000000000000000000000052",
        "nonce": "0x394",
        "chainId": "0x2105"
      },
      "additionalContracts": [],
      "isFixedGasLimit": false
    },
    {
      "hash": null,
      "transactionType": "CALL",
      "contractName": null,
      "contractAddress": "0x2d37c6bfcb5cdd2cdb5c48c107b56a85b77d62e8",
      "function": "transferFrom(address,address,uint256)",
      "arguments": [
        "0xe335Cf211aA52f3a84257F61dde34C3BDFced560",
        "0x000000000000000000000000000000000000dEaD",
        "80"
      ],
      "transaction": {
        "from": "0xe335cf211aa52f3a84257f61dde34c3bdfced560",
        "to": "0x2d37c6bfcb5cdd2cdb5c48c107b56a85b77d62e8",
        "gas": "0xf612",
        "value": "0x0",
        "input": "0x23b872dd000000000000000000000000e335cf211aa52f3a84257f61dde34c3bdfced560000000000000000000000000000000000000000000000000000000000000dead0000000000000000000000000000000000000000000000000000000000000050",
        "nonce": "0x395",
        "chainId": "0x2105"
      },
      "additionalContracts": [],
      "isFixedGasLimit": false
    },
    {
      "hash": null,
      "transactionType": "CALL",
      "contractName": null,
      "contractAddress": "0x2d37c6bfcb5cdd2cdb5c48c107b56a85b77d62e8",
      "function": "transferFrom(address,address,uint256)",
      "arguments": [
        "0xe335Cf211aA52f3a84257F61dde34C3BDFced560",
        "0x000000000000000000000000000000000000dEaD",
        "79"
      ],
      "transaction": {
        "from": "0xe335cf211aa52f3a84257f61dde34c3bdfced560",
        "to": "0x2d37c6bfcb5cdd2cdb5c48c107b56a85b77d62e8",
        "gas": "0xf612",
        "value": "0x0",
        "input": "0x23b872dd000000000000000000000000e335cf211aa52f3a84257f61dde34c3bdfced560000000000000000000000000000000000000000000000000000000000000dead000000000000000000000000000000000000000000000000000000000000004f",
        "nonce": "0x396",
        "chainId": "0x2105"
      },
      "additionalContracts": [],
      "isFixedGasLimit": false
    },
    {
      "hash": null,
      "transactionType": "CALL",
      "contractName": null,
      "contractAddress": "0x2d37c6bfcb5cdd2cdb5c48c107b56a85b77d62e8",
      "function": "transferFrom(address,address,uint256)",
      "arguments": [
        "0xe335Cf211aA52f3a84257F61dde34C3BDFced560",
        "0x000000000000000000000000000000000000dEaD",
        "78"
      ],
      "transaction": {
        "from": "0xe335cf211aa52f3a84257f61dde34c3bdfced560",
        "to": "0x2d37c6bfcb5cdd2cdb5c48c107b56a85b77d62e8",
        "gas": "0xf612",
        "value": "0x0",
        "input": "0x23b872dd000000000000000000000000e335cf211aa52f3a84257f61dde34c3bdfced560000000000000000000000000000000000000000000000000000000000000dead000000000000000000000000000000000000000000000000000000000000004e",
        "nonce": "0x397",
        "chainId": "0x2105"
      },
      "additionalContracts": [],
      "isFixedGasLimit": false
    },
    {
      "hash": null,
      "transactionType": "CALL",
      "contractName": null,
      "contractAddress": "0x2d37c6bfcb5cdd2cdb5c48c107b56a85b77d62e8",
      "function": "transferFrom(address,address,uint256)",
      "arguments": [
        "0xe335Cf211aA52f3a84257F61dde34C3BDFced560",
        "0x000000000000000000000000000000000000dEaD",
        "74"
      ],
      "transaction": {
        "from": "0xe335cf211aa52f3a84257f61dde34c3bdfced560",
        "to": "0x2d37c6bfcb5cdd2cdb5c48c107b56a85b77d62e8",
        "gas": "0xf612",
        "value": "0x0",
        "input": "0x23b872dd000000000000000000000000e335cf211aa52f3a84257f61dde34c3bdfced560000000000000000000000000000000000000000000000000000000000000dead000000000000000000000000000000000000000000000000000000000000004a",
        "nonce": "0x398",
        "chainId": "0x2105"
      },
      "additionalContracts": [],
      "isFixedGasLimit": false
    },
    {
      "hash": null,
      "transactionType": "CALL",
      "contractName": null,
      "contractAddress": "0x2d37c6bfcb5cdd2cdb5c48c107b56a85b77d62e8",
      "function": "transferFrom(address,address,uint256)",
      "arguments": [
        "0xe335Cf211aA52f3a84257F61dde34C3BDFced560",
        "0x000000000000000000000000000000000000dEaD",
        "73"
      ],
      "transaction": {
        "from": "0xe335cf211aa52f3a84257f61dde34c3bdfced560",
        "to": "0x2d37c6bfcb5cdd2cdb5c48c107b56a85b77d62e8",
        "gas": "0xf612",
        "value": "0x0",
        "input": "0x23b872dd000000000000000000000000e335cf211aa52f3a84257f61dde34c3bdfced560000000000000000000000000000000000000000000000000000000000000dead0000000000000000000000000000000000000000000000000000000000000049",
        "nonce": "0x399",
        "chainId": "0x2105"
      },
      "additionalContracts": [],
      "isFixedGasLimit": false
    },
    {
      "hash": null,
      "transactionType": "CALL",
      "contractName": null,
      "contractAddress": "0x2d37c6bfcb5cdd2cdb5c48c107b56a85b77d62e8",
      "function": "transferFrom(address,address,uint256)",
      "arguments": [
        "0xe335Cf211aA52f3a84257F61dde34C3BDFced560",
        "0x000000000000000000000000000000000000dEaD",
        "72"
      ],
      "transaction": {
        "from": "0xe335cf211aa52f3a84257f61dde34c3bdfced560",
        "to": "0x2d37c6bfcb5cdd2cdb5c48c107b56a85b77d62e8",
        "gas": "0xf612",
        "value": "0x0",
        "input": "0x23b872dd000000000000000000000000e335cf211aa52f3a84257f61dde34c3bdfced560000000000000000000000000000000000000000000000000000000000000dead0000000000000000000000000000000000000000000000000000000000000048",
        "nonce": "0x39a",
        "chainId": "0x2105"
      },
      "additionalContracts": [],
      "isFixedGasLimit": false
    },
    {
      "hash": null,
      "transactionType": "CALL",
      "contractName": null,
      "contractAddress": "0x2d37c6bfcb5cdd2cdb5c48c107b56a85b77d62e8",
      "function": "transferFrom(address,address,uint256)",
      "arguments": [
        "0xe335Cf211aA52f3a84257F61dde34C3BDFced560",
        "0x000000000000000000000000000000000000dEaD",
        "71"
      ],
      "transaction": {
        "from": "0xe335cf211aa52f3a84257f61dde34c3bdfced560",
        "to": "0x2d37c6bfcb5cdd2cdb5c48c107b56a85b77d62e8",
        "gas": "0xf612",
        "value": "0x0",
        "input": "0x23b872dd000000000000000000000000e335cf211aa52f3a84257f61dde34c3bdfced560000000000000000000000000000000000000000000000000000000000000dead0000000000000000000000000000000000000000000000000000000000000047",
        "nonce": "0x39b",
        "chainId": "0x2105"
      },
      "additionalContracts": [],
      "isFixedGasLimit": false
    },
    {
      "hash": null,
      "transactionType": "CALL",
      "contractName": null,
      "contractAddress": "0x2d37c6bfcb5cdd2cdb5c48c107b56a85b77d62e8",
      "function": "transferFrom(address,address,uint256)",
      "arguments": [
        "0xe335Cf211aA52f3a84257F61dde34C3BDFced560",
        "0x000000000000000000000000000000000000dEaD",
        "69"
      ],
      "transaction": {
        "from": "0xe335cf211aa52f3a84257f61dde34c3bdfced560",
        "to": "0x2d37c6bfcb5cdd2cdb5c48c107b56a85b77d62e8",
        "gas": "0xf612",
        "value": "0x0",
        "input": "0x23b872dd000000000000000000000000e335cf211aa52f3a84257f61dde34c3bdfced560000000000000000000000000000000000000000000000000000000000000dead0000000000000000000000000000000000000000000000000000000000000045",
        "nonce": "0x39c",
        "chainId": "0x2105"
      },
      "additionalContracts": [],
      "isFixedGasLimit": false
    },
    {
      "hash": null,
      "transactionType": "CALL",
      "contractName": null,
      "contractAddress": "0x2d37c6bfcb5cdd2cdb5c48c107b56a85b77d62e8",
      "function": "transferFrom(address,address,uint256)",
      "arguments": [
        "0xe335Cf211aA52f3a84257F61dde34C3BDFced560",
        "0x000000000000000000000000000000000000dEaD",
        "68"
      ],
      "transaction": {
        "from": "0xe335cf211aa52f3a84257f61dde34c3bdfced560",
        "to": "0x2d37c6bfcb5cdd2cdb5c48c107b56a85b77d62e8",
        "gas": "0xf612",
        "value": "0x0",
        "input": "0x23b872dd000000000000000000000000e335cf211aa52f3a84257f61dde34c3bdfced560000000000000000000000000000000000000000000000000000000000000dead0000000000000000000000000000000000000000000000000000000000000044",
        "nonce": "0x39d",
        "chainId": "0x2105"
      },
      "additionalContracts": [],
      "isFixedGasLimit": false
    },
    {
      "hash": null,
      "transactionType": "CALL",
      "contractName": null,
      "contractAddress": "0x2d37c6bfcb5cdd2cdb5c48c107b56a85b77d62e8",
      "function": "transferFrom(address,address,uint256)",
      "arguments": [
        "0xe335Cf211aA52f3a84257F61dde34C3BDFced560",
        "0x000000000000000000000000000000000000dEaD",
        "67"
      ],
      "transaction": {
        "from": "0xe335cf211aa52f3a84257f61dde34c3bdfced560",
        "to": "0x2d37c6bfcb5cdd2cdb5c48c107b56a85b77d62e8",
        "gas": "0xf612",
        "value": "0x0",
        "input": "0x23b872dd000000000000000000000000e335cf211aa52f3a84257f61dde34c3bdfced560000000000000000000000000000000000000000000000000000000000000dead0000000000000000000000000000000000000000000000000000000000000043",
        "nonce": "0x39e",
        "chainId": "0x2105"
      },
      "additionalContracts": [],
      "isFixedGasLimit": false
    },
    {
      "hash": null,
      "transactionType": "CALL",
      "contractName": null,
      "contractAddress": "0x2d37c6bfcb5cdd2cdb5c48c107b56a85b77d62e8",
      "function": "transferFrom(address,address,uint256)",
      "arguments": [
        "0xe335Cf211aA52f3a84257F61dde34C3BDFced560",
        "0x000000000000000000000000000000000000dEaD",
        "66"
      ],
      "transaction": {
        "from": "0xe335cf211aa52f3a84257f61dde34c3bdfced560",
        "to": "0x2d37c6bfcb5cdd2cdb5c48c107b56a85b77d62e8",
        "gas": "0xf612",
        "value": "0x0",
        "input": "0x23b872dd000000000000000000000000e335cf211aa52f3a84257f61dde34c3bdfced560000000000000000000000000000000000000000000000000000000000000dead0000000000000000000000000000000000000000000000000000000000000042",
        "nonce": "0x39f",
        "chainId": "0x2105"
      },
      "additionalContracts": [],
      "isFixedGasLimit": false
    },
    {
      "hash": null,
      "transactionType": "CALL",
      "contractName": null,
      "contractAddress": "0x2d37c6bfcb5cdd2cdb5c48c107b56a85b77d62e8",
      "function": "transferFrom(address,address,uint256)",
      "arguments": [
        "0xe335Cf211aA52f3a84257F61dde34C3BDFced560",
        "0x000000000000000000000000000000000000dEaD",
        "65"
      ],
      "transaction": {
        "from": "0xe335cf211aa52f3a84257f61dde34c3bdfced560",
        "to": "0x2d37c6bfcb5cdd2cdb5c48c107b56a85b77d62e8",
        "gas": "0xf612",
        "value": "0x0",
        "input": "0x23b872dd000000000000000000000000e335cf211aa52f3a84257f61dde34c3bdfced560000000000000000000000000000000000000000000000000000000000000dead0000000000000000000000000000000000000000000000000000000000000041",
        "nonce": "0x3a0",
        "chainId": "0x2105"
      },
      "additionalContracts": [],
      "isFixedGasLimit": false
    },
    {
      "hash": null,
      "transactionType": "CALL",
      "contractName": null,
      "contractAddress": "0x2d37c6bfcb5cdd2cdb5c48c107b56a85b77d62e8",
      "function": "transferFrom(address,address,uint256)",
      "arguments": [
        "0xe335Cf211aA52f3a84257F61dde34C3BDFced560",
        "0x000000000000000000000000000000000000dEaD",
        "64"
      ],
      "transaction": {
        "from": "0xe335cf211aa52f3a84257f61dde34c3bdfced560",
        "to": "0x2d37c6bfcb5cdd2cdb5c48c107b56a85b77d62e8",
        "gas": "0xf612",
        "value": "0x0",
        "input": "0x23b872dd000000000000000000000000e335cf211aa52f3a84257f61dde34c3bdfced560000000000000000000000000000000000000000000000000000000000000dead0000000000000000000000000000000000000000000000000000000000000040",
        "nonce": "0x3a1",
        "chainId": "0x2105"
      },
      "additionalContracts": [],
      "isFixedGasLimit": false
    },
    {
      "hash": null,
      "transactionType": "CALL",
      "contractName": null,
      "contractAddress": "0x2d37c6bfcb5cdd2cdb5c48c107b56a85b77d62e8",
      "function": "transferFrom(address,address,uint256)",
      "arguments": [
        "0xe335Cf211aA52f3a84257F61dde34C3BDFced560",
        "0x000000000000000000000000000000000000dEaD",
        "63"
      ],
      "transaction": {
        "from": "0xe335cf211aa52f3a84257f61dde34c3bdfced560",
        "to": "0x2d37c6bfcb5cdd2cdb5c48c107b56a85b77d62e8",
        "gas": "0xf612",
        "value": "0x0",
        "input": "0x23b872dd000000000000000000000000e335cf211aa52f3a84257f61dde34c3bdfced560000000000000000000000000000000000000000000000000000000000000dead000000000000000000000000000000000000000000000000000000000000003f",
        "nonce": "0x3a2",
        "chainId": "0x2105"
      },
      "additionalContracts": [],
      "isFixedGasLimit": false
    },
    {
      "hash": null,
      "transactionType": "CALL",
      "contractName": null,
      "contractAddress": "0x2d37c6bfcb5cdd2cdb5c48c107b56a85b77d62e8",
      "function": "transferFrom(address,address,uint256)",
      "arguments": [
        "0xe335Cf211aA52f3a84257F61dde34C3BDFced560",
        "0x000000000000000000000000000000000000dEaD",
        "62"
      ],
      "transaction": {
        "from": "0xe335cf211aa52f3a84257f61dde34c3bdfced560",
        "to": "0x2d37c6bfcb5cdd2cdb5c48c107b56a85b77d62e8",
        "gas": "0xf612",
        "value": "0x0",
        "input": "0x23b872dd000000000000000000000000e335cf211aa52f3a84257f61dde34c3bdfced560000000000000000000000000000000000000000000000000000000000000dead000000000000000000000000000000000000000000000000000000000000003e",
        "nonce": "0x3a3",
        "chainId": "0x2105"
      },
      "additionalContracts": [],
      "isFixedGasLimit": false
    },
    {
      "hash": null,
      "transactionType": "CALL",
      "contractName": null,
      "contractAddress": "0x2d37c6bfcb5cdd2cdb5c48c107b56a85b77d62e8",
      "function": "transferFrom(address,address,uint256)",
      "arguments": [
        "0xe335Cf211aA52f3a84257F61dde34C3BDFced560",
        "0x000000000000000000000000000000000000dEaD",
        "61"
      ],
      "transaction": {
        "from": "0xe335cf211aa52f3a84257f61dde34c3bdfced560",
        "to": "0x2d37c6bfcb5cdd2cdb5c48c107b56a85b77d62e8",
        "gas": "0xf612",
        "value": "0x0",
        "input": "0x23b872dd000000000000000000000000e335cf211aa52f3a84257f61dde34c3bdfced560000000000000000000000000000000000000000000000000000000000000dead000000000000000000000000000000000000000000000000000000000000003d",
        "nonce": "0x3a4",
        "chainId": "0x2105"
      },
      "additionalContracts": [],
      "isFixedGasLimit": false
    },
    {
      "hash": null,
      "transactionType": "CALL",
      "contractName": null,
      "contractAddress": "0x2d37c6bfcb5cdd2cdb5c48c107b56a85b77d62e8",
      "function": "transferFrom(address,address,uint256)",
      "arguments": [
        "0xe335Cf211aA52f3a84257F61dde34C3BDFced560",
        "0x000000000000000000000000000000000000dEaD",
        "60"
      ],
      "transaction": {
        "from": "0xe335cf211aa52f3a84257f61dde34c3bdfced560",
        "to": "0x2d37c6bfcb5cdd2cdb5c48c107b56a85b77d62e8",
        "gas": "0xf612",
        "value": "0x0",
        "input": "0x23b872dd000000000000000000000000e335cf211aa52f3a84257f61dde34c3bdfced560000000000000000000000000000000000000000000000000000000000000dead000000000000000000000000000000000000000000000000000000000000003c",
        "nonce": "0x3a5",
        "chainId": "0x2105"
      },
      "additionalContracts": [],
      "isFixedGasLimit": false
    },
    {
      "hash": null,
      "transactionType": "CALL",
      "contractName": null,
      "contractAddress": "0x2d37c6bfcb5cdd2cdb5c48c107b56a85b77d62e8",
      "function": "transferFrom(address,address,uint256)",
      "arguments": [
        "0xe335Cf211aA52f3a84257F61dde34C3BDFced560",
        "0x000000000000000000000000000000000000dEaD",
        "59"
      ],
      "transaction": {
        "from": "0xe335cf211aa52f3a84257f61dde34c3bdfced560",
        "to": "0x2d37c6bfcb5cdd2cdb5c48c107b56a85b77d62e8",
        "gas": "0xf612",
        "value": "0x0",
        "input": "0x23b872dd000000000000000000000000e335cf211aa52f3a84257f61dde34c3bdfced560000000000000000000000000000000000000000000000000000000000000dead000000000000000000000000000000000000000000000000000000000000003b",
        "nonce": "0x3a6",
        "chainId": "0x2105"
      },
      "additionalContracts": [],
      "isFixedGasLimit": false
    },
    {
      "hash": null,
      "transactionType": "CALL",
      "contractName": null,
      "contractAddress": "0x2d37c6bfcb5cdd2cdb5c48c107b56a85b77d62e8",
      "function": "transferFrom(address,address,uint256)",
      "arguments": [
        "0xe335Cf211aA52f3a84257F61dde34C3BDFced560",
        "0x000000000000000000000000000000000000dEaD",
        "58"
      ],
      "transaction": {
        "from": "0xe335cf211aa52f3a84257f61dde34c3bdfced560",
        "to": "0x2d37c6bfcb5cdd2cdb5c48c107b56a85b77d62e8",
        "gas": "0xf612",
        "value": "0x0",
        "input": "0x23b872dd000000000000000000000000e335cf211aa52f3a84257f61dde34c3bdfced560000000000000000000000000000000000000000000000000000000000000dead000000000000000000000000000000000000000000000000000000000000003a",
        "nonce": "0x3a7",
        "chainId": "0x2105"
      },
      "additionalContracts": [],
      "isFixedGasLimit": false
    },
    {
      "hash": null,
      "transactionType": "CALL",
      "contractName": null,
      "contractAddress": "0x2d37c6bfcb5cdd2cdb5c48c107b56a85b77d62e8",
      "function": "transferFrom(address,address,uint256)",
      "arguments": [
        "0xe335Cf211aA52f3a84257F61dde34C3BDFced560",
        "0x000000000000000000000000000000000000dEaD",
        "57"
      ],
      "transaction": {
        "from": "0xe335cf211aa52f3a84257f61dde34c3bdfced560",
        "to": "0x2d37c6bfcb5cdd2cdb5c48c107b56a85b77d62e8",
        "gas": "0xf612",
        "value": "0x0",
        "input": "0x23b872dd000000000000000000000000e335cf211aa52f3a84257f61dde34c3bdfced560000000000000000000000000000000000000000000000000000000000000dead0000000000000000000000000000000000000000000000000000000000000039",
        "nonce": "0x3a8",
        "chainId": "0x2105"
      },
      "additionalContracts": [],
      "isFixedGasLimit": false
    },
    {
      "hash": null,
      "transactionType": "CALL",
      "contractName": null,
      "contractAddress": "0x2d37c6bfcb5cdd2cdb5c48c107b56a85b77d62e8",
      "function": "transferFrom(address,address,uint256)",
      "arguments": [
        "0xe335Cf211aA52f3a84257F61dde34C3BDFced560",
        "0x000000000000000000000000000000000000dEaD",
        "55"
      ],
      "transaction": {
        "from": "0xe335cf211aa52f3a84257f61dde34c3bdfced560",
        "to": "0x2d37c6bfcb5cdd2cdb5c48c107b56a85b77d62e8",
        "gas": "0xf612",
        "value": "0x0",
        "input": "0x23b872dd000000000000000000000000e335cf211aa52f3a84257f61dde34c3bdfced560000000000000000000000000000000000000000000000000000000000000dead0000000000000000000000000000000000000000000000000000000000000037",
        "nonce": "0x3a9",
        "chainId": "0x2105"
      },
      "additionalContracts": [],
      "isFixedGasLimit": false
    },
    {
      "hash": null,
      "transactionType": "CALL",
      "contractName": null,
      "contractAddress": "0x2d37c6bfcb5cdd2cdb5c48c107b56a85b77d62e8",
      "function": "transferFrom(address,address,uint256)",
      "arguments": [
        "0xe335Cf211aA52f3a84257F61dde34C3BDFced560",
        "0x000000000000000000000000000000000000dEaD",
        "54"
      ],
      "transaction": {
        "from": "0xe335cf211aa52f3a84257f61dde34c3bdfced560",
        "to": "0x2d37c6bfcb5cdd2cdb5c48c107b56a85b77d62e8",
        "gas": "0xf612",
        "value": "0x0",
        "input": "0x23b872dd000000000000000000000000e335cf211aa52f3a84257f61dde34c3bdfced560000000000000000000000000000000000000000000000000000000000000dead0000000000000000000000000000000000000000000000000000000000000036",
        "nonce": "0x3aa",
        "chainId": "0x2105"
      },
      "additionalContracts": [],
      "isFixedGasLimit": false
    },
    {
      "hash": null,
      "transactionType": "CALL",
      "contractName": null,
      "contractAddress": "0x2d37c6bfcb5cdd2cdb5c48c107b56a85b77d62e8",
      "function": "transferFrom(address,address,uint256)",
      "arguments": [
        "0xe335Cf211aA52f3a84257F61dde34C3BDFced560",
        "0x000000000000000000000000000000000000dEaD",
        "53"
      ],
      "transaction": {
        "from": "0xe335cf211aa52f3a84257f61dde34c3bdfced560",
        "to": "0x2d37c6bfcb5cdd2cdb5c48c107b56a85b77d62e8",
        "gas": "0xf612",
        "value": "0x0",
        "input": "0x23b872dd000000000000000000000000e335cf211aa52f3a84257f61dde34c3bdfced560000000000000000000000000000000000000000000000000000000000000dead0000000000000000000000000000000000000000000000000000000000000035",
        "nonce": "0x3ab",
        "chainId": "0x2105"
      },
      "additionalContracts": [],
      "isFixedGasLimit": false
    },
    {
      "hash": null,
      "transactionType": "CALL",
      "contractName": null,
      "contractAddress": "0x2d37c6bfcb5cdd2cdb5c48c107b56a85b77d62e8",
      "function": "transferFrom(address,address,uint256)",
      "arguments": [
        "0xe335Cf211aA52f3a84257F61dde34C3BDFced560",
        "0x000000000000000000000000000000000000dEaD",
        "52"
      ],
      "transaction": {
        "from": "0xe335cf211aa52f3a84257f61dde34c3bdfced560",
        "to": "0x2d37c6bfcb5cdd2cdb5c48c107b56a85b77d62e8",
        "gas": "0xf612",
        "value": "0x0",
        "input": "0x23b872dd000000000000000000000000e335cf211aa52f3a84257f61dde34c3bdfced560000000000000000000000000000000000000000000000000000000000000dead0000000000000000000000000000000000000000000000000000000000000034",
        "nonce": "0x3ac",
        "chainId": "0x2105"
      },
      "additionalContracts": [],
      "isFixedGasLimit": false
    },
    {
      "hash": null,
      "transactionType": "CALL",
      "contractName": null,
      "contractAddress": "0x2d37c6bfcb5cdd2cdb5c48c107b56a85b77d62e8",
      "function": "transferFrom(address,address,uint256)",
      "arguments": [
        "0xe335Cf211aA52f3a84257F61dde34C3BDFced560",
        "0x000000000000000000000000000000000000dEaD",
        "51"
      ],
      "transaction": {
        "from": "0xe335cf211aa52f3a84257f61dde34c3bdfced560",
        "to": "0x2d37c6bfcb5cdd2cdb5c48c107b56a85b77d62e8",
        "gas": "0xf612",
        "value": "0x0",
        "input": "0x23b872dd000000000000000000000000e335cf211aa52f3a84257f61dde34c3bdfced560000000000000000000000000000000000000000000000000000000000000dead0000000000000000000000000000000000000000000000000000000000000033",
        "nonce": "0x3ad",
        "chainId": "0x2105"
      },
      "additionalContracts": [],
      "isFixedGasLimit": false
    },
    {
      "hash": null,
      "transactionType": "CALL",
      "contractName": null,
      "contractAddress": "0x2d37c6bfcb5cdd2cdb5c48c107b56a85b77d62e8",
      "function": "transferFrom(address,address,uint256)",
      "arguments": [
        "0xe335Cf211aA52f3a84257F61dde34C3BDFced560",
        "0x000000000000000000000000000000000000dEaD",
        "43"
      ],
      "transaction": {
        "from": "0xe335cf211aa52f3a84257f61dde34c3bdfced560",
        "to": "0x2d37c6bfcb5cdd2cdb5c48c107b56a85b77d62e8",
        "gas": "0xf612",
        "value": "0x0",
        "input": "0x23b872dd000000000000000000000000e335cf211aa52f3a84257f61dde34c3bdfced560000000000000000000000000000000000000000000000000000000000000dead000000000000000000000000000000000000000000000000000000000000002b",
        "nonce": "0x3ae",
        "chainId": "0x2105"
      },
      "additionalContracts": [],
      "isFixedGasLimit": false
    },
    {
      "hash": null,
      "transactionType": "CALL",
      "contractName": null,
      "contractAddress": "0x2d37c6bfcb5cdd2cdb5c48c107b56a85b77d62e8",
      "function": "transferFrom(address,address,uint256)",
      "arguments": [
        "0xe335Cf211aA52f3a84257F61dde34C3BDFced560",
        "0x000000000000000000000000000000000000dEaD",
        "40"
      ],
      "transaction": {
        "from": "0xe335cf211aa52f3a84257f61dde34c3bdfced560",
        "to": "0x2d37c6bfcb5cdd2cdb5c48c107b56a85b77d62e8",
        "gas": "0xf612",
        "value": "0x0",
        "input": "0x23b872dd000000000000000000000000e335cf211aa52f3a84257f61dde34c3bdfced560000000000000000000000000000000000000000000000000000000000000dead0000000000000000000000000000000000000000000000000000000000000028",
        "nonce": "0x3af",
        "chainId": "0x2105"
      },
      "additionalContracts": [],
      "isFixedGasLimit": false
    },
    {
      "hash": null,
      "transactionType": "CALL",
      "contractName": null,
      "contractAddress": "0x2d37c6bfcb5cdd2cdb5c48c107b56a85b77d62e8",
      "function": "transferFrom(address,address,uint256)",
      "arguments": [
        "0xe335Cf211aA52f3a84257F61dde34C3BDFced560",
        "0x000000000000000000000000000000000000dEaD",
        "38"
      ],
      "transaction": {
        "from": "0xe335cf211aa52f3a84257f61dde34c3bdfced560",
        "to": "0x2d37c6bfcb5cdd2cdb5c48c107b56a85b77d62e8",
        "gas": "0xf612",
        "value": "0x0",
        "input": "0x23b872dd000000000000000000000000e335cf211aa52f3a84257f61dde34c3bdfced560000000000000000000000000000000000000000000000000000000000000dead0000000000000000000000000000000000000000000000000000000000000026",
        "nonce": "0x3b0",
        "chainId": "0x2105"
      },
      "additionalContracts": [],
      "isFixedGasLimit": false
    },
    {
      "hash": null,
      "transactionType": "CALL",
      "contractName": null,
      "contractAddress": "0x2d37c6bfcb5cdd2cdb5c48c107b56a85b77d62e8",
      "function": "transferFrom(address,address,uint256)",
      "arguments": [
        "0xe335Cf211aA52f3a84257F61dde34C3BDFced560",
        "0x000000000000000000000000000000000000dEaD",
        "36"
      ],
      "transaction": {
        "from": "0xe335cf211aa52f3a84257f61dde34c3bdfced560",
        "to": "0x2d37c6bfcb5cdd2cdb5c48c107b56a85b77d62e8",
        "gas": "0xdaa6",
        "value": "0x0",
        "input": "0x23b872dd000000000000000000000000e335cf211aa52f3a84257f61dde34c3bdfced560000000000000000000000000000000000000000000000000000000000000dead0000000000000000000000000000000000000000000000000000000000000024",
        "nonce": "0x3b1",
        "chainId": "0x2105"
      },
      "additionalContracts": [],
      "isFixedGasLimit": false
    }
  ],
  "receipts": [],
  "libraries": [],
  "pending": [],
  "returns": {},
  "timestamp": 1726115767,
  "chain": 8453,
  "commit": "534ac96"
}