{
  "transactions": [
    {
      "hash": "0x6960435fae3315bdf9d513b51853f06d0d43b4bfbc6068557f1f6b75172f2d10",
      "transactionType": "CALL",
      "contractName": null,
      "contractAddress": "0x2d37c6bfcb5cdd2cdb5c48c107b56a85b77d62e8",
      "function": "transferFrom(address,address,uint256)",
      "arguments": [
        "0xe335Cf211aA52f3a84257F61dde34C3BDFced560",
        "0x000000000000000000000000000000000000dEaD",
        "106"
      ],
      "transaction": {
        "from": "0xe335cf211aa52f3a84257f61dde34c3bdfced560",
        "to": "0x2d37c6bfcb5cdd2cdb5c48c107b56a85b77d62e8",
        "gas": "0xf612",
        "value": "0x0",
        "input": "0x23b872dd000000000000000000000000e335cf211aa52f3a84257f61dde34c3bdfced560000000000000000000000000000000000000000000000000000000000000dead000000000000000000000000000000000000000000000000000000000000006a",
        "nonce": "0x38a",
        "chainId": "0x2105"
      },
      "additionalContracts": [],
      "isFixedGasLimit": false
    },
    {
      "hash": "0xc008d577c5f3c95061a46df1d0def14ca045b002282df27dea5b715f4dfc213e",
      "transactionType": "CALL",
      "contractName": null,
      "contractAddress": "0x2d37c6bfcb5cdd2cdb5c48c107b56a85b77d62e8",
      "function": "transferFrom(address,address,uint256)",
      "arguments": [
        "0xe335Cf211aA52f3a84257F61dde34C3BDFced560",
        "0x000000000000000000000000000000000000dEaD",
        "91"
      ],
      "transaction": {
        "from": "0xe335cf211aa52f3a84257f61dde34c3bdfced560",
        "to": "0x2d37c6bfcb5cdd2cdb5c48c107b56a85b77d62e8",
        "gas": "0xf612",
        "value": "0x0",
        "input": "0x23b872dd000000000000000000000000e335cf211aa52f3a84257f61dde34c3bdfced560000000000000000000000000000000000000000000000000000000000000dead000000000000000000000000000000000000000000000000000000000000005b",
        "nonce": "0x38b",
        "chainId": "0x2105"
      },
      "additionalContracts": [],
      "isFixedGasLimit": false
    },
    {
      "hash": "0x59c52d346fe9aead5421049326e2a89e9619d77a6be0a1ff745bad70cd66b5b9",
      "transactionType": "CALL",
      "contractName": null,
      "contractAddress": "0x2d37c6bfcb5cdd2cdb5c48c107b56a85b77d62e8",
      "function": "transferFrom(address,address,uint256)",
      "arguments": [
        "0xe335Cf211aA52f3a84257F61dde34C3BDFced560",
        "0x000000000000000000000000000000000000dEaD",
        "90"
      ],
      "transaction": {
        "from": "0xe335cf211aa52f3a84257f61dde34c3bdfced560",
        "to": "0x2d37c6bfcb5cdd2cdb5c48c107b56a85b77d62e8",
        "gas": "0xf612",
        "value": "0x0",
        "input": "0x23b872dd000000000000000000000000e335cf211aa52f3a84257f61dde34c3bdfced560000000000000000000000000000000000000000000000000000000000000dead000000000000000000000000000000000000000000000000000000000000005a",
        "nonce": "0x38c",
        "chainId": "0x2105"
      },
      "additionalContracts": [],
      "isFixedGasLimit": false
    },
    {
      "hash": "0xf214e75b580364a843e5dc7db378e5ca8fe2f9c7c4b569c10d3acc462e0a12d6",
      "transactionType": "CALL",
      "contractName": null,
      "contractAddress": "0x2d37c6bfcb5cdd2cdb5c48c107b56a85b77d62e8",
      "function": "transferFrom(address,address,uint256)",
      "arguments": [
        "0xe335Cf211aA52f3a84257F61dde34C3BDFced560",
        "0x000000000000000000000000000000000000dEaD",
        "89"
      ],
      "transaction": {
        "from": "0xe335cf211aa52f3a84257f61dde34c3bdfced560",
        "to": "0x2d37c6bfcb5cdd2cdb5c48c107b56a85b77d62e8",
        "gas": "0xf612",
        "value": "0x0",
        "input": "0x23b872dd000000000000000000000000e335cf211aa52f3a84257f61dde34c3bdfced560000000000000000000000000000000000000000000000000000000000000dead0000000000000000000000000000000000000000000000000000000000000059",
        "nonce": "0x38d",
        "chainId": "0x2105"
      },
      "additionalContracts": [],
      "isFixedGasLimit": false
    },
    {
      "hash": "0xf6690c0515fa2666071183b735905167527804b75dd65bb950f59a944378880c",
      "transactionType": "CALL",
      "contractName": null,
      "contractAddress": "0x2d37c6bfcb5cdd2cdb5c48c107b56a85b77d62e8",
      "function": "transferFrom(address,address,uint256)",
      "arguments": [
        "0xe335Cf211aA52f3a84257F61dde34C3BDFced560",
        "0x000000000000000000000000000000000000dEaD",
        "88"
      ],
      "transaction": {
        "from": "0xe335cf211aa52f3a84257f61dde34c3bdfced560",
        "to": "0x2d37c6bfcb5cdd2cdb5c48c107b56a85b77d62e8",
        "gas": "0xf612",
        "value": "0x0",
        "input": "0x23b872dd000000000000000000000000e335cf211aa52f3a84257f61dde34c3bdfced560000000000000000000000000000000000000000000000000000000000000dead0000000000000000000000000000000000000000000000000000000000000058",
        "nonce": "0x38e",
        "chainId": "0x2105"
      },
      "additionalContracts": [],
      "isFixedGasLimit": false
    },
    {
      "hash": "0xb27eb924334dd6de8eb228b7ac5acbd28bf56b9f5446bb30f1c444efb45bca22",
      "transactionType": "CALL",
      "contractName": null,
      "contractAddress": "0x2d37c6bfcb5cdd2cdb5c48c107b56a85b77d62e8",
      "function": "transferFrom(address,address,uint256)",
      "arguments": [
        "0xe335Cf211aA52f3a84257F61dde34C3BDFced560",
        "0x000000000000000000000000000000000000dEaD",
        "87"
      ],
      "transaction": {
        "from": "0xe335cf211aa52f3a84257f61dde34c3bdfced560",
        "to": "0x2d37c6bfcb5cdd2cdb5c48c107b56a85b77d62e8",
        "gas": "0xf612",
        "value": "0x0",
        "input": "0x23b872dd000000000000000000000000e335cf211aa52f3a84257f61dde34c3bdfced560000000000000000000000000000000000000000000000000000000000000dead0000000000000000000000000000000000000000000000000000000000000057",
        "nonce": "0x38f",
        "chainId": "0x2105"
      },
      "additionalContracts": [],
      "isFixedGasLimit": false
    },
    {
      "hash": "0xa61d4933eef354f308cae90c05ea42a8c143d14d795116a81861abf47e7d15a3",
      "transactionType": "CALL",
      "contractName": null,
      "contractAddress": "0x2d37c6bfcb5cdd2cdb5c48c107b56a85b77d62e8",
      "function": "transferFrom(address,address,uint256)",
      "arguments": [
        "0xe335Cf211aA52f3a84257F61dde34C3BDFced560",
        "0x000000000000000000000000000000000000dEaD",
        "86"
      ],
      "transaction": {
        "from": "0xe335cf211aa52f3a84257f61dde34c3bdfced560",
        "to": "0x2d37c6bfcb5cdd2cdb5c48c107b56a85b77d62e8",
        "gas": "0xf612",
        "value": "0x0",
        "input": "0x23b872dd000000000000000000000000e335cf211aa52f3a84257f61dde34c3bdfced560000000000000000000000000000000000000000000000000000000000000dead0000000000000000000000000000000000000000000000000000000000000056",
        "nonce": "0x390",
        "chainId": "0x2105"
      },
      "additionalContracts": [],
      "isFixedGasLimit": false
    },
    {
      "hash": "0xe36c20e1719760faee255a7364d1b178ffa340940e9d93537babff5a7af2fd49",
      "transactionType": "CALL",
      "contractName": null,
      "contractAddress": "0x2d37c6bfcb5cdd2cdb5c48c107b56a85b77d62e8",
      "function": "transferFrom(address,address,uint256)",
      "arguments": [
        "0xe335Cf211aA52f3a84257F61dde34C3BDFced560",
        "0x000000000000000000000000000000000000dEaD",
        "85"
      ],
      "transaction": {
        "from": "0xe335cf211aa52f3a84257f61dde34c3bdfced560",
        "to": "0x2d37c6bfcb5cdd2cdb5c48c107b56a85b77d62e8",
        "gas": "0xf612",
        "value": "0x0",
        "input": "0x23b872dd000000000000000000000000e335cf211aa52f3a84257f61dde34c3bdfced560000000000000000000000000000000000000000000000000000000000000dead0000000000000000000000000000000000000000000000000000000000000055",
        "nonce": "0x391",
        "chainId": "0x2105"
      },
      "additionalContracts": [],
      "isFixedGasLimit": false
    },
    {
      "hash": "0x5cfca3b9bb37b4107d2129be867e8a4e659b3dcde79c6ee965b4054688dbfeef",
      "transactionType": "CALL",
      "contractName": null,
      "contractAddress": "0x2d37c6bfcb5cdd2cdb5c48c107b56a85b77d62e8",
      "function": "transferFrom(address,address,uint256)",
      "arguments": [
        "0xe335Cf211aA52f3a84257F61dde34C3BDFced560",
        "0x000000000000000000000000000000000000dEaD",
        "84"
      ],
      "transaction": {
        "from": "0xe335cf211aa52f3a84257f61dde34c3bdfced560",
        "to": "0x2d37c6bfcb5cdd2cdb5c48c107b56a85b77d62e8",
        "gas": "0xf612",
        "value": "0x0",
        "input": "0x23b872dd000000000000000000000000e335cf211aa52f3a84257f61dde34c3bdfced560000000000000000000000000000000000000000000000000000000000000dead0000000000000000000000000000000000000000000000000000000000000054",
        "nonce": "0x392",
        "chainId": "0x2105"
      },
      "additionalContracts": [],
      "isFixedGasLimit": false
    },
    {
      "hash": "0xc022e7d5b5ecd42d5dde0788f304bb76544c7eb807d6a41704b4717d99b654d5",
      "transactionType": "CALL",
      "contractName": null,
      "contractAddress": "0x2d37c6bfcb5cdd2cdb5c48c107b56a85b77d62e8",
      "function": "transferFrom(address,address,uint256)",
      "arguments": [
        "0xe335Cf211aA52f3a84257F61dde34C3BDFced560",
        "0x000000000000000000000000000000000000dEaD",
        "83"
      ],
      "transaction": {
        "from": "0xe335cf211aa52f3a84257f61dde34c3bdfced560",
        "to": "0x2d37c6bfcb5cdd2cdb5c48c107b56a85b77d62e8",
        "gas": "0xf612",
        "value": "0x0",
        "input": "0x23b872dd000000000000000000000000e335cf211aa52f3a84257f61dde34c3bdfced560000000000000000000000000000000000000000000000000000000000000dead0000000000000000000000000000000000000000000000000000000000000053",
        "nonce": "0x393",
        "chainId": "0x2105"
      },
      "additionalContracts": [],
      "isFixedGasLimit": false
    },
    {
      "hash": "0xd7131030f9377edcb528d0447f7c7881843a891db9a3538feb81f29e22f96406",
      "transactionType": "CALL",
      "contractName": null,
      "contractAddress": "0x2d37c6bfcb5cdd2cdb5c48c107b56a85b77d62e8",
      "function": "transferFrom(address,address,uint256)",
      "arguments": [
        "0xe335Cf211aA52f3a84257F61dde34C3BDFced560",
        "0x000000000000000000000000000000000000dEaD",
        "82"
      ],
      "transaction": {
        "from": "0xe335cf211aa52f3a84257f61dde34c3bdfced560",
        "to": "0x2d37c6bfcb5cdd2cdb5c48c107b56a85b77d62e8",
        "gas": "0xf612",
        "value": "0x0",
        "input": "0x23b872dd000000000000000000000000e335cf211aa52f3a84257f61dde34c3bdfced560000000000000000000000000000000000000000000000000000000000000dead0000000000000000000000000000000000000000000000000000000000000052",
        "nonce": "0x394",
        "chainId": "0x2105"
      },
      "additionalContracts": [],
      "isFixedGasLimit": false
    },
    {
      "hash": "0xbc6a5bcc65fc9f646a1974fa0267664762702207d841edc5f825b04d2683794e",
      "transactionType": "CALL",
      "contractName": null,
      "contractAddress": "0x2d37c6bfcb5cdd2cdb5c48c107b56a85b77d62e8",
      "function": "transferFrom(address,address,uint256)",
      "arguments": [
        "0xe335Cf211aA52f3a84257F61dde34C3BDFced560",
        "0x000000000000000000000000000000000000dEaD",
        "80"
      ],
      "transaction": {
        "from": "0xe335cf211aa52f3a84257f61dde34c3bdfced560",
        "to": "0x2d37c6bfcb5cdd2cdb5c48c107b56a85b77d62e8",
        "gas": "0xf612",
        "value": "0x0",
        "input": "0x23b872dd000000000000000000000000e335cf211aa52f3a84257f61dde34c3bdfced560000000000000000000000000000000000000000000000000000000000000dead0000000000000000000000000000000000000000000000000000000000000050",
        "nonce": "0x395",
        "chainId": "0x2105"
      },
      "additionalContracts": [],
      "isFixedGasLimit": false
    },
    {
      "hash": "0x0d7a48317016f5200479a5c9eab03b9a595fbca53c06520dc31dbc15f7c0860c",
      "transactionType": "CALL",
      "contractName": null,
      "contractAddress": "0x2d37c6bfcb5cdd2cdb5c48c107b56a85b77d62e8",
      "function": "transferFrom(address,address,uint256)",
      "arguments": [
        "0xe335Cf211aA52f3a84257F61dde34C3BDFced560",
        "0x000000000000000000000000000000000000dEaD",
        "79"
      ],
      "transaction": {
        "from": "0xe335cf211aa52f3a84257f61dde34c3bdfced560",
        "to": "0x2d37c6bfcb5cdd2cdb5c48c107b56a85b77d62e8",
        "gas": "0xf612",
        "value": "0x0",
        "input": "0x23b872dd000000000000000000000000e335cf211aa52f3a84257f61dde34c3bdfced560000000000000000000000000000000000000000000000000000000000000dead000000000000000000000000000000000000000000000000000000000000004f",
        "nonce": "0x396",
        "chainId": "0x2105"
      },
      "additionalContracts": [],
      "isFixedGasLimit": false
    },
    {
      "hash": "0x4c6f5910ffc6bd45612846d76891bd455a6d63cffb815502d2ecfad7cca7f311",
      "transactionType": "CALL",
      "contractName": null,
      "contractAddress": "0x2d37c6bfcb5cdd2cdb5c48c107b56a85b77d62e8",
      "function": "transferFrom(address,address,uint256)",
      "arguments": [
        "0xe335Cf211aA52f3a84257F61dde34C3BDFced560",
        "0x000000000000000000000000000000000000dEaD",
        "78"
      ],
      "transaction": {
        "from": "0xe335cf211aa52f3a84257f61dde34c3bdfced560",
        "to": "0x2d37c6bfcb5cdd2cdb5c48c107b56a85b77d62e8",
        "gas": "0xf612",
        "value": "0x0",
        "input": "0x23b872dd000000000000000000000000e335cf211aa52f3a84257f61dde34c3bdfced560000000000000000000000000000000000000000000000000000000000000dead000000000000000000000000000000000000000000000000000000000000004e",
        "nonce": "0x397",
        "chainId": "0x2105"
      },
      "additionalContracts": [],
      "isFixedGasLimit": false
    },
    {
      "hash": "0xe124c21509370d8216ee452b1f80e37d2de7f62648aac771babdb9e6b457eb85",
      "transactionType": "CALL",
      "contractName": null,
      "contractAddress": "0x2d37c6bfcb5cdd2cdb5c48c107b56a85b77d62e8",
      "function": "transferFrom(address,address,uint256)",
      "arguments": [
        "0xe335Cf211aA52f3a84257F61dde34C3BDFced560",
        "0x000000000000000000000000000000000000dEaD",
        "74"
      ],
      "transaction": {
        "from": "0xe335cf211aa52f3a84257f61dde34c3bdfced560",
        "to": "0x2d37c6bfcb5cdd2cdb5c48c107b56a85b77d62e8",
        "gas": "0xf612",
        "value": "0x0",
        "input": "0x23b872dd000000000000000000000000e335cf211aa52f3a84257f61dde34c3bdfced560000000000000000000000000000000000000000000000000000000000000dead000000000000000000000000000000000000000000000000000000000000004a",
        "nonce": "0x398",
        "chainId": "0x2105"
      },
      "additionalContracts": [],
      "isFixedGasLimit": false
    },
    {
      "hash": "0x27d014bb1c133750edaf8839d4a566cad5e336f08525872755f42bb7b64dff68",
      "transactionType": "CALL",
      "contractName": null,
      "contractAddress": "0x2d37c6bfcb5cdd2cdb5c48c107b56a85b77d62e8",
      "function": "transferFrom(address,address,uint256)",
      "arguments": [
        "0xe335Cf211aA52f3a84257F61dde34C3BDFced560",
        "0x000000000000000000000000000000000000dEaD",
        "73"
      ],
      "transaction": {
        "from": "0xe335cf211aa52f3a84257f61dde34c3bdfced560",
        "to": "0x2d37c6bfcb5cdd2cdb5c48c107b56a85b77d62e8",
        "gas": "0xf612",
        "value": "0x0",
        "input": "0x23b872dd000000000000000000000000e335cf211aa52f3a84257f61dde34c3bdfced560000000000000000000000000000000000000000000000000000000000000dead0000000000000000000000000000000000000000000000000000000000000049",
        "nonce": "0x399",
        "chainId": "0x2105"
      },
      "additionalContracts": [],
      "isFixedGasLimit": false
    },
    {
      "hash": "0xfeeee83e82f7a28bae87ef47e15609f1402de138a2c4192bb214c64f24ce8db9",
      "transactionType": "CALL",
      "contractName": null,
      "contractAddress": "0x2d37c6bfcb5cdd2cdb5c48c107b56a85b77d62e8",
      "function": "transferFrom(address,address,uint256)",
      "arguments": [
        "0xe335Cf211aA52f3a84257F61dde34C3BDFced560",
        "0x000000000000000000000000000000000000dEaD",
        "72"
      ],
      "transaction": {
        "from": "0xe335cf211aa52f3a84257f61dde34c3bdfced560",
        "to": "0x2d37c6bfcb5cdd2cdb5c48c107b56a85b77d62e8",
        "gas": "0xf612",
        "value": "0x0",
        "input": "0x23b872dd000000000000000000000000e335cf211aa52f3a84257f61dde34c3bdfced560000000000000000000000000000000000000000000000000000000000000dead0000000000000000000000000000000000000000000000000000000000000048",
        "nonce": "0x39a",
        "chainId": "0x2105"
      },
      "additionalContracts": [],
      "isFixedGasLimit": false
    },
    {
      "hash": "0x699d5c6f807560fb0101cfaf6f657ff9e388f9c7c44b170e90517e762188d5f6",
      "transactionType": "CALL",
      "contractName": null,
      "contractAddress": "0x2d37c6bfcb5cdd2cdb5c48c107b56a85b77d62e8",
      "function": "transferFrom(address,address,uint256)",
      "arguments": [
        "0xe335Cf211aA52f3a84257F61dde34C3BDFced560",
        "0x000000000000000000000000000000000000dEaD",
        "71"
      ],
      "transaction": {
        "from": "0xe335cf211aa52f3a84257f61dde34c3bdfced560",
        "to": "0x2d37c6bfcb5cdd2cdb5c48c107b56a85b77d62e8",
        "gas": "0xf612",
        "value": "0x0",
        "input": "0x23b872dd000000000000000000000000e335cf211aa52f3a84257f61dde34c3bdfced560000000000000000000000000000000000000000000000000000000000000dead0000000000000000000000000000000000000000000000000000000000000047",
        "nonce": "0x39b",
        "chainId": "0x2105"
      },
      "additionalContracts": [],
      "isFixedGasLimit": false
    },
    {
      "hash": "0x1f8f0ae0b7c403afeed54b4cb9a60f67afe4eef35ddcaaaa70f93f0d5f8415d9",
      "transactionType": "CALL",
      "contractName": null,
      "contractAddress": "0x2d37c6bfcb5cdd2cdb5c48c107b56a85b77d62e8",
      "function": "transferFrom(address,address,uint256)",
      "arguments": [
        "0xe335Cf211aA52f3a84257F61dde34C3BDFced560",
        "0x000000000000000000000000000000000000dEaD",
        "69"
      ],
      "transaction": {
        "from": "0xe335cf211aa52f3a84257f61dde34c3bdfced560",
        "to": "0x2d37c6bfcb5cdd2cdb5c48c107b56a85b77d62e8",
        "gas": "0xf612",
        "value": "0x0",
        "input": "0x23b872dd000000000000000000000000e335cf211aa52f3a84257f61dde34c3bdfced560000000000000000000000000000000000000000000000000000000000000dead0000000000000000000000000000000000000000000000000000000000000045",
        "nonce": "0x39c",
        "chainId": "0x2105"
      },
      "additionalContracts": [],
      "isFixedGasLimit": false
    },
    {
      "hash": "0x90b924836d253a1529db43524783d4e2a29d0ac79fc294cd5313106ab65a7082",
      "transactionType": "CALL",
      "contractName": null,
      "contractAddress": "0x2d37c6bfcb5cdd2cdb5c48c107b56a85b77d62e8",
      "function": "transferFrom(address,address,uint256)",
      "arguments": [
        "0xe335Cf211aA52f3a84257F61dde34C3BDFced560",
        "0x000000000000000000000000000000000000dEaD",
        "68"
      ],
      "transaction": {
        "from": "0xe335cf211aa52f3a84257f61dde34c3bdfced560",
        "to": "0x2d37c6bfcb5cdd2cdb5c48c107b56a85b77d62e8",
        "gas": "0xf612",
        "value": "0x0",
        "input": "0x23b872dd000000000000000000000000e335cf211aa52f3a84257f61dde34c3bdfced560000000000000000000000000000000000000000000000000000000000000dead0000000000000000000000000000000000000000000000000000000000000044",
        "nonce": "0x39d",
        "chainId": "0x2105"
      },
      "additionalContracts": [],
      "isFixedGasLimit": false
    },
    {
      "hash": "0x9a98e3f0908af1907830dcf751be5804081070456a7ddc75d1bbc8d7f9ad154b",
      "transactionType": "CALL",
      "contractName": null,
      "contractAddress": "0x2d37c6bfcb5cdd2cdb5c48c107b56a85b77d62e8",
      "function": "transferFrom(address,address,uint256)",
      "arguments": [
        "0xe335Cf211aA52f3a84257F61dde34C3BDFced560",
        "0x000000000000000000000000000000000000dEaD",
        "67"
      ],
      "transaction": {
        "from": "0xe335cf211aa52f3a84257f61dde34c3bdfced560",
        "to": "0x2d37c6bfcb5cdd2cdb5c48c107b56a85b77d62e8",
        "gas": "0xf612",
        "value": "0x0",
        "input": "0x23b872dd000000000000000000000000e335cf211aa52f3a84257f61dde34c3bdfced560000000000000000000000000000000000000000000000000000000000000dead0000000000000000000000000000000000000000000000000000000000000043",
        "nonce": "0x39e",
        "chainId": "0x2105"
      },
      "additionalContracts": [],
      "isFixedGasLimit": false
    },
    {
      "hash": "0x322b536eeb0cf1daece21c9f83f58454d0f5ef3009a17c788909d180acd18244",
      "transactionType": "CALL",
      "contractName": null,
      "contractAddress": "0x2d37c6bfcb5cdd2cdb5c48c107b56a85b77d62e8",
      "function": "transferFrom(address,address,uint256)",
      "arguments": [
        "0xe335Cf211aA52f3a84257F61dde34C3BDFced560",
        "0x000000000000000000000000000000000000dEaD",
        "66"
      ],
      "transaction": {
        "from": "0xe335cf211aa52f3a84257f61dde34c3bdfced560",
        "to": "0x2d37c6bfcb5cdd2cdb5c48c107b56a85b77d62e8",
        "gas": "0xf612",
        "value": "0x0",
        "input": "0x23b872dd000000000000000000000000e335cf211aa52f3a84257f61dde34c3bdfced560000000000000000000000000000000000000000000000000000000000000dead0000000000000000000000000000000000000000000000000000000000000042",
        "nonce": "0x39f",
        "chainId": "0x2105"
      },
      "additionalContracts": [],
      "isFixedGasLimit": false
    },
    {
      "hash": "0xb7baf01f8f3fe231f89caa4704434449367fce3f74b9b6fd66a7662eac36fbef",
      "transactionType": "CALL",
      "contractName": null,
      "contractAddress": "0x2d37c6bfcb5cdd2cdb5c48c107b56a85b77d62e8",
      "function": "transferFrom(address,address,uint256)",
      "arguments": [
        "0xe335Cf211aA52f3a84257F61dde34C3BDFced560",
        "0x000000000000000000000000000000000000dEaD",
        "65"
      ],
      "transaction": {
        "from": "0xe335cf211aa52f3a84257f61dde34c3bdfced560",
        "to": "0x2d37c6bfcb5cdd2cdb5c48c107b56a85b77d62e8",
        "gas": "0xf612",
        "value": "0x0",
        "input": "0x23b872dd000000000000000000000000e335cf211aa52f3a84257f61dde34c3bdfced560000000000000000000000000000000000000000000000000000000000000dead0000000000000000000000000000000000000000000000000000000000000041",
        "nonce": "0x3a0",
        "chainId": "0x2105"
      },
      "additionalContracts": [],
      "isFixedGasLimit": false
    },
    {
      "hash": "0x135fb8be6de0747b5823bb1ec869c5f5a53cd17037183ee38e9f9f7587b66f07",
      "transactionType": "CALL",
      "contractName": null,
      "contractAddress": "0x2d37c6bfcb5cdd2cdb5c48c107b56a85b77d62e8",
      "function": "transferFrom(address,address,uint256)",
      "arguments": [
        "0xe335Cf211aA52f3a84257F61dde34C3BDFced560",
        "0x000000000000000000000000000000000000dEaD",
        "64"
      ],
      "transaction": {
        "from": "0xe335cf211aa52f3a84257f61dde34c3bdfced560",
        "to": "0x2d37c6bfcb5cdd2cdb5c48c107b56a85b77d62e8",
        "gas": "0xf612",
        "value": "0x0",
        "input": "0x23b872dd000000000000000000000000e335cf211aa52f3a84257f61dde34c3bdfced560000000000000000000000000000000000000000000000000000000000000dead0000000000000000000000000000000000000000000000000000000000000040",
        "nonce": "0x3a1",
        "chainId": "0x2105"
      },
      "additionalContracts": [],
      "isFixedGasLimit": false
    },
    {
      "hash": "0xd620670ab4998d7a8da2b50802656b9784b50a9bc28132948363d42fbaa5a875",
      "transactionType": "CALL",
      "contractName": null,
      "contractAddress": "0x2d37c6bfcb5cdd2cdb5c48c107b56a85b77d62e8",
      "function": "transferFrom(address,address,uint256)",
      "arguments": [
        "0xe335Cf211aA52f3a84257F61dde34C3BDFced560",
        "0x000000000000000000000000000000000000dEaD",
        "63"
      ],
      "transaction": {
        "from": "0xe335cf211aa52f3a84257f61dde34c3bdfced560",
        "to": "0x2d37c6bfcb5cdd2cdb5c48c107b56a85b77d62e8",
        "gas": "0xf612",
        "value": "0x0",
        "input": "0x23b872dd000000000000000000000000e335cf211aa52f3a84257f61dde34c3bdfced560000000000000000000000000000000000000000000000000000000000000dead000000000000000000000000000000000000000000000000000000000000003f",
        "nonce": "0x3a2",
        "chainId": "0x2105"
      },
      "additionalContracts": [],
      "isFixedGasLimit": false
    },
    {
      "hash": "0x029a802f4281a5d276cbaf3859938ee4246d1fe55d71271469ed64b6c9a84ef1",
      "transactionType": "CALL",
      "contractName": null,
      "contractAddress": "0x2d37c6bfcb5cdd2cdb5c48c107b56a85b77d62e8",
      "function": "transferFrom(address,address,uint256)",
      "arguments": [
        "0xe335Cf211aA52f3a84257F61dde34C3BDFced560",
        "0x000000000000000000000000000000000000dEaD",
        "62"
      ],
      "transaction": {
        "from": "0xe335cf211aa52f3a84257f61dde34c3bdfced560",
        "to": "0x2d37c6bfcb5cdd2cdb5c48c107b56a85b77d62e8",
        "gas": "0xf612",
        "value": "0x0",
        "input": "0x23b872dd000000000000000000000000e335cf211aa52f3a84257f61dde34c3bdfced560000000000000000000000000000000000000000000000000000000000000dead000000000000000000000000000000000000000000000000000000000000003e",
        "nonce": "0x3a3",
        "chainId": "0x2105"
      },
      "additionalContracts": [],
      "isFixedGasLimit": false
    },
    {
      "hash": "0x9817fae13cce9b996003f5d976e4a286c41e7303bf305ea21787f80781b557e6",
      "transactionType": "CALL",
      "contractName": null,
      "contractAddress": "0x2d37c6bfcb5cdd2cdb5c48c107b56a85b77d62e8",
      "function": "transferFrom(address,address,uint256)",
      "arguments": [
        "0xe335Cf211aA52f3a84257F61dde34C3BDFced560",
        "0x000000000000000000000000000000000000dEaD",
        "61"
      ],
      "transaction": {
        "from": "0xe335cf211aa52f3a84257f61dde34c3bdfced560",
        "to": "0x2d37c6bfcb5cdd2cdb5c48c107b56a85b77d62e8",
        "gas": "0xf612",
        "value": "0x0",
        "input": "0x23b872dd000000000000000000000000e335cf211aa52f3a84257f61dde34c3bdfced560000000000000000000000000000000000000000000000000000000000000dead000000000000000000000000000000000000000000000000000000000000003d",
        "nonce": "0x3a4",
        "chainId": "0x2105"
      },
      "additionalContracts": [],
      "isFixedGasLimit": false
    },
    {
      "hash": "0xaebdcaab462ea6b44aa60ac072d08c8264090cea98f523a59a0d39cb0eecbe48",
      "transactionType": "CALL",
      "contractName": null,
      "contractAddress": "0x2d37c6bfcb5cdd2cdb5c48c107b56a85b77d62e8",
      "function": "transferFrom(address,address,uint256)",
      "arguments": [
        "0xe335Cf211aA52f3a84257F61dde34C3BDFced560",
        "0x000000000000000000000000000000000000dEaD",
        "60"
      ],
      "transaction": {
        "from": "0xe335cf211aa52f3a84257f61dde34c3bdfced560",
        "to": "0x2d37c6bfcb5cdd2cdb5c48c107b56a85b77d62e8",
        "gas": "0xf612",
        "value": "0x0",
        "input": "0x23b872dd000000000000000000000000e335cf211aa52f3a84257f61dde34c3bdfced560000000000000000000000000000000000000000000000000000000000000dead000000000000000000000000000000000000000000000000000000000000003c",
        "nonce": "0x3a5",
        "chainId": "0x2105"
      },
      "additionalContracts": [],
      "isFixedGasLimit": false
    },
    {
      "hash": "0x7df3922ab78e60e1ee11f0546a08a836a1b166713769f750f9526ffa9f408bbb",
      "transactionType": "CALL",
      "contractName": null,
      "contractAddress": "0x2d37c6bfcb5cdd2cdb5c48c107b56a85b77d62e8",
      "function": "transferFrom(address,address,uint256)",
      "arguments": [
        "0xe335Cf211aA52f3a84257F61dde34C3BDFced560",
        "0x000000000000000000000000000000000000dEaD",
        "59"
      ],
      "transaction": {
        "from": "0xe335cf211aa52f3a84257f61dde34c3bdfced560",
        "to": "0x2d37c6bfcb5cdd2cdb5c48c107b56a85b77d62e8",
        "gas": "0xf612",
        "value": "0x0",
        "input": "0x23b872dd000000000000000000000000e335cf211aa52f3a84257f61dde34c3bdfced560000000000000000000000000000000000000000000000000000000000000dead000000000000000000000000000000000000000000000000000000000000003b",
        "nonce": "0x3a6",
        "chainId": "0x2105"
      },
      "additionalContracts": [],
      "isFixedGasLimit": false
    },
    {
      "hash": "0x9c121550eba5dbf1259948c27f96cda0b6d80d821ef2976959a08629cd6ebc1a",
      "transactionType": "CALL",
      "contractName": null,
      "contractAddress": "0x2d37c6bfcb5cdd2cdb5c48c107b56a85b77d62e8",
      "function": "transferFrom(address,address,uint256)",
      "arguments": [
        "0xe335Cf211aA52f3a84257F61dde34C3BDFced560",
        "0x000000000000000000000000000000000000dEaD",
        "58"
      ],
      "transaction": {
        "from": "0xe335cf211aa52f3a84257f61dde34c3bdfced560",
        "to": "0x2d37c6bfcb5cdd2cdb5c48c107b56a85b77d62e8",
        "gas": "0xf612",
        "value": "0x0",
        "input": "0x23b872dd000000000000000000000000e335cf211aa52f3a84257f61dde34c3bdfced560000000000000000000000000000000000000000000000000000000000000dead000000000000000000000000000000000000000000000000000000000000003a",
        "nonce": "0x3a7",
        "chainId": "0x2105"
      },
      "additionalContracts": [],
      "isFixedGasLimit": false
    },
    {
      "hash": "0x09b12047feb0a67bb8a8608ec90d93ca0f24edb194f5e63c0e4c79ceafebaf43",
      "transactionType": "CALL",
      "contractName": null,
      "contractAddress": "0x2d37c6bfcb5cdd2cdb5c48c107b56a85b77d62e8",
      "function": "transferFrom(address,address,uint256)",
      "arguments": [
        "0xe335Cf211aA52f3a84257F61dde34C3BDFced560",
        "0x000000000000000000000000000000000000dEaD",
        "57"
      ],
      "transaction": {
        "from": "0xe335cf211aa52f3a84257f61dde34c3bdfced560",
        "to": "0x2d37c6bfcb5cdd2cdb5c48c107b56a85b77d62e8",
        "gas": "0xf612",
        "value": "0x0",
        "input": "0x23b872dd000000000000000000000000e335cf211aa52f3a84257f61dde34c3bdfced560000000000000000000000000000000000000000000000000000000000000dead0000000000000000000000000000000000000000000000000000000000000039",
        "nonce": "0x3a8",
        "chainId": "0x2105"
      },
      "additionalContracts": [],
      "isFixedGasLimit": false
    },
    {
      "hash": "0x44d2cd09320c7b7bb8cc792632958bb7330bd0bc6c195874226163dadb5905ba",
      "transactionType": "CALL",
      "contractName": null,
      "contractAddress": "0x2d37c6bfcb5cdd2cdb5c48c107b56a85b77d62e8",
      "function": "transferFrom(address,address,uint256)",
      "arguments": [
        "0xe335Cf211aA52f3a84257F61dde34C3BDFced560",
        "0x000000000000000000000000000000000000dEaD",
        "55"
      ],
      "transaction": {
        "from": "0xe335cf211aa52f3a84257f61dde34c3bdfced560",
        "to": "0x2d37c6bfcb5cdd2cdb5c48c107b56a85b77d62e8",
        "gas": "0xf612",
        "value": "0x0",
        "input": "0x23b872dd000000000000000000000000e335cf211aa52f3a84257f61dde34c3bdfced560000000000000000000000000000000000000000000000000000000000000dead0000000000000000000000000000000000000000000000000000000000000037",
        "nonce": "0x3a9",
        "chainId": "0x2105"
      },
      "additionalContracts": [],
      "isFixedGasLimit": false
    },
    {
      "hash": "0xfe8b45b39265aca0cf587bf8e4a2aa971d5dc6154bf426aeaba7d619f5cf0a8c",
      "transactionType": "CALL",
      "contractName": null,
      "contractAddress": "0x2d37c6bfcb5cdd2cdb5c48c107b56a85b77d62e8",
      "function": "transferFrom(address,address,uint256)",
      "arguments": [
        "0xe335Cf211aA52f3a84257F61dde34C3BDFced560",
        "0x000000000000000000000000000000000000dEaD",
        "54"
      ],
      "transaction": {
        "from": "0xe335cf211aa52f3a84257f61dde34c3bdfced560",
        "to": "0x2d37c6bfcb5cdd2cdb5c48c107b56a85b77d62e8",
        "gas": "0xf612",
        "value": "0x0",
        "input": "0x23b872dd000000000000000000000000e335cf211aa52f3a84257f61dde34c3bdfced560000000000000000000000000000000000000000000000000000000000000dead0000000000000000000000000000000000000000000000000000000000000036",
        "nonce": "0x3aa",
        "chainId": "0x2105"
      },
      "additionalContracts": [],
      "isFixedGasLimit": false
    },
    {
      "hash": "0x9eb157a06140ad6d51fd4b184eaefce96932096693ed5e66b8156571d7f8c8c1",
      "transactionType": "CALL",
      "contractName": null,
      "contractAddress": "0x2d37c6bfcb5cdd2cdb5c48c107b56a85b77d62e8",
      "function": "transferFrom(address,address,uint256)",
      "arguments": [
        "0xe335Cf211aA52f3a84257F61dde34C3BDFced560",
        "0x000000000000000000000000000000000000dEaD",
        "53"
      ],
      "transaction": {
        "from": "0xe335cf211aa52f3a84257f61dde34c3bdfced560",
        "to": "0x2d37c6bfcb5cdd2cdb5c48c107b56a85b77d62e8",
        "gas": "0xf612",
        "value": "0x0",
        "input": "0x23b872dd000000000000000000000000e335cf211aa52f3a84257f61dde34c3bdfced560000000000000000000000000000000000000000000000000000000000000dead0000000000000000000000000000000000000000000000000000000000000035",
        "nonce": "0x3ab",
        "chainId": "0x2105"
      },
      "additionalContracts": [],
      "isFixedGasLimit": false
    },
    {
      "hash": "0x3374cd351840a23b73c10380007ccc2cae8f5706b11fd47247897aee92772e3a",
      "transactionType": "CALL",
      "contractName": null,
      "contractAddress": "0x2d37c6bfcb5cdd2cdb5c48c107b56a85b77d62e8",
      "function": "transferFrom(address,address,uint256)",
      "arguments": [
        "0xe335Cf211aA52f3a84257F61dde34C3BDFced560",
        "0x000000000000000000000000000000000000dEaD",
        "52"
      ],
      "transaction": {
        "from": "0xe335cf211aa52f3a84257f61dde34c3bdfced560",
        "to": "0x2d37c6bfcb5cdd2cdb5c48c107b56a85b77d62e8",
        "gas": "0xf612",
        "value": "0x0",
        "input": "0x23b872dd000000000000000000000000e335cf211aa52f3a84257f61dde34c3bdfced560000000000000000000000000000000000000000000000000000000000000dead0000000000000000000000000000000000000000000000000000000000000034",
        "nonce": "0x3ac",
        "chainId": "0x2105"
      },
      "additionalContracts": [],
      "isFixedGasLimit": false
    },
    {
      "hash": "0xf0c1f7087ec84ab8bea8ca9cdd86330231308c08c93ab2b31255a046573b3625",
      "transactionType": "CALL",
      "contractName": null,
      "contractAddress": "0x2d37c6bfcb5cdd2cdb5c48c107b56a85b77d62e8",
      "function": "transferFrom(address,address,uint256)",
      "arguments": [
        "0xe335Cf211aA52f3a84257F61dde34C3BDFced560",
        "0x000000000000000000000000000000000000dEaD",
        "51"
      ],
      "transaction": {
        "from": "0xe335cf211aa52f3a84257f61dde34c3bdfced560",
        "to": "0x2d37c6bfcb5cdd2cdb5c48c107b56a85b77d62e8",
        "gas": "0xf612",
        "value": "0x0",
        "input": "0x23b872dd000000000000000000000000e335cf211aa52f3a84257f61dde34c3bdfced560000000000000000000000000000000000000000000000000000000000000dead0000000000000000000000000000000000000000000000000000000000000033",
        "nonce": "0x3ad",
        "chainId": "0x2105"
      },
      "additionalContracts": [],
      "isFixedGasLimit": false
    },
    {
      "hash": "0x7b856522ad111916289d44a62b5dcdebbc7d9b960bc3afa140d74a056b15fbcc",
      "transactionType": "CALL",
      "contractName": null,
      "contractAddress": "0x2d37c6bfcb5cdd2cdb5c48c107b56a85b77d62e8",
      "function": "transferFrom(address,address,uint256)",
      "arguments": [
        "0xe335Cf211aA52f3a84257F61dde34C3BDFced560",
        "0x000000000000000000000000000000000000dEaD",
        "43"
      ],
      "transaction": {
        "from": "0xe335cf211aa52f3a84257f61dde34c3bdfced560",
        "to": "0x2d37c6bfcb5cdd2cdb5c48c107b56a85b77d62e8",
        "gas": "0xf612",
        "value": "0x0",
        "input": "0x23b872dd000000000000000000000000e335cf211aa52f3a84257f61dde34c3bdfced560000000000000000000000000000000000000000000000000000000000000dead000000000000000000000000000000000000000000000000000000000000002b",
        "nonce": "0x3ae",
        "chainId": "0x2105"
      },
      "additionalContracts": [],
      "isFixedGasLimit": false
    },
    {
      "hash": "0x14903b0b775b3aa0faea9a2726b0e28a757364aacbbe5e6cb76ed4e41c384b02",
      "transactionType": "CALL",
      "contractName": null,
      "contractAddress": "0x2d37c6bfcb5cdd2cdb5c48c107b56a85b77d62e8",
      "function": "transferFrom(address,address,uint256)",
      "arguments": [
        "0xe335Cf211aA52f3a84257F61dde34C3BDFced560",
        "0x000000000000000000000000000000000000dEaD",
        "40"
      ],
      "transaction": {
        "from": "0xe335cf211aa52f3a84257f61dde34c3bdfced560",
        "to": "0x2d37c6bfcb5cdd2cdb5c48c107b56a85b77d62e8",
        "gas": "0xf612",
        "value": "0x0",
        "input": "0x23b872dd000000000000000000000000e335cf211aa52f3a84257f61dde34c3bdfced560000000000000000000000000000000000000000000000000000000000000dead0000000000000000000000000000000000000000000000000000000000000028",
        "nonce": "0x3af",
        "chainId": "0x2105"
      },
      "additionalContracts": [],
      "isFixedGasLimit": false
    },
    {
      "hash": "0x883f0dd67bd2d65d7e47193d1bbd2cbc76b87681fd4f248a4894b6620767bbb0",
      "transactionType": "CALL",
      "contractName": null,
      "contractAddress": "0x2d37c6bfcb5cdd2cdb5c48c107b56a85b77d62e8",
      "function": "transferFrom(address,address,uint256)",
      "arguments": [
        "0xe335Cf211aA52f3a84257F61dde34C3BDFced560",
        "0x000000000000000000000000000000000000dEaD",
        "38"
      ],
      "transaction": {
        "from": "0xe335cf211aa52f3a84257f61dde34c3bdfced560",
        "to": "0x2d37c6bfcb5cdd2cdb5c48c107b56a85b77d62e8",
        "gas": "0xf612",
        "value": "0x0",
        "input": "0x23b872dd000000000000000000000000e335cf211aa52f3a84257f61dde34c3bdfced560000000000000000000000000000000000000000000000000000000000000dead0000000000000000000000000000000000000000000000000000000000000026",
        "nonce": "0x3b0",
        "chainId": "0x2105"
      },
      "additionalContracts": [],
      "isFixedGasLimit": false
    },
    {
      "hash": "0x55c295889b61b181125de60332fcc1f950f53c036753f89ce9b10af72886c810",
      "transactionType": "CALL",
      "contractName": null,
      "contractAddress": "0x2d37c6bfcb5cdd2cdb5c48c107b56a85b77d62e8",
      "function": "transferFrom(address,address,uint256)",
      "arguments": [
        "0xe335Cf211aA52f3a84257F61dde34C3BDFced560",
        "0x000000000000000000000000000000000000dEaD",
        "36"
      ],
      "transaction": {
        "from": "0xe335cf211aa52f3a84257f61dde34c3bdfced560",
        "to": "0x2d37c6bfcb5cdd2cdb5c48c107b56a85b77d62e8",
        "gas": "0xdaa6",
        "value": "0x0",
        "input": "0x23b872dd000000000000000000000000e335cf211aa52f3a84257f61dde34c3bdfced560000000000000000000000000000000000000000000000000000000000000dead0000000000000000000000000000000000000000000000000000000000000024",
        "nonce": "0x3b1",
        "chainId": "0x2105"
      },
      "additionalContracts": [],
      "isFixedGasLimit": false
    }
  ],
  "receipts": [
    {
      "status": "0x1",
      "cumulativeGasUsed": "0x14e1d10",
      "logs": [
        {
          "address": "0x2d37c6bfcb5cdd2cdb5c48c107b56a85b77d62e8",
          "topics": [
            "0xddf252ad1be2c89b69c2b068fc378daa952ba7f163c4a11628f55a4df523b3ef",
            "0x000000000000000000000000e335cf211aa52f3a84257f61dde34c3bdfced560",
            "0x000000000000000000000000000000000000000000000000000000000000dead",
            "0x000000000000000000000000000000000000000000000000000000000000006a"
          ],
          "data": "0x",
          "blockHash": "0xe1909485acf5874da0818aca3e2278653e8fc5d8f17d13ea82bfc93c70416b2b",
          "blockNumber": "0x12c0abf",
          "transactionHash": "0x6960435fae3315bdf9d513b51853f06d0d43b4bfbc6068557f1f6b75172f2d10",
          "transactionIndex": "0xa2",
          "logIndex": "0x208",
          "removed": false
        }
      ],
      "logsBloom": "0x00000000000010000000000000000000000000000000000000000000000000000100000000000000000000000000000000000000000000000000000000000000000000000000000000400008000000000000000000000000000000000000000000000000000000000000000000000000000000000000000000000010000000000000000000000000800044000000000000000000000000000000000000000000200000000000000000000000000000000000000000000000000000000008000000000402000000000000000000000000000880000000000000000000000000000000000000000000000000000000004000000000000000000000000000000000",
      "type": "0x2",
      "transactionHash": "0x6960435fae3315bdf9d513b51853f06d0d43b4bfbc6068557f1f6b75172f2d10",
      "transactionIndex": "0xa2",
      "blockHash": "0xe1909485acf5874da0818aca3e2278653e8fc5d8f17d13ea82bfc93c70416b2b",
      "blockNumber": "0x12c0abf",
      "gasUsed": "0xa841",
      "effectiveGasPrice": "0x3a6bf6",
      "from": "0xe335cf211aa52f3a84257f61dde34c3bdfced560",
      "to": "0x2d37c6bfcb5cdd2cdb5c48c107b56a85b77d62e8",
      "contractAddress": null,
      "l1BaseFeeScalar": "0x8dd",
      "l1BlobBaseFee": "0x1",
      "l1BlobBaseFeeScalar": "0x101c12",
      "l1Fee": "0x16839cb97",
      "l1GasPrice": "0x63398d43",
      "l1GasUsed": "0x640"
    },
    {
      "status": "0x1",
      "cumulativeGasUsed": "0x14ec551",
      "logs": [
        {
          "address": "0x2d37c6bfcb5cdd2cdb5c48c107b56a85b77d62e8",
          "topics": [
            "0xddf252ad1be2c89b69c2b068fc378daa952ba7f163c4a11628f55a4df523b3ef",
            "0x000000000000000000000000e335cf211aa52f3a84257f61dde34c3bdfced560",
            "0x000000000000000000000000000000000000000000000000000000000000dead",
            "0x000000000000000000000000000000000000000000000000000000000000005b"
          ],
          "data": "0x",
          "blockHash": "0xe1909485acf5874da0818aca3e2278653e8fc5d8f17d13ea82bfc93c70416b2b",
          "blockNumber": "0x12c0abf",
          "transactionHash": "0xc008d577c5f3c95061a46df1d0def14ca045b002282df27dea5b715f4dfc213e",
          "transactionIndex": "0xa3",
          "logIndex": "0x209",
          "removed": false
        }
      ],
      "logsBloom": "0x00000000000010000000000000000000000000000000000000000000000000000100000000000000000000000000000000000000000000000000000000000000000000000000000000000008000000000000000000000000000000000000000000000800000000000000000000000000000000000000000000000010000000000000000000000000800044000000000000000000000000000000000000000080200000000000000000000000000000000000000000000000000000000000000000000402000000000000000000000000000800000000000000000000000000000000000000000000000000000000004000000000000000000000200000000000",
      "type": "0x2",
      "transactionHash": "0xc008d577c5f3c95061a46df1d0def14ca045b002282df27dea5b715f4dfc213e",
      "transactionIndex": "0xa3",
      "blockHash": "0xe1909485acf5874da0818aca3e2278653e8fc5d8f17d13ea82bfc93c70416b2b",
      "blockNumber": "0x12c0abf",
      "gasUsed": "0xa841",
      "effectiveGasPrice": "0x3a6bf6",
      "from": "0xe335cf211aa52f3a84257f61dde34c3bdfced560",
      "to": "0x2d37c6bfcb5cdd2cdb5c48c107b56a85b77d62e8",
      "contractAddress": null,
      "l1BaseFeeScalar": "0x8dd",
      "l1BlobBaseFee": "0x1",
      "l1BlobBaseFeeScalar": "0x101c12",
      "l1Fee": "0x16839cb97",
      "l1GasPrice": "0x63398d43",
      "l1GasUsed": "0x640"
    },
    {
      "status": "0x1",
      "cumulativeGasUsed": "0x14f6d92",
      "logs": [
        {
          "address": "0x2d37c6bfcb5cdd2cdb5c48c107b56a85b77d62e8",
          "topics": [
            "0xddf252ad1be2c89b69c2b068fc378daa952ba7f163c4a11628f55a4df523b3ef",
            "0x000000000000000000000000e335cf211aa52f3a84257f61dde34c3bdfced560",
            "0x000000000000000000000000000000000000000000000000000000000000dead",
            "0x000000000000000000000000000000000000000000000000000000000000005a"
          ],
          "data": "0x",
          "blockHash": "0xe1909485acf5874da0818aca3e2278653e8fc5d8f17d13ea82bfc93c70416b2b",
          "blockNumber": "0x12c0abf",
          "transactionHash": "0x59c52d346fe9aead5421049326e2a89e9619d77a6be0a1ff745bad70cd66b5b9",
          "transactionIndex": "0xa4",
          "logIndex": "0x20a",
          "removed": false
        }
      ],
      "logsBloom": "0x00000000000010000000000000000000000000000000000000000000000000000100000000000000000000000000000000000000000000000000000000000000000000000000000000000008000000000000000000000000000000000000000000000000000000000000000000000000000000000000000000000010000000000000000000100000800044000000000000000000000000000000000000000000200000000000000000000000000000000000000000000000000000000000000000000402000000000000000000000000000800000000000004000000000000000000000000000008000000000000004000000000000000000000000000000000",
      "type": "0x2",
      "transactionHash": "0x59c52d346fe9aead5421049326e2a89e9619d77a6be0a1ff745bad70cd66b5b9",
      "transactionIndex": "0xa4",
      "blockHash": "0xe1909485acf5874da0818aca3e2278653e8fc5d8f17d13ea82bfc93c70416b2b",
      "blockNumber": "0x12c0abf",
      "gasUsed": "0xa841",
      "effectiveGasPrice": "0x3a6bf6",
      "from": "0xe335cf211aa52f3a84257f61dde34c3bdfced560",
      "to": "0x2d37c6bfcb5cdd2cdb5c48c107b56a85b77d62e8",
      "contractAddress": null,
      "l1BaseFeeScalar": "0x8dd",
      "l1BlobBaseFee": "0x1",
      "l1BlobBaseFeeScalar": "0x101c12",
      "l1Fee": "0x16839cb97",
      "l1GasPrice": "0x63398d43",
      "l1GasUsed": "0x640"
    },
    {
      "status": "0x1",
      "cumulativeGasUsed": "0x15015d3",
      "logs": [
        {
          "address": "0x2d37c6bfcb5cdd2cdb5c48c107b56a85b77d62e8",
          "topics": [
            "0xddf252ad1be2c89b69c2b068fc378daa952ba7f163c4a11628f55a4df523b3ef",
            "0x000000000000000000000000e335cf211aa52f3a84257f61dde34c3bdfced560",
            "0x000000000000000000000000000000000000000000000000000000000000dead",
            "0x0000000000000000000000000000000000000000000000000000000000000059"
          ],
          "data": "0x",
          "blockHash": "0xe1909485acf5874da0818aca3e2278653e8fc5d8f17d13ea82bfc93c70416b2b",
          "blockNumber": "0x12c0abf",
          "transactionHash": "0xf214e75b580364a843e5dc7db378e5ca8fe2f9c7c4b569c10d3acc462e0a12d6",
          "transactionIndex": "0xa5",
          "logIndex": "0x20b",
          "removed": false
        }
      ],
      "logsBloom": "0x00000000000010000000000000000000000000000000000002000000000000000100000000000000020000000000000000000000000000000000000000000000000000000000000000000008000000000000000000000000000000000000000000000000000000000000000000000000000000000000000000000010000000000000000000000000800044000000000000000000000000000000000000000000200000000000000000000000000000000000000000000000000000000000000000000402000000000000000000000000000800000000000000000000000000000000000000000000000000000000004000000000000000000000000000002000",
      "type": "0x2",
      "transactionHash": "0xf214e75b580364a843e5dc7db378e5ca8fe2f9c7c4b569c10d3acc462e0a12d6",
      "transactionIndex": "0xa5",
      "blockHash": "0xe1909485acf5874da0818aca3e2278653e8fc5d8f17d13ea82bfc93c70416b2b",
      "blockNumber": "0x12c0abf",
      "gasUsed": "0xa841",
      "effectiveGasPrice": "0x3a6bf6",
      "from": "0xe335cf211aa52f3a84257f61dde34c3bdfced560",
      "to": "0x2d37c6bfcb5cdd2cdb5c48c107b56a85b77d62e8",
      "contractAddress": null,
      "l1BaseFeeScalar": "0x8dd",
      "l1BlobBaseFee": "0x1",
      "l1BlobBaseFeeScalar": "0x101c12",
      "l1Fee": "0x16839cb97",
      "l1GasPrice": "0x63398d43",
      "l1GasUsed": "0x640"
    },
    {
      "status": "0x1",
      "cumulativeGasUsed": "0x150be14",
      "logs": [
        {
          "address": "0x2d37c6bfcb5cdd2cdb5c48c107b56a85b77d62e8",
          "topics": [
            "0xddf252ad1be2c89b69c2b068fc378daa952ba7f163c4a11628f55a4df523b3ef",
            "0x000000000000000000000000e335cf211aa52f3a84257f61dde34c3bdfced560",
            "0x000000000000000000000000000000000000000000000000000000000000dead",
            "0x0000000000000000000000000000000000000000000000000000000000000058"
          ],
          "data": "0x",
          "blockHash": "0xe1909485acf5874da0818aca3e2278653e8fc5d8f17d13ea82bfc93c70416b2b",
          "blockNumber": "0x12c0abf",
          "transactionHash": "0xf6690c0515fa2666071183b735905167527804b75dd65bb950f59a944378880c",
          "transactionIndex": "0xa6",
          "logIndex": "0x20c",
          "removed": false
        }
      ],
      "logsBloom": "0x00000000000010000000000000000000000000000000000000000000000000000100000000000000000000000080000000000000000000000000000000000000000000000000000000000008000000000001000000000000000000000000000000000000000000000000000000000000000000000000000000000010000000000000000000000000800044000000000000000000000000000000000000000000200000000000000000000000000000000000000000000000000000000000000000000402000000000000000000000000000800000000000000000000000000000000000000100000000000000000004000000000000000000000000000000000",
      "type": "0x2",
      "transactionHash": "0xf6690c0515fa2666071183b735905167527804b75dd65bb950f59a944378880c",
      "transactionIndex": "0xa6",
      "blockHash": "0xe1909485acf5874da0818aca3e2278653e8fc5d8f17d13ea82bfc93c70416b2b",
      "blockNumber": "0x12c0abf",
      "gasUsed": "0xa841",
      "effectiveGasPrice": "0x3a6bf6",
      "from": "0xe335cf211aa52f3a84257f61dde34c3bdfced560",
      "to": "0x2d37c6bfcb5cdd2cdb5c48c107b56a85b77d62e8",
      "contractAddress": null,
      "l1BaseFeeScalar": "0x8dd",
      "l1BlobBaseFee": "0x1",
      "l1BlobBaseFeeScalar": "0x101c12",
      "l1Fee": "0x16839cb97",
      "l1GasPrice": "0x63398d43",
      "l1GasUsed": "0x640"
    },
    {
      "status": "0x1",
      "cumulativeGasUsed": "0x1516655",
      "logs": [
        {
          "address": "0x2d37c6bfcb5cdd2cdb5c48c107b56a85b77d62e8",
          "topics": [
            "0xddf252ad1be2c89b69c2b068fc378daa952ba7f163c4a11628f55a4df523b3ef",
            "0x000000000000000000000000e335cf211aa52f3a84257f61dde34c3bdfced560",
            "0x000000000000000000000000000000000000000000000000000000000000dead",
            "0x0000000000000000000000000000000000000000000000000000000000000057"
          ],
          "data": "0x",
          "blockHash": "0xe1909485acf5874da0818aca3e2278653e8fc5d8f17d13ea82bfc93c70416b2b",
          "blockNumber": "0x12c0abf",
          "transactionHash": "0xb27eb924334dd6de8eb228b7ac5acbd28bf56b9f5446bb30f1c444efb45bca22",
          "transactionIndex": "0xa7",
          "logIndex": "0x20d",
          "removed": false
        }
      ],
      "logsBloom": "0x00000000000010000000000000000000000000000000000000000000000000000100000000000000000000000000040000000000000000000000000000000000000000000000000000000008000000000000000000000000000000000000000000000000000000000000000000000000000000000000000000000010000000000000000000000000800044000000000000000000000000000000000000000000200000000000000000000000000000000000000000000000000000000000000000000402000000000000000000000000000800002000000000000000000000000000002000000000000000000000004000000000000000000000000000000000",
      "type": "0x2",
      "transactionHash": "0xb27eb924334dd6de8eb228b7ac5acbd28bf56b9f5446bb30f1c444efb45bca22",
      "transactionIndex": "0xa7",
      "blockHash": "0xe1909485acf5874da0818aca3e2278653e8fc5d8f17d13ea82bfc93c70416b2b",
      "blockNumber": "0x12c0abf",
      "gasUsed": "0xa841",
      "effectiveGasPrice": "0x3a6bf6",
      "from": "0xe335cf211aa52f3a84257f61dde34c3bdfced560",
      "to": "0x2d37c6bfcb5cdd2cdb5c48c107b56a85b77d62e8",
      "contractAddress": null,
      "l1BaseFeeScalar": "0x8dd",
      "l1BlobBaseFee": "0x1",
      "l1BlobBaseFeeScalar": "0x101c12",
      "l1Fee": "0x16839cb97",
      "l1GasPrice": "0x63398d43",
      "l1GasUsed": "0x640"
    },
    {
      "status": "0x1",
      "cumulativeGasUsed": "0x1520e96",
      "logs": [
        {
          "address": "0x2d37c6bfcb5cdd2cdb5c48c107b56a85b77d62e8",
          "topics": [
            "0xddf252ad1be2c89b69c2b068fc378daa952ba7f163c4a11628f55a4df523b3ef",
            "0x000000000000000000000000e335cf211aa52f3a84257f61dde34c3bdfced560",
            "0x000000000000000000000000000000000000000000000000000000000000dead",
            "0x0000000000000000000000000000000000000000000000000000000000000056"
          ],
          "data": "0x",
          "blockHash": "0xe1909485acf5874da0818aca3e2278653e8fc5d8f17d13ea82bfc93c70416b2b",
          "blockNumber": "0x12c0abf",
          "transactionHash": "0xa61d4933eef354f308cae90c05ea42a8c143d14d795116a81861abf47e7d15a3",
          "transactionIndex": "0xa8",
          "logIndex": "0x20e",
          "removed": false
        }
      ],
      "logsBloom": "0x00000000000010000000000000000000000000000000000000000000000000000100000000000000000000000000000400000000000000000000000000000000000000000000000000000008000000000000000000000000000000000000000000000000000000000000000000000000000000000000000000000010000000000000000000000000800044000000000000000000000000000000000000000000200000000000000000000000000000000010000000000000000000000000000000200402000000000000000000000000000800000000000000000000000000000000000000000000000000000000004000000000000000000000000000000000",
      "type": "0x2",
      "transactionHash": "0xa61d4933eef354f308cae90c05ea42a8c143d14d795116a81861abf47e7d15a3",
      "transactionIndex": "0xa8",
      "blockHash": "0xe1909485acf5874da0818aca3e2278653e8fc5d8f17d13ea82bfc93c70416b2b",
      "blockNumber": "0x12c0abf",
      "gasUsed": "0xa841",
      "effectiveGasPrice": "0x3a6bf6",
      "from": "0xe335cf211aa52f3a84257f61dde34c3bdfced560",
      "to": "0x2d37c6bfcb5cdd2cdb5c48c107b56a85b77d62e8",
      "contractAddress": null,
      "l1BaseFeeScalar": "0x8dd",
      "l1BlobBaseFee": "0x1",
      "l1BlobBaseFeeScalar": "0x101c12",
      "l1Fee": "0x16839cb97",
      "l1GasPrice": "0x63398d43",
      "l1GasUsed": "0x640"
    },
    {
      "status": "0x1",
      "cumulativeGasUsed": "0x152b6d7",
      "logs": [
        {
          "address": "0x2d37c6bfcb5cdd2cdb5c48c107b56a85b77d62e8",
          "topics": [
            "0xddf252ad1be2c89b69c2b068fc378daa952ba7f163c4a11628f55a4df523b3ef",
            "0x000000000000000000000000e335cf211aa52f3a84257f61dde34c3bdfced560",
            "0x000000000000000000000000000000000000000000000000000000000000dead",
            "0x0000000000000000000000000000000000000000000000000000000000000055"
          ],
          "data": "0x",
          "blockHash": "0xe1909485acf5874da0818aca3e2278653e8fc5d8f17d13ea82bfc93c70416b2b",
          "blockNumber": "0x12c0abf",
          "transactionHash": "0xe36c20e1719760faee255a7364d1b178ffa340940e9d93537babff5a7af2fd49",
          "transactionIndex": "0xa9",
          "logIndex": "0x20f",
          "removed": false
        }
      ],
      "logsBloom": "0x00000000000010000000000000000000000000000000000000000000000000000100000000000000000000000000000000000000000000000000000000000000000000000000000000000008000000000000000000000000000000000000000000000000000000000000000000000000000000000000000000000010000000000000000000000000800044000000000000000000000000000000000000000000200000000000000000008000000000000000000000000000000000000004000000000402000000004000000000000000000800000000000000000000000000000000000000000000000000000000004000000000000000000000000000000000",
      "type": "0x2",
      "transactionHash": "0xe36c20e1719760faee255a7364d1b178ffa340940e9d93537babff5a7af2fd49",
      "transactionIndex": "0xa9",
      "blockHash": "0xe1909485acf5874da0818aca3e2278653e8fc5d8f17d13ea82bfc93c70416b2b",
      "blockNumber": "0x12c0abf",
      "gasUsed": "0xa841",
      "effectiveGasPrice": "0x3a6bf6",
      "from": "0xe335cf211aa52f3a84257f61dde34c3bdfced560",
      "to": "0x2d37c6bfcb5cdd2cdb5c48c107b56a85b77d62e8",
      "contractAddress": null,
      "l1BaseFeeScalar": "0x8dd",
      "l1BlobBaseFee": "0x1",
      "l1BlobBaseFeeScalar": "0x101c12",
      "l1Fee": "0x16839cb97",
      "l1GasPrice": "0x63398d43",
      "l1GasUsed": "0x640"
    },
    {
      "status": "0x1",
      "cumulativeGasUsed": "0x1535f18",
      "logs": [
        {
          "address": "0x2d37c6bfcb5cdd2cdb5c48c107b56a85b77d62e8",
          "topics": [
            "0xddf252ad1be2c89b69c2b068fc378daa952ba7f163c4a11628f55a4df523b3ef",
            "0x000000000000000000000000e335cf211aa52f3a84257f61dde34c3bdfced560",
            "0x000000000000000000000000000000000000000000000000000000000000dead",
            "0x0000000000000000000000000000000000000000000000000000000000000054"
          ],
          "data": "0x",
          "blockHash": "0xe1909485acf5874da0818aca3e2278653e8fc5d8f17d13ea82bfc93c70416b2b",
          "blockNumber": "0x12c0abf",
          "transactionHash": "0x5cfca3b9bb37b4107d2129be867e8a4e659b3dcde79c6ee965b4054688dbfeef",
          "transactionIndex": "0xaa",
          "logIndex": "0x210",
          "removed": false
        }
      ],
      "logsBloom": "0x00000000000010000000000000000000000000000002000000000000000000000100000000000000000000000000000000000000000000000000000000000000000000000000000000000008000000000000000000000000000000000000000000000000000000000000000000000000000000000000000000000010000000000000000000000000800044000000000000000000000000000000000000000000200000000800000000000000000000000000000000000000000000000000000000000402000000000000000000000000000800000000000000000000000000000000000000400000000000000000004000000000000000000000000000000000",
      "type": "0x2",
      "transactionHash": "0x5cfca3b9bb37b4107d2129be867e8a4e659b3dcde79c6ee965b4054688dbfeef",
      "transactionIndex": "0xaa",
      "blockHash": "0xe1909485acf5874da0818aca3e2278653e8fc5d8f17d13ea82bfc93c70416b2b",
      "blockNumber": "0x12c0abf",
      "gasUsed": "0xa841",
      "effectiveGasPrice": "0x3a6bf6",
      "from": "0xe335cf211aa52f3a84257f61dde34c3bdfced560",
      "to": "0x2d37c6bfcb5cdd2cdb5c48c107b56a85b77d62e8",
      "contractAddress": null,
      "l1BaseFeeScalar": "0x8dd",
      "l1BlobBaseFee": "0x1",
      "l1BlobBaseFeeScalar": "0x101c12",
      "l1Fee": "0x16839cb97",
      "l1GasPrice": "0x63398d43",
      "l1GasUsed": "0x640"
    },
    {
      "status": "0x1",
      "cumulativeGasUsed": "0x1540759",
      "logs": [
        {
          "address": "0x2d37c6bfcb5cdd2cdb5c48c107b56a85b77d62e8",
          "topics": [
            "0xddf252ad1be2c89b69c2b068fc378daa952ba7f163c4a11628f55a4df523b3ef",
            "0x000000000000000000000000e335cf211aa52f3a84257f61dde34c3bdfced560",
            "0x000000000000000000000000000000000000000000000000000000000000dead",
            "0x0000000000000000000000000000000000000000000000000000000000000053"
          ],
          "data": "0x",
          "blockHash": "0xe1909485acf5874da0818aca3e2278653e8fc5d8f17d13ea82bfc93c70416b2b",
          "blockNumber": "0x12c0abf",
          "transactionHash": "0xc022e7d5b5ecd42d5dde0788f304bb76544c7eb807d6a41704b4717d99b654d5",
          "transactionIndex": "0xab",
          "logIndex": "0x211",
          "removed": false
        }
      ],
      "logsBloom": "0x00000000000010000008000000000000000000000000000000000000000000000100000000000000000000000000000000000000000000000000000000000000000000000000000000000008000000000000000000000000000000000000000000000000000000000000000000000008000000000000000000000010000000000000000000000000800044000000000000000000000000000000000000000000200000000000000000000000000000000000000000000000000000000000000000000402000000000000000000000000000800000000000000000000000000000000000000000000000000000000004000000000000000000000040000000000",
      "type": "0x2",
      "transactionHash": "0xc022e7d5b5ecd42d5dde0788f304bb76544c7eb807d6a41704b4717d99b654d5",
      "transactionIndex": "0xab",
      "blockHash": "0xe1909485acf5874da0818aca3e2278653e8fc5d8f17d13ea82bfc93c70416b2b",
      "blockNumber": "0x12c0abf",
      "gasUsed": "0xa841",
      "effectiveGasPrice": "0x3a6bf6",
      "from": "0xe335cf211aa52f3a84257f61dde34c3bdfced560",
      "to": "0x2d37c6bfcb5cdd2cdb5c48c107b56a85b77d62e8",
      "contractAddress": null,
      "l1BaseFeeScalar": "0x8dd",
      "l1BlobBaseFee": "0x1",
      "l1BlobBaseFeeScalar": "0x101c12",
      "l1Fee": "0x16839cb97",
      "l1GasPrice": "0x63398d43",
      "l1GasUsed": "0x640"
    },
    {
      "status": "0x1",
      "cumulativeGasUsed": "0x154af9a",
      "logs": [
        {
          "address": "0x2d37c6bfcb5cdd2cdb5c48c107b56a85b77d62e8",
          "topics": [
            "0xddf252ad1be2c89b69c2b068fc378daa952ba7f163c4a11628f55a4df523b3ef",
            "0x000000000000000000000000e335cf211aa52f3a84257f61dde34c3bdfced560",
            "0x000000000000000000000000000000000000000000000000000000000000dead",
            "0x0000000000000000000000000000000000000000000000000000000000000052"
          ],
          "data": "0x",
          "blockHash": "0xe1909485acf5874da0818aca3e2278653e8fc5d8f17d13ea82bfc93c70416b2b",
          "blockNumber": "0x12c0abf",
          "transactionHash": "0xd7131030f9377edcb528d0447f7c7881843a891db9a3538feb81f29e22f96406",
          "transactionIndex": "0xac",
          "logIndex": "0x212",
          "removed": false
        }
      ],
      "logsBloom": "0x00000000000010000000000000000000000000000000000000000000000000002100000000000000000000000000000000000000000000000000000000000000000000000000000000000008000000000000000000000000000000000000000000000000000000000000000000000000000000000000000000000010000000000000000000000000800044000000000000000000000000000000000000000000200000000000000000000000000000000000000040000000000000000000000000000402000000000000000000000000000800000000000000000000001000000000000000000000000000000000004000000000000000000000000000000000",
      "type": "0x2",
      "transactionHash": "0xd7131030f9377edcb528d0447f7c7881843a891db9a3538feb81f29e22f96406",
      "transactionIndex": "0xac",
      "blockHash": "0xe1909485acf5874da0818aca3e2278653e8fc5d8f17d13ea82bfc93c70416b2b",
      "blockNumber": "0x12c0abf",
      "gasUsed": "0xa841",
      "effectiveGasPrice": "0x3a6bf6",
      "from": "0xe335cf211aa52f3a84257f61dde34c3bdfced560",
      "to": "0x2d37c6bfcb5cdd2cdb5c48c107b56a85b77d62e8",
      "contractAddress": null,
      "l1BaseFeeScalar": "0x8dd",
      "l1BlobBaseFee": "0x1",
      "l1BlobBaseFeeScalar": "0x101c12",
      "l1Fee": "0x16839cb97",
      "l1GasPrice": "0x63398d43",
      "l1GasUsed": "0x640"
    },
    {
      "status": "0x1",
      "cumulativeGasUsed": "0x15557db",
      "logs": [
        {
          "address": "0x2d37c6bfcb5cdd2cdb5c48c107b56a85b77d62e8",
          "topics": [
            "0xddf252ad1be2c89b69c2b068fc378daa952ba7f163c4a11628f55a4df523b3ef",
            "0x000000000000000000000000e335cf211aa52f3a84257f61dde34c3bdfced560",
            "0x000000000000000000000000000000000000000000000000000000000000dead",
            "0x0000000000000000000000000000000000000000000000000000000000000050"
          ],
          "data": "0x",
          "blockHash": "0xe1909485acf5874da0818aca3e2278653e8fc5d8f17d13ea82bfc93c70416b2b",
          "blockNumber": "0x12c0abf",
          "transactionHash": "0xbc6a5bcc65fc9f646a1974fa0267664762702207d841edc5f825b04d2683794e",
          "transactionIndex": "0xad",
          "logIndex": "0x213",
          "removed": false
        }
      ],
      "logsBloom": "0x00000000000010000000000000000000000000000000000000000000000000000100000000000000000000000020000000000000000000000000000000000000000000000000000000000008000000000000000000000000000002000000000000000000000000000000000000000000000000000000000000000010000000000000000000000000800044000000000000000000000000000000000000000000200000000000000000000000000000000000000000000000000000000000000000000402000000000000000000000000000800000000000000000020000000000000000000000000000000000000004000000000000000000000000000000000",
      "type": "0x2",
      "transactionHash": "0xbc6a5bcc65fc9f646a1974fa0267664762702207d841edc5f825b04d2683794e",
      "transactionIndex": "0xad",
      "blockHash": "0xe1909485acf5874da0818aca3e2278653e8fc5d8f17d13ea82bfc93c70416b2b",
      "blockNumber": "0x12c0abf",
      "gasUsed": "0xa841",
      "effectiveGasPrice": "0x3a6bf6",
      "from": "0xe335cf211aa52f3a84257f61dde34c3bdfced560",
      "to": "0x2d37c6bfcb5cdd2cdb5c48c107b56a85b77d62e8",
      "contractAddress": null,
      "l1BaseFeeScalar": "0x8dd",
      "l1BlobBaseFee": "0x1",
      "l1BlobBaseFeeScalar": "0x101c12",
      "l1Fee": "0x16839cb97",
      "l1GasPrice": "0x63398d43",
      "l1GasUsed": "0x640"
    },
    {
      "status": "0x1",
      "cumulativeGasUsed": "0x156001c",
      "logs": [
        {
          "address": "0x2d37c6bfcb5cdd2cdb5c48c107b56a85b77d62e8",
          "topics": [
            "0xddf252ad1be2c89b69c2b068fc378daa952ba7f163c4a11628f55a4df523b3ef",
            "0x000000000000000000000000e335cf211aa52f3a84257f61dde34c3bdfced560",
            "0x000000000000000000000000000000000000000000000000000000000000dead",
            "0x000000000000000000000000000000000000000000000000000000000000004f"
          ],
          "data": "0x",
          "blockHash": "0xe1909485acf5874da0818aca3e2278653e8fc5d8f17d13ea82bfc93c70416b2b",
          "blockNumber": "0x12c0abf",
          "transactionHash": "0x0d7a48317016f5200479a5c9eab03b9a595fbca53c06520dc31dbc15f7c0860c",
          "transactionIndex": "0xae",
          "logIndex": "0x214",
          "removed": false
        }
      ],
      "logsBloom": "0x00000000000010000000000000000000000000000000000000000000000000000100000000000000000000000000000000000000000000000000000000000000000000000000000000000008000000000000000000000000000000000000000000000000000000000000000080000000000000000000000000000010000000000000000000000000800044000000000000000000000000000000000000000000200001000000000000000000000000000000000000000000000000000000000000000402000000000000000000000000000c00000000000000000000000000000000000000000000000000000000004000000000000000000000000000000000",
      "type": "0x2",
      "transactionHash": "0x0d7a48317016f5200479a5c9eab03b9a595fbca53c06520dc31dbc15f7c0860c",
      "transactionIndex": "0xae",
      "blockHash": "0xe1909485acf5874da0818aca3e2278653e8fc5d8f17d13ea82bfc93c70416b2b",
      "blockNumber": "0x12c0abf",
      "gasUsed": "0xa841",
      "effectiveGasPrice": "0x3a6bf6",
      "from": "0xe335cf211aa52f3a84257f61dde34c3bdfced560",
      "to": "0x2d37c6bfcb5cdd2cdb5c48c107b56a85b77d62e8",
      "contractAddress": null,
      "l1BaseFeeScalar": "0x8dd",
      "l1BlobBaseFee": "0x1",
      "l1BlobBaseFeeScalar": "0x101c12",
      "l1Fee": "0x16839cb97",
      "l1GasPrice": "0x63398d43",
      "l1GasUsed": "0x640"
    },
    {
      "status": "0x1",
      "cumulativeGasUsed": "0x156a85d",
      "logs": [
        {
          "address": "0x2d37c6bfcb5cdd2cdb5c48c107b56a85b77d62e8",
          "topics": [
            "0xddf252ad1be2c89b69c2b068fc378daa952ba7f163c4a11628f55a4df523b3ef",
            "0x000000000000000000000000e335cf211aa52f3a84257f61dde34c3bdfced560",
            "0x000000000000000000000000000000000000000000000000000000000000dead",
            "0x000000000000000000000000000000000000000000000000000000000000004e"
          ],
          "data": "0x",
          "blockHash": "0xe1909485acf5874da0818aca3e2278653e8fc5d8f17d13ea82bfc93c70416b2b",
          "blockNumber": "0x12c0abf",
          "transactionHash": "0x4c6f5910ffc6bd45612846d76891bd455a6d63cffb815502d2ecfad7cca7f311",
          "transactionIndex": "0xaf",
          "logIndex": "0x215",
          "removed": false
        }
      ],
      "logsBloom": "0x00000000000010000000000000000000000000000000000000000000000000000100000000000000000000000000000000000000000000002000000000000000000000000000000000000008000000000000000000000000000000000000000000000000000000000000000000000010000000000000000000000010000000000000000000000000800044000000000000000020000000000000000000000000200000000000000000000000000000000000000000000000000000000000000000000402000000000000000000000000000800000000000000000000000000000000000000000000000000000000004000000000000000000000000000000000",
      "type": "0x2",
      "transactionHash": "0x4c6f5910ffc6bd45612846d76891bd455a6d63cffb815502d2ecfad7cca7f311",
      "transactionIndex": "0xaf",
      "blockHash": "0xe1909485acf5874da0818aca3e2278653e8fc5d8f17d13ea82bfc93c70416b2b",
      "blockNumber": "0x12c0abf",
      "gasUsed": "0xa841",
      "effectiveGasPrice": "0x3a6bf6",
      "from": "0xe335cf211aa52f3a84257f61dde34c3bdfced560",
      "to": "0x2d37c6bfcb5cdd2cdb5c48c107b56a85b77d62e8",
      "contractAddress": null,
      "l1BaseFeeScalar": "0x8dd",
      "l1BlobBaseFee": "0x1",
      "l1BlobBaseFeeScalar": "0x101c12",
      "l1Fee": "0x16839cb97",
      "l1GasPrice": "0x63398d43",
      "l1GasUsed": "0x640"
    },
    {
      "status": "0x1",
      "cumulativeGasUsed": "0x157509e",
      "logs": [
        {
          "address": "0x2d37c6bfcb5cdd2cdb5c48c107b56a85b77d62e8",
          "topics": [
            "0xddf252ad1be2c89b69c2b068fc378daa952ba7f163c4a11628f55a4df523b3ef",
            "0x000000000000000000000000e335cf211aa52f3a84257f61dde34c3bdfced560",
            "0x000000000000000000000000000000000000000000000000000000000000dead",
            "0x000000000000000000000000000000000000000000000000000000000000004a"
          ],
          "data": "0x",
          "blockHash": "0xe1909485acf5874da0818aca3e2278653e8fc5d8f17d13ea82bfc93c70416b2b",
          "blockNumber": "0x12c0abf",
          "transactionHash": "0xe124c21509370d8216ee452b1f80e37d2de7f62648aac771babdb9e6b457eb85",
          "transactionIndex": "0xb0",
          "logIndex": "0x216",
          "removed": false
        }
      ],
      "logsBloom": "0x00000000000010000000000000000000000000000000000000000000000000000100000000000000000000000000000000000000000000000000000000000000000000000000000000000008000000000000000000000000000000000000000000000000000000200000000000000000000000000000000000000010000000000000000000000000800044000000000000000000000000000000000000000000200000000000000000000000000000000000000000000000000000000400000000000402000000000000000000000000000800000000000000000000000000001000000000000000000000000000004000000000000000000000000000000000",
      "type": "0x2",
      "transactionHash": "0xe124c21509370d8216ee452b1f80e37d2de7f62648aac771babdb9e6b457eb85",
      "transactionIndex": "0xb0",
      "blockHash": "0xe1909485acf5874da0818aca3e2278653e8fc5d8f17d13ea82bfc93c70416b2b",
      "blockNumber": "0x12c0abf",
      "gasUsed": "0xa841",
      "effectiveGasPrice": "0x3a6bf6",
      "from": "0xe335cf211aa52f3a84257f61dde34c3bdfced560",
      "to": "0x2d37c6bfcb5cdd2cdb5c48c107b56a85b77d62e8",
      "contractAddress": null,
      "l1BaseFeeScalar": "0x8dd",
      "l1BlobBaseFee": "0x1",
      "l1BlobBaseFeeScalar": "0x101c12",
      "l1Fee": "0x16839cb97",
      "l1GasPrice": "0x63398d43",
      "l1GasUsed": "0x640"
    },
    {
      "status": "0x1",
      "cumulativeGasUsed": "0x157f8df",
      "logs": [
        {
          "address": "0x2d37c6bfcb5cdd2cdb5c48c107b56a85b77d62e8",
          "topics": [
            "0xddf252ad1be2c89b69c2b068fc378daa952ba7f163c4a11628f55a4df523b3ef",
            "0x000000000000000000000000e335cf211aa52f3a84257f61dde34c3bdfced560",
            "0x000000000000000000000000000000000000000000000000000000000000dead",
            "0x0000000000000000000000000000000000000000000000000000000000000049"
          ],
          "data": "0x",
          "blockHash": "0xe1909485acf5874da0818aca3e2278653e8fc5d8f17d13ea82bfc93c70416b2b",
          "blockNumber": "0x12c0abf",
          "transactionHash": "0x27d014bb1c133750edaf8839d4a566cad5e336f08525872755f42bb7b64dff68",
          "transactionIndex": "0xb1",
          "logIndex": "0x217",
          "removed": false
        }
      ],
      "logsBloom": "0x00000010000010000000000000000000000000000000000000000000000000000100000000000000000000000000000000000000000000000000000000000000000000000000000000000008000000000000000000000000000000000000000000000200000000000000000000000000000000000000000000000010000000000000000000000000800044000000000000000000000000000000000000000000202000000000000000000000000000000000000000000000000000000000000000000402000000000000000000000000000800000000000000000000000000000000000000000000000000000000004000000000000000000000000000000000",
      "type": "0x2",
      "transactionHash": "0x27d014bb1c133750edaf8839d4a566cad5e336f08525872755f42bb7b64dff68",
      "transactionIndex": "0xb1",
      "blockHash": "0xe1909485acf5874da0818aca3e2278653e8fc5d8f17d13ea82bfc93c70416b2b",
      "blockNumber": "0x12c0abf",
      "gasUsed": "0xa841",
      "effectiveGasPrice": "0x3a6bf6",
      "from": "0xe335cf211aa52f3a84257f61dde34c3bdfced560",
      "to": "0x2d37c6bfcb5cdd2cdb5c48c107b56a85b77d62e8",
      "contractAddress": null,
      "l1BaseFeeScalar": "0x8dd",
      "l1BlobBaseFee": "0x1",
      "l1BlobBaseFeeScalar": "0x101c12",
      "l1Fee": "0x16839cb97",
      "l1GasPrice": "0x63398d43",
      "l1GasUsed": "0x640"
    },
    {
      "status": "0x1",
      "cumulativeGasUsed": "0x158a120",
      "logs": [
        {
          "address": "0x2d37c6bfcb5cdd2cdb5c48c107b56a85b77d62e8",
          "topics": [
            "0xddf252ad1be2c89b69c2b068fc378daa952ba7f163c4a11628f55a4df523b3ef",
            "0x000000000000000000000000e335cf211aa52f3a84257f61dde34c3bdfced560",
            "0x000000000000000000000000000000000000000000000000000000000000dead",
            "0x0000000000000000000000000000000000000000000000000000000000000048"
          ],
          "data": "0x",
          "blockHash": "0xe1909485acf5874da0818aca3e2278653e8fc5d8f17d13ea82bfc93c70416b2b",
          "blockNumber": "0x12c0abf",
          "transactionHash": "0xfeeee83e82f7a28bae87ef47e15609f1402de138a2c4192bb214c64f24ce8db9",
          "transactionIndex": "0xb2",
          "logIndex": "0x218",
          "removed": false
        }
      ],
      "logsBloom": "0x00000000000010000000000000000000000080000000000000000000000000000100000000000000000000000000000000000000000000000000000000000000000000000000000000000008000000000000000000000000000000000000001000000000000000000000000000000000000000000000000000000010000000000000000000000000800044000000000000000000000000000000000000000000200000000000000000000000000000000000000000000000000000000000000000000402000000000000000000000000000800000040000000000000000000000000000000000000000000000000004000000000000000000000000000000000",
      "type": "0x2",
      "transactionHash": "0xfeeee83e82f7a28bae87ef47e15609f1402de138a2c4192bb214c64f24ce8db9",
      "transactionIndex": "0xb2",
      "blockHash": "0xe1909485acf5874da0818aca3e2278653e8fc5d8f17d13ea82bfc93c70416b2b",
      "blockNumber": "0x12c0abf",
      "gasUsed": "0xa841",
      "effectiveGasPrice": "0x3a6bf6",
      "from": "0xe335cf211aa52f3a84257f61dde34c3bdfced560",
      "to": "0x2d37c6bfcb5cdd2cdb5c48c107b56a85b77d62e8",
      "contractAddress": null,
      "l1BaseFeeScalar": "0x8dd",
      "l1BlobBaseFee": "0x1",
      "l1BlobBaseFeeScalar": "0x101c12",
      "l1Fee": "0x16839cb97",
      "l1GasPrice": "0x63398d43",
      "l1GasUsed": "0x640"
    },
    {
      "status": "0x1",
      "cumulativeGasUsed": "0x1594961",
      "logs": [
        {
          "address": "0x2d37c6bfcb5cdd2cdb5c48c107b56a85b77d62e8",
          "topics": [
            "0xddf252ad1be2c89b69c2b068fc378daa952ba7f163c4a11628f55a4df523b3ef",
            "0x000000000000000000000000e335cf211aa52f3a84257f61dde34c3bdfced560",
            "0x000000000000000000000000000000000000000000000000000000000000dead",
            "0x0000000000000000000000000000000000000000000000000000000000000047"
          ],
          "data": "0x",
          "blockHash": "0xe1909485acf5874da0818aca3e2278653e8fc5d8f17d13ea82bfc93c70416b2b",
          "blockNumber": "0x12c0abf",
          "transactionHash": "0x699d5c6f807560fb0101cfaf6f657ff9e388f9c7c44b170e90517e762188d5f6",
          "transactionIndex": "0xb3",
          "logIndex": "0x219",
          "removed": false
        }
      ],
      "logsBloom": "0x00000000000010000000000000000000000000000000000000000000000000000100000000000000000000000000000000000000000000000000001000000000000000000000000000000008000000000000000000000000000000000000000000000000000000000000000000000000000000000000000010000010000000000000000000000000800044000000000000000000000000000000000000000000200000000000000000000000000000000000000000000000000000000000000000000402000000000000000000000100000800000000000000000000000000000000000000000000000000000000004000000000000000000000000000000000",
      "type": "0x2",
      "transactionHash": "0x699d5c6f807560fb0101cfaf6f657ff9e388f9c7c44b170e90517e762188d5f6",
      "transactionIndex": "0xb3",
      "blockHash": "0xe1909485acf5874da0818aca3e2278653e8fc5d8f17d13ea82bfc93c70416b2b",
      "blockNumber": "0x12c0abf",
      "gasUsed": "0xa841",
      "effectiveGasPrice": "0x3a6bf6",
      "from": "0xe335cf211aa52f3a84257f61dde34c3bdfced560",
      "to": "0x2d37c6bfcb5cdd2cdb5c48c107b56a85b77d62e8",
      "contractAddress": null,
      "l1BaseFeeScalar": "0x8dd",
      "l1BlobBaseFee": "0x1",
      "l1BlobBaseFeeScalar": "0x101c12",
      "l1Fee": "0x16839cb97",
      "l1GasPrice": "0x63398d43",
      "l1GasUsed": "0x640"
    },
    {
      "status": "0x1",
      "cumulativeGasUsed": "0x159f1a2",
      "logs": [
        {
          "address": "0x2d37c6bfcb5cdd2cdb5c48c107b56a85b77d62e8",
          "topics": [
            "0xddf252ad1be2c89b69c2b068fc378daa952ba7f163c4a11628f55a4df523b3ef",
            "0x000000000000000000000000e335cf211aa52f3a84257f61dde34c3bdfced560",
            "0x000000000000000000000000000000000000000000000000000000000000dead",
            "0x0000000000000000000000000000000000000000000000000000000000000045"
          ],
          "data": "0x",
          "blockHash": "0xe1909485acf5874da0818aca3e2278653e8fc5d8f17d13ea82bfc93c70416b2b",
          "blockNumber": "0x12c0abf",
          "transactionHash": "0x1f8f0ae0b7c403afeed54b4cb9a60f67afe4eef35ddcaaaa70f93f0d5f8415d9",
          "transactionIndex": "0xb4",
          "logIndex": "0x21a",
          "removed": false
        }
      ],
      "logsBloom": "0x00000000000010000000000000000000000000000000000000000000000000000100000000000000000000000000000000000000000000000000000000000000000000000000000000000008000000000000000000000000000000000000000000000000000000000000000000000000000000000000000000000010000000000000000000000000800044000000000000000000000000000000000000000000200000000000000000000000000000000000000000000000000000000000000000000402000000000000000000000000004800000000000000000000000000000000000000000000000000000000004000000000000000000000000000000400",
      "type": "0x2",
      "transactionHash": "0x1f8f0ae0b7c403afeed54b4cb9a60f67afe4eef35ddcaaaa70f93f0d5f8415d9",
      "transactionIndex": "0xb4",
      "blockHash": "0xe1909485acf5874da0818aca3e2278653e8fc5d8f17d13ea82bfc93c70416b2b",
      "blockNumber": "0x12c0abf",
      "gasUsed": "0xa841",
      "effectiveGasPrice": "0x3a6bf6",
      "from": "0xe335cf211aa52f3a84257f61dde34c3bdfced560",
      "to": "0x2d37c6bfcb5cdd2cdb5c48c107b56a85b77d62e8",
      "contractAddress": null,
      "l1BaseFeeScalar": "0x8dd",
      "l1BlobBaseFee": "0x1",
      "l1BlobBaseFeeScalar": "0x101c12",
      "l1Fee": "0x16839cb97",
      "l1GasPrice": "0x63398d43",
      "l1GasUsed": "0x640"
    },
    {
      "status": "0x1",
      "cumulativeGasUsed": "0x15a99e3",
      "logs": [
        {
          "address": "0x2d37c6bfcb5cdd2cdb5c48c107b56a85b77d62e8",
          "topics": [
            "0xddf252ad1be2c89b69c2b068fc378daa952ba7f163c4a11628f55a4df523b3ef",
            "0x000000000000000000000000e335cf211aa52f3a84257f61dde34c3bdfced560",
            "0x000000000000000000000000000000000000000000000000000000000000dead",
            "0x0000000000000000000000000000000000000000000000000000000000000044"
          ],
          "data": "0x",
          "blockHash": "0xe1909485acf5874da0818aca3e2278653e8fc5d8f17d13ea82bfc93c70416b2b",
          "blockNumber": "0x12c0abf",
          "transactionHash": "0x90b924836d253a1529db43524783d4e2a29d0ac79fc294cd5313106ab65a7082",
          "transactionIndex": "0xb5",
          "logIndex": "0x21b",
          "removed": false
        }
      ],
      "logsBloom": "0x00000000000010000000000000000000000000000000000000000000000000000100000000000000000000000000000000000000000000000000000000000000000000000000000000000008000000000000000000000000000000000000000000000000000000000000000000000000000000000000000000000010000000000000000000400000800044000000000000000000000000000000000400000000200000000000000000000000000000000000000000000000000000000000000000000402000000000000000000000000000800000200000000000000000000000000000000000000000000000000004000000000000000000000000000000000",
      "type": "0x2",
      "transactionHash": "0x90b924836d253a1529db43524783d4e2a29d0ac79fc294cd5313106ab65a7082",
      "transactionIndex": "0xb5",
      "blockHash": "0xe1909485acf5874da0818aca3e2278653e8fc5d8f17d13ea82bfc93c70416b2b",
      "blockNumber": "0x12c0abf",
      "gasUsed": "0xa841",
      "effectiveGasPrice": "0x3a6bf6",
      "from": "0xe335cf211aa52f3a84257f61dde34c3bdfced560",
      "to": "0x2d37c6bfcb5cdd2cdb5c48c107b56a85b77d62e8",
      "contractAddress": null,
      "l1BaseFeeScalar": "0x8dd",
      "l1BlobBaseFee": "0x1",
      "l1BlobBaseFeeScalar": "0x101c12",
      "l1Fee": "0x16839cb97",
      "l1GasPrice": "0x63398d43",
      "l1GasUsed": "0x640"
    },
    {
      "status": "0x1",
      "cumulativeGasUsed": "0x15b4224",
      "logs": [
        {
          "address": "0x2d37c6bfcb5cdd2cdb5c48c107b56a85b77d62e8",
          "topics": [
            "0xddf252ad1be2c89b69c2b068fc378daa952ba7f163c4a11628f55a4df523b3ef",
            "0x000000000000000000000000e335cf211aa52f3a84257f61dde34c3bdfced560",
            "0x000000000000000000000000000000000000000000000000000000000000dead",
            "0x0000000000000000000000000000000000000000000000000000000000000043"
          ],
          "data": "0x",
          "blockHash": "0xe1909485acf5874da0818aca3e2278653e8fc5d8f17d13ea82bfc93c70416b2b",
          "blockNumber": "0x12c0abf",
          "transactionHash": "0x9a98e3f0908af1907830dcf751be5804081070456a7ddc75d1bbc8d7f9ad154b",
          "transactionIndex": "0xb6",
          "logIndex": "0x21c",
          "removed": false
        }
      ],
      "logsBloom": "0x00000000000010000000000000000000000000000000000000000000000000000100000000004000000000000001000000000000000000000000000000000000000000000000000000000008020000000000000000000000000000000000000000000000000000000000000000000000000000000000000000000010000000000000000000000000800044000000000000000000000000000000000000000000200000000000000000000000000000000000000000000000000000000000000000000402000000000000000000000000000800000000000000000000000000000000000000000000000000000000004000000000000000000000000000000000",
      "type": "0x2",
      "transactionHash": "0x9a98e3f0908af1907830dcf751be5804081070456a7ddc75d1bbc8d7f9ad154b",
      "transactionIndex": "0xb6",
      "blockHash": "0xe1909485acf5874da0818aca3e2278653e8fc5d8f17d13ea82bfc93c70416b2b",
      "blockNumber": "0x12c0abf",
      "gasUsed": "0xa841",
      "effectiveGasPrice": "0x3a6bf6",
      "from": "0xe335cf211aa52f3a84257f61dde34c3bdfced560",
      "to": "0x2d37c6bfcb5cdd2cdb5c48c107b56a85b77d62e8",
      "contractAddress": null,
      "l1BaseFeeScalar": "0x8dd",
      "l1BlobBaseFee": "0x1",
      "l1BlobBaseFeeScalar": "0x101c12",
      "l1Fee": "0x16839cb97",
      "l1GasPrice": "0x63398d43",
      "l1GasUsed": "0x640"
    },
    {
      "status": "0x1",
      "cumulativeGasUsed": "0x15bea65",
      "logs": [
        {
          "address": "0x2d37c6bfcb5cdd2cdb5c48c107b56a85b77d62e8",
          "topics": [
            "0xddf252ad1be2c89b69c2b068fc378daa952ba7f163c4a11628f55a4df523b3ef",
            "0x000000000000000000000000e335cf211aa52f3a84257f61dde34c3bdfced560",
            "0x000000000000000000000000000000000000000000000000000000000000dead",
            "0x0000000000000000000000000000000000000000000000000000000000000042"
          ],
          "data": "0x",
          "blockHash": "0xe1909485acf5874da0818aca3e2278653e8fc5d8f17d13ea82bfc93c70416b2b",
          "blockNumber": "0x12c0abf",
          "transactionHash": "0x322b536eeb0cf1daece21c9f83f58454d0f5ef3009a17c788909d180acd18244",
          "transactionIndex": "0xb7",
          "logIndex": "0x21d",
          "removed": false
        }
      ],
      "logsBloom": "0x00000000000010000000000000000000000000000000000000000000000000000100000000000000000000000000000000000000000000000000000000000000000000000000000000000008000000000000000000000000000000000000000000000000000000000000000000000000000000080000000000000010000000000000000000000000800044000000000000000000000000000000008000000000200000000000000000000000000000000000000000000000000000000000000000000402000000000000000000000000000800000000000000000000000000000000000080000000000000000000004000000000000000000000000000000000",
      "type": "0x2",
      "transactionHash": "0x322b536eeb0cf1daece21c9f83f58454d0f5ef3009a17c788909d180acd18244",
      "transactionIndex": "0xb7",
      "blockHash": "0xe1909485acf5874da0818aca3e2278653e8fc5d8f17d13ea82bfc93c70416b2b",
      "blockNumber": "0x12c0abf",
      "gasUsed": "0xa841",
      "effectiveGasPrice": "0x3a6bf6",
      "from": "0xe335cf211aa52f3a84257f61dde34c3bdfced560",
      "to": "0x2d37c6bfcb5cdd2cdb5c48c107b56a85b77d62e8",
      "contractAddress": null,
      "l1BaseFeeScalar": "0x8dd",
      "l1BlobBaseFee": "0x1",
      "l1BlobBaseFeeScalar": "0x101c12",
      "l1Fee": "0x16839cb97",
      "l1GasPrice": "0x63398d43",
      "l1GasUsed": "0x640"
    },
    {
      "status": "0x1",
      "cumulativeGasUsed": "0x15c92a6",
      "logs": [
        {
          "address": "0x2d37c6bfcb5cdd2cdb5c48c107b56a85b77d62e8",
          "topics": [
            "0xddf252ad1be2c89b69c2b068fc378daa952ba7f163c4a11628f55a4df523b3ef",
            "0x000000000000000000000000e335cf211aa52f3a84257f61dde34c3bdfced560",
            "0x000000000000000000000000000000000000000000000000000000000000dead",
            "0x0000000000000000000000000000000000000000000000000000000000000041"
          ],
          "data": "0x",
          "blockHash": "0xe1909485acf5874da0818aca3e2278653e8fc5d8f17d13ea82bfc93c70416b2b",
          "blockNumber": "0x12c0abf",
          "transactionHash": "0xb7baf01f8f3fe231f89caa4704434449367fce3f74b9b6fd66a7662eac36fbef",
          "transactionIndex": "0xb8",
          "logIndex": "0x21e",
          "removed": false
        }
      ],
      "logsBloom": "0x00000000000010000000000000000000000000000000000000000000000000000100000000000000000000000000000000000000000000000000000000000000000001000000000000000008000000000000000000000000000000000000000000000000000000000000000000800000000000000000000000000010004000000000000000000000800044000000000000000000000000000000000000000000200000000000000000000000000000000000000000000000000000000000000000000402000000000000000000000000000800000000000000000000000000000000000000000000000000000000004000000000000000000000000000000000",
      "type": "0x2",
      "transactionHash": "0xb7baf01f8f3fe231f89caa4704434449367fce3f74b9b6fd66a7662eac36fbef",
      "transactionIndex": "0xb8",
      "blockHash": "0xe1909485acf5874da0818aca3e2278653e8fc5d8f17d13ea82bfc93c70416b2b",
      "blockNumber": "0x12c0abf",
      "gasUsed": "0xa841",
      "effectiveGasPrice": "0x3a6bf6",
      "from": "0xe335cf211aa52f3a84257f61dde34c3bdfced560",
      "to": "0x2d37c6bfcb5cdd2cdb5c48c107b56a85b77d62e8",
      "contractAddress": null,
      "l1BaseFeeScalar": "0x8dd",
      "l1BlobBaseFee": "0x1",
      "l1BlobBaseFeeScalar": "0x101c12",
      "l1Fee": "0x16839cb97",
      "l1GasPrice": "0x63398d43",
      "l1GasUsed": "0x640"
    },
    {
      "status": "0x1",
      "cumulativeGasUsed": "0x15d3ae7",
      "logs": [
        {
          "address": "0x2d37c6bfcb5cdd2cdb5c48c107b56a85b77d62e8",
          "topics": [
            "0xddf252ad1be2c89b69c2b068fc378daa952ba7f163c4a11628f55a4df523b3ef",
            "0x000000000000000000000000e335cf211aa52f3a84257f61dde34c3bdfced560",
            "0x000000000000000000000000000000000000000000000000000000000000dead",
            "0x0000000000000000000000000000000000000000000000000000000000000040"
          ],
          "data": "0x",
          "blockHash": "0xe1909485acf5874da0818aca3e2278653e8fc5d8f17d13ea82bfc93c70416b2b",
          "blockNumber": "0x12c0abf",
          "transactionHash": "0x135fb8be6de0747b5823bb1ec869c5f5a53cd17037183ee38e9f9f7587b66f07",
          "transactionIndex": "0xb9",
          "logIndex": "0x21f",
          "removed": false
        }
      ],
      "logsBloom": "0x00000000000010000000000000000000000000000000000000000000000000000100000100000000000000020000000000000000000000000000000000000000000000000000000000000008000000000000000000000000000080000000000000000000000000000000000000000000000000000000000000000010000000000000000000000000800044000000000000000000000000000000000000000000200000000000000000000000000000000000000000000000000000000000000000000402000000000000000000000000000800000000000000000000000000000000000000000000000000000000004000000000000000000000000000000000",
      "type": "0x2",
      "transactionHash": "0x135fb8be6de0747b5823bb1ec869c5f5a53cd17037183ee38e9f9f7587b66f07",
      "transactionIndex": "0xb9",
      "blockHash": "0xe1909485acf5874da0818aca3e2278653e8fc5d8f17d13ea82bfc93c70416b2b",
      "blockNumber": "0x12c0abf",
      "gasUsed": "0xa841",
      "effectiveGasPrice": "0x3a6bf6",
      "from": "0xe335cf211aa52f3a84257f61dde34c3bdfced560",
      "to": "0x2d37c6bfcb5cdd2cdb5c48c107b56a85b77d62e8",
      "contractAddress": null,
      "l1BaseFeeScalar": "0x8dd",
      "l1BlobBaseFee": "0x1",
      "l1BlobBaseFeeScalar": "0x101c12",
      "l1Fee": "0x16839cb97",
      "l1GasPrice": "0x63398d43",
      "l1GasUsed": "0x640"
    },
    {
      "status": "0x1",
      "cumulativeGasUsed": "0x15de328",
      "logs": [
        {
          "address": "0x2d37c6bfcb5cdd2cdb5c48c107b56a85b77d62e8",
          "topics": [
            "0xddf252ad1be2c89b69c2b068fc378daa952ba7f163c4a11628f55a4df523b3ef",
            "0x000000000000000000000000e335cf211aa52f3a84257f61dde34c3bdfced560",
            "0x000000000000000000000000000000000000000000000000000000000000dead",
            "0x000000000000000000000000000000000000000000000000000000000000003f"
          ],
          "data": "0x",
          "blockHash": "0xe1909485acf5874da0818aca3e2278653e8fc5d8f17d13ea82bfc93c70416b2b",
          "blockNumber": "0x12c0abf",
          "transactionHash": "0xd620670ab4998d7a8da2b50802656b9784b50a9bc28132948363d42fbaa5a875",
          "transactionIndex": "0xba",
          "logIndex": "0x220",
          "removed": false
        }
      ],
      "logsBloom": "0x00000000000010000000000000000000000000000000000000000000000000000100000000000000000000000000000000000000000000000000000000000080000000000000000000000008000000000000000000000000000000000000000000000008000000000000000000000000000000000000000000000010000000000000000000000000800044000000000000000000000000000000000000000000200000000000000000000000000000000000000000000000000000000000000000000402000000000000000000000000000800000000000000000000000000000000000000000000000000000000004000000000000000000001000000000000",
      "type": "0x2",
      "transactionHash": "0xd620670ab4998d7a8da2b50802656b9784b50a9bc28132948363d42fbaa5a875",
      "transactionIndex": "0xba",
      "blockHash": "0xe1909485acf5874da0818aca3e2278653e8fc5d8f17d13ea82bfc93c70416b2b",
      "blockNumber": "0x12c0abf",
      "gasUsed": "0xa841",
      "effectiveGasPrice": "0x3a6bf6",
      "from": "0xe335cf211aa52f3a84257f61dde34c3bdfced560",
      "to": "0x2d37c6bfcb5cdd2cdb5c48c107b56a85b77d62e8",
      "contractAddress": null,
      "l1BaseFeeScalar": "0x8dd",
      "l1BlobBaseFee": "0x1",
      "l1BlobBaseFeeScalar": "0x101c12",
      "l1Fee": "0x16839cb97",
      "l1GasPrice": "0x63398d43",
      "l1GasUsed": "0x640"
    },
    {
      "status": "0x1",
      "cumulativeGasUsed": "0x1659575",
      "logs": [
        {
          "address": "0x2d37c6bfcb5cdd2cdb5c48c107b56a85b77d62e8",
          "topics": [
            "0xddf252ad1be2c89b69c2b068fc378daa952ba7f163c4a11628f55a4df523b3ef",
            "0x000000000000000000000000e335cf211aa52f3a84257f61dde34c3bdfced560",
            "0x000000000000000000000000000000000000000000000000000000000000dead",
            "0x000000000000000000000000000000000000000000000000000000000000003e"
          ],
          "data": "0x",
          "blockHash": "0xe1909485acf5874da0818aca3e2278653e8fc5d8f17d13ea82bfc93c70416b2b",
          "blockNumber": "0x12c0abf",
          "transactionHash": "0x029a802f4281a5d276cbaf3859938ee4246d1fe55d71271469ed64b6c9a84ef1",
          "transactionIndex": "0xbc",
          "logIndex": "0x221",
          "removed": false
        }
      ],
      "logsBloom": "0x00000000000010000000000000000000000000000000000000000000000000000100000000000000000000000000000000000000000000000000000000000000000000000000000000000008000000010000004000000000000000000000000000000000000800000000000000000000000000000000000000000010000000000000000000000000800044000000000000000000000000000000000000000000200000000000000000000000000000000000000000000000000000000000000000000402000000000000000000000000000800000000000000000000000000000000000000000000000000000000004000000000000000000000000000000000",
      "type": "0x2",
      "transactionHash": "0x029a802f4281a5d276cbaf3859938ee4246d1fe55d71271469ed64b6c9a84ef1",
      "transactionIndex": "0xbc",
      "blockHash": "0xe1909485acf5874da0818aca3e2278653e8fc5d8f17d13ea82bfc93c70416b2b",
      "blockNumber": "0x12c0abf",
      "gasUsed": "0xa841",
      "effectiveGasPrice": "0x3a6bf6",
      "from": "0xe335cf211aa52f3a84257f61dde34c3bdfced560",
      "to": "0x2d37c6bfcb5cdd2cdb5c48c107b56a85b77d62e8",
      "contractAddress": null,
      "l1BaseFeeScalar": "0x8dd",
      "l1BlobBaseFee": "0x1",
      "l1BlobBaseFeeScalar": "0x101c12",
      "l1Fee": "0x16839cb97",
      "l1GasPrice": "0x63398d43",
      "l1GasUsed": "0x640"
    },
    {
      "status": "0x1",
      "cumulativeGasUsed": "0x16bb4fa",
      "logs": [
        {
          "address": "0x2d37c6bfcb5cdd2cdb5c48c107b56a85b77d62e8",
          "topics": [
            "0xddf252ad1be2c89b69c2b068fc378daa952ba7f163c4a11628f55a4df523b3ef",
            "0x000000000000000000000000e335cf211aa52f3a84257f61dde34c3bdfced560",
            "0x000000000000000000000000000000000000000000000000000000000000dead",
            "0x000000000000000000000000000000000000000000000000000000000000003d"
          ],
          "data": "0x",
          "blockHash": "0xe1909485acf5874da0818aca3e2278653e8fc5d8f17d13ea82bfc93c70416b2b",
          "blockNumber": "0x12c0abf",
          "transactionHash": "0x9817fae13cce9b996003f5d976e4a286c41e7303bf305ea21787f80781b557e6",
          "transactionIndex": "0xbe",
          "logIndex": "0x222",
          "removed": false
        }
      ],
      "logsBloom": "0x00000000000010000000000000000000000000000000000000000000000000000100000000000000000000000000000000000000000000000000000000000000000000000000000000000008000000000000000000000000000000040000000020000040000000000000000000000000000000000000000000000010000000000000000000000000800044000000000000000000000000000000000000000000200000000000000000000000000000000000000000000000000000000000000000000402000000000000000000000000000800000000000000000000000000000000000000000000000000000000004000000000000000000000000000000000",
      "type": "0x2",
      "transactionHash": "0x9817fae13cce9b996003f5d976e4a286c41e7303bf305ea21787f80781b557e6",
      "transactionIndex": "0xbe",
      "blockHash": "0xe1909485acf5874da0818aca3e2278653e8fc5d8f17d13ea82bfc93c70416b2b",
      "blockNumber": "0x12c0abf",
      "gasUsed": "0xa841",
      "effectiveGasPrice": "0x3a6bf6",
      "from": "0xe335cf211aa52f3a84257f61dde34c3bdfced560",
      "to": "0x2d37c6bfcb5cdd2cdb5c48c107b56a85b77d62e8",
      "contractAddress": null,
      "l1BaseFeeScalar": "0x8dd",
      "l1BlobBaseFee": "0x1",
      "l1BlobBaseFeeScalar": "0x101c12",
      "l1Fee": "0x16839cb97",
      "l1GasPrice": "0x63398d43",
      "l1GasUsed": "0x640"
    },
    {
      "status": "0x1",
      "cumulativeGasUsed": "0x16c5d3b",
      "logs": [
        {
          "address": "0x2d37c6bfcb5cdd2cdb5c48c107b56a85b77d62e8",
          "topics": [
            "0xddf252ad1be2c89b69c2b068fc378daa952ba7f163c4a11628f55a4df523b3ef",
            "0x000000000000000000000000e335cf211aa52f3a84257f61dde34c3bdfced560",
            "0x000000000000000000000000000000000000000000000000000000000000dead",
            "0x000000000000000000000000000000000000000000000000000000000000003c"
          ],
          "data": "0x",
          "blockHash": "0xe1909485acf5874da0818aca3e2278653e8fc5d8f17d13ea82bfc93c70416b2b",
          "blockNumber": "0x12c0abf",
          "transactionHash": "0xaebdcaab462ea6b44aa60ac072d08c8264090cea98f523a59a0d39cb0eecbe48",
          "transactionIndex": "0xbf",
          "logIndex": "0x223",
          "removed": false
        }
      ],
      "logsBloom": "0x00000000000010000000000000040000000000000000000000000000000000000100000000000800080000000000000000000000000000000000000000000000000000000000000000000008000000000000000000000000000000000000000000000000000000000000000000000000000000000000000000000010000000000000000000000000800044000000000000000000000000000000000000000000200000000000000000000000000000000000000000000000000000000000000000000402000000000000000000000000000800000000000000000000000000000000000000000000000000000000004000000000000000000000000000000000",
      "type": "0x2",
      "transactionHash": "0xaebdcaab462ea6b44aa60ac072d08c8264090cea98f523a59a0d39cb0eecbe48",
      "transactionIndex": "0xbf",
      "blockHash": "0xe1909485acf5874da0818aca3e2278653e8fc5d8f17d13ea82bfc93c70416b2b",
      "blockNumber": "0x12c0abf",
      "gasUsed": "0xa841",
      "effectiveGasPrice": "0x3a6bf6",
      "from": "0xe335cf211aa52f3a84257f61dde34c3bdfced560",
      "to": "0x2d37c6bfcb5cdd2cdb5c48c107b56a85b77d62e8",
      "contractAddress": null,
      "l1BaseFeeScalar": "0x8dd",
      "l1BlobBaseFee": "0x1",
      "l1BlobBaseFeeScalar": "0x101c12",
      "l1Fee": "0x16839cb97",
      "l1GasPrice": "0x63398d43",
      "l1GasUsed": "0x640"
    },
    {
      "status": "0x1",
      "cumulativeGasUsed": "0x16d057c",
      "logs": [
        {
          "address": "0x2d37c6bfcb5cdd2cdb5c48c107b56a85b77d62e8",
          "topics": [
            "0xddf252ad1be2c89b69c2b068fc378daa952ba7f163c4a11628f55a4df523b3ef",
            "0x000000000000000000000000e335cf211aa52f3a84257f61dde34c3bdfced560",
            "0x000000000000000000000000000000000000000000000000000000000000dead",
            "0x000000000000000000000000000000000000000000000000000000000000003b"
          ],
          "data": "0x",
          "blockHash": "0xe1909485acf5874da0818aca3e2278653e8fc5d8f17d13ea82bfc93c70416b2b",
          "blockNumber": "0x12c0abf",
          "transactionHash": "0x7df3922ab78e60e1ee11f0546a08a836a1b166713769f750f9526ffa9f408bbb",
          "transactionIndex": "0xc0",
          "logIndex": "0x224",
          "removed": false
        }
      ],
      "logsBloom": "0x00000000000010000000000000000000000000000000000000000000000000000100000000000000000000000000000000000000000000000000000000000000000000000000000000000008000000000000000000000000000000000000000000000000000000000000000000000020000000000000000000000010000000000000000800000000800044000000000000000000000000000000000000000000200000000000000000000000000000000000000000000000000000000000000000000402000000000000000000000000000800000000000000000002000000000000000000000000000000000000004000000000000000000000000000000000",
      "type": "0x2",
      "transactionHash": "0x7df3922ab78e60e1ee11f0546a08a836a1b166713769f750f9526ffa9f408bbb",
      "transactionIndex": "0xc0",
      "blockHash": "0xe1909485acf5874da0818aca3e2278653e8fc5d8f17d13ea82bfc93c70416b2b",
      "blockNumber": "0x12c0abf",
      "gasUsed": "0xa841",
      "effectiveGasPrice": "0x3a6bf6",
      "from": "0xe335cf211aa52f3a84257f61dde34c3bdfced560",
      "to": "0x2d37c6bfcb5cdd2cdb5c48c107b56a85b77d62e8",
      "contractAddress": null,
      "l1BaseFeeScalar": "0x8dd",
      "l1BlobBaseFee": "0x1",
      "l1BlobBaseFeeScalar": "0x101c12",
      "l1Fee": "0x16839cb97",
      "l1GasPrice": "0x63398d43",
      "l1GasUsed": "0x640"
    },
    {
      "status": "0x1",
      "cumulativeGasUsed": "0x16dadbd",
      "logs": [
        {
          "address": "0x2d37c6bfcb5cdd2cdb5c48c107b56a85b77d62e8",
          "topics": [
            "0xddf252ad1be2c89b69c2b068fc378daa952ba7f163c4a11628f55a4df523b3ef",
            "0x000000000000000000000000e335cf211aa52f3a84257f61dde34c3bdfced560",
            "0x000000000000000000000000000000000000000000000000000000000000dead",
            "0x000000000000000000000000000000000000000000000000000000000000003a"
          ],
          "data": "0x",
          "blockHash": "0xe1909485acf5874da0818aca3e2278653e8fc5d8f17d13ea82bfc93c70416b2b",
          "blockNumber": "0x12c0abf",
          "transactionHash": "0x9c121550eba5dbf1259948c27f96cda0b6d80d821ef2976959a08629cd6ebc1a",
          "transactionIndex": "0xc1",
          "logIndex": "0x225",
          "removed": false
        }
      ],
      "logsBloom": "0x00000000000010000000000000000000000000000000000000000000000000000100000000000000000000000000000000000000000000000000000000000000000000000000000000000008000000020000000000000000000000000000000000000000000000000000000000000000000000000000000000000010000000000000000000000000800044000000000000000080000000000000000000000000200000000000000000000000020000000000000000000000000000000000000000000402000000000000000000000000000800000000000000000000000000000000000000000000000000000000004000000000000000000000000000000000",
      "type": "0x2",
      "transactionHash": "0x9c121550eba5dbf1259948c27f96cda0b6d80d821ef2976959a08629cd6ebc1a",
      "transactionIndex": "0xc1",
      "blockHash": "0xe1909485acf5874da0818aca3e2278653e8fc5d8f17d13ea82bfc93c70416b2b",
      "blockNumber": "0x12c0abf",
      "gasUsed": "0xa841",
      "effectiveGasPrice": "0x3a6bf6",
      "from": "0xe335cf211aa52f3a84257f61dde34c3bdfced560",
      "to": "0x2d37c6bfcb5cdd2cdb5c48c107b56a85b77d62e8",
      "contractAddress": null,
      "l1BaseFeeScalar": "0x8dd",
      "l1BlobBaseFee": "0x1",
      "l1BlobBaseFeeScalar": "0x101c12",
      "l1Fee": "0x16839cb97",
      "l1GasPrice": "0x63398d43",
      "l1GasUsed": "0x640"
    },
    {
      "status": "0x1",
      "cumulativeGasUsed": "0x16e55fe",
      "logs": [
        {
          "address": "0x2d37c6bfcb5cdd2cdb5c48c107b56a85b77d62e8",
          "topics": [
            "0xddf252ad1be2c89b69c2b068fc378daa952ba7f163c4a11628f55a4df523b3ef",
            "0x000000000000000000000000e335cf211aa52f3a84257f61dde34c3bdfced560",
            "0x000000000000000000000000000000000000000000000000000000000000dead",
            "0x0000000000000000000000000000000000000000000000000000000000000039"
          ],
          "data": "0x",
          "blockHash": "0xe1909485acf5874da0818aca3e2278653e8fc5d8f17d13ea82bfc93c70416b2b",
          "blockNumber": "0x12c0abf",
          "transactionHash": "0x09b12047feb0a67bb8a8608ec90d93ca0f24edb194f5e63c0e4c79ceafebaf43",
          "transactionIndex": "0xc2",
          "logIndex": "0x226",
          "removed": false
        }
      ],
      "logsBloom": "0x00000000000010000000000000002000000000000000000000000000000000000180000000000000000000000000000000000000000000000000000000000000000000000000000000000008000000000000000000000000000000000000000000000000000000000000000000000000000000000000000000000010004000000000000000000000800044000000000000000000000000000000000000000000200000000000000000000000000000000000000000000000000000000000000000000402000000000000000000000000000800000000000000000000000000000000000000000000000000000000004000000000000000000000000000000000",
      "type": "0x2",
      "transactionHash": "0x09b12047feb0a67bb8a8608ec90d93ca0f24edb194f5e63c0e4c79ceafebaf43",
      "transactionIndex": "0xc2",
      "blockHash": "0xe1909485acf5874da0818aca3e2278653e8fc5d8f17d13ea82bfc93c70416b2b",
      "blockNumber": "0x12c0abf",
      "gasUsed": "0xa841",
      "effectiveGasPrice": "0x3a6bf6",
      "from": "0xe335cf211aa52f3a84257f61dde34c3bdfced560",
      "to": "0x2d37c6bfcb5cdd2cdb5c48c107b56a85b77d62e8",
      "contractAddress": null,
      "l1BaseFeeScalar": "0x8dd",
      "l1BlobBaseFee": "0x1",
      "l1BlobBaseFeeScalar": "0x101c12",
      "l1Fee": "0x16839cb97",
      "l1GasPrice": "0x63398d43",
      "l1GasUsed": "0x640"
    },
    {
      "status": "0x1",
      "cumulativeGasUsed": "0x16efe3f",
      "logs": [
        {
          "address": "0x2d37c6bfcb5cdd2cdb5c48c107b56a85b77d62e8",
          "topics": [
            "0xddf252ad1be2c89b69c2b068fc378daa952ba7f163c4a11628f55a4df523b3ef",
            "0x000000000000000000000000e335cf211aa52f3a84257f61dde34c3bdfced560",
            "0x000000000000000000000000000000000000000000000000000000000000dead",
            "0x0000000000000000000000000000000000000000000000000000000000000037"
          ],
          "data": "0x",
          "blockHash": "0xe1909485acf5874da0818aca3e2278653e8fc5d8f17d13ea82bfc93c70416b2b",
          "blockNumber": "0x12c0abf",
          "transactionHash": "0x44d2cd09320c7b7bb8cc792632958bb7330bd0bc6c195874226163dadb5905ba",
          "transactionIndex": "0xc3",
          "logIndex": "0x227",
          "removed": false
        }
      ],
      "logsBloom": "0x00000000200010000000000000000000000000000000000000000000000000000100000000000000000000000000000000000000000000000000000000000000000000000000000000000008000000000000000000000000000000000000000000000000000000000000000000000000000000000000000000000010000000000000000000000000800044000000000000000000000000000000000000000000200000000000000000000080000000000000000000000000000000000000000000000402000000000000000000000000000800000000000000000000000000000000000000000000000000000000004000000000100000000000000000000000",
      "type": "0x2",
      "transactionHash": "0x44d2cd09320c7b7bb8cc792632958bb7330bd0bc6c195874226163dadb5905ba",
      "transactionIndex": "0xc3",
      "blockHash": "0xe1909485acf5874da0818aca3e2278653e8fc5d8f17d13ea82bfc93c70416b2b",
      "blockNumber": "0x12c0abf",
      "gasUsed": "0xa841",
      "effectiveGasPrice": "0x3a6bf6",
      "from": "0xe335cf211aa52f3a84257f61dde34c3bdfced560",
      "to": "0x2d37c6bfcb5cdd2cdb5c48c107b56a85b77d62e8",
      "contractAddress": null,
      "l1BaseFeeScalar": "0x8dd",
      "l1BlobBaseFee": "0x1",
      "l1BlobBaseFeeScalar": "0x101c12",
      "l1Fee": "0x16839cb97",
      "l1GasPrice": "0x63398d43",
      "l1GasUsed": "0x640"
    },
    {
      "status": "0x1",
      "cumulativeGasUsed": "0x16fa680",
      "logs": [
        {
          "address": "0x2d37c6bfcb5cdd2cdb5c48c107b56a85b77d62e8",
          "topics": [
            "0xddf252ad1be2c89b69c2b068fc378daa952ba7f163c4a11628f55a4df523b3ef",
            "0x000000000000000000000000e335cf211aa52f3a84257f61dde34c3bdfced560",
            "0x000000000000000000000000000000000000000000000000000000000000dead",
            "0x0000000000000000000000000000000000000000000000000000000000000036"
          ],
          "data": "0x",
          "blockHash": "0xe1909485acf5874da0818aca3e2278653e8fc5d8f17d13ea82bfc93c70416b2b",
          "blockNumber": "0x12c0abf",
          "transactionHash": "0xfe8b45b39265aca0cf587bf8e4a2aa971d5dc6154bf426aeaba7d619f5cf0a8c",
          "transactionIndex": "0xc4",
          "logIndex": "0x228",
          "removed": false
        }
      ],
      "logsBloom": "0x00000000000010000000000000000000000000000000000000000000000000000100000000000000000000000000000000000000000000000000000000000000000000000000000000000008000000000000000000000000000000000000000000000000000000000000000000000000000000000000000000000010000000000000000000000000800044000000000000000000000000000000000000000000200000000000000000000000000000000000000000000000000000000002000000000402000000000000000000000000000800000000400000000000000000000000000000000000000002000000004000000000000000000000000000000000",
      "type": "0x2",
      "transactionHash": "0xfe8b45b39265aca0cf587bf8e4a2aa971d5dc6154bf426aeaba7d619f5cf0a8c",
      "transactionIndex": "0xc4",
      "blockHash": "0xe1909485acf5874da0818aca3e2278653e8fc5d8f17d13ea82bfc93c70416b2b",
      "blockNumber": "0x12c0abf",
      "gasUsed": "0xa841",
      "effectiveGasPrice": "0x3a6bf6",
      "from": "0xe335cf211aa52f3a84257f61dde34c3bdfced560",
      "to": "0x2d37c6bfcb5cdd2cdb5c48c107b56a85b77d62e8",
      "contractAddress": null,
      "l1BaseFeeScalar": "0x8dd",
      "l1BlobBaseFee": "0x1",
      "l1BlobBaseFeeScalar": "0x101c12",
      "l1Fee": "0x16839cb97",
      "l1GasPrice": "0x63398d43",
      "l1GasUsed": "0x640"
    },
    {
      "status": "0x1",
      "cumulativeGasUsed": "0x1704ec1",
      "logs": [
        {
          "address": "0x2d37c6bfcb5cdd2cdb5c48c107b56a85b77d62e8",
          "topics": [
            "0xddf252ad1be2c89b69c2b068fc378daa952ba7f163c4a11628f55a4df523b3ef",
            "0x000000000000000000000000e335cf211aa52f3a84257f61dde34c3bdfced560",
            "0x000000000000000000000000000000000000000000000000000000000000dead",
            "0x0000000000000000000000000000000000000000000000000000000000000035"
          ],
          "data": "0x",
          "blockHash": "0xe1909485acf5874da0818aca3e2278653e8fc5d8f17d13ea82bfc93c70416b2b",
          "blockNumber": "0x12c0abf",
          "transactionHash": "0x9eb157a06140ad6d51fd4b184eaefce96932096693ed5e66b8156571d7f8c8c1",
          "transactionIndex": "0xc5",
          "logIndex": "0x229",
          "removed": false
        }
      ],
      "logsBloom": "0x00000000000010000000001000000000000000000000000000000000000000000100000000000002000000000000000000000000000000000000000000000000000000000000000000000008000000000000000000000000000000000000000000000000000000000000000000000000000000000000000000000010000000000000000000000000800044000000000000000000000000000000020000000000200000000000000000000000000000000000000000000000000000000000000000000402000000000000000000000000000800000000000000000000000000000000000000000000000000000000004000000000000000000000000000000000",
      "type": "0x2",
      "transactionHash": "0x9eb157a06140ad6d51fd4b184eaefce96932096693ed5e66b8156571d7f8c8c1",
      "transactionIndex": "0xc5",
      "blockHash": "0xe1909485acf5874da0818aca3e2278653e8fc5d8f17d13ea82bfc93c70416b2b",
      "blockNumber": "0x12c0abf",
      "gasUsed": "0xa841",
      "effectiveGasPrice": "0x3a6bf6",
      "from": "0xe335cf211aa52f3a84257f61dde34c3bdfced560",
      "to": "0x2d37c6bfcb5cdd2cdb5c48c107b56a85b77d62e8",
      "contractAddress": null,
      "l1BaseFeeScalar": "0x8dd",
      "l1BlobBaseFee": "0x1",
      "l1BlobBaseFeeScalar": "0x101c12",
      "l1Fee": "0x16839cb97",
      "l1GasPrice": "0x63398d43",
      "l1GasUsed": "0x640"
    },
    {
      "status": "0x1",
      "cumulativeGasUsed": "0x170f702",
      "logs": [
        {
          "address": "0x2d37c6bfcb5cdd2cdb5c48c107b56a85b77d62e8",
          "topics": [
            "0xddf252ad1be2c89b69c2b068fc378daa952ba7f163c4a11628f55a4df523b3ef",
            "0x000000000000000000000000e335cf211aa52f3a84257f61dde34c3bdfced560",
            "0x000000000000000000000000000000000000000000000000000000000000dead",
            "0x0000000000000000000000000000000000000000000000000000000000000034"
          ],
          "data": "0x",
          "blockHash": "0xe1909485acf5874da0818aca3e2278653e8fc5d8f17d13ea82bfc93c70416b2b",
          "blockNumber": "0x12c0abf",
          "transactionHash": "0x3374cd351840a23b73c10380007ccc2cae8f5706b11fd47247897aee92772e3a",
          "transactionIndex": "0xc6",
          "logIndex": "0x22a",
          "removed": false
        }
      ],
      "logsBloom": "0x00000000000010000000000000000000000000000000000000000000000000000100000000000000200000000000000000000000000000000000000000000000000000000000000000000008000000000000000000000000000000000000000000000000000000000000000000000000000000000000000000000010000000000000000000000000800044000000000000000000000000000000000000020000200000000000000000000000000000000000000000000000000000000000000000000402000000000000000000000000000800000000000000000000000000000000020000000000000000000000004000000000000000000000000000000000",
      "type": "0x2",
      "transactionHash": "0x3374cd351840a23b73c10380007ccc2cae8f5706b11fd47247897aee92772e3a",
      "transactionIndex": "0xc6",
      "blockHash": "0xe1909485acf5874da0818aca3e2278653e8fc5d8f17d13ea82bfc93c70416b2b",
      "blockNumber": "0x12c0abf",
      "gasUsed": "0xa841",
      "effectiveGasPrice": "0x3a6bf6",
      "from": "0xe335cf211aa52f3a84257f61dde34c3bdfced560",
      "to": "0x2d37c6bfcb5cdd2cdb5c48c107b56a85b77d62e8",
      "contractAddress": null,
      "l1BaseFeeScalar": "0x8dd",
      "l1BlobBaseFee": "0x1",
      "l1BlobBaseFeeScalar": "0x101c12",
      "l1Fee": "0x16839cb97",
      "l1GasPrice": "0x63398d43",
      "l1GasUsed": "0x640"
    },
    {
      "status": "0x1",
      "cumulativeGasUsed": "0x1719f43",
      "logs": [
        {
          "address": "0x2d37c6bfcb5cdd2cdb5c48c107b56a85b77d62e8",
          "topics": [
            "0xddf252ad1be2c89b69c2b068fc378daa952ba7f163c4a11628f55a4df523b3ef",
            "0x000000000000000000000000e335cf211aa52f3a84257f61dde34c3bdfced560",
            "0x000000000000000000000000000000000000000000000000000000000000dead",
            "0x0000000000000000000000000000000000000000000000000000000000000033"
          ],
          "data": "0x",
          "blockHash": "0xe1909485acf5874da0818aca3e2278653e8fc5d8f17d13ea82bfc93c70416b2b",
          "blockNumber": "0x12c0abf",
          "transactionHash": "0xf0c1f7087ec84ab8bea8ca9cdd86330231308c08c93ab2b31255a046573b3625",
          "transactionIndex": "0xc7",
          "logIndex": "0x22b",
          "removed": false
        }
      ],
      "logsBloom": "0x00000000000010000000000000000000000000000000000000000000000000000100000000000000000000000000000000000000000000000000000000000000000000000000000000000008000000000000000000000000000000000000000000000000000000000000000000000000000000000000000000000010000000000000000040000000800044000000000000000000000000000000000000000000200001000000000000000080000000000000000000000000000000000000000000000402000000000000000000000000000800000000000000000000000000000000000000000000000000000000004000000000000000000000000000000000",
      "type": "0x2",
      "transactionHash": "0xf0c1f7087ec84ab8bea8ca9cdd86330231308c08c93ab2b31255a046573b3625",
      "transactionIndex": "0xc7",
      "blockHash": "0xe1909485acf5874da0818aca3e2278653e8fc5d8f17d13ea82bfc93c70416b2b",
      "blockNumber": "0x12c0abf",
      "gasUsed": "0xa841",
      "effectiveGasPrice": "0x3a6bf6",
      "from": "0xe335cf211aa52f3a84257f61dde34c3bdfced560",
      "to": "0x2d37c6bfcb5cdd2cdb5c48c107b56a85b77d62e8",
      "contractAddress": null,
      "l1BaseFeeScalar": "0x8dd",
      "l1BlobBaseFee": "0x1",
      "l1BlobBaseFeeScalar": "0x101c12",
      "l1Fee": "0x16839cb97",
      "l1GasPrice": "0x63398d43",
      "l1GasUsed": "0x640"
    },
    {
      "status": "0x1",
      "cumulativeGasUsed": "0x1724784",
      "logs": [
        {
          "address": "0x2d37c6bfcb5cdd2cdb5c48c107b56a85b77d62e8",
          "topics": [
            "0xddf252ad1be2c89b69c2b068fc378daa952ba7f163c4a11628f55a4df523b3ef",
            "0x000000000000000000000000e335cf211aa52f3a84257f61dde34c3bdfced560",
            "0x000000000000000000000000000000000000000000000000000000000000dead",
            "0x000000000000000000000000000000000000000000000000000000000000002b"
          ],
          "data": "0x",
          "blockHash": "0xe1909485acf5874da0818aca3e2278653e8fc5d8f17d13ea82bfc93c70416b2b",
          "blockNumber": "0x12c0abf",
          "transactionHash": "0x7b856522ad111916289d44a62b5dcdebbc7d9b960bc3afa140d74a056b15fbcc",
          "transactionIndex": "0xc8",
          "logIndex": "0x22c",
          "removed": false
        }
      ],
      "logsBloom": "0x00000000000010000000000000000000000000000000000000000000000000000100000000000000000000000000000000000000000001000000000000000000000000000000000000800008000000000000000000000000000000000000000000000000000000000000000000000000000000000000000000000010000000000000000000000000800044000000000000000000000000000000000000000000200000000000000000000000000000000000000000000000000000000000000000000402000000100000000000000000000800000000000000000000000000000000000000000000000000000000004000000000000000000000000000000000",
      "type": "0x2",
      "transactionHash": "0x7b856522ad111916289d44a62b5dcdebbc7d9b960bc3afa140d74a056b15fbcc",
      "transactionIndex": "0xc8",
      "blockHash": "0xe1909485acf5874da0818aca3e2278653e8fc5d8f17d13ea82bfc93c70416b2b",
      "blockNumber": "0x12c0abf",
      "gasUsed": "0xa841",
      "effectiveGasPrice": "0x3a6bf6",
      "from": "0xe335cf211aa52f3a84257f61dde34c3bdfced560",
      "to": "0x2d37c6bfcb5cdd2cdb5c48c107b56a85b77d62e8",
      "contractAddress": null,
      "l1BaseFeeScalar": "0x8dd",
      "l1BlobBaseFee": "0x1",
      "l1BlobBaseFeeScalar": "0x101c12",
      "l1Fee": "0x16839cb97",
      "l1GasPrice": "0x63398d43",
      "l1GasUsed": "0x640"
    },
    {
      "status": "0x1",
      "cumulativeGasUsed": "0x172efc5",
      "logs": [
        {
          "address": "0x2d37c6bfcb5cdd2cdb5c48c107b56a85b77d62e8",
          "topics": [
            "0xddf252ad1be2c89b69c2b068fc378daa952ba7f163c4a11628f55a4df523b3ef",
            "0x000000000000000000000000e335cf211aa52f3a84257f61dde34c3bdfced560",
            "0x000000000000000000000000000000000000000000000000000000000000dead",
            "0x0000000000000000000000000000000000000000000000000000000000000028"
          ],
          "data": "0x",
          "blockHash": "0xe1909485acf5874da0818aca3e2278653e8fc5d8f17d13ea82bfc93c70416b2b",
          "blockNumber": "0x12c0abf",
          "transactionHash": "0x14903b0b775b3aa0faea9a2726b0e28a757364aacbbe5e6cb76ed4e41c384b02",
          "transactionIndex": "0xc9",
          "logIndex": "0x22d",
          "removed": false
        }
      ],
      "logsBloom": "0x00000000000010000000000000000000000000000000000000000000000000000100000000000000000000000000000000000000000000000000000000000000000000000000000000000008000000000000000000000000000000000000000000000000000000000000000000000000000000000000000000000010000000000000000000000000800044000000000000000000000000000000000000000000200000000100000000000000000000000000000000000000000000000000000000000402000000000000000000000000000820000000000000000008000000000000000000000000000000000000004000000000000000000000000000000000",
      "type": "0x2",
      "transactionHash": "0x14903b0b775b3aa0faea9a2726b0e28a757364aacbbe5e6cb76ed4e41c384b02",
      "transactionIndex": "0xc9",
      "blockHash": "0xe1909485acf5874da0818aca3e2278653e8fc5d8f17d13ea82bfc93c70416b2b",
      "blockNumber": "0x12c0abf",
      "gasUsed": "0xa841",
      "effectiveGasPrice": "0x3a6bf6",
      "from": "0xe335cf211aa52f3a84257f61dde34c3bdfced560",
      "to": "0x2d37c6bfcb5cdd2cdb5c48c107b56a85b77d62e8",
      "contractAddress": null,
      "l1BaseFeeScalar": "0x8dd",
      "l1BlobBaseFee": "0x1",
      "l1BlobBaseFeeScalar": "0x101c12",
      "l1Fee": "0x16839cb97",
      "l1GasPrice": "0x63398d43",
      "l1GasUsed": "0x640"
    },
    {
      "status": "0x1",
      "cumulativeGasUsed": "0x17ae39c",
      "logs": [
        {
          "address": "0x2d37c6bfcb5cdd2cdb5c48c107b56a85b77d62e8",
          "topics": [
            "0xddf252ad1be2c89b69c2b068fc378daa952ba7f163c4a11628f55a4df523b3ef",
            "0x000000000000000000000000e335cf211aa52f3a84257f61dde34c3bdfced560",
            "0x000000000000000000000000000000000000000000000000000000000000dead",
            "0x0000000000000000000000000000000000000000000000000000000000000026"
          ],
          "data": "0x",
          "blockHash": "0xe1909485acf5874da0818aca3e2278653e8fc5d8f17d13ea82bfc93c70416b2b",
          "blockNumber": "0x12c0abf",
          "transactionHash": "0x883f0dd67bd2d65d7e47193d1bbd2cbc76b87681fd4f248a4894b6620767bbb0",
          "transactionIndex": "0xcb",
          "logIndex": "0x22e",
          "removed": false
        }
      ],
      "logsBloom": "0x00000000000010000000000000000000000000000000000000000000000000000100000000000000000000000000000000000000000000000000000000000000000000000000000000000008000000000001000000000000000000000000000001000000000000000000000000000000000000000000040000000010000000000000000000000000800044000000000000000000000000000000000000000000200000000000000000000000000000000000000000000000000000000000000000000402000000000000000000000000000800000000000000000000000000000000000000000000000000000000004000000000000000000000000000000000",
      "type": "0x2",
      "transactionHash": "0x883f0dd67bd2d65d7e47193d1bbd2cbc76b87681fd4f248a4894b6620767bbb0",
      "transactionIndex": "0xcb",
      "blockHash": "0xe1909485acf5874da0818aca3e2278653e8fc5d8f17d13ea82bfc93c70416b2b",
      "blockNumber": "0x12c0abf",
      "gasUsed": "0xa841",
      "effectiveGasPrice": "0x3a6bf6",
      "from": "0xe335cf211aa52f3a84257f61dde34c3bdfced560",
      "to": "0x2d37c6bfcb5cdd2cdb5c48c107b56a85b77d62e8",
      "contractAddress": null,
      "l1BaseFeeScalar": "0x8dd",
      "l1BlobBaseFee": "0x1",
      "l1BlobBaseFeeScalar": "0x101c12",
      "l1Fee": "0x16839cb97",
      "l1GasPrice": "0x63398d43",
      "l1GasUsed": "0x640"
    },
    {
      "status": "0x1",
      "cumulativeGasUsed": "0x17b791d",
      "logs": [
        {
          "address": "0x2d37c6bfcb5cdd2cdb5c48c107b56a85b77d62e8",
          "topics": [
            "0xddf252ad1be2c89b69c2b068fc378daa952ba7f163c4a11628f55a4df523b3ef",
            "0x000000000000000000000000e335cf211aa52f3a84257f61dde34c3bdfced560",
            "0x000000000000000000000000000000000000000000000000000000000000dead",
            "0x0000000000000000000000000000000000000000000000000000000000000024"
          ],
          "data": "0x",
          "blockHash": "0xe1909485acf5874da0818aca3e2278653e8fc5d8f17d13ea82bfc93c70416b2b",
          "blockNumber": "0x12c0abf",
          "transactionHash": "0x55c295889b61b181125de60332fcc1f950f53c036753f89ce9b10af72886c810",
          "transactionIndex": "0xcc",
          "logIndex": "0x22f",
          "removed": false
        }
      ],
      "logsBloom": "0x00000000000010000000000000000000000000000000000000000000000000000100000000000000000000000000000000000000000000000000000000000000000000000000000000000008000000000000000000000000000000000000000000000000000800000000000000000000000000000000000000000010000000000000000000000000800044000008000000000000000000000000000000000000200000000002000000000000000000000000000000000000000000000000000000000402000000000000000000000000000800000000000000000000000000000000000000000000000000000000004000000000000000000000000000000000",
      "type": "0x2",
      "transactionHash": "0x55c295889b61b181125de60332fcc1f950f53c036753f89ce9b10af72886c810",
      "transactionIndex": "0xcc",
      "blockHash": "0xe1909485acf5874da0818aca3e2278653e8fc5d8f17d13ea82bfc93c70416b2b",
      "blockNumber": "0x12c0abf",
      "gasUsed": "0x9581",
      "effectiveGasPrice": "0x3a6bf6",
      "from": "0xe335cf211aa52f3a84257f61dde34c3bdfced560",
      "to": "0x2d37c6bfcb5cdd2cdb5c48c107b56a85b77d62e8",
      "contractAddress": null,
      "l1BaseFeeScalar": "0x8dd",
      "l1BlobBaseFee": "0x1",
      "l1BlobBaseFeeScalar": "0x101c12",
      "l1Fee": "0x16839cb97",
      "l1GasPrice": "0x63398d43",
      "l1GasUsed": "0x640"
    }
  ],
  "libraries": [],
  "pending": [],
  "returns": {},
  "timestamp": 1726116456,
  "chain": 8453,
  "commit": "534ac96"
}