{
  "transactions": [
    {
      "hash": "0x27c04fb3f986d76c87b581e30da7cc74b3f264235ad156605665b7106690845f",
      "transactionType": "CALL",
      "contractName": null,
      "contractAddress": "0x82d515a0c3a2e98126e0bcb2bb3ebe7a2b8b64ae",
      "function": "executeCall(address,uint256,bytes)",
      "arguments": [
        "0x2D37C6bfcb5CDD2cDb5c48C107B56a85B77d62e8",
        "0",
        "0x23b872dd00000000000000000000000082d515a0c3a2e98126e0bcb2bb3ebe7a2b8b64ae000000000000000000000000000000000000000000000000000000000000dead000000000000000000000000000000000000000000000000000000000000000d"
      ],
      "transaction": {
        "from": "0xf53f105e90b3e9ea928926a5a78e921d8168e213",
        "to": "0x82d515a0c3a2e98126e0bcb2bb3ebe7a2b8b64ae",
        "gas": "0x2785f",
        "value": "0x0",
        "input": "0x9e5d4c490000000000000000000000002d37c6bfcb5cdd2cdb5c48c107b56a85b77d62e800000000000000000000000000000000000000000000000000000000000000000000000000000000000000000000000000000000000000000000000000000060000000000000000000000000000000000000000000000000000000000000006423b872dd00000000000000000000000082d515a0c3a2e98126e0bcb2bb3ebe7a2b8b64ae000000000000000000000000000000000000000000000000000000000000dead000000000000000000000000000000000000000000000000000000000000000d00000000000000000000000000000000000000000000000000000000",
        "nonce": "0x1c",
        "chainId": "0x2105"
      },
      "additionalContracts": [],
      "isFixedGasLimit": false
    },
    {
      "hash": "0xe7f5fff6fe38a308adf157bb2839f033c29b04d87655ca53308c8c1c850bb6e4",
      "transactionType": "CALL",
      "contractName": null,
      "contractAddress": "0x229ad84ef87caa3faf81bb46554a98bdf541d58f",
      "function": "executeCall(address,uint256,bytes)",
      "arguments": [
        "0x2D37C6bfcb5CDD2cDb5c48C107B56a85B77d62e8",
        "0",
        "0x23b872dd000000000000000000000000229ad84ef87caa3faf81bb46554a98bdf541d58f000000000000000000000000000000000000000000000000000000000000dead000000000000000000000000000000000000000000000000000000000000000e"
      ],
      "transaction": {
        "from": "0xf53f105e90b3e9ea928926a5a78e921d8168e213",
        "to": "0x229ad84ef87caa3faf81bb46554a98bdf541d58f",
        "gas": "0x21c1c",
        "value": "0x0",
        "input": "0x9e5d4c490000000000000000000000002d37c6bfcb5cdd2cdb5c48c107b56a85b77d62e800000000000000000000000000000000000000000000000000000000000000000000000000000000000000000000000000000000000000000000000000000060000000000000000000000000000000000000000000000000000000000000006423b872dd000000000000000000000000229ad84ef87caa3faf81bb46554a98bdf541d58f000000000000000000000000000000000000000000000000000000000000dead000000000000000000000000000000000000000000000000000000000000000e00000000000000000000000000000000000000000000000000000000",
        "nonce": "0x1d",
        "chainId": "0x2105"
      },
      "additionalContracts": [],
      "isFixedGasLimit": false
    },
    {
      "hash": "0xc1f669a0f0c6f4fb443d8df0ddddb022f50add37f1113767621466a7ced8e11a",
      "transactionType": "CALL",
      "contractName": null,
      "contractAddress": "0x01ae71867562fbf9e9c1a0c6d886ccba1520c9e1",
      "function": "executeCall(address,uint256,bytes)",
      "arguments": [
        "0x2D37C6bfcb5CDD2cDb5c48C107B56a85B77d62e8",
        "0",
        "0x23b872dd00000000000000000000000001ae71867562fbf9e9c1a0c6d886ccba1520c9e1000000000000000000000000000000000000000000000000000000000000dead0000000000000000000000000000000000000000000000000000000000000010"
      ],
      "transaction": {
        "from": "0xf53f105e90b3e9ea928926a5a78e921d8168e213",
        "to": "0x01ae71867562fbf9e9c1a0c6d886ccba1520c9e1",
        "gas": "0x21c1c",
        "value": "0x0",
        "input": "0x9e5d4c490000000000000000000000002d37c6bfcb5cdd2cdb5c48c107b56a85b77d62e800000000000000000000000000000000000000000000000000000000000000000000000000000000000000000000000000000000000000000000000000000060000000000000000000000000000000000000000000000000000000000000006423b872dd00000000000000000000000001ae71867562fbf9e9c1a0c6d886ccba1520c9e1000000000000000000000000000000000000000000000000000000000000dead000000000000000000000000000000000000000000000000000000000000001000000000000000000000000000000000000000000000000000000000",
        "nonce": "0x1e",
        "chainId": "0x2105"
      },
      "additionalContracts": [],
      "isFixedGasLimit": false
    },
    {
      "hash": "0x304e88516830013d162ba6223aed8dd968f0e3108c58cbe53726fe8b17706577",
      "transactionType": "CALL",
      "contractName": null,
      "contractAddress": "0x9b4cdefaae9bed2d3cb905efdb270d507ce8cb69",
      "function": "executeCall(address,uint256,bytes)",
      "arguments": [
        "0x2D37C6bfcb5CDD2cDb5c48C107B56a85B77d62e8",
        "0",
        "0x23b872dd0000000000000000000000009b4cdefaae9bed2d3cb905efdb270d507ce8cb69000000000000000000000000000000000000000000000000000000000000dead0000000000000000000000000000000000000000000000000000000000000030"
      ],
      "transaction": {
        "from": "0xf53f105e90b3e9ea928926a5a78e921d8168e213",
        "to": "0x9b4cdefaae9bed2d3cb905efdb270d507ce8cb69",
        "gas": "0x21c1c",
        "value": "0x0",
        "input": "0x9e5d4c490000000000000000000000002d37c6bfcb5cdd2cdb5c48c107b56a85b77d62e800000000000000000000000000000000000000000000000000000000000000000000000000000000000000000000000000000000000000000000000000000060000000000000000000000000000000000000000000000000000000000000006423b872dd0000000000000000000000009b4cdefaae9bed2d3cb905efdb270d507ce8cb69000000000000000000000000000000000000000000000000000000000000dead000000000000000000000000000000000000000000000000000000000000003000000000000000000000000000000000000000000000000000000000",
        "nonce": "0x1f",
        "chainId": "0x2105"
      },
      "additionalContracts": [],
      "isFixedGasLimit": false
    },
    {
      "hash": "0xd1e2f083526f35a2948d866955be500d30f89623a366489e817ad6178ca79f65",
      "transactionType": "CALL",
      "contractName": null,
      "contractAddress": "0xd04ee63c0c4defe9d1754d798ef19a7a32e71a8a",
      "function": "executeCall(address,uint256,bytes)",
      "arguments": [
        "0x2D37C6bfcb5CDD2cDb5c48C107B56a85B77d62e8",
        "0",
        "0x23b872dd000000000000000000000000d04ee63c0c4defe9d1754d798ef19a7a32e71a8a000000000000000000000000000000000000000000000000000000000000dead0000000000000000000000000000000000000000000000000000000000000031"
      ],
      "transaction": {
        "from": "0xf53f105e90b3e9ea928926a5a78e921d8168e213",
        "to": "0xd04ee63c0c4defe9d1754d798ef19a7a32e71a8a",
        "gas": "0x21c1c",
        "value": "0x0",
        "input": "0x9e5d4c490000000000000000000000002d37c6bfcb5cdd2cdb5c48c107b56a85b77d62e800000000000000000000000000000000000000000000000000000000000000000000000000000000000000000000000000000000000000000000000000000060000000000000000000000000000000000000000000000000000000000000006423b872dd000000000000000000000000d04ee63c0c4defe9d1754d798ef19a7a32e71a8a000000000000000000000000000000000000000000000000000000000000dead000000000000000000000000000000000000000000000000000000000000003100000000000000000000000000000000000000000000000000000000",
        "nonce": "0x20",
        "chainId": "0x2105"
      },
      "additionalContracts": [],
      "isFixedGasLimit": false
    },
    {
      "hash": "0xbe1af4c0fa173d0e041f43899ba99b7e19e538ca41923806313a47f1990872f7",
      "transactionType": "CALL",
      "contractName": null,
      "contractAddress": "0x053caf84348e8cfcb9981aca7765dfd1b54490cf",
      "function": "executeCall(address,uint256,bytes)",
      "arguments": [
        "0x2D37C6bfcb5CDD2cDb5c48C107B56a85B77d62e8",
        "0",
        "0x23b872dd000000000000000000000000053caf84348e8cfcb9981aca7765dfd1b54490cf000000000000000000000000000000000000000000000000000000000000dead0000000000000000000000000000000000000000000000000000000000000032"
      ],
      "transaction": {
        "from": "0xf53f105e90b3e9ea928926a5a78e921d8168e213",
        "to": "0x053caf84348e8cfcb9981aca7765dfd1b54490cf",
        "gas": "0x21c1c",
        "value": "0x0",
        "input": "0x9e5d4c490000000000000000000000002d37c6bfcb5cdd2cdb5c48c107b56a85b77d62e800000000000000000000000000000000000000000000000000000000000000000000000000000000000000000000000000000000000000000000000000000060000000000000000000000000000000000000000000000000000000000000006423b872dd000000000000000000000000053caf84348e8cfcb9981aca7765dfd1b54490cf000000000000000000000000000000000000000000000000000000000000dead000000000000000000000000000000000000000000000000000000000000003200000000000000000000000000000000000000000000000000000000",
        "nonce": "0x21",
        "chainId": "0x2105"
      },
      "additionalContracts": [],
      "isFixedGasLimit": false
    },
    {
      "hash": "0xd0c2d1ecb57cbe14370840342679495f5a838569009be9c1af8967988b0b8798",
      "transactionType": "CALL",
      "contractName": null,
      "contractAddress": "0x6a50fca73bd35e58649361bd1270725ae50672eb",
      "function": "executeCall(address,uint256,bytes)",
      "arguments": [
        "0x2D37C6bfcb5CDD2cDb5c48C107B56a85B77d62e8",
        "0",
        "0x23b872dd0000000000000000000000006a50fca73bd35e58649361bd1270725ae50672eb000000000000000000000000000000000000000000000000000000000000dead000000000000000000000000000000000000000000000000000000000000004d"
      ],
      "transaction": {
        "from": "0xf53f105e90b3e9ea928926a5a78e921d8168e213",
        "to": "0x6a50fca73bd35e58649361bd1270725ae50672eb",
        "gas": "0x21c1c",
        "value": "0x0",
        "input": "0x9e5d4c490000000000000000000000002d37c6bfcb5cdd2cdb5c48c107b56a85b77d62e800000000000000000000000000000000000000000000000000000000000000000000000000000000000000000000000000000000000000000000000000000060000000000000000000000000000000000000000000000000000000000000006423b872dd0000000000000000000000006a50fca73bd35e58649361bd1270725ae50672eb000000000000000000000000000000000000000000000000000000000000dead000000000000000000000000000000000000000000000000000000000000004d00000000000000000000000000000000000000000000000000000000",
        "nonce": "0x22",
        "chainId": "0x2105"
      },
      "additionalContracts": [],
      "isFixedGasLimit": false
    },
    {
      "hash": "0xd5c715aa12f3a9dc62ec40308500045f9472b47ed54ca82747a2ba2a22a4ca9c",
      "transactionType": "CALL",
      "contractName": null,
      "contractAddress": "0x5f579ab70e8874dd2c176e49b5beec2df343a43c",
      "function": "executeCall(address,uint256,bytes)",
      "arguments": [
        "0x2D37C6bfcb5CDD2cDb5c48C107B56a85B77d62e8",
        "0",
        "0x23b872dd0000000000000000000000005f579ab70e8874dd2c176e49b5beec2df343a43c000000000000000000000000000000000000000000000000000000000000dead0000000000000000000000000000000000000000000000000000000000000060"
      ],
      "transaction": {
        "from": "0xf53f105e90b3e9ea928926a5a78e921d8168e213",
        "to": "0x5f579ab70e8874dd2c176e49b5beec2df343a43c",
        "gas": "0x21c1c",
        "value": "0x0",
        "input": "0x9e5d4c490000000000000000000000002d37c6bfcb5cdd2cdb5c48c107b56a85b77d62e800000000000000000000000000000000000000000000000000000000000000000000000000000000000000000000000000000000000000000000000000000060000000000000000000000000000000000000000000000000000000000000006423b872dd0000000000000000000000005f579ab70e8874dd2c176e49b5beec2df343a43c000000000000000000000000000000000000000000000000000000000000dead000000000000000000000000000000000000000000000000000000000000006000000000000000000000000000000000000000000000000000000000",
        "nonce": "0x23",
        "chainId": "0x2105"
      },
      "additionalContracts": [],
      "isFixedGasLimit": false
    },
    {
      "hash": "0xfbadf18d98dff3bdbef756ca6aaac54d53ba5d5eda11569168e99ba943f4de36",
      "transactionType": "CALL",
      "contractName": null,
      "contractAddress": "0xf4bc52d7be342a06130d2811542835fe92fb675c",
      "function": "executeCall(address,uint256,bytes)",
      "arguments": [
        "0x2D37C6bfcb5CDD2cDb5c48C107B56a85B77d62e8",
        "0",
        "0x23b872dd000000000000000000000000f4bc52d7be342a06130d2811542835fe92fb675c000000000000000000000000000000000000000000000000000000000000dead0000000000000000000000000000000000000000000000000000000000000063"
      ],
      "transaction": {
        "from": "0xf53f105e90b3e9ea928926a5a78e921d8168e213",
        "to": "0xf4bc52d7be342a06130d2811542835fe92fb675c",
        "gas": "0x21c1c",
        "value": "0x0",
        "input": "0x9e5d4c490000000000000000000000002d37c6bfcb5cdd2cdb5c48c107b56a85b77d62e800000000000000000000000000000000000000000000000000000000000000000000000000000000000000000000000000000000000000000000000000000060000000000000000000000000000000000000000000000000000000000000006423b872dd000000000000000000000000f4bc52d7be342a06130d2811542835fe92fb675c000000000000000000000000000000000000000000000000000000000000dead000000000000000000000000000000000000000000000000000000000000006300000000000000000000000000000000000000000000000000000000",
        "nonce": "0x24",
        "chainId": "0x2105"
      },
      "additionalContracts": [],
      "isFixedGasLimit": false
    },
    {
      "hash": "0x227656b5ffc0c1bac52a943bba2a5d877ab8125cc455073f6d72958ca543c776",
      "transactionType": "CALL",
      "contractName": null,
      "contractAddress": "0x58e5c92127299b8d1c9d4cc8a92df6571258c892",
      "function": "executeCall(address,uint256,bytes)",
      "arguments": [
        "0x2D37C6bfcb5CDD2cDb5c48C107B56a85B77d62e8",
        "0",
        "0x23b872dd00000000000000000000000058e5c92127299b8d1c9d4cc8a92df6571258c892000000000000000000000000000000000000000000000000000000000000dead0000000000000000000000000000000000000000000000000000000000000065"
      ],
      "transaction": {
        "from": "0xf53f105e90b3e9ea928926a5a78e921d8168e213",
        "to": "0x58e5c92127299b8d1c9d4cc8a92df6571258c892",
        "gas": "0x21c1c",
        "value": "0x0",
        "input": "0x9e5d4c490000000000000000000000002d37c6bfcb5cdd2cdb5c48c107b56a85b77d62e800000000000000000000000000000000000000000000000000000000000000000000000000000000000000000000000000000000000000000000000000000060000000000000000000000000000000000000000000000000000000000000006423b872dd00000000000000000000000058e5c92127299b8d1c9d4cc8a92df6571258c892000000000000000000000000000000000000000000000000000000000000dead000000000000000000000000000000000000000000000000000000000000006500000000000000000000000000000000000000000000000000000000",
        "nonce": "0x25",
        "chainId": "0x2105"
      },
      "additionalContracts": [],
      "isFixedGasLimit": false
    },
    {
      "hash": "0xa38d55364b0813962fddb0c30490700aba4a441433ae8fc2b8cb3dde49f513fd",
      "transactionType": "CALL",
      "contractName": null,
      "contractAddress": "0x5067ded9af6d1845a7811bea6295479534d876fc",
      "function": "executeCall(address,uint256,bytes)",
      "arguments": [
        "0x2D37C6bfcb5CDD2cDb5c48C107B56a85B77d62e8",
        "0",
        "0x23b872dd0000000000000000000000005067ded9af6d1845a7811bea6295479534d876fc000000000000000000000000000000000000000000000000000000000000dead0000000000000000000000000000000000000000000000000000000000000066"
      ],
      "transaction": {
        "from": "0xf53f105e90b3e9ea928926a5a78e921d8168e213",
        "to": "0x5067ded9af6d1845a7811bea6295479534d876fc",
        "gas": "0x21c1c",
        "value": "0x0",
        "input": "0x9e5d4c490000000000000000000000002d37c6bfcb5cdd2cdb5c48c107b56a85b77d62e800000000000000000000000000000000000000000000000000000000000000000000000000000000000000000000000000000000000000000000000000000060000000000000000000000000000000000000000000000000000000000000006423b872dd0000000000000000000000005067ded9af6d1845a7811bea6295479534d876fc000000000000000000000000000000000000000000000000000000000000dead000000000000000000000000000000000000000000000000000000000000006600000000000000000000000000000000000000000000000000000000",
        "nonce": "0x26",
        "chainId": "0x2105"
      },
      "additionalContracts": [],
      "isFixedGasLimit": false
    },
    {
      "hash": "0xa3ab1dda7863d46f5e4408a11248812a2ca0f4c0d8e089f9c191ae7782f0ba02",
      "transactionType": "CALL",
      "contractName": null,
      "contractAddress": "0x2cdc959ed274741eebc4c2747830e03e12b94305",
      "function": "executeCall(address,uint256,bytes)",
      "arguments": [
        "0x2D37C6bfcb5CDD2cDb5c48C107B56a85B77d62e8",
        "0",
        "0x23b872dd0000000000000000000000002cdc959ed274741eebc4c2747830e03e12b94305000000000000000000000000000000000000000000000000000000000000dead0000000000000000000000000000000000000000000000000000000000000068"
      ],
      "transaction": {
        "from": "0xf53f105e90b3e9ea928926a5a78e921d8168e213",
        "to": "0x2cdc959ed274741eebc4c2747830e03e12b94305",
        "gas": "0x21c1c",
        "value": "0x0",
        "input": "0x9e5d4c490000000000000000000000002d37c6bfcb5cdd2cdb5c48c107b56a85b77d62e800000000000000000000000000000000000000000000000000000000000000000000000000000000000000000000000000000000000000000000000000000060000000000000000000000000000000000000000000000000000000000000006423b872dd0000000000000000000000002cdc959ed274741eebc4c2747830e03e12b94305000000000000000000000000000000000000000000000000000000000000dead000000000000000000000000000000000000000000000000000000000000006800000000000000000000000000000000000000000000000000000000",
        "nonce": "0x27",
        "chainId": "0x2105"
      },
      "additionalContracts": [],
      "isFixedGasLimit": false
    },
    {
      "hash": "0xb285d4d3f74b11d8005185c4607ff2b3bd4570b7a69587589f70e01d71c0da49",
      "transactionType": "CALL",
      "contractName": null,
      "contractAddress": "0x03fd661aee3ab4b86d2efe5096442c06320d3662",
      "function": "executeCall(address,uint256,bytes)",
      "arguments": [
        "0x2D37C6bfcb5CDD2cDb5c48C107B56a85B77d62e8",
        "0",
        "0x23b872dd00000000000000000000000003fd661aee3ab4b86d2efe5096442c06320d3662000000000000000000000000000000000000000000000000000000000000dead0000000000000000000000000000000000000000000000000000000000000069"
      ],
      "transaction": {
        "from": "0xf53f105e90b3e9ea928926a5a78e921d8168e213",
        "to": "0x03fd661aee3ab4b86d2efe5096442c06320d3662",
        "gas": "0x21c1c",
        "value": "0x0",
        "input": "0x9e5d4c490000000000000000000000002d37c6bfcb5cdd2cdb5c48c107b56a85b77d62e800000000000000000000000000000000000000000000000000000000000000000000000000000000000000000000000000000000000000000000000000000060000000000000000000000000000000000000000000000000000000000000006423b872dd00000000000000000000000003fd661aee3ab4b86d2efe5096442c06320d3662000000000000000000000000000000000000000000000000000000000000dead000000000000000000000000000000000000000000000000000000000000006900000000000000000000000000000000000000000000000000000000",
        "nonce": "0x28",
        "chainId": "0x2105"
      },
      "additionalContracts": [],
      "isFixedGasLimit": false
    },
    {
      "hash": "0xcebcdceb832fdbeb88ab63e4d6d8b1ff29588541435a96d997576aa315c9b233",
      "transactionType": "CALL",
      "contractName": null,
      "contractAddress": "0xddd4e693ffaa68436fe0ade79230d24c7a32af41",
      "function": "executeCall(address,uint256,bytes)",
      "arguments": [
        "0x2D37C6bfcb5CDD2cDb5c48C107B56a85B77d62e8",
        "0",
        "0x23b872dd000000000000000000000000ddd4e693ffaa68436fe0ade79230d24c7a32af41000000000000000000000000000000000000000000000000000000000000dead000000000000000000000000000000000000000000000000000000000000006b"
      ],
      "transaction": {
        "from": "0xf53f105e90b3e9ea928926a5a78e921d8168e213",
        "to": "0xddd4e693ffaa68436fe0ade79230d24c7a32af41",
        "gas": "0x21c1c",
        "value": "0x0",
        "input": "0x9e5d4c490000000000000000000000002d37c6bfcb5cdd2cdb5c48c107b56a85b77d62e800000000000000000000000000000000000000000000000000000000000000000000000000000000000000000000000000000000000000000000000000000060000000000000000000000000000000000000000000000000000000000000006423b872dd000000000000000000000000ddd4e693ffaa68436fe0ade79230d24c7a32af41000000000000000000000000000000000000000000000000000000000000dead000000000000000000000000000000000000000000000000000000000000006b00000000000000000000000000000000000000000000000000000000",
        "nonce": "0x29",
        "chainId": "0x2105"
      },
      "additionalContracts": [],
      "isFixedGasLimit": false
    },
    {
      "hash": "0x6eafb20599dd9ba69ed4fb9b47923dc300ac4cd9ad0db954ba917908070a160f",
      "transactionType": "CALL",
      "contractName": null,
      "contractAddress": "0xa66f5afa12a1323f97e6557d1976f73faddeb23b",
      "function": "executeCall(address,uint256,bytes)",
      "arguments": [
        "0x2D37C6bfcb5CDD2cDb5c48C107B56a85B77d62e8",
        "0",
        "0x23b872dd000000000000000000000000a66f5afa12a1323f97e6557d1976f73faddeb23b000000000000000000000000000000000000000000000000000000000000dead000000000000000000000000000000000000000000000000000000000000006d"
      ],
      "transaction": {
        "from": "0xf53f105e90b3e9ea928926a5a78e921d8168e213",
        "to": "0xa66f5afa12a1323f97e6557d1976f73faddeb23b",
        "gas": "0x21c1c",
        "value": "0x0",
        "input": "0x9e5d4c490000000000000000000000002d37c6bfcb5cdd2cdb5c48c107b56a85b77d62e800000000000000000000000000000000000000000000000000000000000000000000000000000000000000000000000000000000000000000000000000000060000000000000000000000000000000000000000000000000000000000000006423b872dd000000000000000000000000a66f5afa12a1323f97e6557d1976f73faddeb23b000000000000000000000000000000000000000000000000000000000000dead000000000000000000000000000000000000000000000000000000000000006d00000000000000000000000000000000000000000000000000000000",
        "nonce": "0x2a",
        "chainId": "0x2105"
      },
      "additionalContracts": [],
      "isFixedGasLimit": false
    },
    {
      "hash": "0xa4e1d9e5b3b80c4c6a47b28a88455d772d2930e8dc91ae65adff1542dbe55b60",
      "transactionType": "CALL",
      "contractName": null,
      "contractAddress": "0x95344b889129b5a56295c27da60ef7ba76e7af66",
      "function": "executeCall(address,uint256,bytes)",
      "arguments": [
        "0x2D37C6bfcb5CDD2cDb5c48C107B56a85B77d62e8",
        "0",
        "0x23b872dd00000000000000000000000095344b889129b5a56295c27da60ef7ba76e7af66000000000000000000000000000000000000000000000000000000000000dead000000000000000000000000000000000000000000000000000000000000006e"
      ],
      "transaction": {
        "from": "0xf53f105e90b3e9ea928926a5a78e921d8168e213",
        "to": "0x95344b889129b5a56295c27da60ef7ba76e7af66",
        "gas": "0x21c1c",
        "value": "0x0",
        "input": "0x9e5d4c490000000000000000000000002d37c6bfcb5cdd2cdb5c48c107b56a85b77d62e800000000000000000000000000000000000000000000000000000000000000000000000000000000000000000000000000000000000000000000000000000060000000000000000000000000000000000000000000000000000000000000006423b872dd00000000000000000000000095344b889129b5a56295c27da60ef7ba76e7af66000000000000000000000000000000000000000000000000000000000000dead000000000000000000000000000000000000000000000000000000000000006e00000000000000000000000000000000000000000000000000000000",
        "nonce": "0x2b",
        "chainId": "0x2105"
      },
      "additionalContracts": [],
      "isFixedGasLimit": false
    },
    {
      "hash": "0x706e8d3c146c0aa93d3da702be84df5d78c4239d9da19af1658f1f2779f22522",
      "transactionType": "CALL",
      "contractName": null,
      "contractAddress": "0xdf45e76a7db9468e1a7190d4a079d24942be1937",
      "function": "executeCall(address,uint256,bytes)",
      "arguments": [
        "0x2D37C6bfcb5CDD2cDb5c48C107B56a85B77d62e8",
        "0",
        "0x23b872dd000000000000000000000000df45e76a7db9468e1a7190d4a079d24942be1937000000000000000000000000000000000000000000000000000000000000dead0000000000000000000000000000000000000000000000000000000000000071"
      ],
      "transaction": {
        "from": "0xf53f105e90b3e9ea928926a5a78e921d8168e213",
        "to": "0xdf45e76a7db9468e1a7190d4a079d24942be1937",
        "gas": "0x21c1c",
        "value": "0x0",
        "input": "0x9e5d4c490000000000000000000000002d37c6bfcb5cdd2cdb5c48c107b56a85b77d62e800000000000000000000000000000000000000000000000000000000000000000000000000000000000000000000000000000000000000000000000000000060000000000000000000000000000000000000000000000000000000000000006423b872dd000000000000000000000000df45e76a7db9468e1a7190d4a079d24942be1937000000000000000000000000000000000000000000000000000000000000dead000000000000000000000000000000000000000000000000000000000000007100000000000000000000000000000000000000000000000000000000",
        "nonce": "0x2c",
        "chainId": "0x2105"
      },
      "additionalContracts": [],
      "isFixedGasLimit": false
    },
    {
      "hash": "0xbbfe5ccd9bb197ceeeb287f6dab484a3509c72f967dfe84d7c51d2d7b79a26d4",
      "transactionType": "CALL",
      "contractName": null,
      "contractAddress": "0x29e09f42b097165b962535490603539e7bf7f1cf",
      "function": "executeCall(address,uint256,bytes)",
      "arguments": [
        "0x2D37C6bfcb5CDD2cDb5c48C107B56a85B77d62e8",
        "0",
        "0x23b872dd00000000000000000000000029e09f42b097165b962535490603539e7bf7f1cf000000000000000000000000000000000000000000000000000000000000dead0000000000000000000000000000000000000000000000000000000000000073"
      ],
      "transaction": {
        "from": "0xf53f105e90b3e9ea928926a5a78e921d8168e213",
        "to": "0x29e09f42b097165b962535490603539e7bf7f1cf",
        "gas": "0x21c1c",
        "value": "0x0",
        "input": "0x9e5d4c490000000000000000000000002d37c6bfcb5cdd2cdb5c48c107b56a85b77d62e800000000000000000000000000000000000000000000000000000000000000000000000000000000000000000000000000000000000000000000000000000060000000000000000000000000000000000000000000000000000000000000006423b872dd00000000000000000000000029e09f42b097165b962535490603539e7bf7f1cf000000000000000000000000000000000000000000000000000000000000dead000000000000000000000000000000000000000000000000000000000000007300000000000000000000000000000000000000000000000000000000",
        "nonce": "0x2d",
        "chainId": "0x2105"
      },
      "additionalContracts": [],
      "isFixedGasLimit": false
    },
    {
      "hash": "0x48ff67dd57c99dcb1fe4f5fb4932014d9562cfdf51824c5f6da809179c6a7afb",
      "transactionType": "CALL",
      "contractName": null,
      "contractAddress": "0x5723df8511a3d35d3f5b08619842b69ac3781223",
      "function": "executeCall(address,uint256,bytes)",
      "arguments": [
        "0x2D37C6bfcb5CDD2cDb5c48C107B56a85B77d62e8",
        "0",
        "0x23b872dd0000000000000000000000005723df8511a3d35d3f5b08619842b69ac3781223000000000000000000000000000000000000000000000000000000000000dead0000000000000000000000000000000000000000000000000000000000000074"
      ],
      "transaction": {
        "from": "0xf53f105e90b3e9ea928926a5a78e921d8168e213",
        "to": "0x5723df8511a3d35d3f5b08619842b69ac3781223",
        "gas": "0x21c1c",
        "value": "0x0",
        "input": "0x9e5d4c490000000000000000000000002d37c6bfcb5cdd2cdb5c48c107b56a85b77d62e800000000000000000000000000000000000000000000000000000000000000000000000000000000000000000000000000000000000000000000000000000060000000000000000000000000000000000000000000000000000000000000006423b872dd0000000000000000000000005723df8511a3d35d3f5b08619842b69ac3781223000000000000000000000000000000000000000000000000000000000000dead000000000000000000000000000000000000000000000000000000000000007400000000000000000000000000000000000000000000000000000000",
        "nonce": "0x2e",
        "chainId": "0x2105"
      },
      "additionalContracts": [],
      "isFixedGasLimit": false
    },
    {
      "hash": "0x2416e36eed161326bee91def0004cc65a737242c70c5fe6ed212fa7b38edc142",
      "transactionType": "CALL",
      "contractName": null,
      "contractAddress": "0x2b9730cec15b4748842fd7956c7783ed55abab9b",
      "function": "executeCall(address,uint256,bytes)",
      "arguments": [
        "0x2D37C6bfcb5CDD2cDb5c48C107B56a85B77d62e8",
        "0",
        "0x23b872dd0000000000000000000000002b9730cec15b4748842fd7956c7783ed55abab9b000000000000000000000000000000000000000000000000000000000000dead0000000000000000000000000000000000000000000000000000000000000075"
      ],
      "transaction": {
        "from": "0xf53f105e90b3e9ea928926a5a78e921d8168e213",
        "to": "0x2b9730cec15b4748842fd7956c7783ed55abab9b",
        "gas": "0x21c1c",
        "value": "0x0",
        "input": "0x9e5d4c490000000000000000000000002d37c6bfcb5cdd2cdb5c48c107b56a85b77d62e800000000000000000000000000000000000000000000000000000000000000000000000000000000000000000000000000000000000000000000000000000060000000000000000000000000000000000000000000000000000000000000006423b872dd0000000000000000000000002b9730cec15b4748842fd7956c7783ed55abab9b000000000000000000000000000000000000000000000000000000000000dead000000000000000000000000000000000000000000000000000000000000007500000000000000000000000000000000000000000000000000000000",
        "nonce": "0x2f",
        "chainId": "0x2105"
      },
      "additionalContracts": [],
      "isFixedGasLimit": false
    },
    {
      "hash": "0x6474854363ed01b18195389602115d1c9855d39d41bd92c17e21447e3ae335c2",
      "transactionType": "CALL",
      "contractName": null,
      "contractAddress": "0xbf721fe1d5ea4b76cde6eb74a601fb3047e3204b",
      "function": "executeCall(address,uint256,bytes)",
      "arguments": [
        "0x2D37C6bfcb5CDD2cDb5c48C107B56a85B77d62e8",
        "0",
        "0x23b872dd000000000000000000000000bf721fe1d5ea4b76cde6eb74a601fb3047e3204b000000000000000000000000000000000000000000000000000000000000dead0000000000000000000000000000000000000000000000000000000000000076"
      ],
      "transaction": {
        "from": "0xf53f105e90b3e9ea928926a5a78e921d8168e213",
        "to": "0xbf721fe1d5ea4b76cde6eb74a601fb3047e3204b",
        "gas": "0x21c1c",
        "value": "0x0",
        "input": "0x9e5d4c490000000000000000000000002d37c6bfcb5cdd2cdb5c48c107b56a85b77d62e800000000000000000000000000000000000000000000000000000000000000000000000000000000000000000000000000000000000000000000000000000060000000000000000000000000000000000000000000000000000000000000006423b872dd000000000000000000000000bf721fe1d5ea4b76cde6eb74a601fb3047e3204b000000000000000000000000000000000000000000000000000000000000dead000000000000000000000000000000000000000000000000000000000000007600000000000000000000000000000000000000000000000000000000",
        "nonce": "0x30",
        "chainId": "0x2105"
      },
      "additionalContracts": [],
      "isFixedGasLimit": false
    },
    {
      "hash": "0xa558c41ed263f6174ec97eef7fa9e979c0f6f0875106fce59a3ece5d86045d8f",
      "transactionType": "CALL",
      "contractName": null,
      "contractAddress": "0x259c788b5f544911d55e5b98d92b0a7dad3cd55d",
      "function": "executeCall(address,uint256,bytes)",
      "arguments": [
        "0x2D37C6bfcb5CDD2cDb5c48C107B56a85B77d62e8",
        "0",
        "0x23b872dd000000000000000000000000259c788b5f544911d55e5b98d92b0a7dad3cd55d000000000000000000000000000000000000000000000000000000000000dead0000000000000000000000000000000000000000000000000000000000000079"
      ],
      "transaction": {
        "from": "0xf53f105e90b3e9ea928926a5a78e921d8168e213",
        "to": "0x259c788b5f544911d55e5b98d92b0a7dad3cd55d",
        "gas": "0x21c1c",
        "value": "0x0",
        "input": "0x9e5d4c490000000000000000000000002d37c6bfcb5cdd2cdb5c48c107b56a85b77d62e800000000000000000000000000000000000000000000000000000000000000000000000000000000000000000000000000000000000000000000000000000060000000000000000000000000000000000000000000000000000000000000006423b872dd000000000000000000000000259c788b5f544911d55e5b98d92b0a7dad3cd55d000000000000000000000000000000000000000000000000000000000000dead000000000000000000000000000000000000000000000000000000000000007900000000000000000000000000000000000000000000000000000000",
        "nonce": "0x31",
        "chainId": "0x2105"
      },
      "additionalContracts": [],
      "isFixedGasLimit": false
    },
    {
      "hash": "0xb3c1c3919ecf1581c053bd44bde13adf52a8c1d4a2c838010e3014af09cd0171",
      "transactionType": "CALL",
      "contractName": null,
      "contractAddress": "0xe5a589cba3f7fd9b7c9bd012ab51a4177da0b315",
      "function": "executeCall(address,uint256,bytes)",
      "arguments": [
        "0x2D37C6bfcb5CDD2cDb5c48C107B56a85B77d62e8",
        "0",
        "0x23b872dd000000000000000000000000e5a589cba3f7fd9b7c9bd012ab51a4177da0b315000000000000000000000000000000000000000000000000000000000000dead000000000000000000000000000000000000000000000000000000000000007a"
      ],
      "transaction": {
        "from": "0xf53f105e90b3e9ea928926a5a78e921d8168e213",
        "to": "0xe5a589cba3f7fd9b7c9bd012ab51a4177da0b315",
        "gas": "0x21c1c",
        "value": "0x0",
        "input": "0x9e5d4c490000000000000000000000002d37c6bfcb5cdd2cdb5c48c107b56a85b77d62e800000000000000000000000000000000000000000000000000000000000000000000000000000000000000000000000000000000000000000000000000000060000000000000000000000000000000000000000000000000000000000000006423b872dd000000000000000000000000e5a589cba3f7fd9b7c9bd012ab51a4177da0b315000000000000000000000000000000000000000000000000000000000000dead000000000000000000000000000000000000000000000000000000000000007a00000000000000000000000000000000000000000000000000000000",
        "nonce": "0x32",
        "chainId": "0x2105"
      },
      "additionalContracts": [],
      "isFixedGasLimit": false
    },
    {
      "hash": "0x30248f6ac6ce217a54f0091a1886ac539e3589f8bfe5c8ed9248d97b85605fc8",
      "transactionType": "CALL",
      "contractName": null,
      "contractAddress": "0xe5aa47fc7c1fa598bb3340b9a08a881d5a4a0ea2",
      "function": "executeCall(address,uint256,bytes)",
      "arguments": [
        "0x2D37C6bfcb5CDD2cDb5c48C107B56a85B77d62e8",
        "0",
        "0x23b872dd000000000000000000000000e5aa47fc7c1fa598bb3340b9a08a881d5a4a0ea2000000000000000000000000000000000000000000000000000000000000dead000000000000000000000000000000000000000000000000000000000000007b"
      ],
      "transaction": {
        "from": "0xf53f105e90b3e9ea928926a5a78e921d8168e213",
        "to": "0xe5aa47fc7c1fa598bb3340b9a08a881d5a4a0ea2",
        "gas": "0x21c1c",
        "value": "0x0",
        "input": "0x9e5d4c490000000000000000000000002d37c6bfcb5cdd2cdb5c48c107b56a85b77d62e800000000000000000000000000000000000000000000000000000000000000000000000000000000000000000000000000000000000000000000000000000060000000000000000000000000000000000000000000000000000000000000006423b872dd000000000000000000000000e5aa47fc7c1fa598bb3340b9a08a881d5a4a0ea2000000000000000000000000000000000000000000000000000000000000dead000000000000000000000000000000000000000000000000000000000000007b00000000000000000000000000000000000000000000000000000000",
        "nonce": "0x33",
        "chainId": "0x2105"
      },
      "additionalContracts": [],
      "isFixedGasLimit": false
    },
    {
      "hash": "0x536a1ee73df9234a892196ad83635cbb831c54bcc14dc948a765abc63ecca5ed",
      "transactionType": "CALL",
      "contractName": null,
      "contractAddress": "0x66e1306cedab47ac752dc3735a627c1318444c03",
      "function": "executeCall(address,uint256,bytes)",
      "arguments": [
        "0x2D37C6bfcb5CDD2cDb5c48C107B56a85B77d62e8",
        "0",
        "0x23b872dd00000000000000000000000066e1306cedab47ac752dc3735a627c1318444c03000000000000000000000000000000000000000000000000000000000000dead000000000000000000000000000000000000000000000000000000000000007f"
      ],
      "transaction": {
        "from": "0xf53f105e90b3e9ea928926a5a78e921d8168e213",
        "to": "0x66e1306cedab47ac752dc3735a627c1318444c03",
        "gas": "0x21c1c",
        "value": "0x0",
        "input": "0x9e5d4c490000000000000000000000002d37c6bfcb5cdd2cdb5c48c107b56a85b77d62e800000000000000000000000000000000000000000000000000000000000000000000000000000000000000000000000000000000000000000000000000000060000000000000000000000000000000000000000000000000000000000000006423b872dd00000000000000000000000066e1306cedab47ac752dc3735a627c1318444c03000000000000000000000000000000000000000000000000000000000000dead000000000000000000000000000000000000000000000000000000000000007f00000000000000000000000000000000000000000000000000000000",
        "nonce": "0x34",
        "chainId": "0x2105"
      },
      "additionalContracts": [],
      "isFixedGasLimit": false
    },
    {
      "hash": "0xc7c1aa2275604cd672e19e4d26f6f2dfaa0573cb3c96294fef91767a44be9c21",
      "transactionType": "CALL",
      "contractName": null,
      "contractAddress": "0x4e7402e463d36abedb72019696168249cd7fbf50",
      "function": "executeCall(address,uint256,bytes)",
      "arguments": [
        "0x2D37C6bfcb5CDD2cDb5c48C107B56a85B77d62e8",
        "0",
        "0x23b872dd0000000000000000000000004e7402e463d36abedb72019696168249cd7fbf50000000000000000000000000000000000000000000000000000000000000dead0000000000000000000000000000000000000000000000000000000000000081"
      ],
      "transaction": {
        "from": "0xf53f105e90b3e9ea928926a5a78e921d8168e213",
        "to": "0x4e7402e463d36abedb72019696168249cd7fbf50",
        "gas": "0x21c1c",
        "value": "0x0",
        "input": "0x9e5d4c490000000000000000000000002d37c6bfcb5cdd2cdb5c48c107b56a85b77d62e800000000000000000000000000000000000000000000000000000000000000000000000000000000000000000000000000000000000000000000000000000060000000000000000000000000000000000000000000000000000000000000006423b872dd0000000000000000000000004e7402e463d36abedb72019696168249cd7fbf50000000000000000000000000000000000000000000000000000000000000dead000000000000000000000000000000000000000000000000000000000000008100000000000000000000000000000000000000000000000000000000",
        "nonce": "0x35",
        "chainId": "0x2105"
      },
      "additionalContracts": [],
      "isFixedGasLimit": false
    },
    {
      "hash": "0x75ddb3c1f880ad107674ff96e07078a0bcd3bec170e6fa6952772634449d4519",
      "transactionType": "CALL",
      "contractName": null,
      "contractAddress": "0x8c021a09b6fed13e4d8703f36832b67a49aebe23",
      "function": "executeCall(address,uint256,bytes)",
      "arguments": [
        "0x2D37C6bfcb5CDD2cDb5c48C107B56a85B77d62e8",
        "0",
        "0x23b872dd0000000000000000000000008c021a09b6fed13e4d8703f36832b67a49aebe23000000000000000000000000000000000000000000000000000000000000dead0000000000000000000000000000000000000000000000000000000000000082"
      ],
      "transaction": {
        "from": "0xf53f105e90b3e9ea928926a5a78e921d8168e213",
        "to": "0x8c021a09b6fed13e4d8703f36832b67a49aebe23",
        "gas": "0x21c1c",
        "value": "0x0",
        "input": "0x9e5d4c490000000000000000000000002d37c6bfcb5cdd2cdb5c48c107b56a85b77d62e800000000000000000000000000000000000000000000000000000000000000000000000000000000000000000000000000000000000000000000000000000060000000000000000000000000000000000000000000000000000000000000006423b872dd0000000000000000000000008c021a09b6fed13e4d8703f36832b67a49aebe23000000000000000000000000000000000000000000000000000000000000dead000000000000000000000000000000000000000000000000000000000000008200000000000000000000000000000000000000000000000000000000",
        "nonce": "0x36",
        "chainId": "0x2105"
      },
      "additionalContracts": [],
      "isFixedGasLimit": false
    },
    {
      "hash": "0xcf180d275ec6bee17a4986def01c26cd2ac2b37dfb48493dd5ef16793ee6cd85",
      "transactionType": "CALL",
      "contractName": null,
      "contractAddress": "0x44b16fc49ae45ae3fcffa9dc12a5740352a32c44",
      "function": "executeCall(address,uint256,bytes)",
      "arguments": [
        "0x2D37C6bfcb5CDD2cDb5c48C107B56a85B77d62e8",
        "0",
        "0x23b872dd00000000000000000000000044b16fc49ae45ae3fcffa9dc12a5740352a32c44000000000000000000000000000000000000000000000000000000000000dead0000000000000000000000000000000000000000000000000000000000000083"
      ],
      "transaction": {
        "from": "0xf53f105e90b3e9ea928926a5a78e921d8168e213",
        "to": "0x44b16fc49ae45ae3fcffa9dc12a5740352a32c44",
        "gas": "0x21c1c",
        "value": "0x0",
        "input": "0x9e5d4c490000000000000000000000002d37c6bfcb5cdd2cdb5c48c107b56a85b77d62e800000000000000000000000000000000000000000000000000000000000000000000000000000000000000000000000000000000000000000000000000000060000000000000000000000000000000000000000000000000000000000000006423b872dd00000000000000000000000044b16fc49ae45ae3fcffa9dc12a5740352a32c44000000000000000000000000000000000000000000000000000000000000dead000000000000000000000000000000000000000000000000000000000000008300000000000000000000000000000000000000000000000000000000",
        "nonce": "0x37",
        "chainId": "0x2105"
      },
      "additionalContracts": [],
      "isFixedGasLimit": false
    },
    {
      "hash": "0xee5124c6858b2d3299523f512ff21a1b59c27e2379b72b7d234c1200b8939a01",
      "transactionType": "CALL",
      "contractName": null,
      "contractAddress": "0xadf7f7e68829fcda7c313963754634878c2fb785",
      "function": "executeCall(address,uint256,bytes)",
      "arguments": [
        "0x2D37C6bfcb5CDD2cDb5c48C107B56a85B77d62e8",
        "0",
        "0x23b872dd000000000000000000000000adf7f7e68829fcda7c313963754634878c2fb785000000000000000000000000000000000000000000000000000000000000dead0000000000000000000000000000000000000000000000000000000000000084"
      ],
      "transaction": {
        "from": "0xf53f105e90b3e9ea928926a5a78e921d8168e213",
        "to": "0xadf7f7e68829fcda7c313963754634878c2fb785",
        "gas": "0x21c1c",
        "value": "0x0",
        "input": "0x9e5d4c490000000000000000000000002d37c6bfcb5cdd2cdb5c48c107b56a85b77d62e800000000000000000000000000000000000000000000000000000000000000000000000000000000000000000000000000000000000000000000000000000060000000000000000000000000000000000000000000000000000000000000006423b872dd000000000000000000000000adf7f7e68829fcda7c313963754634878c2fb785000000000000000000000000000000000000000000000000000000000000dead000000000000000000000000000000000000000000000000000000000000008400000000000000000000000000000000000000000000000000000000",
        "nonce": "0x38",
        "chainId": "0x2105"
      },
      "additionalContracts": [],
      "isFixedGasLimit": false
    },
    {
      "hash": "0xd88b5d1fdbc76fd34c1c3fa19dc31fb0964576695ff1cd6caac730785e4824b8",
      "transactionType": "CALL",
      "contractName": null,
      "contractAddress": "0x11db8702c64f0b16c1e5f99db30edcb7405b54c2",
      "function": "executeCall(address,uint256,bytes)",
      "arguments": [
        "0x2D37C6bfcb5CDD2cDb5c48C107B56a85B77d62e8",
        "0",
        "0x23b872dd00000000000000000000000011db8702c64f0b16c1e5f99db30edcb7405b54c2000000000000000000000000000000000000000000000000000000000000dead0000000000000000000000000000000000000000000000000000000000000085"
      ],
      "transaction": {
        "from": "0xf53f105e90b3e9ea928926a5a78e921d8168e213",
        "to": "0x11db8702c64f0b16c1e5f99db30edcb7405b54c2",
        "gas": "0x21c1c",
        "value": "0x0",
        "input": "0x9e5d4c490000000000000000000000002d37c6bfcb5cdd2cdb5c48c107b56a85b77d62e800000000000000000000000000000000000000000000000000000000000000000000000000000000000000000000000000000000000000000000000000000060000000000000000000000000000000000000000000000000000000000000006423b872dd00000000000000000000000011db8702c64f0b16c1e5f99db30edcb7405b54c2000000000000000000000000000000000000000000000000000000000000dead000000000000000000000000000000000000000000000000000000000000008500000000000000000000000000000000000000000000000000000000",
        "nonce": "0x39",
        "chainId": "0x2105"
      },
      "additionalContracts": [],
      "isFixedGasLimit": false
    },
    {
      "hash": "0x1d019256d32abc36916b6ea05ca49eda13890a7e6d0659dde93d6072872b9d4f",
      "transactionType": "CALL",
      "contractName": null,
      "contractAddress": "0xd3c0d9880605eab20cbb5c90199bb7787b1534c3",
      "function": "executeCall(address,uint256,bytes)",
      "arguments": [
        "0x2D37C6bfcb5CDD2cDb5c48C107B56a85B77d62e8",
        "0",
        "0x23b872dd000000000000000000000000d3c0d9880605eab20cbb5c90199bb7787b1534c3000000000000000000000000000000000000000000000000000000000000dead0000000000000000000000000000000000000000000000000000000000000086"
      ],
      "transaction": {
        "from": "0xf53f105e90b3e9ea928926a5a78e921d8168e213",
        "to": "0xd3c0d9880605eab20cbb5c90199bb7787b1534c3",
        "gas": "0x21c1c",
        "value": "0x0",
        "input": "0x9e5d4c490000000000000000000000002d37c6bfcb5cdd2cdb5c48c107b56a85b77d62e800000000000000000000000000000000000000000000000000000000000000000000000000000000000000000000000000000000000000000000000000000060000000000000000000000000000000000000000000000000000000000000006423b872dd000000000000000000000000d3c0d9880605eab20cbb5c90199bb7787b1534c3000000000000000000000000000000000000000000000000000000000000dead000000000000000000000000000000000000000000000000000000000000008600000000000000000000000000000000000000000000000000000000",
        "nonce": "0x3a",
        "chainId": "0x2105"
      },
      "additionalContracts": [],
      "isFixedGasLimit": false
    },
    {
      "hash": "0xbcad63df25503bc3658d717cefd53ba9801bce743d7afb43dba743c1faa0467e",
      "transactionType": "CALL",
      "contractName": null,
      "contractAddress": "0xe4359c8aafe85fbb377fa1998298f4a8e56bbce7",
      "function": "executeCall(address,uint256,bytes)",
      "arguments": [
        "0x2D37C6bfcb5CDD2cDb5c48C107B56a85B77d62e8",
        "0",
        "0x23b872dd000000000000000000000000e4359c8aafe85fbb377fa1998298f4a8e56bbce7000000000000000000000000000000000000000000000000000000000000dead0000000000000000000000000000000000000000000000000000000000000089"
      ],
      "transaction": {
        "from": "0xf53f105e90b3e9ea928926a5a78e921d8168e213",
        "to": "0xe4359c8aafe85fbb377fa1998298f4a8e56bbce7",
        "gas": "0x21c1c",
        "value": "0x0",
        "input": "0x9e5d4c490000000000000000000000002d37c6bfcb5cdd2cdb5c48c107b56a85b77d62e800000000000000000000000000000000000000000000000000000000000000000000000000000000000000000000000000000000000000000000000000000060000000000000000000000000000000000000000000000000000000000000006423b872dd000000000000000000000000e4359c8aafe85fbb377fa1998298f4a8e56bbce7000000000000000000000000000000000000000000000000000000000000dead000000000000000000000000000000000000000000000000000000000000008900000000000000000000000000000000000000000000000000000000",
        "nonce": "0x3b",
        "chainId": "0x2105"
      },
      "additionalContracts": [],
      "isFixedGasLimit": false
    },
    {
      "hash": "0x808a4882b60241ead3c37dc5333f1f163506825b0ee87ce8825afe496b5cbbe7",
      "transactionType": "CALL",
      "contractName": null,
      "contractAddress": "0x1e640277847a52c5fcc31bea479bf0685db73f8a",
      "function": "executeCall(address,uint256,bytes)",
      "arguments": [
        "0x2D37C6bfcb5CDD2cDb5c48C107B56a85B77d62e8",
        "0",
        "0x23b872dd0000000000000000000000001e640277847a52c5fcc31bea479bf0685db73f8a000000000000000000000000000000000000000000000000000000000000dead000000000000000000000000000000000000000000000000000000000000008a"
      ],
      "transaction": {
        "from": "0xf53f105e90b3e9ea928926a5a78e921d8168e213",
        "to": "0x1e640277847a52c5fcc31bea479bf0685db73f8a",
        "gas": "0x21c1c",
        "value": "0x0",
        "input": "0x9e5d4c490000000000000000000000002d37c6bfcb5cdd2cdb5c48c107b56a85b77d62e800000000000000000000000000000000000000000000000000000000000000000000000000000000000000000000000000000000000000000000000000000060000000000000000000000000000000000000000000000000000000000000006423b872dd0000000000000000000000001e640277847a52c5fcc31bea479bf0685db73f8a000000000000000000000000000000000000000000000000000000000000dead000000000000000000000000000000000000000000000000000000000000008a00000000000000000000000000000000000000000000000000000000",
        "nonce": "0x3c",
        "chainId": "0x2105"
      },
      "additionalContracts": [],
      "isFixedGasLimit": false
    },
    {
      "hash": "0xfbed813f4569aaee2e09e13b6f7eff60e116fef8b7a971b49f295f17020ca3d1",
      "transactionType": "CALL",
      "contractName": null,
      "contractAddress": "0xfc08dc05e8270b42ad594e7027e28ff32fb83234",
      "function": "executeCall(address,uint256,bytes)",
      "arguments": [
        "0x2D37C6bfcb5CDD2cDb5c48C107B56a85B77d62e8",
        "0",
        "0x23b872dd000000000000000000000000fc08dc05e8270b42ad594e7027e28ff32fb83234000000000000000000000000000000000000000000000000000000000000dead000000000000000000000000000000000000000000000000000000000000008c"
      ],
      "transaction": {
        "from": "0xf53f105e90b3e9ea928926a5a78e921d8168e213",
        "to": "0xfc08dc05e8270b42ad594e7027e28ff32fb83234",
        "gas": "0x21c1c",
        "value": "0x0",
        "input": "0x9e5d4c490000000000000000000000002d37c6bfcb5cdd2cdb5c48c107b56a85b77d62e800000000000000000000000000000000000000000000000000000000000000000000000000000000000000000000000000000000000000000000000000000060000000000000000000000000000000000000000000000000000000000000006423b872dd000000000000000000000000fc08dc05e8270b42ad594e7027e28ff32fb83234000000000000000000000000000000000000000000000000000000000000dead000000000000000000000000000000000000000000000000000000000000008c00000000000000000000000000000000000000000000000000000000",
        "nonce": "0x3d",
        "chainId": "0x2105"
      },
      "additionalContracts": [],
      "isFixedGasLimit": false
    },
    {
      "hash": "0xd4b3bd69f338e309930beb95439b0cf050112b6cfe77531fa9fd927995bb87bb",
      "transactionType": "CALL",
      "contractName": null,
      "contractAddress": "0x0264a1d6b149e423e180d5461bf83916d3c9bf75",
      "function": "executeCall(address,uint256,bytes)",
      "arguments": [
        "0x2D37C6bfcb5CDD2cDb5c48C107B56a85B77d62e8",
        "0",
        "0x23b872dd0000000000000000000000000264a1d6b149e423e180d5461bf83916d3c9bf75000000000000000000000000000000000000000000000000000000000000dead0000000000000000000000000000000000000000000000000000000000000062"
      ],
      "transaction": {
        "from": "0xf53f105e90b3e9ea928926a5a78e921d8168e213",
        "to": "0x0264a1d6b149e423e180d5461bf83916d3c9bf75",
        "gas": "0x21c1c",
        "value": "0x0",
        "input": "0x9e5d4c490000000000000000000000002d37c6bfcb5cdd2cdb5c48c107b56a85b77d62e800000000000000000000000000000000000000000000000000000000000000000000000000000000000000000000000000000000000000000000000000000060000000000000000000000000000000000000000000000000000000000000006423b872dd0000000000000000000000000264a1d6b149e423e180d5461bf83916d3c9bf75000000000000000000000000000000000000000000000000000000000000dead000000000000000000000000000000000000000000000000000000000000006200000000000000000000000000000000000000000000000000000000",
        "nonce": "0x3e",
        "chainId": "0x2105"
      },
      "additionalContracts": [],
      "isFixedGasLimit": false
    },
    {
      "hash": "0xcc55f86dcc629d87670efc973c293e2aaf3f7e91961bb1e57170680f26ec444f",
      "transactionType": "CALL",
      "contractName": null,
      "contractAddress": "0xdf651a74cde0ebac4f66a8d348e91e7e6af4575b",
      "function": "executeCall(address,uint256,bytes)",
      "arguments": [
        "0x2D37C6bfcb5CDD2cDb5c48C107B56a85B77d62e8",
        "0",
        "0x23b872dd000000000000000000000000df651a74cde0ebac4f66a8d348e91e7e6af4575b000000000000000000000000000000000000000000000000000000000000dead000000000000000000000000000000000000000000000000000000000000009d"
      ],
      "transaction": {
        "from": "0xf53f105e90b3e9ea928926a5a78e921d8168e213",
        "to": "0xdf651a74cde0ebac4f66a8d348e91e7e6af4575b",
        "gas": "0x21c1c",
        "value": "0x0",
        "input": "0x9e5d4c490000000000000000000000002d37c6bfcb5cdd2cdb5c48c107b56a85b77d62e800000000000000000000000000000000000000000000000000000000000000000000000000000000000000000000000000000000000000000000000000000060000000000000000000000000000000000000000000000000000000000000006423b872dd000000000000000000000000df651a74cde0ebac4f66a8d348e91e7e6af4575b000000000000000000000000000000000000000000000000000000000000dead000000000000000000000000000000000000000000000000000000000000009d00000000000000000000000000000000000000000000000000000000",
        "nonce": "0x3f",
        "chainId": "0x2105"
      },
      "additionalContracts": [],
      "isFixedGasLimit": false
    }
  ],
  "receipts": [
    {
      "status": "0x1",
      "cumulativeGasUsed": "0xeb92d9",
      "logs": [
        {
          "address": "0x82d515a0c3a2e98126e0bcb2bb3ebe7a2b8b64ae",
          "topics": [
            "0x47d99ad340f52da66535aff7e10da1ceb85a32bcbd9fa1c42314d194545e14d2",
            "0x0000000000000000000000002d37c6bfcb5cdd2cdb5c48c107b56a85b77d62e8",
            "0x0000000000000000000000000000000000000000000000000000000000000000"
          ],
          "data": "0x0000000000000000000000000000000000000000000000000000000000000020000000000000000000000000000000000000000000000000000000000000006423b872dd00000000000000000000000082d515a0c3a2e98126e0bcb2bb3ebe7a2b8b64ae000000000000000000000000000000000000000000000000000000000000dead000000000000000000000000000000000000000000000000000000000000000d00000000000000000000000000000000000000000000000000000000",
          "blockHash": "0xc4f10f83970eaf5fb0def09d302581ab19fd1926a4c22481bf49d9ea343442bc",
          "blockNumber": "0x12b0f9c",
          "transactionHash": "0x27c04fb3f986d76c87b581e30da7cc74b3f264235ad156605665b7106690845f",
          "transactionIndex": "0x62",
          "logIndex": "0x12a",
          "removed": false
        },
        {
          "address": "0x2d37c6bfcb5cdd2cdb5c48c107b56a85b77d62e8",
          "topics": [
            "0xddf252ad1be2c89b69c2b068fc378daa952ba7f163c4a11628f55a4df523b3ef",
            "0x00000000000000000000000082d515a0c3a2e98126e0bcb2bb3ebe7a2b8b64ae",
            "0x000000000000000000000000000000000000000000000000000000000000dead",
            "0x000000000000000000000000000000000000000000000000000000000000000d"
          ],
          "data": "0x",
          "blockHash": "0xc4f10f83970eaf5fb0def09d302581ab19fd1926a4c22481bf49d9ea343442bc",
          "blockNumber": "0x12b0f9c",
          "transactionHash": "0x27c04fb3f986d76c87b581e30da7cc74b3f264235ad156605665b7106690845f",
          "transactionIndex": "0x62",
          "logIndex": "0x12b",
          "removed": false
        }
      ],
      "logsBloom": "0x01000000000014000040000004000000000000000000000002000000000000000100000000000000000000000000000000000000000000000000000000000000000000000000000200000008000000000002000000000000000000000000000000000004020000000000000000000800000000000000000000000010000010000000000000000000000004000000002000000000000000000000000000000000200000000000000000000000000000001000000000000000001000000000000000000402000000000000000000000000000000000000000000000000000020020000002000000000000002000000004000000000000000000000000000000000",
      "type": "0x2",
      "transactionHash": "0x27c04fb3f986d76c87b581e30da7cc74b3f264235ad156605665b7106690845f",
      "transactionIndex": "0x62",
      "blockHash": "0xc4f10f83970eaf5fb0def09d302581ab19fd1926a4c22481bf49d9ea343442bc",
      "blockNumber": "0x12b0f9c",
      "gasUsed": "0x1c9d4",
      "effectiveGasPrice": "0x58d14f",
      "from": "0xf53f105e90b3e9ea928926a5a78e921d8168e213",
      "to": "0x82d515a0c3a2e98126e0bcb2bb3ebe7a2b8b64ae",
      "contractAddress": null,
      "l1BaseFeeScalar": "0x8dd",
      "l1BlobBaseFee": "0x1",
      "l1BlobBaseFeeScalar": "0x101c12",
      "l1Fee": "0x69b8f55f8",
      "l1GasPrice": "0x188037eec",
      "l1GasUsed": "0x76d"
    },
    {
      "status": "0x1",
      "cumulativeGasUsed": "0xed19e1",
      "logs": [
        {
          "address": "0x229ad84ef87caa3faf81bb46554a98bdf541d58f",
          "topics": [
            "0x47d99ad340f52da66535aff7e10da1ceb85a32bcbd9fa1c42314d194545e14d2",
            "0x0000000000000000000000002d37c6bfcb5cdd2cdb5c48c107b56a85b77d62e8",
            "0x0000000000000000000000000000000000000000000000000000000000000000"
          ],
          "data": "0x0000000000000000000000000000000000000000000000000000000000000020000000000000000000000000000000000000000000000000000000000000006423b872dd000000000000000000000000229ad84ef87caa3faf81bb46554a98bdf541d58f000000000000000000000000000000000000000000000000000000000000dead000000000000000000000000000000000000000000000000000000000000000e00000000000000000000000000000000000000000000000000000000",
          "blockHash": "0xc4f10f83970eaf5fb0def09d302581ab19fd1926a4c22481bf49d9ea343442bc",
          "blockNumber": "0x12b0f9c",
          "transactionHash": "0xe7f5fff6fe38a308adf157bb2839f033c29b04d87655ca53308c8c1c850bb6e4",
          "transactionIndex": "0x63",
          "logIndex": "0x12c",
          "removed": false
        },
        {
          "address": "0x2d37c6bfcb5cdd2cdb5c48c107b56a85b77d62e8",
          "topics": [
            "0xddf252ad1be2c89b69c2b068fc378daa952ba7f163c4a11628f55a4df523b3ef",
            "0x000000000000000000000000229ad84ef87caa3faf81bb46554a98bdf541d58f",
            "0x000000000000000000000000000000000000000000000000000000000000dead",
            "0x000000000000000000000000000000000000000000000000000000000000000e"
          ],
          "data": "0x",
          "blockHash": "0xc4f10f83970eaf5fb0def09d302581ab19fd1926a4c22481bf49d9ea343442bc",
          "blockNumber": "0x12b0f9c",
          "transactionHash": "0xe7f5fff6fe38a308adf157bb2839f033c29b04d87655ca53308c8c1c850bb6e4",
          "transactionIndex": "0x63",
          "logIndex": "0x12d",
          "removed": false
        }
      ],
      "logsBloom": "0x01000000000014000000000004000000000000000000000002000000000000000100000000000000000000000000000000000000000000000000000000000000000000000000000804000008000000000000000000000000000000000000000000000000020000000000100000000801000000000000000000000010000000000000000000000000000004000000000008000000000800000000000000000000280000000000000000000000000000000000000000000020000000000000000000000402000000000000000000000000000000000000000000000000000020000000022000000000000002000000004000000000000000000000000000000000",
      "type": "0x2",
      "transactionHash": "0xe7f5fff6fe38a308adf157bb2839f033c29b04d87655ca53308c8c1c850bb6e4",
      "transactionIndex": "0x63",
      "blockHash": "0xc4f10f83970eaf5fb0def09d302581ab19fd1926a4c22481bf49d9ea343442bc",
      "blockNumber": "0x12b0f9c",
      "gasUsed": "0x18708",
      "effectiveGasPrice": "0x58d14f",
      "from": "0xf53f105e90b3e9ea928926a5a78e921d8168e213",
      "to": "0x229ad84ef87caa3faf81bb46554a98bdf541d58f",
      "contractAddress": null,
      "l1BaseFeeScalar": "0x8dd",
      "l1BlobBaseFee": "0x1",
      "l1BlobBaseFeeScalar": "0x101c12",
      "l1Fee": "0x69b8f55f8",
      "l1GasPrice": "0x188037eec",
      "l1GasUsed": "0x76d"
    },
    {
      "status": "0x1",
      "cumulativeGasUsed": "0xeea0e9",
      "logs": [
        {
          "address": "0x01ae71867562fbf9e9c1a0c6d886ccba1520c9e1",
          "topics": [
            "0x47d99ad340f52da66535aff7e10da1ceb85a32bcbd9fa1c42314d194545e14d2",
            "0x0000000000000000000000002d37c6bfcb5cdd2cdb5c48c107b56a85b77d62e8",
            "0x0000000000000000000000000000000000000000000000000000000000000000"
          ],
          "data": "0x0000000000000000000000000000000000000000000000000000000000000020000000000000000000000000000000000000000000000000000000000000006423b872dd00000000000000000000000001ae71867562fbf9e9c1a0c6d886ccba1520c9e1000000000000000000000000000000000000000000000000000000000000dead000000000000000000000000000000000000000000000000000000000000001000000000000000000000000000000000000000000000000000000000",
          "blockHash": "0xc4f10f83970eaf5fb0def09d302581ab19fd1926a4c22481bf49d9ea343442bc",
          "blockNumber": "0x12b0f9c",
          "transactionHash": "0xc1f669a0f0c6f4fb443d8df0ddddb022f50add37f1113767621466a7ced8e11a",
          "transactionIndex": "0x64",
          "logIndex": "0x12e",
          "removed": false
        },
        {
          "address": "0x2d37c6bfcb5cdd2cdb5c48c107b56a85b77d62e8",
          "topics": [
            "0xddf252ad1be2c89b69c2b068fc378daa952ba7f163c4a11628f55a4df523b3ef",
            "0x00000000000000000000000001ae71867562fbf9e9c1a0c6d886ccba1520c9e1",
            "0x000000000000000000000000000000000000000000000000000000000000dead",
            "0x0000000000000000000000000000000000000000000000000000000000000010"
          ],
          "data": "0x",
          "blockHash": "0xc4f10f83970eaf5fb0def09d302581ab19fd1926a4c22481bf49d9ea343442bc",
          "blockNumber": "0x12b0f9c",
          "transactionHash": "0xc1f669a0f0c6f4fb443d8df0ddddb022f50add37f1113767621466a7ced8e11a",
          "transactionIndex": "0x64",
          "logIndex": "0x12f",
          "removed": false
        }
      ],
      "logsBloom": "0x01000000100014000000000004000000000000000000000002000000000000000100000000000000000000000000000000004000000000000000000000000000000000000000000000000008000000000000000000000000000100000000001000000000020000000000000000000800000000000010000000000010040000000000000000000000000004000000000000000100000000000000000000000000200000000000000000002000000000000000000000000000000000000000000000000402000000000000000000000000000000000000000000000000000020000000002000000000000002000000004000000000000000000000010000000000",
      "type": "0x2",
      "transactionHash": "0xc1f669a0f0c6f4fb443d8df0ddddb022f50add37f1113767621466a7ced8e11a",
      "transactionIndex": "0x64",
      "blockHash": "0xc4f10f83970eaf5fb0def09d302581ab19fd1926a4c22481bf49d9ea343442bc",
      "blockNumber": "0x12b0f9c",
      "gasUsed": "0x18708",
      "effectiveGasPrice": "0x58d14f",
      "from": "0xf53f105e90b3e9ea928926a5a78e921d8168e213",
      "to": "0x01ae71867562fbf9e9c1a0c6d886ccba1520c9e1",
      "contractAddress": null,
      "l1BaseFeeScalar": "0x8dd",
      "l1BlobBaseFee": "0x1",
      "l1BlobBaseFeeScalar": "0x101c12",
      "l1Fee": "0x69b8f55f8",
      "l1GasPrice": "0x188037eec",
      "l1GasUsed": "0x76d"
    },
    {
      "status": "0x1",
      "cumulativeGasUsed": "0xf027f1",
      "logs": [
        {
          "address": "0x9b4cdefaae9bed2d3cb905efdb270d507ce8cb69",
          "topics": [
            "0x47d99ad340f52da66535aff7e10da1ceb85a32bcbd9fa1c42314d194545e14d2",
            "0x0000000000000000000000002d37c6bfcb5cdd2cdb5c48c107b56a85b77d62e8",
            "0x0000000000000000000000000000000000000000000000000000000000000000"
          ],
          "data": "0x0000000000000000000000000000000000000000000000000000000000000020000000000000000000000000000000000000000000000000000000000000006423b872dd0000000000000000000000009b4cdefaae9bed2d3cb905efdb270d507ce8cb69000000000000000000000000000000000000000000000000000000000000dead000000000000000000000000000000000000000000000000000000000000003000000000000000000000000000000000000000000000000000000000",
          "blockHash": "0xc4f10f83970eaf5fb0def09d302581ab19fd1926a4c22481bf49d9ea343442bc",
          "blockNumber": "0x12b0f9c",
          "transactionHash": "0x304e88516830013d162ba6223aed8dd968f0e3108c58cbe53726fe8b17706577",
          "transactionIndex": "0x65",
          "logIndex": "0x130",
          "removed": false
        },
        {
          "address": "0x2d37c6bfcb5cdd2cdb5c48c107b56a85b77d62e8",
          "topics": [
            "0xddf252ad1be2c89b69c2b068fc378daa952ba7f163c4a11628f55a4df523b3ef",
            "0x0000000000000000000000009b4cdefaae9bed2d3cb905efdb270d507ce8cb69",
            "0x000000000000000000000000000000000000000000000000000000000000dead",
            "0x0000000000000000000000000000000000000000000000000000000000000030"
          ],
          "data": "0x",
          "blockHash": "0xc4f10f83970eaf5fb0def09d302581ab19fd1926a4c22481bf49d9ea343442bc",
          "blockNumber": "0x12b0f9c",
          "transactionHash": "0x304e88516830013d162ba6223aed8dd968f0e3108c58cbe53726fe8b17706577",
          "transactionIndex": "0x65",
          "logIndex": "0x131",
          "removed": false
        }
      ],
      "logsBloom": "0x03000000000014000000000004000000000000000008000002000000000002000100000000200040000000000000000000000000000000000000000000000000040000000000000000000108000000000000000000000000000000000000000000000000020000000000000000000800000000000000000000000010000000000000000000000000000004000000000000000000000000000000000000000000200000000000000000000000000000000000000002000000000000000000000000000402000000000000000000000000000000000000000000000000000020000000002000000000000002000000004000000000000000000000000000000000",
      "type": "0x2",
      "transactionHash": "0x304e88516830013d162ba6223aed8dd968f0e3108c58cbe53726fe8b17706577",
      "transactionIndex": "0x65",
      "blockHash": "0xc4f10f83970eaf5fb0def09d302581ab19fd1926a4c22481bf49d9ea343442bc",
      "blockNumber": "0x12b0f9c",
      "gasUsed": "0x18708",
      "effectiveGasPrice": "0x58d14f",
      "from": "0xf53f105e90b3e9ea928926a5a78e921d8168e213",
      "to": "0x9b4cdefaae9bed2d3cb905efdb270d507ce8cb69",
      "contractAddress": null,
      "l1BaseFeeScalar": "0x8dd",
      "l1BlobBaseFee": "0x1",
      "l1BlobBaseFeeScalar": "0x101c12",
      "l1Fee": "0x69b8f55f8",
      "l1GasPrice": "0x188037eec",
      "l1GasUsed": "0x76d"
    },
    {
      "status": "0x1",
      "cumulativeGasUsed": "0xf1aef9",
      "logs": [
        {
          "address": "0xd04ee63c0c4defe9d1754d798ef19a7a32e71a8a",
          "topics": [
            "0x47d99ad340f52da66535aff7e10da1ceb85a32bcbd9fa1c42314d194545e14d2",
            "0x0000000000000000000000002d37c6bfcb5cdd2cdb5c48c107b56a85b77d62e8",
            "0x0000000000000000000000000000000000000000000000000000000000000000"
          ],
          "data": "0x0000000000000000000000000000000000000000000000000000000000000020000000000000000000000000000000000000000000000000000000000000006423b872dd000000000000000000000000d04ee63c0c4defe9d1754d798ef19a7a32e71a8a000000000000000000000000000000000000000000000000000000000000dead000000000000000000000000000000000000000000000000000000000000003100000000000000000000000000000000000000000000000000000000",
          "blockHash": "0xc4f10f83970eaf5fb0def09d302581ab19fd1926a4c22481bf49d9ea343442bc",
          "blockNumber": "0x12b0f9c",
          "transactionHash": "0xd1e2f083526f35a2948d866955be500d30f89623a366489e817ad6178ca79f65",
          "transactionIndex": "0x66",
          "logIndex": "0x132",
          "removed": false
        },
        {
          "address": "0x2d37c6bfcb5cdd2cdb5c48c107b56a85b77d62e8",
          "topics": [
            "0xddf252ad1be2c89b69c2b068fc378daa952ba7f163c4a11628f55a4df523b3ef",
            "0x000000000000000000000000d04ee63c0c4defe9d1754d798ef19a7a32e71a8a",
            "0x000000000000000000000000000000000000000000000000000000000000dead",
            "0x0000000000000000000000000000000000000000000000000000000000000031"
          ],
          "data": "0x",
          "blockHash": "0xc4f10f83970eaf5fb0def09d302581ab19fd1926a4c22481bf49d9ea343442bc",
          "blockNumber": "0x12b0f9c",
          "transactionHash": "0xd1e2f083526f35a2948d866955be500d30f89623a366489e817ad6178ca79f65",
          "transactionIndex": "0x66",
          "logIndex": "0x133",
          "removed": false
        }
      ],
      "logsBloom": "0x01000000000014000000000004000000000000000000000002000000000000000500000000000000000000000000000000000000000000000000000000000000040000000000000000000008000000000000000000040001000000800000000000000000020000000000000000000800000040000000000000000010000000000000000000000000000404000000000000000000000000000000000000000000200000000000000000000000000000000000000000000000000000000000000000000402000040000000000000000000000000000000000000000000000020000000002000000000000003000000004000000000000000000000000000000000",
      "type": "0x2",
      "transactionHash": "0xd1e2f083526f35a2948d866955be500d30f89623a366489e817ad6178ca79f65",
      "transactionIndex": "0x66",
      "blockHash": "0xc4f10f83970eaf5fb0def09d302581ab19fd1926a4c22481bf49d9ea343442bc",
      "blockNumber": "0x12b0f9c",
      "gasUsed": "0x18708",
      "effectiveGasPrice": "0x58d14f",
      "from": "0xf53f105e90b3e9ea928926a5a78e921d8168e213",
      "to": "0xd04ee63c0c4defe9d1754d798ef19a7a32e71a8a",
      "contractAddress": null,
      "l1BaseFeeScalar": "0x8dd",
      "l1BlobBaseFee": "0x1",
      "l1BlobBaseFeeScalar": "0x101c12",
      "l1Fee": "0x69b8f55f8",
      "l1GasPrice": "0x188037eec",
      "l1GasUsed": "0x76d"
    },
    {
      "status": "0x1",
      "cumulativeGasUsed": "0xf33601",
      "logs": [
        {
          "address": "0x053caf84348e8cfcb9981aca7765dfd1b54490cf",
          "topics": [
            "0x47d99ad340f52da66535aff7e10da1ceb85a32bcbd9fa1c42314d194545e14d2",
            "0x0000000000000000000000002d37c6bfcb5cdd2cdb5c48c107b56a85b77d62e8",
            "0x0000000000000000000000000000000000000000000000000000000000000000"
          ],
          "data": "0x0000000000000000000000000000000000000000000000000000000000000020000000000000000000000000000000000000000000000000000000000000006423b872dd000000000000000000000000053caf84348e8cfcb9981aca7765dfd1b54490cf000000000000000000000000000000000000000000000000000000000000dead000000000000000000000000000000000000000000000000000000000000003200000000000000000000000000000000000000000000000000000000",
          "blockHash": "0xc4f10f83970eaf5fb0def09d302581ab19fd1926a4c22481bf49d9ea343442bc",
          "blockNumber": "0x12b0f9c",
          "transactionHash": "0xbe1af4c0fa173d0e041f43899ba99b7e19e538ca41923806313a47f1990872f7",
          "transactionIndex": "0x67",
          "logIndex": "0x134",
          "removed": false
        },
        {
          "address": "0x2d37c6bfcb5cdd2cdb5c48c107b56a85b77d62e8",
          "topics": [
            "0xddf252ad1be2c89b69c2b068fc378daa952ba7f163c4a11628f55a4df523b3ef",
            "0x000000000000000000000000053caf84348e8cfcb9981aca7765dfd1b54490cf",
            "0x000000000000000000000000000000000000000000000000000000000000dead",
            "0x0000000000000000000000000000000000000000000000000000000000000032"
          ],
          "data": "0x",
          "blockHash": "0xc4f10f83970eaf5fb0def09d302581ab19fd1926a4c22481bf49d9ea343442bc",
          "blockNumber": "0x12b0f9c",
          "transactionHash": "0xbe1af4c0fa173d0e041f43899ba99b7e19e538ca41923806313a47f1990872f7",
          "transactionIndex": "0x67",
          "logIndex": "0x135",
          "removed": false
        }
      ],
      "logsBloom": "0x01000000000014000000000004000000000000000000000002000000000000000102000000000000000000000000000000000000000000000000000000000000000000000000000000000008000000000000000000000000000000800000000000000000020001000000000000000800000800000000000000000010000000000000000000000000000004000000800000000000000000000000000000000000200000000000000000000000000000000000000000000000000000000000080000000402800000000000000000000000000000000000000000000000000820000000002000000000000002000000004000000000000000000010000000000000",
      "type": "0x2",
      "transactionHash": "0xbe1af4c0fa173d0e041f43899ba99b7e19e538ca41923806313a47f1990872f7",
      "transactionIndex": "0x67",
      "blockHash": "0xc4f10f83970eaf5fb0def09d302581ab19fd1926a4c22481bf49d9ea343442bc",
      "blockNumber": "0x12b0f9c",
      "gasUsed": "0x18708",
      "effectiveGasPrice": "0x58d14f",
      "from": "0xf53f105e90b3e9ea928926a5a78e921d8168e213",
      "to": "0x053caf84348e8cfcb9981aca7765dfd1b54490cf",
      "contractAddress": null,
      "l1BaseFeeScalar": "0x8dd",
      "l1BlobBaseFee": "0x1",
      "l1BlobBaseFeeScalar": "0x101c12",
      "l1Fee": "0x69b8f55f8",
      "l1GasPrice": "0x188037eec",
      "l1GasUsed": "0x76d"
    },
    {
      "status": "0x1",
      "cumulativeGasUsed": "0xf4bd09",
      "logs": [
        {
          "address": "0x6a50fca73bd35e58649361bd1270725ae50672eb",
          "topics": [
            "0x47d99ad340f52da66535aff7e10da1ceb85a32bcbd9fa1c42314d194545e14d2",
            "0x0000000000000000000000002d37c6bfcb5cdd2cdb5c48c107b56a85b77d62e8",
            "0x0000000000000000000000000000000000000000000000000000000000000000"
          ],
          "data": "0x0000000000000000000000000000000000000000000000000000000000000020000000000000000000000000000000000000000000000000000000000000006423b872dd0000000000000000000000006a50fca73bd35e58649361bd1270725ae50672eb000000000000000000000000000000000000000000000000000000000000dead000000000000000000000000000000000000000000000000000000000000004d00000000000000000000000000000000000000000000000000000000",
          "blockHash": "0xc4f10f83970eaf5fb0def09d302581ab19fd1926a4c22481bf49d9ea343442bc",
          "blockNumber": "0x12b0f9c",
          "transactionHash": "0xd0c2d1ecb57cbe14370840342679495f5a838569009be9c1af8967988b0b8798",
          "transactionIndex": "0x68",
          "logIndex": "0x136",
          "removed": false
        },
        {
          "address": "0x2d37c6bfcb5cdd2cdb5c48c107b56a85b77d62e8",
          "topics": [
            "0xddf252ad1be2c89b69c2b068fc378daa952ba7f163c4a11628f55a4df523b3ef",
            "0x0000000000000000000000006a50fca73bd35e58649361bd1270725ae50672eb",
            "0x000000000000000000000000000000000000000000000000000000000000dead",
            "0x000000000000000000000000000000000000000000000000000000000000004d"
          ],
          "data": "0x",
          "blockHash": "0xc4f10f83970eaf5fb0def09d302581ab19fd1926a4c22481bf49d9ea343442bc",
          "blockNumber": "0x12b0f9c",
          "transactionHash": "0xd0c2d1ecb57cbe14370840342679495f5a838569009be9c1af8967988b0b8798",
          "transactionIndex": "0x68",
          "logIndex": "0x137",
          "removed": false
        }
      ],
      "logsBloom": "0x01000000000014000000000004000000000000000000000002000000000000000100000000000000000000000000000000000000000080000000000010000000000002000000000000080008000000000000000000000000000000000000000000008000020000000000000000000800000000000000000000000010000000000000000000000000000004000000000000000000000c00000000000100000000200000000000000000000000000000000000000000000000000000000000000000000402000000000000000000000000000000000000000000000010000020000000002000000000000002000000004000000000000000000000000000000000",
      "type": "0x2",
      "transactionHash": "0xd0c2d1ecb57cbe14370840342679495f5a838569009be9c1af8967988b0b8798",
      "transactionIndex": "0x68",
      "blockHash": "0xc4f10f83970eaf5fb0def09d302581ab19fd1926a4c22481bf49d9ea343442bc",
      "blockNumber": "0x12b0f9c",
      "gasUsed": "0x18708",
      "effectiveGasPrice": "0x58d14f",
      "from": "0xf53f105e90b3e9ea928926a5a78e921d8168e213",
      "to": "0x6a50fca73bd35e58649361bd1270725ae50672eb",
      "contractAddress": null,
      "l1BaseFeeScalar": "0x8dd",
      "l1BlobBaseFee": "0x1",
      "l1BlobBaseFeeScalar": "0x101c12",
      "l1Fee": "0x69b8f55f8",
      "l1GasPrice": "0x188037eec",
      "l1GasUsed": "0x76d"
    },
    {
      "status": "0x1",
      "cumulativeGasUsed": "0xf64411",
      "logs": [
        {
          "address": "0x5f579ab70e8874dd2c176e49b5beec2df343a43c",
          "topics": [
            "0x47d99ad340f52da66535aff7e10da1ceb85a32bcbd9fa1c42314d194545e14d2",
            "0x0000000000000000000000002d37c6bfcb5cdd2cdb5c48c107b56a85b77d62e8",
            "0x0000000000000000000000000000000000000000000000000000000000000000"
          ],
          "data": "0x0000000000000000000000000000000000000000000000000000000000000020000000000000000000000000000000000000000000000000000000000000006423b872dd0000000000000000000000005f579ab70e8874dd2c176e49b5beec2df343a43c000000000000000000000000000000000000000000000000000000000000dead000000000000000000000000000000000000000000000000000000000000006000000000000000000000000000000000000000000000000000000000",
          "blockHash": "0xc4f10f83970eaf5fb0def09d302581ab19fd1926a4c22481bf49d9ea343442bc",
          "blockNumber": "0x12b0f9c",
          "transactionHash": "0xd5c715aa12f3a9dc62ec40308500045f9472b47ed54ca82747a2ba2a22a4ca9c",
          "transactionIndex": "0x69",
          "logIndex": "0x138",
          "removed": false
        },
        {
          "address": "0x2d37c6bfcb5cdd2cdb5c48c107b56a85b77d62e8",
          "topics": [
            "0xddf252ad1be2c89b69c2b068fc378daa952ba7f163c4a11628f55a4df523b3ef",
            "0x0000000000000000000000005f579ab70e8874dd2c176e49b5beec2df343a43c",
            "0x000000000000000000000000000000000000000000000000000000000000dead",
            "0x0000000000000000000000000000000000000000000000000000000000000060"
          ],
          "data": "0x",
          "blockHash": "0xc4f10f83970eaf5fb0def09d302581ab19fd1926a4c22481bf49d9ea343442bc",
          "blockNumber": "0x12b0f9c",
          "transactionHash": "0xd5c715aa12f3a9dc62ec40308500045f9472b47ed54ca82747a2ba2a22a4ca9c",
          "transactionIndex": "0x69",
          "logIndex": "0x139",
          "removed": false
        }
      ],
      "logsBloom": "0x01002000000014000000000004200000000000000000000002000000000000000100000000000000000000000000000000200000000000000000000000000000000000000000000000000008000000000000000000000000000000000000000000000000021000080000000000000800000000000000000000000010000000000000000000000000200204000000000000008000000000000000000000000000200000000000000000000000000000000000000000000000000000000000000000000402000000800000000000000000000000000000000000000000000020000000002000000000000002000000004000000000000000000000000000000000",
      "type": "0x2",
      "transactionHash": "0xd5c715aa12f3a9dc62ec40308500045f9472b47ed54ca82747a2ba2a22a4ca9c",
      "transactionIndex": "0x69",
      "blockHash": "0xc4f10f83970eaf5fb0def09d302581ab19fd1926a4c22481bf49d9ea343442bc",
      "blockNumber": "0x12b0f9c",
      "gasUsed": "0x18708",
      "effectiveGasPrice": "0x58d14f",
      "from": "0xf53f105e90b3e9ea928926a5a78e921d8168e213",
      "to": "0x5f579ab70e8874dd2c176e49b5beec2df343a43c",
      "contractAddress": null,
      "l1BaseFeeScalar": "0x8dd",
      "l1BlobBaseFee": "0x1",
      "l1BlobBaseFeeScalar": "0x101c12",
      "l1Fee": "0x660093570",
      "l1GasPrice": "0x188037eec",
      "l1GasUsed": "0x72a"
    },
    {
      "status": "0x1",
      "cumulativeGasUsed": "0xf7cb19",
      "logs": [
        {
          "address": "0xf4bc52d7be342a06130d2811542835fe92fb675c",
          "topics": [
            "0x47d99ad340f52da66535aff7e10da1ceb85a32bcbd9fa1c42314d194545e14d2",
            "0x0000000000000000000000002d37c6bfcb5cdd2cdb5c48c107b56a85b77d62e8",
            "0x0000000000000000000000000000000000000000000000000000000000000000"
          ],
          "data": "0x0000000000000000000000000000000000000000000000000000000000000020000000000000000000000000000000000000000000000000000000000000006423b872dd000000000000000000000000f4bc52d7be342a06130d2811542835fe92fb675c000000000000000000000000000000000000000000000000000000000000dead000000000000000000000000000000000000000000000000000000000000006300000000000000000000000000000000000000000000000000000000",
          "blockHash": "0xc4f10f83970eaf5fb0def09d302581ab19fd1926a4c22481bf49d9ea343442bc",
          "blockNumber": "0x12b0f9c",
          "transactionHash": "0xfbadf18d98dff3bdbef756ca6aaac54d53ba5d5eda11569168e99ba943f4de36",
          "transactionIndex": "0x6a",
          "logIndex": "0x13a",
          "removed": false
        },
        {
          "address": "0x2d37c6bfcb5cdd2cdb5c48c107b56a85b77d62e8",
          "topics": [
            "0xddf252ad1be2c89b69c2b068fc378daa952ba7f163c4a11628f55a4df523b3ef",
            "0x000000000000000000000000f4bc52d7be342a06130d2811542835fe92fb675c",
            "0x000000000000000000000000000000000000000000000000000000000000dead",
            "0x0000000000000000000000000000000000000000000000000000000000000063"
          ],
          "data": "0x",
          "blockHash": "0xc4f10f83970eaf5fb0def09d302581ab19fd1926a4c22481bf49d9ea343442bc",
          "blockNumber": "0x12b0f9c",
          "transactionHash": "0xfbadf18d98dff3bdbef756ca6aaac54d53ba5d5eda11569168e99ba943f4de36",
          "transactionIndex": "0x6a",
          "logIndex": "0x13b",
          "removed": false
        }
      ],
      "logsBloom": "0x01000000000014000000000004000000000000000000000002000000000000000120000000000000000000000000000000000000000000000000000000000000000000000000000000000008000000000000000000000008000000000000000000000000020000000000000000000884000000000000000000000010000000000000000000000000000004000000000000000000000000000000000000000000210000000000000000000000000000000000000000000000800000000000000000000402000000000000000000000000000000080000000000000000000020000000002000000000000002000000004000002000000000000000004000000000",
      "type": "0x2",
      "transactionHash": "0xfbadf18d98dff3bdbef756ca6aaac54d53ba5d5eda11569168e99ba943f4de36",
      "transactionIndex": "0x6a",
      "blockHash": "0xc4f10f83970eaf5fb0def09d302581ab19fd1926a4c22481bf49d9ea343442bc",
      "blockNumber": "0x12b0f9c",
      "gasUsed": "0x18708",
      "effectiveGasPrice": "0x58d14f",
      "from": "0xf53f105e90b3e9ea928926a5a78e921d8168e213",
      "to": "0xf4bc52d7be342a06130d2811542835fe92fb675c",
      "contractAddress": null,
      "l1BaseFeeScalar": "0x8dd",
      "l1BlobBaseFee": "0x1",
      "l1BlobBaseFeeScalar": "0x101c12",
      "l1Fee": "0x69b8f55f8",
      "l1GasPrice": "0x188037eec",
      "l1GasUsed": "0x76d"
    },
    {
      "status": "0x1",
      "cumulativeGasUsed": "0xf95221",
      "logs": [
        {
          "address": "0x58e5c92127299b8d1c9d4cc8a92df6571258c892",
          "topics": [
            "0x47d99ad340f52da66535aff7e10da1ceb85a32bcbd9fa1c42314d194545e14d2",
            "0x0000000000000000000000002d37c6bfcb5cdd2cdb5c48c107b56a85b77d62e8",
            "0x0000000000000000000000000000000000000000000000000000000000000000"
          ],
          "data": "0x0000000000000000000000000000000000000000000000000000000000000020000000000000000000000000000000000000000000000000000000000000006423b872dd00000000000000000000000058e5c92127299b8d1c9d4cc8a92df6571258c892000000000000000000000000000000000000000000000000000000000000dead000000000000000000000000000000000000000000000000000000000000006500000000000000000000000000000000000000000000000000000000",
          "blockHash": "0xc4f10f83970eaf5fb0def09d302581ab19fd1926a4c22481bf49d9ea343442bc",
          "blockNumber": "0x12b0f9c",
          "transactionHash": "0x227656b5ffc0c1bac52a943bba2a5d877ab8125cc455073f6d72958ca543c776",
          "transactionIndex": "0x6b",
          "logIndex": "0x13c",
          "removed": false
        },
        {
          "address": "0x2d37c6bfcb5cdd2cdb5c48c107b56a85b77d62e8",
          "topics": [
            "0xddf252ad1be2c89b69c2b068fc378daa952ba7f163c4a11628f55a4df523b3ef",
            "0x00000000000000000000000058e5c92127299b8d1c9d4cc8a92df6571258c892",
            "0x000000000000000000000000000000000000000000000000000000000000dead",
            "0x0000000000000000000000000000000000000000000000000000000000000065"
          ],
          "data": "0x",
          "blockHash": "0xc4f10f83970eaf5fb0def09d302581ab19fd1926a4c22481bf49d9ea343442bc",
          "blockNumber": "0x12b0f9c",
          "transactionHash": "0x227656b5ffc0c1bac52a943bba2a5d877ab8125cc455073f6d72958ca543c776",
          "transactionIndex": "0x6b",
          "logIndex": "0x13d",
          "removed": false
        }
      ],
      "logsBloom": "0x03000000000014000000000004000000000000000000000002000000000008000100000080000000000000000004000000000000000000008000000000000000000000000008000000000008000000000000000000000000000000000000000000000000020000000000000000000800000000000000000000000810020000000000000000000000000004000000000000000000000000000000000000000000200000000000000000000000000000000000000000000000000000000000000000000402000100000000000000000000000000000000000000000000000020000000002000000000000002000000004000000000000000000000000000000000",
      "type": "0x2",
      "transactionHash": "0x227656b5ffc0c1bac52a943bba2a5d877ab8125cc455073f6d72958ca543c776",
      "transactionIndex": "0x6b",
      "blockHash": "0xc4f10f83970eaf5fb0def09d302581ab19fd1926a4c22481bf49d9ea343442bc",
      "blockNumber": "0x12b0f9c",
      "gasUsed": "0x18708",
      "effectiveGasPrice": "0x58d14f",
      "from": "0xf53f105e90b3e9ea928926a5a78e921d8168e213",
      "to": "0x58e5c92127299b8d1c9d4cc8a92df6571258c892",
      "contractAddress": null,
      "l1BaseFeeScalar": "0x8dd",
      "l1BlobBaseFee": "0x1",
      "l1BlobBaseFeeScalar": "0x101c12",
      "l1Fee": "0x69b8f55f8",
      "l1GasPrice": "0x188037eec",
      "l1GasUsed": "0x76d"
    },
    {
      "status": "0x1",
      "cumulativeGasUsed": "0xfad929",
      "logs": [
        {
          "address": "0x5067ded9af6d1845a7811bea6295479534d876fc",
          "topics": [
            "0x47d99ad340f52da66535aff7e10da1ceb85a32bcbd9fa1c42314d194545e14d2",
            "0x0000000000000000000000002d37c6bfcb5cdd2cdb5c48c107b56a85b77d62e8",
            "0x0000000000000000000000000000000000000000000000000000000000000000"
          ],
          "data": "0x0000000000000000000000000000000000000000000000000000000000000020000000000000000000000000000000000000000000000000000000000000006423b872dd0000000000000000000000005067ded9af6d1845a7811bea6295479534d876fc000000000000000000000000000000000000000000000000000000000000dead000000000000000000000000000000000000000000000000000000000000006600000000000000000000000000000000000000000000000000000000",
          "blockHash": "0xc4f10f83970eaf5fb0def09d302581ab19fd1926a4c22481bf49d9ea343442bc",
          "blockNumber": "0x12b0f9c",
          "transactionHash": "0xa38d55364b0813962fddb0c30490700aba4a441433ae8fc2b8cb3dde49f513fd",
          "transactionIndex": "0x6c",
          "logIndex": "0x13e",
          "removed": false
        },
        {
          "address": "0x2d37c6bfcb5cdd2cdb5c48c107b56a85b77d62e8",
          "topics": [
            "0xddf252ad1be2c89b69c2b068fc378daa952ba7f163c4a11628f55a4df523b3ef",
            "0x0000000000000000000000005067ded9af6d1845a7811bea6295479534d876fc",
            "0x000000000000000000000000000000000000000000000000000000000000dead",
            "0x0000000000000000000000000000000000000000000000000000000000000066"
          ],
          "data": "0x",
          "blockHash": "0xc4f10f83970eaf5fb0def09d302581ab19fd1926a4c22481bf49d9ea343442bc",
          "blockNumber": "0x12b0f9c",
          "transactionHash": "0xa38d55364b0813962fddb0c30490700aba4a441433ae8fc2b8cb3dde49f513fd",
          "transactionIndex": "0x6c",
          "logIndex": "0x13f",
          "removed": false
        }
      ],
      "logsBloom": "0x01000000000014000000000004000000000010000000000002000000000000000100000000000000000000000000000000000000000100000002000000000000000000000000000000000008000000000000000000000000000000000000000000000000020000000000000000000800000000000000000000000010000000020000000000000000000004000000000000000000000000000000000000000000200000000000000000000000000000000000000000000000000000000000000000000402000000000000000000000000008000000000000000000000000020000000002000000400000003400000004002000000000000000000000000000000",
      "type": "0x2",
      "transactionHash": "0xa38d55364b0813962fddb0c30490700aba4a441433ae8fc2b8cb3dde49f513fd",
      "transactionIndex": "0x6c",
      "blockHash": "0xc4f10f83970eaf5fb0def09d302581ab19fd1926a4c22481bf49d9ea343442bc",
      "blockNumber": "0x12b0f9c",
      "gasUsed": "0x18708",
      "effectiveGasPrice": "0x58d14f",
      "from": "0xf53f105e90b3e9ea928926a5a78e921d8168e213",
      "to": "0x5067ded9af6d1845a7811bea6295479534d876fc",
      "contractAddress": null,
      "l1BaseFeeScalar": "0x8dd",
      "l1BlobBaseFee": "0x1",
      "l1BlobBaseFeeScalar": "0x101c12",
      "l1Fee": "0x6b35e962e",
      "l1GasPrice": "0x188037eec",
      "l1GasUsed": "0x788"
    },
    {
      "status": "0x1",
      "cumulativeGasUsed": "0xfc6031",
      "logs": [
        {
          "address": "0x2cdc959ed274741eebc4c2747830e03e12b94305",
          "topics": [
            "0x47d99ad340f52da66535aff7e10da1ceb85a32bcbd9fa1c42314d194545e14d2",
            "0x0000000000000000000000002d37c6bfcb5cdd2cdb5c48c107b56a85b77d62e8",
            "0x0000000000000000000000000000000000000000000000000000000000000000"
          ],
          "data": "0x0000000000000000000000000000000000000000000000000000000000000020000000000000000000000000000000000000000000000000000000000000006423b872dd0000000000000000000000002cdc959ed274741eebc4c2747830e03e12b94305000000000000000000000000000000000000000000000000000000000000dead000000000000000000000000000000000000000000000000000000000000006800000000000000000000000000000000000000000000000000000000",
          "blockHash": "0xc4f10f83970eaf5fb0def09d302581ab19fd1926a4c22481bf49d9ea343442bc",
          "blockNumber": "0x12b0f9c",
          "transactionHash": "0xa3ab1dda7863d46f5e4408a11248812a2ca0f4c0d8e089f9c191ae7782f0ba02",
          "transactionIndex": "0x6d",
          "logIndex": "0x140",
          "removed": false
        },
        {
          "address": "0x2d37c6bfcb5cdd2cdb5c48c107b56a85b77d62e8",
          "topics": [
            "0xddf252ad1be2c89b69c2b068fc378daa952ba7f163c4a11628f55a4df523b3ef",
            "0x0000000000000000000000002cdc959ed274741eebc4c2747830e03e12b94305",
            "0x000000000000000000000000000000000000000000000000000000000000dead",
            "0x0000000000000000000000000000000000000000000000000000000000000068"
          ],
          "data": "0x",
          "blockHash": "0xc4f10f83970eaf5fb0def09d302581ab19fd1926a4c22481bf49d9ea343442bc",
          "blockNumber": "0x12b0f9c",
          "transactionHash": "0xa3ab1dda7863d46f5e4408a11248812a2ca0f4c0d8e089f9c191ae7782f0ba02",
          "transactionIndex": "0x6d",
          "logIndex": "0x141",
          "removed": false
        }
      ],
      "logsBloom": "0x01000000000014000000000004000000000000000000020002000000000000000100000000000000000000080000000000000000000000000000000000000000008000000000000000000008000000000000001000000000000000000000000000000000020000000000000000000800000002000000000000000011000000008000000000000000000004000000000000000000000000000000000000000000200000000000000000000000000000000000000000000000000000000020000000000402000000000000000000000000000000000000000000000000000020000000002000000000000002000000004000000000000000100000000000000000",
      "type": "0x2",
      "transactionHash": "0xa3ab1dda7863d46f5e4408a11248812a2ca0f4c0d8e089f9c191ae7782f0ba02",
      "transactionIndex": "0x6d",
      "blockHash": "0xc4f10f83970eaf5fb0def09d302581ab19fd1926a4c22481bf49d9ea343442bc",
      "blockNumber": "0x12b0f9c",
      "gasUsed": "0x18708",
      "effectiveGasPrice": "0x58d14f",
      "from": "0xf53f105e90b3e9ea928926a5a78e921d8168e213",
      "to": "0x2cdc959ed274741eebc4c2747830e03e12b94305",
      "contractAddress": null,
      "l1BaseFeeScalar": "0x8dd",
      "l1BlobBaseFee": "0x1",
      "l1BlobBaseFeeScalar": "0x101c12",
      "l1Fee": "0x69b8f55f8",
      "l1GasPrice": "0x188037eec",
      "l1GasUsed": "0x76d"
    },
    {
      "status": "0x1",
      "cumulativeGasUsed": "0xfde739",
      "logs": [
        {
          "address": "0x03fd661aee3ab4b86d2efe5096442c06320d3662",
          "topics": [
            "0x47d99ad340f52da66535aff7e10da1ceb85a32bcbd9fa1c42314d194545e14d2",
            "0x0000000000000000000000002d37c6bfcb5cdd2cdb5c48c107b56a85b77d62e8",
            "0x0000000000000000000000000000000000000000000000000000000000000000"
          ],
          "data": "0x0000000000000000000000000000000000000000000000000000000000000020000000000000000000000000000000000000000000000000000000000000006423b872dd00000000000000000000000003fd661aee3ab4b86d2efe5096442c06320d3662000000000000000000000000000000000000000000000000000000000000dead000000000000000000000000000000000000000000000000000000000000006900000000000000000000000000000000000000000000000000000000",
          "blockHash": "0xc4f10f83970eaf5fb0def09d302581ab19fd1926a4c22481bf49d9ea343442bc",
          "blockNumber": "0x12b0f9c",
          "transactionHash": "0xb285d4d3f74b11d8005185c4607ff2b3bd4570b7a69587589f70e01d71c0da49",
          "transactionIndex": "0x6e",
          "logIndex": "0x142",
          "removed": false
        },
        {
          "address": "0x2d37c6bfcb5cdd2cdb5c48c107b56a85b77d62e8",
          "topics": [
            "0xddf252ad1be2c89b69c2b068fc378daa952ba7f163c4a11628f55a4df523b3ef",
            "0x00000000000000000000000003fd661aee3ab4b86d2efe5096442c06320d3662",
            "0x000000000000000000000000000000000000000000000000000000000000dead",
            "0x0000000000000000000000000000000000000000000000000000000000000069"
          ],
          "data": "0x",
          "blockHash": "0xc4f10f83970eaf5fb0def09d302581ab19fd1926a4c22481bf49d9ea343442bc",
          "blockNumber": "0x12b0f9c",
          "transactionHash": "0xb285d4d3f74b11d8005185c4607ff2b3bd4570b7a69587589f70e01d71c0da49",
          "transactionIndex": "0x6e",
          "logIndex": "0x143",
          "removed": false
        }
      ],
      "logsBloom": "0x01000000000014000010000004000000000000000000000002000000000000000100000000000000000000000102000000000000000000000000000000000000000000000000000000000008000000000000000000000000000000100000000000000000020000000000000000000820000000000000000000000010000000000200000000000000000004000000000000000000000000000000000000000000200000000000000000000000000000000000000000000000800000000000000000000402000000000000000000000000001000000000000000000000000020000000002000000000000002000000004000000000000000000000400000000000",
      "type": "0x2",
      "transactionHash": "0xb285d4d3f74b11d8005185c4607ff2b3bd4570b7a69587589f70e01d71c0da49",
      "transactionIndex": "0x6e",
      "blockHash": "0xc4f10f83970eaf5fb0def09d302581ab19fd1926a4c22481bf49d9ea343442bc",
      "blockNumber": "0x12b0f9c",
      "gasUsed": "0x18708",
      "effectiveGasPrice": "0x58d14f",
      "from": "0xf53f105e90b3e9ea928926a5a78e921d8168e213",
      "to": "0x03fd661aee3ab4b86d2efe5096442c06320d3662",
      "contractAddress": null,
      "l1BaseFeeScalar": "0x8dd",
      "l1BlobBaseFee": "0x1",
      "l1BlobBaseFeeScalar": "0x101c12",
      "l1Fee": "0x69b8f55f8",
      "l1GasPrice": "0x188037eec",
      "l1GasUsed": "0x76d"
    },
    {
      "status": "0x1",
      "cumulativeGasUsed": "0xff6e41",
      "logs": [
        {
          "address": "0xddd4e693ffaa68436fe0ade79230d24c7a32af41",
          "topics": [
            "0x47d99ad340f52da66535aff7e10da1ceb85a32bcbd9fa1c42314d194545e14d2",
            "0x0000000000000000000000002d37c6bfcb5cdd2cdb5c48c107b56a85b77d62e8",
            "0x0000000000000000000000000000000000000000000000000000000000000000"
          ],
          "data": "0x0000000000000000000000000000000000000000000000000000000000000020000000000000000000000000000000000000000000000000000000000000006423b872dd000000000000000000000000ddd4e693ffaa68436fe0ade79230d24c7a32af41000000000000000000000000000000000000000000000000000000000000dead000000000000000000000000000000000000000000000000000000000000006b00000000000000000000000000000000000000000000000000000000",
          "blockHash": "0xc4f10f83970eaf5fb0def09d302581ab19fd1926a4c22481bf49d9ea343442bc",
          "blockNumber": "0x12b0f9c",
          "transactionHash": "0xcebcdceb832fdbeb88ab63e4d6d8b1ff29588541435a96d997576aa315c9b233",
          "transactionIndex": "0x6f",
          "logIndex": "0x144",
          "removed": false
        },
        {
          "address": "0x2d37c6bfcb5cdd2cdb5c48c107b56a85b77d62e8",
          "topics": [
            "0xddf252ad1be2c89b69c2b068fc378daa952ba7f163c4a11628f55a4df523b3ef",
            "0x000000000000000000000000ddd4e693ffaa68436fe0ade79230d24c7a32af41",
            "0x000000000000000000000000000000000000000000000000000000000000dead",
            "0x000000000000000000000000000000000000000000000000000000000000006b"
          ],
          "data": "0x",
          "blockHash": "0xc4f10f83970eaf5fb0def09d302581ab19fd1926a4c22481bf49d9ea343442bc",
          "blockNumber": "0x12b0f9c",
          "transactionHash": "0xcebcdceb832fdbeb88ab63e4d6d8b1ff29588541435a96d997576aa315c9b233",
          "transactionIndex": "0x6f",
          "logIndex": "0x145",
          "removed": false
        }
      ],
      "logsBloom": "0x01000000000814000000000004000000000000000000000002002000000000000100000000000000000000000000100000000000000000000000000000000000000000000000000000000008000000000000000000000008000000000000000000000000020000000000000000000801000000000000000000000010000010000000000000000000000004000000400000000000000000000000000000000000200000000080000000000000000000000000000000000000000000000000000000000402000000000000000000000000000000000000000000000000000020000000002000000100000002000000004000000000000000000000000000000000",
      "type": "0x2",
      "transactionHash": "0xcebcdceb832fdbeb88ab63e4d6d8b1ff29588541435a96d997576aa315c9b233",
      "transactionIndex": "0x6f",
      "blockHash": "0xc4f10f83970eaf5fb0def09d302581ab19fd1926a4c22481bf49d9ea343442bc",
      "blockNumber": "0x12b0f9c",
      "gasUsed": "0x18708",
      "effectiveGasPrice": "0x58d14f",
      "from": "0xf53f105e90b3e9ea928926a5a78e921d8168e213",
      "to": "0xddd4e693ffaa68436fe0ade79230d24c7a32af41",
      "contractAddress": null,
      "l1BaseFeeScalar": "0x8dd",
      "l1BlobBaseFee": "0x1",
      "l1BlobBaseFeeScalar": "0x101c12",
      "l1Fee": "0x69b8f55f8",
      "l1GasPrice": "0x188037eec",
      "l1GasUsed": "0x76d"
    },
    {
      "status": "0x1",
      "cumulativeGasUsed": "0x100f549",
      "logs": [
        {
          "address": "0xa66f5afa12a1323f97e6557d1976f73faddeb23b",
          "topics": [
            "0x47d99ad340f52da66535aff7e10da1ceb85a32bcbd9fa1c42314d194545e14d2",
            "0x0000000000000000000000002d37c6bfcb5cdd2cdb5c48c107b56a85b77d62e8",
            "0x0000000000000000000000000000000000000000000000000000000000000000"
          ],
          "data": "0x0000000000000000000000000000000000000000000000000000000000000020000000000000000000000000000000000000000000000000000000000000006423b872dd000000000000000000000000a66f5afa12a1323f97e6557d1976f73faddeb23b000000000000000000000000000000000000000000000000000000000000dead000000000000000000000000000000000000000000000000000000000000006d00000000000000000000000000000000000000000000000000000000",
          "blockHash": "0xc4f10f83970eaf5fb0def09d302581ab19fd1926a4c22481bf49d9ea343442bc",
          "blockNumber": "0x12b0f9c",
          "transactionHash": "0x6eafb20599dd9ba69ed4fb9b47923dc300ac4cd9ad0db954ba917908070a160f",
          "transactionIndex": "0x70",
          "logIndex": "0x146",
          "removed": false
        },
        {
          "address": "0x2d37c6bfcb5cdd2cdb5c48c107b56a85b77d62e8",
          "topics": [
            "0xddf252ad1be2c89b69c2b068fc378daa952ba7f163c4a11628f55a4df523b3ef",
            "0x000000000000000000000000a66f5afa12a1323f97e6557d1976f73faddeb23b",
            "0x000000000000000000000000000000000000000000000000000000000000dead",
            "0x000000000000000000000000000000000000000000000000000000000000006d"
          ],
          "data": "0x",
          "blockHash": "0xc4f10f83970eaf5fb0def09d302581ab19fd1926a4c22481bf49d9ea343442bc",
          "blockNumber": "0x12b0f9c",
          "transactionHash": "0x6eafb20599dd9ba69ed4fb9b47923dc300ac4cd9ad0db954ba917908070a160f",
          "transactionIndex": "0x70",
          "logIndex": "0x147",
          "removed": false
        }
      ],
      "logsBloom": "0x01000000000014000000000004000000000000000000000002000000000000000102000000000000000000000000000000000000000000000000000000000020020000000000000000000008000000000000000000000000000000000002000000000000020000000000000000000800000000000000000000000010000000000000000000000000000004000000000000000000400000000000000000000000200000000000000000000000000000000000000000000000000000000000800000000402000000000000000000000000000000000000000000000000000020000000002000000000000002000000004010000000000000000100000000000040",
      "type": "0x2",
      "transactionHash": "0x6eafb20599dd9ba69ed4fb9b47923dc300ac4cd9ad0db954ba917908070a160f",
      "transactionIndex": "0x70",
      "blockHash": "0xc4f10f83970eaf5fb0def09d302581ab19fd1926a4c22481bf49d9ea343442bc",
      "blockNumber": "0x12b0f9c",
      "gasUsed": "0x18708",
      "effectiveGasPrice": "0x58d14f",
      "from": "0xf53f105e90b3e9ea928926a5a78e921d8168e213",
      "to": "0xa66f5afa12a1323f97e6557d1976f73faddeb23b",
      "contractAddress": null,
      "l1BaseFeeScalar": "0x8dd",
      "l1BlobBaseFee": "0x1",
      "l1BlobBaseFeeScalar": "0x101c12",
      "l1Fee": "0x69b8f55f8",
      "l1GasPrice": "0x188037eec",
      "l1GasUsed": "0x76d"
    },
    {
      "status": "0x1",
      "cumulativeGasUsed": "0x1027c51",
      "logs": [
        {
          "address": "0x95344b889129b5a56295c27da60ef7ba76e7af66",
          "topics": [
            "0x47d99ad340f52da66535aff7e10da1ceb85a32bcbd9fa1c42314d194545e14d2",
            "0x0000000000000000000000002d37c6bfcb5cdd2cdb5c48c107b56a85b77d62e8",
            "0x0000000000000000000000000000000000000000000000000000000000000000"
          ],
          "data": "0x0000000000000000000000000000000000000000000000000000000000000020000000000000000000000000000000000000000000000000000000000000006423b872dd00000000000000000000000095344b889129b5a56295c27da60ef7ba76e7af66000000000000000000000000000000000000000000000000000000000000dead000000000000000000000000000000000000000000000000000000000000006e00000000000000000000000000000000000000000000000000000000",
          "blockHash": "0xc4f10f83970eaf5fb0def09d302581ab19fd1926a4c22481bf49d9ea343442bc",
          "blockNumber": "0x12b0f9c",
          "transactionHash": "0xa4e1d9e5b3b80c4c6a47b28a88455d772d2930e8dc91ae65adff1542dbe55b60",
          "transactionIndex": "0x71",
          "logIndex": "0x148",
          "removed": false
        },
        {
          "address": "0x2d37c6bfcb5cdd2cdb5c48c107b56a85b77d62e8",
          "topics": [
            "0xddf252ad1be2c89b69c2b068fc378daa952ba7f163c4a11628f55a4df523b3ef",
            "0x00000000000000000000000095344b889129b5a56295c27da60ef7ba76e7af66",
            "0x000000000000000000000000000000000000000000000000000000000000dead",
            "0x000000000000000000000000000000000000000000000000000000000000006e"
          ],
          "data": "0x",
          "blockHash": "0xc4f10f83970eaf5fb0def09d302581ab19fd1926a4c22481bf49d9ea343442bc",
          "blockNumber": "0x12b0f9c",
          "transactionHash": "0xa4e1d9e5b3b80c4c6a47b28a88455d772d2930e8dc91ae65adff1542dbe55b60",
          "transactionIndex": "0x71",
          "logIndex": "0x149",
          "removed": false
        }
      ],
      "logsBloom": "0x01000000000014000000000004000000000000000004000002000000000000000100000000000000000000000000000000000000000000000000000000000000000040000000000000000008000000000000000000000000000000008000000000000000020000000000000000000800000000000000000000000010000000000000000000000000000004000000000000000000000000000400000000000000200000000000000000000000000000000000000000000000000000000000000080000402000000000000000000000000004000000000000000010000000020800000002000000000000002000000006000000000000000000000000000000000",
      "type": "0x2",
      "transactionHash": "0xa4e1d9e5b3b80c4c6a47b28a88455d772d2930e8dc91ae65adff1542dbe55b60",
      "transactionIndex": "0x71",
      "blockHash": "0xc4f10f83970eaf5fb0def09d302581ab19fd1926a4c22481bf49d9ea343442bc",
      "blockNumber": "0x12b0f9c",
      "gasUsed": "0x18708",
      "effectiveGasPrice": "0x58d14f",
      "from": "0xf53f105e90b3e9ea928926a5a78e921d8168e213",
      "to": "0x95344b889129b5a56295c27da60ef7ba76e7af66",
      "contractAddress": null,
      "l1BaseFeeScalar": "0x8dd",
      "l1BlobBaseFee": "0x1",
      "l1BlobBaseFeeScalar": "0x101c12",
      "l1Fee": "0x69b8f55f8",
      "l1GasPrice": "0x188037eec",
      "l1GasUsed": "0x76d"
    },
    {
      "status": "0x1",
      "cumulativeGasUsed": "0x1099023",
      "logs": [
        {
          "address": "0xdf45e76a7db9468e1a7190d4a079d24942be1937",
          "topics": [
            "0x47d99ad340f52da66535aff7e10da1ceb85a32bcbd9fa1c42314d194545e14d2",
            "0x0000000000000000000000002d37c6bfcb5cdd2cdb5c48c107b56a85b77d62e8",
            "0x0000000000000000000000000000000000000000000000000000000000000000"
          ],
          "data": "0x0000000000000000000000000000000000000000000000000000000000000020000000000000000000000000000000000000000000000000000000000000006423b872dd000000000000000000000000df45e76a7db9468e1a7190d4a079d24942be1937000000000000000000000000000000000000000000000000000000000000dead000000000000000000000000000000000000000000000000000000000000007100000000000000000000000000000000000000000000000000000000",
          "blockHash": "0xc4f10f83970eaf5fb0def09d302581ab19fd1926a4c22481bf49d9ea343442bc",
          "blockNumber": "0x12b0f9c",
          "transactionHash": "0x706e8d3c146c0aa93d3da702be84df5d78c4239d9da19af1658f1f2779f22522",
          "transactionIndex": "0x73",
          "logIndex": "0x14a",
          "removed": false
        },
        {
          "address": "0x2d37c6bfcb5cdd2cdb5c48c107b56a85b77d62e8",
          "topics": [
            "0xddf252ad1be2c89b69c2b068fc378daa952ba7f163c4a11628f55a4df523b3ef",
            "0x000000000000000000000000df45e76a7db9468e1a7190d4a079d24942be1937",
            "0x000000000000000000000000000000000000000000000000000000000000dead",
            "0x0000000000000000000000000000000000000000000000000000000000000071"
          ],
          "data": "0x",
          "blockHash": "0xc4f10f83970eaf5fb0def09d302581ab19fd1926a4c22481bf49d9ea343442bc",
          "blockNumber": "0x12b0f9c",
          "transactionHash": "0x706e8d3c146c0aa93d3da702be84df5d78c4239d9da19af1658f1f2779f22522",
          "transactionIndex": "0x73",
          "logIndex": "0x14b",
          "removed": false
        }
      ],
      "logsBloom": "0x01000000000014000000000004000000000000000000000002000000000000000100000000000000000000000000100000000000008000000000000000000000000100002000000000000008000000000000000000000000000000000000000000000000020000000000000000000800000000000000000000000210000010000000200000000000000004000000000000000000000000000000000000000000200000000000000000000000000000000000000000000000000000000000000010000402000000000000000008000000000000000000000000000000000020000000002000000000000002000000004000000000000000000000000000000000",
      "type": "0x2",
      "transactionHash": "0x706e8d3c146c0aa93d3da702be84df5d78c4239d9da19af1658f1f2779f22522",
      "transactionIndex": "0x73",
      "blockHash": "0xc4f10f83970eaf5fb0def09d302581ab19fd1926a4c22481bf49d9ea343442bc",
      "blockNumber": "0x12b0f9c",
      "gasUsed": "0x18708",
      "effectiveGasPrice": "0x58d14f",
      "from": "0xf53f105e90b3e9ea928926a5a78e921d8168e213",
      "to": "0xdf45e76a7db9468e1a7190d4a079d24942be1937",
      "contractAddress": null,
      "l1BaseFeeScalar": "0x8dd",
      "l1BlobBaseFee": "0x1",
      "l1BlobBaseFeeScalar": "0x101c12",
      "l1Fee": "0x69b8f55f8",
      "l1GasPrice": "0x188037eec",
      "l1GasUsed": "0x76d"
    },
    {
      "status": "0x1",
      "cumulativeGasUsed": "0x10b172b",
      "logs": [
        {
          "address": "0x29e09f42b097165b962535490603539e7bf7f1cf",
          "topics": [
            "0x47d99ad340f52da66535aff7e10da1ceb85a32bcbd9fa1c42314d194545e14d2",
            "0x0000000000000000000000002d37c6bfcb5cdd2cdb5c48c107b56a85b77d62e8",
            "0x0000000000000000000000000000000000000000000000000000000000000000"
          ],
          "data": "0x0000000000000000000000000000000000000000000000000000000000000020000000000000000000000000000000000000000000000000000000000000006423b872dd00000000000000000000000029e09f42b097165b962535490603539e7bf7f1cf000000000000000000000000000000000000000000000000000000000000dead000000000000000000000000000000000000000000000000000000000000007300000000000000000000000000000000000000000000000000000000",
          "blockHash": "0xc4f10f83970eaf5fb0def09d302581ab19fd1926a4c22481bf49d9ea343442bc",
          "blockNumber": "0x12b0f9c",
          "transactionHash": "0xbbfe5ccd9bb197ceeeb287f6dab484a3509c72f967dfe84d7c51d2d7b79a26d4",
          "transactionIndex": "0x74",
          "logIndex": "0x14c",
          "removed": false
        },
        {
          "address": "0x2d37c6bfcb5cdd2cdb5c48c107b56a85b77d62e8",
          "topics": [
            "0xddf252ad1be2c89b69c2b068fc378daa952ba7f163c4a11628f55a4df523b3ef",
            "0x00000000000000000000000029e09f42b097165b962535490603539e7bf7f1cf",
            "0x000000000000000000000000000000000000000000000000000000000000dead",
            "0x0000000000000000000000000000000000000000000000000000000000000073"
          ],
          "data": "0x",
          "blockHash": "0xc4f10f83970eaf5fb0def09d302581ab19fd1926a4c22481bf49d9ea343442bc",
          "blockNumber": "0x12b0f9c",
          "transactionHash": "0xbbfe5ccd9bb197ceeeb287f6dab484a3509c72f967dfe84d7c51d2d7b79a26d4",
          "transactionIndex": "0x74",
          "logIndex": "0x14d",
          "removed": false
        }
      ],
      "logsBloom": "0x0100000000001400000000000c000000000000000000000002100100000000000100000000000000000000002004000000000000000000000000000000000000000000000080000000000008000000000000000000000000000000000080000000000000020000000000000000000800000000000000000000000010000000000000000000000000000004000000000000000000000000000001000000000000200000000000000000000000000000000000000000000000000000000000000000000402000000000000000000000000000000000000000000000000000020000000002000000000000002000000004000000000000000000020000000000000",
      "type": "0x2",
      "transactionHash": "0xbbfe5ccd9bb197ceeeb287f6dab484a3509c72f967dfe84d7c51d2d7b79a26d4",
      "transactionIndex": "0x74",
      "blockHash": "0xc4f10f83970eaf5fb0def09d302581ab19fd1926a4c22481bf49d9ea343442bc",
      "blockNumber": "0x12b0f9c",
      "gasUsed": "0x18708",
      "effectiveGasPrice": "0x58d14f",
      "from": "0xf53f105e90b3e9ea928926a5a78e921d8168e213",
      "to": "0x29e09f42b097165b962535490603539e7bf7f1cf",
      "contractAddress": null,
      "l1BaseFeeScalar": "0x8dd",
      "l1BlobBaseFee": "0x1",
      "l1BlobBaseFeeScalar": "0x101c12",
      "l1Fee": "0x69b8f55f8",
      "l1GasPrice": "0x188037eec",
      "l1GasUsed": "0x76d"
    },
    {
      "status": "0x1",
      "cumulativeGasUsed": "0x10c9e33",
      "logs": [
        {
          "address": "0x5723df8511a3d35d3f5b08619842b69ac3781223",
          "topics": [
            "0x47d99ad340f52da66535aff7e10da1ceb85a32bcbd9fa1c42314d194545e14d2",
            "0x0000000000000000000000002d37c6bfcb5cdd2cdb5c48c107b56a85b77d62e8",
            "0x0000000000000000000000000000000000000000000000000000000000000000"
          ],
          "data": "0x0000000000000000000000000000000000000000000000000000000000000020000000000000000000000000000000000000000000000000000000000000006423b872dd0000000000000000000000005723df8511a3d35d3f5b08619842b69ac3781223000000000000000000000000000000000000000000000000000000000000dead000000000000000000000000000000000000000000000000000000000000007400000000000000000000000000000000000000000000000000000000",
          "blockHash": "0xc4f10f83970eaf5fb0def09d302581ab19fd1926a4c22481bf49d9ea343442bc",
          "blockNumber": "0x12b0f9c",
          "transactionHash": "0x48ff67dd57c99dcb1fe4f5fb4932014d9562cfdf51824c5f6da809179c6a7afb",
          "transactionIndex": "0x75",
          "logIndex": "0x14e",
          "removed": false
        },
        {
          "address": "0x2d37c6bfcb5cdd2cdb5c48c107b56a85b77d62e8",
          "topics": [
            "0xddf252ad1be2c89b69c2b068fc378daa952ba7f163c4a11628f55a4df523b3ef",
            "0x0000000000000000000000005723df8511a3d35d3f5b08619842b69ac3781223",
            "0x000000000000000000000000000000000000000000000000000000000000dead",
            "0x0000000000000000000000000000000000000000000000000000000000000074"
          ],
          "data": "0x",
          "blockHash": "0xc4f10f83970eaf5fb0def09d302581ab19fd1926a4c22481bf49d9ea343442bc",
          "blockNumber": "0x12b0f9c",
          "transactionHash": "0x48ff67dd57c99dcb1fe4f5fb4932014d9562cfdf51824c5f6da809179c6a7afb",
          "transactionIndex": "0x75",
          "logIndex": "0x14f",
          "removed": false
        }
      ],
      "logsBloom": "0x01000000000014000000000004000000000000000000000002000000000000000140000000000000000000000000000000000000000000000000000000000000000000000000000000000008000000000000000000000000000000000000000000000000020000000000000000000800000000000000000000000010000000000000000000000000000004000400000000000000000000000000000000008000200000000000000000000000000010000000000004000000000000000000000000000402000000008000000100000000000000000000002002000000000020000000002000000000000002000000004000000000000000000000000000000000",
      "type": "0x2",
      "transactionHash": "0x48ff67dd57c99dcb1fe4f5fb4932014d9562cfdf51824c5f6da809179c6a7afb",
      "transactionIndex": "0x75",
      "blockHash": "0xc4f10f83970eaf5fb0def09d302581ab19fd1926a4c22481bf49d9ea343442bc",
      "blockNumber": "0x12b0f9c",
      "gasUsed": "0x18708",
      "effectiveGasPrice": "0x58d14f",
      "from": "0xf53f105e90b3e9ea928926a5a78e921d8168e213",
      "to": "0x5723df8511a3d35d3f5b08619842b69ac3781223",
      "contractAddress": null,
      "l1BaseFeeScalar": "0x8dd",
      "l1BlobBaseFee": "0x1",
      "l1BlobBaseFeeScalar": "0x101c12",
      "l1Fee": "0x69b8f55f8",
      "l1GasPrice": "0x188037eec",
      "l1GasUsed": "0x76d"
    },
    {
      "status": "0x1",
      "cumulativeGasUsed": "0x10e253b",
      "logs": [
        {
          "address": "0x2b9730cec15b4748842fd7956c7783ed55abab9b",
          "topics": [
            "0x47d99ad340f52da66535aff7e10da1ceb85a32bcbd9fa1c42314d194545e14d2",
            "0x0000000000000000000000002d37c6bfcb5cdd2cdb5c48c107b56a85b77d62e8",
            "0x0000000000000000000000000000000000000000000000000000000000000000"
          ],
          "data": "0x0000000000000000000000000000000000000000000000000000000000000020000000000000000000000000000000000000000000000000000000000000006423b872dd0000000000000000000000002b9730cec15b4748842fd7956c7783ed55abab9b000000000000000000000000000000000000000000000000000000000000dead000000000000000000000000000000000000000000000000000000000000007500000000000000000000000000000000000000000000000000000000",
          "blockHash": "0xc4f10f83970eaf5fb0def09d302581ab19fd1926a4c22481bf49d9ea343442bc",
          "blockNumber": "0x12b0f9c",
          "transactionHash": "0x2416e36eed161326bee91def0004cc65a737242c70c5fe6ed212fa7b38edc142",
          "transactionIndex": "0x76",
          "logIndex": "0x150",
          "removed": false
        },
        {
          "address": "0x2d37c6bfcb5cdd2cdb5c48c107b56a85b77d62e8",
          "topics": [
            "0xddf252ad1be2c89b69c2b068fc378daa952ba7f163c4a11628f55a4df523b3ef",
            "0x0000000000000000000000002b9730cec15b4748842fd7956c7783ed55abab9b",
            "0x000000000000000000000000000000000000000000000000000000000000dead",
            "0x0000000000000000000000000000000000000000000000000000000000000075"
          ],
          "data": "0x",
          "blockHash": "0xc4f10f83970eaf5fb0def09d302581ab19fd1926a4c22481bf49d9ea343442bc",
          "blockNumber": "0x12b0f9c",
          "transactionHash": "0x2416e36eed161326bee91def0004cc65a737242c70c5fe6ed212fa7b38edc142",
          "transactionIndex": "0x76",
          "logIndex": "0x151",
          "removed": false
        }
      ],
      "logsBloom": "0x01000000000014000000000004000000000000000000000002000000000000000100000000000000000000000000000000000000000000000000000000000000000000000000000000000008000000000000000000000000100000000000000000000000020000800000000000000800000000000000000000000010000000000000000000000000000004000300000000000000000000000000000000000000200000000080000000000000000020000800000000000000000000000000000000001402000000000000000000000000000000000000000000000000000020000000002000000000000002000000004004000000000000000000000000000000",
      "type": "0x2",
      "transactionHash": "0x2416e36eed161326bee91def0004cc65a737242c70c5fe6ed212fa7b38edc142",
      "transactionIndex": "0x76",
      "blockHash": "0xc4f10f83970eaf5fb0def09d302581ab19fd1926a4c22481bf49d9ea343442bc",
      "blockNumber": "0x12b0f9c",
      "gasUsed": "0x18708",
      "effectiveGasPrice": "0x58d14f",
      "from": "0xf53f105e90b3e9ea928926a5a78e921d8168e213",
      "to": "0x2b9730cec15b4748842fd7956c7783ed55abab9b",
      "contractAddress": null,
      "l1BaseFeeScalar": "0x8dd",
      "l1BlobBaseFee": "0x1",
      "l1BlobBaseFeeScalar": "0x101c12",
      "l1Fee": "0x69b8f55f8",
      "l1GasPrice": "0x188037eec",
      "l1GasUsed": "0x76d"
    },
    {
      "status": "0x1",
      "cumulativeGasUsed": "0x10fac43",
      "logs": [
        {
          "address": "0xbf721fe1d5ea4b76cde6eb74a601fb3047e3204b",
          "topics": [
            "0x47d99ad340f52da66535aff7e10da1ceb85a32bcbd9fa1c42314d194545e14d2",
            "0x0000000000000000000000002d37c6bfcb5cdd2cdb5c48c107b56a85b77d62e8",
            "0x0000000000000000000000000000000000000000000000000000000000000000"
          ],
          "data": "0x0000000000000000000000000000000000000000000000000000000000000020000000000000000000000000000000000000000000000000000000000000006423b872dd000000000000000000000000bf721fe1d5ea4b76cde6eb74a601fb3047e3204b000000000000000000000000000000000000000000000000000000000000dead000000000000000000000000000000000000000000000000000000000000007600000000000000000000000000000000000000000000000000000000",
          "blockHash": "0xc4f10f83970eaf5fb0def09d302581ab19fd1926a4c22481bf49d9ea343442bc",
          "blockNumber": "0x12b0f9c",
          "transactionHash": "0x6474854363ed01b18195389602115d1c9855d39d41bd92c17e21447e3ae335c2",
          "transactionIndex": "0x77",
          "logIndex": "0x152",
          "removed": false
        },
        {
          "address": "0x2d37c6bfcb5cdd2cdb5c48c107b56a85b77d62e8",
          "topics": [
            "0xddf252ad1be2c89b69c2b068fc378daa952ba7f163c4a11628f55a4df523b3ef",
            "0x000000000000000000000000bf721fe1d5ea4b76cde6eb74a601fb3047e3204b",
            "0x000000000000000000000000000000000000000000000000000000000000dead",
            "0x0000000000000000000000000000000000000000000000000000000000000076"
          ],
          "data": "0x",
          "blockHash": "0xc4f10f83970eaf5fb0def09d302581ab19fd1926a4c22481bf49d9ea343442bc",
          "blockNumber": "0x12b0f9c",
          "transactionHash": "0x6474854363ed01b18195389602115d1c9855d39d41bd92c17e21447e3ae335c2",
          "transactionIndex": "0x77",
          "logIndex": "0x153",
          "removed": false
        }
      ],
      "logsBloom": "0x01000000000014001000000004000000000000000000000002000002000000200100000000000000000000000000000000000000000000000000000000000000000000000000000000000008000000000008000000000000000000100000000000000000020000000000000000000800000000000000000000004010000000000000000000000000000004000000000000000000000000000000000000000000200000000004000000000000000000000000000000000000000000000000000000000402000000000000000000002000000000000000000000000000000020000000002000000000000002000000004000040000000000000000000000000000",
      "type": "0x2",
      "transactionHash": "0x6474854363ed01b18195389602115d1c9855d39d41bd92c17e21447e3ae335c2",
      "transactionIndex": "0x77",
      "blockHash": "0xc4f10f83970eaf5fb0def09d302581ab19fd1926a4c22481bf49d9ea343442bc",
      "blockNumber": "0x12b0f9c",
      "gasUsed": "0x18708",
      "effectiveGasPrice": "0x58d14f",
      "from": "0xf53f105e90b3e9ea928926a5a78e921d8168e213",
      "to": "0xbf721fe1d5ea4b76cde6eb74a601fb3047e3204b",
      "contractAddress": null,
      "l1BaseFeeScalar": "0x8dd",
      "l1BlobBaseFee": "0x1",
      "l1BlobBaseFeeScalar": "0x101c12",
      "l1Fee": "0x69b8f55f8",
      "l1GasPrice": "0x188037eec",
      "l1GasUsed": "0x76d"
    },
    {
      "status": "0x1",
      "cumulativeGasUsed": "0x111334b",
      "logs": [
        {
          "address": "0x259c788b5f544911d55e5b98d92b0a7dad3cd55d",
          "topics": [
            "0x47d99ad340f52da66535aff7e10da1ceb85a32bcbd9fa1c42314d194545e14d2",
            "0x0000000000000000000000002d37c6bfcb5cdd2cdb5c48c107b56a85b77d62e8",
            "0x0000000000000000000000000000000000000000000000000000000000000000"
          ],
          "data": "0x0000000000000000000000000000000000000000000000000000000000000020000000000000000000000000000000000000000000000000000000000000006423b872dd000000000000000000000000259c788b5f544911d55e5b98d92b0a7dad3cd55d000000000000000000000000000000000000000000000000000000000000dead000000000000000000000000000000000000000000000000000000000000007900000000000000000000000000000000000000000000000000000000",
          "blockHash": "0xc4f10f83970eaf5fb0def09d302581ab19fd1926a4c22481bf49d9ea343442bc",
          "blockNumber": "0x12b0f9c",
          "transactionHash": "0xa558c41ed263f6174ec97eef7fa9e979c0f6f0875106fce59a3ece5d86045d8f",
          "transactionIndex": "0x78",
          "logIndex": "0x154",
          "removed": false
        },
        {
          "address": "0x2d37c6bfcb5cdd2cdb5c48c107b56a85b77d62e8",
          "topics": [
            "0xddf252ad1be2c89b69c2b068fc378daa952ba7f163c4a11628f55a4df523b3ef",
            "0x000000000000000000000000259c788b5f544911d55e5b98d92b0a7dad3cd55d",
            "0x000000000000000000000000000000000000000000000000000000000000dead",
            "0x0000000000000000000000000000000000000000000000000000000000000079"
          ],
          "data": "0x",
          "blockHash": "0xc4f10f83970eaf5fb0def09d302581ab19fd1926a4c22481bf49d9ea343442bc",
          "blockNumber": "0x12b0f9c",
          "transactionHash": "0xa558c41ed263f6174ec97eef7fa9e979c0f6f0875106fce59a3ece5d86045d8f",
          "transactionIndex": "0x78",
          "logIndex": "0x155",
          "removed": false
        }
      ],
      "logsBloom": "0x01000000000014000000000004000000000000000000000002000000000000000100000000000000000000000000000000000000000000000000000010000000000000000000008000000028400000000800000000000000000000000000000000001000020000000000000000000800000000000000000000000010000000000000000000000000800004000000000000000000000000000000000000000000200000000001000002000000000000000000000000000000000000000000000000000402000000000000000000000000000000000000000000000000000020000000002000000000000002000000004000000000000000000000000000000000",
      "type": "0x2",
      "transactionHash": "0xa558c41ed263f6174ec97eef7fa9e979c0f6f0875106fce59a3ece5d86045d8f",
      "transactionIndex": "0x78",
      "blockHash": "0xc4f10f83970eaf5fb0def09d302581ab19fd1926a4c22481bf49d9ea343442bc",
      "blockNumber": "0x12b0f9c",
      "gasUsed": "0x18708",
      "effectiveGasPrice": "0x58d14f",
      "from": "0xf53f105e90b3e9ea928926a5a78e921d8168e213",
      "to": "0x259c788b5f544911d55e5b98d92b0a7dad3cd55d",
      "contractAddress": null,
      "l1BaseFeeScalar": "0x8dd",
      "l1BlobBaseFee": "0x1",
      "l1BlobBaseFeeScalar": "0x101c12",
      "l1Fee": "0x69b8f55f8",
      "l1GasPrice": "0x188037eec",
      "l1GasUsed": "0x76d"
    },
    {
      "status": "0x1",
      "cumulativeGasUsed": "0x112ba53",
      "logs": [
        {
          "address": "0xe5a589cba3f7fd9b7c9bd012ab51a4177da0b315",
          "topics": [
            "0x47d99ad340f52da66535aff7e10da1ceb85a32bcbd9fa1c42314d194545e14d2",
            "0x0000000000000000000000002d37c6bfcb5cdd2cdb5c48c107b56a85b77d62e8",
            "0x0000000000000000000000000000000000000000000000000000000000000000"
          ],
          "data": "0x0000000000000000000000000000000000000000000000000000000000000020000000000000000000000000000000000000000000000000000000000000006423b872dd000000000000000000000000e5a589cba3f7fd9b7c9bd012ab51a4177da0b315000000000000000000000000000000000000000000000000000000000000dead000000000000000000000000000000000000000000000000000000000000007a00000000000000000000000000000000000000000000000000000000",
          "blockHash": "0xc4f10f83970eaf5fb0def09d302581ab19fd1926a4c22481bf49d9ea343442bc",
          "blockNumber": "0x12b0f9c",
          "transactionHash": "0xb3c1c3919ecf1581c053bd44bde13adf52a8c1d4a2c838010e3014af09cd0171",
          "transactionIndex": "0x79",
          "logIndex": "0x156",
          "removed": false
        },
        {
          "address": "0x2d37c6bfcb5cdd2cdb5c48c107b56a85b77d62e8",
          "topics": [
            "0xddf252ad1be2c89b69c2b068fc378daa952ba7f163c4a11628f55a4df523b3ef",
            "0x000000000000000000000000e5a589cba3f7fd9b7c9bd012ab51a4177da0b315",
            "0x000000000000000000000000000000000000000000000000000000000000dead",
            "0x000000000000000000000000000000000000000000000000000000000000007a"
          ],
          "data": "0x",
          "blockHash": "0xc4f10f83970eaf5fb0def09d302581ab19fd1926a4c22481bf49d9ea343442bc",
          "blockNumber": "0x12b0f9c",
          "transactionHash": "0xb3c1c3919ecf1581c053bd44bde13adf52a8c1d4a2c838010e3014af09cd0171",
          "transactionIndex": "0x79",
          "logIndex": "0x157",
          "removed": false
        }
      ],
      "logsBloom": "0x01000000000014000000000004000000000200200000000002000000000000000100000000000000000000000000000080000000000000000000000000000000000000000000000000000008000000000000000000000000000000000000000000000000020000004000000000000800000000000000000000000010000000000002010000000000000004000000000000000000000000000000000000000000200000000000000000000000400000000000000000000000000000000000000000000402000000000000000000000000000000000000000000000000000020000000002000000000000002000000004000000000008000100000000000000000",
      "type": "0x2",
      "transactionHash": "0xb3c1c3919ecf1581c053bd44bde13adf52a8c1d4a2c838010e3014af09cd0171",
      "transactionIndex": "0x79",
      "blockHash": "0xc4f10f83970eaf5fb0def09d302581ab19fd1926a4c22481bf49d9ea343442bc",
      "blockNumber": "0x12b0f9c",
      "gasUsed": "0x18708",
      "effectiveGasPrice": "0x58d14f",
      "from": "0xf53f105e90b3e9ea928926a5a78e921d8168e213",
      "to": "0xe5a589cba3f7fd9b7c9bd012ab51a4177da0b315",
      "contractAddress": null,
      "l1BaseFeeScalar": "0x8dd",
      "l1BlobBaseFee": "0x1",
      "l1BlobBaseFeeScalar": "0x101c12",
      "l1Fee": "0x69b8f55f8",
      "l1GasPrice": "0x188037eec",
      "l1GasUsed": "0x76d"
    },
    {
      "status": "0x1",
      "cumulativeGasUsed": "0x109d679",
      "logs": [
        {
          "address": "0xe5aa47fc7c1fa598bb3340b9a08a881d5a4a0ea2",
          "topics": [
            "0x47d99ad340f52da66535aff7e10da1ceb85a32bcbd9fa1c42314d194545e14d2",
            "0x0000000000000000000000002d37c6bfcb5cdd2cdb5c48c107b56a85b77d62e8",
            "0x0000000000000000000000000000000000000000000000000000000000000000"
          ],
          "data": "0x0000000000000000000000000000000000000000000000000000000000000020000000000000000000000000000000000000000000000000000000000000006423b872dd000000000000000000000000e5aa47fc7c1fa598bb3340b9a08a881d5a4a0ea2000000000000000000000000000000000000000000000000000000000000dead000000000000000000000000000000000000000000000000000000000000007b00000000000000000000000000000000000000000000000000000000",
          "blockHash": "0x3f87de9769a0831362e3ed6d13cf9f597b4e8ab1adccdafa9f0388790349c62c",
          "blockNumber": "0x12b0f9d",
          "transactionHash": "0x30248f6ac6ce217a54f0091a1886ac539e3589f8bfe5c8ed9248d97b85605fc8",
          "transactionIndex": "0x69",
          "logIndex": "0x153",
          "removed": false
        },
        {
          "address": "0x2d37c6bfcb5cdd2cdb5c48c107b56a85b77d62e8",
          "topics": [
            "0xddf252ad1be2c89b69c2b068fc378daa952ba7f163c4a11628f55a4df523b3ef",
            "0x000000000000000000000000e5aa47fc7c1fa598bb3340b9a08a881d5a4a0ea2",
            "0x000000000000000000000000000000000000000000000000000000000000dead",
            "0x000000000000000000000000000000000000000000000000000000000000007b"
          ],
          "data": "0x",
          "blockHash": "0x3f87de9769a0831362e3ed6d13cf9f597b4e8ab1adccdafa9f0388790349c62c",
          "blockNumber": "0x12b0f9d",
          "transactionHash": "0x30248f6ac6ce217a54f0091a1886ac539e3589f8bfe5c8ed9248d97b85605fc8",
          "transactionIndex": "0x69",
          "logIndex": "0x154",
          "removed": false
        }
      ],
      "logsBloom": "0x01000000000014000000000004000000000000000000000002000000000000000100000008000000000000000000000000000000000000000000000020000000000000000000000000000008000000000000020000020000000000000000000000000000020000000000000000000800000000080000008000000010000000000000000000000000000004004040000000000000000000000000000000000000200000000000000000000000000000000000000000000000000000000000000000000402000000000000000200000000000000000000000000000000000020000000002000000000000002000000004000000000000000000000000000000000",
      "type": "0x2",
      "transactionHash": "0x30248f6ac6ce217a54f0091a1886ac539e3589f8bfe5c8ed9248d97b85605fc8",
      "transactionIndex": "0x69",
      "blockHash": "0x3f87de9769a0831362e3ed6d13cf9f597b4e8ab1adccdafa9f0388790349c62c",
      "blockNumber": "0x12b0f9d",
      "gasUsed": "0x18708",
      "effectiveGasPrice": "0x58d89a",
      "from": "0xf53f105e90b3e9ea928926a5a78e921d8168e213",
      "to": "0xe5aa47fc7c1fa598bb3340b9a08a881d5a4a0ea2",
      "contractAddress": null,
      "l1BaseFeeScalar": "0x8dd",
      "l1BlobBaseFee": "0x1",
      "l1BlobBaseFeeScalar": "0x101c12",
      "l1Fee": "0x69b8f55f8",
      "l1GasPrice": "0x188037eec",
      "l1GasUsed": "0x76d"
    },
    {
      "status": "0x1",
      "cumulativeGasUsed": "0x10b5d81",
      "logs": [
        {
          "address": "0x66e1306cedab47ac752dc3735a627c1318444c03",
          "topics": [
            "0x47d99ad340f52da66535aff7e10da1ceb85a32bcbd9fa1c42314d194545e14d2",
            "0x0000000000000000000000002d37c6bfcb5cdd2cdb5c48c107b56a85b77d62e8",
            "0x0000000000000000000000000000000000000000000000000000000000000000"
          ],
          "data": "0x0000000000000000000000000000000000000000000000000000000000000020000000000000000000000000000000000000000000000000000000000000006423b872dd00000000000000000000000066e1306cedab47ac752dc3735a627c1318444c03000000000000000000000000000000000000000000000000000000000000dead000000000000000000000000000000000000000000000000000000000000007f00000000000000000000000000000000000000000000000000000000",
          "blockHash": "0x3f87de9769a0831362e3ed6d13cf9f597b4e8ab1adccdafa9f0388790349c62c",
          "blockNumber": "0x12b0f9d",
          "transactionHash": "0x536a1ee73df9234a892196ad83635cbb831c54bcc14dc948a765abc63ecca5ed",
          "transactionIndex": "0x6a",
          "logIndex": "0x155",
          "removed": false
        },
        {
          "address": "0x2d37c6bfcb5cdd2cdb5c48c107b56a85b77d62e8",
          "topics": [
            "0xddf252ad1be2c89b69c2b068fc378daa952ba7f163c4a11628f55a4df523b3ef",
            "0x00000000000000000000000066e1306cedab47ac752dc3735a627c1318444c03",
            "0x000000000000000000000000000000000000000000000000000000000000dead",
            "0x000000000000000000000000000000000000000000000000000000000000007f"
          ],
          "data": "0x",
          "blockHash": "0x3f87de9769a0831362e3ed6d13cf9f597b4e8ab1adccdafa9f0388790349c62c",
          "blockNumber": "0x12b0f9d",
          "transactionHash": "0x536a1ee73df9234a892196ad83635cbb831c54bcc14dc948a765abc63ecca5ed",
          "transactionIndex": "0x6a",
          "logIndex": "0x156",
          "removed": false
        }
      ],
      "logsBloom": "0x01000000000014000000000004000000000000000000000002000000000000000100000000000000000000000004002000000000020000000000000000000000000000000000000000000008000000000000000000000000000000000000000000000000020000000000000000000800000000000000000000000010000000000000000000200200000004000000000000000000000000000000000000000000200008000000400000000000000000000000000100000000000000000000000000000402000000000000001000000000000000000000000000000000000020000000002000000000000002000000004000000000000000000000000000000000",
      "type": "0x2",
      "transactionHash": "0x536a1ee73df9234a892196ad83635cbb831c54bcc14dc948a765abc63ecca5ed",
      "transactionIndex": "0x6a",
      "blockHash": "0x3f87de9769a0831362e3ed6d13cf9f597b4e8ab1adccdafa9f0388790349c62c",
      "blockNumber": "0x12b0f9d",
      "gasUsed": "0x18708",
      "effectiveGasPrice": "0x58d89a",
      "from": "0xf53f105e90b3e9ea928926a5a78e921d8168e213",
      "to": "0x66e1306cedab47ac752dc3735a627c1318444c03",
      "contractAddress": null,
      "l1BaseFeeScalar": "0x8dd",
      "l1BlobBaseFee": "0x1",
      "l1BlobBaseFeeScalar": "0x101c12",
      "l1Fee": "0x69b8f55f8",
      "l1GasPrice": "0x188037eec",
      "l1GasUsed": "0x76d"
    },
    {
      "status": "0x1",
      "cumulativeGasUsed": "0x10ce489",
      "logs": [
        {
          "address": "0x4e7402e463d36abedb72019696168249cd7fbf50",
          "topics": [
            "0x47d99ad340f52da66535aff7e10da1ceb85a32bcbd9fa1c42314d194545e14d2",
            "0x0000000000000000000000002d37c6bfcb5cdd2cdb5c48c107b56a85b77d62e8",
            "0x0000000000000000000000000000000000000000000000000000000000000000"
          ],
          "data": "0x0000000000000000000000000000000000000000000000000000000000000020000000000000000000000000000000000000000000000000000000000000006423b872dd0000000000000000000000004e7402e463d36abedb72019696168249cd7fbf50000000000000000000000000000000000000000000000000000000000000dead000000000000000000000000000000000000000000000000000000000000008100000000000000000000000000000000000000000000000000000000",
          "blockHash": "0x3f87de9769a0831362e3ed6d13cf9f597b4e8ab1adccdafa9f0388790349c62c",
          "blockNumber": "0x12b0f9d",
          "transactionHash": "0xc7c1aa2275604cd672e19e4d26f6f2dfaa0573cb3c96294fef91767a44be9c21",
          "transactionIndex": "0x6b",
          "logIndex": "0x157",
          "removed": false
        },
        {
          "address": "0x2d37c6bfcb5cdd2cdb5c48c107b56a85b77d62e8",
          "topics": [
            "0xddf252ad1be2c89b69c2b068fc378daa952ba7f163c4a11628f55a4df523b3ef",
            "0x0000000000000000000000004e7402e463d36abedb72019696168249cd7fbf50",
            "0x000000000000000000000000000000000000000000000000000000000000dead",
            "0x0000000000000000000000000000000000000000000000000000000000000081"
          ],
          "data": "0x",
          "blockHash": "0x3f87de9769a0831362e3ed6d13cf9f597b4e8ab1adccdafa9f0388790349c62c",
          "blockNumber": "0x12b0f9d",
          "transactionHash": "0xc7c1aa2275604cd672e19e4d26f6f2dfaa0573cb3c96294fef91767a44be9c21",
          "transactionIndex": "0x6b",
          "logIndex": "0x158",
          "removed": false
        }
      ],
      "logsBloom": "0x01000000000014000000000004000000000000000000000002000000000000001100000000000000000000004000000000000000000000000000000000000000000000000000000000000008040000000000000000000000000000000000000000000000020000000000000000100801000000000000000000000010000000000000000000000000000014000000000000000000000000000000000000000000200000000000000000004000000000000000000000000000000000000000000000000402000000000000000000000000000000000000200000000000000020000000002000000000200002000000004000000000000000000000000000000000",
      "type": "0x2",
      "transactionHash": "0xc7c1aa2275604cd672e19e4d26f6f2dfaa0573cb3c96294fef91767a44be9c21",
      "transactionIndex": "0x6b",
      "blockHash": "0x3f87de9769a0831362e3ed6d13cf9f597b4e8ab1adccdafa9f0388790349c62c",
      "blockNumber": "0x12b0f9d",
      "gasUsed": "0x18708",
      "effectiveGasPrice": "0x58d89a",
      "from": "0xf53f105e90b3e9ea928926a5a78e921d8168e213",
      "to": "0x4e7402e463d36abedb72019696168249cd7fbf50",
      "contractAddress": null,
      "l1BaseFeeScalar": "0x8dd",
      "l1BlobBaseFee": "0x1",
      "l1BlobBaseFeeScalar": "0x101c12",
      "l1Fee": "0x69b8f55f8",
      "l1GasPrice": "0x188037eec",
      "l1GasUsed": "0x76d"
    },
    {
      "status": "0x1",
      "cumulativeGasUsed": "0x10e6b91",
      "logs": [
        {
          "address": "0x8c021a09b6fed13e4d8703f36832b67a49aebe23",
          "topics": [
            "0x47d99ad340f52da66535aff7e10da1ceb85a32bcbd9fa1c42314d194545e14d2",
            "0x0000000000000000000000002d37c6bfcb5cdd2cdb5c48c107b56a85b77d62e8",
            "0x0000000000000000000000000000000000000000000000000000000000000000"
          ],
          "data": "0x0000000000000000000000000000000000000000000000000000000000000020000000000000000000000000000000000000000000000000000000000000006423b872dd0000000000000000000000008c021a09b6fed13e4d8703f36832b67a49aebe23000000000000000000000000000000000000000000000000000000000000dead000000000000000000000000000000000000000000000000000000000000008200000000000000000000000000000000000000000000000000000000",
          "blockHash": "0x3f87de9769a0831362e3ed6d13cf9f597b4e8ab1adccdafa9f0388790349c62c",
          "blockNumber": "0x12b0f9d",
          "transactionHash": "0x75ddb3c1f880ad107674ff96e07078a0bcd3bec170e6fa6952772634449d4519",
          "transactionIndex": "0x6c",
          "logIndex": "0x159",
          "removed": false
        },
        {
          "address": "0x2d37c6bfcb5cdd2cdb5c48c107b56a85b77d62e8",
          "topics": [
            "0xddf252ad1be2c89b69c2b068fc378daa952ba7f163c4a11628f55a4df523b3ef",
            "0x0000000000000000000000008c021a09b6fed13e4d8703f36832b67a49aebe23",
            "0x000000000000000000000000000000000000000000000000000000000000dead",
            "0x0000000000000000000000000000000000000000000000000000000000000082"
          ],
          "data": "0x",
          "blockHash": "0x3f87de9769a0831362e3ed6d13cf9f597b4e8ab1adccdafa9f0388790349c62c",
          "blockNumber": "0x12b0f9d",
          "transactionHash": "0x75ddb3c1f880ad107674ff96e07078a0bcd3bec170e6fa6952772634449d4519",
          "transactionIndex": "0x6c",
          "logIndex": "0x15a",
          "removed": false
        }
      ],
      "logsBloom": "0x01000000000014000000000004000000000000000000000002000000000000000100000000000000000000000000000000000010000000000000000000000000800000000000000000000008000000000000000000000010000800000000000040000000020000000000000000002800000000000000000000000010000000000000000000000000000004000000000100000000000000000000000000000000200000000000000000000000000000000000000000000100000000100000000000000402000000000000000000000000000000000000000000000000000020000000002000000000000002000000004000000000000000000000000000000000",
      "type": "0x2",
      "transactionHash": "0x75ddb3c1f880ad107674ff96e07078a0bcd3bec170e6fa6952772634449d4519",
      "transactionIndex": "0x6c",
      "blockHash": "0x3f87de9769a0831362e3ed6d13cf9f597b4e8ab1adccdafa9f0388790349c62c",
      "blockNumber": "0x12b0f9d",
      "gasUsed": "0x18708",
      "effectiveGasPrice": "0x58d89a",
      "from": "0xf53f105e90b3e9ea928926a5a78e921d8168e213",
      "to": "0x8c021a09b6fed13e4d8703f36832b67a49aebe23",
      "contractAddress": null,
      "l1BaseFeeScalar": "0x8dd",
      "l1BlobBaseFee": "0x1",
      "l1BlobBaseFeeScalar": "0x101c12",
      "l1Fee": "0x69b8f55f8",
      "l1GasPrice": "0x188037eec",
      "l1GasUsed": "0x76d"
    },
    {
      "status": "0x1",
      "cumulativeGasUsed": "0x10ff299",
      "logs": [
        {
          "address": "0x44b16fc49ae45ae3fcffa9dc12a5740352a32c44",
          "topics": [
            "0x47d99ad340f52da66535aff7e10da1ceb85a32bcbd9fa1c42314d194545e14d2",
            "0x0000000000000000000000002d37c6bfcb5cdd2cdb5c48c107b56a85b77d62e8",
            "0x0000000000000000000000000000000000000000000000000000000000000000"
          ],
          "data": "0x0000000000000000000000000000000000000000000000000000000000000020000000000000000000000000000000000000000000000000000000000000006423b872dd00000000000000000000000044b16fc49ae45ae3fcffa9dc12a5740352a32c44000000000000000000000000000000000000000000000000000000000000dead000000000000000000000000000000000000000000000000000000000000008300000000000000000000000000000000000000000000000000000000",
          "blockHash": "0x3f87de9769a0831362e3ed6d13cf9f597b4e8ab1adccdafa9f0388790349c62c",
          "blockNumber": "0x12b0f9d",
          "transactionHash": "0xcf180d275ec6bee17a4986def01c26cd2ac2b37dfb48493dd5ef16793ee6cd85",
          "transactionIndex": "0x6d",
          "logIndex": "0x15b",
          "removed": false
        },
        {
          "address": "0x2d37c6bfcb5cdd2cdb5c48c107b56a85b77d62e8",
          "topics": [
            "0xddf252ad1be2c89b69c2b068fc378daa952ba7f163c4a11628f55a4df523b3ef",
            "0x00000000000000000000000044b16fc49ae45ae3fcffa9dc12a5740352a32c44",
            "0x000000000000000000000000000000000000000000000000000000000000dead",
            "0x0000000000000000000000000000000000000000000000000000000000000083"
          ],
          "data": "0x",
          "blockHash": "0x3f87de9769a0831362e3ed6d13cf9f597b4e8ab1adccdafa9f0388790349c62c",
          "blockNumber": "0x12b0f9d",
          "transactionHash": "0xcf180d275ec6bee17a4986def01c26cd2ac2b37dfb48493dd5ef16793ee6cd85",
          "transactionIndex": "0x6d",
          "logIndex": "0x15c",
          "removed": false
        }
      ],
      "logsBloom": "0x01000000000014000000000004000000000000000000000002000000000000000100000000000000000000000000000000000000000000000000000000000000000000000000000000000008000000000000000000000000000200000000000000000000020000000000000000000800000000000000000000000010000000000000000000000000000004000080200000000000000000000000000000000000200000000000000000000000000000000002000000000080000000000000000000000402000000000020000000000000000000000000000000000400000020000000002000000000001002000000804000000000000000000000000000000000",
      "type": "0x2",
      "transactionHash": "0xcf180d275ec6bee17a4986def01c26cd2ac2b37dfb48493dd5ef16793ee6cd85",
      "transactionIndex": "0x6d",
      "blockHash": "0x3f87de9769a0831362e3ed6d13cf9f597b4e8ab1adccdafa9f0388790349c62c",
      "blockNumber": "0x12b0f9d",
      "gasUsed": "0x18708",
      "effectiveGasPrice": "0x58d89a",
      "from": "0xf53f105e90b3e9ea928926a5a78e921d8168e213",
      "to": "0x44b16fc49ae45ae3fcffa9dc12a5740352a32c44",
      "contractAddress": null,
      "l1BaseFeeScalar": "0x8dd",
      "l1BlobBaseFee": "0x1",
      "l1BlobBaseFeeScalar": "0x101c12",
      "l1Fee": "0x69b8f55f8",
      "l1GasPrice": "0x188037eec",
      "l1GasUsed": "0x76d"
    },
    {
      "status": "0x1",
      "cumulativeGasUsed": "0x11179a1",
      "logs": [
        {
          "address": "0xadf7f7e68829fcda7c313963754634878c2fb785",
          "topics": [
            "0x47d99ad340f52da66535aff7e10da1ceb85a32bcbd9fa1c42314d194545e14d2",
            "0x0000000000000000000000002d37c6bfcb5cdd2cdb5c48c107b56a85b77d62e8",
            "0x0000000000000000000000000000000000000000000000000000000000000000"
          ],
          "data": "0x0000000000000000000000000000000000000000000000000000000000000020000000000000000000000000000000000000000000000000000000000000006423b872dd000000000000000000000000adf7f7e68829fcda7c313963754634878c2fb785000000000000000000000000000000000000000000000000000000000000dead000000000000000000000000000000000000000000000000000000000000008400000000000000000000000000000000000000000000000000000000",
          "blockHash": "0x3f87de9769a0831362e3ed6d13cf9f597b4e8ab1adccdafa9f0388790349c62c",
          "blockNumber": "0x12b0f9d",
          "transactionHash": "0xee5124c6858b2d3299523f512ff21a1b59c27e2379b72b7d234c1200b8939a01",
          "transactionIndex": "0x6e",
          "logIndex": "0x15d",
          "removed": false
        },
        {
          "address": "0x2d37c6bfcb5cdd2cdb5c48c107b56a85b77d62e8",
          "topics": [
            "0xddf252ad1be2c89b69c2b068fc378daa952ba7f163c4a11628f55a4df523b3ef",
            "0x000000000000000000000000adf7f7e68829fcda7c313963754634878c2fb785",
            "0x000000000000000000000000000000000000000000000000000000000000dead",
            "0x0000000000000000000000000000000000000000000000000000000000000084"
          ],
          "data": "0x",
          "blockHash": "0x3f87de9769a0831362e3ed6d13cf9f597b4e8ab1adccdafa9f0388790349c62c",
          "blockNumber": "0x12b0f9d",
          "transactionHash": "0xee5124c6858b2d3299523f512ff21a1b59c27e2379b72b7d234c1200b8939a01",
          "transactionIndex": "0x6e",
          "logIndex": "0x15e",
          "removed": false
        }
      ],
      "logsBloom": "0x01000000000014000000000004000000000000000000000002000000000000000100000000000000000000000008000000000000000000000000000000000000000000000000000000010008000000000000000000000000000000000000000000000000020000000000000000000800000000000000000000000010000000000000000100000000000004000000000000000000000000000000800000000000200000400000000000000000000000000000000000000000000000000000000000000402000020000000000000000000000000000000000000000000000020000000002000000080000002000000004000000000000000000000002000000000",
      "type": "0x2",
      "transactionHash": "0xee5124c6858b2d3299523f512ff21a1b59c27e2379b72b7d234c1200b8939a01",
      "transactionIndex": "0x6e",
      "blockHash": "0x3f87de9769a0831362e3ed6d13cf9f597b4e8ab1adccdafa9f0388790349c62c",
      "blockNumber": "0x12b0f9d",
      "gasUsed": "0x18708",
      "effectiveGasPrice": "0x58d89a",
      "from": "0xf53f105e90b3e9ea928926a5a78e921d8168e213",
      "to": "0xadf7f7e68829fcda7c313963754634878c2fb785",
      "contractAddress": null,
      "l1BaseFeeScalar": "0x8dd",
      "l1BlobBaseFee": "0x1",
      "l1BlobBaseFeeScalar": "0x101c12",
      "l1Fee": "0x69b8f55f8",
      "l1GasPrice": "0x188037eec",
      "l1GasUsed": "0x76d"
    },
    {
      "status": "0x1",
      "cumulativeGasUsed": "0x11300a9",
      "logs": [
        {
          "address": "0x11db8702c64f0b16c1e5f99db30edcb7405b54c2",
          "topics": [
            "0x47d99ad340f52da66535aff7e10da1ceb85a32bcbd9fa1c42314d194545e14d2",
            "0x0000000000000000000000002d37c6bfcb5cdd2cdb5c48c107b56a85b77d62e8",
            "0x0000000000000000000000000000000000000000000000000000000000000000"
          ],
          "data": "0x0000000000000000000000000000000000000000000000000000000000000020000000000000000000000000000000000000000000000000000000000000006423b872dd00000000000000000000000011db8702c64f0b16c1e5f99db30edcb7405b54c2000000000000000000000000000000000000000000000000000000000000dead000000000000000000000000000000000000000000000000000000000000008500000000000000000000000000000000000000000000000000000000",
          "blockHash": "0x3f87de9769a0831362e3ed6d13cf9f597b4e8ab1adccdafa9f0388790349c62c",
          "blockNumber": "0x12b0f9d",
          "transactionHash": "0xd88b5d1fdbc76fd34c1c3fa19dc31fb0964576695ff1cd6caac730785e4824b8",
          "transactionIndex": "0x6f",
          "logIndex": "0x15f",
          "removed": false
        },
        {
          "address": "0x2d37c6bfcb5cdd2cdb5c48c107b56a85b77d62e8",
          "topics": [
            "0xddf252ad1be2c89b69c2b068fc378daa952ba7f163c4a11628f55a4df523b3ef",
            "0x00000000000000000000000011db8702c64f0b16c1e5f99db30edcb7405b54c2",
            "0x000000000000000000000000000000000000000000000000000000000000dead",
            "0x0000000000000000000000000000000000000000000000000000000000000085"
          ],
          "data": "0x",
          "blockHash": "0x3f87de9769a0831362e3ed6d13cf9f597b4e8ab1adccdafa9f0388790349c62c",
          "blockNumber": "0x12b0f9d",
          "transactionHash": "0xd88b5d1fdbc76fd34c1c3fa19dc31fb0964576695ff1cd6caac730785e4824b8",
          "transactionIndex": "0x6f",
          "logIndex": "0x160",
          "removed": false
        }
      ],
      "logsBloom": "0x01000000000014000000000004000000000000000000000002000000000000000100000000000000000000000000000000000000000000000000000000000000000000000000000000000008000000000000000000000000000000000000000000000000020000000000000000000800000400000000000000000010000000000000000004000000000004000000000080000000000000800000000000000000200000004000000000000000000000000000000000000000000000000000000001000402000000000000000000000000000000000000000000000000000020000000002000000000000002000000004000000000000000020004000000010000",
      "type": "0x2",
      "transactionHash": "0xd88b5d1fdbc76fd34c1c3fa19dc31fb0964576695ff1cd6caac730785e4824b8",
      "transactionIndex": "0x6f",
      "blockHash": "0x3f87de9769a0831362e3ed6d13cf9f597b4e8ab1adccdafa9f0388790349c62c",
      "blockNumber": "0x12b0f9d",
      "gasUsed": "0x18708",
      "effectiveGasPrice": "0x58d89a",
      "from": "0xf53f105e90b3e9ea928926a5a78e921d8168e213",
      "to": "0x11db8702c64f0b16c1e5f99db30edcb7405b54c2",
      "contractAddress": null,
      "l1BaseFeeScalar": "0x8dd",
      "l1BlobBaseFee": "0x1",
      "l1BlobBaseFeeScalar": "0x101c12",
      "l1Fee": "0x69b8f55f8",
      "l1GasPrice": "0x188037eec",
      "l1GasUsed": "0x76d"
    },
    {
      "status": "0x1",
      "cumulativeGasUsed": "0x11487b1",
      "logs": [
        {
          "address": "0xd3c0d9880605eab20cbb5c90199bb7787b1534c3",
          "topics": [
            "0x47d99ad340f52da66535aff7e10da1ceb85a32bcbd9fa1c42314d194545e14d2",
            "0x0000000000000000000000002d37c6bfcb5cdd2cdb5c48c107b56a85b77d62e8",
            "0x0000000000000000000000000000000000000000000000000000000000000000"
          ],
          "data": "0x0000000000000000000000000000000000000000000000000000000000000020000000000000000000000000000000000000000000000000000000000000006423b872dd000000000000000000000000d3c0d9880605eab20cbb5c90199bb7787b1534c3000000000000000000000000000000000000000000000000000000000000dead000000000000000000000000000000000000000000000000000000000000008600000000000000000000000000000000000000000000000000000000",
          "blockHash": "0x3f87de9769a0831362e3ed6d13cf9f597b4e8ab1adccdafa9f0388790349c62c",
          "blockNumber": "0x12b0f9d",
          "transactionHash": "0x1d019256d32abc36916b6ea05ca49eda13890a7e6d0659dde93d6072872b9d4f",
          "transactionIndex": "0x70",
          "logIndex": "0x161",
          "removed": false
        },
        {
          "address": "0x2d37c6bfcb5cdd2cdb5c48c107b56a85b77d62e8",
          "topics": [
            "0xddf252ad1be2c89b69c2b068fc378daa952ba7f163c4a11628f55a4df523b3ef",
            "0x000000000000000000000000d3c0d9880605eab20cbb5c90199bb7787b1534c3",
            "0x000000000000000000000000000000000000000000000000000000000000dead",
            "0x0000000000000000000000000000000000000000000000000000000000000086"
          ],
          "data": "0x",
          "blockHash": "0x3f87de9769a0831362e3ed6d13cf9f597b4e8ab1adccdafa9f0388790349c62c",
          "blockNumber": "0x12b0f9d",
          "transactionHash": "0x1d019256d32abc36916b6ea05ca49eda13890a7e6d0659dde93d6072872b9d4f",
          "transactionIndex": "0x70",
          "logIndex": "0x162",
          "removed": false
        }
      ],
      "logsBloom": "0x09000000000014000000000004000000000000000000000002000000000000000100000000000000008000000000000000000000000000000000000000000000000000000000000000000008000000000000008000000000000000000000000000000008020000000000000000000800000000000000000400000010000000000000000000000000000004000000000000000000000000000000000000000000200000000000000000000000000000100000000000000000000000000000000000000402000000020000000000004000000000000000000000000000000020000000002000000000000002000000004000000000000000000000080000000000",
      "type": "0x2",
      "transactionHash": "0x1d019256d32abc36916b6ea05ca49eda13890a7e6d0659dde93d6072872b9d4f",
      "transactionIndex": "0x70",
      "blockHash": "0x3f87de9769a0831362e3ed6d13cf9f597b4e8ab1adccdafa9f0388790349c62c",
      "blockNumber": "0x12b0f9d",
      "gasUsed": "0x18708",
      "effectiveGasPrice": "0x58d89a",
      "from": "0xf53f105e90b3e9ea928926a5a78e921d8168e213",
      "to": "0xd3c0d9880605eab20cbb5c90199bb7787b1534c3",
      "contractAddress": null,
      "l1BaseFeeScalar": "0x8dd",
      "l1BlobBaseFee": "0x1",
      "l1BlobBaseFeeScalar": "0x101c12",
      "l1Fee": "0x69b8f55f8",
      "l1GasPrice": "0x188037eec",
      "l1GasUsed": "0x76d"
    },
    {
      "status": "0x1",
      "cumulativeGasUsed": "0x1160eb9",
      "logs": [
        {
          "address": "0xe4359c8aafe85fbb377fa1998298f4a8e56bbce7",
          "topics": [
            "0x47d99ad340f52da66535aff7e10da1ceb85a32bcbd9fa1c42314d194545e14d2",
            "0x0000000000000000000000002d37c6bfcb5cdd2cdb5c48c107b56a85b77d62e8",
            "0x0000000000000000000000000000000000000000000000000000000000000000"
          ],
          "data": "0x0000000000000000000000000000000000000000000000000000000000000020000000000000000000000000000000000000000000000000000000000000006423b872dd000000000000000000000000e4359c8aafe85fbb377fa1998298f4a8e56bbce7000000000000000000000000000000000000000000000000000000000000dead000000000000000000000000000000000000000000000000000000000000008900000000000000000000000000000000000000000000000000000000",
          "blockHash": "0x3f87de9769a0831362e3ed6d13cf9f597b4e8ab1adccdafa9f0388790349c62c",
          "blockNumber": "0x12b0f9d",
          "transactionHash": "0xbcad63df25503bc3658d717cefd53ba9801bce743d7afb43dba743c1faa0467e",
          "transactionIndex": "0x71",
          "logIndex": "0x163",
          "removed": false
        },
        {
          "address": "0x2d37c6bfcb5cdd2cdb5c48c107b56a85b77d62e8",
          "topics": [
            "0xddf252ad1be2c89b69c2b068fc378daa952ba7f163c4a11628f55a4df523b3ef",
            "0x000000000000000000000000e4359c8aafe85fbb377fa1998298f4a8e56bbce7",
            "0x000000000000000000000000000000000000000000000000000000000000dead",
            "0x0000000000000000000000000000000000000000000000000000000000000089"
          ],
          "data": "0x",
          "blockHash": "0x3f87de9769a0831362e3ed6d13cf9f597b4e8ab1adccdafa9f0388790349c62c",
          "blockNumber": "0x12b0f9d",
          "transactionHash": "0xbcad63df25503bc3658d717cefd53ba9801bce743d7afb43dba743c1faa0467e",
          "transactionIndex": "0x71",
          "logIndex": "0x164",
          "removed": false
        }
      ],
      "logsBloom": "0x01000000000014000000000004000000000000000000000002000000000000000100000000000000000000001000000000000000000000000000000000000000000000000000000000000008100000000000000000000000000000000000000000000000020000800000000200000800000000000000000000000010000000000400000000000000000004000002000000000000000000000000000008000000200000000000000000000000000000000000000000000000000000000000000000000402000000000000000000000020000000000000000000000000000020000000002000000000000002000000004000000000000400000000000000000000",
      "type": "0x2",
      "transactionHash": "0xbcad63df25503bc3658d717cefd53ba9801bce743d7afb43dba743c1faa0467e",
      "transactionIndex": "0x71",
      "blockHash": "0x3f87de9769a0831362e3ed6d13cf9f597b4e8ab1adccdafa9f0388790349c62c",
      "blockNumber": "0x12b0f9d",
      "gasUsed": "0x18708",
      "effectiveGasPrice": "0x58d89a",
      "from": "0xf53f105e90b3e9ea928926a5a78e921d8168e213",
      "to": "0xe4359c8aafe85fbb377fa1998298f4a8e56bbce7",
      "contractAddress": null,
      "l1BaseFeeScalar": "0x8dd",
      "l1BlobBaseFee": "0x1",
      "l1BlobBaseFeeScalar": "0x101c12",
      "l1Fee": "0x69b8f55f8",
      "l1GasPrice": "0x188037eec",
      "l1GasUsed": "0x76d"
    },
    {
      "status": "0x1",
      "cumulativeGasUsed": "0x11795c1",
      "logs": [
        {
          "address": "0x1e640277847a52c5fcc31bea479bf0685db73f8a",
          "topics": [
            "0x47d99ad340f52da66535aff7e10da1ceb85a32bcbd9fa1c42314d194545e14d2",
            "0x0000000000000000000000002d37c6bfcb5cdd2cdb5c48c107b56a85b77d62e8",
            "0x0000000000000000000000000000000000000000000000000000000000000000"
          ],
          "data": "0x0000000000000000000000000000000000000000000000000000000000000020000000000000000000000000000000000000000000000000000000000000006423b872dd0000000000000000000000001e640277847a52c5fcc31bea479bf0685db73f8a000000000000000000000000000000000000000000000000000000000000dead000000000000000000000000000000000000000000000000000000000000008a00000000000000000000000000000000000000000000000000000000",
          "blockHash": "0x3f87de9769a0831362e3ed6d13cf9f597b4e8ab1adccdafa9f0388790349c62c",
          "blockNumber": "0x12b0f9d",
          "transactionHash": "0x808a4882b60241ead3c37dc5333f1f163506825b0ee87ce8825afe496b5cbbe7",
          "transactionIndex": "0x72",
          "logIndex": "0x165",
          "removed": false
        },
        {
          "address": "0x2d37c6bfcb5cdd2cdb5c48c107b56a85b77d62e8",
          "topics": [
            "0xddf252ad1be2c89b69c2b068fc378daa952ba7f163c4a11628f55a4df523b3ef",
            "0x0000000000000000000000001e640277847a52c5fcc31bea479bf0685db73f8a",
            "0x000000000000000000000000000000000000000000000000000000000000dead",
            "0x000000000000000000000000000000000000000000000000000000000000008a"
          ],
          "data": "0x",
          "blockHash": "0x3f87de9769a0831362e3ed6d13cf9f597b4e8ab1adccdafa9f0388790349c62c",
          "blockNumber": "0x12b0f9d",
          "transactionHash": "0x808a4882b60241ead3c37dc5333f1f163506825b0ee87ce8825afe496b5cbbe7",
          "transactionIndex": "0x72",
          "logIndex": "0x166",
          "removed": false
        }
      ],
      "logsBloom": "0x01000000000014000000000004000000000000000000000002000004000000000100000000000000000000000000000000000000000000000000000000000000000000000008000000000008000000000000000000000000000000000000000000000000020000008000000000000800000000000000000000000010000000000000080000000000000004000000000001000000000000080000000000000000200000000000000000000000000000000000000000100000000020000000000000000402000000000000000000000000000000000000000000000000000020000000002000000000000002000000004000000010000000000000000000000000",
      "type": "0x2",
      "transactionHash": "0x808a4882b60241ead3c37dc5333f1f163506825b0ee87ce8825afe496b5cbbe7",
      "transactionIndex": "0x72",
      "blockHash": "0x3f87de9769a0831362e3ed6d13cf9f597b4e8ab1adccdafa9f0388790349c62c",
      "blockNumber": "0x12b0f9d",
      "gasUsed": "0x18708",
      "effectiveGasPrice": "0x58d89a",
      "from": "0xf53f105e90b3e9ea928926a5a78e921d8168e213",
      "to": "0x1e640277847a52c5fcc31bea479bf0685db73f8a",
      "contractAddress": null,
      "l1BaseFeeScalar": "0x8dd",
      "l1BlobBaseFee": "0x1",
      "l1BlobBaseFeeScalar": "0x101c12",
      "l1Fee": "0x660093570",
      "l1GasPrice": "0x188037eec",
      "l1GasUsed": "0x72a"
    },
    {
      "status": "0x1",
      "cumulativeGasUsed": "0x1191cc9",
      "logs": [
        {
          "address": "0xfc08dc05e8270b42ad594e7027e28ff32fb83234",
          "topics": [
            "0x47d99ad340f52da66535aff7e10da1ceb85a32bcbd9fa1c42314d194545e14d2",
            "0x0000000000000000000000002d37c6bfcb5cdd2cdb5c48c107b56a85b77d62e8",
            "0x0000000000000000000000000000000000000000000000000000000000000000"
          ],
          "data": "0x0000000000000000000000000000000000000000000000000000000000000020000000000000000000000000000000000000000000000000000000000000006423b872dd000000000000000000000000fc08dc05e8270b42ad594e7027e28ff32fb83234000000000000000000000000000000000000000000000000000000000000dead000000000000000000000000000000000000000000000000000000000000008c00000000000000000000000000000000000000000000000000000000",
          "blockHash": "0x3f87de9769a0831362e3ed6d13cf9f597b4e8ab1adccdafa9f0388790349c62c",
          "blockNumber": "0x12b0f9d",
          "transactionHash": "0xfbed813f4569aaee2e09e13b6f7eff60e116fef8b7a971b49f295f17020ca3d1",
          "transactionIndex": "0x73",
          "logIndex": "0x167",
          "removed": false
        },
        {
          "address": "0x2d37c6bfcb5cdd2cdb5c48c107b56a85b77d62e8",
          "topics": [
            "0xddf252ad1be2c89b69c2b068fc378daa952ba7f163c4a11628f55a4df523b3ef",
            "0x000000000000000000000000fc08dc05e8270b42ad594e7027e28ff32fb83234",
            "0x000000000000000000000000000000000000000000000000000000000000dead",
            "0x000000000000000000000000000000000000000000000000000000000000008c"
          ],
          "data": "0x",
          "blockHash": "0x3f87de9769a0831362e3ed6d13cf9f597b4e8ab1adccdafa9f0388790349c62c",
          "blockNumber": "0x12b0f9d",
          "transactionHash": "0xfbed813f4569aaee2e09e13b6f7eff60e116fef8b7a971b49f295f17020ca3d1",
          "transactionIndex": "0x73",
          "logIndex": "0x168",
          "removed": false
        }
      ],
      "logsBloom": "0x0100000000001400000000040400000000000000000000000200800000000080010000000000000000000000000000000000000000000000000000000000000000000000000004000000000800200000000000000000000000000000000000000000000002000000000000000000080000000000000000000000001000000000000000000000000000000400000000000200000000000000000000000000000020000000000000000000000000000000000000000000000000000000000000000000040200000000000000000000000000000000000010000002000000002000000000a000000000000002000000004000000000000000000000000000000000",
      "type": "0x2",
      "transactionHash": "0xfbed813f4569aaee2e09e13b6f7eff60e116fef8b7a971b49f295f17020ca3d1",
      "transactionIndex": "0x73",
      "blockHash": "0x3f87de9769a0831362e3ed6d13cf9f597b4e8ab1adccdafa9f0388790349c62c",
      "blockNumber": "0x12b0f9d",
      "gasUsed": "0x18708",
      "effectiveGasPrice": "0x58d89a",
      "from": "0xf53f105e90b3e9ea928926a5a78e921d8168e213",
      "to": "0xfc08dc05e8270b42ad594e7027e28ff32fb83234",
      "contractAddress": null,
      "l1BaseFeeScalar": "0x8dd",
      "l1BlobBaseFee": "0x1",
      "l1BlobBaseFeeScalar": "0x101c12",
      "l1Fee": "0x69b8f55f8",
      "l1GasPrice": "0x188037eec",
      "l1GasUsed": "0x76d"
    },
    {
      "status": "0x1",
      "cumulativeGasUsed": "0x11aa3d1",
      "logs": [
        {
          "address": "0x0264a1d6b149e423e180d5461bf83916d3c9bf75",
          "topics": [
            "0x47d99ad340f52da66535aff7e10da1ceb85a32bcbd9fa1c42314d194545e14d2",
            "0x0000000000000000000000002d37c6bfcb5cdd2cdb5c48c107b56a85b77d62e8",
            "0x0000000000000000000000000000000000000000000000000000000000000000"
          ],
          "data": "0x0000000000000000000000000000000000000000000000000000000000000020000000000000000000000000000000000000000000000000000000000000006423b872dd0000000000000000000000000264a1d6b149e423e180d5461bf83916d3c9bf75000000000000000000000000000000000000000000000000000000000000dead000000000000000000000000000000000000000000000000000000000000006200000000000000000000000000000000000000000000000000000000",
          "blockHash": "0x3f87de9769a0831362e3ed6d13cf9f597b4e8ab1adccdafa9f0388790349c62c",
          "blockNumber": "0x12b0f9d",
          "transactionHash": "0xd4b3bd69f338e309930beb95439b0cf050112b6cfe77531fa9fd927995bb87bb",
          "transactionIndex": "0x74",
          "logIndex": "0x169",
          "removed": false
        },
        {
          "address": "0x2d37c6bfcb5cdd2cdb5c48c107b56a85b77d62e8",
          "topics": [
            "0xddf252ad1be2c89b69c2b068fc378daa952ba7f163c4a11628f55a4df523b3ef",
            "0x0000000000000000000000000264a1d6b149e423e180d5461bf83916d3c9bf75",
            "0x000000000000000000000000000000000000000000000000000000000000dead",
            "0x0000000000000000000000000000000000000000000000000000000000000062"
          ],
          "data": "0x",
          "blockHash": "0x3f87de9769a0831362e3ed6d13cf9f597b4e8ab1adccdafa9f0388790349c62c",
          "blockNumber": "0x12b0f9d",
          "transactionHash": "0xd4b3bd69f338e309930beb95439b0cf050112b6cfe77531fa9fd927995bb87bb",
          "transactionIndex": "0x74",
          "logIndex": "0x16a",
          "removed": false
        }
      ],
      "logsBloom": "0x01000000000014000000000004000000000000000000000002000000000000000100000000000000000000000000000000000000000000000010000000000000000008000000000000000008000000000100000000000000000000000000000000000000020000000000000000200800000000000000000000000010000000000000000000100000000004000000000000000000000000000000000002000010200000000000000000000000000000000000000000000000000200000000000000000402000000000000000000000000000000000000000000000000000420000000002000000000000002000000004000000000000000000000000000000000",
      "type": "0x2",
      "transactionHash": "0xd4b3bd69f338e309930beb95439b0cf050112b6cfe77531fa9fd927995bb87bb",
      "transactionIndex": "0x74",
      "blockHash": "0x3f87de9769a0831362e3ed6d13cf9f597b4e8ab1adccdafa9f0388790349c62c",
      "blockNumber": "0x12b0f9d",
      "gasUsed": "0x18708",
      "effectiveGasPrice": "0x58d89a",
      "from": "0xf53f105e90b3e9ea928926a5a78e921d8168e213",
      "to": "0x0264a1d6b149e423e180d5461bf83916d3c9bf75",
      "contractAddress": null,
      "l1BaseFeeScalar": "0x8dd",
      "l1BlobBaseFee": "0x1",
      "l1BlobBaseFeeScalar": "0x101c12",
      "l1Fee": "0x69b8f55f8",
      "l1GasPrice": "0x188037eec",
      "l1GasUsed": "0x76d"
    },
    {
      "status": "0x1",
      "cumulativeGasUsed": "0x11c2ad9",
      "logs": [
        {
          "address": "0xdf651a74cde0ebac4f66a8d348e91e7e6af4575b",
          "topics": [
            "0x47d99ad340f52da66535aff7e10da1ceb85a32bcbd9fa1c42314d194545e14d2",
            "0x0000000000000000000000002d37c6bfcb5cdd2cdb5c48c107b56a85b77d62e8",
            "0x0000000000000000000000000000000000000000000000000000000000000000"
          ],
          "data": "0x0000000000000000000000000000000000000000000000000000000000000020000000000000000000000000000000000000000000000000000000000000006423b872dd000000000000000000000000df651a74cde0ebac4f66a8d348e91e7e6af4575b000000000000000000000000000000000000000000000000000000000000dead000000000000000000000000000000000000000000000000000000000000009d00000000000000000000000000000000000000000000000000000000",
          "blockHash": "0x3f87de9769a0831362e3ed6d13cf9f597b4e8ab1adccdafa9f0388790349c62c",
          "blockNumber": "0x12b0f9d",
          "transactionHash": "0xcc55f86dcc629d87670efc973c293e2aaf3f7e91961bb1e57170680f26ec444f",
          "transactionIndex": "0x75",
          "logIndex": "0x16b",
          "removed": false
        },
        {
          "address": "0x2d37c6bfcb5cdd2cdb5c48c107b56a85b77d62e8",
          "topics": [
            "0xddf252ad1be2c89b69c2b068fc378daa952ba7f163c4a11628f55a4df523b3ef",
            "0x000000000000000000000000df651a74cde0ebac4f66a8d348e91e7e6af4575b",
            "0x000000000000000000000000000000000000000000000000000000000000dead",
            "0x000000000000000000000000000000000000000000000000000000000000009d"
          ],
          "data": "0x",
          "blockHash": "0x3f87de9769a0831362e3ed6d13cf9f597b4e8ab1adccdafa9f0388790349c62c",
          "blockNumber": "0x12b0f9d",
          "transactionHash": "0xcc55f86dcc629d87670efc973c293e2aaf3f7e91961bb1e57170680f26ec444f",
          "transactionIndex": "0x75",
          "logIndex": "0x16c",
          "removed": false
        }
      ],
      "logsBloom": "0x01000000000014000000000004000000000000000000000002000000000000000100000000000000000000000000000000000000080000000000000000000000000000000000000000000008000000000000000000000000000000040000000000000000020000000000000000000800000000000000000000000210000000000000000000000000000004000000000000000000000000000000001000000000200000000000000000000400000000000100400000000000000000000000000000000402000000000000000000000000020000000000000000000000000020000000002000000000000002000000004000000000000000000000000000000000",
      "type": "0x2",
      "transactionHash": "0xcc55f86dcc629d87670efc973c293e2aaf3f7e91961bb1e57170680f26ec444f",
      "transactionIndex": "0x75",
      "blockHash": "0x3f87de9769a0831362e3ed6d13cf9f597b4e8ab1adccdafa9f0388790349c62c",
      "blockNumber": "0x12b0f9d",
      "gasUsed": "0x18708",
      "effectiveGasPrice": "0x58d89a",
      "from": "0xf53f105e90b3e9ea928926a5a78e921d8168e213",
      "to": "0xdf651a74cde0ebac4f66a8d348e91e7e6af4575b",
      "contractAddress": null,
      "l1BaseFeeScalar": "0x8dd",
      "l1BlobBaseFee": "0x1",
      "l1BlobBaseFeeScalar": "0x101c12",
      "l1Fee": "0x69b8f55f8",
      "l1GasPrice": "0x188037eec",
      "l1GasUsed": "0x76d"
    }
  ],
  "libraries": [],
  "pending": [],
  "returns": {},
  "timestamp": 1725987876,
  "chain": 8453,
  "commit": "6692aaf"
}