{
  "transactions": [
    {
      "hash": "0xa43b6bdc98e1d932dc1ce9ff547201abeac84ce9c968ab407f5cb0c39def80af",
      "transactionType": "CREATE",
      "contractName": null,
      "contractAddress": "0x647173d64468ea070ab467b5bc593543ae6b03ae",
      "function": null,
      "arguments": null,
      "transaction": {
        "from": "0xb7d030f7c6406446e703e73b3d1dd8611a2d87b6",
        "gas": "0xcf1da",
        "value": "0x0",
        "input": "0x608060405234801562000010575f80fd5b5060405162000cd938038062000cd98339810160408190526200003391620001a8565b8282826003620000448382620002b8565b506004620000538282620002b8565b5050506001600160a01b0381166200008457604051631e4fbdf760e01b81525f600482015260240160405180910390fd5b6200008f8162000099565b5050505062000380565b600580546001600160a01b038381166001600160a01b0319831681179093556040519116919082907f8be0079c531659141344cd1fd0a4f28419497f9722a3daafe3b4186f6b6457e0905f90a35050565b634e487b7160e01b5f52604160045260245ffd5b5f82601f8301126200010e575f80fd5b81516001600160401b03808211156200012b576200012b620000ea565b604051601f8301601f19908116603f01168101908282118183101715620001565762000156620000ea565b8160405283815260209250868385880101111562000172575f80fd5b5f91505b8382101562000195578582018301518183018401529082019062000176565b5f93810190920192909252949350505050565b5f805f60608486031215620001bb575f80fd5b83516001600160a01b0381168114620001d2575f80fd5b60208501519093506001600160401b0380821115620001ef575f80fd5b620001fd87838801620000fe565b9350604086015191508082111562000213575f80fd5b506200022286828701620000fe565b9150509250925092565b600181811c908216806200024157607f821691505b6020821081036200026057634e487b7160e01b5f52602260045260245ffd5b50919050565b601f821115620002b3575f81815260208120601f850160051c810160208610156200028e5750805b601f850160051c820191505b81811015620002af578281556001016200029a565b5050505b505050565b81516001600160401b03811115620002d457620002d4620000ea565b620002ec81620002e584546200022c565b8462000266565b602080601f83116001811462000322575f84156200030a5750858301515b5f19600386901b1c1916600185901b178555620002af565b5f85815260208120601f198616915b82811015620003525788860151825594840194600190910190840162000331565b50858210156200037057878501515f19600388901b60f8161c191681555b5050505050600190811b01905550565b61094b806200038e5f395ff3fe608060405234801561000f575f80fd5b50600436106100f0575f3560e01c806370a082311161009357806395d89b411161006357806395d89b41146101ef578063a9059cbb146101f7578063dd62ed3e1461020a578063f2fde38b14610242575f80fd5b806370a0823114610191578063715018a6146101b957806379cc6790146101c15780638da5cb5b146101d4575f80fd5b806323b872dd116100ce57806323b872dd14610147578063313ce5671461015a57806340c10f191461016957806342966c681461017e575f80fd5b806306fdde03146100f4578063095ea7b31461011257806318160ddd14610135575b5f80fd5b6100fc610255565b604051610109919061078f565b60405180910390f35b6101256101203660046107f5565b6102e5565b6040519015158152602001610109565b6002545b604051908152602001610109565b61012561015536600461081d565b6102fe565b60405160128152602001610109565b61017c6101773660046107f5565b610321565b005b61017c61018c366004610856565b610337565b61013961019f36600461086d565b6001600160a01b03165f9081526020819052604090205490565b61017c610344565b61017c6101cf3660046107f5565b610357565b6005546040516001600160a01b039091168152602001610109565b6100fc61036c565b6101256102053660046107f5565b61037b565b61013961021836600461088d565b6001600160a01b039182165f90815260016020908152604080832093909416825291909152205490565b61017c61025036600461086d565b610388565b606060038054610264906108be565b80601f0160208091040260200160405190810160405280929190818152602001828054610290906108be565b80156102db5780601f106102b2576101008083540402835291602001916102db565b820191905f5260205f20905b8154815290600101906020018083116102be57829003601f168201915b5050505050905090565b5f336102f28185856103c7565b60019150505b92915050565b5f3361030b8582856103d9565b610316858585610454565b506001949350505050565b6103296104b1565b61033382826104de565b5050565b6103413382610512565b50565b61034c6104b1565b6103555f610546565b565b6103628233836103d9565b6103338282610512565b606060048054610264906108be565b5f336102f2818585610454565b6103906104b1565b6001600160a01b0381166103be57604051631e4fbdf760e01b81525f60048201526024015b60405180910390fd5b61034181610546565b6103d48383836001610597565b505050565b6001600160a01b038381165f908152600160209081526040808320938616835292905220545f19811461044e578181101561044057604051637dc7a0d960e11b81526001600160a01b038416600482015260248101829052604481018390526064016103b5565b61044e84848484035f610597565b50505050565b6001600160a01b03831661047d57604051634b637e8f60e11b81525f60048201526024016103b5565b6001600160a01b0382166104a65760405163ec442f0560e01b81525f60048201526024016103b5565b6103d4838383610669565b6005546001600160a01b031633146103555760405163118cdaa760e01b81523360048201526024016103b5565b6001600160a01b0382166105075760405163ec442f0560e01b81525f60048201526024016103b5565b6103335f8383610669565b6001600160a01b03821661053b57604051634b637e8f60e11b81525f60048201526024016103b5565b610333825f83610669565b600580546001600160a01b038381166001600160a01b0319831681179093556040519116919082907f8be0079c531659141344cd1fd0a4f28419497f9722a3daafe3b4186f6b6457e0905f90a35050565b6001600160a01b0384166105c05760405163e602df0560e01b81525f60048201526024016103b5565b6001600160a01b0383166105e957604051634a1406b160e11b81525f60048201526024016103b5565b6001600160a01b038085165f908152600160209081526040808320938716835292905220829055801561044e57826001600160a01b0316846001600160a01b03167f8c5be1e5ebec7d5bd14f71427d1e84f3dd0314c0f7b2291e5b200ac8c7c3b9258460405161065b91815260200190565b60405180910390a350505050565b6001600160a01b038316610693578060025f82825461068891906108f6565b909155506107039050565b6001600160a01b0383165f90815260208190526040902054818110156106e55760405163391434e360e21b81526001600160a01b038516600482015260248101829052604481018390526064016103b5565b6001600160a01b0384165f9081526020819052604090209082900390555b6001600160a01b03821661071f5760028054829003905561073d565b6001600160a01b0382165f9081526020819052604090208054820190555b816001600160a01b0316836001600160a01b03167fddf252ad1be2c89b69c2b068fc378daa952ba7f163c4a11628f55a4df523b3ef8360405161078291815260200190565b60405180910390a3505050565b5f6020808352835180828501525f5b818110156107ba5785810183015185820160400152820161079e565b505f604082860101526040601f19601f8301168501019250505092915050565b80356001600160a01b03811681146107f0575f80fd5b919050565b5f8060408385031215610806575f80fd5b61080f836107da565b946020939093013593505050565b5f805f6060848603121561082f575f80fd5b610838846107da565b9250610846602085016107da565b9150604084013590509250925092565b5f60208284031215610866575f80fd5b5035919050565b5f6020828403121561087d575f80fd5b610886826107da565b9392505050565b5f806040838503121561089e575f80fd5b6108a7836107da565b91506108b5602084016107da565b90509250929050565b600181811c908216806108d257607f821691505b6020821081036108f057634e487b7160e01b5f52602260045260245ffd5b50919050565b808201808211156102f857634e487b7160e01b5f52601160045260245ffdfea2646970667358221220d4345b66bfb7412d2ea509531419dca8158f537841ee0d9aa80e3d80c30a67d364736f6c63430008140033000000000000000000000000b7d030f7c6406446e703e73b3d1dd8611a2d87b6000000000000000000000000000000000000000000000000000000000000006000000000000000000000000000000000000000000000000000000000000000a0000000000000000000000000000000000000000000000000000000000000000a546574686572205553440000000000000000000000000000000000000000000000000000000000000000000000000000000000000000000000000000000000045553445400000000000000000000000000000000000000000000000000000000",
        "nonce": "0x4f",
        "chainId": "0x3b9ac9ff"
      },
      "additionalContracts": [],
      "isFixedGasLimit": false
    },
    {
      "hash": "0x6b760c22ec642950f5577ae2366550abc43bef57f5bb5ec340292c247741a436",
      "transactionType": "CALL",
      "contractName": null,
      "contractAddress": "0x647173d64468ea070ab467b5bc593543ae6b03ae",
      "function": "mint(address,uint256)",
      "arguments": [
        "0xB7d030F7c6406446e703E73B3d1dd8611A2D87b6",
        "1000000000000"
      ],
      "transaction": {
        "from": "0xb7d030f7c6406446e703e73b3d1dd8611a2d87b6",
        "to": "0x647173d64468ea070ab467b5bc593543ae6b03ae",
        "gas": "0x17d0a",
        "value": "0x0",
        "input": "0x40c10f19000000000000000000000000b7d030f7c6406446e703e73b3d1dd8611a2d87b6000000000000000000000000000000000000000000000000000000e8d4a51000",
        "nonce": "0x50",
        "chainId": "0x3b9ac9ff"
      },
      "additionalContracts": [],
      "isFixedGasLimit": false
    },
    {
      "hash": "0x4763e7ca652bb5515a954f88c77df94d1e345ba44a9a84882225e0b3350a941a",
      "transactionType": "CALL",
      "contractName": null,
      "contractAddress": "0x647173d64468ea070ab467b5bc593543ae6b03ae",
      "function": "mint(address,uint256)",
      "arguments": [
        "0x4F88F1014Dd6Ca0507780380111c098BeE6b87e6",
        "1000000000000"
      ],
      "transaction": {
        "from": "0xb7d030f7c6406446e703e73b3d1dd8611a2d87b6",
        "to": "0x647173d64468ea070ab467b5bc593543ae6b03ae",
        "gas": "0x131c4",
        "value": "0x0",
        "input": "0x40c10f190000000000000000000000004f88f1014dd6ca0507780380111c098bee6b87e6000000000000000000000000000000000000000000000000000000e8d4a51000",
        "nonce": "0x51",
        "chainId": "0x3b9ac9ff"
      },
      "additionalContracts": [],
      "isFixedGasLimit": false
    },
    {
      "hash": "0x7b5e09b19579c707ef7cedb9ca35e2bcd69b3a67124b9a298f849419bf5f1cef",
      "transactionType": "CALL",
      "contractName": null,
      "contractAddress": "0x647173d64468ea070ab467b5bc593543ae6b03ae",
      "function": "mint(address,uint256)",
      "arguments": [
        "0xC31f6b8133d618aD2ff1AC5fAA3Fc4B20557B901",
        "1000000000000"
      ],
      "transaction": {
        "from": "0xb7d030f7c6406446e703e73b3d1dd8611a2d87b6",
        "to": "0x647173d64468ea070ab467b5bc593543ae6b03ae",
        "gas": "0x131c4",
        "value": "0x0",
        "input": "0x40c10f19000000000000000000000000c31f6b8133d618ad2ff1ac5faa3fc4b20557b901000000000000000000000000000000000000000000000000000000e8d4a51000",
        "nonce": "0x52",
        "chainId": "0x3b9ac9ff"
      },
      "additionalContracts": [],
      "isFixedGasLimit": false
    },
    {
      "hash": "0xd58a07042d543f04473155928b6c278b1db794453e38a900aaa824130ba54e94",
      "transactionType": "CALL",
      "contractName": null,
      "contractAddress": "0x647173d64468ea070ab467b5bc593543ae6b03ae",
      "function": "mint(address,uint256)",
      "arguments": [
        "0x66E675533020c3CDeE2F33E372320B7e2692211e",
        "1000000000000"
      ],
      "transaction": {
        "from": "0xb7d030f7c6406446e703e73b3d1dd8611a2d87b6",
        "to": "0x647173d64468ea070ab467b5bc593543ae6b03ae",
        "gas": "0x131c4",
        "value": "0x0",
        "input": "0x40c10f1900000000000000000000000066e675533020c3cdee2f33e372320b7e2692211e000000000000000000000000000000000000000000000000000000e8d4a51000",
        "nonce": "0x53",
        "chainId": "0x3b9ac9ff"
      },
      "additionalContracts": [],
      "isFixedGasLimit": false
    },
    {
      "hash": "0x117790dcc0d082c497d7bdd0c9ff2524b3a2da8279a19fcd2aab51b26ded4e90",
      "transactionType": "CREATE",
      "contractName": null,
      "contractAddress": "0xce833a4879e3c790176d7aecda84ba28c3bed35e",
      "function": null,
      "arguments": null,
      "transaction": {
        "from": "0xb7d030f7c6406446e703e73b3d1dd8611a2d87b6",
        "gas": "0xcf1bb",
        "value": "0x0",
        "input": "0x608060405234801562000010575f80fd5b5060405162000cd938038062000cd98339810160408190526200003391620001a8565b8282826003620000448382620002b8565b506004620000538282620002b8565b5050506001600160a01b0381166200008457604051631e4fbdf760e01b81525f600482015260240160405180910390fd5b6200008f8162000099565b5050505062000380565b600580546001600160a01b038381166001600160a01b0319831681179093556040519116919082907f8be0079c531659141344cd1fd0a4f28419497f9722a3daafe3b4186f6b6457e0905f90a35050565b634e487b7160e01b5f52604160045260245ffd5b5f82601f8301126200010e575f80fd5b81516001600160401b03808211156200012b576200012b620000ea565b604051601f8301601f19908116603f01168101908282118183101715620001565762000156620000ea565b8160405283815260209250868385880101111562000172575f80fd5b5f91505b8382101562000195578582018301518183018401529082019062000176565b5f93810190920192909252949350505050565b5f805f60608486031215620001bb575f80fd5b83516001600160a01b0381168114620001d2575f80fd5b60208501519093506001600160401b0380821115620001ef575f80fd5b620001fd87838801620000fe565b9350604086015191508082111562000213575f80fd5b506200022286828701620000fe565b9150509250925092565b600181811c908216806200024157607f821691505b6020821081036200026057634e487b7160e01b5f52602260045260245ffd5b50919050565b601f821115620002b3575f81815260208120601f850160051c810160208610156200028e5750805b601f850160051c820191505b81811015620002af578281556001016200029a565b5050505b505050565b81516001600160401b03811115620002d457620002d4620000ea565b620002ec81620002e584546200022c565b8462000266565b602080601f83116001811462000322575f84156200030a5750858301515b5f19600386901b1c1916600185901b178555620002af565b5f85815260208120601f198616915b82811015620003525788860151825594840194600190910190840162000331565b50858210156200037057878501515f19600388901b60f8161c191681555b5050505050600190811b01905550565b61094b806200038e5f395ff3fe608060405234801561000f575f80fd5b50600436106100f0575f3560e01c806370a082311161009357806395d89b411161006357806395d89b41146101ef578063a9059cbb146101f7578063dd62ed3e1461020a578063f2fde38b14610242575f80fd5b806370a0823114610191578063715018a6146101b957806379cc6790146101c15780638da5cb5b146101d4575f80fd5b806323b872dd116100ce57806323b872dd14610147578063313ce5671461015a57806340c10f191461016957806342966c681461017e575f80fd5b806306fdde03146100f4578063095ea7b31461011257806318160ddd14610135575b5f80fd5b6100fc610255565b604051610109919061078f565b60405180910390f35b6101256101203660046107f5565b6102e5565b6040519015158152602001610109565b6002545b604051908152602001610109565b61012561015536600461081d565b6102fe565b60405160128152602001610109565b61017c6101773660046107f5565b610321565b005b61017c61018c366004610856565b610337565b61013961019f36600461086d565b6001600160a01b03165f9081526020819052604090205490565b61017c610344565b61017c6101cf3660046107f5565b610357565b6005546040516001600160a01b039091168152602001610109565b6100fc61036c565b6101256102053660046107f5565b61037b565b61013961021836600461088d565b6001600160a01b039182165f90815260016020908152604080832093909416825291909152205490565b61017c61025036600461086d565b610388565b606060038054610264906108be565b80601f0160208091040260200160405190810160405280929190818152602001828054610290906108be565b80156102db5780601f106102b2576101008083540402835291602001916102db565b820191905f5260205f20905b8154815290600101906020018083116102be57829003601f168201915b5050505050905090565b5f336102f28185856103c7565b60019150505b92915050565b5f3361030b8582856103d9565b610316858585610454565b506001949350505050565b6103296104b1565b61033382826104de565b5050565b6103413382610512565b50565b61034c6104b1565b6103555f610546565b565b6103628233836103d9565b6103338282610512565b606060048054610264906108be565b5f336102f2818585610454565b6103906104b1565b6001600160a01b0381166103be57604051631e4fbdf760e01b81525f60048201526024015b60405180910390fd5b61034181610546565b6103d48383836001610597565b505050565b6001600160a01b038381165f908152600160209081526040808320938616835292905220545f19811461044e578181101561044057604051637dc7a0d960e11b81526001600160a01b038416600482015260248101829052604481018390526064016103b5565b61044e84848484035f610597565b50505050565b6001600160a01b03831661047d57604051634b637e8f60e11b81525f60048201526024016103b5565b6001600160a01b0382166104a65760405163ec442f0560e01b81525f60048201526024016103b5565b6103d4838383610669565b6005546001600160a01b031633146103555760405163118cdaa760e01b81523360048201526024016103b5565b6001600160a01b0382166105075760405163ec442f0560e01b81525f60048201526024016103b5565b6103335f8383610669565b6001600160a01b03821661053b57604051634b637e8f60e11b81525f60048201526024016103b5565b610333825f83610669565b600580546001600160a01b038381166001600160a01b0319831681179093556040519116919082907f8be0079c531659141344cd1fd0a4f28419497f9722a3daafe3b4186f6b6457e0905f90a35050565b6001600160a01b0384166105c05760405163e602df0560e01b81525f60048201526024016103b5565b6001600160a01b0383166105e957604051634a1406b160e11b81525f60048201526024016103b5565b6001600160a01b038085165f908152600160209081526040808320938716835292905220829055801561044e57826001600160a01b0316846001600160a01b03167f8c5be1e5ebec7d5bd14f71427d1e84f3dd0314c0f7b2291e5b200ac8c7c3b9258460405161065b91815260200190565b60405180910390a350505050565b6001600160a01b038316610693578060025f82825461068891906108f6565b909155506107039050565b6001600160a01b0383165f90815260208190526040902054818110156106e55760405163391434e360e21b81526001600160a01b038516600482015260248101829052604481018390526064016103b5565b6001600160a01b0384165f9081526020819052604090209082900390555b6001600160a01b03821661071f5760028054829003905561073d565b6001600160a01b0382165f9081526020819052604090208054820190555b816001600160a01b0316836001600160a01b03167fddf252ad1be2c89b69c2b068fc378daa952ba7f163c4a11628f55a4df523b3ef8360405161078291815260200190565b60405180910390a3505050565b5f6020808352835180828501525f5b818110156107ba5785810183015185820160400152820161079e565b505f604082860101526040601f19601f8301168501019250505092915050565b80356001600160a01b03811681146107f0575f80fd5b919050565b5f8060408385031215610806575f80fd5b61080f836107da565b946020939093013593505050565b5f805f6060848603121561082f575f80fd5b610838846107da565b9250610846602085016107da565b9150604084013590509250925092565b5f60208284031215610866575f80fd5b5035919050565b5f6020828403121561087d575f80fd5b610886826107da565b9392505050565b5f806040838503121561089e575f80fd5b6108a7836107da565b91506108b5602084016107da565b90509250929050565b600181811c908216806108d257607f821691505b6020821081036108f057634e487b7160e01b5f52602260045260245ffd5b50919050565b808201808211156102f857634e487b7160e01b5f52601160045260245ffdfea2646970667358221220d4345b66bfb7412d2ea509531419dca8158f537841ee0d9aa80e3d80c30a67d364736f6c63430008140033000000000000000000000000b7d030f7c6406446e703e73b3d1dd8611a2d87b6000000000000000000000000000000000000000000000000000000000000006000000000000000000000000000000000000000000000000000000000000000a0000000000000000000000000000000000000000000000000000000000000000855534420436f696e00000000000000000000000000000000000000000000000000000000000000000000000000000000000000000000000000000000000000045553444300000000000000000000000000000000000000000000000000000000",
        "nonce": "0x54",
        "chainId": "0x3b9ac9ff"
      },
      "additionalContracts": [],
      "isFixedGasLimit": false
    },
    {
      "hash": "0x203d8fcdfc83ec2e43a6cf398d79de7ea12d0efba67cd83f04f1df2b20c1b388",
      "transactionType": "CALL",
      "contractName": null,
      "contractAddress": "0xce833a4879e3c790176d7aecda84ba28c3bed35e",
      "function": "mint(address,uint256)",
      "arguments": [
        "0xB7d030F7c6406446e703E73B3d1dd8611A2D87b6",
        "1000000000000"
      ],
      "transaction": {
        "from": "0xb7d030f7c6406446e703e73b3d1dd8611a2d87b6",
        "to": "0xce833a4879e3c790176d7aecda84ba28c3bed35e",
        "gas": "0x17d0a",
        "value": "0x0",
        "input": "0x40c10f19000000000000000000000000b7d030f7c6406446e703e73b3d1dd8611a2d87b6000000000000000000000000000000000000000000000000000000e8d4a51000",
        "nonce": "0x55",
        "chainId": "0x3b9ac9ff"
      },
      "additionalContracts": [],
      "isFixedGasLimit": false
    },
    {
      "hash": "0x081928c1af7a54092f6585d7d2f19b6c16ad45515770499525d1856f11f763e7",
      "transactionType": "CALL",
      "contractName": null,
      "contractAddress": "0xce833a4879e3c790176d7aecda84ba28c3bed35e",
      "function": "mint(address,uint256)",
      "arguments": [
        "0x4F88F1014Dd6Ca0507780380111c098BeE6b87e6",
        "1000000000000"
      ],
      "transaction": {
        "from": "0xb7d030f7c6406446e703e73b3d1dd8611a2d87b6",
        "to": "0xce833a4879e3c790176d7aecda84ba28c3bed35e",
        "gas": "0x131c4",
        "value": "0x0",
        "input": "0x40c10f190000000000000000000000004f88f1014dd6ca0507780380111c098bee6b87e6000000000000000000000000000000000000000000000000000000e8d4a51000",
        "nonce": "0x56",
        "chainId": "0x3b9ac9ff"
      },
      "additionalContracts": [],
      "isFixedGasLimit": false
    },
    {
      "hash": "0x0c61a816d94760e339b860f073ac7e7ef8fcd287b2f6c9c40fc036a7093cd64d",
      "transactionType": "CALL",
      "contractName": null,
      "contractAddress": "0xce833a4879e3c790176d7aecda84ba28c3bed35e",
      "function": "mint(address,uint256)",
      "arguments": [
        "0xC31f6b8133d618aD2ff1AC5fAA3Fc4B20557B901",
        "1000000000000"
      ],
      "transaction": {
        "from": "0xb7d030f7c6406446e703e73b3d1dd8611a2d87b6",
        "to": "0xce833a4879e3c790176d7aecda84ba28c3bed35e",
        "gas": "0x131c4",
        "value": "0x0",
        "input": "0x40c10f19000000000000000000000000c31f6b8133d618ad2ff1ac5faa3fc4b20557b901000000000000000000000000000000000000000000000000000000e8d4a51000",
        "nonce": "0x57",
        "chainId": "0x3b9ac9ff"
      },
      "additionalContracts": [],
      "isFixedGasLimit": false
    },
    {
      "hash": "0xb3ff873dd040062f0db2a29b18b8641e9c38a0dfd5b7c34013185ec7bd6076e9",
      "transactionType": "CALL",
      "contractName": null,
      "contractAddress": "0xce833a4879e3c790176d7aecda84ba28c3bed35e",
      "function": "mint(address,uint256)",
      "arguments": [
        "0x66E675533020c3CDeE2F33E372320B7e2692211e",
        "1000000000000"
      ],
      "transaction": {
        "from": "0xb7d030f7c6406446e703e73b3d1dd8611a2d87b6",
        "to": "0xce833a4879e3c790176d7aecda84ba28c3bed35e",
        "gas": "0x131c4",
        "value": "0x0",
        "input": "0x40c10f1900000000000000000000000066e675533020c3cdee2f33e372320b7e2692211e000000000000000000000000000000000000000000000000000000e8d4a51000",
        "nonce": "0x58",
        "chainId": "0x3b9ac9ff"
      },
      "additionalContracts": [],
      "isFixedGasLimit": false
    },
    {
      "hash": "0x7cd646c65c64219369feaedf7d531e44c4de2d7e36aac860bf02e6679b0f58d8",
      "transactionType": "CREATE",
      "contractName": null,
      "contractAddress": "0x61ebbc22d4e34f4f4f26f67114a5836854996c9b",
      "function": null,
      "arguments": null,
      "transaction": {
        "from": "0xb7d030f7c6406446e703e73b3d1dd8611a2d87b6",
        "gas": "0xcf1e9",
        "value": "0x0",
        "input": "0x608060405234801562000010575f80fd5b5060405162000cd938038062000cd98339810160408190526200003391620001a8565b8282826003620000448382620002b8565b506004620000538282620002b8565b5050506001600160a01b0381166200008457604051631e4fbdf760e01b81525f600482015260240160405180910390fd5b6200008f8162000099565b5050505062000380565b600580546001600160a01b038381166001600160a01b0319831681179093556040519116919082907f8be0079c531659141344cd1fd0a4f28419497f9722a3daafe3b4186f6b6457e0905f90a35050565b634e487b7160e01b5f52604160045260245ffd5b5f82601f8301126200010e575f80fd5b81516001600160401b03808211156200012b576200012b620000ea565b604051601f8301601f19908116603f01168101908282118183101715620001565762000156620000ea565b8160405283815260209250868385880101111562000172575f80fd5b5f91505b8382101562000195578582018301518183018401529082019062000176565b5f93810190920192909252949350505050565b5f805f60608486031215620001bb575f80fd5b83516001600160a01b0381168114620001d2575f80fd5b60208501519093506001600160401b0380821115620001ef575f80fd5b620001fd87838801620000fe565b9350604086015191508082111562000213575f80fd5b506200022286828701620000fe565b9150509250925092565b600181811c908216806200024157607f821691505b6020821081036200026057634e487b7160e01b5f52602260045260245ffd5b50919050565b601f821115620002b3575f81815260208120601f850160051c810160208610156200028e5750805b601f850160051c820191505b81811015620002af578281556001016200029a565b5050505b505050565b81516001600160401b03811115620002d457620002d4620000ea565b620002ec81620002e584546200022c565b8462000266565b602080601f83116001811462000322575f84156200030a5750858301515b5f19600386901b1c1916600185901b178555620002af565b5f85815260208120601f198616915b82811015620003525788860151825594840194600190910190840162000331565b50858210156200037057878501515f19600388901b60f8161c191681555b5050505050600190811b01905550565b61094b806200038e5f395ff3fe608060405234801561000f575f80fd5b50600436106100f0575f3560e01c806370a082311161009357806395d89b411161006357806395d89b41146101ef578063a9059cbb146101f7578063dd62ed3e1461020a578063f2fde38b14610242575f80fd5b806370a0823114610191578063715018a6146101b957806379cc6790146101c15780638da5cb5b146101d4575f80fd5b806323b872dd116100ce57806323b872dd14610147578063313ce5671461015a57806340c10f191461016957806342966c681461017e575f80fd5b806306fdde03146100f4578063095ea7b31461011257806318160ddd14610135575b5f80fd5b6100fc610255565b604051610109919061078f565b60405180910390f35b6101256101203660046107f5565b6102e5565b6040519015158152602001610109565b6002545b604051908152602001610109565b61012561015536600461081d565b6102fe565b60405160128152602001610109565b61017c6101773660046107f5565b610321565b005b61017c61018c366004610856565b610337565b61013961019f36600461086d565b6001600160a01b03165f9081526020819052604090205490565b61017c610344565b61017c6101cf3660046107f5565b610357565b6005546040516001600160a01b039091168152602001610109565b6100fc61036c565b6101256102053660046107f5565b61037b565b61013961021836600461088d565b6001600160a01b039182165f90815260016020908152604080832093909416825291909152205490565b61017c61025036600461086d565b610388565b606060038054610264906108be565b80601f0160208091040260200160405190810160405280929190818152602001828054610290906108be565b80156102db5780601f106102b2576101008083540402835291602001916102db565b820191905f5260205f20905b8154815290600101906020018083116102be57829003601f168201915b5050505050905090565b5f336102f28185856103c7565b60019150505b92915050565b5f3361030b8582856103d9565b610316858585610454565b506001949350505050565b6103296104b1565b61033382826104de565b5050565b6103413382610512565b50565b61034c6104b1565b6103555f610546565b565b6103628233836103d9565b6103338282610512565b606060048054610264906108be565b5f336102f2818585610454565b6103906104b1565b6001600160a01b0381166103be57604051631e4fbdf760e01b81525f60048201526024015b60405180910390fd5b61034181610546565b6103d48383836001610597565b505050565b6001600160a01b038381165f908152600160209081526040808320938616835292905220545f19811461044e578181101561044057604051637dc7a0d960e11b81526001600160a01b038416600482015260248101829052604481018390526064016103b5565b61044e84848484035f610597565b50505050565b6001600160a01b03831661047d57604051634b637e8f60e11b81525f60048201526024016103b5565b6001600160a01b0382166104a65760405163ec442f0560e01b81525f60048201526024016103b5565b6103d4838383610669565b6005546001600160a01b031633146103555760405163118cdaa760e01b81523360048201526024016103b5565b6001600160a01b0382166105075760405163ec442f0560e01b81525f60048201526024016103b5565b6103335f8383610669565b6001600160a01b03821661053b57604051634b637e8f60e11b81525f60048201526024016103b5565b610333825f83610669565b600580546001600160a01b038381166001600160a01b0319831681179093556040519116919082907f8be0079c531659141344cd1fd0a4f28419497f9722a3daafe3b4186f6b6457e0905f90a35050565b6001600160a01b0384166105c05760405163e602df0560e01b81525f60048201526024016103b5565b6001600160a01b0383166105e957604051634a1406b160e11b81525f60048201526024016103b5565b6001600160a01b038085165f908152600160209081526040808320938716835292905220829055801561044e57826001600160a01b0316846001600160a01b03167f8c5be1e5ebec7d5bd14f71427d1e84f3dd0314c0f7b2291e5b200ac8c7c3b9258460405161065b91815260200190565b60405180910390a350505050565b6001600160a01b038316610693578060025f82825461068891906108f6565b909155506107039050565b6001600160a01b0383165f90815260208190526040902054818110156106e55760405163391434e360e21b81526001600160a01b038516600482015260248101829052604481018390526064016103b5565b6001600160a01b0384165f9081526020819052604090209082900390555b6001600160a01b03821661071f5760028054829003905561073d565b6001600160a01b0382165f9081526020819052604090208054820190555b816001600160a01b0316836001600160a01b03167fddf252ad1be2c89b69c2b068fc378daa952ba7f163c4a11628f55a4df523b3ef8360405161078291815260200190565b60405180910390a3505050565b5f6020808352835180828501525f5b818110156107ba5785810183015185820160400152820161079e565b505f604082860101526040601f19601f8301168501019250505092915050565b80356001600160a01b03811681146107f0575f80fd5b919050565b5f8060408385031215610806575f80fd5b61080f836107da565b946020939093013593505050565b5f805f6060848603121561082f575f80fd5b610838846107da565b9250610846602085016107da565b9150604084013590509250925092565b5f60208284031215610866575f80fd5b5035919050565b5f6020828403121561087d575f80fd5b610886826107da565b9392505050565b5f806040838503121561089e575f80fd5b6108a7836107da565b91506108b5602084016107da565b90509250929050565b600181811c908216806108d257607f821691505b6020821081036108f057634e487b7160e01b5f52602260045260245ffd5b50919050565b808201808211156102f857634e487b7160e01b5f52601160045260245ffdfea2646970667358221220d4345b66bfb7412d2ea509531419dca8158f537841ee0d9aa80e3d80c30a67d364736f6c63430008140033000000000000000000000000b7d030f7c6406446e703e73b3d1dd8611a2d87b6000000000000000000000000000000000000000000000000000000000000006000000000000000000000000000000000000000000000000000000000000000a0000000000000000000000000000000000000000000000000000000000000000b577261707065642042544300000000000000000000000000000000000000000000000000000000000000000000000000000000000000000000000000000000045742544300000000000000000000000000000000000000000000000000000000",
        "nonce": "0x59",
        "chainId": "0x3b9ac9ff"
      },
      "additionalContracts": [],
      "isFixedGasLimit": false
    },
    {
      "hash": "0x27201b99a88a918c62593e75d74bafc436b3058f74cb0f5671d8f20b542f8cb4",
      "transactionType": "CALL",
      "contractName": null,
      "contractAddress": "0x61ebbc22d4e34f4f4f26f67114a5836854996c9b",
      "function": "mint(address,uint256)",
      "arguments": [
        "0xB7d030F7c6406446e703E73B3d1dd8611A2D87b6",
        "10000000000"
      ],
      "transaction": {
        "from": "0xb7d030f7c6406446e703e73b3d1dd8611a2d87b6",
        "to": "0x61ebbc22d4e34f4f4f26f67114a5836854996c9b",
        "gas": "0x17d0a",
        "value": "0x0",
        "input": "0x40c10f19000000000000000000000000b7d030f7c6406446e703e73b3d1dd8611a2d87b600000000000000000000000000000000000000000000000000000002540be400",
        "nonce": "0x5a",
        "chainId": "0x3b9ac9ff"
      },
      "additionalContracts": [],
      "isFixedGasLimit": false
    },
    {
      "hash": "0xfff7b76b155a81f02666dee228e88ae9f7cfeeff90d4f44598fb023119780f08",
      "transactionType": "CALL",
      "contractName": null,
      "contractAddress": "0x61ebbc22d4e34f4f4f26f67114a5836854996c9b",
      "function": "mint(address,uint256)",
      "arguments": [
        "0x4F88F1014Dd6Ca0507780380111c098BeE6b87e6",
        "10000000000"
      ],
      "transaction": {
        "from": "0xb7d030f7c6406446e703e73b3d1dd8611a2d87b6",
        "to": "0x61ebbc22d4e34f4f4f26f67114a5836854996c9b",
        "gas": "0x131c4",
        "value": "0x0",
        "input": "0x40c10f190000000000000000000000004f88f1014dd6ca0507780380111c098bee6b87e600000000000000000000000000000000000000000000000000000002540be400",
        "nonce": "0x5b",
        "chainId": "0x3b9ac9ff"
      },
      "additionalContracts": [],
      "isFixedGasLimit": false
    },
    {
      "hash": "0x76a01177705351ad2fe91ec4b7f1f24ffa3803f06a756b825449268dc1bd86d1",
      "transactionType": "CALL",
      "contractName": null,
      "contractAddress": "0x61ebbc22d4e34f4f4f26f67114a5836854996c9b",
      "function": "mint(address,uint256)",
      "arguments": [
        "0xC31f6b8133d618aD2ff1AC5fAA3Fc4B20557B901",
        "10000000000"
      ],
      "transaction": {
        "from": "0xb7d030f7c6406446e703e73b3d1dd8611a2d87b6",
        "to": "0x61ebbc22d4e34f4f4f26f67114a5836854996c9b",
        "gas": "0x131c4",
        "value": "0x0",
        "input": "0x40c10f19000000000000000000000000c31f6b8133d618ad2ff1ac5faa3fc4b20557b90100000000000000000000000000000000000000000000000000000002540be400",
        "nonce": "0x5c",
        "chainId": "0x3b9ac9ff"
      },
      "additionalContracts": [],
      "isFixedGasLimit": false
    },
    {
      "hash": "0xe6972d5f8f33e4a596b92057997caee1f4c5e7f7b1aff25461b1feab3c5885fd",
      "transactionType": "CALL",
      "contractName": null,
      "contractAddress": "0x61ebbc22d4e34f4f4f26f67114a5836854996c9b",
      "function": "mint(address,uint256)",
      "arguments": [
        "0x66E675533020c3CDeE2F33E372320B7e2692211e",
        "10000000000"
      ],
      "transaction": {
        "from": "0xb7d030f7c6406446e703e73b3d1dd8611a2d87b6",
        "to": "0x61ebbc22d4e34f4f4f26f67114a5836854996c9b",
        "gas": "0x131c4",
        "value": "0x0",
        "input": "0x40c10f1900000000000000000000000066e675533020c3cdee2f33e372320b7e2692211e00000000000000000000000000000000000000000000000000000002540be400",
        "nonce": "0x5d",
        "chainId": "0x3b9ac9ff"
      },
      "additionalContracts": [],
      "isFixedGasLimit": false
    },
    {
      "hash": "0x18dfb5788e4a0b0b23a4e4527546a7d551e0d22ccf52b2c33ff9175ca89cfc2e",
      "transactionType": "CALL",
      "contractName": null,
      "contractAddress": "0xe781924639fc91ca1a27076947a49de447dd95af",
      "function": "setAddresses(string[],address[])",
      "arguments": [
        "[\"TOKEN_USDT\", \"TOKEN_USDC\", \"TOKEN_WBTC\"]",
        "[0x647173D64468eA070Ab467b5BC593543AE6B03Ae, 0xCe833A4879E3C790176D7aEcda84bA28C3bED35E, 0x61EbBc22d4E34f4f4f26f67114a5836854996C9B]"
      ],
      "transaction": {
        "from": "0xb7d030f7c6406446e703e73b3d1dd8611a2d87b6",
        "to": "0xe781924639fc91ca1a27076947a49de447dd95af",
        "gas": "0x24f96",
        "value": "0x0",
        "input": "0x7d69a892000000000000000000000000000000000000000000000000000000000000004000000000000000000000000000000000000000000000000000000000000001800000000000000000000000000000000000000000000000000000000000000003000000000000000000000000000000000000000000000000000000000000006000000000000000000000000000000000000000000000000000000000000000a000000000000000000000000000000000000000000000000000000000000000e0000000000000000000000000000000000000000000000000000000000000000a544f4b454e5f5553445400000000000000000000000000000000000000000000000000000000000000000000000000000000000000000000000000000000000a544f4b454e5f5553444300000000000000000000000000000000000000000000000000000000000000000000000000000000000000000000000000000000000a544f4b454e5f57425443000000000000000000000000000000000000000000000000000000000000000000000000000000000000000000000000000000000003000000000000000000000000647173d64468ea070ab467b5bc593543ae6b03ae000000000000000000000000ce833a4879e3c790176d7aecda84ba28c3bed35e00000000000000000000000061ebbc22d4e34f4f4f26f67114a5836854996c9b",
        "nonce": "0x5e",
        "chainId": "0x3b9ac9ff"
      },
      "additionalContracts": [],
      "isFixedGasLimit": false
    }
  ],
  "receipts": [
    {
      "status": "0x1",
      "cumulativeGasUsed": "0xaa051",
      "logs": [
        {
          "address": "0x647173d64468ea070ab467b5bc593543ae6b03ae",
          "topics": [
            "0x8be0079c531659141344cd1fd0a4f28419497f9722a3daafe3b4186f6b6457e0",
            "0x0000000000000000000000000000000000000000000000000000000000000000",
            "0x000000000000000000000000b7d030f7c6406446e703e73b3d1dd8611a2d87b6"
          ],
          "data": "0x",
          "blockHash": "0x8b452af84fd4cd387f1d681e841b3c78351a49c141d05f7eea96e9fe4f364e3b",
          "blockNumber": "0xf1a4b6",
          "transactionHash": "0xa43b6bdc98e1d932dc1ce9ff547201abeac84ce9c968ab407f5cb0c39def80af",
          "transactionIndex": "0x1",
          "logIndex": "0x0",
          "removed": false
        }
      ],
      "logsBloom": "0x00000000000000000000000000000000000000000000000000800000000000000000000000000000000000000000000000000000000000000000000000000200000000000000000000000000000000000001000000400000000000000000000000000000020000000000000000000800000000000000000200000000000002400000000000000000000000000000000000000000000000004000000000000020000000000000000000000000000000000000000000000000000000000000000000000000000000000000000000000000000000000000000000000000000020000000000000000000000000000000000000000000000000000000000000000000",
      "type": "0x2",
      "transactionHash": "0xa43b6bdc98e1d932dc1ce9ff547201abeac84ce9c968ab407f5cb0c39def80af",
      "transactionIndex": "0x1",
      "blockHash": "0x8b452af84fd4cd387f1d681e841b3c78351a49c141d05f7eea96e9fe4f364e3b",
      "blockNumber": "0xf1a4b6",
      "gasUsed": "0x9f51e",
      "effectiveGasPrice": "0xfd",
      "from": "0xb7d030f7c6406446e703e73b3d1dd8611a2d87b6",
      "to": null,
      "contractAddress": "0x647173d64468ea070ab467b5bc593543ae6b03ae",
      "l1BaseFeeScalar": "0x3f4",
      "l1BlobBaseFee": "0x1",
      "l1BlobBaseFeeScalar": "0x941ad",
      "l1Fee": "0x316b22b2e",
      "l1GasPrice": "0x17599af8",
      "l1GasUsed": "0x82b5"
    },
    {
      "status": "0x1",
      "cumulativeGasUsed": "0xbb430",
      "logs": [
        {
          "address": "0x647173d64468ea070ab467b5bc593543ae6b03ae",
          "topics": [
            "0xddf252ad1be2c89b69c2b068fc378daa952ba7f163c4a11628f55a4df523b3ef",
            "0x0000000000000000000000000000000000000000000000000000000000000000",
            "0x000000000000000000000000b7d030f7c6406446e703e73b3d1dd8611a2d87b6"
          ],
          "data": "0x000000000000000000000000000000000000000000000000000000e8d4a51000",
          "blockHash": "0x8b452af84fd4cd387f1d681e841b3c78351a49c141d05f7eea96e9fe4f364e3b",
          "blockNumber": "0xf1a4b6",
          "transactionHash": "0x6b760c22ec642950f5577ae2366550abc43bef57f5bb5ec340292c247741a436",
          "transactionIndex": "0x2",
          "logIndex": "0x1",
          "removed": false
        }
      ],
      "logsBloom": "0x00000000000000000000000000000000000000000000000000000000000000000000000000000000000000000000000000000000000000000000000000000200000000000000000000000008000000000000000000400000000000000000000000000000020000000000000000000800000000000000000200000010000002000000000000000000000000000000000000000000000000004000000000000020000000000000000000000000000000000000000000000000000000000000000000000002000000000000000000000000000000000000000000000000000020000000000000000000000000000000000000000000000000000000000000000000",
      "type": "0x2",
      "transactionHash": "0x6b760c22ec642950f5577ae2366550abc43bef57f5bb5ec340292c247741a436",
      "transactionIndex": "0x2",
      "blockHash": "0x8b452af84fd4cd387f1d681e841b3c78351a49c141d05f7eea96e9fe4f364e3b",
      "blockNumber": "0xf1a4b6",
      "gasUsed": "0x113df",
      "effectiveGasPrice": "0xfd",
      "from": "0xb7d030f7c6406446e703e73b3d1dd8611a2d87b6",
      "to": "0x647173d64468ea070ab467b5bc593543ae6b03ae",
      "contractAddress": null,
      "l1BaseFeeScalar": "0x3f4",
      "l1BlobBaseFee": "0x1",
      "l1BlobBaseFeeScalar": "0x941ad",
      "l1Fee": "0x25cef083",
      "l1GasPrice": "0x17599af8",
      "l1GasUsed": "0x640"
    },
    {
      "status": "0x1",
      "cumulativeGasUsed": "0xc8543",
      "logs": [
        {
          "address": "0x647173d64468ea070ab467b5bc593543ae6b03ae",
          "topics": [
            "0xddf252ad1be2c89b69c2b068fc378daa952ba7f163c4a11628f55a4df523b3ef",
            "0x0000000000000000000000000000000000000000000000000000000000000000",
            "0x0000000000000000000000004f88f1014dd6ca0507780380111c098bee6b87e6"
          ],
          "data": "0x000000000000000000000000000000000000000000000000000000e8d4a51000",
          "blockHash": "0x8b452af84fd4cd387f1d681e841b3c78351a49c141d05f7eea96e9fe4f364e3b",
          "blockNumber": "0xf1a4b6",
          "transactionHash": "0x4763e7ca652bb5515a954f88c77df94d1e345ba44a9a84882225e0b3350a941a",
          "transactionIndex": "0x3",
          "logIndex": "0x2",
          "removed": false
        }
      ],
      "logsBloom": "0x00000000000000000000000002000000000000000000000000000000000000000000000000000000000000000000000000000000000000000000000000000200000000000000000000000008000000000000000000000000000000000000000000000000020000000000000000000800000000000000000000000010000002000000000000000000000000000000000000000000000000004000000000000000000000000000000000000000000000000000000004000000000000000000000000000002000000000000000000000000000000000000000000000000000020000000000000000000000000000000000000000000008000000000000000000000",
      "type": "0x2",
      "transactionHash": "0x4763e7ca652bb5515a954f88c77df94d1e345ba44a9a84882225e0b3350a941a",
      "transactionIndex": "0x3",
      "blockHash": "0x8b452af84fd4cd387f1d681e841b3c78351a49c141d05f7eea96e9fe4f364e3b",
      "blockNumber": "0xf1a4b6",
      "gasUsed": "0xd113",
      "effectiveGasPrice": "0xfd",
      "from": "0xb7d030f7c6406446e703e73b3d1dd8611a2d87b6",
      "to": "0x647173d64468ea070ab467b5bc593543ae6b03ae",
      "contractAddress": null,
      "l1BaseFeeScalar": "0x3f4",
      "l1BlobBaseFee": "0x1",
      "l1BlobBaseFeeScalar": "0x941ad",
      "l1Fee": "0x25cef083",
      "l1GasPrice": "0x17599af8",
      "l1GasUsed": "0x640"
    },
    {
      "status": "0x1",
      "cumulativeGasUsed": "0xd5656",
      "logs": [
        {
          "address": "0x647173d64468ea070ab467b5bc593543ae6b03ae",
          "topics": [
            "0xddf252ad1be2c89b69c2b068fc378daa952ba7f163c4a11628f55a4df523b3ef",
            "0x0000000000000000000000000000000000000000000000000000000000000000",
            "0x000000000000000000000000c31f6b8133d618ad2ff1ac5faa3fc4b20557b901"
          ],
          "data": "0x000000000000000000000000000000000000000000000000000000e8d4a51000",
          "blockHash": "0x8b452af84fd4cd387f1d681e841b3c78351a49c141d05f7eea96e9fe4f364e3b",
          "blockNumber": "0xf1a4b6",
          "transactionHash": "0x7b5e09b19579c707ef7cedb9ca35e2bcd69b3a67124b9a298f849419bf5f1cef",
          "transactionIndex": "0x4",
          "logIndex": "0x3",
          "removed": false
        }
      ],
      "logsBloom": "0x00000000000000000000000000000000000000000000000000000000000000000000000000000000000000000000000000000000000000000000000000000200000000000000000000000008000000000000000000000000000000000000000000000000020000000000000000000800000000000000000000000010400002000000000000000000000000000000000000000002000000004000000000000000000000000000000000000000000000000000000000000000080000000000000000000002000000000000000000000000000000000000000000000000000020000000000000000000000000000000000000000000000000000000000000000000",
      "type": "0x2",
      "transactionHash": "0x7b5e09b19579c707ef7cedb9ca35e2bcd69b3a67124b9a298f849419bf5f1cef",
      "transactionIndex": "0x4",
      "blockHash": "0x8b452af84fd4cd387f1d681e841b3c78351a49c141d05f7eea96e9fe4f364e3b",
      "blockNumber": "0xf1a4b6",
      "gasUsed": "0xd113",
      "effectiveGasPrice": "0xfd",
      "from": "0xb7d030f7c6406446e703e73b3d1dd8611a2d87b6",
      "to": "0x647173d64468ea070ab467b5bc593543ae6b03ae",
      "contractAddress": null,
      "l1BaseFeeScalar": "0x3f4",
      "l1BlobBaseFee": "0x1",
      "l1BlobBaseFeeScalar": "0x941ad",
      "l1Fee": "0x25cef083",
      "l1GasPrice": "0x17599af8",
      "l1GasUsed": "0x640"
    },
    {
      "status": "0x1",
      "cumulativeGasUsed": "0xe2769",
      "logs": [
        {
          "address": "0x647173d64468ea070ab467b5bc593543ae6b03ae",
          "topics": [
            "0xddf252ad1be2c89b69c2b068fc378daa952ba7f163c4a11628f55a4df523b3ef",
            "0x0000000000000000000000000000000000000000000000000000000000000000",
            "0x00000000000000000000000066e675533020c3cdee2f33e372320b7e2692211e"
          ],
          "data": "0x000000000000000000000000000000000000000000000000000000e8d4a51000",
          "blockHash": "0x8b452af84fd4cd387f1d681e841b3c78351a49c141d05f7eea96e9fe4f364e3b",
          "blockNumber": "0xf1a4b6",
          "transactionHash": "0xd58a07042d543f04473155928b6c278b1db794453e38a900aaa824130ba54e94",
          "transactionIndex": "0x5",
          "logIndex": "0x4",
          "removed": false
        }
      ],
      "logsBloom": "0x00000000000000000000000000000000000000000000000000000000001000000000000000000000000000000000000000000000000000000000000000000200000000000000000000000008000008000000000000000000000000000000000000000000020000000000000000000800000000000000000000000010000002000000000000000000000000000000000000000000002000004000000000000000000000000000000000000000000000000000000000000000000000000000000000000002000000000000000000000000000000000000000000000000000020000000000000000000000000000000000000000000000000000000000000000000",
      "type": "0x2",
      "transactionHash": "0xd58a07042d543f04473155928b6c278b1db794453e38a900aaa824130ba54e94",
      "transactionIndex": "0x5",
      "blockHash": "0x8b452af84fd4cd387f1d681e841b3c78351a49c141d05f7eea96e9fe4f364e3b",
      "blockNumber": "0xf1a4b6",
      "gasUsed": "0xd113",
      "effectiveGasPrice": "0xfd",
      "from": "0xb7d030f7c6406446e703e73b3d1dd8611a2d87b6",
      "to": "0x647173d64468ea070ab467b5bc593543ae6b03ae",
      "contractAddress": null,
      "l1BaseFeeScalar": "0x3f4",
      "l1BlobBaseFee": "0x1",
      "l1BlobBaseFeeScalar": "0x941ad",
      "l1Fee": "0x25cef083",
      "l1GasPrice": "0x17599af8",
      "l1GasUsed": "0x640"
    },
    {
      "status": "0x1",
      "cumulativeGasUsed": "0x181c6f",
      "logs": [
        {
          "address": "0xce833a4879e3c790176d7aecda84ba28c3bed35e",
          "topics": [
            "0x8be0079c531659141344cd1fd0a4f28419497f9722a3daafe3b4186f6b6457e0",
            "0x0000000000000000000000000000000000000000000000000000000000000000",
            "0x000000000000000000000000b7d030f7c6406446e703e73b3d1dd8611a2d87b6"
          ],
          "data": "0x",
          "blockHash": "0x8b452af84fd4cd387f1d681e841b3c78351a49c141d05f7eea96e9fe4f364e3b",
          "blockNumber": "0xf1a4b6",
          "transactionHash": "0x117790dcc0d082c497d7bdd0c9ff2524b3a2da8279a19fcd2aab51b26ded4e90",
          "transactionIndex": "0x6",
          "logIndex": "0x5",
          "removed": false
        }
      ],
      "logsBloom": "0x00000000000000000000000000000000000000000000000000800000000000000000000000000000000000000000000000000000000000000000000000000000000000000000000000000000000000000001000000400000000000000000000000000000020000000000000000000800000000000000000200000000000000400000000000000000000000000000000000000000000000000000000000000020000000000000000000000000000000000000000000000000000800000000000000000000000000000000800000000000000000000000000000000000000020000080000000000000000000000000000000000000000000000000000000000000",
      "type": "0x2",
      "transactionHash": "0x117790dcc0d082c497d7bdd0c9ff2524b3a2da8279a19fcd2aab51b26ded4e90",
      "transactionIndex": "0x6",
      "blockHash": "0x8b452af84fd4cd387f1d681e841b3c78351a49c141d05f7eea96e9fe4f364e3b",
      "blockNumber": "0xf1a4b6",
      "gasUsed": "0x9f506",
      "effectiveGasPrice": "0xfd",
      "from": "0xb7d030f7c6406446e703e73b3d1dd8611a2d87b6",
      "to": null,
      "contractAddress": "0xce833a4879e3c790176d7aecda84ba28c3bed35e",
      "l1BaseFeeScalar": "0x3f4",
      "l1BlobBaseFee": "0x1",
      "l1BlobBaseFeeScalar": "0x941ad",
      "l1Fee": "0x316103d71",
      "l1GasPrice": "0x17599af8",
      "l1GasUsed": "0x829a"
    },
    {
      "status": "0x1",
      "cumulativeGasUsed": "0x19304e",
      "logs": [
        {
          "address": "0xce833a4879e3c790176d7aecda84ba28c3bed35e",
          "topics": [
            "0xddf252ad1be2c89b69c2b068fc378daa952ba7f163c4a11628f55a4df523b3ef",
            "0x0000000000000000000000000000000000000000000000000000000000000000",
            "0x000000000000000000000000b7d030f7c6406446e703e73b3d1dd8611a2d87b6"
          ],
          "data": "0x000000000000000000000000000000000000000000000000000000e8d4a51000",
          "blockHash": "0x8b452af84fd4cd387f1d681e841b3c78351a49c141d05f7eea96e9fe4f364e3b",
          "blockNumber": "0xf1a4b6",
          "transactionHash": "0x203d8fcdfc83ec2e43a6cf398d79de7ea12d0efba67cd83f04f1df2b20c1b388",
          "transactionIndex": "0x7",
          "logIndex": "0x6",
          "removed": false
        }
      ],
      "logsBloom": "0x00000000000000000000000000000000000000000000000000000000000000000000000000000000000000000000000000000000000000000000000000000000000000000000000000000008000000000000000000400000000000000000000000000000020000000000000000000800000000000000000200000010000000000000000000000000000000000000000000000000000000000000000000000020000000000000000000000000000000000000000000000000000800000000000000000002000000000000800000000000000000000000000000000000000020000080000000000000000000000000000000000000000000000000000000000000",
      "type": "0x2",
      "transactionHash": "0x203d8fcdfc83ec2e43a6cf398d79de7ea12d0efba67cd83f04f1df2b20c1b388",
      "transactionIndex": "0x7",
      "blockHash": "0x8b452af84fd4cd387f1d681e841b3c78351a49c141d05f7eea96e9fe4f364e3b",
      "blockNumber": "0xf1a4b6",
      "gasUsed": "0x113df",
      "effectiveGasPrice": "0xfd",
      "from": "0xb7d030f7c6406446e703e73b3d1dd8611a2d87b6",
      "to": "0xce833a4879e3c790176d7aecda84ba28c3bed35e",
      "contractAddress": null,
      "l1BaseFeeScalar": "0x3f4",
      "l1BlobBaseFee": "0x1",
      "l1BlobBaseFeeScalar": "0x941ad",
      "l1Fee": "0x25cef083",
      "l1GasPrice": "0x17599af8",
      "l1GasUsed": "0x640"
    },
    {
      "status": "0x1",
      "cumulativeGasUsed": "0x1a0161",
      "logs": [
        {
          "address": "0xce833a4879e3c790176d7aecda84ba28c3bed35e",
          "topics": [
            "0xddf252ad1be2c89b69c2b068fc378daa952ba7f163c4a11628f55a4df523b3ef",
            "0x0000000000000000000000000000000000000000000000000000000000000000",
            "0x0000000000000000000000004f88f1014dd6ca0507780380111c098bee6b87e6"
          ],
          "data": "0x000000000000000000000000000000000000000000000000000000e8d4a51000",
          "blockHash": "0x8b452af84fd4cd387f1d681e841b3c78351a49c141d05f7eea96e9fe4f364e3b",
          "blockNumber": "0xf1a4b6",
          "transactionHash": "0x081928c1af7a54092f6585d7d2f19b6c16ad45515770499525d1856f11f763e7",
          "transactionIndex": "0x8",
          "logIndex": "0x7",
          "removed": false
        }
      ],
      "logsBloom": "0x00000000000000000000000002000000000000000000000000000000000000000000000000000000000000000000000000000000000000000000000000000000000000000000000000000008000000000000000000000000000000000000000000000000020000000000000000000800000000000000000000000010000000000000000000000000000000000000000000000000000000000000000000000000000000000000000000000000000000000000000004000000000800000000000000000002000000000000800000000000000000000000000000000000000020000080000000000000000000000000000000000000008000000000000000000000",
      "type": "0x2",
      "transactionHash": "0x081928c1af7a54092f6585d7d2f19b6c16ad45515770499525d1856f11f763e7",
      "transactionIndex": "0x8",
      "blockHash": "0x8b452af84fd4cd387f1d681e841b3c78351a49c141d05f7eea96e9fe4f364e3b",
      "blockNumber": "0xf1a4b6",
      "gasUsed": "0xd113",
      "effectiveGasPrice": "0xfd",
      "from": "0xb7d030f7c6406446e703e73b3d1dd8611a2d87b6",
      "to": "0xce833a4879e3c790176d7aecda84ba28c3bed35e",
      "contractAddress": null,
      "l1BaseFeeScalar": "0x3f4",
      "l1BlobBaseFee": "0x1",
      "l1BlobBaseFeeScalar": "0x941ad",
      "l1Fee": "0x25cef083",
      "l1GasPrice": "0x17599af8",
      "l1GasUsed": "0x640"
    },
    {
      "status": "0x1",
      "cumulativeGasUsed": "0x1ad274",
      "logs": [
        {
          "address": "0xce833a4879e3c790176d7aecda84ba28c3bed35e",
          "topics": [
            "0xddf252ad1be2c89b69c2b068fc378daa952ba7f163c4a11628f55a4df523b3ef",
            "0x0000000000000000000000000000000000000000000000000000000000000000",
            "0x000000000000000000000000c31f6b8133d618ad2ff1ac5faa3fc4b20557b901"
          ],
          "data": "0x000000000000000000000000000000000000000000000000000000e8d4a51000",
          "blockHash": "0x8b452af84fd4cd387f1d681e841b3c78351a49c141d05f7eea96e9fe4f364e3b",
          "blockNumber": "0xf1a4b6",
          "transactionHash": "0x0c61a816d94760e339b860f073ac7e7ef8fcd287b2f6c9c40fc036a7093cd64d",
          "transactionIndex": "0x9",
          "logIndex": "0x8",
          "removed": false
        }
      ],
      "logsBloom": "0x00000000000000000000000000000000000000000000000000000000000000000000000000000000000000000000000000000000000000000000000000000000000000000000000000000008000000000000000000000000000000000000000000000000020000000000000000000800000000000000000000000010400000000000000000000000000000000000000000000002000000000000000000000000000000000000000000000000000000000000000000000000080800000000000000000002000000000000800000000000000000000000000000000000000020000080000000000000000000000000000000000000000000000000000000000000",
      "type": "0x2",
      "transactionHash": "0x0c61a816d94760e339b860f073ac7e7ef8fcd287b2f6c9c40fc036a7093cd64d",
      "transactionIndex": "0x9",
      "blockHash": "0x8b452af84fd4cd387f1d681e841b3c78351a49c141d05f7eea96e9fe4f364e3b",
      "blockNumber": "0xf1a4b6",
      "gasUsed": "0xd113",
      "effectiveGasPrice": "0xfd",
      "from": "0xb7d030f7c6406446e703e73b3d1dd8611a2d87b6",
      "to": "0xce833a4879e3c790176d7aecda84ba28c3bed35e",
      "contractAddress": null,
      "l1BaseFeeScalar": "0x3f4",
      "l1BlobBaseFee": "0x1",
      "l1BlobBaseFeeScalar": "0x941ad",
      "l1Fee": "0x25cef083",
      "l1GasPrice": "0x17599af8",
      "l1GasUsed": "0x640"
    },
    {
      "status": "0x1",
      "cumulativeGasUsed": "0x1ba387",
      "logs": [
        {
          "address": "0xce833a4879e3c790176d7aecda84ba28c3bed35e",
          "topics": [
            "0xddf252ad1be2c89b69c2b068fc378daa952ba7f163c4a11628f55a4df523b3ef",
            "0x0000000000000000000000000000000000000000000000000000000000000000",
            "0x00000000000000000000000066e675533020c3cdee2f33e372320b7e2692211e"
          ],
          "data": "0x000000000000000000000000000000000000000000000000000000e8d4a51000",
          "blockHash": "0x8b452af84fd4cd387f1d681e841b3c78351a49c141d05f7eea96e9fe4f364e3b",
          "blockNumber": "0xf1a4b6",
          "transactionHash": "0xb3ff873dd040062f0db2a29b18b8641e9c38a0dfd5b7c34013185ec7bd6076e9",
          "transactionIndex": "0xa",
          "logIndex": "0x9",
          "removed": false
        }
      ],
      "logsBloom": "0x00000000000000000000000000000000000000000000000000000000001000000000000000000000000000000000000000000000000000000000000000000000000000000000000000000008000008000000000000000000000000000000000000000000020000000000000000000800000000000000000000000010000000000000000000000000000000000000000000000000002000000000000000000000000000000000000000000000000000000000000000000000000800000000000000000002000000000000800000000000000000000000000000000000000020000080000000000000000000000000000000000000000000000000000000000000",
      "type": "0x2",
      "transactionHash": "0xb3ff873dd040062f0db2a29b18b8641e9c38a0dfd5b7c34013185ec7bd6076e9",
      "transactionIndex": "0xa",
      "blockHash": "0x8b452af84fd4cd387f1d681e841b3c78351a49c141d05f7eea96e9fe4f364e3b",
      "blockNumber": "0xf1a4b6",
      "gasUsed": "0xd113",
      "effectiveGasPrice": "0xfd",
      "from": "0xb7d030f7c6406446e703e73b3d1dd8611a2d87b6",
      "to": "0xce833a4879e3c790176d7aecda84ba28c3bed35e",
      "contractAddress": null,
      "l1BaseFeeScalar": "0x3f4",
      "l1BlobBaseFee": "0x1",
      "l1BlobBaseFeeScalar": "0x941ad",
      "l1Fee": "0x25cef083",
      "l1GasPrice": "0x17599af8",
      "l1GasUsed": "0x640"
    },
    {
      "status": "0x1",
      "cumulativeGasUsed": "0x2598b1",
      "logs": [
        {
          "address": "0x61ebbc22d4e34f4f4f26f67114a5836854996c9b",
          "topics": [
            "0x8be0079c531659141344cd1fd0a4f28419497f9722a3daafe3b4186f6b6457e0",
            "0x0000000000000000000000000000000000000000000000000000000000000000",
            "0x000000000000000000000000b7d030f7c6406446e703e73b3d1dd8611a2d87b6"
          ],
          "data": "0x",
          "blockHash": "0x8b452af84fd4cd387f1d681e841b3c78351a49c141d05f7eea96e9fe4f364e3b",
          "blockNumber": "0xf1a4b6",
          "transactionHash": "0x7cd646c65c64219369feaedf7d531e44c4de2d7e36aac860bf02e6679b0f58d8",
          "transactionIndex": "0xb",
          "logIndex": "0xa",
          "removed": false
        }
      ],
      "logsBloom": "0x00000000000000000000000000000000000000000000100000800000000000000000000000000000000000000000000000000000000000000000000000000000000000000000000000000000000000000001000000400000000000000000000000000000020000000000000000000800000000000000000200000000000000400000000000000000000000000000000000000000000000000000000000000020000000000000000000000000000000000000000000000000000000400000000000000000000000000000000000000000000000000000000000000000000020000000000000000000000000000000000000000000800000000000000000000000",
      "type": "0x2",
      "transactionHash": "0x7cd646c65c64219369feaedf7d531e44c4de2d7e36aac860bf02e6679b0f58d8",
      "transactionIndex": "0xb",
      "blockHash": "0x8b452af84fd4cd387f1d681e841b3c78351a49c141d05f7eea96e9fe4f364e3b",
      "blockNumber": "0xf1a4b6",
      "gasUsed": "0x9f52a",
      "effectiveGasPrice": "0xfd",
      "from": "0xb7d030f7c6406446e703e73b3d1dd8611a2d87b6",
      "to": null,
      "contractAddress": "0x61ebbc22d4e34f4f4f26f67114a5836854996c9b",
      "l1BaseFeeScalar": "0x3f4",
      "l1BlobBaseFee": "0x1",
      "l1BlobBaseFeeScalar": "0x941ad",
      "l1Fee": "0x316103d71",
      "l1GasPrice": "0x17599af8",
      "l1GasUsed": "0x829a"
    },
    {
      "status": "0x1",
      "cumulativeGasUsed": "0x26ac90",
      "logs": [
        {
          "address": "0x61ebbc22d4e34f4f4f26f67114a5836854996c9b",
          "topics": [
            "0xddf252ad1be2c89b69c2b068fc378daa952ba7f163c4a11628f55a4df523b3ef",
            "0x0000000000000000000000000000000000000000000000000000000000000000",
            "0x000000000000000000000000b7d030f7c6406446e703e73b3d1dd8611a2d87b6"
          ],
          "data": "0x00000000000000000000000000000000000000000000000000000002540be400",
          "blockHash": "0x8b452af84fd4cd387f1d681e841b3c78351a49c141d05f7eea96e9fe4f364e3b",
          "blockNumber": "0xf1a4b6",
          "transactionHash": "0x27201b99a88a918c62593e75d74bafc436b3058f74cb0f5671d8f20b542f8cb4",
          "transactionIndex": "0xc",
          "logIndex": "0xb",
          "removed": false
        }
      ],
      "logsBloom": "0x00000000000000000000000000000000000000000000100000000000000000000000000000000000000000000000000000000000000000000000000000000000000000000000000000000008000000000000000000400000000000000000000000000000020000000000000000000800000000000000000200000010000000000000000000000000000000000000000000000000000000000000000000000020000000000000000000000000000000000000000000000000000000400000000000000002000000000000000000000000000000000000000000000000000020000000000000000000000000000000000000000000800000000000000000000000",
      "type": "0x2",
      "transactionHash": "0x27201b99a88a918c62593e75d74bafc436b3058f74cb0f5671d8f20b542f8cb4",
      "transactionIndex": "0xc",
      "blockHash": "0x8b452af84fd4cd387f1d681e841b3c78351a49c141d05f7eea96e9fe4f364e3b",
      "blockNumber": "0xf1a4b6",
      "gasUsed": "0x113df",
      "effectiveGasPrice": "0xfd",
      "from": "0xb7d030f7c6406446e703e73b3d1dd8611a2d87b6",
      "to": "0x61ebbc22d4e34f4f4f26f67114a5836854996c9b",
      "contractAddress": null,
      "l1BaseFeeScalar": "0x3f4",
      "l1BlobBaseFee": "0x1",
      "l1BlobBaseFeeScalar": "0x941ad",
      "l1Fee": "0x25cef083",
      "l1GasPrice": "0x17599af8",
      "l1GasUsed": "0x640"
    },
    {
      "status": "0x1",
      "cumulativeGasUsed": "0x277da3",
      "logs": [
        {
          "address": "0x61ebbc22d4e34f4f4f26f67114a5836854996c9b",
          "topics": [
            "0xddf252ad1be2c89b69c2b068fc378daa952ba7f163c4a11628f55a4df523b3ef",
            "0x0000000000000000000000000000000000000000000000000000000000000000",
            "0x0000000000000000000000004f88f1014dd6ca0507780380111c098bee6b87e6"
          ],
          "data": "0x00000000000000000000000000000000000000000000000000000002540be400",
          "blockHash": "0x8b452af84fd4cd387f1d681e841b3c78351a49c141d05f7eea96e9fe4f364e3b",
          "blockNumber": "0xf1a4b6",
          "transactionHash": "0xfff7b76b155a81f02666dee228e88ae9f7cfeeff90d4f44598fb023119780f08",
          "transactionIndex": "0xd",
          "logIndex": "0xc",
          "removed": false
        }
      ],
      "logsBloom": "0x00000000000000000000000002000000000000000000100000000000000000000000000000000000000000000000000000000000000000000000000000000000000000000000000000000008000000000000000000000000000000000000000000000000020000000000000000000800000000000000000000000010000000000000000000000000000000000000000000000000000000000000000000000000000000000000000000000000000000000000000004000000000000400000000000000002000000000000000000000000000000000000000000000000000020000000000000000000000000000000000000000000808000000000000000000000",
      "type": "0x2",
      "transactionHash": "0xfff7b76b155a81f02666dee228e88ae9f7cfeeff90d4f44598fb023119780f08",
      "transactionIndex": "0xd",
      "blockHash": "0x8b452af84fd4cd387f1d681e841b3c78351a49c141d05f7eea96e9fe4f364e3b",
      "blockNumber": "0xf1a4b6",
      "gasUsed": "0xd113",
      "effectiveGasPrice": "0xfd",
      "from": "0xb7d030f7c6406446e703e73b3d1dd8611a2d87b6",
      "to": "0x61ebbc22d4e34f4f4f26f67114a5836854996c9b",
      "contractAddress": null,
      "l1BaseFeeScalar": "0x3f4",
      "l1BlobBaseFee": "0x1",
      "l1BlobBaseFeeScalar": "0x941ad",
      "l1Fee": "0x25cef083",
      "l1GasPrice": "0x17599af8",
      "l1GasUsed": "0x640"
    },
    {
      "status": "0x1",
      "cumulativeGasUsed": "0x284eb6",
      "logs": [
        {
          "address": "0x61ebbc22d4e34f4f4f26f67114a5836854996c9b",
          "topics": [
            "0xddf252ad1be2c89b69c2b068fc378daa952ba7f163c4a11628f55a4df523b3ef",
            "0x0000000000000000000000000000000000000000000000000000000000000000",
            "0x000000000000000000000000c31f6b8133d618ad2ff1ac5faa3fc4b20557b901"
          ],
          "data": "0x00000000000000000000000000000000000000000000000000000002540be400",
          "blockHash": "0x8b452af84fd4cd387f1d681e841b3c78351a49c141d05f7eea96e9fe4f364e3b",
          "blockNumber": "0xf1a4b6",
          "transactionHash": "0x76a01177705351ad2fe91ec4b7f1f24ffa3803f06a756b825449268dc1bd86d1",
          "transactionIndex": "0xe",
          "logIndex": "0xd",
          "removed": false
        }
      ],
      "logsBloom": "0x00000000000000000000000000000000000000000000100000000000000000000000000000000000000000000000000000000000000000000000000000000000000000000000000000000008000000000000000000000000000000000000000000000000020000000000000000000800000000000000000000000010400000000000000000000000000000000000000000000002000000000000000000000000000000000000000000000000000000000000000000000000080000400000000000000002000000000000000000000000000000000000000000000000000020000000000000000000000000000000000000000000800000000000000000000000",
      "type": "0x2",
      "transactionHash": "0x76a01177705351ad2fe91ec4b7f1f24ffa3803f06a756b825449268dc1bd86d1",
      "transactionIndex": "0xe",
      "blockHash": "0x8b452af84fd4cd387f1d681e841b3c78351a49c141d05f7eea96e9fe4f364e3b",
      "blockNumber": "0xf1a4b6",
      "gasUsed": "0xd113",
      "effectiveGasPrice": "0xfd",
      "from": "0xb7d030f7c6406446e703e73b3d1dd8611a2d87b6",
      "to": "0x61ebbc22d4e34f4f4f26f67114a5836854996c9b",
      "contractAddress": null,
      "l1BaseFeeScalar": "0x3f4",
      "l1BlobBaseFee": "0x1",
      "l1BlobBaseFeeScalar": "0x941ad",
      "l1Fee": "0x25cef083",
      "l1GasPrice": "0x17599af8",
      "l1GasUsed": "0x640"
    },
    {
      "status": "0x1",
      "cumulativeGasUsed": "0x291fc9",
      "logs": [
        {
          "address": "0x61ebbc22d4e34f4f4f26f67114a5836854996c9b",
          "topics": [
            "0xddf252ad1be2c89b69c2b068fc378daa952ba7f163c4a11628f55a4df523b3ef",
            "0x0000000000000000000000000000000000000000000000000000000000000000",
            "0x00000000000000000000000066e675533020c3cdee2f33e372320b7e2692211e"
          ],
          "data": "0x00000000000000000000000000000000000000000000000000000002540be400",
          "blockHash": "0x8b452af84fd4cd387f1d681e841b3c78351a49c141d05f7eea96e9fe4f364e3b",
          "blockNumber": "0xf1a4b6",
          "transactionHash": "0xe6972d5f8f33e4a596b92057997caee1f4c5e7f7b1aff25461b1feab3c5885fd",
          "transactionIndex": "0xf",
          "logIndex": "0xe",
          "removed": false
        }
      ],
      "logsBloom": "0x00000000000000000000000000000000000000000000100000000000001000000000000000000000000000000000000000000000000000000000000000000000000000000000000000000008000008000000000000000000000000000000000000000000020000000000000000000800000000000000000000000010000000000000000000000000000000000000000000000000002000000000000000000000000000000000000000000000000000000000000000000000000000400000000000000002000000000000000000000000000000000000000000000000000020000000000000000000000000000000000000000000800000000000000000000000",
      "type": "0x2",
      "transactionHash": "0xe6972d5f8f33e4a596b92057997caee1f4c5e7f7b1aff25461b1feab3c5885fd",
      "transactionIndex": "0xf",
      "blockHash": "0x8b452af84fd4cd387f1d681e841b3c78351a49c141d05f7eea96e9fe4f364e3b",
      "blockNumber": "0xf1a4b6",
      "gasUsed": "0xd113",
      "effectiveGasPrice": "0xfd",
      "from": "0xb7d030f7c6406446e703e73b3d1dd8611a2d87b6",
      "to": "0x61ebbc22d4e34f4f4f26f67114a5836854996c9b",
      "contractAddress": null,
      "l1BaseFeeScalar": "0x3f4",
      "l1BlobBaseFee": "0x1",
      "l1BlobBaseFeeScalar": "0x941ad",
      "l1Fee": "0x25cef083",
      "l1GasPrice": "0x17599af8",
      "l1GasUsed": "0x640"
    },
    {
      "status": "0x1",
      "cumulativeGasUsed": "0x2606c",
      "logs": [
        {
          "address": "0xe781924639fc91ca1a27076947a49de447dd95af",
          "topics": [
            "0xb0377b4035c2bd5b6aeb3eb7f139162c730ea47b957e4354f8a81ebb99573dec"
          ],
          "data": "0x0000000000000000000000000000000000000000000000000000000000000040000000000000000000000000647173d64468ea070ab467b5bc593543ae6b03ae000000000000000000000000000000000000000000000000000000000000000a544f4b454e5f5553445400000000000000000000000000000000000000000000",
          "blockHash": "0xf06d13c9a6105ee4e492adc8e58f1ba75e9248793ea216ddf5c8e512331539dd",
          "blockNumber": "0xf1a4b7",
          "transactionHash": "0x18dfb5788e4a0b0b23a4e4527546a7d551e0d22ccf52b2c33ff9175ca89cfc2e",
          "transactionIndex": "0x1",
          "logIndex": "0x0",
          "removed": false
        },
        {
          "address": "0xe781924639fc91ca1a27076947a49de447dd95af",
          "topics": [
            "0xb0377b4035c2bd5b6aeb3eb7f139162c730ea47b957e4354f8a81ebb99573dec"
          ],
          "data": "0x0000000000000000000000000000000000000000000000000000000000000040000000000000000000000000ce833a4879e3c790176d7aecda84ba28c3bed35e000000000000000000000000000000000000000000000000000000000000000a544f4b454e5f5553444300000000000000000000000000000000000000000000",
          "blockHash": "0xf06d13c9a6105ee4e492adc8e58f1ba75e9248793ea216ddf5c8e512331539dd",
          "blockNumber": "0xf1a4b7",
          "transactionHash": "0x18dfb5788e4a0b0b23a4e4527546a7d551e0d22ccf52b2c33ff9175ca89cfc2e",
          "transactionIndex": "0x1",
          "logIndex": "0x1",
          "removed": false
        },
        {
          "address": "0xe781924639fc91ca1a27076947a49de447dd95af",
          "topics": [
            "0xb0377b4035c2bd5b6aeb3eb7f139162c730ea47b957e4354f8a81ebb99573dec"
          ],
          "data": "0x000000000000000000000000000000000000000000000000000000000000004000000000000000000000000061ebbc22d4e34f4f4f26f67114a5836854996c9b000000000000000000000000000000000000000000000000000000000000000a544f4b454e5f5742544300000000000000000000000000000000000000000000",
          "blockHash": "0xf06d13c9a6105ee4e492adc8e58f1ba75e9248793ea216ddf5c8e512331539dd",
          "blockNumber": "0xf1a4b7",
          "transactionHash": "0x18dfb5788e4a0b0b23a4e4527546a7d551e0d22ccf52b2c33ff9175ca89cfc2e",
          "transactionIndex": "0x1",
          "logIndex": "0x2",
          "removed": false
        }
      ],
      "logsBloom": "0x00000000000000004000000000000000000000000000000000000000000000000000000000000000000800000000000000000000000000000000000000000000000000000000000000000000000000000000000000000000000000000000000000000000000000000000000000000000000000000000000000000008000000000000000000000000000000000000000000000000000000000000000000000000000000000000000000000000000000000000000000000000000000000000080000000000000000000000000000000000004000000000000000000000000000000000000000000000000000000000000000000400000000000000000000000000",
      "type": "0x2",
      "transactionHash": "0x18dfb5788e4a0b0b23a4e4527546a7d551e0d22ccf52b2c33ff9175ca89cfc2e",
      "transactionIndex": "0x1",
      "blockHash": "0xf06d13c9a6105ee4e492adc8e58f1ba75e9248793ea216ddf5c8e512331539dd",
      "blockNumber": "0xf1a4b7",
      "gasUsed": "0x19481",
      "effectiveGasPrice": "0xfd",
      "from": "0xb7d030f7c6406446e703e73b3d1dd8611a2d87b6",
      "to": "0xe781924639fc91ca1a27076947a49de447dd95af",
      "contractAddress": null,
      "l1BaseFeeScalar": "0x3f4",
      "l1BlobBaseFee": "0x1",
      "l1BlobBaseFeeScalar": "0x941ad",
      "l1Fee": "0x44c56923",
      "l1GasPrice": "0x16a85efd",
      "l1GasUsed": "0xbb7"
    }
  ],
  "libraries": [],
  "pending": [],
  "returns": {},
  "timestamp": 1729752760,
  "chain": 999999999,
  "commit": "7f9b915"
}