{
  "transactions": [
    {
      "hash": "0xe4d6b71dfe1b1d12e9aa61fed6800b6b8de1649646fe225126b2fe716b7aced2",
      "transactionType": "CREATE",
      "contractName": null,
      "contractAddress": "0x7b557f0992eca62ce4b00a96c9400f69cdbbed55",
      "function": null,
      "arguments": null,
      "transaction": {
        "from": "0xb7d030f7c6406446e703e73b3d1dd8611a2d87b6",
        "gas": "0xcf1da",
        "value": "0x0",
        "input": "0x608060405234801562000010575f80fd5b5060405162000cd938038062000cd98339810160408190526200003391620001a8565b8282826003620000448382620002b8565b506004620000538282620002b8565b5050506001600160a01b0381166200008457604051631e4fbdf760e01b81525f600482015260240160405180910390fd5b6200008f8162000099565b5050505062000380565b600580546001600160a01b038381166001600160a01b0319831681179093556040519116919082907f8be0079c531659141344cd1fd0a4f28419497f9722a3daafe3b4186f6b6457e0905f90a35050565b634e487b7160e01b5f52604160045260245ffd5b5f82601f8301126200010e575f80fd5b81516001600160401b03808211156200012b576200012b620000ea565b604051601f8301601f19908116603f01168101908282118183101715620001565762000156620000ea565b8160405283815260209250868385880101111562000172575f80fd5b5f91505b8382101562000195578582018301518183018401529082019062000176565b5f93810190920192909252949350505050565b5f805f60608486031215620001bb575f80fd5b83516001600160a01b0381168114620001d2575f80fd5b60208501519093506001600160401b0380821115620001ef575f80fd5b620001fd87838801620000fe565b9350604086015191508082111562000213575f80fd5b506200022286828701620000fe565b9150509250925092565b600181811c908216806200024157607f821691505b6020821081036200026057634e487b7160e01b5f52602260045260245ffd5b50919050565b601f821115620002b3575f81815260208120601f850160051c810160208610156200028e5750805b601f850160051c820191505b81811015620002af578281556001016200029a565b5050505b505050565b81516001600160401b03811115620002d457620002d4620000ea565b620002ec81620002e584546200022c565b8462000266565b602080601f83116001811462000322575f84156200030a5750858301515b5f19600386901b1c1916600185901b178555620002af565b5f85815260208120601f198616915b82811015620003525788860151825594840194600190910190840162000331565b50858210156200037057878501515f19600388901b60f8161c191681555b5050505050600190811b01905550565b61094b806200038e5f395ff3fe608060405234801561000f575f80fd5b50600436106100f0575f3560e01c806370a082311161009357806395d89b411161006357806395d89b41146101ef578063a9059cbb146101f7578063dd62ed3e1461020a578063f2fde38b14610242575f80fd5b806370a0823114610191578063715018a6146101b957806379cc6790146101c15780638da5cb5b146101d4575f80fd5b806323b872dd116100ce57806323b872dd14610147578063313ce5671461015a57806340c10f191461016957806342966c681461017e575f80fd5b806306fdde03146100f4578063095ea7b31461011257806318160ddd14610135575b5f80fd5b6100fc610255565b604051610109919061078f565b60405180910390f35b6101256101203660046107f5565b6102e5565b6040519015158152602001610109565b6002545b604051908152602001610109565b61012561015536600461081d565b6102fe565b60405160128152602001610109565b61017c6101773660046107f5565b610321565b005b61017c61018c366004610856565b610337565b61013961019f36600461086d565b6001600160a01b03165f9081526020819052604090205490565b61017c610344565b61017c6101cf3660046107f5565b610357565b6005546040516001600160a01b039091168152602001610109565b6100fc61036c565b6101256102053660046107f5565b61037b565b61013961021836600461088d565b6001600160a01b039182165f90815260016020908152604080832093909416825291909152205490565b61017c61025036600461086d565b610388565b606060038054610264906108be565b80601f0160208091040260200160405190810160405280929190818152602001828054610290906108be565b80156102db5780601f106102b2576101008083540402835291602001916102db565b820191905f5260205f20905b8154815290600101906020018083116102be57829003601f168201915b5050505050905090565b5f336102f28185856103c7565b60019150505b92915050565b5f3361030b8582856103d9565b610316858585610454565b506001949350505050565b6103296104b1565b61033382826104de565b5050565b6103413382610512565b50565b61034c6104b1565b6103555f610546565b565b6103628233836103d9565b6103338282610512565b606060048054610264906108be565b5f336102f2818585610454565b6103906104b1565b6001600160a01b0381166103be57604051631e4fbdf760e01b81525f60048201526024015b60405180910390fd5b61034181610546565b6103d48383836001610597565b505050565b6001600160a01b038381165f908152600160209081526040808320938616835292905220545f19811461044e578181101561044057604051637dc7a0d960e11b81526001600160a01b038416600482015260248101829052604481018390526064016103b5565b61044e84848484035f610597565b50505050565b6001600160a01b03831661047d57604051634b637e8f60e11b81525f60048201526024016103b5565b6001600160a01b0382166104a65760405163ec442f0560e01b81525f60048201526024016103b5565b6103d4838383610669565b6005546001600160a01b031633146103555760405163118cdaa760e01b81523360048201526024016103b5565b6001600160a01b0382166105075760405163ec442f0560e01b81525f60048201526024016103b5565b6103335f8383610669565b6001600160a01b03821661053b57604051634b637e8f60e11b81525f60048201526024016103b5565b610333825f83610669565b600580546001600160a01b038381166001600160a01b0319831681179093556040519116919082907f8be0079c531659141344cd1fd0a4f28419497f9722a3daafe3b4186f6b6457e0905f90a35050565b6001600160a01b0384166105c05760405163e602df0560e01b81525f60048201526024016103b5565b6001600160a01b0383166105e957604051634a1406b160e11b81525f60048201526024016103b5565b6001600160a01b038085165f908152600160209081526040808320938716835292905220829055801561044e57826001600160a01b0316846001600160a01b03167f8c5be1e5ebec7d5bd14f71427d1e84f3dd0314c0f7b2291e5b200ac8c7c3b9258460405161065b91815260200190565b60405180910390a350505050565b6001600160a01b038316610693578060025f82825461068891906108f6565b909155506107039050565b6001600160a01b0383165f90815260208190526040902054818110156106e55760405163391434e360e21b81526001600160a01b038516600482015260248101829052604481018390526064016103b5565b6001600160a01b0384165f9081526020819052604090209082900390555b6001600160a01b03821661071f5760028054829003905561073d565b6001600160a01b0382165f9081526020819052604090208054820190555b816001600160a01b0316836001600160a01b03167fddf252ad1be2c89b69c2b068fc378daa952ba7f163c4a11628f55a4df523b3ef8360405161078291815260200190565b60405180910390a3505050565b5f6020808352835180828501525f5b818110156107ba5785810183015185820160400152820161079e565b505f604082860101526040601f19601f8301168501019250505092915050565b80356001600160a01b03811681146107f0575f80fd5b919050565b5f8060408385031215610806575f80fd5b61080f836107da565b946020939093013593505050565b5f805f6060848603121561082f575f80fd5b610838846107da565b9250610846602085016107da565b9150604084013590509250925092565b5f60208284031215610866575f80fd5b5035919050565b5f6020828403121561087d575f80fd5b610886826107da565b9392505050565b5f806040838503121561089e575f80fd5b6108a7836107da565b91506108b5602084016107da565b90509250929050565b600181811c908216806108d257607f821691505b6020821081036108f057634e487b7160e01b5f52602260045260245ffd5b50919050565b808201808211156102f857634e487b7160e01b5f52601160045260245ffdfea2646970667358221220d4345b66bfb7412d2ea509531419dca8158f537841ee0d9aa80e3d80c30a67d364736f6c63430008140033000000000000000000000000b7d030f7c6406446e703e73b3d1dd8611a2d87b6000000000000000000000000000000000000000000000000000000000000006000000000000000000000000000000000000000000000000000000000000000a0000000000000000000000000000000000000000000000000000000000000000a546574686572205553440000000000000000000000000000000000000000000000000000000000000000000000000000000000000000000000000000000000045553445400000000000000000000000000000000000000000000000000000000",
        "nonce": "0x5f",
        "chainId": "0x3b9ac9ff"
      },
      "additionalContracts": [],
      "isFixedGasLimit": false
    },
    {
      "hash": "0x8eb1bd3172f646b52aecd4099f624b6bfe55d89f91ac1ac6aae23d66ad19e838",
      "transactionType": "CALL",
      "contractName": null,
      "contractAddress": "0x7b557f0992eca62ce4b00a96c9400f69cdbbed55",
      "function": "mint(address,uint256)",
      "arguments": [
        "0xB7d030F7c6406446e703E73B3d1dd8611A2D87b6",
        "1000000000000"
      ],
      "transaction": {
        "from": "0xb7d030f7c6406446e703e73b3d1dd8611a2d87b6",
        "to": "0x7b557f0992eca62ce4b00a96c9400f69cdbbed55",
        "gas": "0x17d0a",
        "value": "0x0",
        "input": "0x40c10f19000000000000000000000000b7d030f7c6406446e703e73b3d1dd8611a2d87b6000000000000000000000000000000000000000000000000000000e8d4a51000",
        "nonce": "0x60",
        "chainId": "0x3b9ac9ff"
      },
      "additionalContracts": [],
      "isFixedGasLimit": false
    },
    {
      "hash": "0x9b32e8d7ecaad7388a79a104c2801cfa569424792f57000d8a259de68872f5aa",
      "transactionType": "CALL",
      "contractName": null,
      "contractAddress": "0x7b557f0992eca62ce4b00a96c9400f69cdbbed55",
      "function": "mint(address,uint256)",
      "arguments": [
        "0x4F88F1014Dd6Ca0507780380111c098BeE6b87e6",
        "1000000000000"
      ],
      "transaction": {
        "from": "0xb7d030f7c6406446e703e73b3d1dd8611a2d87b6",
        "to": "0x7b557f0992eca62ce4b00a96c9400f69cdbbed55",
        "gas": "0x131c4",
        "value": "0x0",
        "input": "0x40c10f190000000000000000000000004f88f1014dd6ca0507780380111c098bee6b87e6000000000000000000000000000000000000000000000000000000e8d4a51000",
        "nonce": "0x61",
        "chainId": "0x3b9ac9ff"
      },
      "additionalContracts": [],
      "isFixedGasLimit": false
    },
    {
      "hash": "0xab52016a3f28ff42355ad13b2f8109d30e4ff32ec55c49520c9d996acb963f97",
      "transactionType": "CALL",
      "contractName": null,
      "contractAddress": "0x7b557f0992eca62ce4b00a96c9400f69cdbbed55",
      "function": "mint(address,uint256)",
      "arguments": [
        "0xC31f6b8133d618aD2ff1AC5fAA3Fc4B20557B901",
        "1000000000000"
      ],
      "transaction": {
        "from": "0xb7d030f7c6406446e703e73b3d1dd8611a2d87b6",
        "to": "0x7b557f0992eca62ce4b00a96c9400f69cdbbed55",
        "gas": "0x131c4",
        "value": "0x0",
        "input": "0x40c10f19000000000000000000000000c31f6b8133d618ad2ff1ac5faa3fc4b20557b901000000000000000000000000000000000000000000000000000000e8d4a51000",
        "nonce": "0x62",
        "chainId": "0x3b9ac9ff"
      },
      "additionalContracts": [],
      "isFixedGasLimit": false
    },
    {
      "hash": "0x202c88617ddaedfa5a5d5e672b235b30dd672886ab2b9d089d2adc7f99ec722f",
      "transactionType": "CALL",
      "contractName": null,
      "contractAddress": "0x7b557f0992eca62ce4b00a96c9400f69cdbbed55",
      "function": "mint(address,uint256)",
      "arguments": [
        "0x66E675533020c3CDeE2F33E372320B7e2692211e",
        "1000000000000"
      ],
      "transaction": {
        "from": "0xb7d030f7c6406446e703e73b3d1dd8611a2d87b6",
        "to": "0x7b557f0992eca62ce4b00a96c9400f69cdbbed55",
        "gas": "0x131c4",
        "value": "0x0",
        "input": "0x40c10f1900000000000000000000000066e675533020c3cdee2f33e372320b7e2692211e000000000000000000000000000000000000000000000000000000e8d4a51000",
        "nonce": "0x63",
        "chainId": "0x3b9ac9ff"
      },
      "additionalContracts": [],
      "isFixedGasLimit": false
    },
    {
      "hash": "0xe0522a2808763bd00bc63536d37982e2610be245dd3bfe411ed989fd2de7c351",
      "transactionType": "CALL",
      "contractName": null,
      "contractAddress": "0x7b557f0992eca62ce4b00a96c9400f69cdbbed55",
      "function": "mint(address,uint256)",
      "arguments": [
        "0x8c4Eb6988A199DAbcae0Ce31052b3f3aC591787e",
        "1000000000000"
      ],
      "transaction": {
        "from": "0xb7d030f7c6406446e703e73b3d1dd8611a2d87b6",
        "to": "0x7b557f0992eca62ce4b00a96c9400f69cdbbed55",
        "gas": "0x131c4",
        "value": "0x0",
        "input": "0x40c10f190000000000000000000000008c4eb6988a199dabcae0ce31052b3f3ac591787e000000000000000000000000000000000000000000000000000000e8d4a51000",
        "nonce": "0x64",
        "chainId": "0x3b9ac9ff"
      },
      "additionalContracts": [],
      "isFixedGasLimit": false
    },
    {
      "hash": "0xd2a5aeffd4937f9a297ea25e3510e4556b405ebeb2803e727144e2cd01f636b2",
      "transactionType": "CREATE",
      "contractName": null,
      "contractAddress": "0x8431483c91c856dce2d8e07ad5b1b587ad5df44d",
      "function": null,
      "arguments": null,
      "transaction": {
        "from": "0xb7d030f7c6406446e703e73b3d1dd8611a2d87b6",
        "gas": "0xcf1bb",
        "value": "0x0",
        "input": "0x608060405234801562000010575f80fd5b5060405162000cd938038062000cd98339810160408190526200003391620001a8565b8282826003620000448382620002b8565b506004620000538282620002b8565b5050506001600160a01b0381166200008457604051631e4fbdf760e01b81525f600482015260240160405180910390fd5b6200008f8162000099565b5050505062000380565b600580546001600160a01b038381166001600160a01b0319831681179093556040519116919082907f8be0079c531659141344cd1fd0a4f28419497f9722a3daafe3b4186f6b6457e0905f90a35050565b634e487b7160e01b5f52604160045260245ffd5b5f82601f8301126200010e575f80fd5b81516001600160401b03808211156200012b576200012b620000ea565b604051601f8301601f19908116603f01168101908282118183101715620001565762000156620000ea565b8160405283815260209250868385880101111562000172575f80fd5b5f91505b8382101562000195578582018301518183018401529082019062000176565b5f93810190920192909252949350505050565b5f805f60608486031215620001bb575f80fd5b83516001600160a01b0381168114620001d2575f80fd5b60208501519093506001600160401b0380821115620001ef575f80fd5b620001fd87838801620000fe565b9350604086015191508082111562000213575f80fd5b506200022286828701620000fe565b9150509250925092565b600181811c908216806200024157607f821691505b6020821081036200026057634e487b7160e01b5f52602260045260245ffd5b50919050565b601f821115620002b3575f81815260208120601f850160051c810160208610156200028e5750805b601f850160051c820191505b81811015620002af578281556001016200029a565b5050505b505050565b81516001600160401b03811115620002d457620002d4620000ea565b620002ec81620002e584546200022c565b8462000266565b602080601f83116001811462000322575f84156200030a5750858301515b5f19600386901b1c1916600185901b178555620002af565b5f85815260208120601f198616915b82811015620003525788860151825594840194600190910190840162000331565b50858210156200037057878501515f19600388901b60f8161c191681555b5050505050600190811b01905550565b61094b806200038e5f395ff3fe608060405234801561000f575f80fd5b50600436106100f0575f3560e01c806370a082311161009357806395d89b411161006357806395d89b41146101ef578063a9059cbb146101f7578063dd62ed3e1461020a578063f2fde38b14610242575f80fd5b806370a0823114610191578063715018a6146101b957806379cc6790146101c15780638da5cb5b146101d4575f80fd5b806323b872dd116100ce57806323b872dd14610147578063313ce5671461015a57806340c10f191461016957806342966c681461017e575f80fd5b806306fdde03146100f4578063095ea7b31461011257806318160ddd14610135575b5f80fd5b6100fc610255565b604051610109919061078f565b60405180910390f35b6101256101203660046107f5565b6102e5565b6040519015158152602001610109565b6002545b604051908152602001610109565b61012561015536600461081d565b6102fe565b60405160128152602001610109565b61017c6101773660046107f5565b610321565b005b61017c61018c366004610856565b610337565b61013961019f36600461086d565b6001600160a01b03165f9081526020819052604090205490565b61017c610344565b61017c6101cf3660046107f5565b610357565b6005546040516001600160a01b039091168152602001610109565b6100fc61036c565b6101256102053660046107f5565b61037b565b61013961021836600461088d565b6001600160a01b039182165f90815260016020908152604080832093909416825291909152205490565b61017c61025036600461086d565b610388565b606060038054610264906108be565b80601f0160208091040260200160405190810160405280929190818152602001828054610290906108be565b80156102db5780601f106102b2576101008083540402835291602001916102db565b820191905f5260205f20905b8154815290600101906020018083116102be57829003601f168201915b5050505050905090565b5f336102f28185856103c7565b60019150505b92915050565b5f3361030b8582856103d9565b610316858585610454565b506001949350505050565b6103296104b1565b61033382826104de565b5050565b6103413382610512565b50565b61034c6104b1565b6103555f610546565b565b6103628233836103d9565b6103338282610512565b606060048054610264906108be565b5f336102f2818585610454565b6103906104b1565b6001600160a01b0381166103be57604051631e4fbdf760e01b81525f60048201526024015b60405180910390fd5b61034181610546565b6103d48383836001610597565b505050565b6001600160a01b038381165f908152600160209081526040808320938616835292905220545f19811461044e578181101561044057604051637dc7a0d960e11b81526001600160a01b038416600482015260248101829052604481018390526064016103b5565b61044e84848484035f610597565b50505050565b6001600160a01b03831661047d57604051634b637e8f60e11b81525f60048201526024016103b5565b6001600160a01b0382166104a65760405163ec442f0560e01b81525f60048201526024016103b5565b6103d4838383610669565b6005546001600160a01b031633146103555760405163118cdaa760e01b81523360048201526024016103b5565b6001600160a01b0382166105075760405163ec442f0560e01b81525f60048201526024016103b5565b6103335f8383610669565b6001600160a01b03821661053b57604051634b637e8f60e11b81525f60048201526024016103b5565b610333825f83610669565b600580546001600160a01b038381166001600160a01b0319831681179093556040519116919082907f8be0079c531659141344cd1fd0a4f28419497f9722a3daafe3b4186f6b6457e0905f90a35050565b6001600160a01b0384166105c05760405163e602df0560e01b81525f60048201526024016103b5565b6001600160a01b0383166105e957604051634a1406b160e11b81525f60048201526024016103b5565b6001600160a01b038085165f908152600160209081526040808320938716835292905220829055801561044e57826001600160a01b0316846001600160a01b03167f8c5be1e5ebec7d5bd14f71427d1e84f3dd0314c0f7b2291e5b200ac8c7c3b9258460405161065b91815260200190565b60405180910390a350505050565b6001600160a01b038316610693578060025f82825461068891906108f6565b909155506107039050565b6001600160a01b0383165f90815260208190526040902054818110156106e55760405163391434e360e21b81526001600160a01b038516600482015260248101829052604481018390526064016103b5565b6001600160a01b0384165f9081526020819052604090209082900390555b6001600160a01b03821661071f5760028054829003905561073d565b6001600160a01b0382165f9081526020819052604090208054820190555b816001600160a01b0316836001600160a01b03167fddf252ad1be2c89b69c2b068fc378daa952ba7f163c4a11628f55a4df523b3ef8360405161078291815260200190565b60405180910390a3505050565b5f6020808352835180828501525f5b818110156107ba5785810183015185820160400152820161079e565b505f604082860101526040601f19601f8301168501019250505092915050565b80356001600160a01b03811681146107f0575f80fd5b919050565b5f8060408385031215610806575f80fd5b61080f836107da565b946020939093013593505050565b5f805f6060848603121561082f575f80fd5b610838846107da565b9250610846602085016107da565b9150604084013590509250925092565b5f60208284031215610866575f80fd5b5035919050565b5f6020828403121561087d575f80fd5b610886826107da565b9392505050565b5f806040838503121561089e575f80fd5b6108a7836107da565b91506108b5602084016107da565b90509250929050565b600181811c908216806108d257607f821691505b6020821081036108f057634e487b7160e01b5f52602260045260245ffd5b50919050565b808201808211156102f857634e487b7160e01b5f52601160045260245ffdfea2646970667358221220d4345b66bfb7412d2ea509531419dca8158f537841ee0d9aa80e3d80c30a67d364736f6c63430008140033000000000000000000000000b7d030f7c6406446e703e73b3d1dd8611a2d87b6000000000000000000000000000000000000000000000000000000000000006000000000000000000000000000000000000000000000000000000000000000a0000000000000000000000000000000000000000000000000000000000000000855534420436f696e00000000000000000000000000000000000000000000000000000000000000000000000000000000000000000000000000000000000000045553444300000000000000000000000000000000000000000000000000000000",
        "nonce": "0x65",
        "chainId": "0x3b9ac9ff"
      },
      "additionalContracts": [],
      "isFixedGasLimit": false
    },
    {
      "hash": "0x978766a89b82140bfbd33498eb94249b1334bb9c612aa000948a62dd27542bf0",
      "transactionType": "CALL",
      "contractName": null,
      "contractAddress": "0x8431483c91c856dce2d8e07ad5b1b587ad5df44d",
      "function": "mint(address,uint256)",
      "arguments": [
        "0xB7d030F7c6406446e703E73B3d1dd8611A2D87b6",
        "1000000000000"
      ],
      "transaction": {
        "from": "0xb7d030f7c6406446e703e73b3d1dd8611a2d87b6",
        "to": "0x8431483c91c856dce2d8e07ad5b1b587ad5df44d",
        "gas": "0x17d0a",
        "value": "0x0",
        "input": "0x40c10f19000000000000000000000000b7d030f7c6406446e703e73b3d1dd8611a2d87b6000000000000000000000000000000000000000000000000000000e8d4a51000",
        "nonce": "0x66",
        "chainId": "0x3b9ac9ff"
      },
      "additionalContracts": [],
      "isFixedGasLimit": false
    },
    {
      "hash": "0x2c6b74ce58a741b7150845b08b3b6c06e6f1d08ef63b116f9e59193b766ca4de",
      "transactionType": "CALL",
      "contractName": null,
      "contractAddress": "0x8431483c91c856dce2d8e07ad5b1b587ad5df44d",
      "function": "mint(address,uint256)",
      "arguments": [
        "0x4F88F1014Dd6Ca0507780380111c098BeE6b87e6",
        "1000000000000"
      ],
      "transaction": {
        "from": "0xb7d030f7c6406446e703e73b3d1dd8611a2d87b6",
        "to": "0x8431483c91c856dce2d8e07ad5b1b587ad5df44d",
        "gas": "0x131c4",
        "value": "0x0",
        "input": "0x40c10f190000000000000000000000004f88f1014dd6ca0507780380111c098bee6b87e6000000000000000000000000000000000000000000000000000000e8d4a51000",
        "nonce": "0x67",
        "chainId": "0x3b9ac9ff"
      },
      "additionalContracts": [],
      "isFixedGasLimit": false
    },
    {
      "hash": "0x27aa6e2f01c06dc1c2f059c11a4f0d9b54cc9732ff1b9b8857804a1aa3e76321",
      "transactionType": "CALL",
      "contractName": null,
      "contractAddress": "0x8431483c91c856dce2d8e07ad5b1b587ad5df44d",
      "function": "mint(address,uint256)",
      "arguments": [
        "0xC31f6b8133d618aD2ff1AC5fAA3Fc4B20557B901",
        "1000000000000"
      ],
      "transaction": {
        "from": "0xb7d030f7c6406446e703e73b3d1dd8611a2d87b6",
        "to": "0x8431483c91c856dce2d8e07ad5b1b587ad5df44d",
        "gas": "0x131c4",
        "value": "0x0",
        "input": "0x40c10f19000000000000000000000000c31f6b8133d618ad2ff1ac5faa3fc4b20557b901000000000000000000000000000000000000000000000000000000e8d4a51000",
        "nonce": "0x68",
        "chainId": "0x3b9ac9ff"
      },
      "additionalContracts": [],
      "isFixedGasLimit": false
    },
    {
      "hash": "0x3bc6802551adecc72cd3167f322bfa7d41bcb4d657b73a5e2ad0338412a5c65f",
      "transactionType": "CALL",
      "contractName": null,
      "contractAddress": "0x8431483c91c856dce2d8e07ad5b1b587ad5df44d",
      "function": "mint(address,uint256)",
      "arguments": [
        "0x66E675533020c3CDeE2F33E372320B7e2692211e",
        "1000000000000"
      ],
      "transaction": {
        "from": "0xb7d030f7c6406446e703e73b3d1dd8611a2d87b6",
        "to": "0x8431483c91c856dce2d8e07ad5b1b587ad5df44d",
        "gas": "0x131c4",
        "value": "0x0",
        "input": "0x40c10f1900000000000000000000000066e675533020c3cdee2f33e372320b7e2692211e000000000000000000000000000000000000000000000000000000e8d4a51000",
        "nonce": "0x69",
        "chainId": "0x3b9ac9ff"
      },
      "additionalContracts": [],
      "isFixedGasLimit": false
    },
    {
      "hash": "0x9269f60cedcc3ea65b869ad43d8e2e8ef77438d4daba8b86cbe2e270f595ce34",
      "transactionType": "CALL",
      "contractName": null,
      "contractAddress": "0x8431483c91c856dce2d8e07ad5b1b587ad5df44d",
      "function": "mint(address,uint256)",
      "arguments": [
        "0x8c4Eb6988A199DAbcae0Ce31052b3f3aC591787e",
        "1000000000000"
      ],
      "transaction": {
        "from": "0xb7d030f7c6406446e703e73b3d1dd8611a2d87b6",
        "to": "0x8431483c91c856dce2d8e07ad5b1b587ad5df44d",
        "gas": "0x131c4",
        "value": "0x0",
        "input": "0x40c10f190000000000000000000000008c4eb6988a199dabcae0ce31052b3f3ac591787e000000000000000000000000000000000000000000000000000000e8d4a51000",
        "nonce": "0x6a",
        "chainId": "0x3b9ac9ff"
      },
      "additionalContracts": [],
      "isFixedGasLimit": false
    },
    {
      "hash": "0x5079d0f34baf2765c5bf4aea61370d0d0655d3a51ac271a5bbbccc8dbc300ec0",
      "transactionType": "CREATE",
      "contractName": null,
      "contractAddress": "0xf9ae127989ec2c8d683a0605a6dec973f4b57d9b",
      "function": null,
      "arguments": null,
      "transaction": {
        "from": "0xb7d030f7c6406446e703e73b3d1dd8611a2d87b6",
        "gas": "0xcf1e9",
        "value": "0x0",
        "input": "0x608060405234801562000010575f80fd5b5060405162000cd938038062000cd98339810160408190526200003391620001a8565b8282826003620000448382620002b8565b506004620000538282620002b8565b5050506001600160a01b0381166200008457604051631e4fbdf760e01b81525f600482015260240160405180910390fd5b6200008f8162000099565b5050505062000380565b600580546001600160a01b038381166001600160a01b0319831681179093556040519116919082907f8be0079c531659141344cd1fd0a4f28419497f9722a3daafe3b4186f6b6457e0905f90a35050565b634e487b7160e01b5f52604160045260245ffd5b5f82601f8301126200010e575f80fd5b81516001600160401b03808211156200012b576200012b620000ea565b604051601f8301601f19908116603f01168101908282118183101715620001565762000156620000ea565b8160405283815260209250868385880101111562000172575f80fd5b5f91505b8382101562000195578582018301518183018401529082019062000176565b5f93810190920192909252949350505050565b5f805f60608486031215620001bb575f80fd5b83516001600160a01b0381168114620001d2575f80fd5b60208501519093506001600160401b0380821115620001ef575f80fd5b620001fd87838801620000fe565b9350604086015191508082111562000213575f80fd5b506200022286828701620000fe565b9150509250925092565b600181811c908216806200024157607f821691505b6020821081036200026057634e487b7160e01b5f52602260045260245ffd5b50919050565b601f821115620002b3575f81815260208120601f850160051c810160208610156200028e5750805b601f850160051c820191505b81811015620002af578281556001016200029a565b5050505b505050565b81516001600160401b03811115620002d457620002d4620000ea565b620002ec81620002e584546200022c565b8462000266565b602080601f83116001811462000322575f84156200030a5750858301515b5f19600386901b1c1916600185901b178555620002af565b5f85815260208120601f198616915b82811015620003525788860151825594840194600190910190840162000331565b50858210156200037057878501515f19600388901b60f8161c191681555b5050505050600190811b01905550565b61094b806200038e5f395ff3fe608060405234801561000f575f80fd5b50600436106100f0575f3560e01c806370a082311161009357806395d89b411161006357806395d89b41146101ef578063a9059cbb146101f7578063dd62ed3e1461020a578063f2fde38b14610242575f80fd5b806370a0823114610191578063715018a6146101b957806379cc6790146101c15780638da5cb5b146101d4575f80fd5b806323b872dd116100ce57806323b872dd14610147578063313ce5671461015a57806340c10f191461016957806342966c681461017e575f80fd5b806306fdde03146100f4578063095ea7b31461011257806318160ddd14610135575b5f80fd5b6100fc610255565b604051610109919061078f565b60405180910390f35b6101256101203660046107f5565b6102e5565b6040519015158152602001610109565b6002545b604051908152602001610109565b61012561015536600461081d565b6102fe565b60405160128152602001610109565b61017c6101773660046107f5565b610321565b005b61017c61018c366004610856565b610337565b61013961019f36600461086d565b6001600160a01b03165f9081526020819052604090205490565b61017c610344565b61017c6101cf3660046107f5565b610357565b6005546040516001600160a01b039091168152602001610109565b6100fc61036c565b6101256102053660046107f5565b61037b565b61013961021836600461088d565b6001600160a01b039182165f90815260016020908152604080832093909416825291909152205490565b61017c61025036600461086d565b610388565b606060038054610264906108be565b80601f0160208091040260200160405190810160405280929190818152602001828054610290906108be565b80156102db5780601f106102b2576101008083540402835291602001916102db565b820191905f5260205f20905b8154815290600101906020018083116102be57829003601f168201915b5050505050905090565b5f336102f28185856103c7565b60019150505b92915050565b5f3361030b8582856103d9565b610316858585610454565b506001949350505050565b6103296104b1565b61033382826104de565b5050565b6103413382610512565b50565b61034c6104b1565b6103555f610546565b565b6103628233836103d9565b6103338282610512565b606060048054610264906108be565b5f336102f2818585610454565b6103906104b1565b6001600160a01b0381166103be57604051631e4fbdf760e01b81525f60048201526024015b60405180910390fd5b61034181610546565b6103d48383836001610597565b505050565b6001600160a01b038381165f908152600160209081526040808320938616835292905220545f19811461044e578181101561044057604051637dc7a0d960e11b81526001600160a01b038416600482015260248101829052604481018390526064016103b5565b61044e84848484035f610597565b50505050565b6001600160a01b03831661047d57604051634b637e8f60e11b81525f60048201526024016103b5565b6001600160a01b0382166104a65760405163ec442f0560e01b81525f60048201526024016103b5565b6103d4838383610669565b6005546001600160a01b031633146103555760405163118cdaa760e01b81523360048201526024016103b5565b6001600160a01b0382166105075760405163ec442f0560e01b81525f60048201526024016103b5565b6103335f8383610669565b6001600160a01b03821661053b57604051634b637e8f60e11b81525f60048201526024016103b5565b610333825f83610669565b600580546001600160a01b038381166001600160a01b0319831681179093556040519116919082907f8be0079c531659141344cd1fd0a4f28419497f9722a3daafe3b4186f6b6457e0905f90a35050565b6001600160a01b0384166105c05760405163e602df0560e01b81525f60048201526024016103b5565b6001600160a01b0383166105e957604051634a1406b160e11b81525f60048201526024016103b5565b6001600160a01b038085165f908152600160209081526040808320938716835292905220829055801561044e57826001600160a01b0316846001600160a01b03167f8c5be1e5ebec7d5bd14f71427d1e84f3dd0314c0f7b2291e5b200ac8c7c3b9258460405161065b91815260200190565b60405180910390a350505050565b6001600160a01b038316610693578060025f82825461068891906108f6565b909155506107039050565b6001600160a01b0383165f90815260208190526040902054818110156106e55760405163391434e360e21b81526001600160a01b038516600482015260248101829052604481018390526064016103b5565b6001600160a01b0384165f9081526020819052604090209082900390555b6001600160a01b03821661071f5760028054829003905561073d565b6001600160a01b0382165f9081526020819052604090208054820190555b816001600160a01b0316836001600160a01b03167fddf252ad1be2c89b69c2b068fc378daa952ba7f163c4a11628f55a4df523b3ef8360405161078291815260200190565b60405180910390a3505050565b5f6020808352835180828501525f5b818110156107ba5785810183015185820160400152820161079e565b505f604082860101526040601f19601f8301168501019250505092915050565b80356001600160a01b03811681146107f0575f80fd5b919050565b5f8060408385031215610806575f80fd5b61080f836107da565b946020939093013593505050565b5f805f6060848603121561082f575f80fd5b610838846107da565b9250610846602085016107da565b9150604084013590509250925092565b5f60208284031215610866575f80fd5b5035919050565b5f6020828403121561087d575f80fd5b610886826107da565b9392505050565b5f806040838503121561089e575f80fd5b6108a7836107da565b91506108b5602084016107da565b90509250929050565b600181811c908216806108d257607f821691505b6020821081036108f057634e487b7160e01b5f52602260045260245ffd5b50919050565b808201808211156102f857634e487b7160e01b5f52601160045260245ffdfea2646970667358221220d4345b66bfb7412d2ea509531419dca8158f537841ee0d9aa80e3d80c30a67d364736f6c63430008140033000000000000000000000000b7d030f7c6406446e703e73b3d1dd8611a2d87b6000000000000000000000000000000000000000000000000000000000000006000000000000000000000000000000000000000000000000000000000000000a0000000000000000000000000000000000000000000000000000000000000000b577261707065642042544300000000000000000000000000000000000000000000000000000000000000000000000000000000000000000000000000000000045742544300000000000000000000000000000000000000000000000000000000",
        "nonce": "0x6b",
        "chainId": "0x3b9ac9ff"
      },
      "additionalContracts": [],
      "isFixedGasLimit": false
    },
    {
      "hash": "0xacb8325b1dd79405864a702b3aee997da757dc93295ed28776c03e746cff5a93",
      "transactionType": "CALL",
      "contractName": null,
      "contractAddress": "0xf9ae127989ec2c8d683a0605a6dec973f4b57d9b",
      "function": "mint(address,uint256)",
      "arguments": [
        "0xB7d030F7c6406446e703E73B3d1dd8611A2D87b6",
        "10000000000"
      ],
      "transaction": {
        "from": "0xb7d030f7c6406446e703e73b3d1dd8611a2d87b6",
        "to": "0xf9ae127989ec2c8d683a0605a6dec973f4b57d9b",
        "gas": "0x17d0a",
        "value": "0x0",
        "input": "0x40c10f19000000000000000000000000b7d030f7c6406446e703e73b3d1dd8611a2d87b600000000000000000000000000000000000000000000000000000002540be400",
        "nonce": "0x6c",
        "chainId": "0x3b9ac9ff"
      },
      "additionalContracts": [],
      "isFixedGasLimit": false
    },
    {
      "hash": "0xa327faeee02b33c83946cc338dcadd1badfe3429fa58a405ccfd8e4313743e04",
      "transactionType": "CALL",
      "contractName": null,
      "contractAddress": "0xf9ae127989ec2c8d683a0605a6dec973f4b57d9b",
      "function": "mint(address,uint256)",
      "arguments": [
        "0x4F88F1014Dd6Ca0507780380111c098BeE6b87e6",
        "10000000000"
      ],
      "transaction": {
        "from": "0xb7d030f7c6406446e703e73b3d1dd8611a2d87b6",
        "to": "0xf9ae127989ec2c8d683a0605a6dec973f4b57d9b",
        "gas": "0x131c4",
        "value": "0x0",
        "input": "0x40c10f190000000000000000000000004f88f1014dd6ca0507780380111c098bee6b87e600000000000000000000000000000000000000000000000000000002540be400",
        "nonce": "0x6d",
        "chainId": "0x3b9ac9ff"
      },
      "additionalContracts": [],
      "isFixedGasLimit": false
    },
    {
      "hash": "0xee8234984f902c47b8421bcf6acacbf4f2159f0fcb171739f157a23e55847e44",
      "transactionType": "CALL",
      "contractName": null,
      "contractAddress": "0xf9ae127989ec2c8d683a0605a6dec973f4b57d9b",
      "function": "mint(address,uint256)",
      "arguments": [
        "0xC31f6b8133d618aD2ff1AC5fAA3Fc4B20557B901",
        "10000000000"
      ],
      "transaction": {
        "from": "0xb7d030f7c6406446e703e73b3d1dd8611a2d87b6",
        "to": "0xf9ae127989ec2c8d683a0605a6dec973f4b57d9b",
        "gas": "0x131c4",
        "value": "0x0",
        "input": "0x40c10f19000000000000000000000000c31f6b8133d618ad2ff1ac5faa3fc4b20557b90100000000000000000000000000000000000000000000000000000002540be400",
        "nonce": "0x6e",
        "chainId": "0x3b9ac9ff"
      },
      "additionalContracts": [],
      "isFixedGasLimit": false
    },
    {
      "hash": "0x6391565ed482cdba6c475f898c934ed5b2769e2adb1b380061c1f561c40e0234",
      "transactionType": "CALL",
      "contractName": null,
      "contractAddress": "0xf9ae127989ec2c8d683a0605a6dec973f4b57d9b",
      "function": "mint(address,uint256)",
      "arguments": [
        "0x66E675533020c3CDeE2F33E372320B7e2692211e",
        "10000000000"
      ],
      "transaction": {
        "from": "0xb7d030f7c6406446e703e73b3d1dd8611a2d87b6",
        "to": "0xf9ae127989ec2c8d683a0605a6dec973f4b57d9b",
        "gas": "0x131c4",
        "value": "0x0",
        "input": "0x40c10f1900000000000000000000000066e675533020c3cdee2f33e372320b7e2692211e00000000000000000000000000000000000000000000000000000002540be400",
        "nonce": "0x6f",
        "chainId": "0x3b9ac9ff"
      },
      "additionalContracts": [],
      "isFixedGasLimit": false
    },
    {
      "hash": "0x001492c74db127d98fa490609c1998564e8c430f5329b9cad461f03b18f0f562",
      "transactionType": "CALL",
      "contractName": null,
      "contractAddress": "0xf9ae127989ec2c8d683a0605a6dec973f4b57d9b",
      "function": "mint(address,uint256)",
      "arguments": [
        "0x8c4Eb6988A199DAbcae0Ce31052b3f3aC591787e",
        "10000000000"
      ],
      "transaction": {
        "from": "0xb7d030f7c6406446e703e73b3d1dd8611a2d87b6",
        "to": "0xf9ae127989ec2c8d683a0605a6dec973f4b57d9b",
        "gas": "0x131c4",
        "value": "0x0",
        "input": "0x40c10f190000000000000000000000008c4eb6988a199dabcae0ce31052b3f3ac591787e00000000000000000000000000000000000000000000000000000002540be400",
        "nonce": "0x70",
        "chainId": "0x3b9ac9ff"
      },
      "additionalContracts": [],
      "isFixedGasLimit": false
    },
    {
      "hash": "0x9a2855ca37db033483e6ac433f1fc62fada27a8b405f91bb2fd58f89017a450f",
      "transactionType": "CALL",
      "contractName": null,
      "contractAddress": "0x10b3feaf1012e82d8ad0bea45857fc35f72e165e",
      "function": "setAddresses(string[],address[])",
      "arguments": [
        "[\"TOKEN_USDT\", \"TOKEN_USDC\", \"TOKEN_WBTC\"]",
        "[0x7b557F0992Eca62cE4B00a96C9400F69cdbBed55, 0x8431483c91C856DCe2D8e07aD5B1b587Ad5df44D, 0xF9aE127989ec2C8d683a0605a6dEc973f4B57d9b]"
      ],
      "transaction": {
        "from": "0xb7d030f7c6406446e703e73b3d1dd8611a2d87b6",
        "to": "0x10b3feaf1012e82d8ad0bea45857fc35f72e165e",
        "gas": "0x24f96",
        "value": "0x0",
        "input": "0x7d69a892000000000000000000000000000000000000000000000000000000000000004000000000000000000000000000000000000000000000000000000000000001800000000000000000000000000000000000000000000000000000000000000003000000000000000000000000000000000000000000000000000000000000006000000000000000000000000000000000000000000000000000000000000000a000000000000000000000000000000000000000000000000000000000000000e0000000000000000000000000000000000000000000000000000000000000000a544f4b454e5f5553445400000000000000000000000000000000000000000000000000000000000000000000000000000000000000000000000000000000000a544f4b454e5f5553444300000000000000000000000000000000000000000000000000000000000000000000000000000000000000000000000000000000000a544f4b454e5f574254430000000000000000000000000000000000000000000000000000000000000000000000000000000000000000000000000000000000030000000000000000000000007b557f0992eca62ce4b00a96c9400f69cdbbed550000000000000000000000008431483c91c856dce2d8e07ad5b1b587ad5df44d000000000000000000000000f9ae127989ec2c8d683a0605a6dec973f4b57d9b",
        "nonce": "0x71",
        "chainId": "0x3b9ac9ff"
      },
      "additionalContracts": [],
      "isFixedGasLimit": false
    }
  ],
  "receipts": [
    {
      "status": "0x1",
      "cumulativeGasUsed": "0xac115",
      "logs": [
        {
          "address": "0x7b557f0992eca62ce4b00a96c9400f69cdbbed55",
          "topics": [
            "0x8be0079c531659141344cd1fd0a4f28419497f9722a3daafe3b4186f6b6457e0",
            "0x0000000000000000000000000000000000000000000000000000000000000000",
            "0x000000000000000000000000b7d030f7c6406446e703e73b3d1dd8611a2d87b6"
          ],
          "data": "0x",
          "blockHash": "0x25d40961f9459cf5954a30bd6ef8ef30f0392e18b3f568bb7cdfb88fc1c88b4c",
          "blockNumber": "0xf1a7d5",
          "transactionHash": "0xe4d6b71dfe1b1d12e9aa61fed6800b6b8de1649646fe225126b2fe716b7aced2",
          "transactionIndex": "0x1",
          "logIndex": "0x0",
          "removed": false
        }
      ],
      "logsBloom": "0x00000000000000000000000000000000000000000000000000800000000000200000000000000000000000000000000000000000000000000000000000000000000000000000000000000000000000000001000000400000000000000000000000000000020000000000000000000800000000000000000200000000000000400000000000000000000000000000000000000000000000000080000000000020000000000000000000000000000000000000000000000000000000000000000000000000000000000000000000000000000000000000000000020000000020000000000000000000000000000000000000000000000000000000000000000000",
      "type": "0x2",
      "transactionHash": "0xe4d6b71dfe1b1d12e9aa61fed6800b6b8de1649646fe225126b2fe716b7aced2",
      "transactionIndex": "0x1",
      "blockHash": "0x25d40961f9459cf5954a30bd6ef8ef30f0392e18b3f568bb7cdfb88fc1c88b4c",
      "blockNumber": "0xf1a7d5",
      "gasUsed": "0x9f51e",
      "effectiveGasPrice": "0xfd",
      "from": "0xb7d030f7c6406446e703e73b3d1dd8611a2d87b6",
      "to": null,
      "contractAddress": "0x7b557f0992eca62ce4b00a96c9400f69cdbbed55",
      "l1BaseFeeScalar": "0x3f4",
      "l1BlobBaseFee": "0x1",
      "l1BlobBaseFeeScalar": "0x941ad",
      "l1Fee": "0x5d6e669a8",
      "l1GasPrice": "0x2c2556b1",
      "l1GasUsed": "0x82b5"
    },
    {
      "status": "0x1",
      "cumulativeGasUsed": "0xbd4f4",
      "logs": [
        {
          "address": "0x7b557f0992eca62ce4b00a96c9400f69cdbbed55",
          "topics": [
            "0xddf252ad1be2c89b69c2b068fc378daa952ba7f163c4a11628f55a4df523b3ef",
            "0x0000000000000000000000000000000000000000000000000000000000000000",
            "0x000000000000000000000000b7d030f7c6406446e703e73b3d1dd8611a2d87b6"
          ],
          "data": "0x000000000000000000000000000000000000000000000000000000e8d4a51000",
          "blockHash": "0x25d40961f9459cf5954a30bd6ef8ef30f0392e18b3f568bb7cdfb88fc1c88b4c",
          "blockNumber": "0xf1a7d5",
          "transactionHash": "0x8eb1bd3172f646b52aecd4099f624b6bfe55d89f91ac1ac6aae23d66ad19e838",
          "transactionIndex": "0x2",
          "logIndex": "0x1",
          "removed": false
        }
      ],
      "logsBloom": "0x00000000000000000000000000000000000000000000000000000000000000200000000000000000000000000000000000000000000000000000000000000000000000000000000000000008000000000000000000400000000000000000000000000000020000000000000000000800000000000000000200000010000000000000000000000000000000000000000000000000000000000080000000000020000000000000000000000000000000000000000000000000000000000000000000000002000000000000000000000000000000000000000000020000000020000000000000000000000000000000000000000000000000000000000000000000",
      "type": "0x2",
      "transactionHash": "0x8eb1bd3172f646b52aecd4099f624b6bfe55d89f91ac1ac6aae23d66ad19e838",
      "transactionIndex": "0x2",
      "blockHash": "0x25d40961f9459cf5954a30bd6ef8ef30f0392e18b3f568bb7cdfb88fc1c88b4c",
      "blockNumber": "0xf1a7d5",
      "gasUsed": "0x113df",
      "effectiveGasPrice": "0xfd",
      "from": "0xb7d030f7c6406446e703e73b3d1dd8611a2d87b6",
      "to": "0x7b557f0992eca62ce4b00a96c9400f69cdbbed55",
      "contractAddress": null,
      "l1BaseFeeScalar": "0x3f4",
      "l1BlobBaseFee": "0x1",
      "l1BlobBaseFeeScalar": "0x941ad",
      "l1Fee": "0x477b20e2",
      "l1GasPrice": "0x2c2556b1",
      "l1GasUsed": "0x640"
    },
    {
      "status": "0x1",
      "cumulativeGasUsed": "0xca607",
      "logs": [
        {
          "address": "0x7b557f0992eca62ce4b00a96c9400f69cdbbed55",
          "topics": [
            "0xddf252ad1be2c89b69c2b068fc378daa952ba7f163c4a11628f55a4df523b3ef",
            "0x0000000000000000000000000000000000000000000000000000000000000000",
            "0x0000000000000000000000004f88f1014dd6ca0507780380111c098bee6b87e6"
          ],
          "data": "0x000000000000000000000000000000000000000000000000000000e8d4a51000",
          "blockHash": "0x25d40961f9459cf5954a30bd6ef8ef30f0392e18b3f568bb7cdfb88fc1c88b4c",
          "blockNumber": "0xf1a7d5",
          "transactionHash": "0x9b32e8d7ecaad7388a79a104c2801cfa569424792f57000d8a259de68872f5aa",
          "transactionIndex": "0x3",
          "logIndex": "0x2",
          "removed": false
        }
      ],
      "logsBloom": "0x00000000000000000000000002000000000000000000000000000000000000200000000000000000000000000000000000000000000000000000000000000000000000000000000000000008000000000000000000000000000000000000000000000000020000000000000000000800000000000000000000000010000000000000000000000000000000000000000000000000000000000080000000000000000000000000000000000000000000000000000004000000000000000000000000000002000000000000000000000000000000000000000000020000000020000000000000000000000000000000000000000000008000000000000000000000",
      "type": "0x2",
      "transactionHash": "0x9b32e8d7ecaad7388a79a104c2801cfa569424792f57000d8a259de68872f5aa",
      "transactionIndex": "0x3",
      "blockHash": "0x25d40961f9459cf5954a30bd6ef8ef30f0392e18b3f568bb7cdfb88fc1c88b4c",
      "blockNumber": "0xf1a7d5",
      "gasUsed": "0xd113",
      "effectiveGasPrice": "0xfd",
      "from": "0xb7d030f7c6406446e703e73b3d1dd8611a2d87b6",
      "to": "0x7b557f0992eca62ce4b00a96c9400f69cdbbed55",
      "contractAddress": null,
      "l1BaseFeeScalar": "0x3f4",
      "l1BlobBaseFee": "0x1",
      "l1BlobBaseFeeScalar": "0x941ad",
      "l1Fee": "0x477b20e2",
      "l1GasPrice": "0x2c2556b1",
      "l1GasUsed": "0x640"
    },
    {
      "status": "0x1",
      "cumulativeGasUsed": "0xd771a",
      "logs": [
        {
          "address": "0x7b557f0992eca62ce4b00a96c9400f69cdbbed55",
          "topics": [
            "0xddf252ad1be2c89b69c2b068fc378daa952ba7f163c4a11628f55a4df523b3ef",
            "0x0000000000000000000000000000000000000000000000000000000000000000",
            "0x000000000000000000000000c31f6b8133d618ad2ff1ac5faa3fc4b20557b901"
          ],
          "data": "0x000000000000000000000000000000000000000000000000000000e8d4a51000",
          "blockHash": "0x25d40961f9459cf5954a30bd6ef8ef30f0392e18b3f568bb7cdfb88fc1c88b4c",
          "blockNumber": "0xf1a7d5",
          "transactionHash": "0xab52016a3f28ff42355ad13b2f8109d30e4ff32ec55c49520c9d996acb963f97",
          "transactionIndex": "0x4",
          "logIndex": "0x3",
          "removed": false
        }
      ],
      "logsBloom": "0x00000000000000000000000000000000000000000000000000000000000000200000000000000000000000000000000000000000000000000000000000000000000000000000000000000008000000000000000000000000000000000000000000000000020000000000000000000800000000000000000000000010400000000000000000000000000000000000000000000002000000000080000000000000000000000000000000000000000000000000000000000000080000000000000000000002000000000000000000000000000000000000000000020000000020000000000000000000000000000000000000000000000000000000000000000000",
      "type": "0x2",
      "transactionHash": "0xab52016a3f28ff42355ad13b2f8109d30e4ff32ec55c49520c9d996acb963f97",
      "transactionIndex": "0x4",
      "blockHash": "0x25d40961f9459cf5954a30bd6ef8ef30f0392e18b3f568bb7cdfb88fc1c88b4c",
      "blockNumber": "0xf1a7d5",
      "gasUsed": "0xd113",
      "effectiveGasPrice": "0xfd",
      "from": "0xb7d030f7c6406446e703e73b3d1dd8611a2d87b6",
      "to": "0x7b557f0992eca62ce4b00a96c9400f69cdbbed55",
      "contractAddress": null,
      "l1BaseFeeScalar": "0x3f4",
      "l1BlobBaseFee": "0x1",
      "l1BlobBaseFeeScalar": "0x941ad",
      "l1Fee": "0x477b20e2",
      "l1GasPrice": "0x2c2556b1",
      "l1GasUsed": "0x640"
    },
    {
      "status": "0x1",
      "cumulativeGasUsed": "0xe482d",
      "logs": [
        {
          "address": "0x7b557f0992eca62ce4b00a96c9400f69cdbbed55",
          "topics": [
            "0xddf252ad1be2c89b69c2b068fc378daa952ba7f163c4a11628f55a4df523b3ef",
            "0x0000000000000000000000000000000000000000000000000000000000000000",
            "0x00000000000000000000000066e675533020c3cdee2f33e372320b7e2692211e"
          ],
          "data": "0x000000000000000000000000000000000000000000000000000000e8d4a51000",
          "blockHash": "0x25d40961f9459cf5954a30bd6ef8ef30f0392e18b3f568bb7cdfb88fc1c88b4c",
          "blockNumber": "0xf1a7d5",
          "transactionHash": "0x202c88617ddaedfa5a5d5e672b235b30dd672886ab2b9d089d2adc7f99ec722f",
          "transactionIndex": "0x5",
          "logIndex": "0x4",
          "removed": false
        }
      ],
      "logsBloom": "0x00000000000000000000000000000000000000000000000000000000001000200000000000000000000000000000000000000000000000000000000000000000000000000000000000000008000008000000000000000000000000000000000000000000020000000000000000000800000000000000000000000010000000000000000000000000000000000000000000000000002000000080000000000000000000000000000000000000000000000000000000000000000000000000000000000002000000000000000000000000000000000000000000020000000020000000000000000000000000000000000000000000000000000000000000000000",
      "type": "0x2",
      "transactionHash": "0x202c88617ddaedfa5a5d5e672b235b30dd672886ab2b9d089d2adc7f99ec722f",
      "transactionIndex": "0x5",
      "blockHash": "0x25d40961f9459cf5954a30bd6ef8ef30f0392e18b3f568bb7cdfb88fc1c88b4c",
      "blockNumber": "0xf1a7d5",
      "gasUsed": "0xd113",
      "effectiveGasPrice": "0xfd",
      "from": "0xb7d030f7c6406446e703e73b3d1dd8611a2d87b6",
      "to": "0x7b557f0992eca62ce4b00a96c9400f69cdbbed55",
      "contractAddress": null,
      "l1BaseFeeScalar": "0x3f4",
      "l1BlobBaseFee": "0x1",
      "l1BlobBaseFeeScalar": "0x941ad",
      "l1Fee": "0x477b20e2",
      "l1GasPrice": "0x2c2556b1",
      "l1GasUsed": "0x640"
    },
    {
      "status": "0x1",
      "cumulativeGasUsed": "0xf1940",
      "logs": [
        {
          "address": "0x7b557f0992eca62ce4b00a96c9400f69cdbbed55",
          "topics": [
            "0xddf252ad1be2c89b69c2b068fc378daa952ba7f163c4a11628f55a4df523b3ef",
            "0x0000000000000000000000000000000000000000000000000000000000000000",
            "0x0000000000000000000000008c4eb6988a199dabcae0ce31052b3f3ac591787e"
          ],
          "data": "0x000000000000000000000000000000000000000000000000000000e8d4a51000",
          "blockHash": "0x25d40961f9459cf5954a30bd6ef8ef30f0392e18b3f568bb7cdfb88fc1c88b4c",
          "blockNumber": "0xf1a7d5",
          "transactionHash": "0xe0522a2808763bd00bc63536d37982e2610be245dd3bfe411ed989fd2de7c351",
          "transactionIndex": "0x6",
          "logIndex": "0x5",
          "removed": false
        }
      ],
      "logsBloom": "0x00000000000000000000000000000000000000000000000000000000000000200000000000000000000000000000000000000000000040000000000000000000000000000000000000000008000000000000000000000000000000000000000000000000020000000000000000000800000000000000000000000010000000000000000100000000000000000000000000000000000000000080000000000000000000000000000000000000000001000000000000000000000000000000000000000002000000000000000000000000000000000000000000020000000020000000000000000000000000000000000000000000000000000000000000000000",
      "type": "0x2",
      "transactionHash": "0xe0522a2808763bd00bc63536d37982e2610be245dd3bfe411ed989fd2de7c351",
      "transactionIndex": "0x6",
      "blockHash": "0x25d40961f9459cf5954a30bd6ef8ef30f0392e18b3f568bb7cdfb88fc1c88b4c",
      "blockNumber": "0xf1a7d5",
      "gasUsed": "0xd113",
      "effectiveGasPrice": "0xfd",
      "from": "0xb7d030f7c6406446e703e73b3d1dd8611a2d87b6",
      "to": "0x7b557f0992eca62ce4b00a96c9400f69cdbbed55",
      "contractAddress": null,
      "l1BaseFeeScalar": "0x3f4",
      "l1BlobBaseFee": "0x1",
      "l1BlobBaseFeeScalar": "0x941ad",
      "l1Fee": "0x477b20e2",
      "l1GasPrice": "0x2c2556b1",
      "l1GasUsed": "0x640"
    },
    {
      "status": "0x1",
      "cumulativeGasUsed": "0x190e46",
      "logs": [
        {
          "address": "0x8431483c91c856dce2d8e07ad5b1b587ad5df44d",
          "topics": [
            "0x8be0079c531659141344cd1fd0a4f28419497f9722a3daafe3b4186f6b6457e0",
            "0x0000000000000000000000000000000000000000000000000000000000000000",
            "0x000000000000000000000000b7d030f7c6406446e703e73b3d1dd8611a2d87b6"
          ],
          "data": "0x",
          "blockHash": "0x25d40961f9459cf5954a30bd6ef8ef30f0392e18b3f568bb7cdfb88fc1c88b4c",
          "blockNumber": "0xf1a7d5",
          "transactionHash": "0xd2a5aeffd4937f9a297ea25e3510e4556b405ebeb2803e727144e2cd01f636b2",
          "transactionIndex": "0x7",
          "logIndex": "0x6",
          "removed": false
        }
      ],
      "logsBloom": "0x00000000000000000000000000000000000000000000000000800000000000000000000000000000000000000004000000000000000000000000000000000000000000000000000000000000000000000001000000400000000040000000000000000000020000000000000000000800000000000000000200000000000000400000000000000000000000000000000000000000000000000000000000000020000000000000000000000000000000000000000000000000000000000000000000000000000000000000000000000000000000000000000000000000000020000000000000000000000800000000000000000000000000000000000000000000",
      "type": "0x2",
      "transactionHash": "0xd2a5aeffd4937f9a297ea25e3510e4556b405ebeb2803e727144e2cd01f636b2",
      "transactionIndex": "0x7",
      "blockHash": "0x25d40961f9459cf5954a30bd6ef8ef30f0392e18b3f568bb7cdfb88fc1c88b4c",
      "blockNumber": "0xf1a7d5",
      "gasUsed": "0x9f506",
      "effectiveGasPrice": "0xfd",
      "from": "0xb7d030f7c6406446e703e73b3d1dd8611a2d87b6",
      "to": null,
      "contractAddress": "0x8431483c91c856dce2d8e07ad5b1b587ad5df44d",
      "l1BaseFeeScalar": "0x3f4",
      "l1BlobBaseFee": "0x1",
      "l1BlobBaseFeeScalar": "0x941ad",
      "l1Fee": "0x5d5b444af",
      "l1GasPrice": "0x2c2556b1",
      "l1GasUsed": "0x829a"
    },
    {
      "status": "0x1",
      "cumulativeGasUsed": "0x1bf12",
      "logs": [
        {
          "address": "0x8431483c91c856dce2d8e07ad5b1b587ad5df44d",
          "topics": [
            "0xddf252ad1be2c89b69c2b068fc378daa952ba7f163c4a11628f55a4df523b3ef",
            "0x0000000000000000000000000000000000000000000000000000000000000000",
            "0x000000000000000000000000b7d030f7c6406446e703e73b3d1dd8611a2d87b6"
          ],
          "data": "0x000000000000000000000000000000000000000000000000000000e8d4a51000",
          "blockHash": "0x436f9d9de25b727b504f6f42c7594d9b17a3879ef8d536a2b742c153cdac5ad8",
          "blockNumber": "0xf1a7d6",
          "transactionHash": "0x978766a89b82140bfbd33498eb94249b1334bb9c612aa000948a62dd27542bf0",
          "transactionIndex": "0x1",
          "logIndex": "0x0",
          "removed": false
        }
      ],
      "logsBloom": "0x00000000000000000000000000000000000000000000000000000000000000000000000000000000000000000004000000000000000000000000000000000000000000000000000000000008000000000000000000400000000040000000000000000000020000000000000000000800000000000000000200000010000000000000000000000000000000000000000000000000000000000000000000000020000000000000000000000000000000000000000000000000000000000000000000000002000000000000000000000000000000000000000000000000000020000000000000000000000800000000000000000000000000000000000000000000",
      "type": "0x2",
      "transactionHash": "0x978766a89b82140bfbd33498eb94249b1334bb9c612aa000948a62dd27542bf0",
      "transactionIndex": "0x1",
      "blockHash": "0x436f9d9de25b727b504f6f42c7594d9b17a3879ef8d536a2b742c153cdac5ad8",
      "blockNumber": "0xf1a7d6",
      "gasUsed": "0x113df",
      "effectiveGasPrice": "0xfd",
      "from": "0xb7d030f7c6406446e703e73b3d1dd8611a2d87b6",
      "to": "0x8431483c91c856dce2d8e07ad5b1b587ad5df44d",
      "contractAddress": null,
      "l1BaseFeeScalar": "0x3f4",
      "l1BlobBaseFee": "0x1",
      "l1BlobBaseFeeScalar": "0x941ad",
      "l1Fee": "0x477b20e2",
      "l1GasPrice": "0x2c2556b1",
      "l1GasUsed": "0x640"
    },
    {
      "status": "0x1",
      "cumulativeGasUsed": "0x29025",
      "logs": [
        {
          "address": "0x8431483c91c856dce2d8e07ad5b1b587ad5df44d",
          "topics": [
            "0xddf252ad1be2c89b69c2b068fc378daa952ba7f163c4a11628f55a4df523b3ef",
            "0x0000000000000000000000000000000000000000000000000000000000000000",
            "0x0000000000000000000000004f88f1014dd6ca0507780380111c098bee6b87e6"
          ],
          "data": "0x000000000000000000000000000000000000000000000000000000e8d4a51000",
          "blockHash": "0x436f9d9de25b727b504f6f42c7594d9b17a3879ef8d536a2b742c153cdac5ad8",
          "blockNumber": "0xf1a7d6",
          "transactionHash": "0x2c6b74ce58a741b7150845b08b3b6c06e6f1d08ef63b116f9e59193b766ca4de",
          "transactionIndex": "0x2",
          "logIndex": "0x1",
          "removed": false
        }
      ],
      "logsBloom": "0x00000000000000000000000002000000000000000000000000000000000000000000000000000000000000000004000000000000000000000000000000000000000000000000000000000008000000000000000000000000000040000000000000000000020000000000000000000800000000000000000000000010000000000000000000000000000000000000000000000000000000000000000000000000000000000000000000000000000000000000000004000000000000000000000000000002000000000000000000000000000000000000000000000000000020000000000000000000000800000000000000000000008000000000000000000000",
      "type": "0x2",
      "transactionHash": "0x2c6b74ce58a741b7150845b08b3b6c06e6f1d08ef63b116f9e59193b766ca4de",
      "transactionIndex": "0x2",
      "blockHash": "0x436f9d9de25b727b504f6f42c7594d9b17a3879ef8d536a2b742c153cdac5ad8",
      "blockNumber": "0xf1a7d6",
      "gasUsed": "0xd113",
      "effectiveGasPrice": "0xfd",
      "from": "0xb7d030f7c6406446e703e73b3d1dd8611a2d87b6",
      "to": "0x8431483c91c856dce2d8e07ad5b1b587ad5df44d",
      "contractAddress": null,
      "l1BaseFeeScalar": "0x3f4",
      "l1BlobBaseFee": "0x1",
      "l1BlobBaseFeeScalar": "0x941ad",
      "l1Fee": "0x477b20e2",
      "l1GasPrice": "0x2c2556b1",
      "l1GasUsed": "0x640"
    },
    {
      "status": "0x1",
      "cumulativeGasUsed": "0x36138",
      "logs": [
        {
          "address": "0x8431483c91c856dce2d8e07ad5b1b587ad5df44d",
          "topics": [
            "0xddf252ad1be2c89b69c2b068fc378daa952ba7f163c4a11628f55a4df523b3ef",
            "0x0000000000000000000000000000000000000000000000000000000000000000",
            "0x000000000000000000000000c31f6b8133d618ad2ff1ac5faa3fc4b20557b901"
          ],
          "data": "0x000000000000000000000000000000000000000000000000000000e8d4a51000",
          "blockHash": "0x436f9d9de25b727b504f6f42c7594d9b17a3879ef8d536a2b742c153cdac5ad8",
          "blockNumber": "0xf1a7d6",
          "transactionHash": "0x27aa6e2f01c06dc1c2f059c11a4f0d9b54cc9732ff1b9b8857804a1aa3e76321",
          "transactionIndex": "0x3",
          "logIndex": "0x2",
          "removed": false
        }
      ],
      "logsBloom": "0x00000000000000000000000000000000000000000000000000000000000000000000000000000000000000000004000000000000000000000000000000000000000000000000000000000008000000000000000000000000000040000000000000000000020000000000000000000800000000000000000000000010400000000000000000000000000000000000000000000002000000000000000000000000000000000000000000000000000000000000000000000000080000000000000000000002000000000000000000000000000000000000000000000000000020000000000000000000000800000000000000000000000000000000000000000000",
      "type": "0x2",
      "transactionHash": "0x27aa6e2f01c06dc1c2f059c11a4f0d9b54cc9732ff1b9b8857804a1aa3e76321",
      "transactionIndex": "0x3",
      "blockHash": "0x436f9d9de25b727b504f6f42c7594d9b17a3879ef8d536a2b742c153cdac5ad8",
      "blockNumber": "0xf1a7d6",
      "gasUsed": "0xd113",
      "effectiveGasPrice": "0xfd",
      "from": "0xb7d030f7c6406446e703e73b3d1dd8611a2d87b6",
      "to": "0x8431483c91c856dce2d8e07ad5b1b587ad5df44d",
      "contractAddress": null,
      "l1BaseFeeScalar": "0x3f4",
      "l1BlobBaseFee": "0x1",
      "l1BlobBaseFeeScalar": "0x941ad",
      "l1Fee": "0x477b20e2",
      "l1GasPrice": "0x2c2556b1",
      "l1GasUsed": "0x640"
    },
    {
      "status": "0x1",
      "cumulativeGasUsed": "0x4324b",
      "logs": [
        {
          "address": "0x8431483c91c856dce2d8e07ad5b1b587ad5df44d",
          "topics": [
            "0xddf252ad1be2c89b69c2b068fc378daa952ba7f163c4a11628f55a4df523b3ef",
            "0x0000000000000000000000000000000000000000000000000000000000000000",
            "0x00000000000000000000000066e675533020c3cdee2f33e372320b7e2692211e"
          ],
          "data": "0x000000000000000000000000000000000000000000000000000000e8d4a51000",
          "blockHash": "0x436f9d9de25b727b504f6f42c7594d9b17a3879ef8d536a2b742c153cdac5ad8",
          "blockNumber": "0xf1a7d6",
          "transactionHash": "0x3bc6802551adecc72cd3167f322bfa7d41bcb4d657b73a5e2ad0338412a5c65f",
          "transactionIndex": "0x4",
          "logIndex": "0x3",
          "removed": false
        }
      ],
      "logsBloom": "0x00000000000000000000000000000000000000000000000000000000001000000000000000000000000000000004000000000000000000000000000000000000000000000000000000000008000008000000000000000000000040000000000000000000020000000000000000000800000000000000000000000010000000000000000000000000000000000000000000000000002000000000000000000000000000000000000000000000000000000000000000000000000000000000000000000002000000000000000000000000000000000000000000000000000020000000000000000000000800000000000000000000000000000000000000000000",
      "type": "0x2",
      "transactionHash": "0x3bc6802551adecc72cd3167f322bfa7d41bcb4d657b73a5e2ad0338412a5c65f",
      "transactionIndex": "0x4",
      "blockHash": "0x436f9d9de25b727b504f6f42c7594d9b17a3879ef8d536a2b742c153cdac5ad8",
      "blockNumber": "0xf1a7d6",
      "gasUsed": "0xd113",
      "effectiveGasPrice": "0xfd",
      "from": "0xb7d030f7c6406446e703e73b3d1dd8611a2d87b6",
      "to": "0x8431483c91c856dce2d8e07ad5b1b587ad5df44d",
      "contractAddress": null,
      "l1BaseFeeScalar": "0x3f4",
      "l1BlobBaseFee": "0x1",
      "l1BlobBaseFeeScalar": "0x941ad",
      "l1Fee": "0x477b20e2",
      "l1GasPrice": "0x2c2556b1",
      "l1GasUsed": "0x640"
    },
    {
      "status": "0x1",
      "cumulativeGasUsed": "0x5035e",
      "logs": [
        {
          "address": "0x8431483c91c856dce2d8e07ad5b1b587ad5df44d",
          "topics": [
            "0xddf252ad1be2c89b69c2b068fc378daa952ba7f163c4a11628f55a4df523b3ef",
            "0x0000000000000000000000000000000000000000000000000000000000000000",
            "0x0000000000000000000000008c4eb6988a199dabcae0ce31052b3f3ac591787e"
          ],
          "data": "0x000000000000000000000000000000000000000000000000000000e8d4a51000",
          "blockHash": "0x436f9d9de25b727b504f6f42c7594d9b17a3879ef8d536a2b742c153cdac5ad8",
          "blockNumber": "0xf1a7d6",
          "transactionHash": "0x9269f60cedcc3ea65b869ad43d8e2e8ef77438d4daba8b86cbe2e270f595ce34",
          "transactionIndex": "0x5",
          "logIndex": "0x4",
          "removed": false
        }
      ],
      "logsBloom": "0x00000000000000000000000000000000000000000000000000000000000000000000000000000000000000000004000000000000000040000000000000000000000000000000000000000008000000000000000000000000000040000000000000000000020000000000000000000800000000000000000000000010000000000000000100000000000000000000000000000000000000000000000000000000000000000000000000000000000001000000000000000000000000000000000000000002000000000000000000000000000000000000000000000000000020000000000000000000000800000000000000000000000000000000000000000000",
      "type": "0x2",
      "transactionHash": "0x9269f60cedcc3ea65b869ad43d8e2e8ef77438d4daba8b86cbe2e270f595ce34",
      "transactionIndex": "0x5",
      "blockHash": "0x436f9d9de25b727b504f6f42c7594d9b17a3879ef8d536a2b742c153cdac5ad8",
      "blockNumber": "0xf1a7d6",
      "gasUsed": "0xd113",
      "effectiveGasPrice": "0xfd",
      "from": "0xb7d030f7c6406446e703e73b3d1dd8611a2d87b6",
      "to": "0x8431483c91c856dce2d8e07ad5b1b587ad5df44d",
      "contractAddress": null,
      "l1BaseFeeScalar": "0x3f4",
      "l1BlobBaseFee": "0x1",
      "l1BlobBaseFeeScalar": "0x941ad",
      "l1Fee": "0x477b20e2",
      "l1GasPrice": "0x2c2556b1",
      "l1GasUsed": "0x640"
    },
    {
      "status": "0x1",
      "cumulativeGasUsed": "0xef888",
      "logs": [
        {
          "address": "0xf9ae127989ec2c8d683a0605a6dec973f4b57d9b",
          "topics": [
            "0x8be0079c531659141344cd1fd0a4f28419497f9722a3daafe3b4186f6b6457e0",
            "0x0000000000000000000000000000000000000000000000000000000000000000",
            "0x000000000000000000000000b7d030f7c6406446e703e73b3d1dd8611a2d87b6"
          ],
          "data": "0x",
          "blockHash": "0x436f9d9de25b727b504f6f42c7594d9b17a3879ef8d536a2b742c153cdac5ad8",
          "blockNumber": "0xf1a7d6",
          "transactionHash": "0x5079d0f34baf2765c5bf4aea61370d0d0655d3a51ac271a5bbbccc8dbc300ec0",
          "transactionIndex": "0x6",
          "logIndex": "0x5",
          "removed": false
        }
      ],
      "logsBloom": "0x00000000000000000000000000000000000000000000000000800000000000000000000000000000000000000000000000000000000000000000000000000000000000000000000000000000000000000001000000400200000000000000000000000000020000000000000000000800000000000000000200000000000000400000000000000000000000000000000000000000000000000000000000000020000000000000000000000000000000000000000000000000020000000000000000000000000000000000000000000000000000000000000000000000000020000000000000000000000000000000000000000000000020000000000000000000",
      "type": "0x2",
      "transactionHash": "0x5079d0f34baf2765c5bf4aea61370d0d0655d3a51ac271a5bbbccc8dbc300ec0",
      "transactionIndex": "0x6",
      "blockHash": "0x436f9d9de25b727b504f6f42c7594d9b17a3879ef8d536a2b742c153cdac5ad8",
      "blockNumber": "0xf1a7d6",
      "gasUsed": "0x9f52a",
      "effectiveGasPrice": "0xfd",
      "from": "0xb7d030f7c6406446e703e73b3d1dd8611a2d87b6",
      "to": null,
      "contractAddress": "0xf9ae127989ec2c8d683a0605a6dec973f4b57d9b",
      "l1BaseFeeScalar": "0x3f4",
      "l1BlobBaseFee": "0x1",
      "l1BlobBaseFeeScalar": "0x941ad",
      "l1Fee": "0x5d5b444af",
      "l1GasPrice": "0x2c2556b1",
      "l1GasUsed": "0x829a"
    },
    {
      "status": "0x1",
      "cumulativeGasUsed": "0x100c67",
      "logs": [
        {
          "address": "0xf9ae127989ec2c8d683a0605a6dec973f4b57d9b",
          "topics": [
            "0xddf252ad1be2c89b69c2b068fc378daa952ba7f163c4a11628f55a4df523b3ef",
            "0x0000000000000000000000000000000000000000000000000000000000000000",
            "0x000000000000000000000000b7d030f7c6406446e703e73b3d1dd8611a2d87b6"
          ],
          "data": "0x00000000000000000000000000000000000000000000000000000002540be400",
          "blockHash": "0x436f9d9de25b727b504f6f42c7594d9b17a3879ef8d536a2b742c153cdac5ad8",
          "blockNumber": "0xf1a7d6",
          "transactionHash": "0xacb8325b1dd79405864a702b3aee997da757dc93295ed28776c03e746cff5a93",
          "transactionIndex": "0x7",
          "logIndex": "0x6",
          "removed": false
        }
      ],
      "logsBloom": "0x00000000000000000000000000000000000000000000000000000000000000000000000000000000000000000000000000000000000000000000000000000000000000000000000000000008000000000000000000400200000000000000000000000000020000000000000000000800000000000000000200000010000000000000000000000000000000000000000000000000000000000000000000000020000000000000000000000000000000000000000000000000020000000000000000000002000000000000000000000000000000000000000000000000000020000000000000000000000000000000000000000000000020000000000000000000",
      "type": "0x2",
      "transactionHash": "0xacb8325b1dd79405864a702b3aee997da757dc93295ed28776c03e746cff5a93",
      "transactionIndex": "0x7",
      "blockHash": "0x436f9d9de25b727b504f6f42c7594d9b17a3879ef8d536a2b742c153cdac5ad8",
      "blockNumber": "0xf1a7d6",
      "gasUsed": "0x113df",
      "effectiveGasPrice": "0xfd",
      "from": "0xb7d030f7c6406446e703e73b3d1dd8611a2d87b6",
      "to": "0xf9ae127989ec2c8d683a0605a6dec973f4b57d9b",
      "contractAddress": null,
      "l1BaseFeeScalar": "0x3f4",
      "l1BlobBaseFee": "0x1",
      "l1BlobBaseFeeScalar": "0x941ad",
      "l1Fee": "0x477b20e2",
      "l1GasPrice": "0x2c2556b1",
      "l1GasUsed": "0x640"
    },
    {
      "status": "0x1",
      "cumulativeGasUsed": "0x10dd7a",
      "logs": [
        {
          "address": "0xf9ae127989ec2c8d683a0605a6dec973f4b57d9b",
          "topics": [
            "0xddf252ad1be2c89b69c2b068fc378daa952ba7f163c4a11628f55a4df523b3ef",
            "0x0000000000000000000000000000000000000000000000000000000000000000",
            "0x0000000000000000000000004f88f1014dd6ca0507780380111c098bee6b87e6"
          ],
          "data": "0x00000000000000000000000000000000000000000000000000000002540be400",
          "blockHash": "0x436f9d9de25b727b504f6f42c7594d9b17a3879ef8d536a2b742c153cdac5ad8",
          "blockNumber": "0xf1a7d6",
          "transactionHash": "0xa327faeee02b33c83946cc338dcadd1badfe3429fa58a405ccfd8e4313743e04",
          "transactionIndex": "0x8",
          "logIndex": "0x7",
          "removed": false
        }
      ],
      "logsBloom": "0x00000000000000000000000002000000000000000000000000000000000000000000000000000000000000000000000000000000000000000000000000000000000000000000000000000008000000000000000000000200000000000000000000000000020000000000000000000800000000000000000000000010000000000000000000000000000000000000000000000000000000000000000000000000000000000000000000000000000000000000000004000000020000000000000000000002000000000000000000000000000000000000000000000000000020000000000000000000000000000000000000000000008020000000000000000000",
      "type": "0x2",
      "transactionHash": "0xa327faeee02b33c83946cc338dcadd1badfe3429fa58a405ccfd8e4313743e04",
      "transactionIndex": "0x8",
      "blockHash": "0x436f9d9de25b727b504f6f42c7594d9b17a3879ef8d536a2b742c153cdac5ad8",
      "blockNumber": "0xf1a7d6",
      "gasUsed": "0xd113",
      "effectiveGasPrice": "0xfd",
      "from": "0xb7d030f7c6406446e703e73b3d1dd8611a2d87b6",
      "to": "0xf9ae127989ec2c8d683a0605a6dec973f4b57d9b",
      "contractAddress": null,
      "l1BaseFeeScalar": "0x3f4",
      "l1BlobBaseFee": "0x1",
      "l1BlobBaseFeeScalar": "0x941ad",
      "l1Fee": "0x477b20e2",
      "l1GasPrice": "0x2c2556b1",
      "l1GasUsed": "0x640"
    },
    {
      "status": "0x1",
      "cumulativeGasUsed": "0x11ae8d",
      "logs": [
        {
          "address": "0xf9ae127989ec2c8d683a0605a6dec973f4b57d9b",
          "topics": [
            "0xddf252ad1be2c89b69c2b068fc378daa952ba7f163c4a11628f55a4df523b3ef",
            "0x0000000000000000000000000000000000000000000000000000000000000000",
            "0x000000000000000000000000c31f6b8133d618ad2ff1ac5faa3fc4b20557b901"
          ],
          "data": "0x00000000000000000000000000000000000000000000000000000002540be400",
          "blockHash": "0x436f9d9de25b727b504f6f42c7594d9b17a3879ef8d536a2b742c153cdac5ad8",
          "blockNumber": "0xf1a7d6",
          "transactionHash": "0xee8234984f902c47b8421bcf6acacbf4f2159f0fcb171739f157a23e55847e44",
          "transactionIndex": "0x9",
          "logIndex": "0x8",
          "removed": false
        }
      ],
      "logsBloom": "0x000000000000000000000000000000000000000000000000000000000000000000000000000000000000000000000000000000000000000000000000000000000000000000000000000000080000000000000000000002000000000000000000000000000200000000000000000008000000000000000000000000104000000000000000000000000000000000000000000000020000000000000000000000000000000000000000000000000000000000000000000000000a0000000000000000000002000000000000000000000000000000000000000000000000000020000000000000000000000000000000000000000000000020000000000000000000",
      "type": "0x2",
      "transactionHash": "0xee8234984f902c47b8421bcf6acacbf4f2159f0fcb171739f157a23e55847e44",
      "transactionIndex": "0x9",
      "blockHash": "0x436f9d9de25b727b504f6f42c7594d9b17a3879ef8d536a2b742c153cdac5ad8",
      "blockNumber": "0xf1a7d6",
      "gasUsed": "0xd113",
      "effectiveGasPrice": "0xfd",
      "from": "0xb7d030f7c6406446e703e73b3d1dd8611a2d87b6",
      "to": "0xf9ae127989ec2c8d683a0605a6dec973f4b57d9b",
      "contractAddress": null,
      "l1BaseFeeScalar": "0x3f4",
      "l1BlobBaseFee": "0x1",
      "l1BlobBaseFeeScalar": "0x941ad",
      "l1Fee": "0x477b20e2",
      "l1GasPrice": "0x2c2556b1",
      "l1GasUsed": "0x640"
    },
    {
      "status": "0x1",
      "cumulativeGasUsed": "0x127fa0",
      "logs": [
        {
          "address": "0xf9ae127989ec2c8d683a0605a6dec973f4b57d9b",
          "topics": [
            "0xddf252ad1be2c89b69c2b068fc378daa952ba7f163c4a11628f55a4df523b3ef",
            "0x0000000000000000000000000000000000000000000000000000000000000000",
            "0x00000000000000000000000066e675533020c3cdee2f33e372320b7e2692211e"
          ],
          "data": "0x00000000000000000000000000000000000000000000000000000002540be400",
          "blockHash": "0x436f9d9de25b727b504f6f42c7594d9b17a3879ef8d536a2b742c153cdac5ad8",
          "blockNumber": "0xf1a7d6",
          "transactionHash": "0x6391565ed482cdba6c475f898c934ed5b2769e2adb1b380061c1f561c40e0234",
          "transactionIndex": "0xa",
          "logIndex": "0x9",
          "removed": false
        }
      ],
      "logsBloom": "0x00000000000000000000000000000000000000000000000000000000001000000000000000000000000000000000000000000000000000000000000000000000000000000000000000000008000008000000000000000200000000000000000000000000020000000000000000000800000000000000000000000010000000000000000000000000000000000000000000000000002000000000000000000000000000000000000000000000000000000000000000000000020000000000000000000002000000000000000000000000000000000000000000000000000020000000000000000000000000000000000000000000000020000000000000000000",
      "type": "0x2",
      "transactionHash": "0x6391565ed482cdba6c475f898c934ed5b2769e2adb1b380061c1f561c40e0234",
      "transactionIndex": "0xa",
      "blockHash": "0x436f9d9de25b727b504f6f42c7594d9b17a3879ef8d536a2b742c153cdac5ad8",
      "blockNumber": "0xf1a7d6",
      "gasUsed": "0xd113",
      "effectiveGasPrice": "0xfd",
      "from": "0xb7d030f7c6406446e703e73b3d1dd8611a2d87b6",
      "to": "0xf9ae127989ec2c8d683a0605a6dec973f4b57d9b",
      "contractAddress": null,
      "l1BaseFeeScalar": "0x3f4",
      "l1BlobBaseFee": "0x1",
      "l1BlobBaseFeeScalar": "0x941ad",
      "l1Fee": "0x477b20e2",
      "l1GasPrice": "0x2c2556b1",
      "l1GasUsed": "0x640"
    },
    {
      "status": "0x1",
      "cumulativeGasUsed": "0x1350b3",
      "logs": [
        {
          "address": "0xf9ae127989ec2c8d683a0605a6dec973f4b57d9b",
          "topics": [
            "0xddf252ad1be2c89b69c2b068fc378daa952ba7f163c4a11628f55a4df523b3ef",
            "0x0000000000000000000000000000000000000000000000000000000000000000",
            "0x0000000000000000000000008c4eb6988a199dabcae0ce31052b3f3ac591787e"
          ],
          "data": "0x00000000000000000000000000000000000000000000000000000002540be400",
          "blockHash": "0x436f9d9de25b727b504f6f42c7594d9b17a3879ef8d536a2b742c153cdac5ad8",
          "blockNumber": "0xf1a7d6",
          "transactionHash": "0x001492c74db127d98fa490609c1998564e8c430f5329b9cad461f03b18f0f562",
          "transactionIndex": "0xb",
          "logIndex": "0xa",
          "removed": false
        }
      ],
      "logsBloom": "0x00000000000000000000000000000000000000000000000000000000000000000000000000000000000000000000000000000000000040000000000000000000000000000000000000000008000000000000000000000200000000000000000000000000020000000000000000000800000000000000000000000010000000000000000100000000000000000000000000000000000000000000000000000000000000000000000000000000000001000000000000000000020000000000000000000002000000000000000000000000000000000000000000000000000020000000000000000000000000000000000000000000000020000000000000000000",
      "type": "0x2",
      "transactionHash": "0x001492c74db127d98fa490609c1998564e8c430f5329b9cad461f03b18f0f562",
      "transactionIndex": "0xb",
      "blockHash": "0x436f9d9de25b727b504f6f42c7594d9b17a3879ef8d536a2b742c153cdac5ad8",
      "blockNumber": "0xf1a7d6",
      "gasUsed": "0xd113",
      "effectiveGasPrice": "0xfd",
      "from": "0xb7d030f7c6406446e703e73b3d1dd8611a2d87b6",
      "to": "0xf9ae127989ec2c8d683a0605a6dec973f4b57d9b",
      "contractAddress": null,
      "l1BaseFeeScalar": "0x3f4",
      "l1BlobBaseFee": "0x1",
      "l1BlobBaseFeeScalar": "0x941ad",
      "l1Fee": "0x477b20e2",
      "l1GasPrice": "0x2c2556b1",
      "l1GasUsed": "0x640"
    },
    {
      "status": "0x1",
      "cumulativeGasUsed": "0x14e534",
      "logs": [
        {
          "address": "0x10b3feaf1012e82d8ad0bea45857fc35f72e165e",
          "topics": [
            "0xb0377b4035c2bd5b6aeb3eb7f139162c730ea47b957e4354f8a81ebb99573dec"
          ],
          "data": "0x00000000000000000000000000000000000000000000000000000000000000400000000000000000000000007b557f0992eca62ce4b00a96c9400f69cdbbed55000000000000000000000000000000000000000000000000000000000000000a544f4b454e5f5553445400000000000000000000000000000000000000000000",
          "blockHash": "0x436f9d9de25b727b504f6f42c7594d9b17a3879ef8d536a2b742c153cdac5ad8",
          "blockNumber": "0xf1a7d6",
          "transactionHash": "0x9a2855ca37db033483e6ac433f1fc62fada27a8b405f91bb2fd58f89017a450f",
          "transactionIndex": "0xc",
          "logIndex": "0xb",
          "removed": false
        },
        {
          "address": "0x10b3feaf1012e82d8ad0bea45857fc35f72e165e",
          "topics": [
            "0xb0377b4035c2bd5b6aeb3eb7f139162c730ea47b957e4354f8a81ebb99573dec"
          ],
          "data": "0x00000000000000000000000000000000000000000000000000000000000000400000000000000000000000008431483c91c856dce2d8e07ad5b1b587ad5df44d000000000000000000000000000000000000000000000000000000000000000a544f4b454e5f5553444300000000000000000000000000000000000000000000",
          "blockHash": "0x436f9d9de25b727b504f6f42c7594d9b17a3879ef8d536a2b742c153cdac5ad8",
          "blockNumber": "0xf1a7d6",
          "transactionHash": "0x9a2855ca37db033483e6ac433f1fc62fada27a8b405f91bb2fd58f89017a450f",
          "transactionIndex": "0xc",
          "logIndex": "0xc",
          "removed": false
        },
        {
          "address": "0x10b3feaf1012e82d8ad0bea45857fc35f72e165e",
          "topics": [
            "0xb0377b4035c2bd5b6aeb3eb7f139162c730ea47b957e4354f8a81ebb99573dec"
          ],
          "data": "0x0000000000000000000000000000000000000000000000000000000000000040000000000000000000000000f9ae127989ec2c8d683a0605a6dec973f4b57d9b000000000000000000000000000000000000000000000000000000000000000a544f4b454e5f5742544300000000000000000000000000000000000000000000",
          "blockHash": "0x436f9d9de25b727b504f6f42c7594d9b17a3879ef8d536a2b742c153cdac5ad8",
          "blockNumber": "0xf1a7d6",
          "transactionHash": "0x9a2855ca37db033483e6ac433f1fc62fada27a8b405f91bb2fd58f89017a450f",
          "transactionIndex": "0xc",
          "logIndex": "0xd",
          "removed": false
        }
      ],
      "logsBloom": "0x00000000000000000000000000000000000000000000000000000000000000000000000000000000000000000000000000000000000000000000000004000000000000000000000000000000000000000000000000000000000000000000000000000000000000000000000000000000000000000000000000000000000000000000000000000000000000000000000000000000000000000000000000000000000000000000000000000000000000004000000000000000000000000000080000000000000000000000000000000000004000000000000000000000000000000000000000000000000000000000000000000400000000000000000004000000",
      "type": "0x2",
      "transactionHash": "0x9a2855ca37db033483e6ac433f1fc62fada27a8b405f91bb2fd58f89017a450f",
      "transactionIndex": "0xc",
      "blockHash": "0x436f9d9de25b727b504f6f42c7594d9b17a3879ef8d536a2b742c153cdac5ad8",
      "blockNumber": "0xf1a7d6",
      "gasUsed": "0x19481",
      "effectiveGasPrice": "0xfd",
      "from": "0xb7d030f7c6406446e703e73b3d1dd8611a2d87b6",
      "to": "0x10b3feaf1012e82d8ad0bea45857fc35f72e165e",
      "contractAddress": null,
      "l1BaseFeeScalar": "0x3f4",
      "l1BlobBaseFee": "0x1",
      "l1BlobBaseFeeScalar": "0x941ad",
      "l1Fee": "0x85fe105f",
      "l1GasPrice": "0x2c2556b1",
      "l1GasUsed": "0xbb7"
    }
  ],
  "libraries": [],
  "pending": [],
  "returns": {},
  "timestamp": 1729754374,
  "chain": 999999999,
  "commit": "7f9b915"
}