{
  "transactions": [
    {
      "hash": "0xf7e00fb90d2c65c7229f3100a9c9551c1539deb0efdb46872f9657797edb426d",
      "transactionType": "CALL",
      "contractName": null,
      "contractAddress": "0x36f7edebdb8e926649ae88e2be4a204b7e8a172b",
      "function": "setFeePerSponsorTicket(uint256)",
      "arguments": [
        "3500000000000"
      ],
      "transaction": {
        "from": "0xf53f105e90b3e9ea928926a5a78e921d8168e213",
        "to": "0x36f7edebdb8e926649ae88e2be4a204b7e8a172b",
        "gas": "0x13b64",
        "value": "0x0",
        "input": "0x149caac80000000000000000000000000000000000000000000000000000032ee841b800",
        "nonce": "0x2f",
        "chainId": "0xa4b1"
      },
      "additionalContracts": [],
      "isFixedGasLimit": false
    }
  ],
  "receipts": [
    {
      "status": "0x1",
      "cumulativeGasUsed": "0x1e882",
      "logs": [
        {
          "address": "0x36f7edebdb8e926649ae88e2be4a204b7e8a172b",
          "topics": [
            "0xc213c63ebbcc7cf00b0153c23fbac46f00d360b97b2a9b8f14174cdb9fa635de"
          ],
          "data": "0x0000000000000000000000000000000000000000000000000000032ee841b800",
          "blockHash": "0xfe6d6499a449c312ddaa7c76bf45f505c7ed9fc5e57c770056d82ad6f3503017",
          "blockNumber": "0xe11a3b6",
          "transactionHash": "0xf7e00fb90d2c65c7229f3100a9c9551c1539deb0efdb46872f9657797edb426d",
          "transactionIndex": "0x2",
          "logIndex": "0x0",
          "removed": false
        }
      ],
      "logsBloom": "0x00000000080000000000000000000000000000000000000000000000000000000000000000000000000000000000000000000000000000000000000000020000000000000000000000000000000000000000000000000000000000000000000000000200000000000000000000000000000000000000000000000000000000000000000000000000000000000000000000000000000000000000000000000000800000000000000000000000000000000000000000000000000000000000000000000000000000000000040000020000000000000000000000000000000000000000000000000000000000000000000000000000000000000000000000000000",
      "type": "0x2",
      "transactionHash": "0xf7e00fb90d2c65c7229f3100a9c9551c1539deb0efdb46872f9657797edb426d",
      "transactionIndex": "0x2",
      "blockHash": "0xfe6d6499a449c312ddaa7c76bf45f505c7ed9fc5e57c770056d82ad6f3503017",
      "blockNumber": "0xe11a3b6",
      "gasUsed": "0xd0a4",
      "effectiveGasPrice": "0x989680",
      "from": "0xf53f105e90b3e9ea928926a5a78e921d8168e213",
      "to": "0x36f7edebdb8e926649ae88e2be4a204b7e8a172b",
      "contractAddress": null,
      "gasUsedForL1": "0x5b7d",
      "l1BlockNumber": "0x1371255"
    }
  ],
  "libraries": [],
  "pending": [],
  "returns": {},
  "timestamp": 1721944649,
  "chain": 42161,
  "commit": "8895c4a"
}