{
  "transactions": [
    {
      "hash": "0x9a63fdf48db16422ef12599511435f3f816fb6e77bf987633e760ee512ddcbd7",
      "transactionType": "CALL",
      "contractName": null,
      "contractAddress": "0x27720bf7cfc25390067b6a7469af84f37fc8c589",
      "function": "setExecutor(address,bool)",
      "arguments": [
        "0x08E3dBFCF164Df355E36B65B4e71D9E66483e083",
        "true"
      ],
      "transaction": {
        "from": "0xb7d030f7c6406446e703e73b3d1dd8611a2d87b6",
        "to": "0x27720bf7cfc25390067b6a7469af84f37fc8c589",
        "gas": "0x10128",
        "value": "0x0",
        "input": "0x1e1bff3f00000000000000000000000008e3dbfcf164df355e36b65b4e71d9e66483e0830000000000000000000000000000000000000000000000000000000000000001",
        "nonce": "0x5e",
        "chainId": "0x18230"
      },
      "additionalContracts": [],
      "isFixedGasLimit": false
    }
  ],
  "receipts": [
    {
      "status": "0x1",
      "cumulativeGasUsed": "0xba2e",
      "logs": [
        {
          "address": "0x27720bf7cfc25390067b6a7469af84f37fc8c589",
          "topics": [
            "0x9fdbc2d48b8a0db2f62663bf9312ad02f5b1f6414ad600b55a247d09aeec3ea2"
          ],
          "data": "0x00000000000000000000000008e3dbfcf164df355e36b65b4e71d9e66483e0830000000000000000000000000000000000000000000000000000000000000001",
          "blockHash": "0x8e4e731461281eb25c22778dcc250cd781baa3eeb4784b48b1ca8fd1671c1f79",
          "blockNumber": "0x1043b8",
          "transactionHash": "0x9a63fdf48db16422ef12599511435f3f816fb6e77bf987633e760ee512ddcbd7",
          "transactionIndex": "0x1",
          "logIndex": "0x0",
          "removed": false
        }
      ],
      "logsBloom": "0x00000000000000000000000000000000100000000000000020000000000000000000000100000000000000000000000000000000000000000000000000000000000000000000000000000000000000000000000000000000000000000000000000000000000000000000000000000000000000000000000000000000000000000000000000000000000000000000000000000000200000000000000000000000000000000000000000000000000000000000000000000000000000000000000000000000000000000000000000000000000000000000000000000000000000000000000000000000000000000100000000000000000000000000000040000000",
      "type": "0x2",
      "transactionHash": "0x9a63fdf48db16422ef12599511435f3f816fb6e77bf987633e760ee512ddcbd7",
      "transactionIndex": "0x1",
      "blockHash": "0x8e4e731461281eb25c22778dcc250cd781baa3eeb4784b48b1ca8fd1671c1f79",
      "blockNumber": "0x1043b8",
      "gasUsed": "0xba2e",
      "effectiveGasPrice": "0x989680",
      "from": "0xb7d030f7c6406446e703e73b3d1dd8611a2d87b6",
      "to": "0x27720bf7cfc25390067b6a7469af84f37fc8c589",
      "contractAddress": null,
      "gasUsedForL1": "0x0",
      "l1BlockNumber": "0x6a7076"
    }
  ],
  "libraries": [],
  "pending": [],
  "returns": {},
  "timestamp": 1730278601,
  "chain": 98864,
  "commit": "d5ea916"
}