{
  "transactions": [
    {
      "hash": "0xe95255074a4fe7a672a9c805b8472177fcb35ebf9e49d6afd991e0430f9c645e",
      "transactionType": "CALL",
      "contractName": null,
      "contractAddress": "0x496c4f369566b265dfba3df9ac6c6aca96a13792",
      "function": "setExecutor(address,bool)",
      "arguments": [
        "0x08E3dBFCF164Df355E36B65B4e71D9E66483e083",
        "true"
      ],
      "transaction": {
        "from": "0xb7d030f7c6406446e703e73b3d1dd8611a2d87b6",
        "to": "0x496c4f369566b265dfba3df9ac6c6aca96a13792",
        "gas": "0x10128",
        "value": "0x0",
        "input": "0x1e1bff3f00000000000000000000000008e3dbfcf164df355e36b65b4e71d9e66483e0830000000000000000000000000000000000000000000000000000000000000001",
        "nonce": "0x5f",
        "chainId": "0x18230"
      },
      "additionalContracts": [],
      "isFixedGasLimit": false
    }
  ],
  "receipts": [
    {
      "status": "0x1",
      "cumulativeGasUsed": "0xba2e",
      "logs": [
        {
          "address": "0x496c4f369566b265dfba3df9ac6c6aca96a13792",
          "topics": [
            "0x9fdbc2d48b8a0db2f62663bf9312ad02f5b1f6414ad600b55a247d09aeec3ea2"
          ],
          "data": "0x00000000000000000000000008e3dbfcf164df355e36b65b4e71d9e66483e0830000000000000000000000000000000000000000000000000000000000000001",
          "blockHash": "0x1ec44ca4a06778d1f0ddfb53bcc6cb2647093a41aa12f55e77960895647bc220",
          "blockNumber": "0x10440f",
          "transactionHash": "0xe95255074a4fe7a672a9c805b8472177fcb35ebf9e49d6afd991e0430f9c645e",
          "transactionIndex": "0x1",
          "logIndex": "0x0",
          "removed": false
        }
      ],
      "logsBloom": "0x00000000000000000000000000000000100000000000000020000000000000000000000000000000000000000000000000000000000000000000000000000000000000000000000000000000000000040000000000000000000000000000000000000000000000000000000000000000020000000000000000000000000000000000000000000000000000000000000000000000000080000000000000000000000000000000000000000000000000000000000000000000000000000000000000000000000000000000000000000000000000000000000000000000000000000000000000000000000000000000000000000000000000000000000040000000",
      "type": "0x2",
      "transactionHash": "0xe95255074a4fe7a672a9c805b8472177fcb35ebf9e49d6afd991e0430f9c645e",
      "transactionIndex": "0x1",
      "blockHash": "0x1ec44ca4a06778d1f0ddfb53bcc6cb2647093a41aa12f55e77960895647bc220",
      "blockNumber": "0x10440f",
      "gasUsed": "0xba2e",
      "effectiveGasPrice": "0x989680",
      "from": "0xb7d030f7c6406446e703e73b3d1dd8611a2d87b6",
      "to": "0x496c4f369566b265dfba3df9ac6c6aca96a13792",
      "contractAddress": null,
      "gasUsedForL1": "0x0",
      "l1BlockNumber": "0x6a707a"
    }
  ],
  "libraries": [],
  "pending": [],
  "returns": {},
  "timestamp": 1730278646,
  "chain": 98864,
  "commit": "d5ea916"
}