{
  "transactions": [
    {
      "hash": "0xbae81c20e09e3ffc5cab9af9ca3d1de32e5ed9c48e182f369a648f5c0b859d39",
      "transactionType": "CREATE",
      "contractName": null,
      "contractAddress": "0xccff7b06b528a469808ee592dd345ade04b873ba",
      "function": null,
      "arguments": null,
      "transaction": {
        "from": "0xb7d030f7c6406446e703e73b3d1dd8611a2d87b6",
        "gas": "0xd1214",
        "value": "0x0",
        "input": "0x608060405234801562000010575f80fd5b5060405162000cd938038062000cd98339810160408190526200003391620001a8565b8282826003620000448382620002b8565b506004620000538282620002b8565b5050506001600160a01b0381166200008457604051631e4fbdf760e01b81525f600482015260240160405180910390fd5b6200008f8162000099565b5050505062000380565b600580546001600160a01b038381166001600160a01b0319831681179093556040519116919082907f8be0079c531659141344cd1fd0a4f28419497f9722a3daafe3b4186f6b6457e0905f90a35050565b634e487b7160e01b5f52604160045260245ffd5b5f82601f8301126200010e575f80fd5b81516001600160401b03808211156200012b576200012b620000ea565b604051601f8301601f19908116603f01168101908282118183101715620001565762000156620000ea565b8160405283815260209250868385880101111562000172575f80fd5b5f91505b8382101562000195578582018301518183018401529082019062000176565b5f93810190920192909252949350505050565b5f805f60608486031215620001bb575f80fd5b83516001600160a01b0381168114620001d2575f80fd5b60208501519093506001600160401b0380821115620001ef575f80fd5b620001fd87838801620000fe565b9350604086015191508082111562000213575f80fd5b506200022286828701620000fe565b9150509250925092565b600181811c908216806200024157607f821691505b6020821081036200026057634e487b7160e01b5f52602260045260245ffd5b50919050565b601f821115620002b3575f81815260208120601f850160051c810160208610156200028e5750805b601f850160051c820191505b81811015620002af578281556001016200029a565b5050505b505050565b81516001600160401b03811115620002d457620002d4620000ea565b620002ec81620002e584546200022c565b8462000266565b602080601f83116001811462000322575f84156200030a5750858301515b5f19600386901b1c1916600185901b178555620002af565b5f85815260208120601f198616915b82811015620003525788860151825594840194600190910190840162000331565b50858210156200037057878501515f19600388901b60f8161c191681555b5050505050600190811b01905550565b61094b806200038e5f395ff3fe608060405234801561000f575f80fd5b50600436106100f0575f3560e01c806370a082311161009357806395d89b411161006357806395d89b41146101ef578063a9059cbb146101f7578063dd62ed3e1461020a578063f2fde38b14610242575f80fd5b806370a0823114610191578063715018a6146101b957806379cc6790146101c15780638da5cb5b146101d4575f80fd5b806323b872dd116100ce57806323b872dd14610147578063313ce5671461015a57806340c10f191461016957806342966c681461017e575f80fd5b806306fdde03146100f4578063095ea7b31461011257806318160ddd14610135575b5f80fd5b6100fc610255565b604051610109919061078f565b60405180910390f35b6101256101203660046107f5565b6102e5565b6040519015158152602001610109565b6002545b604051908152602001610109565b61012561015536600461081d565b6102fe565b60405160128152602001610109565b61017c6101773660046107f5565b610321565b005b61017c61018c366004610856565b610337565b61013961019f36600461086d565b6001600160a01b03165f9081526020819052604090205490565b61017c610344565b61017c6101cf3660046107f5565b610357565b6005546040516001600160a01b039091168152602001610109565b6100fc61036c565b6101256102053660046107f5565b61037b565b61013961021836600461088d565b6001600160a01b039182165f90815260016020908152604080832093909416825291909152205490565b61017c61025036600461086d565b610388565b606060038054610264906108be565b80601f0160208091040260200160405190810160405280929190818152602001828054610290906108be565b80156102db5780601f106102b2576101008083540402835291602001916102db565b820191905f5260205f20905b8154815290600101906020018083116102be57829003601f168201915b5050505050905090565b5f336102f28185856103c7565b60019150505b92915050565b5f3361030b8582856103d9565b610316858585610454565b506001949350505050565b6103296104b1565b61033382826104de565b5050565b6103413382610512565b50565b61034c6104b1565b6103555f610546565b565b6103628233836103d9565b6103338282610512565b606060048054610264906108be565b5f336102f2818585610454565b6103906104b1565b6001600160a01b0381166103be57604051631e4fbdf760e01b81525f60048201526024015b60405180910390fd5b61034181610546565b6103d48383836001610597565b505050565b6001600160a01b038381165f908152600160209081526040808320938616835292905220545f19811461044e578181101561044057604051637dc7a0d960e11b81526001600160a01b038416600482015260248101829052604481018390526064016103b5565b61044e84848484035f610597565b50505050565b6001600160a01b03831661047d57604051634b637e8f60e11b81525f60048201526024016103b5565b6001600160a01b0382166104a65760405163ec442f0560e01b81525f60048201526024016103b5565b6103d4838383610669565b6005546001600160a01b031633146103555760405163118cdaa760e01b81523360048201526024016103b5565b6001600160a01b0382166105075760405163ec442f0560e01b81525f60048201526024016103b5565b6103335f8383610669565b6001600160a01b03821661053b57604051634b637e8f60e11b81525f60048201526024016103b5565b610333825f83610669565b600580546001600160a01b038381166001600160a01b0319831681179093556040519116919082907f8be0079c531659141344cd1fd0a4f28419497f9722a3daafe3b4186f6b6457e0905f90a35050565b6001600160a01b0384166105c05760405163e602df0560e01b81525f60048201526024016103b5565b6001600160a01b0383166105e957604051634a1406b160e11b81525f60048201526024016103b5565b6001600160a01b038085165f908152600160209081526040808320938716835292905220829055801561044e57826001600160a01b0316846001600160a01b03167f8c5be1e5ebec7d5bd14f71427d1e84f3dd0314c0f7b2291e5b200ac8c7c3b9258460405161065b91815260200190565b60405180910390a350505050565b6001600160a01b038316610693578060025f82825461068891906108f6565b909155506107039050565b6001600160a01b0383165f90815260208190526040902054818110156106e55760405163391434e360e21b81526001600160a01b038516600482015260248101829052604481018390526064016103b5565b6001600160a01b0384165f9081526020819052604090209082900390555b6001600160a01b03821661071f5760028054829003905561073d565b6001600160a01b0382165f9081526020819052604090208054820190555b816001600160a01b0316836001600160a01b03167fddf252ad1be2c89b69c2b068fc378daa952ba7f163c4a11628f55a4df523b3ef8360405161078291815260200190565b60405180910390a3505050565b5f6020808352835180828501525f5b818110156107ba5785810183015185820160400152820161079e565b505f604082860101526040601f19601f8301168501019250505092915050565b80356001600160a01b03811681146107f0575f80fd5b919050565b5f8060408385031215610806575f80fd5b61080f836107da565b946020939093013593505050565b5f805f6060848603121561082f575f80fd5b610838846107da565b9250610846602085016107da565b9150604084013590509250925092565b5f60208284031215610866575f80fd5b5035919050565b5f6020828403121561087d575f80fd5b610886826107da565b9392505050565b5f806040838503121561089e575f80fd5b6108a7836107da565b91506108b5602084016107da565b90509250929050565b600181811c908216806108d257607f821691505b6020821081036108f057634e487b7160e01b5f52602260045260245ffd5b50919050565b808201808211156102f857634e487b7160e01b5f52601160045260245ffdfea2646970667358221220d4345b66bfb7412d2ea509531419dca8158f537841ee0d9aa80e3d80c30a67d364736f6c63430008140033000000000000000000000000b7d030f7c6406446e703e73b3d1dd8611a2d87b6000000000000000000000000000000000000000000000000000000000000006000000000000000000000000000000000000000000000000000000000000000a0000000000000000000000000000000000000000000000000000000000000000a546574686572205553440000000000000000000000000000000000000000000000000000000000000000000000000000000000000000000000000000000000045553445400000000000000000000000000000000000000000000000000000000",
        "nonce": "0xa8",
        "chainId": "0x66eee"
      },
      "additionalContracts": [],
      "isFixedGasLimit": false
    },
    {
      "hash": "0x1ee1c815d45924a18e6b66e1876a7deb65f2e4cf9777362789795e0d09826764",
      "transactionType": "CALL",
      "contractName": null,
      "contractAddress": "0xccff7b06b528a469808ee592dd345ade04b873ba",
      "function": "mint(address,uint256)",
      "arguments": [
        "0xB7d030F7c6406446e703E73B3d1dd8611A2D87b6",
        "1000000000000"
      ],
      "transaction": {
        "from": "0xb7d030f7c6406446e703e73b3d1dd8611a2d87b6",
        "to": "0xccff7b06b528a469808ee592dd345ade04b873ba",
        "gas": "0x6e92",
        "value": "0x0",
        "input": "0x40c10f19000000000000000000000000b7d030f7c6406446e703e73b3d1dd8611a2d87b6000000000000000000000000000000000000000000000000000000e8d4a51000",
        "nonce": "0xa9",
        "chainId": "0x66eee"
      },
      "additionalContracts": [],
      "isFixedGasLimit": false
    },
    {
      "hash": "0xbdc5f33259f52f86777f49ef0f49577db3beb69d516a82f0739a1e1e3d9ca68a",
      "transactionType": "CALL",
      "contractName": null,
      "contractAddress": "0xccff7b06b528a469808ee592dd345ade04b873ba",
      "function": "mint(address,uint256)",
      "arguments": [
        "0x4F88F1014Dd6Ca0507780380111c098BeE6b87e6",
        "1000000000000"
      ],
      "transaction": {
        "from": "0xb7d030f7c6406446e703e73b3d1dd8611a2d87b6",
        "to": "0xccff7b06b528a469808ee592dd345ade04b873ba",
        "gas": "0x6e92",
        "value": "0x0",
        "input": "0x40c10f190000000000000000000000004f88f1014dd6ca0507780380111c098bee6b87e6000000000000000000000000000000000000000000000000000000e8d4a51000",
        "nonce": "0xaa",
        "chainId": "0x66eee"
      },
      "additionalContracts": [],
      "isFixedGasLimit": false
    },
    {
      "hash": "0x18d097df2a015d5b9c9f27ba3fc3b389e1176fe5882fddab8b545404e0c82678",
      "transactionType": "CALL",
      "contractName": null,
      "contractAddress": "0xccff7b06b528a469808ee592dd345ade04b873ba",
      "function": "mint(address,uint256)",
      "arguments": [
        "0xC31f6b8133d618aD2ff1AC5fAA3Fc4B20557B901",
        "1000000000000"
      ],
      "transaction": {
        "from": "0xb7d030f7c6406446e703e73b3d1dd8611a2d87b6",
        "to": "0xccff7b06b528a469808ee592dd345ade04b873ba",
        "gas": "0x6e92",
        "value": "0x0",
        "input": "0x40c10f19000000000000000000000000c31f6b8133d618ad2ff1ac5faa3fc4b20557b901000000000000000000000000000000000000000000000000000000e8d4a51000",
        "nonce": "0xab",
        "chainId": "0x66eee"
      },
      "additionalContracts": [],
      "isFixedGasLimit": false
    },
    {
      "hash": "0xc6fdc438ead89976265fae47204809ed4c68629b0e92961c7189e990df4d0369",
      "transactionType": "CALL",
      "contractName": null,
      "contractAddress": "0xccff7b06b528a469808ee592dd345ade04b873ba",
      "function": "mint(address,uint256)",
      "arguments": [
        "0x66E675533020c3CDeE2F33E372320B7e2692211e",
        "1000000000000"
      ],
      "transaction": {
        "from": "0xb7d030f7c6406446e703e73b3d1dd8611a2d87b6",
        "to": "0xccff7b06b528a469808ee592dd345ade04b873ba",
        "gas": "0x6e92",
        "value": "0x0",
        "input": "0x40c10f1900000000000000000000000066e675533020c3cdee2f33e372320b7e2692211e000000000000000000000000000000000000000000000000000000e8d4a51000",
        "nonce": "0xac",
        "chainId": "0x66eee"
      },
      "additionalContracts": [],
      "isFixedGasLimit": false
    },
    {
      "hash": "0x93121e6ad4024b63ca1f238e41af63bd20d26b11f44a99746627078efd4ceb9c",
      "transactionType": "CREATE",
      "contractName": null,
      "contractAddress": "0xdc486948f546368deeda3e6d4f9a15198aa3e2af",
      "function": null,
      "arguments": null,
      "transaction": {
        "from": "0xb7d030f7c6406446e703e73b3d1dd8611a2d87b6",
        "gas": "0xd11f4",
        "value": "0x0",
        "input": "0x608060405234801562000010575f80fd5b5060405162000cd938038062000cd98339810160408190526200003391620001a8565b8282826003620000448382620002b8565b506004620000538282620002b8565b5050506001600160a01b0381166200008457604051631e4fbdf760e01b81525f600482015260240160405180910390fd5b6200008f8162000099565b5050505062000380565b600580546001600160a01b038381166001600160a01b0319831681179093556040519116919082907f8be0079c531659141344cd1fd0a4f28419497f9722a3daafe3b4186f6b6457e0905f90a35050565b634e487b7160e01b5f52604160045260245ffd5b5f82601f8301126200010e575f80fd5b81516001600160401b03808211156200012b576200012b620000ea565b604051601f8301601f19908116603f01168101908282118183101715620001565762000156620000ea565b8160405283815260209250868385880101111562000172575f80fd5b5f91505b8382101562000195578582018301518183018401529082019062000176565b5f93810190920192909252949350505050565b5f805f60608486031215620001bb575f80fd5b83516001600160a01b0381168114620001d2575f80fd5b60208501519093506001600160401b0380821115620001ef575f80fd5b620001fd87838801620000fe565b9350604086015191508082111562000213575f80fd5b506200022286828701620000fe565b9150509250925092565b600181811c908216806200024157607f821691505b6020821081036200026057634e487b7160e01b5f52602260045260245ffd5b50919050565b601f821115620002b3575f81815260208120601f850160051c810160208610156200028e5750805b601f850160051c820191505b81811015620002af578281556001016200029a565b5050505b505050565b81516001600160401b03811115620002d457620002d4620000ea565b620002ec81620002e584546200022c565b8462000266565b602080601f83116001811462000322575f84156200030a5750858301515b5f19600386901b1c1916600185901b178555620002af565b5f85815260208120601f198616915b82811015620003525788860151825594840194600190910190840162000331565b50858210156200037057878501515f19600388901b60f8161c191681555b5050505050600190811b01905550565b61094b806200038e5f395ff3fe608060405234801561000f575f80fd5b50600436106100f0575f3560e01c806370a082311161009357806395d89b411161006357806395d89b41146101ef578063a9059cbb146101f7578063dd62ed3e1461020a578063f2fde38b14610242575f80fd5b806370a0823114610191578063715018a6146101b957806379cc6790146101c15780638da5cb5b146101d4575f80fd5b806323b872dd116100ce57806323b872dd14610147578063313ce5671461015a57806340c10f191461016957806342966c681461017e575f80fd5b806306fdde03146100f4578063095ea7b31461011257806318160ddd14610135575b5f80fd5b6100fc610255565b604051610109919061078f565b60405180910390f35b6101256101203660046107f5565b6102e5565b6040519015158152602001610109565b6002545b604051908152602001610109565b61012561015536600461081d565b6102fe565b60405160128152602001610109565b61017c6101773660046107f5565b610321565b005b61017c61018c366004610856565b610337565b61013961019f36600461086d565b6001600160a01b03165f9081526020819052604090205490565b61017c610344565b61017c6101cf3660046107f5565b610357565b6005546040516001600160a01b039091168152602001610109565b6100fc61036c565b6101256102053660046107f5565b61037b565b61013961021836600461088d565b6001600160a01b039182165f90815260016020908152604080832093909416825291909152205490565b61017c61025036600461086d565b610388565b606060038054610264906108be565b80601f0160208091040260200160405190810160405280929190818152602001828054610290906108be565b80156102db5780601f106102b2576101008083540402835291602001916102db565b820191905f5260205f20905b8154815290600101906020018083116102be57829003601f168201915b5050505050905090565b5f336102f28185856103c7565b60019150505b92915050565b5f3361030b8582856103d9565b610316858585610454565b506001949350505050565b6103296104b1565b61033382826104de565b5050565b6103413382610512565b50565b61034c6104b1565b6103555f610546565b565b6103628233836103d9565b6103338282610512565b606060048054610264906108be565b5f336102f2818585610454565b6103906104b1565b6001600160a01b0381166103be57604051631e4fbdf760e01b81525f60048201526024015b60405180910390fd5b61034181610546565b6103d48383836001610597565b505050565b6001600160a01b038381165f908152600160209081526040808320938616835292905220545f19811461044e578181101561044057604051637dc7a0d960e11b81526001600160a01b038416600482015260248101829052604481018390526064016103b5565b61044e84848484035f610597565b50505050565b6001600160a01b03831661047d57604051634b637e8f60e11b81525f60048201526024016103b5565b6001600160a01b0382166104a65760405163ec442f0560e01b81525f60048201526024016103b5565b6103d4838383610669565b6005546001600160a01b031633146103555760405163118cdaa760e01b81523360048201526024016103b5565b6001600160a01b0382166105075760405163ec442f0560e01b81525f60048201526024016103b5565b6103335f8383610669565b6001600160a01b03821661053b57604051634b637e8f60e11b81525f60048201526024016103b5565b610333825f83610669565b600580546001600160a01b038381166001600160a01b0319831681179093556040519116919082907f8be0079c531659141344cd1fd0a4f28419497f9722a3daafe3b4186f6b6457e0905f90a35050565b6001600160a01b0384166105c05760405163e602df0560e01b81525f60048201526024016103b5565b6001600160a01b0383166105e957604051634a1406b160e11b81525f60048201526024016103b5565b6001600160a01b038085165f908152600160209081526040808320938716835292905220829055801561044e57826001600160a01b0316846001600160a01b03167f8c5be1e5ebec7d5bd14f71427d1e84f3dd0314c0f7b2291e5b200ac8c7c3b9258460405161065b91815260200190565b60405180910390a350505050565b6001600160a01b038316610693578060025f82825461068891906108f6565b909155506107039050565b6001600160a01b0383165f90815260208190526040902054818110156106e55760405163391434e360e21b81526001600160a01b038516600482015260248101829052604481018390526064016103b5565b6001600160a01b0384165f9081526020819052604090209082900390555b6001600160a01b03821661071f5760028054829003905561073d565b6001600160a01b0382165f9081526020819052604090208054820190555b816001600160a01b0316836001600160a01b03167fddf252ad1be2c89b69c2b068fc378daa952ba7f163c4a11628f55a4df523b3ef8360405161078291815260200190565b60405180910390a3505050565b5f6020808352835180828501525f5b818110156107ba5785810183015185820160400152820161079e565b505f604082860101526040601f19601f8301168501019250505092915050565b80356001600160a01b03811681146107f0575f80fd5b919050565b5f8060408385031215610806575f80fd5b61080f836107da565b946020939093013593505050565b5f805f6060848603121561082f575f80fd5b610838846107da565b9250610846602085016107da565b9150604084013590509250925092565b5f60208284031215610866575f80fd5b5035919050565b5f6020828403121561087d575f80fd5b610886826107da565b9392505050565b5f806040838503121561089e575f80fd5b6108a7836107da565b91506108b5602084016107da565b90509250929050565b600181811c908216806108d257607f821691505b6020821081036108f057634e487b7160e01b5f52602260045260245ffd5b50919050565b808201808211156102f857634e487b7160e01b5f52601160045260245ffdfea2646970667358221220d4345b66bfb7412d2ea509531419dca8158f537841ee0d9aa80e3d80c30a67d364736f6c63430008140033000000000000000000000000b7d030f7c6406446e703e73b3d1dd8611a2d87b6000000000000000000000000000000000000000000000000000000000000006000000000000000000000000000000000000000000000000000000000000000a0000000000000000000000000000000000000000000000000000000000000000855534420436f696e00000000000000000000000000000000000000000000000000000000000000000000000000000000000000000000000000000000000000045553444300000000000000000000000000000000000000000000000000000000",
        "nonce": "0xad",
        "chainId": "0x66eee"
      },
      "additionalContracts": [],
      "isFixedGasLimit": false
    },
    {
      "hash": "0x4057a55bcfa2a0dcb30a003486539d4ffb3a665efd372e5a9ed667122f95ee13",
      "transactionType": "CALL",
      "contractName": null,
      "contractAddress": "0xdc486948f546368deeda3e6d4f9a15198aa3e2af",
      "function": "mint(address,uint256)",
      "arguments": [
        "0xB7d030F7c6406446e703E73B3d1dd8611A2D87b6",
        "1000000000000"
      ],
      "transaction": {
        "from": "0xb7d030f7c6406446e703e73b3d1dd8611a2d87b6",
        "to": "0xdc486948f546368deeda3e6d4f9a15198aa3e2af",
        "gas": "0x6e92",
        "value": "0x0",
        "input": "0x40c10f19000000000000000000000000b7d030f7c6406446e703e73b3d1dd8611a2d87b6000000000000000000000000000000000000000000000000000000e8d4a51000",
        "nonce": "0xae",
        "chainId": "0x66eee"
      },
      "additionalContracts": [],
      "isFixedGasLimit": false
    },
    {
      "hash": "0x65fbef8b061bdae2d78ba3af4dd95417bae17564f4d91b44f53a96cbb47626f0",
      "transactionType": "CALL",
      "contractName": null,
      "contractAddress": "0xdc486948f546368deeda3e6d4f9a15198aa3e2af",
      "function": "mint(address,uint256)",
      "arguments": [
        "0x4F88F1014Dd6Ca0507780380111c098BeE6b87e6",
        "1000000000000"
      ],
      "transaction": {
        "from": "0xb7d030f7c6406446e703e73b3d1dd8611a2d87b6",
        "to": "0xdc486948f546368deeda3e6d4f9a15198aa3e2af",
        "gas": "0x6e92",
        "value": "0x0",
        "input": "0x40c10f190000000000000000000000004f88f1014dd6ca0507780380111c098bee6b87e6000000000000000000000000000000000000000000000000000000e8d4a51000",
        "nonce": "0xaf",
        "chainId": "0x66eee"
      },
      "additionalContracts": [],
      "isFixedGasLimit": false
    },
    {
      "hash": "0xf195add70cf1493549c7b8faac2c1b9bc746775f6407a79b9a547f68c5a98164",
      "transactionType": "CALL",
      "contractName": null,
      "contractAddress": "0xdc486948f546368deeda3e6d4f9a15198aa3e2af",
      "function": "mint(address,uint256)",
      "arguments": [
        "0xC31f6b8133d618aD2ff1AC5fAA3Fc4B20557B901",
        "1000000000000"
      ],
      "transaction": {
        "from": "0xb7d030f7c6406446e703e73b3d1dd8611a2d87b6",
        "to": "0xdc486948f546368deeda3e6d4f9a15198aa3e2af",
        "gas": "0x6e92",
        "value": "0x0",
        "input": "0x40c10f19000000000000000000000000c31f6b8133d618ad2ff1ac5faa3fc4b20557b901000000000000000000000000000000000000000000000000000000e8d4a51000",
        "nonce": "0xb0",
        "chainId": "0x66eee"
      },
      "additionalContracts": [],
      "isFixedGasLimit": false
    },
    {
      "hash": "0xb8c022f06e83b8420db14abb6c2f5b113ca9f90c7563f7a748541f150ff0a0e6",
      "transactionType": "CALL",
      "contractName": null,
      "contractAddress": "0xdc486948f546368deeda3e6d4f9a15198aa3e2af",
      "function": "mint(address,uint256)",
      "arguments": [
        "0x66E675533020c3CDeE2F33E372320B7e2692211e",
        "1000000000000"
      ],
      "transaction": {
        "from": "0xb7d030f7c6406446e703e73b3d1dd8611a2d87b6",
        "to": "0xdc486948f546368deeda3e6d4f9a15198aa3e2af",
        "gas": "0x6e92",
        "value": "0x0",
        "input": "0x40c10f1900000000000000000000000066e675533020c3cdee2f33e372320b7e2692211e000000000000000000000000000000000000000000000000000000e8d4a51000",
        "nonce": "0xb1",
        "chainId": "0x66eee"
      },
      "additionalContracts": [],
      "isFixedGasLimit": false
    },
    {
      "hash": "0x8cab4fa834f93cac2d44e882c4967a0dd7721e195f8e17a2b2769338537df600",
      "transactionType": "CREATE",
      "contractName": null,
      "contractAddress": "0x73eeefc220c91cddf1450f245441acdd1b1ad13a",
      "function": null,
      "arguments": null,
      "transaction": {
        "from": "0xb7d030f7c6406446e703e73b3d1dd8611a2d87b6",
        "gas": "0xd1224",
        "value": "0x0",
        "input": "0x608060405234801562000010575f80fd5b5060405162000cd938038062000cd98339810160408190526200003391620001a8565b8282826003620000448382620002b8565b506004620000538282620002b8565b5050506001600160a01b0381166200008457604051631e4fbdf760e01b81525f600482015260240160405180910390fd5b6200008f8162000099565b5050505062000380565b600580546001600160a01b038381166001600160a01b0319831681179093556040519116919082907f8be0079c531659141344cd1fd0a4f28419497f9722a3daafe3b4186f6b6457e0905f90a35050565b634e487b7160e01b5f52604160045260245ffd5b5f82601f8301126200010e575f80fd5b81516001600160401b03808211156200012b576200012b620000ea565b604051601f8301601f19908116603f01168101908282118183101715620001565762000156620000ea565b8160405283815260209250868385880101111562000172575f80fd5b5f91505b8382101562000195578582018301518183018401529082019062000176565b5f93810190920192909252949350505050565b5f805f60608486031215620001bb575f80fd5b83516001600160a01b0381168114620001d2575f80fd5b60208501519093506001600160401b0380821115620001ef575f80fd5b620001fd87838801620000fe565b9350604086015191508082111562000213575f80fd5b506200022286828701620000fe565b9150509250925092565b600181811c908216806200024157607f821691505b6020821081036200026057634e487b7160e01b5f52602260045260245ffd5b50919050565b601f821115620002b3575f81815260208120601f850160051c810160208610156200028e5750805b601f850160051c820191505b81811015620002af578281556001016200029a565b5050505b505050565b81516001600160401b03811115620002d457620002d4620000ea565b620002ec81620002e584546200022c565b8462000266565b602080601f83116001811462000322575f84156200030a5750858301515b5f19600386901b1c1916600185901b178555620002af565b5f85815260208120601f198616915b82811015620003525788860151825594840194600190910190840162000331565b50858210156200037057878501515f19600388901b60f8161c191681555b5050505050600190811b01905550565b61094b806200038e5f395ff3fe608060405234801561000f575f80fd5b50600436106100f0575f3560e01c806370a082311161009357806395d89b411161006357806395d89b41146101ef578063a9059cbb146101f7578063dd62ed3e1461020a578063f2fde38b14610242575f80fd5b806370a0823114610191578063715018a6146101b957806379cc6790146101c15780638da5cb5b146101d4575f80fd5b806323b872dd116100ce57806323b872dd14610147578063313ce5671461015a57806340c10f191461016957806342966c681461017e575f80fd5b806306fdde03146100f4578063095ea7b31461011257806318160ddd14610135575b5f80fd5b6100fc610255565b604051610109919061078f565b60405180910390f35b6101256101203660046107f5565b6102e5565b6040519015158152602001610109565b6002545b604051908152602001610109565b61012561015536600461081d565b6102fe565b60405160128152602001610109565b61017c6101773660046107f5565b610321565b005b61017c61018c366004610856565b610337565b61013961019f36600461086d565b6001600160a01b03165f9081526020819052604090205490565b61017c610344565b61017c6101cf3660046107f5565b610357565b6005546040516001600160a01b039091168152602001610109565b6100fc61036c565b6101256102053660046107f5565b61037b565b61013961021836600461088d565b6001600160a01b039182165f90815260016020908152604080832093909416825291909152205490565b61017c61025036600461086d565b610388565b606060038054610264906108be565b80601f0160208091040260200160405190810160405280929190818152602001828054610290906108be565b80156102db5780601f106102b2576101008083540402835291602001916102db565b820191905f5260205f20905b8154815290600101906020018083116102be57829003601f168201915b5050505050905090565b5f336102f28185856103c7565b60019150505b92915050565b5f3361030b8582856103d9565b610316858585610454565b506001949350505050565b6103296104b1565b61033382826104de565b5050565b6103413382610512565b50565b61034c6104b1565b6103555f610546565b565b6103628233836103d9565b6103338282610512565b606060048054610264906108be565b5f336102f2818585610454565b6103906104b1565b6001600160a01b0381166103be57604051631e4fbdf760e01b81525f60048201526024015b60405180910390fd5b61034181610546565b6103d48383836001610597565b505050565b6001600160a01b038381165f908152600160209081526040808320938616835292905220545f19811461044e578181101561044057604051637dc7a0d960e11b81526001600160a01b038416600482015260248101829052604481018390526064016103b5565b61044e84848484035f610597565b50505050565b6001600160a01b03831661047d57604051634b637e8f60e11b81525f60048201526024016103b5565b6001600160a01b0382166104a65760405163ec442f0560e01b81525f60048201526024016103b5565b6103d4838383610669565b6005546001600160a01b031633146103555760405163118cdaa760e01b81523360048201526024016103b5565b6001600160a01b0382166105075760405163ec442f0560e01b81525f60048201526024016103b5565b6103335f8383610669565b6001600160a01b03821661053b57604051634b637e8f60e11b81525f60048201526024016103b5565b610333825f83610669565b600580546001600160a01b038381166001600160a01b0319831681179093556040519116919082907f8be0079c531659141344cd1fd0a4f28419497f9722a3daafe3b4186f6b6457e0905f90a35050565b6001600160a01b0384166105c05760405163e602df0560e01b81525f60048201526024016103b5565b6001600160a01b0383166105e957604051634a1406b160e11b81525f60048201526024016103b5565b6001600160a01b038085165f908152600160209081526040808320938716835292905220829055801561044e57826001600160a01b0316846001600160a01b03167f8c5be1e5ebec7d5bd14f71427d1e84f3dd0314c0f7b2291e5b200ac8c7c3b9258460405161065b91815260200190565b60405180910390a350505050565b6001600160a01b038316610693578060025f82825461068891906108f6565b909155506107039050565b6001600160a01b0383165f90815260208190526040902054818110156106e55760405163391434e360e21b81526001600160a01b038516600482015260248101829052604481018390526064016103b5565b6001600160a01b0384165f9081526020819052604090209082900390555b6001600160a01b03821661071f5760028054829003905561073d565b6001600160a01b0382165f9081526020819052604090208054820190555b816001600160a01b0316836001600160a01b03167fddf252ad1be2c89b69c2b068fc378daa952ba7f163c4a11628f55a4df523b3ef8360405161078291815260200190565b60405180910390a3505050565b5f6020808352835180828501525f5b818110156107ba5785810183015185820160400152820161079e565b505f604082860101526040601f19601f8301168501019250505092915050565b80356001600160a01b03811681146107f0575f80fd5b919050565b5f8060408385031215610806575f80fd5b61080f836107da565b946020939093013593505050565b5f805f6060848603121561082f575f80fd5b610838846107da565b9250610846602085016107da565b9150604084013590509250925092565b5f60208284031215610866575f80fd5b5035919050565b5f6020828403121561087d575f80fd5b610886826107da565b9392505050565b5f806040838503121561089e575f80fd5b6108a7836107da565b91506108b5602084016107da565b90509250929050565b600181811c908216806108d257607f821691505b6020821081036108f057634e487b7160e01b5f52602260045260245ffd5b50919050565b808201808211156102f857634e487b7160e01b5f52601160045260245ffdfea2646970667358221220d4345b66bfb7412d2ea509531419dca8158f537841ee0d9aa80e3d80c30a67d364736f6c63430008140033000000000000000000000000b7d030f7c6406446e703e73b3d1dd8611a2d87b6000000000000000000000000000000000000000000000000000000000000006000000000000000000000000000000000000000000000000000000000000000a0000000000000000000000000000000000000000000000000000000000000000b577261707065642042544300000000000000000000000000000000000000000000000000000000000000000000000000000000000000000000000000000000045742544300000000000000000000000000000000000000000000000000000000",
        "nonce": "0xb2",
        "chainId": "0x66eee"
      },
      "additionalContracts": [],
      "isFixedGasLimit": false
    },
    {
      "hash": "0x5fbee3152b3ff7d342deb5de4c4f19d502b110a1d38c20b4043abec001ab8247",
      "transactionType": "CALL",
      "contractName": null,
      "contractAddress": "0x73eeefc220c91cddf1450f245441acdd1b1ad13a",
      "function": "mint(address,uint256)",
      "arguments": [
        "0xB7d030F7c6406446e703E73B3d1dd8611A2D87b6",
        "10000000000"
      ],
      "transaction": {
        "from": "0xb7d030f7c6406446e703e73b3d1dd8611a2d87b6",
        "to": "0x73eeefc220c91cddf1450f245441acdd1b1ad13a",
        "gas": "0x6e92",
        "value": "0x0",
        "input": "0x40c10f19000000000000000000000000b7d030f7c6406446e703e73b3d1dd8611a2d87b600000000000000000000000000000000000000000000000000000002540be400",
        "nonce": "0xb3",
        "chainId": "0x66eee"
      },
      "additionalContracts": [],
      "isFixedGasLimit": false
    },
    {
      "hash": "0x6334565592c913fb2fd0cbc4ee41d6f65f3288deade932a1e9da538e26931db3",
      "transactionType": "CALL",
      "contractName": null,
      "contractAddress": "0x73eeefc220c91cddf1450f245441acdd1b1ad13a",
      "function": "mint(address,uint256)",
      "arguments": [
        "0x4F88F1014Dd6Ca0507780380111c098BeE6b87e6",
        "10000000000"
      ],
      "transaction": {
        "from": "0xb7d030f7c6406446e703e73b3d1dd8611a2d87b6",
        "to": "0x73eeefc220c91cddf1450f245441acdd1b1ad13a",
        "gas": "0x6e92",
        "value": "0x0",
        "input": "0x40c10f190000000000000000000000004f88f1014dd6ca0507780380111c098bee6b87e600000000000000000000000000000000000000000000000000000002540be400",
        "nonce": "0xb4",
        "chainId": "0x66eee"
      },
      "additionalContracts": [],
      "isFixedGasLimit": false
    },
    {
      "hash": "0xdec2873ede118ea7edf4534dc12917354e92cb6967f263cede67d7f621760444",
      "transactionType": "CALL",
      "contractName": null,
      "contractAddress": "0x73eeefc220c91cddf1450f245441acdd1b1ad13a",
      "function": "mint(address,uint256)",
      "arguments": [
        "0xC31f6b8133d618aD2ff1AC5fAA3Fc4B20557B901",
        "10000000000"
      ],
      "transaction": {
        "from": "0xb7d030f7c6406446e703e73b3d1dd8611a2d87b6",
        "to": "0x73eeefc220c91cddf1450f245441acdd1b1ad13a",
        "gas": "0x6e92",
        "value": "0x0",
        "input": "0x40c10f19000000000000000000000000c31f6b8133d618ad2ff1ac5faa3fc4b20557b90100000000000000000000000000000000000000000000000000000002540be400",
        "nonce": "0xb5",
        "chainId": "0x66eee"
      },
      "additionalContracts": [],
      "isFixedGasLimit": false
    },
    {
      "hash": "0xf497932950f0e03e42a8239efd0cf6c9cbd349cd07b667675b0892c2755a7283",
      "transactionType": "CALL",
      "contractName": null,
      "contractAddress": "0x73eeefc220c91cddf1450f245441acdd1b1ad13a",
      "function": "mint(address,uint256)",
      "arguments": [
        "0x66E675533020c3CDeE2F33E372320B7e2692211e",
        "10000000000"
      ],
      "transaction": {
        "from": "0xb7d030f7c6406446e703e73b3d1dd8611a2d87b6",
        "to": "0x73eeefc220c91cddf1450f245441acdd1b1ad13a",
        "gas": "0x6e92",
        "value": "0x0",
        "input": "0x40c10f1900000000000000000000000066e675533020c3cdee2f33e372320b7e2692211e00000000000000000000000000000000000000000000000000000002540be400",
        "nonce": "0xb6",
        "chainId": "0x66eee"
      },
      "additionalContracts": [],
      "isFixedGasLimit": false
    },
    {
      "hash": "0x13fc320385966806a2a7ea78f44c43201b174692043a4ab3f9eb0c352c50fce1",
      "transactionType": "CALL",
      "contractName": null,
      "contractAddress": "0xd62df558426c7a37dcda006b83362b610423484b",
      "function": "setAddresses(string[],address[])",
      "arguments": [
        "[\"TOKEN_USDT\", \"TOKEN_USDC\", \"TOKEN_WBTC\"]",
        "[0xccfF7b06B528A469808EE592dd345ADe04b873BA, 0xDc486948f546368deeDA3E6D4f9A15198aa3e2Af, 0x73EEEFC220C91CdDf1450f245441acdd1b1ad13A]"
      ],
      "transaction": {
        "from": "0xb7d030f7c6406446e703e73b3d1dd8611a2d87b6",
        "to": "0xd62df558426c7a37dcda006b83362b610423484b",
        "gas": "0x212e7",
        "value": "0x0",
        "input": "0x7d69a892000000000000000000000000000000000000000000000000000000000000004000000000000000000000000000000000000000000000000000000000000001800000000000000000000000000000000000000000000000000000000000000003000000000000000000000000000000000000000000000000000000000000006000000000000000000000000000000000000000000000000000000000000000a000000000000000000000000000000000000000000000000000000000000000e0000000000000000000000000000000000000000000000000000000000000000a544f4b454e5f5553445400000000000000000000000000000000000000000000000000000000000000000000000000000000000000000000000000000000000a544f4b454e5f5553444300000000000000000000000000000000000000000000000000000000000000000000000000000000000000000000000000000000000a544f4b454e5f57425443000000000000000000000000000000000000000000000000000000000000000000000000000000000000000000000000000000000003000000000000000000000000ccff7b06b528a469808ee592dd345ade04b873ba000000000000000000000000dc486948f546368deeda3e6d4f9a15198aa3e2af00000000000000000000000073eeefc220c91cddf1450f245441acdd1b1ad13a",
        "nonce": "0xb7",
        "chainId": "0x66eee"
      },
      "additionalContracts": [],
      "isFixedGasLimit": false
    }
  ],
  "receipts": [
    {
      "status": "0x1",
      "cumulativeGasUsed": "0x9f51e",
      "logs": [
        {
          "address": "0xccff7b06b528a469808ee592dd345ade04b873ba",
          "topics": [
            "0x8be0079c531659141344cd1fd0a4f28419497f9722a3daafe3b4186f6b6457e0",
            "0x0000000000000000000000000000000000000000000000000000000000000000",
            "0x000000000000000000000000b7d030f7c6406446e703e73b3d1dd8611a2d87b6"
          ],
          "data": "0x",
          "blockHash": "0x3c16d2574ab9a7d477519748a26c946e64132fe5e02acf8234adde151ee11610",
          "blockNumber": "0x56feb91",
          "transactionHash": "0xbae81c20e09e3ffc5cab9af9ca3d1de32e5ed9c48e182f369a648f5c0b859d39",
          "transactionIndex": "0x1",
          "logIndex": "0x0",
          "removed": false
        }
      ],
      "logsBloom": "0x00000000000000000000000000000000000000000000000000800000000000000000000000000000000000000000400000000000000000000000000000000000000000000000000000000000000000000001000000400000000000000000000000000000020000000000000000000800000000000000000200000000000000400000000000000000000000000000000000000000000000000000000000000020000000000000000000000000000000000000000000000000000000000000000000000000000000000000000000000000000000000000000000000800000020000000000000000000000000000000000000000000000000000000080000000000",
      "type": "0x2",
      "transactionHash": "0xbae81c20e09e3ffc5cab9af9ca3d1de32e5ed9c48e182f369a648f5c0b859d39",
      "transactionIndex": "0x1",
      "blockHash": "0x3c16d2574ab9a7d477519748a26c946e64132fe5e02acf8234adde151ee11610",
      "blockNumber": "0x56feb91",
      "gasUsed": "0x9f51e",
      "effectiveGasPrice": "0x5f5e100",
      "from": "0xb7d030f7c6406446e703e73b3d1dd8611a2d87b6",
      "to": null,
      "contractAddress": "0xccff7b06b528a469808ee592dd345ade04b873ba",
      "gasUsedForL1": "0x0",
      "l1BlockNumber": "0x69cf05"
    },
    {
      "status": "0x1",
      "cumulativeGasUsed": "0x113df",
      "logs": [
        {
          "address": "0xccff7b06b528a469808ee592dd345ade04b873ba",
          "topics": [
            "0xddf252ad1be2c89b69c2b068fc378daa952ba7f163c4a11628f55a4df523b3ef",
            "0x0000000000000000000000000000000000000000000000000000000000000000",
            "0x000000000000000000000000b7d030f7c6406446e703e73b3d1dd8611a2d87b6"
          ],
          "data": "0x000000000000000000000000000000000000000000000000000000e8d4a51000",
          "blockHash": "0x8d6091961173c47e3e69b1e0c2a9fb519fd9e5844f58d5036da02c1db0719798",
          "blockNumber": "0x56feb98",
          "transactionHash": "0x1ee1c815d45924a18e6b66e1876a7deb65f2e4cf9777362789795e0d09826764",
          "transactionIndex": "0x1",
          "logIndex": "0x0",
          "removed": false
        }
      ],
      "logsBloom": "0x00000000000000000000000000000000000000000000000000000000000000000000000000000000000000000000400000000000000000000000000000000000000000000000000000000008000000000000000000400000000000000000000000000000020000000000000000000800000000000000000200000010000000000000000000000000000000000000000000000000000000000000000000000020000000000000000000000000000000000000000000000000000000000000000000000002000000000000000000000000000000000000000000000800000020000000000000000000000000000000000000000000000000000000080000000000",
      "type": "0x2",
      "transactionHash": "0x1ee1c815d45924a18e6b66e1876a7deb65f2e4cf9777362789795e0d09826764",
      "transactionIndex": "0x1",
      "blockHash": "0x8d6091961173c47e3e69b1e0c2a9fb519fd9e5844f58d5036da02c1db0719798",
      "blockNumber": "0x56feb98",
      "gasUsed": "0x113df",
      "effectiveGasPrice": "0x5f5e100",
      "from": "0xb7d030f7c6406446e703e73b3d1dd8611a2d87b6",
      "to": "0xccff7b06b528a469808ee592dd345ade04b873ba",
      "contractAddress": null,
      "gasUsedForL1": "0x0",
      "l1BlockNumber": "0x69cf05"
    },
    {
      "status": "0x1",
      "cumulativeGasUsed": "0xd113",
      "logs": [
        {
          "address": "0xccff7b06b528a469808ee592dd345ade04b873ba",
          "topics": [
            "0xddf252ad1be2c89b69c2b068fc378daa952ba7f163c4a11628f55a4df523b3ef",
            "0x0000000000000000000000000000000000000000000000000000000000000000",
            "0x0000000000000000000000004f88f1014dd6ca0507780380111c098bee6b87e6"
          ],
          "data": "0x000000000000000000000000000000000000000000000000000000e8d4a51000",
          "blockHash": "0xd5548239a1381444df5d2ad6a4300c20549880f13d584326d0774820a8e06101",
          "blockNumber": "0x56feb9f",
          "transactionHash": "0xbdc5f33259f52f86777f49ef0f49577db3beb69d516a82f0739a1e1e3d9ca68a",
          "transactionIndex": "0x1",
          "logIndex": "0x0",
          "removed": false
        }
      ],
      "logsBloom": "0x00000000000000000000000002000000000000000000000000000000000000000000000000000000000000000000400000000000000000000000000000000000000000000000000000000008000000000000000000000000000000000000000000000000020000000000000000000800000000000000000000000010000000000000000000000000000000000000000000000000000000000000000000000000000000000000000000000000000000000000000004000000000000000000000000000002000000000000000000000000000000000000000000000800000020000000000000000000000000000000000000000000008000000000080000000000",
      "type": "0x2",
      "transactionHash": "0xbdc5f33259f52f86777f49ef0f49577db3beb69d516a82f0739a1e1e3d9ca68a",
      "transactionIndex": "0x1",
      "blockHash": "0xd5548239a1381444df5d2ad6a4300c20549880f13d584326d0774820a8e06101",
      "blockNumber": "0x56feb9f",
      "gasUsed": "0xd113",
      "effectiveGasPrice": "0x5f5e100",
      "from": "0xb7d030f7c6406446e703e73b3d1dd8611a2d87b6",
      "to": "0xccff7b06b528a469808ee592dd345ade04b873ba",
      "contractAddress": null,
      "gasUsedForL1": "0x0",
      "l1BlockNumber": "0x69cf05"
    },
    {
      "status": "0x1",
      "cumulativeGasUsed": "0xd113",
      "logs": [
        {
          "address": "0xccff7b06b528a469808ee592dd345ade04b873ba",
          "topics": [
            "0xddf252ad1be2c89b69c2b068fc378daa952ba7f163c4a11628f55a4df523b3ef",
            "0x0000000000000000000000000000000000000000000000000000000000000000",
            "0x000000000000000000000000c31f6b8133d618ad2ff1ac5faa3fc4b20557b901"
          ],
          "data": "0x000000000000000000000000000000000000000000000000000000e8d4a51000",
          "blockHash": "0x0549c7539170a563dfef529054ef677ea9fe710bec08df0bde07d3ed2dec825e",
          "blockNumber": "0x56feba2",
          "transactionHash": "0x18d097df2a015d5b9c9f27ba3fc3b389e1176fe5882fddab8b545404e0c82678",
          "transactionIndex": "0x1",
          "logIndex": "0x0",
          "removed": false
        }
      ],
      "logsBloom": "0x00000000000000000000000000000000000000000000000000000000000000000000000000000000000000000000400000000000000000000000000000000000000000000000000000000008000000000000000000000000000000000000000000000000020000000000000000000800000000000000000000000010400000000000000000000000000000000000000000000002000000000000000000000000000000000000000000000000000000000000000000000000080000000000000000000002000000000000000000000000000000000000000000000800000020000000000000000000000000000000000000000000000000000000080000000000",
      "type": "0x2",
      "transactionHash": "0x18d097df2a015d5b9c9f27ba3fc3b389e1176fe5882fddab8b545404e0c82678",
      "transactionIndex": "0x1",
      "blockHash": "0x0549c7539170a563dfef529054ef677ea9fe710bec08df0bde07d3ed2dec825e",
      "blockNumber": "0x56feba2",
      "gasUsed": "0xd113",
      "effectiveGasPrice": "0x5f5e100",
      "from": "0xb7d030f7c6406446e703e73b3d1dd8611a2d87b6",
      "to": "0xccff7b06b528a469808ee592dd345ade04b873ba",
      "contractAddress": null,
      "gasUsedForL1": "0x0",
      "l1BlockNumber": "0x69cf05"
    },
    {
      "status": "0x1",
      "cumulativeGasUsed": "0xd113",
      "logs": [
        {
          "address": "0xccff7b06b528a469808ee592dd345ade04b873ba",
          "topics": [
            "0xddf252ad1be2c89b69c2b068fc378daa952ba7f163c4a11628f55a4df523b3ef",
            "0x0000000000000000000000000000000000000000000000000000000000000000",
            "0x00000000000000000000000066e675533020c3cdee2f33e372320b7e2692211e"
          ],
          "data": "0x000000000000000000000000000000000000000000000000000000e8d4a51000",
          "blockHash": "0x56cacbf7419b111bbe50d5d6367e29c882a5462cab20b8171364b3f88dc15d46",
          "blockNumber": "0x56feba9",
          "transactionHash": "0xc6fdc438ead89976265fae47204809ed4c68629b0e92961c7189e990df4d0369",
          "transactionIndex": "0x1",
          "logIndex": "0x0",
          "removed": false
        }
      ],
      "logsBloom": "0x00000000000000000000000000000000000000000000000000000000001000000000000000000000000000000000400000000000000000000000000000000000000000000000000000000008000008000000000000000000000000000000000000000000020000000000000000000800000000000000000000000010000000000000000000000000000000000000000000000000002000000000000000000000000000000000000000000000000000000000000000000000000000000000000000000002000000000000000000000000000000000000000000000800000020000000000000000000000000000000000000000000000000000000080000000000",
      "type": "0x2",
      "transactionHash": "0xc6fdc438ead89976265fae47204809ed4c68629b0e92961c7189e990df4d0369",
      "transactionIndex": "0x1",
      "blockHash": "0x56cacbf7419b111bbe50d5d6367e29c882a5462cab20b8171364b3f88dc15d46",
      "blockNumber": "0x56feba9",
      "gasUsed": "0xd113",
      "effectiveGasPrice": "0x5f5e100",
      "from": "0xb7d030f7c6406446e703e73b3d1dd8611a2d87b6",
      "to": "0xccff7b06b528a469808ee592dd345ade04b873ba",
      "contractAddress": null,
      "gasUsedForL1": "0x0",
      "l1BlockNumber": "0x69cf05"
    },
    {
      "status": "0x1",
      "cumulativeGasUsed": "0x9f506",
      "logs": [
        {
          "address": "0xdc486948f546368deeda3e6d4f9a15198aa3e2af",
          "topics": [
            "0x8be0079c531659141344cd1fd0a4f28419497f9722a3daafe3b4186f6b6457e0",
            "0x0000000000000000000000000000000000000000000000000000000000000000",
            "0x000000000000000000000000b7d030f7c6406446e703e73b3d1dd8611a2d87b6"
          ],
          "data": "0x",
          "blockHash": "0x598d48d037af14c6018bf918be5e6f4d9548592549aaae383d41e5334370fd8f",
          "blockNumber": "0x56febad",
          "transactionHash": "0x93121e6ad4024b63ca1f238e41af63bd20d26b11f44a99746627078efd4ceb9c",
          "transactionIndex": "0x1",
          "logIndex": "0x0",
          "removed": false
        }
      ],
      "logsBloom": "0x00020000000000000000000000000000000000000000000000800000000000000000000000000020000000000000000000000000000000000000000000000000000000000000000000000000000400000001000000400000000000000000000000000000020000000000000000000800000000000000000200000000000000400000000000000000000000000000000000000000000000000000000000000020000000000000000000000000000000000000000000000000000000000000000000000000000000000000000000000000000000000000000000000000000020000000000000000000000000000000000000000000000000000000000000000000",
      "type": "0x2",
      "transactionHash": "0x93121e6ad4024b63ca1f238e41af63bd20d26b11f44a99746627078efd4ceb9c",
      "transactionIndex": "0x1",
      "blockHash": "0x598d48d037af14c6018bf918be5e6f4d9548592549aaae383d41e5334370fd8f",
      "blockNumber": "0x56febad",
      "gasUsed": "0x9f506",
      "effectiveGasPrice": "0x5f5e100",
      "from": "0xb7d030f7c6406446e703e73b3d1dd8611a2d87b6",
      "to": null,
      "contractAddress": "0xdc486948f546368deeda3e6d4f9a15198aa3e2af",
      "gasUsedForL1": "0x0",
      "l1BlockNumber": "0x69cf05"
    },
    {
      "status": "0x1",
      "cumulativeGasUsed": "0x113df",
      "logs": [
        {
          "address": "0xdc486948f546368deeda3e6d4f9a15198aa3e2af",
          "topics": [
            "0xddf252ad1be2c89b69c2b068fc378daa952ba7f163c4a11628f55a4df523b3ef",
            "0x0000000000000000000000000000000000000000000000000000000000000000",
            "0x000000000000000000000000b7d030f7c6406446e703e73b3d1dd8611a2d87b6"
          ],
          "data": "0x000000000000000000000000000000000000000000000000000000e8d4a51000",
          "blockHash": "0x9a2500ff7646828d6cc5df5312670378fe5018be4013515b5d1e1a14ac45ef81",
          "blockNumber": "0x56febb2",
          "transactionHash": "0x4057a55bcfa2a0dcb30a003486539d4ffb3a665efd372e5a9ed667122f95ee13",
          "transactionIndex": "0x1",
          "logIndex": "0x0",
          "removed": false
        }
      ],
      "logsBloom": "0x00020000000000000000000000000000000000000000000000000000000000000000000000000020000000000000000000000000000000000000000000000000000000000000000000000008000400000000000000400000000000000000000000000000020000000000000000000800000000000000000200000010000000000000000000000000000000000000000000000000000000000000000000000020000000000000000000000000000000000000000000000000000000000000000000000002000000000000000000000000000000000000000000000000000020000000000000000000000000000000000000000000000000000000000000000000",
      "type": "0x2",
      "transactionHash": "0x4057a55bcfa2a0dcb30a003486539d4ffb3a665efd372e5a9ed667122f95ee13",
      "transactionIndex": "0x1",
      "blockHash": "0x9a2500ff7646828d6cc5df5312670378fe5018be4013515b5d1e1a14ac45ef81",
      "blockNumber": "0x56febb2",
      "gasUsed": "0x113df",
      "effectiveGasPrice": "0x5f5e100",
      "from": "0xb7d030f7c6406446e703e73b3d1dd8611a2d87b6",
      "to": "0xdc486948f546368deeda3e6d4f9a15198aa3e2af",
      "contractAddress": null,
      "gasUsedForL1": "0x0",
      "l1BlockNumber": "0x69cf05"
    },
    {
      "status": "0x1",
      "cumulativeGasUsed": "0x2388c",
      "logs": [
        {
          "address": "0xdc486948f546368deeda3e6d4f9a15198aa3e2af",
          "topics": [
            "0xddf252ad1be2c89b69c2b068fc378daa952ba7f163c4a11628f55a4df523b3ef",
            "0x0000000000000000000000000000000000000000000000000000000000000000",
            "0x0000000000000000000000004f88f1014dd6ca0507780380111c098bee6b87e6"
          ],
          "data": "0x000000000000000000000000000000000000000000000000000000e8d4a51000",
          "blockHash": "0xeafca4cd5601f4cc96f1f04cfb7e457be70a8745d50f95a31fedff1f12ddcd92",
          "blockNumber": "0x56febb7",
          "transactionHash": "0x65fbef8b061bdae2d78ba3af4dd95417bae17564f4d91b44f53a96cbb47626f0",
          "transactionIndex": "0x3",
          "logIndex": "0x1",
          "removed": false
        }
      ],
      "logsBloom": "0x00020000000000000000000002000000000000000000000000000000000000000000000000000020000000000000000000000000000000000000000000000000000000000000000000000008000400000000000000000000000000000000000000000000020000000000000000000800000000000000000000000010000000000000000000000000000000000000000000000000000000000000000000000000000000000000000000000000000000000000000004000000000000000000000000000002000000000000000000000000000000000000000000000000000020000000000000000000000000000000000000000000008000000000000000000000",
      "type": "0x2",
      "transactionHash": "0x65fbef8b061bdae2d78ba3af4dd95417bae17564f4d91b44f53a96cbb47626f0",
      "transactionIndex": "0x3",
      "blockHash": "0xeafca4cd5601f4cc96f1f04cfb7e457be70a8745d50f95a31fedff1f12ddcd92",
      "blockNumber": "0x56febb7",
      "gasUsed": "0xd113",
      "effectiveGasPrice": "0x5f5e100",
      "from": "0xb7d030f7c6406446e703e73b3d1dd8611a2d87b6",
      "to": "0xdc486948f546368deeda3e6d4f9a15198aa3e2af",
      "contractAddress": null,
      "gasUsedForL1": "0x0",
      "l1BlockNumber": "0x69cf05"
    },
    {
      "status": "0x1",
      "cumulativeGasUsed": "0xd113",
      "logs": [
        {
          "address": "0xdc486948f546368deeda3e6d4f9a15198aa3e2af",
          "topics": [
            "0xddf252ad1be2c89b69c2b068fc378daa952ba7f163c4a11628f55a4df523b3ef",
            "0x0000000000000000000000000000000000000000000000000000000000000000",
            "0x000000000000000000000000c31f6b8133d618ad2ff1ac5faa3fc4b20557b901"
          ],
          "data": "0x000000000000000000000000000000000000000000000000000000e8d4a51000",
          "blockHash": "0xcd612f579838e8aa7c10ca4f125fc01ace4a3ac83b6415d9c662399278ac6593",
          "blockNumber": "0x56febbc",
          "transactionHash": "0xf195add70cf1493549c7b8faac2c1b9bc746775f6407a79b9a547f68c5a98164",
          "transactionIndex": "0x1",
          "logIndex": "0x0",
          "removed": false
        }
      ],
      "logsBloom": "0x00020000000000000000000000000000000000000000000000000000000000000000000000000020000000000000000000000000000000000000000000000000000000000000000000000008000400000000000000000000000000000000000000000000020000000000000000000800000000000000000000000010400000000000000000000000000000000000000000000002000000000000000000000000000000000000000000000000000000000000000000000000080000000000000000000002000000000000000000000000000000000000000000000000000020000000000000000000000000000000000000000000000000000000000000000000",
      "type": "0x2",
      "transactionHash": "0xf195add70cf1493549c7b8faac2c1b9bc746775f6407a79b9a547f68c5a98164",
      "transactionIndex": "0x1",
      "blockHash": "0xcd612f579838e8aa7c10ca4f125fc01ace4a3ac83b6415d9c662399278ac6593",
      "blockNumber": "0x56febbc",
      "gasUsed": "0xd113",
      "effectiveGasPrice": "0x5f5e100",
      "from": "0xb7d030f7c6406446e703e73b3d1dd8611a2d87b6",
      "to": "0xdc486948f546368deeda3e6d4f9a15198aa3e2af",
      "contractAddress": null,
      "gasUsedForL1": "0x0",
      "l1BlockNumber": "0x69cf06"
    },
    {
      "status": "0x1",
      "cumulativeGasUsed": "0x25491",
      "logs": [
        {
          "address": "0xdc486948f546368deeda3e6d4f9a15198aa3e2af",
          "topics": [
            "0xddf252ad1be2c89b69c2b068fc378daa952ba7f163c4a11628f55a4df523b3ef",
            "0x0000000000000000000000000000000000000000000000000000000000000000",
            "0x00000000000000000000000066e675533020c3cdee2f33e372320b7e2692211e"
          ],
          "data": "0x000000000000000000000000000000000000000000000000000000e8d4a51000",
          "blockHash": "0x0049431f43bae28b12b107b3c79acf93c4d008817708be9072471e014ec4acf7",
          "blockNumber": "0x56febc1",
          "transactionHash": "0xb8c022f06e83b8420db14abb6c2f5b113ca9f90c7563f7a748541f150ff0a0e6",
          "transactionIndex": "0x2",
          "logIndex": "0x3",
          "removed": false
        }
      ],
      "logsBloom": "0x00020000000000000000000000000000000000000000000000000000001000000000000000000020000000000000000000000000000000000000000000000000000000000000000000000008000408000000000000000000000000000000000000000000020000000000000000000800000000000000000000000010000000000000000000000000000000000000000000000000002000000000000000000000000000000000000000000000000000000000000000000000000000000000000000000002000000000000000000000000000000000000000000000000000020000000000000000000000000000000000000000000000000000000000000000000",
      "type": "0x2",
      "transactionHash": "0xb8c022f06e83b8420db14abb6c2f5b113ca9f90c7563f7a748541f150ff0a0e6",
      "transactionIndex": "0x2",
      "blockHash": "0x0049431f43bae28b12b107b3c79acf93c4d008817708be9072471e014ec4acf7",
      "blockNumber": "0x56febc1",
      "gasUsed": "0xd113",
      "effectiveGasPrice": "0x5f5e100",
      "from": "0xb7d030f7c6406446e703e73b3d1dd8611a2d87b6",
      "to": "0xdc486948f546368deeda3e6d4f9a15198aa3e2af",
      "contractAddress": null,
      "gasUsedForL1": "0x0",
      "l1BlockNumber": "0x69cf06"
    },
    {
      "status": "0x1",
      "cumulativeGasUsed": "0x9f52a",
      "logs": [
        {
          "address": "0x73eeefc220c91cddf1450f245441acdd1b1ad13a",
          "topics": [
            "0x8be0079c531659141344cd1fd0a4f28419497f9722a3daafe3b4186f6b6457e0",
            "0x0000000000000000000000000000000000000000000000000000000000000000",
            "0x000000000000000000000000b7d030f7c6406446e703e73b3d1dd8611a2d87b6"
          ],
          "data": "0x",
          "blockHash": "0x75b2f0ee7b33afb7b1dcbe2ac3f2820bd57291e32c4099e2995a421370bc7f11",
          "blockNumber": "0x56febc5",
          "transactionHash": "0x8cab4fa834f93cac2d44e882c4967a0dd7721e195f8e17a2b2769338537df600",
          "transactionIndex": "0x1",
          "logIndex": "0x0",
          "removed": false
        }
      ],
      "logsBloom": "0x00000000000000000000000000000000000000000000000000800000000000000000000000000000000000000000000000000000000000000000000000000000000000000000000000000000000080000001000000400040000000000000000000800000020000000000000000000800000000000000000200000000000000400000000000000000000000000000000000000000000000000000000000000020000000000000000000000000000000000000000000000000000000000000000000000000000000000000000000000000000000000000000000000000000020000000000000000000000000000000000000000000000000000000000000000000",
      "type": "0x2",
      "transactionHash": "0x8cab4fa834f93cac2d44e882c4967a0dd7721e195f8e17a2b2769338537df600",
      "transactionIndex": "0x1",
      "blockHash": "0x75b2f0ee7b33afb7b1dcbe2ac3f2820bd57291e32c4099e2995a421370bc7f11",
      "blockNumber": "0x56febc5",
      "gasUsed": "0x9f52a",
      "effectiveGasPrice": "0x5f5e100",
      "from": "0xb7d030f7c6406446e703e73b3d1dd8611a2d87b6",
      "to": null,
      "contractAddress": "0x73eeefc220c91cddf1450f245441acdd1b1ad13a",
      "gasUsedForL1": "0x0",
      "l1BlockNumber": "0x69cf06"
    },
    {
      "status": "0x1",
      "cumulativeGasUsed": "0x113df",
      "logs": [
        {
          "address": "0x73eeefc220c91cddf1450f245441acdd1b1ad13a",
          "topics": [
            "0xddf252ad1be2c89b69c2b068fc378daa952ba7f163c4a11628f55a4df523b3ef",
            "0x0000000000000000000000000000000000000000000000000000000000000000",
            "0x000000000000000000000000b7d030f7c6406446e703e73b3d1dd8611a2d87b6"
          ],
          "data": "0x00000000000000000000000000000000000000000000000000000002540be400",
          "blockHash": "0x114ccd877ef8c38480223c96f96ae34e52d67118c3787b9d730c5d2d0847fd51",
          "blockNumber": "0x56febca",
          "transactionHash": "0x5fbee3152b3ff7d342deb5de4c4f19d502b110a1d38c20b4043abec001ab8247",
          "transactionIndex": "0x1",
          "logIndex": "0x0",
          "removed": false
        }
      ],
      "logsBloom": "0x00000000000000000000000000000000000000000000000000000000000000000000000000000000000000000000000000000000000000000000000000000000000000000000000000000008000080000000000000400040000000000000000000800000020000000000000000000800000000000000000200000010000000000000000000000000000000000000000000000000000000000000000000000020000000000000000000000000000000000000000000000000000000000000000000000002000000000000000000000000000000000000000000000000000020000000000000000000000000000000000000000000000000000000000000000000",
      "type": "0x2",
      "transactionHash": "0x5fbee3152b3ff7d342deb5de4c4f19d502b110a1d38c20b4043abec001ab8247",
      "transactionIndex": "0x1",
      "blockHash": "0x114ccd877ef8c38480223c96f96ae34e52d67118c3787b9d730c5d2d0847fd51",
      "blockNumber": "0x56febca",
      "gasUsed": "0x113df",
      "effectiveGasPrice": "0x5f5e100",
      "from": "0xb7d030f7c6406446e703e73b3d1dd8611a2d87b6",
      "to": "0x73eeefc220c91cddf1450f245441acdd1b1ad13a",
      "contractAddress": null,
      "gasUsedForL1": "0x0",
      "l1BlockNumber": "0x69cf06"
    },
    {
      "status": "0x1",
      "cumulativeGasUsed": "0xd113",
      "logs": [
        {
          "address": "0x73eeefc220c91cddf1450f245441acdd1b1ad13a",
          "topics": [
            "0xddf252ad1be2c89b69c2b068fc378daa952ba7f163c4a11628f55a4df523b3ef",
            "0x0000000000000000000000000000000000000000000000000000000000000000",
            "0x0000000000000000000000004f88f1014dd6ca0507780380111c098bee6b87e6"
          ],
          "data": "0x00000000000000000000000000000000000000000000000000000002540be400",
          "blockHash": "0x80726ac181150403c61cb5c56fe39a794162703b2d416e2de542a50a09aea7af",
          "blockNumber": "0x56febcf",
          "transactionHash": "0x6334565592c913fb2fd0cbc4ee41d6f65f3288deade932a1e9da538e26931db3",
          "transactionIndex": "0x1",
          "logIndex": "0x0",
          "removed": false
        }
      ],
      "logsBloom": "0x00000000000000000000000002000000000000000000000000000000000000000000000000000000000000000000000000000000000000000000000000000000000000000000000000000008000080000000000000000040000000000000000000800000020000000000000000000800000000000000000000000010000000000000000000000000000000000000000000000000000000000000000000000000000000000000000000000000000000000000000004000000000000000000000000000002000000000000000000000000000000000000000000000000000020000000000000000000000000000000000000000000008000000000000000000000",
      "type": "0x2",
      "transactionHash": "0x6334565592c913fb2fd0cbc4ee41d6f65f3288deade932a1e9da538e26931db3",
      "transactionIndex": "0x1",
      "blockHash": "0x80726ac181150403c61cb5c56fe39a794162703b2d416e2de542a50a09aea7af",
      "blockNumber": "0x56febcf",
      "gasUsed": "0xd113",
      "effectiveGasPrice": "0x5f5e100",
      "from": "0xb7d030f7c6406446e703e73b3d1dd8611a2d87b6",
      "to": "0x73eeefc220c91cddf1450f245441acdd1b1ad13a",
      "contractAddress": null,
      "gasUsedForL1": "0x0",
      "l1BlockNumber": "0x69cf06"
    },
    {
      "status": "0x1",
      "cumulativeGasUsed": "0xd113",
      "logs": [
        {
          "address": "0x73eeefc220c91cddf1450f245441acdd1b1ad13a",
          "topics": [
            "0xddf252ad1be2c89b69c2b068fc378daa952ba7f163c4a11628f55a4df523b3ef",
            "0x0000000000000000000000000000000000000000000000000000000000000000",
            "0x000000000000000000000000c31f6b8133d618ad2ff1ac5faa3fc4b20557b901"
          ],
          "data": "0x00000000000000000000000000000000000000000000000000000002540be400",
          "blockHash": "0x5b6008ea28ad916bfe616146319502ed88a5864b4e76a9a15c1d038d36e178ee",
          "blockNumber": "0x56febd5",
          "transactionHash": "0xdec2873ede118ea7edf4534dc12917354e92cb6967f263cede67d7f621760444",
          "transactionIndex": "0x1",
          "logIndex": "0x0",
          "removed": false
        }
      ],
      "logsBloom": "0x00000000000000000000000000000000000000000000000000000000000000000000000000000000000000000000000000000000000000000000000000000000000000000000000000000008000080000000000000000040000000000000000000800000020000000000000000000800000000000000000000000010400000000000000000000000000000000000000000000002000000000000000000000000000000000000000000000000000000000000000000000000080000000000000000000002000000000000000000000000000000000000000000000000000020000000000000000000000000000000000000000000000000000000000000000000",
      "type": "0x2",
      "transactionHash": "0xdec2873ede118ea7edf4534dc12917354e92cb6967f263cede67d7f621760444",
      "transactionIndex": "0x1",
      "blockHash": "0x5b6008ea28ad916bfe616146319502ed88a5864b4e76a9a15c1d038d36e178ee",
      "blockNumber": "0x56febd5",
      "gasUsed": "0xd113",
      "effectiveGasPrice": "0x5f5e100",
      "from": "0xb7d030f7c6406446e703e73b3d1dd8611a2d87b6",
      "to": "0x73eeefc220c91cddf1450f245441acdd1b1ad13a",
      "contractAddress": null,
      "gasUsedForL1": "0x0",
      "l1BlockNumber": "0x69cf06"
    },
    {
      "status": "0x1",
      "cumulativeGasUsed": "0xd113",
      "logs": [
        {
          "address": "0x73eeefc220c91cddf1450f245441acdd1b1ad13a",
          "topics": [
            "0xddf252ad1be2c89b69c2b068fc378daa952ba7f163c4a11628f55a4df523b3ef",
            "0x0000000000000000000000000000000000000000000000000000000000000000",
            "0x00000000000000000000000066e675533020c3cdee2f33e372320b7e2692211e"
          ],
          "data": "0x00000000000000000000000000000000000000000000000000000002540be400",
          "blockHash": "0x29b0014c004f3db9226b18acbd6f0c6dbaf62bb5a5501e5e8e388c41e3af9b62",
          "blockNumber": "0x56febd9",
          "transactionHash": "0xf497932950f0e03e42a8239efd0cf6c9cbd349cd07b667675b0892c2755a7283",
          "transactionIndex": "0x1",
          "logIndex": "0x0",
          "removed": false
        }
      ],
      "logsBloom": "0x00000000000000000000000000000000000000000000000000000000001000000000000000000000000000000000000000000000000000000000000000000000000000000000000000000008000088000000000000000040000000000000000000800000020000000000000000000800000000000000000000000010000000000000000000000000000000000000000000000000002000000000000000000000000000000000000000000000000000000000000000000000000000000000000000000002000000000000000000000000000000000000000000000000000020000000000000000000000000000000000000000000000000000000000000000000",
      "type": "0x2",
      "transactionHash": "0xf497932950f0e03e42a8239efd0cf6c9cbd349cd07b667675b0892c2755a7283",
      "transactionIndex": "0x1",
      "blockHash": "0x29b0014c004f3db9226b18acbd6f0c6dbaf62bb5a5501e5e8e388c41e3af9b62",
      "blockNumber": "0x56febd9",
      "gasUsed": "0xd113",
      "effectiveGasPrice": "0x5f5e100",
      "from": "0xb7d030f7c6406446e703e73b3d1dd8611a2d87b6",
      "to": "0x73eeefc220c91cddf1450f245441acdd1b1ad13a",
      "contractAddress": null,
      "gasUsedForL1": "0x0",
      "l1BlockNumber": "0x69cf06"
    },
    {
      "status": "0x1",
      "cumulativeGasUsed": "0x19481",
      "logs": [
        {
          "address": "0xd62df558426c7a37dcda006b83362b610423484b",
          "topics": [
            "0xb0377b4035c2bd5b6aeb3eb7f139162c730ea47b957e4354f8a81ebb99573dec"
          ],
          "data": "0x0000000000000000000000000000000000000000000000000000000000000040000000000000000000000000ccff7b06b528a469808ee592dd345ade04b873ba000000000000000000000000000000000000000000000000000000000000000a544f4b454e5f5553445400000000000000000000000000000000000000000000",
          "blockHash": "0x4ef41d3a11a352aa96c98ef210173e5469fb9704ce662d07b264872a74680ab6",
          "blockNumber": "0x56febdf",
          "transactionHash": "0x13fc320385966806a2a7ea78f44c43201b174692043a4ab3f9eb0c352c50fce1",
          "transactionIndex": "0x1",
          "logIndex": "0x0",
          "removed": false
        },
        {
          "address": "0xd62df558426c7a37dcda006b83362b610423484b",
          "topics": [
            "0xb0377b4035c2bd5b6aeb3eb7f139162c730ea47b957e4354f8a81ebb99573dec"
          ],
          "data": "0x0000000000000000000000000000000000000000000000000000000000000040000000000000000000000000dc486948f546368deeda3e6d4f9a15198aa3e2af000000000000000000000000000000000000000000000000000000000000000a544f4b454e5f5553444300000000000000000000000000000000000000000000",
          "blockHash": "0x4ef41d3a11a352aa96c98ef210173e5469fb9704ce662d07b264872a74680ab6",
          "blockNumber": "0x56febdf",
          "transactionHash": "0x13fc320385966806a2a7ea78f44c43201b174692043a4ab3f9eb0c352c50fce1",
          "transactionIndex": "0x1",
          "logIndex": "0x1",
          "removed": false
        },
        {
          "address": "0xd62df558426c7a37dcda006b83362b610423484b",
          "topics": [
            "0xb0377b4035c2bd5b6aeb3eb7f139162c730ea47b957e4354f8a81ebb99573dec"
          ],
          "data": "0x000000000000000000000000000000000000000000000000000000000000004000000000000000000000000073eeefc220c91cddf1450f245441acdd1b1ad13a000000000000000000000000000000000000000000000000000000000000000a544f4b454e5f5742544300000000000000000000000000000000000000000000",
          "blockHash": "0x4ef41d3a11a352aa96c98ef210173e5469fb9704ce662d07b264872a74680ab6",
          "blockNumber": "0x56febdf",
          "transactionHash": "0x13fc320385966806a2a7ea78f44c43201b174692043a4ab3f9eb0c352c50fce1",
          "transactionIndex": "0x1",
          "logIndex": "0x2",
          "removed": false
        }
      ],
      "logsBloom": "0x00000000000000000000000000000000000000000000000000000000000000000000000000000000000000000000000000000000000000000000000000000000000800000000000000000000000000000000000000000000000000000000004000000000000000000000000000000000000000000000000000000000000000000000000000000000000000000000000000000000000000000000000000000000000000000000000000000000000000000001000000000000000000000000080000000000000000000000000000000000004000000000000000000000000000000000000000000000000000000000000000000400000000000000000000000000",
      "type": "0x2",
      "transactionHash": "0x13fc320385966806a2a7ea78f44c43201b174692043a4ab3f9eb0c352c50fce1",
      "transactionIndex": "0x1",
      "blockHash": "0x4ef41d3a11a352aa96c98ef210173e5469fb9704ce662d07b264872a74680ab6",
      "blockNumber": "0x56febdf",
      "gasUsed": "0x19481",
      "effectiveGasPrice": "0x5f5e100",
      "from": "0xb7d030f7c6406446e703e73b3d1dd8611a2d87b6",
      "to": "0xd62df558426c7a37dcda006b83362b610423484b",
      "contractAddress": null,
      "gasUsedForL1": "0x0",
      "l1BlockNumber": "0x69cf06"
    }
  ],
  "libraries": [],
  "pending": [],
  "returns": {},
  "timestamp": 1729752757,
  "chain": 421614,
  "commit": "7f9b915"
}