{
  "transactions": [
    {
      "hash": "0xdff9ef85b065ac097dda5280d7db44a1e209288a93b0c87106712bf3abf24ddb",
      "transactionType": "CREATE",
      "contractName": null,
      "contractAddress": "0x2e3a8cf0022140a40a7474d879942f0e55bc57de",
      "function": null,
      "arguments": null,
      "transaction": {
        "from": "0xb7d030f7c6406446e703e73b3d1dd8611a2d87b6",
        "gas": "0xd22a9",
        "value": "0x0",
        "input": "0x608060405234801562000010575f80fd5b5060405162000cd938038062000cd98339810160408190526200003391620001a8565b8282826003620000448382620002b8565b506004620000538282620002b8565b5050506001600160a01b0381166200008457604051631e4fbdf760e01b81525f600482015260240160405180910390fd5b6200008f8162000099565b5050505062000380565b600580546001600160a01b038381166001600160a01b0319831681179093556040519116919082907f8be0079c531659141344cd1fd0a4f28419497f9722a3daafe3b4186f6b6457e0905f90a35050565b634e487b7160e01b5f52604160045260245ffd5b5f82601f8301126200010e575f80fd5b81516001600160401b03808211156200012b576200012b620000ea565b604051601f8301601f19908116603f01168101908282118183101715620001565762000156620000ea565b8160405283815260209250868385880101111562000172575f80fd5b5f91505b8382101562000195578582018301518183018401529082019062000176565b5f93810190920192909252949350505050565b5f805f60608486031215620001bb575f80fd5b83516001600160a01b0381168114620001d2575f80fd5b60208501519093506001600160401b0380821115620001ef575f80fd5b620001fd87838801620000fe565b9350604086015191508082111562000213575f80fd5b506200022286828701620000fe565b9150509250925092565b600181811c908216806200024157607f821691505b6020821081036200026057634e487b7160e01b5f52602260045260245ffd5b50919050565b601f821115620002b3575f81815260208120601f850160051c810160208610156200028e5750805b601f850160051c820191505b81811015620002af578281556001016200029a565b5050505b505050565b81516001600160401b03811115620002d457620002d4620000ea565b620002ec81620002e584546200022c565b8462000266565b602080601f83116001811462000322575f84156200030a5750858301515b5f19600386901b1c1916600185901b178555620002af565b5f85815260208120601f198616915b82811015620003525788860151825594840194600190910190840162000331565b50858210156200037057878501515f19600388901b60f8161c191681555b5050505050600190811b01905550565b61094b806200038e5f395ff3fe608060405234801561000f575f80fd5b50600436106100f0575f3560e01c806370a082311161009357806395d89b411161006357806395d89b41146101ef578063a9059cbb146101f7578063dd62ed3e1461020a578063f2fde38b14610242575f80fd5b806370a0823114610191578063715018a6146101b957806379cc6790146101c15780638da5cb5b146101d4575f80fd5b806323b872dd116100ce57806323b872dd14610147578063313ce5671461015a57806340c10f191461016957806342966c681461017e575f80fd5b806306fdde03146100f4578063095ea7b31461011257806318160ddd14610135575b5f80fd5b6100fc610255565b604051610109919061078f565b60405180910390f35b6101256101203660046107f5565b6102e5565b6040519015158152602001610109565b6002545b604051908152602001610109565b61012561015536600461081d565b6102fe565b60405160128152602001610109565b61017c6101773660046107f5565b610321565b005b61017c61018c366004610856565b610337565b61013961019f36600461086d565b6001600160a01b03165f9081526020819052604090205490565b61017c610344565b61017c6101cf3660046107f5565b610357565b6005546040516001600160a01b039091168152602001610109565b6100fc61036c565b6101256102053660046107f5565b61037b565b61013961021836600461088d565b6001600160a01b039182165f90815260016020908152604080832093909416825291909152205490565b61017c61025036600461086d565b610388565b606060038054610264906108be565b80601f0160208091040260200160405190810160405280929190818152602001828054610290906108be565b80156102db5780601f106102b2576101008083540402835291602001916102db565b820191905f5260205f20905b8154815290600101906020018083116102be57829003601f168201915b5050505050905090565b5f336102f28185856103c7565b60019150505b92915050565b5f3361030b8582856103d9565b610316858585610454565b506001949350505050565b6103296104b1565b61033382826104de565b5050565b6103413382610512565b50565b61034c6104b1565b6103555f610546565b565b6103628233836103d9565b6103338282610512565b606060048054610264906108be565b5f336102f2818585610454565b6103906104b1565b6001600160a01b0381166103be57604051631e4fbdf760e01b81525f60048201526024015b60405180910390fd5b61034181610546565b6103d48383836001610597565b505050565b6001600160a01b038381165f908152600160209081526040808320938616835292905220545f19811461044e578181101561044057604051637dc7a0d960e11b81526001600160a01b038416600482015260248101829052604481018390526064016103b5565b61044e84848484035f610597565b50505050565b6001600160a01b03831661047d57604051634b637e8f60e11b81525f60048201526024016103b5565b6001600160a01b0382166104a65760405163ec442f0560e01b81525f60048201526024016103b5565b6103d4838383610669565b6005546001600160a01b031633146103555760405163118cdaa760e01b81523360048201526024016103b5565b6001600160a01b0382166105075760405163ec442f0560e01b81525f60048201526024016103b5565b6103335f8383610669565b6001600160a01b03821661053b57604051634b637e8f60e11b81525f60048201526024016103b5565b610333825f83610669565b600580546001600160a01b038381166001600160a01b0319831681179093556040519116919082907f8be0079c531659141344cd1fd0a4f28419497f9722a3daafe3b4186f6b6457e0905f90a35050565b6001600160a01b0384166105c05760405163e602df0560e01b81525f60048201526024016103b5565b6001600160a01b0383166105e957604051634a1406b160e11b81525f60048201526024016103b5565b6001600160a01b038085165f908152600160209081526040808320938716835292905220829055801561044e57826001600160a01b0316846001600160a01b03167f8c5be1e5ebec7d5bd14f71427d1e84f3dd0314c0f7b2291e5b200ac8c7c3b9258460405161065b91815260200190565b60405180910390a350505050565b6001600160a01b038316610693578060025f82825461068891906108f6565b909155506107039050565b6001600160a01b0383165f90815260208190526040902054818110156106e55760405163391434e360e21b81526001600160a01b038516600482015260248101829052604481018390526064016103b5565b6001600160a01b0384165f9081526020819052604090209082900390555b6001600160a01b03821661071f5760028054829003905561073d565b6001600160a01b0382165f9081526020819052604090208054820190555b816001600160a01b0316836001600160a01b03167fddf252ad1be2c89b69c2b068fc378daa952ba7f163c4a11628f55a4df523b3ef8360405161078291815260200190565b60405180910390a3505050565b5f6020808352835180828501525f5b818110156107ba5785810183015185820160400152820161079e565b505f604082860101526040601f19601f8301168501019250505092915050565b80356001600160a01b03811681146107f0575f80fd5b919050565b5f8060408385031215610806575f80fd5b61080f836107da565b946020939093013593505050565b5f805f6060848603121561082f575f80fd5b610838846107da565b9250610846602085016107da565b9150604084013590509250925092565b5f60208284031215610866575f80fd5b5035919050565b5f6020828403121561087d575f80fd5b610886826107da565b9392505050565b5f806040838503121561089e575f80fd5b6108a7836107da565b91506108b5602084016107da565b90509250929050565b600181811c908216806108d257607f821691505b6020821081036108f057634e487b7160e01b5f52602260045260245ffd5b50919050565b808201808211156102f857634e487b7160e01b5f52601160045260245ffdfea2646970667358221220d4345b66bfb7412d2ea509531419dca8158f537841ee0d9aa80e3d80c30a67d364736f6c63430008140033000000000000000000000000b7d030f7c6406446e703e73b3d1dd8611a2d87b6000000000000000000000000000000000000000000000000000000000000006000000000000000000000000000000000000000000000000000000000000000a0000000000000000000000000000000000000000000000000000000000000000a546574686572205553440000000000000000000000000000000000000000000000000000000000000000000000000000000000000000000000000000000000045553445400000000000000000000000000000000000000000000000000000000",
        "nonce": "0xb8",
        "chainId": "0x66eee"
      },
      "additionalContracts": [],
      "isFixedGasLimit": false
    },
    {
      "hash": "0x4632595114aaae5b90f8cdc208de3e91d48b38717eaf4d1cef3edc8b03e347c1",
      "transactionType": "CALL",
      "contractName": null,
      "contractAddress": "0x2e3a8cf0022140a40a7474d879942f0e55bc57de",
      "function": "mint(address,uint256)",
      "arguments": [
        "0xB7d030F7c6406446e703E73B3d1dd8611A2D87b6",
        "1000000000000"
      ],
      "transaction": {
        "from": "0xb7d030f7c6406446e703e73b3d1dd8611a2d87b6",
        "to": "0x2e3a8cf0022140a40a7474d879942f0e55bc57de",
        "gas": "0x7019",
        "value": "0x0",
        "input": "0x40c10f19000000000000000000000000b7d030f7c6406446e703e73b3d1dd8611a2d87b6000000000000000000000000000000000000000000000000000000e8d4a51000",
        "nonce": "0xb9",
        "chainId": "0x66eee"
      },
      "additionalContracts": [],
      "isFixedGasLimit": false
    },
    {
      "hash": "0x44e3f7f7f1e5510f83a79718e2b4bff0091dae97fddb4e62aaec853cd457042a",
      "transactionType": "CALL",
      "contractName": null,
      "contractAddress": "0x2e3a8cf0022140a40a7474d879942f0e55bc57de",
      "function": "mint(address,uint256)",
      "arguments": [
        "0x4F88F1014Dd6Ca0507780380111c098BeE6b87e6",
        "1000000000000"
      ],
      "transaction": {
        "from": "0xb7d030f7c6406446e703e73b3d1dd8611a2d87b6",
        "to": "0x2e3a8cf0022140a40a7474d879942f0e55bc57de",
        "gas": "0x7019",
        "value": "0x0",
        "input": "0x40c10f190000000000000000000000004f88f1014dd6ca0507780380111c098bee6b87e6000000000000000000000000000000000000000000000000000000e8d4a51000",
        "nonce": "0xba",
        "chainId": "0x66eee"
      },
      "additionalContracts": [],
      "isFixedGasLimit": false
    },
    {
      "hash": "0x9f22f5468f55480eb6323118ad786129e1de1a3fe681bb68a54a735cfe2883fc",
      "transactionType": "CALL",
      "contractName": null,
      "contractAddress": "0x2e3a8cf0022140a40a7474d879942f0e55bc57de",
      "function": "mint(address,uint256)",
      "arguments": [
        "0xC31f6b8133d618aD2ff1AC5fAA3Fc4B20557B901",
        "1000000000000"
      ],
      "transaction": {
        "from": "0xb7d030f7c6406446e703e73b3d1dd8611a2d87b6",
        "to": "0x2e3a8cf0022140a40a7474d879942f0e55bc57de",
        "gas": "0x7019",
        "value": "0x0",
        "input": "0x40c10f19000000000000000000000000c31f6b8133d618ad2ff1ac5faa3fc4b20557b901000000000000000000000000000000000000000000000000000000e8d4a51000",
        "nonce": "0xbb",
        "chainId": "0x66eee"
      },
      "additionalContracts": [],
      "isFixedGasLimit": false
    },
    {
      "hash": "0xeeff00256f6ca8c0f4af693838f4c92c39a0e94650fc8c4a89b677c5b78f6f03",
      "transactionType": "CALL",
      "contractName": null,
      "contractAddress": "0x2e3a8cf0022140a40a7474d879942f0e55bc57de",
      "function": "mint(address,uint256)",
      "arguments": [
        "0x66E675533020c3CDeE2F33E372320B7e2692211e",
        "1000000000000"
      ],
      "transaction": {
        "from": "0xb7d030f7c6406446e703e73b3d1dd8611a2d87b6",
        "to": "0x2e3a8cf0022140a40a7474d879942f0e55bc57de",
        "gas": "0x7019",
        "value": "0x0",
        "input": "0x40c10f1900000000000000000000000066e675533020c3cdee2f33e372320b7e2692211e000000000000000000000000000000000000000000000000000000e8d4a51000",
        "nonce": "0xbc",
        "chainId": "0x66eee"
      },
      "additionalContracts": [],
      "isFixedGasLimit": false
    },
    {
      "hash": "0xa1986258fc32425dfa9b1d2ee94252c12fb97636ec4dac52e4e6847597c474e8",
      "transactionType": "CALL",
      "contractName": null,
      "contractAddress": "0x2e3a8cf0022140a40a7474d879942f0e55bc57de",
      "function": "mint(address,uint256)",
      "arguments": [
        "0x8c4Eb6988A199DAbcae0Ce31052b3f3aC591787e",
        "1000000000000"
      ],
      "transaction": {
        "from": "0xb7d030f7c6406446e703e73b3d1dd8611a2d87b6",
        "to": "0x2e3a8cf0022140a40a7474d879942f0e55bc57de",
        "gas": "0x7019",
        "value": "0x0",
        "input": "0x40c10f190000000000000000000000008c4eb6988a199dabcae0ce31052b3f3ac591787e000000000000000000000000000000000000000000000000000000e8d4a51000",
        "nonce": "0xbd",
        "chainId": "0x66eee"
      },
      "additionalContracts": [],
      "isFixedGasLimit": false
    },
    {
      "hash": "0x0ca7876d6dd8cdd81019c040b6f44f7772ff0aad8ebef16c90c01446dd45a548",
      "transactionType": "CREATE",
      "contractName": null,
      "contractAddress": "0x1e3151ef594580773651c826414a8b97cdf6ff10",
      "function": null,
      "arguments": null,
      "transaction": {
        "from": "0xb7d030f7c6406446e703e73b3d1dd8611a2d87b6",
        "gas": "0xd2286",
        "value": "0x0",
        "input": "0x608060405234801562000010575f80fd5b5060405162000cd938038062000cd98339810160408190526200003391620001a8565b8282826003620000448382620002b8565b506004620000538282620002b8565b5050506001600160a01b0381166200008457604051631e4fbdf760e01b81525f600482015260240160405180910390fd5b6200008f8162000099565b5050505062000380565b600580546001600160a01b038381166001600160a01b0319831681179093556040519116919082907f8be0079c531659141344cd1fd0a4f28419497f9722a3daafe3b4186f6b6457e0905f90a35050565b634e487b7160e01b5f52604160045260245ffd5b5f82601f8301126200010e575f80fd5b81516001600160401b03808211156200012b576200012b620000ea565b604051601f8301601f19908116603f01168101908282118183101715620001565762000156620000ea565b8160405283815260209250868385880101111562000172575f80fd5b5f91505b8382101562000195578582018301518183018401529082019062000176565b5f93810190920192909252949350505050565b5f805f60608486031215620001bb575f80fd5b83516001600160a01b0381168114620001d2575f80fd5b60208501519093506001600160401b0380821115620001ef575f80fd5b620001fd87838801620000fe565b9350604086015191508082111562000213575f80fd5b506200022286828701620000fe565b9150509250925092565b600181811c908216806200024157607f821691505b6020821081036200026057634e487b7160e01b5f52602260045260245ffd5b50919050565b601f821115620002b3575f81815260208120601f850160051c810160208610156200028e5750805b601f850160051c820191505b81811015620002af578281556001016200029a565b5050505b505050565b81516001600160401b03811115620002d457620002d4620000ea565b620002ec81620002e584546200022c565b8462000266565b602080601f83116001811462000322575f84156200030a5750858301515b5f19600386901b1c1916600185901b178555620002af565b5f85815260208120601f198616915b82811015620003525788860151825594840194600190910190840162000331565b50858210156200037057878501515f19600388901b60f8161c191681555b5050505050600190811b01905550565b61094b806200038e5f395ff3fe608060405234801561000f575f80fd5b50600436106100f0575f3560e01c806370a082311161009357806395d89b411161006357806395d89b41146101ef578063a9059cbb146101f7578063dd62ed3e1461020a578063f2fde38b14610242575f80fd5b806370a0823114610191578063715018a6146101b957806379cc6790146101c15780638da5cb5b146101d4575f80fd5b806323b872dd116100ce57806323b872dd14610147578063313ce5671461015a57806340c10f191461016957806342966c681461017e575f80fd5b806306fdde03146100f4578063095ea7b31461011257806318160ddd14610135575b5f80fd5b6100fc610255565b604051610109919061078f565b60405180910390f35b6101256101203660046107f5565b6102e5565b6040519015158152602001610109565b6002545b604051908152602001610109565b61012561015536600461081d565b6102fe565b60405160128152602001610109565b61017c6101773660046107f5565b610321565b005b61017c61018c366004610856565b610337565b61013961019f36600461086d565b6001600160a01b03165f9081526020819052604090205490565b61017c610344565b61017c6101cf3660046107f5565b610357565b6005546040516001600160a01b039091168152602001610109565b6100fc61036c565b6101256102053660046107f5565b61037b565b61013961021836600461088d565b6001600160a01b039182165f90815260016020908152604080832093909416825291909152205490565b61017c61025036600461086d565b610388565b606060038054610264906108be565b80601f0160208091040260200160405190810160405280929190818152602001828054610290906108be565b80156102db5780601f106102b2576101008083540402835291602001916102db565b820191905f5260205f20905b8154815290600101906020018083116102be57829003601f168201915b5050505050905090565b5f336102f28185856103c7565b60019150505b92915050565b5f3361030b8582856103d9565b610316858585610454565b506001949350505050565b6103296104b1565b61033382826104de565b5050565b6103413382610512565b50565b61034c6104b1565b6103555f610546565b565b6103628233836103d9565b6103338282610512565b606060048054610264906108be565b5f336102f2818585610454565b6103906104b1565b6001600160a01b0381166103be57604051631e4fbdf760e01b81525f60048201526024015b60405180910390fd5b61034181610546565b6103d48383836001610597565b505050565b6001600160a01b038381165f908152600160209081526040808320938616835292905220545f19811461044e578181101561044057604051637dc7a0d960e11b81526001600160a01b038416600482015260248101829052604481018390526064016103b5565b61044e84848484035f610597565b50505050565b6001600160a01b03831661047d57604051634b637e8f60e11b81525f60048201526024016103b5565b6001600160a01b0382166104a65760405163ec442f0560e01b81525f60048201526024016103b5565b6103d4838383610669565b6005546001600160a01b031633146103555760405163118cdaa760e01b81523360048201526024016103b5565b6001600160a01b0382166105075760405163ec442f0560e01b81525f60048201526024016103b5565b6103335f8383610669565b6001600160a01b03821661053b57604051634b637e8f60e11b81525f60048201526024016103b5565b610333825f83610669565b600580546001600160a01b038381166001600160a01b0319831681179093556040519116919082907f8be0079c531659141344cd1fd0a4f28419497f9722a3daafe3b4186f6b6457e0905f90a35050565b6001600160a01b0384166105c05760405163e602df0560e01b81525f60048201526024016103b5565b6001600160a01b0383166105e957604051634a1406b160e11b81525f60048201526024016103b5565b6001600160a01b038085165f908152600160209081526040808320938716835292905220829055801561044e57826001600160a01b0316846001600160a01b03167f8c5be1e5ebec7d5bd14f71427d1e84f3dd0314c0f7b2291e5b200ac8c7c3b9258460405161065b91815260200190565b60405180910390a350505050565b6001600160a01b038316610693578060025f82825461068891906108f6565b909155506107039050565b6001600160a01b0383165f90815260208190526040902054818110156106e55760405163391434e360e21b81526001600160a01b038516600482015260248101829052604481018390526064016103b5565b6001600160a01b0384165f9081526020819052604090209082900390555b6001600160a01b03821661071f5760028054829003905561073d565b6001600160a01b0382165f9081526020819052604090208054820190555b816001600160a01b0316836001600160a01b03167fddf252ad1be2c89b69c2b068fc378daa952ba7f163c4a11628f55a4df523b3ef8360405161078291815260200190565b60405180910390a3505050565b5f6020808352835180828501525f5b818110156107ba5785810183015185820160400152820161079e565b505f604082860101526040601f19601f8301168501019250505092915050565b80356001600160a01b03811681146107f0575f80fd5b919050565b5f8060408385031215610806575f80fd5b61080f836107da565b946020939093013593505050565b5f805f6060848603121561082f575f80fd5b610838846107da565b9250610846602085016107da565b9150604084013590509250925092565b5f60208284031215610866575f80fd5b5035919050565b5f6020828403121561087d575f80fd5b610886826107da565b9392505050565b5f806040838503121561089e575f80fd5b6108a7836107da565b91506108b5602084016107da565b90509250929050565b600181811c908216806108d257607f821691505b6020821081036108f057634e487b7160e01b5f52602260045260245ffd5b50919050565b808201808211156102f857634e487b7160e01b5f52601160045260245ffdfea2646970667358221220d4345b66bfb7412d2ea509531419dca8158f537841ee0d9aa80e3d80c30a67d364736f6c63430008140033000000000000000000000000b7d030f7c6406446e703e73b3d1dd8611a2d87b6000000000000000000000000000000000000000000000000000000000000006000000000000000000000000000000000000000000000000000000000000000a0000000000000000000000000000000000000000000000000000000000000000855534420436f696e00000000000000000000000000000000000000000000000000000000000000000000000000000000000000000000000000000000000000045553444300000000000000000000000000000000000000000000000000000000",
        "nonce": "0xbe",
        "chainId": "0x66eee"
      },
      "additionalContracts": [],
      "isFixedGasLimit": false
    },
    {
      "hash": "0xe57867372cc5f27c435076c0e998947af17ff9157e7ee973c0feace472a2f155",
      "transactionType": "CALL",
      "contractName": null,
      "contractAddress": "0x1e3151ef594580773651c826414a8b97cdf6ff10",
      "function": "mint(address,uint256)",
      "arguments": [
        "0xB7d030F7c6406446e703E73B3d1dd8611A2D87b6",
        "1000000000000"
      ],
      "transaction": {
        "from": "0xb7d030f7c6406446e703e73b3d1dd8611a2d87b6",
        "to": "0x1e3151ef594580773651c826414a8b97cdf6ff10",
        "gas": "0x7019",
        "value": "0x0",
        "input": "0x40c10f19000000000000000000000000b7d030f7c6406446e703e73b3d1dd8611a2d87b6000000000000000000000000000000000000000000000000000000e8d4a51000",
        "nonce": "0xbf",
        "chainId": "0x66eee"
      },
      "additionalContracts": [],
      "isFixedGasLimit": false
    },
    {
      "hash": "0xa5c466d572282b70aca14fb722795f5bdbd55cafa33d0a3ed142467390c829a4",
      "transactionType": "CALL",
      "contractName": null,
      "contractAddress": "0x1e3151ef594580773651c826414a8b97cdf6ff10",
      "function": "mint(address,uint256)",
      "arguments": [
        "0x4F88F1014Dd6Ca0507780380111c098BeE6b87e6",
        "1000000000000"
      ],
      "transaction": {
        "from": "0xb7d030f7c6406446e703e73b3d1dd8611a2d87b6",
        "to": "0x1e3151ef594580773651c826414a8b97cdf6ff10",
        "gas": "0x7019",
        "value": "0x0",
        "input": "0x40c10f190000000000000000000000004f88f1014dd6ca0507780380111c098bee6b87e6000000000000000000000000000000000000000000000000000000e8d4a51000",
        "nonce": "0xc0",
        "chainId": "0x66eee"
      },
      "additionalContracts": [],
      "isFixedGasLimit": false
    },
    {
      "hash": "0x00759f80cf271a8e00c41a12bd6625cf025af51955d26a0241e5dfdffc26e485",
      "transactionType": "CALL",
      "contractName": null,
      "contractAddress": "0x1e3151ef594580773651c826414a8b97cdf6ff10",
      "function": "mint(address,uint256)",
      "arguments": [
        "0xC31f6b8133d618aD2ff1AC5fAA3Fc4B20557B901",
        "1000000000000"
      ],
      "transaction": {
        "from": "0xb7d030f7c6406446e703e73b3d1dd8611a2d87b6",
        "to": "0x1e3151ef594580773651c826414a8b97cdf6ff10",
        "gas": "0x7019",
        "value": "0x0",
        "input": "0x40c10f19000000000000000000000000c31f6b8133d618ad2ff1ac5faa3fc4b20557b901000000000000000000000000000000000000000000000000000000e8d4a51000",
        "nonce": "0xc1",
        "chainId": "0x66eee"
      },
      "additionalContracts": [],
      "isFixedGasLimit": false
    },
    {
      "hash": "0xde00c0bbf7dacb08b3c0ef01243635c6ddffbd61797235d399719d0577f48ab6",
      "transactionType": "CALL",
      "contractName": null,
      "contractAddress": "0x1e3151ef594580773651c826414a8b97cdf6ff10",
      "function": "mint(address,uint256)",
      "arguments": [
        "0x66E675533020c3CDeE2F33E372320B7e2692211e",
        "1000000000000"
      ],
      "transaction": {
        "from": "0xb7d030f7c6406446e703e73b3d1dd8611a2d87b6",
        "to": "0x1e3151ef594580773651c826414a8b97cdf6ff10",
        "gas": "0x7019",
        "value": "0x0",
        "input": "0x40c10f1900000000000000000000000066e675533020c3cdee2f33e372320b7e2692211e000000000000000000000000000000000000000000000000000000e8d4a51000",
        "nonce": "0xc2",
        "chainId": "0x66eee"
      },
      "additionalContracts": [],
      "isFixedGasLimit": false
    },
    {
      "hash": "0x872d29221af948c4db3cd7749ce9a4c01cabdbbf109b92950ff6ed55376492ed",
      "transactionType": "CALL",
      "contractName": null,
      "contractAddress": "0x1e3151ef594580773651c826414a8b97cdf6ff10",
      "function": "mint(address,uint256)",
      "arguments": [
        "0x8c4Eb6988A199DAbcae0Ce31052b3f3aC591787e",
        "1000000000000"
      ],
      "transaction": {
        "from": "0xb7d030f7c6406446e703e73b3d1dd8611a2d87b6",
        "to": "0x1e3151ef594580773651c826414a8b97cdf6ff10",
        "gas": "0x7019",
        "value": "0x0",
        "input": "0x40c10f190000000000000000000000008c4eb6988a199dabcae0ce31052b3f3ac591787e000000000000000000000000000000000000000000000000000000e8d4a51000",
        "nonce": "0xc3",
        "chainId": "0x66eee"
      },
      "additionalContracts": [],
      "isFixedGasLimit": false
    },
    {
      "hash": "0xe31f935e1bc9114cc1287b7ab4959ced462c2d0cc677a86209a73b1932dae5c0",
      "transactionType": "CREATE",
      "contractName": null,
      "contractAddress": "0xe51ade97db1151c6e8a7d465b84b29eb9422b5b8",
      "function": null,
      "arguments": null,
      "transaction": {
        "from": "0xb7d030f7c6406446e703e73b3d1dd8611a2d87b6",
        "gas": "0xd22b1",
        "value": "0x0",
        "input": "0x608060405234801562000010575f80fd5b5060405162000cd938038062000cd98339810160408190526200003391620001a8565b8282826003620000448382620002b8565b506004620000538282620002b8565b5050506001600160a01b0381166200008457604051631e4fbdf760e01b81525f600482015260240160405180910390fd5b6200008f8162000099565b5050505062000380565b600580546001600160a01b038381166001600160a01b0319831681179093556040519116919082907f8be0079c531659141344cd1fd0a4f28419497f9722a3daafe3b4186f6b6457e0905f90a35050565b634e487b7160e01b5f52604160045260245ffd5b5f82601f8301126200010e575f80fd5b81516001600160401b03808211156200012b576200012b620000ea565b604051601f8301601f19908116603f01168101908282118183101715620001565762000156620000ea565b8160405283815260209250868385880101111562000172575f80fd5b5f91505b8382101562000195578582018301518183018401529082019062000176565b5f93810190920192909252949350505050565b5f805f60608486031215620001bb575f80fd5b83516001600160a01b0381168114620001d2575f80fd5b60208501519093506001600160401b0380821115620001ef575f80fd5b620001fd87838801620000fe565b9350604086015191508082111562000213575f80fd5b506200022286828701620000fe565b9150509250925092565b600181811c908216806200024157607f821691505b6020821081036200026057634e487b7160e01b5f52602260045260245ffd5b50919050565b601f821115620002b3575f81815260208120601f850160051c810160208610156200028e5750805b601f850160051c820191505b81811015620002af578281556001016200029a565b5050505b505050565b81516001600160401b03811115620002d457620002d4620000ea565b620002ec81620002e584546200022c565b8462000266565b602080601f83116001811462000322575f84156200030a5750858301515b5f19600386901b1c1916600185901b178555620002af565b5f85815260208120601f198616915b82811015620003525788860151825594840194600190910190840162000331565b50858210156200037057878501515f19600388901b60f8161c191681555b5050505050600190811b01905550565b61094b806200038e5f395ff3fe608060405234801561000f575f80fd5b50600436106100f0575f3560e01c806370a082311161009357806395d89b411161006357806395d89b41146101ef578063a9059cbb146101f7578063dd62ed3e1461020a578063f2fde38b14610242575f80fd5b806370a0823114610191578063715018a6146101b957806379cc6790146101c15780638da5cb5b146101d4575f80fd5b806323b872dd116100ce57806323b872dd14610147578063313ce5671461015a57806340c10f191461016957806342966c681461017e575f80fd5b806306fdde03146100f4578063095ea7b31461011257806318160ddd14610135575b5f80fd5b6100fc610255565b604051610109919061078f565b60405180910390f35b6101256101203660046107f5565b6102e5565b6040519015158152602001610109565b6002545b604051908152602001610109565b61012561015536600461081d565b6102fe565b60405160128152602001610109565b61017c6101773660046107f5565b610321565b005b61017c61018c366004610856565b610337565b61013961019f36600461086d565b6001600160a01b03165f9081526020819052604090205490565b61017c610344565b61017c6101cf3660046107f5565b610357565b6005546040516001600160a01b039091168152602001610109565b6100fc61036c565b6101256102053660046107f5565b61037b565b61013961021836600461088d565b6001600160a01b039182165f90815260016020908152604080832093909416825291909152205490565b61017c61025036600461086d565b610388565b606060038054610264906108be565b80601f0160208091040260200160405190810160405280929190818152602001828054610290906108be565b80156102db5780601f106102b2576101008083540402835291602001916102db565b820191905f5260205f20905b8154815290600101906020018083116102be57829003601f168201915b5050505050905090565b5f336102f28185856103c7565b60019150505b92915050565b5f3361030b8582856103d9565b610316858585610454565b506001949350505050565b6103296104b1565b61033382826104de565b5050565b6103413382610512565b50565b61034c6104b1565b6103555f610546565b565b6103628233836103d9565b6103338282610512565b606060048054610264906108be565b5f336102f2818585610454565b6103906104b1565b6001600160a01b0381166103be57604051631e4fbdf760e01b81525f60048201526024015b60405180910390fd5b61034181610546565b6103d48383836001610597565b505050565b6001600160a01b038381165f908152600160209081526040808320938616835292905220545f19811461044e578181101561044057604051637dc7a0d960e11b81526001600160a01b038416600482015260248101829052604481018390526064016103b5565b61044e84848484035f610597565b50505050565b6001600160a01b03831661047d57604051634b637e8f60e11b81525f60048201526024016103b5565b6001600160a01b0382166104a65760405163ec442f0560e01b81525f60048201526024016103b5565b6103d4838383610669565b6005546001600160a01b031633146103555760405163118cdaa760e01b81523360048201526024016103b5565b6001600160a01b0382166105075760405163ec442f0560e01b81525f60048201526024016103b5565b6103335f8383610669565b6001600160a01b03821661053b57604051634b637e8f60e11b81525f60048201526024016103b5565b610333825f83610669565b600580546001600160a01b038381166001600160a01b0319831681179093556040519116919082907f8be0079c531659141344cd1fd0a4f28419497f9722a3daafe3b4186f6b6457e0905f90a35050565b6001600160a01b0384166105c05760405163e602df0560e01b81525f60048201526024016103b5565b6001600160a01b0383166105e957604051634a1406b160e11b81525f60048201526024016103b5565b6001600160a01b038085165f908152600160209081526040808320938716835292905220829055801561044e57826001600160a01b0316846001600160a01b03167f8c5be1e5ebec7d5bd14f71427d1e84f3dd0314c0f7b2291e5b200ac8c7c3b9258460405161065b91815260200190565b60405180910390a350505050565b6001600160a01b038316610693578060025f82825461068891906108f6565b909155506107039050565b6001600160a01b0383165f90815260208190526040902054818110156106e55760405163391434e360e21b81526001600160a01b038516600482015260248101829052604481018390526064016103b5565b6001600160a01b0384165f9081526020819052604090209082900390555b6001600160a01b03821661071f5760028054829003905561073d565b6001600160a01b0382165f9081526020819052604090208054820190555b816001600160a01b0316836001600160a01b03167fddf252ad1be2c89b69c2b068fc378daa952ba7f163c4a11628f55a4df523b3ef8360405161078291815260200190565b60405180910390a3505050565b5f6020808352835180828501525f5b818110156107ba5785810183015185820160400152820161079e565b505f604082860101526040601f19601f8301168501019250505092915050565b80356001600160a01b03811681146107f0575f80fd5b919050565b5f8060408385031215610806575f80fd5b61080f836107da565b946020939093013593505050565b5f805f6060848603121561082f575f80fd5b610838846107da565b9250610846602085016107da565b9150604084013590509250925092565b5f60208284031215610866575f80fd5b5035919050565b5f6020828403121561087d575f80fd5b610886826107da565b9392505050565b5f806040838503121561089e575f80fd5b6108a7836107da565b91506108b5602084016107da565b90509250929050565b600181811c908216806108d257607f821691505b6020821081036108f057634e487b7160e01b5f52602260045260245ffd5b50919050565b808201808211156102f857634e487b7160e01b5f52601160045260245ffdfea2646970667358221220d4345b66bfb7412d2ea509531419dca8158f537841ee0d9aa80e3d80c30a67d364736f6c63430008140033000000000000000000000000b7d030f7c6406446e703e73b3d1dd8611a2d87b6000000000000000000000000000000000000000000000000000000000000006000000000000000000000000000000000000000000000000000000000000000a0000000000000000000000000000000000000000000000000000000000000000b577261707065642042544300000000000000000000000000000000000000000000000000000000000000000000000000000000000000000000000000000000045742544300000000000000000000000000000000000000000000000000000000",
        "nonce": "0xc4",
        "chainId": "0x66eee"
      },
      "additionalContracts": [],
      "isFixedGasLimit": false
    },
    {
      "hash": "0xf8793acf71be01d1b704e5da1f4c49fc6db52a03af9ab6c2c1ea23cadc7f29f3",
      "transactionType": "CALL",
      "contractName": null,
      "contractAddress": "0xe51ade97db1151c6e8a7d465b84b29eb9422b5b8",
      "function": "mint(address,uint256)",
      "arguments": [
        "0xB7d030F7c6406446e703E73B3d1dd8611A2D87b6",
        "10000000000"
      ],
      "transaction": {
        "from": "0xb7d030f7c6406446e703e73b3d1dd8611a2d87b6",
        "to": "0xe51ade97db1151c6e8a7d465b84b29eb9422b5b8",
        "gas": "0x7019",
        "value": "0x0",
        "input": "0x40c10f19000000000000000000000000b7d030f7c6406446e703e73b3d1dd8611a2d87b600000000000000000000000000000000000000000000000000000002540be400",
        "nonce": "0xc5",
        "chainId": "0x66eee"
      },
      "additionalContracts": [],
      "isFixedGasLimit": false
    },
    {
      "hash": "0x24ba936e2416a9b22ac4fc3743ac8c7db1930feb5dd8d733b00ce5cbaf6a6abc",
      "transactionType": "CALL",
      "contractName": null,
      "contractAddress": "0xe51ade97db1151c6e8a7d465b84b29eb9422b5b8",
      "function": "mint(address,uint256)",
      "arguments": [
        "0x4F88F1014Dd6Ca0507780380111c098BeE6b87e6",
        "10000000000"
      ],
      "transaction": {
        "from": "0xb7d030f7c6406446e703e73b3d1dd8611a2d87b6",
        "to": "0xe51ade97db1151c6e8a7d465b84b29eb9422b5b8",
        "gas": "0x7019",
        "value": "0x0",
        "input": "0x40c10f190000000000000000000000004f88f1014dd6ca0507780380111c098bee6b87e600000000000000000000000000000000000000000000000000000002540be400",
        "nonce": "0xc6",
        "chainId": "0x66eee"
      },
      "additionalContracts": [],
      "isFixedGasLimit": false
    },
    {
      "hash": "0x421672efdaa1d7e03e9e4a724ea537101dfa2e1a5a879f628d084d6ed71dcaf8",
      "transactionType": "CALL",
      "contractName": null,
      "contractAddress": "0xe51ade97db1151c6e8a7d465b84b29eb9422b5b8",
      "function": "mint(address,uint256)",
      "arguments": [
        "0xC31f6b8133d618aD2ff1AC5fAA3Fc4B20557B901",
        "10000000000"
      ],
      "transaction": {
        "from": "0xb7d030f7c6406446e703e73b3d1dd8611a2d87b6",
        "to": "0xe51ade97db1151c6e8a7d465b84b29eb9422b5b8",
        "gas": "0x7019",
        "value": "0x0",
        "input": "0x40c10f19000000000000000000000000c31f6b8133d618ad2ff1ac5faa3fc4b20557b90100000000000000000000000000000000000000000000000000000002540be400",
        "nonce": "0xc7",
        "chainId": "0x66eee"
      },
      "additionalContracts": [],
      "isFixedGasLimit": false
    },
    {
      "hash": "0xd6843a4aa11a5660c377d75d32f27c94803b93e79a7d688fef65e4c0620c8349",
      "transactionType": "CALL",
      "contractName": null,
      "contractAddress": "0xe51ade97db1151c6e8a7d465b84b29eb9422b5b8",
      "function": "mint(address,uint256)",
      "arguments": [
        "0x66E675533020c3CDeE2F33E372320B7e2692211e",
        "10000000000"
      ],
      "transaction": {
        "from": "0xb7d030f7c6406446e703e73b3d1dd8611a2d87b6",
        "to": "0xe51ade97db1151c6e8a7d465b84b29eb9422b5b8",
        "gas": "0x7019",
        "value": "0x0",
        "input": "0x40c10f1900000000000000000000000066e675533020c3cdee2f33e372320b7e2692211e00000000000000000000000000000000000000000000000000000002540be400",
        "nonce": "0xc8",
        "chainId": "0x66eee"
      },
      "additionalContracts": [],
      "isFixedGasLimit": false
    },
    {
      "hash": "0x65857441bd4473b6f3e2a34693036eb7cef5c77069b2edf40d7e31767c9c3fe3",
      "transactionType": "CALL",
      "contractName": null,
      "contractAddress": "0xe51ade97db1151c6e8a7d465b84b29eb9422b5b8",
      "function": "mint(address,uint256)",
      "arguments": [
        "0x8c4Eb6988A199DAbcae0Ce31052b3f3aC591787e",
        "10000000000"
      ],
      "transaction": {
        "from": "0xb7d030f7c6406446e703e73b3d1dd8611a2d87b6",
        "to": "0xe51ade97db1151c6e8a7d465b84b29eb9422b5b8",
        "gas": "0x7019",
        "value": "0x0",
        "input": "0x40c10f190000000000000000000000008c4eb6988a199dabcae0ce31052b3f3ac591787e00000000000000000000000000000000000000000000000000000002540be400",
        "nonce": "0xc9",
        "chainId": "0x66eee"
      },
      "additionalContracts": [],
      "isFixedGasLimit": false
    },
    {
      "hash": "0x7dae8dac43780ce2564463120165d4ff1ee193b1401e1d4660a5e6222de3cc30",
      "transactionType": "CALL",
      "contractName": null,
      "contractAddress": "0x9ce09649451616733844b77a5d67ff2e467d2a14",
      "function": "setAddresses(string[],address[])",
      "arguments": [
        "[\"TOKEN_USDT\", \"TOKEN_USDC\", \"TOKEN_WBTC\"]",
        "[0x2E3a8Cf0022140a40a7474d879942f0e55bC57dE, 0x1E3151EF594580773651C826414a8b97CDf6FF10, 0xE51ade97dB1151c6e8a7D465B84B29eB9422b5B8]"
      ],
      "transaction": {
        "from": "0xb7d030f7c6406446e703e73b3d1dd8611a2d87b6",
        "to": "0x9ce09649451616733844b77a5d67ff2e467d2a14",
        "gas": "0x215b7",
        "value": "0x0",
        "input": "0x7d69a892000000000000000000000000000000000000000000000000000000000000004000000000000000000000000000000000000000000000000000000000000001800000000000000000000000000000000000000000000000000000000000000003000000000000000000000000000000000000000000000000000000000000006000000000000000000000000000000000000000000000000000000000000000a000000000000000000000000000000000000000000000000000000000000000e0000000000000000000000000000000000000000000000000000000000000000a544f4b454e5f5553445400000000000000000000000000000000000000000000000000000000000000000000000000000000000000000000000000000000000a544f4b454e5f5553444300000000000000000000000000000000000000000000000000000000000000000000000000000000000000000000000000000000000a544f4b454e5f574254430000000000000000000000000000000000000000000000000000000000000000000000000000000000000000000000000000000000030000000000000000000000002e3a8cf0022140a40a7474d879942f0e55bc57de0000000000000000000000001e3151ef594580773651c826414a8b97cdf6ff10000000000000000000000000e51ade97db1151c6e8a7d465b84b29eb9422b5b8",
        "nonce": "0xca",
        "chainId": "0x66eee"
      },
      "additionalContracts": [],
      "isFixedGasLimit": false
    }
  ],
  "receipts": [
    {
      "status": "0x1",
      "cumulativeGasUsed": "0xa005b",
      "logs": [
        {
          "address": "0x2e3a8cf0022140a40a7474d879942f0e55bc57de",
          "topics": [
            "0x8be0079c531659141344cd1fd0a4f28419497f9722a3daafe3b4186f6b6457e0",
            "0x0000000000000000000000000000000000000000000000000000000000000000",
            "0x000000000000000000000000b7d030f7c6406446e703e73b3d1dd8611a2d87b6"
          ],
          "data": "0x",
          "blockHash": "0x6f6cce949b7dd41f43a40941e2bd93f667b93193024055138ac63ad235516942",
          "blockNumber": "0x570016b",
          "transactionHash": "0xdff9ef85b065ac097dda5280d7db44a1e209288a93b0c87106712bf3abf24ddb",
          "transactionIndex": "0x1",
          "logIndex": "0x0",
          "removed": false
        }
      ],
      "logsBloom": "0x00000000000000000000000000000000000000000000000000800000000000000000000000000000000000000000000000010000000000000000000000000000000000000000000000000000000000000001000000600000000000000000000000000000020000000000000000000800000000000000000200000000000000400000000000000000000000000000000000000000000000000000000000000020000000000000000000000001000000000000000000000000000000000000000000000000000000000000000000000000000000000000000000000000000020000000000000000000000000000000000000000000000000000000000000000000",
      "type": "0x2",
      "transactionHash": "0xdff9ef85b065ac097dda5280d7db44a1e209288a93b0c87106712bf3abf24ddb",
      "transactionIndex": "0x1",
      "blockHash": "0x6f6cce949b7dd41f43a40941e2bd93f667b93193024055138ac63ad235516942",
      "blockNumber": "0x570016b",
      "gasUsed": "0xa005b",
      "effectiveGasPrice": "0x5f5e100",
      "from": "0xb7d030f7c6406446e703e73b3d1dd8611a2d87b6",
      "to": null,
      "contractAddress": "0x2e3a8cf0022140a40a7474d879942f0e55bc57de",
      "gasUsedForL1": "0xb3d",
      "l1BlockNumber": "0x69cf81"
    },
    {
      "status": "0x1",
      "cumulativeGasUsed": "0x15c121",
      "logs": [
        {
          "address": "0x2e3a8cf0022140a40a7474d879942f0e55bc57de",
          "topics": [
            "0xddf252ad1be2c89b69c2b068fc378daa952ba7f163c4a11628f55a4df523b3ef",
            "0x0000000000000000000000000000000000000000000000000000000000000000",
            "0x000000000000000000000000b7d030f7c6406446e703e73b3d1dd8611a2d87b6"
          ],
          "data": "0x000000000000000000000000000000000000000000000000000000e8d4a51000",
          "blockHash": "0xa08f683ebea4c14939665e045735ea2d4fcdf4bf78fb627baf25c510aaca3d6f",
          "blockNumber": "0x5700173",
          "transactionHash": "0x4632595114aaae5b90f8cdc208de3e91d48b38717eaf4d1cef3edc8b03e347c1",
          "transactionIndex": "0x2",
          "logIndex": "0x1",
          "removed": false
        }
      ],
      "logsBloom": "0x00000000000000000000000000000000000000000000000000000000000000000000000000000000000000000000000000010000000000000000000000000000000000000000000000000008000000000000000000600000000000000000000000000000020000000000000000000800000000000000000200000010000000000000000000000000000000000000000000000000000000000000000000000020000000000000000000000001000000000000000000000000000000000000000000000002000000000000000000000000000000000000000000000000000020000000000000000000000000000000000000000000000000000000000000000000",
      "type": "0x2",
      "transactionHash": "0x4632595114aaae5b90f8cdc208de3e91d48b38717eaf4d1cef3edc8b03e347c1",
      "transactionIndex": "0x2",
      "blockHash": "0xa08f683ebea4c14939665e045735ea2d4fcdf4bf78fb627baf25c510aaca3d6f",
      "blockNumber": "0x5700173",
      "gasUsed": "0x114ca",
      "effectiveGasPrice": "0x5f5e100",
      "from": "0xb7d030f7c6406446e703e73b3d1dd8611a2d87b6",
      "to": "0x2e3a8cf0022140a40a7474d879942f0e55bc57de",
      "contractAddress": null,
      "gasUsedForL1": "0xeb",
      "l1BlockNumber": "0x69cf81"
    },
    {
      "status": "0x1",
      "cumulativeGasUsed": "0xd1fe",
      "logs": [
        {
          "address": "0x2e3a8cf0022140a40a7474d879942f0e55bc57de",
          "topics": [
            "0xddf252ad1be2c89b69c2b068fc378daa952ba7f163c4a11628f55a4df523b3ef",
            "0x0000000000000000000000000000000000000000000000000000000000000000",
            "0x0000000000000000000000004f88f1014dd6ca0507780380111c098bee6b87e6"
          ],
          "data": "0x000000000000000000000000000000000000000000000000000000e8d4a51000",
          "blockHash": "0x4ae8b339fe566aa58966b4bb729cd128e230dd51d22168ed9c02437fbdbdd785",
          "blockNumber": "0x5700178",
          "transactionHash": "0x44e3f7f7f1e5510f83a79718e2b4bff0091dae97fddb4e62aaec853cd457042a",
          "transactionIndex": "0x1",
          "logIndex": "0x0",
          "removed": false
        }
      ],
      "logsBloom": "0x00000000000000000000000002000000000000000000000000000000000000000000000000000000000000000000000000010000000000000000000000000000000000000000000000000008000000000000000000200000000000000000000000000000020000000000000000000800000000000000000000000010000000000000000000000000000000000000000000000000000000000000000000000000000000000000000000000001000000000000000004000000000000000000000000000002000000000000000000000000000000000000000000000000000020000000000000000000000000000000000000000000008000000000000000000000",
      "type": "0x2",
      "transactionHash": "0x44e3f7f7f1e5510f83a79718e2b4bff0091dae97fddb4e62aaec853cd457042a",
      "transactionIndex": "0x1",
      "blockHash": "0x4ae8b339fe566aa58966b4bb729cd128e230dd51d22168ed9c02437fbdbdd785",
      "blockNumber": "0x5700178",
      "gasUsed": "0xd1fe",
      "effectiveGasPrice": "0x5f5e100",
      "from": "0xb7d030f7c6406446e703e73b3d1dd8611a2d87b6",
      "to": "0x2e3a8cf0022140a40a7474d879942f0e55bc57de",
      "contractAddress": null,
      "gasUsedForL1": "0xeb",
      "l1BlockNumber": "0x69cf81"
    },
    {
      "status": "0x1",
      "cumulativeGasUsed": "0x23e66",
      "logs": [
        {
          "address": "0x2e3a8cf0022140a40a7474d879942f0e55bc57de",
          "topics": [
            "0xddf252ad1be2c89b69c2b068fc378daa952ba7f163c4a11628f55a4df523b3ef",
            "0x0000000000000000000000000000000000000000000000000000000000000000",
            "0x000000000000000000000000c31f6b8133d618ad2ff1ac5faa3fc4b20557b901"
          ],
          "data": "0x000000000000000000000000000000000000000000000000000000e8d4a51000",
          "blockHash": "0x3c6d4c3e400977180ef3d6279dc2a7be0dc015d18f7071af5b01926673f89698",
          "blockNumber": "0x5700182",
          "transactionHash": "0x9f22f5468f55480eb6323118ad786129e1de1a3fe681bb68a54a735cfe2883fc",
          "transactionIndex": "0x2",
          "logIndex": "0x2",
          "removed": false
        }
      ],
      "logsBloom": "0x00000000000000000000000000000000000000000000000000000000000000000000000000000000000000000000000000010000000000000000000000000000000000000000000000000008000000000000000000200000000000000000000000000000020000000000000000000800000000000000000000000010400000000000000000000000000000000000000000000002000000000000000000000000000000000000000000000001000000000000000000000000080000000000000000000002000000000000000000000000000000000000000000000000000020000000000000000000000000000000000000000000000000000000000000000000",
      "type": "0x2",
      "transactionHash": "0x9f22f5468f55480eb6323118ad786129e1de1a3fe681bb68a54a735cfe2883fc",
      "transactionIndex": "0x2",
      "blockHash": "0x3c6d4c3e400977180ef3d6279dc2a7be0dc015d18f7071af5b01926673f89698",
      "blockNumber": "0x5700182",
      "gasUsed": "0xd1fe",
      "effectiveGasPrice": "0x5f5e100",
      "from": "0xb7d030f7c6406446e703e73b3d1dd8611a2d87b6",
      "to": "0x2e3a8cf0022140a40a7474d879942f0e55bc57de",
      "contractAddress": null,
      "gasUsedForL1": "0xeb",
      "l1BlockNumber": "0x69cf82"
    },
    {
      "status": "0x1",
      "cumulativeGasUsed": "0xd1fe",
      "logs": [
        {
          "address": "0x2e3a8cf0022140a40a7474d879942f0e55bc57de",
          "topics": [
            "0xddf252ad1be2c89b69c2b068fc378daa952ba7f163c4a11628f55a4df523b3ef",
            "0x0000000000000000000000000000000000000000000000000000000000000000",
            "0x00000000000000000000000066e675533020c3cdee2f33e372320b7e2692211e"
          ],
          "data": "0x000000000000000000000000000000000000000000000000000000e8d4a51000",
          "blockHash": "0x677e6fc19b3c6dbee06b7131907c226f57bfd4341060139065b9886acd73f686",
          "blockNumber": "0x5700186",
          "transactionHash": "0xeeff00256f6ca8c0f4af693838f4c92c39a0e94650fc8c4a89b677c5b78f6f03",
          "transactionIndex": "0x1",
          "logIndex": "0x0",
          "removed": false
        }
      ],
      "logsBloom": "0x00000000000000000000000000000000000000000000000000000000001000000000000000000000000000000000000000010000000000000000000000000000000000000000000000000008000008000000000000200000000000000000000000000000020000000000000000000800000000000000000000000010000000000000000000000000000000000000000000000000002000000000000000000000000000000000000000000001000000000000000000000000000000000000000000000002000000000000000000000000000000000000000000000000000020000000000000000000000000000000000000000000000000000000000000000000",
      "type": "0x2",
      "transactionHash": "0xeeff00256f6ca8c0f4af693838f4c92c39a0e94650fc8c4a89b677c5b78f6f03",
      "transactionIndex": "0x1",
      "blockHash": "0x677e6fc19b3c6dbee06b7131907c226f57bfd4341060139065b9886acd73f686",
      "blockNumber": "0x5700186",
      "gasUsed": "0xd1fe",
      "effectiveGasPrice": "0x5f5e100",
      "from": "0xb7d030f7c6406446e703e73b3d1dd8611a2d87b6",
      "to": "0x2e3a8cf0022140a40a7474d879942f0e55bc57de",
      "contractAddress": null,
      "gasUsedForL1": "0xeb",
      "l1BlockNumber": "0x69cf82"
    },
    {
      "status": "0x1",
      "cumulativeGasUsed": "0xd1fe",
      "logs": [
        {
          "address": "0x2e3a8cf0022140a40a7474d879942f0e55bc57de",
          "topics": [
            "0xddf252ad1be2c89b69c2b068fc378daa952ba7f163c4a11628f55a4df523b3ef",
            "0x0000000000000000000000000000000000000000000000000000000000000000",
            "0x0000000000000000000000008c4eb6988a199dabcae0ce31052b3f3ac591787e"
          ],
          "data": "0x000000000000000000000000000000000000000000000000000000e8d4a51000",
          "blockHash": "0x83b3570a4bfd9b0f27ad3cfaa2f4e3de8eac182c2d69d86613e3975ae39ac05b",
          "blockNumber": "0x570018c",
          "transactionHash": "0xa1986258fc32425dfa9b1d2ee94252c12fb97636ec4dac52e4e6847597c474e8",
          "transactionIndex": "0x1",
          "logIndex": "0x0",
          "removed": false
        }
      ],
      "logsBloom": "0x00000000000000000000000000000000000000000000000000000000000000000000000000000000000000000000000000010000000040000000000000000000000000000000000000000008000000000000000000200000000000000000000000000000020000000000000000000800000000000000000000000010000000000000000100000000000000000000000000000000000000000000000000000000000000000000000000000001000001000000000000000000000000000000000000000002000000000000000000000000000000000000000000000000000020000000000000000000000000000000000000000000000000000000000000000000",
      "type": "0x2",
      "transactionHash": "0xa1986258fc32425dfa9b1d2ee94252c12fb97636ec4dac52e4e6847597c474e8",
      "transactionIndex": "0x1",
      "blockHash": "0x83b3570a4bfd9b0f27ad3cfaa2f4e3de8eac182c2d69d86613e3975ae39ac05b",
      "blockNumber": "0x570018c",
      "gasUsed": "0xd1fe",
      "effectiveGasPrice": "0x5f5e100",
      "from": "0xb7d030f7c6406446e703e73b3d1dd8611a2d87b6",
      "to": "0x2e3a8cf0022140a40a7474d879942f0e55bc57de",
      "contractAddress": null,
      "gasUsedForL1": "0xeb",
      "l1BlockNumber": "0x69cf82"
    },
    {
      "status": "0x1",
      "cumulativeGasUsed": "0xa003d",
      "logs": [
        {
          "address": "0x1e3151ef594580773651c826414a8b97cdf6ff10",
          "topics": [
            "0x8be0079c531659141344cd1fd0a4f28419497f9722a3daafe3b4186f6b6457e0",
            "0x0000000000000000000000000000000000000000000000000000000000000000",
            "0x000000000000000000000000b7d030f7c6406446e703e73b3d1dd8611a2d87b6"
          ],
          "data": "0x",
          "blockHash": "0x53f7e0d1143ba119dd10c65e161defa6b21a5c88453bab962b2e16468346a83a",
          "blockNumber": "0x5700193",
          "transactionHash": "0x0ca7876d6dd8cdd81019c040b6f44f7772ff0aad8ebef16c90c01446dd45a548",
          "transactionIndex": "0x1",
          "logIndex": "0x0",
          "removed": false
        }
      ],
      "logsBloom": "0x04000000000000000000000000000000000000000000000000800000000000000000000000000000000000000000000000000000000000000000000000000000000000000000000000000000000000000001000000400000000000000000000000000000020000000000000000000800000000000000000200000000000000400000000000000000000000000000000000000000000000000000000000000020000000000000000000000000000000000000000000000000000000000000000000000000000000000000000000000000000000000000000000000000000020002000000000000000000000000000000800000000000000000000000000000000",
      "type": "0x2",
      "transactionHash": "0x0ca7876d6dd8cdd81019c040b6f44f7772ff0aad8ebef16c90c01446dd45a548",
      "transactionIndex": "0x1",
      "blockHash": "0x53f7e0d1143ba119dd10c65e161defa6b21a5c88453bab962b2e16468346a83a",
      "blockNumber": "0x5700193",
      "gasUsed": "0xa003d",
      "effectiveGasPrice": "0x5f5e100",
      "from": "0xb7d030f7c6406446e703e73b3d1dd8611a2d87b6",
      "to": null,
      "contractAddress": "0x1e3151ef594580773651c826414a8b97cdf6ff10",
      "gasUsedForL1": "0xb37",
      "l1BlockNumber": "0x69cf82"
    },
    {
      "status": "0x1",
      "cumulativeGasUsed": "0x114ca",
      "logs": [
        {
          "address": "0x1e3151ef594580773651c826414a8b97cdf6ff10",
          "topics": [
            "0xddf252ad1be2c89b69c2b068fc378daa952ba7f163c4a11628f55a4df523b3ef",
            "0x0000000000000000000000000000000000000000000000000000000000000000",
            "0x000000000000000000000000b7d030f7c6406446e703e73b3d1dd8611a2d87b6"
          ],
          "data": "0x000000000000000000000000000000000000000000000000000000e8d4a51000",
          "blockHash": "0x9ba47ea5eb246b59525f24e806adeb90b890784f61330c7c0edb0e7edbf4a70c",
          "blockNumber": "0x5700196",
          "transactionHash": "0xe57867372cc5f27c435076c0e998947af17ff9157e7ee973c0feace472a2f155",
          "transactionIndex": "0x1",
          "logIndex": "0x0",
          "removed": false
        }
      ],
      "logsBloom": "0x04000000000000000000000000000000000000000000000000000000000000000000000000000000000000000000000000000000000000000000000000000000000000000000000000000008000000000000000000400000000000000000000000000000020000000000000000000800000000000000000200000010000000000000000000000000000000000000000000000000000000000000000000000020000000000000000000000000000000000000000000000000000000000000000000000002000000000000000000000000000000000000000000000000000020002000000000000000000000000000000800000000000000000000000000000000",
      "type": "0x2",
      "transactionHash": "0xe57867372cc5f27c435076c0e998947af17ff9157e7ee973c0feace472a2f155",
      "transactionIndex": "0x1",
      "blockHash": "0x9ba47ea5eb246b59525f24e806adeb90b890784f61330c7c0edb0e7edbf4a70c",
      "blockNumber": "0x5700196",
      "gasUsed": "0x114ca",
      "effectiveGasPrice": "0x5f5e100",
      "from": "0xb7d030f7c6406446e703e73b3d1dd8611a2d87b6",
      "to": "0x1e3151ef594580773651c826414a8b97cdf6ff10",
      "contractAddress": null,
      "gasUsedForL1": "0xeb",
      "l1BlockNumber": "0x69cf82"
    },
    {
      "status": "0x1",
      "cumulativeGasUsed": "0xd1fe",
      "logs": [
        {
          "address": "0x1e3151ef594580773651c826414a8b97cdf6ff10",
          "topics": [
            "0xddf252ad1be2c89b69c2b068fc378daa952ba7f163c4a11628f55a4df523b3ef",
            "0x0000000000000000000000000000000000000000000000000000000000000000",
            "0x0000000000000000000000004f88f1014dd6ca0507780380111c098bee6b87e6"
          ],
          "data": "0x000000000000000000000000000000000000000000000000000000e8d4a51000",
          "blockHash": "0xeddce4a9ecff02473b432bd94181b2cdc99fc3f32cc5b365018198df7bbaf10d",
          "blockNumber": "0x570019c",
          "transactionHash": "0xa5c466d572282b70aca14fb722795f5bdbd55cafa33d0a3ed142467390c829a4",
          "transactionIndex": "0x1",
          "logIndex": "0x0",
          "removed": false
        }
      ],
      "logsBloom": "0x04000000000000000000000002000000000000000000000000000000000000000000000000000000000000000000000000000000000000000000000000000000000000000000000000000008000000000000000000000000000000000000000000000000020000000000000000000800000000000000000000000010000000000000000000000000000000000000000000000000000000000000000000000000000000000000000000000000000000000000000004000000000000000000000000000002000000000000000000000000000000000000000000000000000020002000000000000000000000000000000800000000008000000000000000000000",
      "type": "0x2",
      "transactionHash": "0xa5c466d572282b70aca14fb722795f5bdbd55cafa33d0a3ed142467390c829a4",
      "transactionIndex": "0x1",
      "blockHash": "0xeddce4a9ecff02473b432bd94181b2cdc99fc3f32cc5b365018198df7bbaf10d",
      "blockNumber": "0x570019c",
      "gasUsed": "0xd1fe",
      "effectiveGasPrice": "0x5f5e100",
      "from": "0xb7d030f7c6406446e703e73b3d1dd8611a2d87b6",
      "to": "0x1e3151ef594580773651c826414a8b97cdf6ff10",
      "contractAddress": null,
      "gasUsedForL1": "0xeb",
      "l1BlockNumber": "0x69cf82"
    },
    {
      "status": "0x1",
      "cumulativeGasUsed": "0xd1fe",
      "logs": [
        {
          "address": "0x1e3151ef594580773651c826414a8b97cdf6ff10",
          "topics": [
            "0xddf252ad1be2c89b69c2b068fc378daa952ba7f163c4a11628f55a4df523b3ef",
            "0x0000000000000000000000000000000000000000000000000000000000000000",
            "0x000000000000000000000000c31f6b8133d618ad2ff1ac5faa3fc4b20557b901"
          ],
          "data": "0x000000000000000000000000000000000000000000000000000000e8d4a51000",
          "blockHash": "0x6fcc69eaf7c6f59daa0673c43a0f41858dca3a9a0df5a41ffe0ba1f6fd76f94e",
          "blockNumber": "0x57001a2",
          "transactionHash": "0x00759f80cf271a8e00c41a12bd6625cf025af51955d26a0241e5dfdffc26e485",
          "transactionIndex": "0x1",
          "logIndex": "0x0",
          "removed": false
        }
      ],
      "logsBloom": "0x04000000000000000000000000000000000000000000000000000000000000000000000000000000000000000000000000000000000000000000000000000000000000000000000000000008000000000000000000000000000000000000000000000000020000000000000000000800000000000000000000000010400000000000000000000000000000000000000000000002000000000000000000000000000000000000000000000000000000000000000000000000080000000000000000000002000000000000000000000000000000000000000000000000000020002000000000000000000000000000000800000000000000000000000000000000",
      "type": "0x2",
      "transactionHash": "0x00759f80cf271a8e00c41a12bd6625cf025af51955d26a0241e5dfdffc26e485",
      "transactionIndex": "0x1",
      "blockHash": "0x6fcc69eaf7c6f59daa0673c43a0f41858dca3a9a0df5a41ffe0ba1f6fd76f94e",
      "blockNumber": "0x57001a2",
      "gasUsed": "0xd1fe",
      "effectiveGasPrice": "0x5f5e100",
      "from": "0xb7d030f7c6406446e703e73b3d1dd8611a2d87b6",
      "to": "0x1e3151ef594580773651c826414a8b97cdf6ff10",
      "contractAddress": null,
      "gasUsedForL1": "0xeb",
      "l1BlockNumber": "0x69cf82"
    },
    {
      "status": "0x1",
      "cumulativeGasUsed": "0x8a548",
      "logs": [
        {
          "address": "0x1e3151ef594580773651c826414a8b97cdf6ff10",
          "topics": [
            "0xddf252ad1be2c89b69c2b068fc378daa952ba7f163c4a11628f55a4df523b3ef",
            "0x0000000000000000000000000000000000000000000000000000000000000000",
            "0x00000000000000000000000066e675533020c3cdee2f33e372320b7e2692211e"
          ],
          "data": "0x000000000000000000000000000000000000000000000000000000e8d4a51000",
          "blockHash": "0x96fcb3e4f9d9068557f9eb7be6eb6394abe23053fa21ba6e2541b6a8fd7c94aa",
          "blockNumber": "0x57001a7",
          "transactionHash": "0xde00c0bbf7dacb08b3c0ef01243635c6ddffbd61797235d399719d0577f48ab6",
          "transactionIndex": "0x3",
          "logIndex": "0x5",
          "removed": false
        }
      ],
      "logsBloom": "0x04000000000000000000000000000000000000000000000000000000001000000000000000000000000000000000000000000000000000000000000000000000000000000000000000000008000008000000000000000000000000000000000000000000020000000000000000000800000000000000000000000010000000000000000000000000000000000000000000000000002000000000000000000000000000000000000000000000000000000000000000000000000000000000000000000002000000000000000000000000000000000000000000000000000020002000000000000000000000000000000800000000000000000000000000000000",
      "type": "0x2",
      "transactionHash": "0xde00c0bbf7dacb08b3c0ef01243635c6ddffbd61797235d399719d0577f48ab6",
      "transactionIndex": "0x3",
      "blockHash": "0x96fcb3e4f9d9068557f9eb7be6eb6394abe23053fa21ba6e2541b6a8fd7c94aa",
      "blockNumber": "0x57001a7",
      "gasUsed": "0xd1fe",
      "effectiveGasPrice": "0x5f5e100",
      "from": "0xb7d030f7c6406446e703e73b3d1dd8611a2d87b6",
      "to": "0x1e3151ef594580773651c826414a8b97cdf6ff10",
      "contractAddress": null,
      "gasUsedForL1": "0xeb",
      "l1BlockNumber": "0x69cf82"
    },
    {
      "status": "0x1",
      "cumulativeGasUsed": "0xd1fe",
      "logs": [
        {
          "address": "0x1e3151ef594580773651c826414a8b97cdf6ff10",
          "topics": [
            "0xddf252ad1be2c89b69c2b068fc378daa952ba7f163c4a11628f55a4df523b3ef",
            "0x0000000000000000000000000000000000000000000000000000000000000000",
            "0x0000000000000000000000008c4eb6988a199dabcae0ce31052b3f3ac591787e"
          ],
          "data": "0x000000000000000000000000000000000000000000000000000000e8d4a51000",
          "blockHash": "0xd07f733f2915d610e4e4f2cfad4bf6ecd6a281cadaad782761ebb2fc6399af4c",
          "blockNumber": "0x57001ad",
          "transactionHash": "0x872d29221af948c4db3cd7749ce9a4c01cabdbbf109b92950ff6ed55376492ed",
          "transactionIndex": "0x1",
          "logIndex": "0x0",
          "removed": false
        }
      ],
      "logsBloom": "0x04000000000000000000000000000000000000000000000000000000000000000000000000000000000000000000000000000000000040000000000000000000000000000000000000000008000000000000000000000000000000000000000000000000020000000000000000000800000000000000000000000010000000000000000100000000000000000000000000000000000000000000000000000000000000000000000000000000000001000000000000000000000000000000000000000002000000000000000000000000000000000000000000000000000020002000000000000000000000000000000800000000000000000000000000000000",
      "type": "0x2",
      "transactionHash": "0x872d29221af948c4db3cd7749ce9a4c01cabdbbf109b92950ff6ed55376492ed",
      "transactionIndex": "0x1",
      "blockHash": "0xd07f733f2915d610e4e4f2cfad4bf6ecd6a281cadaad782761ebb2fc6399af4c",
      "blockNumber": "0x57001ad",
      "gasUsed": "0xd1fe",
      "effectiveGasPrice": "0x5f5e100",
      "from": "0xb7d030f7c6406446e703e73b3d1dd8611a2d87b6",
      "to": "0x1e3151ef594580773651c826414a8b97cdf6ff10",
      "contractAddress": null,
      "gasUsedForL1": "0xeb",
      "l1BlockNumber": "0x69cf82"
    },
    {
      "status": "0x1",
      "cumulativeGasUsed": "0xa005d",
      "logs": [
        {
          "address": "0xe51ade97db1151c6e8a7d465b84b29eb9422b5b8",
          "topics": [
            "0x8be0079c531659141344cd1fd0a4f28419497f9722a3daafe3b4186f6b6457e0",
            "0x0000000000000000000000000000000000000000000000000000000000000000",
            "0x000000000000000000000000b7d030f7c6406446e703e73b3d1dd8611a2d87b6"
          ],
          "data": "0x",
          "blockHash": "0x17af0fb580f5d8f233c8816ab6a0b0196478736ebe40f1086a1ebe096aa14287",
          "blockNumber": "0x57001b2",
          "transactionHash": "0xe31f935e1bc9114cc1287b7ab4959ced462c2d0cc677a86209a73b1932dae5c0",
          "transactionIndex": "0x1",
          "logIndex": "0x0",
          "removed": false
        }
      ],
      "logsBloom": "0x00000000000000000000000000000000000000000000000000800000000000000000000000000000000000000000000000000000000000000000000000000000000000000000000000000000000000000001000000400000000000000008000000000000020000000000000000000800000000000000000200000000000000400000000000000000000000000000000000000000000000000000000000000020000000080000000000000000000000000000000000000000000020000000000000000000000000000000000000000000000000000000000000000000000020000000000000000000000000000000000000000000000000000000000000000000",
      "type": "0x2",
      "transactionHash": "0xe31f935e1bc9114cc1287b7ab4959ced462c2d0cc677a86209a73b1932dae5c0",
      "transactionIndex": "0x1",
      "blockHash": "0x17af0fb580f5d8f233c8816ab6a0b0196478736ebe40f1086a1ebe096aa14287",
      "blockNumber": "0x57001b2",
      "gasUsed": "0xa005d",
      "effectiveGasPrice": "0x5f5e100",
      "from": "0xb7d030f7c6406446e703e73b3d1dd8611a2d87b6",
      "to": null,
      "contractAddress": "0xe51ade97db1151c6e8a7d465b84b29eb9422b5b8",
      "gasUsedForL1": "0xb33",
      "l1BlockNumber": "0x69cf83"
    },
    {
      "status": "0x1",
      "cumulativeGasUsed": "0x114ca",
      "logs": [
        {
          "address": "0xe51ade97db1151c6e8a7d465b84b29eb9422b5b8",
          "topics": [
            "0xddf252ad1be2c89b69c2b068fc378daa952ba7f163c4a11628f55a4df523b3ef",
            "0x0000000000000000000000000000000000000000000000000000000000000000",
            "0x000000000000000000000000b7d030f7c6406446e703e73b3d1dd8611a2d87b6"
          ],
          "data": "0x00000000000000000000000000000000000000000000000000000002540be400",
          "blockHash": "0xdb3da0d869c9f5ad11efe463a3dedcaa27a35670f753745fc8b54c8f9362ba71",
          "blockNumber": "0x57001b8",
          "transactionHash": "0xf8793acf71be01d1b704e5da1f4c49fc6db52a03af9ab6c2c1ea23cadc7f29f3",
          "transactionIndex": "0x1",
          "logIndex": "0x0",
          "removed": false
        }
      ],
      "logsBloom": "0x00000000000000000000000000000000000000000000000000000000000000000000000000000000000000000000000000000000000000000000000000000000000000000000000000000008000000000000000000400000000000000008000000000000020000000000000000000800000000000000000200000010000000000000000000000000000000000000000000000000000000000000000000000020000000080000000000000000000000000000000000000000000020000000000000000002000000000000000000000000000000000000000000000000000020000000000000000000000000000000000000000000000000000000000000000000",
      "type": "0x2",
      "transactionHash": "0xf8793acf71be01d1b704e5da1f4c49fc6db52a03af9ab6c2c1ea23cadc7f29f3",
      "transactionIndex": "0x1",
      "blockHash": "0xdb3da0d869c9f5ad11efe463a3dedcaa27a35670f753745fc8b54c8f9362ba71",
      "blockNumber": "0x57001b8",
      "gasUsed": "0x114ca",
      "effectiveGasPrice": "0x5f5e100",
      "from": "0xb7d030f7c6406446e703e73b3d1dd8611a2d87b6",
      "to": "0xe51ade97db1151c6e8a7d465b84b29eb9422b5b8",
      "contractAddress": null,
      "gasUsedForL1": "0xeb",
      "l1BlockNumber": "0x69cf83"
    },
    {
      "status": "0x1",
      "cumulativeGasUsed": "0x22c22",
      "logs": [
        {
          "address": "0xe51ade97db1151c6e8a7d465b84b29eb9422b5b8",
          "topics": [
            "0xddf252ad1be2c89b69c2b068fc378daa952ba7f163c4a11628f55a4df523b3ef",
            "0x0000000000000000000000000000000000000000000000000000000000000000",
            "0x0000000000000000000000004f88f1014dd6ca0507780380111c098bee6b87e6"
          ],
          "data": "0x00000000000000000000000000000000000000000000000000000002540be400",
          "blockHash": "0x794eb55f5398dfa52fb17d87d0bd9afa884e194340a48b195659b9c393df527c",
          "blockNumber": "0x57001bd",
          "transactionHash": "0x24ba936e2416a9b22ac4fc3743ac8c7db1930feb5dd8d733b00ce5cbaf6a6abc",
          "transactionIndex": "0x2",
          "logIndex": "0x2",
          "removed": false
        }
      ],
      "logsBloom": "0x00000000000000000000000002000000000000000000000000000000000000000000000000000000000000000000000000000000000000000000000000000000000000000000000000000008000000000000000000000000000000000008000000000000020000000000000000000800000000000000000000000010000000000000000000000000000000000000000000000000000000000000000000000000000000080000000000000000000000000000000004000000000020000000000000000002000000000000000000000000000000000000000000000000000020000000000000000000000000000000000000000000008000000000000000000000",
      "type": "0x2",
      "transactionHash": "0x24ba936e2416a9b22ac4fc3743ac8c7db1930feb5dd8d733b00ce5cbaf6a6abc",
      "transactionIndex": "0x2",
      "blockHash": "0x794eb55f5398dfa52fb17d87d0bd9afa884e194340a48b195659b9c393df527c",
      "blockNumber": "0x57001bd",
      "gasUsed": "0xd1fe",
      "effectiveGasPrice": "0x5f5e100",
      "from": "0xb7d030f7c6406446e703e73b3d1dd8611a2d87b6",
      "to": "0xe51ade97db1151c6e8a7d465b84b29eb9422b5b8",
      "contractAddress": null,
      "gasUsedForL1": "0xeb",
      "l1BlockNumber": "0x69cf83"
    },
    {
      "status": "0x1",
      "cumulativeGasUsed": "0x39be9",
      "logs": [
        {
          "address": "0xe51ade97db1151c6e8a7d465b84b29eb9422b5b8",
          "topics": [
            "0xddf252ad1be2c89b69c2b068fc378daa952ba7f163c4a11628f55a4df523b3ef",
            "0x0000000000000000000000000000000000000000000000000000000000000000",
            "0x000000000000000000000000c31f6b8133d618ad2ff1ac5faa3fc4b20557b901"
          ],
          "data": "0x00000000000000000000000000000000000000000000000000000002540be400",
          "blockHash": "0x582731cd5fe448ad21a7d1f06b221db53c25e8890f63d867a1b9fb32e6c6d9d6",
          "blockNumber": "0x57001c2",
          "transactionHash": "0x421672efdaa1d7e03e9e4a724ea537101dfa2e1a5a879f628d084d6ed71dcaf8",
          "transactionIndex": "0x3",
          "logIndex": "0x2",
          "removed": false
        }
      ],
      "logsBloom": "0x00000000000000000000000000000000000000000000000000000000000000000000000000000000000000000000000000000000000000000000000000000000000000000000000000000008000000000000000000000000000000000008000000000000020000000000000000000800000000000000000000000010400000000000000000000000000000000000000000000002000000000000000000000000000000080000000000000000000000000000000000000000080020000000000000000002000000000000000000000000000000000000000000000000000020000000000000000000000000000000000000000000000000000000000000000000",
      "type": "0x2",
      "transactionHash": "0x421672efdaa1d7e03e9e4a724ea537101dfa2e1a5a879f628d084d6ed71dcaf8",
      "transactionIndex": "0x3",
      "blockHash": "0x582731cd5fe448ad21a7d1f06b221db53c25e8890f63d867a1b9fb32e6c6d9d6",
      "blockNumber": "0x57001c2",
      "gasUsed": "0xd1fe",
      "effectiveGasPrice": "0x5f5e100",
      "from": "0xb7d030f7c6406446e703e73b3d1dd8611a2d87b6",
      "to": "0xe51ade97db1151c6e8a7d465b84b29eb9422b5b8",
      "contractAddress": null,
      "gasUsedForL1": "0xeb",
      "l1BlockNumber": "0x69cf83"
    },
    {
      "status": "0x1",
      "cumulativeGasUsed": "0x4b4cc",
      "logs": [
        {
          "address": "0xe51ade97db1151c6e8a7d465b84b29eb9422b5b8",
          "topics": [
            "0xddf252ad1be2c89b69c2b068fc378daa952ba7f163c4a11628f55a4df523b3ef",
            "0x0000000000000000000000000000000000000000000000000000000000000000",
            "0x00000000000000000000000066e675533020c3cdee2f33e372320b7e2692211e"
          ],
          "data": "0x00000000000000000000000000000000000000000000000000000002540be400",
          "blockHash": "0x30d44947df392c070126552cc14b1b988dad5d13ea0fccd7c741d6601caac778",
          "blockNumber": "0x57001c7",
          "transactionHash": "0xd6843a4aa11a5660c377d75d32f27c94803b93e79a7d688fef65e4c0620c8349",
          "transactionIndex": "0x2",
          "logIndex": "0x4",
          "removed": false
        }
      ],
      "logsBloom": "0x00000000000000000000000000000000000000000000000000000000001000000000000000000000000000000000000000000000000000000000000000000000000000000000000000000008000008000000000000000000000000000008000000000000020000000000000000000800000000000000000000000010000000000000000000000000000000000000000000000000002000000000000000000000000000080000000000000000000000000000000000000000000020000000000000000002000000000000000000000000000000000000000000000000000020000000000000000000000000000000000000000000000000000000000000000000",
      "type": "0x2",
      "transactionHash": "0xd6843a4aa11a5660c377d75d32f27c94803b93e79a7d688fef65e4c0620c8349",
      "transactionIndex": "0x2",
      "blockHash": "0x30d44947df392c070126552cc14b1b988dad5d13ea0fccd7c741d6601caac778",
      "blockNumber": "0x57001c7",
      "gasUsed": "0xd1fe",
      "effectiveGasPrice": "0x5f5e100",
      "from": "0xb7d030f7c6406446e703e73b3d1dd8611a2d87b6",
      "to": "0xe51ade97db1151c6e8a7d465b84b29eb9422b5b8",
      "contractAddress": null,
      "gasUsedForL1": "0xeb",
      "l1BlockNumber": "0x69cf83"
    },
    {
      "status": "0x1",
      "cumulativeGasUsed": "0xd1fe",
      "logs": [
        {
          "address": "0xe51ade97db1151c6e8a7d465b84b29eb9422b5b8",
          "topics": [
            "0xddf252ad1be2c89b69c2b068fc378daa952ba7f163c4a11628f55a4df523b3ef",
            "0x0000000000000000000000000000000000000000000000000000000000000000",
            "0x0000000000000000000000008c4eb6988a199dabcae0ce31052b3f3ac591787e"
          ],
          "data": "0x00000000000000000000000000000000000000000000000000000002540be400",
          "blockHash": "0xcc73f376d773938cd8ce96dbfbbb083f4a844232d671420205c1319a84515a71",
          "blockNumber": "0x57001cc",
          "transactionHash": "0x65857441bd4473b6f3e2a34693036eb7cef5c77069b2edf40d7e31767c9c3fe3",
          "transactionIndex": "0x1",
          "logIndex": "0x0",
          "removed": false
        }
      ],
      "logsBloom": "0x00000000000000000000000000000000000000000000000000000000000000000000000000000000000000000000000000000000000040000000000000000000000000000000000000000008000000000000000000000000000000000008000000000000020000000000000000000800000000000000000000000010000000000000000100000000000000000000000000000000000000000000000000000000000000080000000000000000000001000000000000000000000020000000000000000002000000000000000000000000000000000000000000000000000020000000000000000000000000000000000000000000000000000000000000000000",
      "type": "0x2",
      "transactionHash": "0x65857441bd4473b6f3e2a34693036eb7cef5c77069b2edf40d7e31767c9c3fe3",
      "transactionIndex": "0x1",
      "blockHash": "0xcc73f376d773938cd8ce96dbfbbb083f4a844232d671420205c1319a84515a71",
      "blockNumber": "0x57001cc",
      "gasUsed": "0xd1fe",
      "effectiveGasPrice": "0x5f5e100",
      "from": "0xb7d030f7c6406446e703e73b3d1dd8611a2d87b6",
      "to": "0xe51ade97db1151c6e8a7d465b84b29eb9422b5b8",
      "contractAddress": null,
      "gasUsedForL1": "0xeb",
      "l1BlockNumber": "0x69cf83"
    },
    {
      "status": "0x1",
      "cumulativeGasUsed": "0x19648",
      "logs": [
        {
          "address": "0x9ce09649451616733844b77a5d67ff2e467d2a14",
          "topics": [
            "0xb0377b4035c2bd5b6aeb3eb7f139162c730ea47b957e4354f8a81ebb99573dec"
          ],
          "data": "0x00000000000000000000000000000000000000000000000000000000000000400000000000000000000000002e3a8cf0022140a40a7474d879942f0e55bc57de000000000000000000000000000000000000000000000000000000000000000a544f4b454e5f5553445400000000000000000000000000000000000000000000",
          "blockHash": "0x755dd3680231a7505be3ba370382c13fbfd494cc3b4924180bb291885105f5b6",
          "blockNumber": "0x57001d2",
          "transactionHash": "0x7dae8dac43780ce2564463120165d4ff1ee193b1401e1d4660a5e6222de3cc30",
          "transactionIndex": "0x1",
          "logIndex": "0x0",
          "removed": false
        },
        {
          "address": "0x9ce09649451616733844b77a5d67ff2e467d2a14",
          "topics": [
            "0xb0377b4035c2bd5b6aeb3eb7f139162c730ea47b957e4354f8a81ebb99573dec"
          ],
          "data": "0x00000000000000000000000000000000000000000000000000000000000000400000000000000000000000001e3151ef594580773651c826414a8b97cdf6ff10000000000000000000000000000000000000000000000000000000000000000a544f4b454e5f5553444300000000000000000000000000000000000000000000",
          "blockHash": "0x755dd3680231a7505be3ba370382c13fbfd494cc3b4924180bb291885105f5b6",
          "blockNumber": "0x57001d2",
          "transactionHash": "0x7dae8dac43780ce2564463120165d4ff1ee193b1401e1d4660a5e6222de3cc30",
          "transactionIndex": "0x1",
          "logIndex": "0x1",
          "removed": false
        },
        {
          "address": "0x9ce09649451616733844b77a5d67ff2e467d2a14",
          "topics": [
            "0xb0377b4035c2bd5b6aeb3eb7f139162c730ea47b957e4354f8a81ebb99573dec"
          ],
          "data": "0x0000000000000000000000000000000000000000000000000000000000000040000000000000000000000000e51ade97db1151c6e8a7d465b84b29eb9422b5b8000000000000000000000000000000000000000000000000000000000000000a544f4b454e5f5742544300000000000000000000000000000000000000000000",
          "blockHash": "0x755dd3680231a7505be3ba370382c13fbfd494cc3b4924180bb291885105f5b6",
          "blockNumber": "0x57001d2",
          "transactionHash": "0x7dae8dac43780ce2564463120165d4ff1ee193b1401e1d4660a5e6222de3cc30",
          "transactionIndex": "0x1",
          "logIndex": "0x2",
          "removed": false
        }
      ],
      "logsBloom": "0x00000000000000000000000000000000000000000000000000000000000000000000000000000000000000000000000000000000000000000000000000000000000000000000000000000000000000000000000000000000000000000000000000000000000000000000000000000000000000000000000000000000000000000000000000000000000000000000000000000000000000000000000000000000000000000000000001080000000000000000000000000000000000000000080000000000000000000000000000000000004000000000000000000000000000000000000000000000000000000000000000000400000000000000000001000000",
      "type": "0x2",
      "transactionHash": "0x7dae8dac43780ce2564463120165d4ff1ee193b1401e1d4660a5e6222de3cc30",
      "transactionIndex": "0x1",
      "blockHash": "0x755dd3680231a7505be3ba370382c13fbfd494cc3b4924180bb291885105f5b6",
      "blockNumber": "0x57001d2",
      "gasUsed": "0x19648",
      "effectiveGasPrice": "0x5f5e100",
      "from": "0xb7d030f7c6406446e703e73b3d1dd8611a2d87b6",
      "to": "0x9ce09649451616733844b77a5d67ff2e467d2a14",
      "contractAddress": null,
      "gasUsedForL1": "0x1c7",
      "l1BlockNumber": "0x69cf83"
    }
  ],
  "libraries": [],
  "pending": [],
  "returns": {},
  "timestamp": 1729754376,
  "chain": 421614,
  "commit": "7f9b915"
}