{
  "transactions": [
    {
      "hash": "0x305e9c25fba89f9f9e19f52104f169d9ebacbecd5940dde6d5e2e4aeff910005",
      "transactionType": "CREATE",
      "contractName": null,
      "contractAddress": "0x90df87c3104C666A1CfF5358dce6eFDBce949235",
      "function": null,
      "arguments": null,
      "transaction": {
        "type": "0x02",
        "from": "0xb7d030f7c6406446e703e73b3d1dd8611a2d87b6",
        "gas": "0x1f1dfdc",
        "value": "0x0",
        "data": "0x608060405234801562000010575f80fd5b5060405162000cd938038062000cd98339810160408190526200003391620001a8565b8282826003620000448382620002b8565b506004620000538282620002b8565b5050506001600160a01b0381166200008457604051631e4fbdf760e01b81525f600482015260240160405180910390fd5b6200008f8162000099565b5050505062000380565b600580546001600160a01b038381166001600160a01b0319831681179093556040519116919082907f8be0079c531659141344cd1fd0a4f28419497f9722a3daafe3b4186f6b6457e0905f90a35050565b634e487b7160e01b5f52604160045260245ffd5b5f82601f8301126200010e575f80fd5b81516001600160401b03808211156200012b576200012b620000ea565b604051601f8301601f19908116603f01168101908282118183101715620001565762000156620000ea565b8160405283815260209250868385880101111562000172575f80fd5b5f91505b8382101562000195578582018301518183018401529082019062000176565b5f93810190920192909252949350505050565b5f805f60608486031215620001bb575f80fd5b83516001600160a01b0381168114620001d2575f80fd5b60208501519093506001600160401b0380821115620001ef575f80fd5b620001fd87838801620000fe565b9350604086015191508082111562000213575f80fd5b506200022286828701620000fe565b9150509250925092565b600181811c908216806200024157607f821691505b6020821081036200026057634e487b7160e01b5f52602260045260245ffd5b50919050565b601f821115620002b3575f81815260208120601f850160051c810160208610156200028e5750805b601f850160051c820191505b81811015620002af578281556001016200029a565b5050505b505050565b81516001600160401b03811115620002d457620002d4620000ea565b620002ec81620002e584546200022c565b8462000266565b602080601f83116001811462000322575f84156200030a5750858301515b5f19600386901b1c1916600185901b178555620002af565b5f85815260208120601f198616915b82811015620003525788860151825594840194600190910190840162000331565b50858210156200037057878501515f19600388901b60f8161c191681555b5050505050600190811b01905550565b61094b806200038e5f395ff3fe608060405234801561000f575f80fd5b50600436106100f0575f3560e01c806370a082311161009357806395d89b411161006357806395d89b41146101ef578063a9059cbb146101f7578063dd62ed3e1461020a578063f2fde38b14610242575f80fd5b806370a0823114610191578063715018a6146101b957806379cc6790146101c15780638da5cb5b146101d4575f80fd5b806323b872dd116100ce57806323b872dd14610147578063313ce5671461015a57806340c10f191461016957806342966c681461017e575f80fd5b806306fdde03146100f4578063095ea7b31461011257806318160ddd14610135575b5f80fd5b6100fc610255565b604051610109919061078f565b60405180910390f35b6101256101203660046107f5565b6102e5565b6040519015158152602001610109565b6002545b604051908152602001610109565b61012561015536600461081d565b6102fe565b60405160128152602001610109565b61017c6101773660046107f5565b610321565b005b61017c61018c366004610856565b610337565b61013961019f36600461086d565b6001600160a01b03165f9081526020819052604090205490565b61017c610344565b61017c6101cf3660046107f5565b610357565b6005546040516001600160a01b039091168152602001610109565b6100fc61036c565b6101256102053660046107f5565b61037b565b61013961021836600461088d565b6001600160a01b039182165f90815260016020908152604080832093909416825291909152205490565b61017c61025036600461086d565b610388565b606060038054610264906108be565b80601f0160208091040260200160405190810160405280929190818152602001828054610290906108be565b80156102db5780601f106102b2576101008083540402835291602001916102db565b820191905f5260205f20905b8154815290600101906020018083116102be57829003601f168201915b5050505050905090565b5f336102f28185856103c7565b60019150505b92915050565b5f3361030b8582856103d9565b610316858585610454565b506001949350505050565b6103296104b1565b61033382826104de565b5050565b6103413382610512565b50565b61034c6104b1565b6103555f610546565b565b6103628233836103d9565b6103338282610512565b606060048054610264906108be565b5f336102f2818585610454565b6103906104b1565b6001600160a01b0381166103be57604051631e4fbdf760e01b81525f60048201526024015b60405180910390fd5b61034181610546565b6103d48383836001610597565b505050565b6001600160a01b038381165f908152600160209081526040808320938616835292905220545f19811461044e578181101561044057604051637dc7a0d960e11b81526001600160a01b038416600482015260248101829052604481018390526064016103b5565b61044e84848484035f610597565b50505050565b6001600160a01b03831661047d57604051634b637e8f60e11b81525f60048201526024016103b5565b6001600160a01b0382166104a65760405163ec442f0560e01b81525f60048201526024016103b5565b6103d4838383610669565b6005546001600160a01b031633146103555760405163118cdaa760e01b81523360048201526024016103b5565b6001600160a01b0382166105075760405163ec442f0560e01b81525f60048201526024016103b5565b6103335f8383610669565b6001600160a01b03821661053b57604051634b637e8f60e11b81525f60048201526024016103b5565b610333825f83610669565b600580546001600160a01b038381166001600160a01b0319831681179093556040519116919082907f8be0079c531659141344cd1fd0a4f28419497f9722a3daafe3b4186f6b6457e0905f90a35050565b6001600160a01b0384166105c05760405163e602df0560e01b81525f60048201526024016103b5565b6001600160a01b0383166105e957604051634a1406b160e11b81525f60048201526024016103b5565b6001600160a01b038085165f908152600160209081526040808320938716835292905220829055801561044e57826001600160a01b0316846001600160a01b03167f8c5be1e5ebec7d5bd14f71427d1e84f3dd0314c0f7b2291e5b200ac8c7c3b9258460405161065b91815260200190565b60405180910390a350505050565b6001600160a01b038316610693578060025f82825461068891906108f6565b909155506107039050565b6001600160a01b0383165f90815260208190526040902054818110156106e55760405163391434e360e21b81526001600160a01b038516600482015260248101829052604481018390526064016103b5565b6001600160a01b0384165f9081526020819052604090209082900390555b6001600160a01b03821661071f5760028054829003905561073d565b6001600160a01b0382165f9081526020819052604090208054820190555b816001600160a01b0316836001600160a01b03167fddf252ad1be2c89b69c2b068fc378daa952ba7f163c4a11628f55a4df523b3ef8360405161078291815260200190565b60405180910390a3505050565b5f6020808352835180828501525f5b818110156107ba5785810183015185820160400152820161079e565b505f604082860101526040601f19601f8301168501019250505092915050565b80356001600160a01b03811681146107f0575f80fd5b919050565b5f8060408385031215610806575f80fd5b61080f836107da565b946020939093013593505050565b5f805f6060848603121561082f575f80fd5b610838846107da565b9250610846602085016107da565b9150604084013590509250925092565b5f60208284031215610866575f80fd5b5035919050565b5f6020828403121561087d575f80fd5b610886826107da565b9392505050565b5f806040838503121561089e575f80fd5b6108a7836107da565b91506108b5602084016107da565b90509250929050565b600181811c908216806108d257607f821691505b6020821081036108f057634e487b7160e01b5f52602260045260245ffd5b50919050565b808201808211156102f857634e487b7160e01b5f52601160045260245ffdfea2646970667358221220d4345b66bfb7412d2ea509531419dca8158f537841ee0d9aa80e3d80c30a67d364736f6c63430008140033000000000000000000000000b7d030f7c6406446e703e73b3d1dd8611a2d87b6000000000000000000000000000000000000000000000000000000000000006000000000000000000000000000000000000000000000000000000000000000a0000000000000000000000000000000000000000000000000000000000000000a546574686572205553440000000000000000000000000000000000000000000000000000000000000000000000000000000000000000000000000000000000045553445400000000000000000000000000000000000000000000000000000000",
        "nonce": "0x6e",
        "accessList": []
      },
      "additionalContracts": [],
      "isFixedGasLimit": false
    },
    {
      "hash": "0x94db9a322d075bcb0813f2cfec9e4bf241c2d3daee5cb5c045c138e2bc84baad",
      "transactionType": "CALL",
      "contractName": null,
      "contractAddress": "0x90df87c3104C666A1CfF5358dce6eFDBce949235",
      "function": "mint(address,uint256)",
      "arguments": [
        "0xB7d030F7c6406446e703E73B3d1dd8611A2D87b6",
        "10000000000000000000000"
      ],
      "transaction": {
        "type": "0x02",
        "from": "0xb7d030f7c6406446e703e73b3d1dd8611a2d87b6",
        "to": "0x90df87c3104c666a1cff5358dce6efdbce949235",
        "gas": "0x39496e",
        "value": "0x0",
        "data": "0x40c10f19000000000000000000000000b7d030f7c6406446e703e73b3d1dd8611a2d87b600000000000000000000000000000000000000000000021e19e0c9bab2400000",
        "nonce": "0x6f",
        "accessList": []
      },
      "additionalContracts": [],
      "isFixedGasLimit": false
    },
    {
      "hash": "0xdb11d30975f62b7b62e2484a00db90d4a119fe0fe615fb48e077713d46fe778b",
      "transactionType": "CALL",
      "contractName": null,
      "contractAddress": "0x90df87c3104C666A1CfF5358dce6eFDBce949235",
      "function": "mint(address,uint256)",
      "arguments": [
        "0x4F88F1014Dd6Ca0507780380111c098BeE6b87e6",
        "10000000000000000000000"
      ],
      "transaction": {
        "type": "0x02",
        "from": "0xb7d030f7c6406446e703e73b3d1dd8611a2d87b6",
        "to": "0x90df87c3104c666a1cff5358dce6efdbce949235",
        "gas": "0x2dfae6",
        "value": "0x0",
        "data": "0x40c10f190000000000000000000000004f88f1014dd6ca0507780380111c098bee6b87e600000000000000000000000000000000000000000000021e19e0c9bab2400000",
        "nonce": "0x70",
        "accessList": []
      },
      "additionalContracts": [],
      "isFixedGasLimit": false
    },
    {
      "hash": "0x624f515120420ace435e7504f6b1a4c2732444ea3ae9ebd3da34286b037be540",
      "transactionType": "CALL",
      "contractName": null,
      "contractAddress": "0x90df87c3104C666A1CfF5358dce6eFDBce949235",
      "function": "mint(address,uint256)",
      "arguments": [
        "0xC31f6b8133d618aD2ff1AC5fAA3Fc4B20557B901",
        "10000000000000000000000"
      ],
      "transaction": {
        "type": "0x02",
        "from": "0xb7d030f7c6406446e703e73b3d1dd8611a2d87b6",
        "to": "0x90df87c3104c666a1cff5358dce6efdbce949235",
        "gas": "0x2dfae6",
        "value": "0x0",
        "data": "0x40c10f19000000000000000000000000c31f6b8133d618ad2ff1ac5faa3fc4b20557b90100000000000000000000000000000000000000000000021e19e0c9bab2400000",
        "nonce": "0x71",
        "accessList": []
      },
      "additionalContracts": [],
      "isFixedGasLimit": false
    },
    {
      "hash": "0xc68425b558de928159ef25ae6e747a8663c5f9e04086f73628dfac0ef9eccf8c",
      "transactionType": "CALL",
      "contractName": null,
      "contractAddress": "0x90df87c3104C666A1CfF5358dce6eFDBce949235",
      "function": "mint(address,uint256)",
      "arguments": [
        "0x66E675533020c3CDeE2F33E372320B7e2692211e",
        "10000000000000000000000"
      ],
      "transaction": {
        "type": "0x02",
        "from": "0xb7d030f7c6406446e703e73b3d1dd8611a2d87b6",
        "to": "0x90df87c3104c666a1cff5358dce6efdbce949235",
        "gas": "0x2dfae6",
        "value": "0x0",
        "data": "0x40c10f1900000000000000000000000066e675533020c3cdee2f33e372320b7e2692211e00000000000000000000000000000000000000000000021e19e0c9bab2400000",
        "nonce": "0x72",
        "accessList": []
      },
      "additionalContracts": [],
      "isFixedGasLimit": false
    },
    {
      "hash": "0xee7ebbebe779483c9b4fdebd828b46da300a6647ba30144be5e2379f9d172f8f",
      "transactionType": "CALL",
      "contractName": null,
      "contractAddress": "0x90df87c3104C666A1CfF5358dce6eFDBce949235",
      "function": "mint(address,uint256)",
      "arguments": [
        "0x8c4Eb6988A199DAbcae0Ce31052b3f3aC591787e",
        "10000000000000000000000"
      ],
      "transaction": {
        "type": "0x02",
        "from": "0xb7d030f7c6406446e703e73b3d1dd8611a2d87b6",
        "to": "0x90df87c3104c666a1cff5358dce6efdbce949235",
        "gas": "0x2dfae6",
        "value": "0x0",
        "data": "0x40c10f190000000000000000000000008c4eb6988a199dabcae0ce31052b3f3ac591787e00000000000000000000000000000000000000000000021e19e0c9bab2400000",
        "nonce": "0x73",
        "accessList": []
      },
      "additionalContracts": [],
      "isFixedGasLimit": false
    },
    {
      "hash": "0xbd4b1bd848c2d494d8b2e327c2956959a18838b69d3e888d65e4310f8b190ae2",
      "transactionType": "CREATE",
      "contractName": null,
      "contractAddress": "0x5fF5386CfFc574E5A488CCBBB5422213C3DD500E",
      "function": null,
      "arguments": null,
      "transaction": {
        "type": "0x02",
        "from": "0xb7d030f7c6406446e703e73b3d1dd8611a2d87b6",
        "gas": "0x1f1db2c",
        "value": "0x0",
        "data": "0x608060405234801562000010575f80fd5b5060405162000cd938038062000cd98339810160408190526200003391620001a8565b8282826003620000448382620002b8565b506004620000538282620002b8565b5050506001600160a01b0381166200008457604051631e4fbdf760e01b81525f600482015260240160405180910390fd5b6200008f8162000099565b5050505062000380565b600580546001600160a01b038381166001600160a01b0319831681179093556040519116919082907f8be0079c531659141344cd1fd0a4f28419497f9722a3daafe3b4186f6b6457e0905f90a35050565b634e487b7160e01b5f52604160045260245ffd5b5f82601f8301126200010e575f80fd5b81516001600160401b03808211156200012b576200012b620000ea565b604051601f8301601f19908116603f01168101908282118183101715620001565762000156620000ea565b8160405283815260209250868385880101111562000172575f80fd5b5f91505b8382101562000195578582018301518183018401529082019062000176565b5f93810190920192909252949350505050565b5f805f60608486031215620001bb575f80fd5b83516001600160a01b0381168114620001d2575f80fd5b60208501519093506001600160401b0380821115620001ef575f80fd5b620001fd87838801620000fe565b9350604086015191508082111562000213575f80fd5b506200022286828701620000fe565b9150509250925092565b600181811c908216806200024157607f821691505b6020821081036200026057634e487b7160e01b5f52602260045260245ffd5b50919050565b601f821115620002b3575f81815260208120601f850160051c810160208610156200028e5750805b601f850160051c820191505b81811015620002af578281556001016200029a565b5050505b505050565b81516001600160401b03811115620002d457620002d4620000ea565b620002ec81620002e584546200022c565b8462000266565b602080601f83116001811462000322575f84156200030a5750858301515b5f19600386901b1c1916600185901b178555620002af565b5f85815260208120601f198616915b82811015620003525788860151825594840194600190910190840162000331565b50858210156200037057878501515f19600388901b60f8161c191681555b5050505050600190811b01905550565b61094b806200038e5f395ff3fe608060405234801561000f575f80fd5b50600436106100f0575f3560e01c806370a082311161009357806395d89b411161006357806395d89b41146101ef578063a9059cbb146101f7578063dd62ed3e1461020a578063f2fde38b14610242575f80fd5b806370a0823114610191578063715018a6146101b957806379cc6790146101c15780638da5cb5b146101d4575f80fd5b806323b872dd116100ce57806323b872dd14610147578063313ce5671461015a57806340c10f191461016957806342966c681461017e575f80fd5b806306fdde03146100f4578063095ea7b31461011257806318160ddd14610135575b5f80fd5b6100fc610255565b604051610109919061078f565b60405180910390f35b6101256101203660046107f5565b6102e5565b6040519015158152602001610109565b6002545b604051908152602001610109565b61012561015536600461081d565b6102fe565b60405160128152602001610109565b61017c6101773660046107f5565b610321565b005b61017c61018c366004610856565b610337565b61013961019f36600461086d565b6001600160a01b03165f9081526020819052604090205490565b61017c610344565b61017c6101cf3660046107f5565b610357565b6005546040516001600160a01b039091168152602001610109565b6100fc61036c565b6101256102053660046107f5565b61037b565b61013961021836600461088d565b6001600160a01b039182165f90815260016020908152604080832093909416825291909152205490565b61017c61025036600461086d565b610388565b606060038054610264906108be565b80601f0160208091040260200160405190810160405280929190818152602001828054610290906108be565b80156102db5780601f106102b2576101008083540402835291602001916102db565b820191905f5260205f20905b8154815290600101906020018083116102be57829003601f168201915b5050505050905090565b5f336102f28185856103c7565b60019150505b92915050565b5f3361030b8582856103d9565b610316858585610454565b506001949350505050565b6103296104b1565b61033382826104de565b5050565b6103413382610512565b50565b61034c6104b1565b6103555f610546565b565b6103628233836103d9565b6103338282610512565b606060048054610264906108be565b5f336102f2818585610454565b6103906104b1565b6001600160a01b0381166103be57604051631e4fbdf760e01b81525f60048201526024015b60405180910390fd5b61034181610546565b6103d48383836001610597565b505050565b6001600160a01b038381165f908152600160209081526040808320938616835292905220545f19811461044e578181101561044057604051637dc7a0d960e11b81526001600160a01b038416600482015260248101829052604481018390526064016103b5565b61044e84848484035f610597565b50505050565b6001600160a01b03831661047d57604051634b637e8f60e11b81525f60048201526024016103b5565b6001600160a01b0382166104a65760405163ec442f0560e01b81525f60048201526024016103b5565b6103d4838383610669565b6005546001600160a01b031633146103555760405163118cdaa760e01b81523360048201526024016103b5565b6001600160a01b0382166105075760405163ec442f0560e01b81525f60048201526024016103b5565b6103335f8383610669565b6001600160a01b03821661053b57604051634b637e8f60e11b81525f60048201526024016103b5565b610333825f83610669565b600580546001600160a01b038381166001600160a01b0319831681179093556040519116919082907f8be0079c531659141344cd1fd0a4f28419497f9722a3daafe3b4186f6b6457e0905f90a35050565b6001600160a01b0384166105c05760405163e602df0560e01b81525f60048201526024016103b5565b6001600160a01b0383166105e957604051634a1406b160e11b81525f60048201526024016103b5565b6001600160a01b038085165f908152600160209081526040808320938716835292905220829055801561044e57826001600160a01b0316846001600160a01b03167f8c5be1e5ebec7d5bd14f71427d1e84f3dd0314c0f7b2291e5b200ac8c7c3b9258460405161065b91815260200190565b60405180910390a350505050565b6001600160a01b038316610693578060025f82825461068891906108f6565b909155506107039050565b6001600160a01b0383165f90815260208190526040902054818110156106e55760405163391434e360e21b81526001600160a01b038516600482015260248101829052604481018390526064016103b5565b6001600160a01b0384165f9081526020819052604090209082900390555b6001600160a01b03821661071f5760028054829003905561073d565b6001600160a01b0382165f9081526020819052604090208054820190555b816001600160a01b0316836001600160a01b03167fddf252ad1be2c89b69c2b068fc378daa952ba7f163c4a11628f55a4df523b3ef8360405161078291815260200190565b60405180910390a3505050565b5f6020808352835180828501525f5b818110156107ba5785810183015185820160400152820161079e565b505f604082860101526040601f19601f8301168501019250505092915050565b80356001600160a01b03811681146107f0575f80fd5b919050565b5f8060408385031215610806575f80fd5b61080f836107da565b946020939093013593505050565b5f805f6060848603121561082f575f80fd5b610838846107da565b9250610846602085016107da565b9150604084013590509250925092565b5f60208284031215610866575f80fd5b5035919050565b5f6020828403121561087d575f80fd5b610886826107da565b9392505050565b5f806040838503121561089e575f80fd5b6108a7836107da565b91506108b5602084016107da565b90509250929050565b600181811c908216806108d257607f821691505b6020821081036108f057634e487b7160e01b5f52602260045260245ffd5b50919050565b808201808211156102f857634e487b7160e01b5f52601160045260245ffdfea2646970667358221220d4345b66bfb7412d2ea509531419dca8158f537841ee0d9aa80e3d80c30a67d364736f6c63430008140033000000000000000000000000b7d030f7c6406446e703e73b3d1dd8611a2d87b6000000000000000000000000000000000000000000000000000000000000006000000000000000000000000000000000000000000000000000000000000000a0000000000000000000000000000000000000000000000000000000000000000855534420436f696e00000000000000000000000000000000000000000000000000000000000000000000000000000000000000000000000000000000000000045553444300000000000000000000000000000000000000000000000000000000",
        "nonce": "0x74",
        "accessList": []
      },
      "additionalContracts": [],
      "isFixedGasLimit": false
    },
    {
      "hash": "0x6e6497bd546fff56fd6975d38a06ac45259fb169116705425eaddd2fb0767577",
      "transactionType": "CALL",
      "contractName": null,
      "contractAddress": "0x5fF5386CfFc574E5A488CCBBB5422213C3DD500E",
      "function": "mint(address,uint256)",
      "arguments": [
        "0xB7d030F7c6406446e703E73B3d1dd8611A2D87b6",
        "10000000000000000000000"
      ],
      "transaction": {
        "type": "0x02",
        "from": "0xb7d030f7c6406446e703e73b3d1dd8611a2d87b6",
        "to": "0x5ff5386cffc574e5a488ccbbb5422213c3dd500e",
        "gas": "0x39496e",
        "value": "0x0",
        "data": "0x40c10f19000000000000000000000000b7d030f7c6406446e703e73b3d1dd8611a2d87b600000000000000000000000000000000000000000000021e19e0c9bab2400000",
        "nonce": "0x75",
        "accessList": []
      },
      "additionalContracts": [],
      "isFixedGasLimit": false
    },
    {
      "hash": "0x1666811e75376f2e2d6e10442df879cf73a79da322f12ea3a546072044461ec7",
      "transactionType": "CALL",
      "contractName": null,
      "contractAddress": "0x5fF5386CfFc574E5A488CCBBB5422213C3DD500E",
      "function": "mint(address,uint256)",
      "arguments": [
        "0x4F88F1014Dd6Ca0507780380111c098BeE6b87e6",
        "10000000000000000000000"
      ],
      "transaction": {
        "type": "0x02",
        "from": "0xb7d030f7c6406446e703e73b3d1dd8611a2d87b6",
        "to": "0x5ff5386cffc574e5a488ccbbb5422213c3dd500e",
        "gas": "0x2dfae6",
        "value": "0x0",
        "data": "0x40c10f190000000000000000000000004f88f1014dd6ca0507780380111c098bee6b87e600000000000000000000000000000000000000000000021e19e0c9bab2400000",
        "nonce": "0x76",
        "accessList": []
      },
      "additionalContracts": [],
      "isFixedGasLimit": false
    },
    {
      "hash": "0xb945d506a959a0a3ebf6b359b466353652e3c92368f6a987e194315238d582f8",
      "transactionType": "CALL",
      "contractName": null,
      "contractAddress": "0x5fF5386CfFc574E5A488CCBBB5422213C3DD500E",
      "function": "mint(address,uint256)",
      "arguments": [
        "0xC31f6b8133d618aD2ff1AC5fAA3Fc4B20557B901",
        "10000000000000000000000"
      ],
      "transaction": {
        "type": "0x02",
        "from": "0xb7d030f7c6406446e703e73b3d1dd8611a2d87b6",
        "to": "0x5ff5386cffc574e5a488ccbbb5422213c3dd500e",
        "gas": "0x2dfae6",
        "value": "0x0",
        "data": "0x40c10f19000000000000000000000000c31f6b8133d618ad2ff1ac5faa3fc4b20557b90100000000000000000000000000000000000000000000021e19e0c9bab2400000",
        "nonce": "0x77",
        "accessList": []
      },
      "additionalContracts": [],
      "isFixedGasLimit": false
    },
    {
      "hash": "0x69e64774fc3e42cef90364d8838439e5e4eb62ddbd512938af0418fbb7beae4b",
      "transactionType": "CALL",
      "contractName": null,
      "contractAddress": "0x5fF5386CfFc574E5A488CCBBB5422213C3DD500E",
      "function": "mint(address,uint256)",
      "arguments": [
        "0x66E675533020c3CDeE2F33E372320B7e2692211e",
        "10000000000000000000000"
      ],
      "transaction": {
        "type": "0x02",
        "from": "0xb7d030f7c6406446e703e73b3d1dd8611a2d87b6",
        "to": "0x5ff5386cffc574e5a488ccbbb5422213c3dd500e",
        "gas": "0x2dfae6",
        "value": "0x0",
        "data": "0x40c10f1900000000000000000000000066e675533020c3cdee2f33e372320b7e2692211e00000000000000000000000000000000000000000000021e19e0c9bab2400000",
        "nonce": "0x78",
        "accessList": []
      },
      "additionalContracts": [],
      "isFixedGasLimit": false
    },
    {
      "hash": "0xcce89ba6f50558741a03ea29f9d15e1463c46296d1431a3b4f332335c74bdfff",
      "transactionType": "CALL",
      "contractName": null,
      "contractAddress": "0x5fF5386CfFc574E5A488CCBBB5422213C3DD500E",
      "function": "mint(address,uint256)",
      "arguments": [
        "0x8c4Eb6988A199DAbcae0Ce31052b3f3aC591787e",
        "10000000000000000000000"
      ],
      "transaction": {
        "type": "0x02",
        "from": "0xb7d030f7c6406446e703e73b3d1dd8611a2d87b6",
        "to": "0x5ff5386cffc574e5a488ccbbb5422213c3dd500e",
        "gas": "0x2dfae6",
        "value": "0x0",
        "data": "0x40c10f190000000000000000000000008c4eb6988a199dabcae0ce31052b3f3ac591787e00000000000000000000000000000000000000000000021e19e0c9bab2400000",
        "nonce": "0x79",
        "accessList": []
      },
      "additionalContracts": [],
      "isFixedGasLimit": false
    },
    {
      "hash": "0x65819bee13e9b9989baa97e05e958f2f2ec395dc8dd5d35fce00885ebe3ca54f",
      "transactionType": "CREATE",
      "contractName": null,
      "contractAddress": "0x5F1FaB4048Fa424c0cFdf1aa2A81D9aAfDAA2e55",
      "function": null,
      "arguments": null,
      "transaction": {
        "type": "0x02",
        "from": "0xb7d030f7c6406446e703e73b3d1dd8611a2d87b6",
        "gas": "0x1f1e234",
        "value": "0x0",
        "data": "0x608060405234801562000010575f80fd5b5060405162000cd938038062000cd98339810160408190526200003391620001a8565b8282826003620000448382620002b8565b506004620000538282620002b8565b5050506001600160a01b0381166200008457604051631e4fbdf760e01b81525f600482015260240160405180910390fd5b6200008f8162000099565b5050505062000380565b600580546001600160a01b038381166001600160a01b0319831681179093556040519116919082907f8be0079c531659141344cd1fd0a4f28419497f9722a3daafe3b4186f6b6457e0905f90a35050565b634e487b7160e01b5f52604160045260245ffd5b5f82601f8301126200010e575f80fd5b81516001600160401b03808211156200012b576200012b620000ea565b604051601f8301601f19908116603f01168101908282118183101715620001565762000156620000ea565b8160405283815260209250868385880101111562000172575f80fd5b5f91505b8382101562000195578582018301518183018401529082019062000176565b5f93810190920192909252949350505050565b5f805f60608486031215620001bb575f80fd5b83516001600160a01b0381168114620001d2575f80fd5b60208501519093506001600160401b0380821115620001ef575f80fd5b620001fd87838801620000fe565b9350604086015191508082111562000213575f80fd5b506200022286828701620000fe565b9150509250925092565b600181811c908216806200024157607f821691505b6020821081036200026057634e487b7160e01b5f52602260045260245ffd5b50919050565b601f821115620002b3575f81815260208120601f850160051c810160208610156200028e5750805b601f850160051c820191505b81811015620002af578281556001016200029a565b5050505b505050565b81516001600160401b03811115620002d457620002d4620000ea565b620002ec81620002e584546200022c565b8462000266565b602080601f83116001811462000322575f84156200030a5750858301515b5f19600386901b1c1916600185901b178555620002af565b5f85815260208120601f198616915b82811015620003525788860151825594840194600190910190840162000331565b50858210156200037057878501515f19600388901b60f8161c191681555b5050505050600190811b01905550565b61094b806200038e5f395ff3fe608060405234801561000f575f80fd5b50600436106100f0575f3560e01c806370a082311161009357806395d89b411161006357806395d89b41146101ef578063a9059cbb146101f7578063dd62ed3e1461020a578063f2fde38b14610242575f80fd5b806370a0823114610191578063715018a6146101b957806379cc6790146101c15780638da5cb5b146101d4575f80fd5b806323b872dd116100ce57806323b872dd14610147578063313ce5671461015a57806340c10f191461016957806342966c681461017e575f80fd5b806306fdde03146100f4578063095ea7b31461011257806318160ddd14610135575b5f80fd5b6100fc610255565b604051610109919061078f565b60405180910390f35b6101256101203660046107f5565b6102e5565b6040519015158152602001610109565b6002545b604051908152602001610109565b61012561015536600461081d565b6102fe565b60405160128152602001610109565b61017c6101773660046107f5565b610321565b005b61017c61018c366004610856565b610337565b61013961019f36600461086d565b6001600160a01b03165f9081526020819052604090205490565b61017c610344565b61017c6101cf3660046107f5565b610357565b6005546040516001600160a01b039091168152602001610109565b6100fc61036c565b6101256102053660046107f5565b61037b565b61013961021836600461088d565b6001600160a01b039182165f90815260016020908152604080832093909416825291909152205490565b61017c61025036600461086d565b610388565b606060038054610264906108be565b80601f0160208091040260200160405190810160405280929190818152602001828054610290906108be565b80156102db5780601f106102b2576101008083540402835291602001916102db565b820191905f5260205f20905b8154815290600101906020018083116102be57829003601f168201915b5050505050905090565b5f336102f28185856103c7565b60019150505b92915050565b5f3361030b8582856103d9565b610316858585610454565b506001949350505050565b6103296104b1565b61033382826104de565b5050565b6103413382610512565b50565b61034c6104b1565b6103555f610546565b565b6103628233836103d9565b6103338282610512565b606060048054610264906108be565b5f336102f2818585610454565b6103906104b1565b6001600160a01b0381166103be57604051631e4fbdf760e01b81525f60048201526024015b60405180910390fd5b61034181610546565b6103d48383836001610597565b505050565b6001600160a01b038381165f908152600160209081526040808320938616835292905220545f19811461044e578181101561044057604051637dc7a0d960e11b81526001600160a01b038416600482015260248101829052604481018390526064016103b5565b61044e84848484035f610597565b50505050565b6001600160a01b03831661047d57604051634b637e8f60e11b81525f60048201526024016103b5565b6001600160a01b0382166104a65760405163ec442f0560e01b81525f60048201526024016103b5565b6103d4838383610669565b6005546001600160a01b031633146103555760405163118cdaa760e01b81523360048201526024016103b5565b6001600160a01b0382166105075760405163ec442f0560e01b81525f60048201526024016103b5565b6103335f8383610669565b6001600160a01b03821661053b57604051634b637e8f60e11b81525f60048201526024016103b5565b610333825f83610669565b600580546001600160a01b038381166001600160a01b0319831681179093556040519116919082907f8be0079c531659141344cd1fd0a4f28419497f9722a3daafe3b4186f6b6457e0905f90a35050565b6001600160a01b0384166105c05760405163e602df0560e01b81525f60048201526024016103b5565b6001600160a01b0383166105e957604051634a1406b160e11b81525f60048201526024016103b5565b6001600160a01b038085165f908152600160209081526040808320938716835292905220829055801561044e57826001600160a01b0316846001600160a01b03167f8c5be1e5ebec7d5bd14f71427d1e84f3dd0314c0f7b2291e5b200ac8c7c3b9258460405161065b91815260200190565b60405180910390a350505050565b6001600160a01b038316610693578060025f82825461068891906108f6565b909155506107039050565b6001600160a01b0383165f90815260208190526040902054818110156106e55760405163391434e360e21b81526001600160a01b038516600482015260248101829052604481018390526064016103b5565b6001600160a01b0384165f9081526020819052604090209082900390555b6001600160a01b03821661071f5760028054829003905561073d565b6001600160a01b0382165f9081526020819052604090208054820190555b816001600160a01b0316836001600160a01b03167fddf252ad1be2c89b69c2b068fc378daa952ba7f163c4a11628f55a4df523b3ef8360405161078291815260200190565b60405180910390a3505050565b5f6020808352835180828501525f5b818110156107ba5785810183015185820160400152820161079e565b505f604082860101526040601f19601f8301168501019250505092915050565b80356001600160a01b03811681146107f0575f80fd5b919050565b5f8060408385031215610806575f80fd5b61080f836107da565b946020939093013593505050565b5f805f6060848603121561082f575f80fd5b610838846107da565b9250610846602085016107da565b9150604084013590509250925092565b5f60208284031215610866575f80fd5b5035919050565b5f6020828403121561087d575f80fd5b610886826107da565b9392505050565b5f806040838503121561089e575f80fd5b6108a7836107da565b91506108b5602084016107da565b90509250929050565b600181811c908216806108d257607f821691505b6020821081036108f057634e487b7160e01b5f52602260045260245ffd5b50919050565b808201808211156102f857634e487b7160e01b5f52601160045260245ffdfea2646970667358221220d4345b66bfb7412d2ea509531419dca8158f537841ee0d9aa80e3d80c30a67d364736f6c63430008140033000000000000000000000000b7d030f7c6406446e703e73b3d1dd8611a2d87b6000000000000000000000000000000000000000000000000000000000000006000000000000000000000000000000000000000000000000000000000000000a0000000000000000000000000000000000000000000000000000000000000000b577261707065642042544300000000000000000000000000000000000000000000000000000000000000000000000000000000000000000000000000000000045742544300000000000000000000000000000000000000000000000000000000",
        "nonce": "0x7a",
        "accessList": []
      },
      "additionalContracts": [],
      "isFixedGasLimit": false
    },
    {
      "hash": "0x13e2a741d71ca99f4a70e0e96d005bd5dfa4cfc11db06610ed8e128d7352617a",
      "transactionType": "CALL",
      "contractName": null,
      "contractAddress": "0x5F1FaB4048Fa424c0cFdf1aa2A81D9aAfDAA2e55",
      "function": "mint(address,uint256)",
      "arguments": [
        "0xB7d030F7c6406446e703E73B3d1dd8611A2D87b6",
        "10000000000000000000000"
      ],
      "transaction": {
        "type": "0x02",
        "from": "0xb7d030f7c6406446e703e73b3d1dd8611a2d87b6",
        "to": "0x5f1fab4048fa424c0cfdf1aa2a81d9aafdaa2e55",
        "gas": "0x39496e",
        "value": "0x0",
        "data": "0x40c10f19000000000000000000000000b7d030f7c6406446e703e73b3d1dd8611a2d87b600000000000000000000000000000000000000000000021e19e0c9bab2400000",
        "nonce": "0x7b",
        "accessList": []
      },
      "additionalContracts": [],
      "isFixedGasLimit": false
    },
    {
      "hash": "0x3f285b72a184362dcbcb37cafa1bbe2ad5a7a8f40312f16ada4a432b7b0e9716",
      "transactionType": "CALL",
      "contractName": null,
      "contractAddress": "0x5F1FaB4048Fa424c0cFdf1aa2A81D9aAfDAA2e55",
      "function": "mint(address,uint256)",
      "arguments": [
        "0x4F88F1014Dd6Ca0507780380111c098BeE6b87e6",
        "10000000000000000000000"
      ],
      "transaction": {
        "type": "0x02",
        "from": "0xb7d030f7c6406446e703e73b3d1dd8611a2d87b6",
        "to": "0x5f1fab4048fa424c0cfdf1aa2a81d9aafdaa2e55",
        "gas": "0x2dfae6",
        "value": "0x0",
        "data": "0x40c10f190000000000000000000000004f88f1014dd6ca0507780380111c098bee6b87e600000000000000000000000000000000000000000000021e19e0c9bab2400000",
        "nonce": "0x7c",
        "accessList": []
      },
      "additionalContracts": [],
      "isFixedGasLimit": false
    },
    {
      "hash": "0xfaf061b118dc97570788272e543730524ce9cb0de4aaa51416ec4bcf986ad47c",
      "transactionType": "CALL",
      "contractName": null,
      "contractAddress": "0x5F1FaB4048Fa424c0cFdf1aa2A81D9aAfDAA2e55",
      "function": "mint(address,uint256)",
      "arguments": [
        "0xC31f6b8133d618aD2ff1AC5fAA3Fc4B20557B901",
        "10000000000000000000000"
      ],
      "transaction": {
        "type": "0x02",
        "from": "0xb7d030f7c6406446e703e73b3d1dd8611a2d87b6",
        "to": "0x5f1fab4048fa424c0cfdf1aa2a81d9aafdaa2e55",
        "gas": "0x2dfae6",
        "value": "0x0",
        "data": "0x40c10f19000000000000000000000000c31f6b8133d618ad2ff1ac5faa3fc4b20557b90100000000000000000000000000000000000000000000021e19e0c9bab2400000",
        "nonce": "0x7d",
        "accessList": []
      },
      "additionalContracts": [],
      "isFixedGasLimit": false
    },
    {
      "hash": "0x001f626649593b6631dc7b67f7c9309881eec04ced0c88132a3d31900ea71451",
      "transactionType": "CALL",
      "contractName": null,
      "contractAddress": "0x5F1FaB4048Fa424c0cFdf1aa2A81D9aAfDAA2e55",
      "function": "mint(address,uint256)",
      "arguments": [
        "0x66E675533020c3CDeE2F33E372320B7e2692211e",
        "10000000000000000000000"
      ],
      "transaction": {
        "type": "0x02",
        "from": "0xb7d030f7c6406446e703e73b3d1dd8611a2d87b6",
        "to": "0x5f1fab4048fa424c0cfdf1aa2a81d9aafdaa2e55",
        "gas": "0x2dfae6",
        "value": "0x0",
        "data": "0x40c10f1900000000000000000000000066e675533020c3cdee2f33e372320b7e2692211e00000000000000000000000000000000000000000000021e19e0c9bab2400000",
        "nonce": "0x7e",
        "accessList": []
      },
      "additionalContracts": [],
      "isFixedGasLimit": false
    },
    {
      "hash": "0x34a5ba8f1be61fe8bfbddf3f923226079ac5e8119da45e4ebd82654f753b7c38",
      "transactionType": "CALL",
      "contractName": null,
      "contractAddress": "0x5F1FaB4048Fa424c0cFdf1aa2A81D9aAfDAA2e55",
      "function": "mint(address,uint256)",
      "arguments": [
        "0x8c4Eb6988A199DAbcae0Ce31052b3f3aC591787e",
        "10000000000000000000000"
      ],
      "transaction": {
        "type": "0x02",
        "from": "0xb7d030f7c6406446e703e73b3d1dd8611a2d87b6",
        "to": "0x5f1fab4048fa424c0cfdf1aa2a81d9aafdaa2e55",
        "gas": "0x2dfae6",
        "value": "0x0",
        "data": "0x40c10f190000000000000000000000008c4eb6988a199dabcae0ce31052b3f3ac591787e00000000000000000000000000000000000000000000021e19e0c9bab2400000",
        "nonce": "0x7f",
        "accessList": []
      },
      "additionalContracts": [],
      "isFixedGasLimit": false
    }
  ],
  "receipts": [
    {
      "transactionHash": "0x305e9c25fba89f9f9e19f52104f169d9ebacbecd5940dde6d5e2e4aeff910005",
      "transactionIndex": "0x1",
      "blockHash": "0x3efbfeadb333a94a5a7e39d1c81f6dbaa9580fbee373da48795a4e26b9726733",
      "blockNumber": "0x1cb456",
      "from": "0xB7d030F7c6406446e703E73B3d1dd8611A2D87b6",
      "to": null,
      "cumulativeGasUsed": "0x1f0b2c",
      "gasUsed": "0x1f0b2c",
      "contractAddress": "0x90df87c3104C666A1CfF5358dce6eFDBce949235",
      "logs": [
        {
          "address": "0x90df87c3104C666A1CfF5358dce6eFDBce949235",
          "topics": [
            "0x8be0079c531659141344cd1fd0a4f28419497f9722a3daafe3b4186f6b6457e0",
            "0x0000000000000000000000000000000000000000000000000000000000000000",
            "0x000000000000000000000000b7d030f7c6406446e703e73b3d1dd8611a2d87b6"
          ],
          "data": "0x",
          "blockHash": "0x3efbfeadb333a94a5a7e39d1c81f6dbaa9580fbee373da48795a4e26b9726733",
          "blockNumber": "0x1cb456",
          "transactionHash": "0x305e9c25fba89f9f9e19f52104f169d9ebacbecd5940dde6d5e2e4aeff910005",
          "transactionIndex": "0x1",
          "logIndex": "0x0",
          "removed": false
        }
      ],
      "status": "0x1",
      "logsBloom": "0x00000000000000000000000000000000000000000000000000800000000000000000000000000000000000000000000000000000000000000000000000000000000000000000000000000000000000000001000000400000000000000000000000000000020000000000000000000800000000000000000200000000800000400000000000000000000000000000000000000000000000000000000000000020000000000000000000000000000000000004000000000000000000000000000000000000000000000000000000000000000000000000000000000000000020000000100000000000000000000000000000000000000000000000000000000000",
      "type": "0x2",
      "effectiveGasPrice": "0x989680"
    },
    {
      "transactionHash": "0x94db9a322d075bcb0813f2cfec9e4bf241c2d3daee5cb5c045c138e2bc84baad",
      "transactionIndex": "0x2",
      "blockHash": "0x3efbfeadb333a94a5a7e39d1c81f6dbaa9580fbee373da48795a4e26b9726733",
      "blockNumber": "0x1cb456",
      "from": "0xB7d030F7c6406446e703E73B3d1dd8611A2D87b6",
      "to": "0x90df87c3104C666A1CfF5358dce6eFDBce949235",
      "cumulativeGasUsed": "0x21e0dd",
      "gasUsed": "0x2d5b1",
      "contractAddress": null,
      "logs": [
        {
          "address": "0x90df87c3104C666A1CfF5358dce6eFDBce949235",
          "topics": [
            "0xddf252ad1be2c89b69c2b068fc378daa952ba7f163c4a11628f55a4df523b3ef",
            "0x0000000000000000000000000000000000000000000000000000000000000000",
            "0x000000000000000000000000b7d030f7c6406446e703e73b3d1dd8611a2d87b6"
          ],
          "data": "0x00000000000000000000000000000000000000000000021e19e0c9bab2400000",
          "blockHash": "0x3efbfeadb333a94a5a7e39d1c81f6dbaa9580fbee373da48795a4e26b9726733",
          "blockNumber": "0x1cb456",
          "transactionHash": "0x94db9a322d075bcb0813f2cfec9e4bf241c2d3daee5cb5c045c138e2bc84baad",
          "transactionIndex": "0x2",
          "logIndex": "0x1",
          "removed": false
        }
      ],
      "status": "0x1",
      "logsBloom": "0x00000000000000000000000000000000000000000000000000000000000000000000000000000000000000000000000000000000000000000000000000000000000000000000000000000008000000000000000000400000000000000000000000000000020000000000000000000800000000000000000200000010800000000000000000000000000000000000000000000000000000000000000000000020000000000000000000000000000000000004000000000000000000000000000000000002000000000000000000000000000000000000000000000000000020000000100000000000000000000000000000000000000000000000000000000000",
      "type": "0x2",
      "effectiveGasPrice": "0x989680"
    },
    {
      "transactionHash": "0xdb11d30975f62b7b62e2484a00db90d4a119fe0fe615fb48e077713d46fe778b",
      "transactionIndex": "0x3",
      "blockHash": "0x3efbfeadb333a94a5a7e39d1c81f6dbaa9580fbee373da48795a4e26b9726733",
      "blockNumber": "0x1cb456",
      "from": "0xB7d030F7c6406446e703E73B3d1dd8611A2D87b6",
      "to": "0x90df87c3104C666A1CfF5358dce6eFDBce949235",
      "cumulativeGasUsed": "0x2473c2",
      "gasUsed": "0x292e5",
      "contractAddress": null,
      "logs": [
        {
          "address": "0x90df87c3104C666A1CfF5358dce6eFDBce949235",
          "topics": [
            "0xddf252ad1be2c89b69c2b068fc378daa952ba7f163c4a11628f55a4df523b3ef",
            "0x0000000000000000000000000000000000000000000000000000000000000000",
            "0x0000000000000000000000004f88f1014dd6ca0507780380111c098bee6b87e6"
          ],
          "data": "0x00000000000000000000000000000000000000000000021e19e0c9bab2400000",
          "blockHash": "0x3efbfeadb333a94a5a7e39d1c81f6dbaa9580fbee373da48795a4e26b9726733",
          "blockNumber": "0x1cb456",
          "transactionHash": "0xdb11d30975f62b7b62e2484a00db90d4a119fe0fe615fb48e077713d46fe778b",
          "transactionIndex": "0x3",
          "logIndex": "0x2",
          "removed": false
        }
      ],
      "status": "0x1",
      "logsBloom": "0x00000000000000000000000002000000000000000000000000000000000000000000000000000000000000000000000000000000000000000000000000000000000000000000000000000008000000000000000000000000000000000000000000000000020000000000000000000800000000000000000000000010800000000000000000000000000000000000000000000000000000000000000000000000000000000000000000000000000000000004000004000000000000000000000000000002000000000000000000000000000000000000000000000000000020000000100000000000000000000000000000000000008000000000000000000000",
      "type": "0x2",
      "effectiveGasPrice": "0x989680"
    },
    {
      "transactionHash": "0x624f515120420ace435e7504f6b1a4c2732444ea3ae9ebd3da34286b037be540",
      "transactionIndex": "0x1",
      "blockHash": "0xec934b584a83f680be227a876fc9c58dbe653fe909c63a26aa3f190bc5f86ecf",
      "blockNumber": "0x1cb457",
      "from": "0xB7d030F7c6406446e703E73B3d1dd8611A2D87b6",
      "to": "0x90df87c3104C666A1CfF5358dce6eFDBce949235",
      "cumulativeGasUsed": "0x292e5",
      "gasUsed": "0x292e5",
      "contractAddress": null,
      "logs": [
        {
          "address": "0x90df87c3104C666A1CfF5358dce6eFDBce949235",
          "topics": [
            "0xddf252ad1be2c89b69c2b068fc378daa952ba7f163c4a11628f55a4df523b3ef",
            "0x0000000000000000000000000000000000000000000000000000000000000000",
            "0x000000000000000000000000c31f6b8133d618ad2ff1ac5faa3fc4b20557b901"
          ],
          "data": "0x00000000000000000000000000000000000000000000021e19e0c9bab2400000",
          "blockHash": "0xec934b584a83f680be227a876fc9c58dbe653fe909c63a26aa3f190bc5f86ecf",
          "blockNumber": "0x1cb457",
          "transactionHash": "0x624f515120420ace435e7504f6b1a4c2732444ea3ae9ebd3da34286b037be540",
          "transactionIndex": "0x1",
          "logIndex": "0x0",
          "removed": false
        }
      ],
      "status": "0x1",
      "logsBloom": "0x00000000000000000000000000000000000000000000000000000000000000000000000000000000000000000000000000000000000000000000000000000000000000000000000000000008000000000000000000000000000000000000000000000000020000000000000000000800000000000000000000000010c00000000000000000000000000000000000000000000002000000000000000000000000000000000000000000000000000000000004000000000000080000000000000000000002000000000000000000000000000000000000000000000000000020000000100000000000000000000000000000000000000000000000000000000000",
      "type": "0x2",
      "effectiveGasPrice": "0x989680"
    },
    {
      "transactionHash": "0xc68425b558de928159ef25ae6e747a8663c5f9e04086f73628dfac0ef9eccf8c",
      "transactionIndex": "0x2",
      "blockHash": "0xec934b584a83f680be227a876fc9c58dbe653fe909c63a26aa3f190bc5f86ecf",
      "blockNumber": "0x1cb457",
      "from": "0xB7d030F7c6406446e703E73B3d1dd8611A2D87b6",
      "to": "0x90df87c3104C666A1CfF5358dce6eFDBce949235",
      "cumulativeGasUsed": "0x525ca",
      "gasUsed": "0x292e5",
      "contractAddress": null,
      "logs": [
        {
          "address": "0x90df87c3104C666A1CfF5358dce6eFDBce949235",
          "topics": [
            "0xddf252ad1be2c89b69c2b068fc378daa952ba7f163c4a11628f55a4df523b3ef",
            "0x0000000000000000000000000000000000000000000000000000000000000000",
            "0x00000000000000000000000066e675533020c3cdee2f33e372320b7e2692211e"
          ],
          "data": "0x00000000000000000000000000000000000000000000021e19e0c9bab2400000",
          "blockHash": "0xec934b584a83f680be227a876fc9c58dbe653fe909c63a26aa3f190bc5f86ecf",
          "blockNumber": "0x1cb457",
          "transactionHash": "0xc68425b558de928159ef25ae6e747a8663c5f9e04086f73628dfac0ef9eccf8c",
          "transactionIndex": "0x2",
          "logIndex": "0x1",
          "removed": false
        }
      ],
      "status": "0x1",
      "logsBloom": "0x00000000000000000000000000000000000000000000000000000000001000000000000000000000000000000000000000000000000000000000000000000000000000000000000000000008000008000000000000000000000000000000000000000000020000000000000000000800000000000000000000000010800000000000000000000000000000000000000000000000002000000000000000000000000000000000000000000000000000000004000000000000000000000000000000000002000000000000000000000000000000000000000000000000000020000000100000000000000000000000000000000000000000000000000000000000",
      "type": "0x2",
      "effectiveGasPrice": "0x989680"
    },
    {
      "transactionHash": "0xee7ebbebe779483c9b4fdebd828b46da300a6647ba30144be5e2379f9d172f8f",
      "transactionIndex": "0x3",
      "blockHash": "0xec934b584a83f680be227a876fc9c58dbe653fe909c63a26aa3f190bc5f86ecf",
      "blockNumber": "0x1cb457",
      "from": "0xB7d030F7c6406446e703E73B3d1dd8611A2D87b6",
      "to": "0x90df87c3104C666A1CfF5358dce6eFDBce949235",
      "cumulativeGasUsed": "0x7b8af",
      "gasUsed": "0x292e5",
      "contractAddress": null,
      "logs": [
        {
          "address": "0x90df87c3104C666A1CfF5358dce6eFDBce949235",
          "topics": [
            "0xddf252ad1be2c89b69c2b068fc378daa952ba7f163c4a11628f55a4df523b3ef",
            "0x0000000000000000000000000000000000000000000000000000000000000000",
            "0x0000000000000000000000008c4eb6988a199dabcae0ce31052b3f3ac591787e"
          ],
          "data": "0x00000000000000000000000000000000000000000000021e19e0c9bab2400000",
          "blockHash": "0xec934b584a83f680be227a876fc9c58dbe653fe909c63a26aa3f190bc5f86ecf",
          "blockNumber": "0x1cb457",
          "transactionHash": "0xee7ebbebe779483c9b4fdebd828b46da300a6647ba30144be5e2379f9d172f8f",
          "transactionIndex": "0x3",
          "logIndex": "0x2",
          "removed": false
        }
      ],
      "status": "0x1",
      "logsBloom": "0x00000000000000000000000000000000000000000000000000000000000000000000000000000000000000000000000000000000000040000000000000000000000000000000000000000008000000000000000000000000000000000000000000000000020000000000000000000800000000000000000000000010800000000000000100000000000000000000000000000000000000000000000000000000000000000000000000000000000001000004000000000000000000000000000000000002000000000000000000000000000000000000000000000000000020000000100000000000000000000000000000000000000000000000000000000000",
      "type": "0x2",
      "effectiveGasPrice": "0x989680"
    },
    {
      "transactionHash": "0xbd4b1bd848c2d494d8b2e327c2956959a18838b69d3e888d65e4310f8b190ae2",
      "transactionIndex": "0x4",
      "blockHash": "0xec934b584a83f680be227a876fc9c58dbe653fe909c63a26aa3f190bc5f86ecf",
      "blockNumber": "0x1cb457",
      "from": "0xB7d030F7c6406446e703E73B3d1dd8611A2D87b6",
      "to": null,
      "cumulativeGasUsed": "0x26b541",
      "gasUsed": "0x1efc92",
      "contractAddress": "0x5fF5386CfFc574E5A488CCBBB5422213C3DD500E",
      "logs": [
        {
          "address": "0x5fF5386CfFc574E5A488CCBBB5422213C3DD500E",
          "topics": [
            "0x8be0079c531659141344cd1fd0a4f28419497f9722a3daafe3b4186f6b6457e0",
            "0x0000000000000000000000000000000000000000000000000000000000000000",
            "0x000000000000000000000000b7d030f7c6406446e703e73b3d1dd8611a2d87b6"
          ],
          "data": "0x",
          "blockHash": "0xec934b584a83f680be227a876fc9c58dbe653fe909c63a26aa3f190bc5f86ecf",
          "blockNumber": "0x1cb457",
          "transactionHash": "0xbd4b1bd848c2d494d8b2e327c2956959a18838b69d3e888d65e4310f8b190ae2",
          "transactionIndex": "0x4",
          "logIndex": "0x3",
          "removed": false
        }
      ],
      "status": "0x1",
      "logsBloom": "0x00000000000000000000000000000000000000000000000000800000000000000000000000000000000000000000000000000000000000000000000000000000000000000000000000000000000000000001000000400000000000000000000000000000020000000000000000000800000000000000000200000000000000400000000000000000080000000000000000000000000000000000000000000020000000000000040000080000000000000000000000000000000000000000000000000000000000000000000000000000000000000000000000000000000020000000000000000000000000000000000000000000000000000000000000000000",
      "type": "0x2",
      "effectiveGasPrice": "0x989680"
    },
    {
      "transactionHash": "0x6e6497bd546fff56fd6975d38a06ac45259fb169116705425eaddd2fb0767577",
      "transactionIndex": "0x1",
      "blockHash": "0xe846f8663c1d2b675e3272b9392ca55f4031289d7ab00849828087cbdb4e44e6",
      "blockNumber": "0x1cb458",
      "from": "0xB7d030F7c6406446e703E73B3d1dd8611A2D87b6",
      "to": "0x5fF5386CfFc574E5A488CCBBB5422213C3DD500E",
      "cumulativeGasUsed": "0x2d5b1",
      "gasUsed": "0x2d5b1",
      "contractAddress": null,
      "logs": [
        {
          "address": "0x5fF5386CfFc574E5A488CCBBB5422213C3DD500E",
          "topics": [
            "0xddf252ad1be2c89b69c2b068fc378daa952ba7f163c4a11628f55a4df523b3ef",
            "0x0000000000000000000000000000000000000000000000000000000000000000",
            "0x000000000000000000000000b7d030f7c6406446e703e73b3d1dd8611a2d87b6"
          ],
          "data": "0x00000000000000000000000000000000000000000000021e19e0c9bab2400000",
          "blockHash": "0xe846f8663c1d2b675e3272b9392ca55f4031289d7ab00849828087cbdb4e44e6",
          "blockNumber": "0x1cb458",
          "transactionHash": "0x6e6497bd546fff56fd6975d38a06ac45259fb169116705425eaddd2fb0767577",
          "transactionIndex": "0x1",
          "logIndex": "0x0",
          "removed": false
        }
      ],
      "status": "0x1",
      "logsBloom": "0x00000000000000000000000000000000000000000000000000000000000000000000000000000000000000000000000000000000000000000000000000000000000000000000000000000008000000000000000000400000000000000000000000000000020000000000000000000800000000000000000200000010000000000000000000000000080000000000000000000000000000000000000000000020000000000000040000080000000000000000000000000000000000000000000000000002000000000000000000000000000000000000000000000000000020000000000000000000000000000000000000000000000000000000000000000000",
      "type": "0x2",
      "effectiveGasPrice": "0x989680"
    },
    {
      "transactionHash": "0x1666811e75376f2e2d6e10442df879cf73a79da322f12ea3a546072044461ec7",
      "transactionIndex": "0x2",
      "blockHash": "0xe846f8663c1d2b675e3272b9392ca55f4031289d7ab00849828087cbdb4e44e6",
      "blockNumber": "0x1cb458",
      "from": "0xB7d030F7c6406446e703E73B3d1dd8611A2D87b6",
      "to": "0x5fF5386CfFc574E5A488CCBBB5422213C3DD500E",
      "cumulativeGasUsed": "0x56896",
      "gasUsed": "0x292e5",
      "contractAddress": null,
      "logs": [
        {
          "address": "0x5fF5386CfFc574E5A488CCBBB5422213C3DD500E",
          "topics": [
            "0xddf252ad1be2c89b69c2b068fc378daa952ba7f163c4a11628f55a4df523b3ef",
            "0x0000000000000000000000000000000000000000000000000000000000000000",
            "0x0000000000000000000000004f88f1014dd6ca0507780380111c098bee6b87e6"
          ],
          "data": "0x00000000000000000000000000000000000000000000021e19e0c9bab2400000",
          "blockHash": "0xe846f8663c1d2b675e3272b9392ca55f4031289d7ab00849828087cbdb4e44e6",
          "blockNumber": "0x1cb458",
          "transactionHash": "0x1666811e75376f2e2d6e10442df879cf73a79da322f12ea3a546072044461ec7",
          "transactionIndex": "0x2",
          "logIndex": "0x1",
          "removed": false
        }
      ],
      "status": "0x1",
      "logsBloom": "0x00000000000000000000000002000000000000000000000000000000000000000000000000000000000000000000000000000000000000000000000000000000000000000000000000000008000000000000000000000000000000000000000000000000020000000000000000000800000000000000000000000010000000000000000000000000080000000000000000000000000000000000000000000000000000000000040000080000000000000000000004000000000000000000000000000002000000000000000000000000000000000000000000000000000020000000000000000000000000000000000000000000008000000000000000000000",
      "type": "0x2",
      "effectiveGasPrice": "0x989680"
    },
    {
      "transactionHash": "0xb945d506a959a0a3ebf6b359b466353652e3c92368f6a987e194315238d582f8",
      "transactionIndex": "0x3",
      "blockHash": "0xe846f8663c1d2b675e3272b9392ca55f4031289d7ab00849828087cbdb4e44e6",
      "blockNumber": "0x1cb458",
      "from": "0xB7d030F7c6406446e703E73B3d1dd8611A2D87b6",
      "to": "0x5fF5386CfFc574E5A488CCBBB5422213C3DD500E",
      "cumulativeGasUsed": "0x7fb7b",
      "gasUsed": "0x292e5",
      "contractAddress": null,
      "logs": [
        {
          "address": "0x5fF5386CfFc574E5A488CCBBB5422213C3DD500E",
          "topics": [
            "0xddf252ad1be2c89b69c2b068fc378daa952ba7f163c4a11628f55a4df523b3ef",
            "0x0000000000000000000000000000000000000000000000000000000000000000",
            "0x000000000000000000000000c31f6b8133d618ad2ff1ac5faa3fc4b20557b901"
          ],
          "data": "0x00000000000000000000000000000000000000000000021e19e0c9bab2400000",
          "blockHash": "0xe846f8663c1d2b675e3272b9392ca55f4031289d7ab00849828087cbdb4e44e6",
          "blockNumber": "0x1cb458",
          "transactionHash": "0xb945d506a959a0a3ebf6b359b466353652e3c92368f6a987e194315238d582f8",
          "transactionIndex": "0x3",
          "logIndex": "0x2",
          "removed": false
        }
      ],
      "status": "0x1",
      "logsBloom": "0x00000000000000000000000000000000000000000000000000000000000000000000000000000000000000000000000000000000000000000000000000000000000000000000000000000008000000000000000000000000000000000000000000000000020000000000000000000800000000000000000000000010400000000000000000000000080000000000000000000002000000000000000000000000000000000000040000080000000000000000000000000000080000000000000000000002000000000000000000000000000000000000000000000000000020000000000000000000000000000000000000000000000000000000000000000000",
      "type": "0x2",
      "effectiveGasPrice": "0x989680"
    },
    {
      "transactionHash": "0x69e64774fc3e42cef90364d8838439e5e4eb62ddbd512938af0418fbb7beae4b",
      "transactionIndex": "0x1",
      "blockHash": "0x7e78fa8909660f8f1dd4c7631b2a0e91699f53998f65319bab8920bbbf6c5726",
      "blockNumber": "0x1cb459",
      "from": "0xB7d030F7c6406446e703E73B3d1dd8611A2D87b6",
      "to": "0x5fF5386CfFc574E5A488CCBBB5422213C3DD500E",
      "cumulativeGasUsed": "0x292e5",
      "gasUsed": "0x292e5",
      "contractAddress": null,
      "logs": [
        {
          "address": "0x5fF5386CfFc574E5A488CCBBB5422213C3DD500E",
          "topics": [
            "0xddf252ad1be2c89b69c2b068fc378daa952ba7f163c4a11628f55a4df523b3ef",
            "0x0000000000000000000000000000000000000000000000000000000000000000",
            "0x00000000000000000000000066e675533020c3cdee2f33e372320b7e2692211e"
          ],
          "data": "0x00000000000000000000000000000000000000000000021e19e0c9bab2400000",
          "blockHash": "0x7e78fa8909660f8f1dd4c7631b2a0e91699f53998f65319bab8920bbbf6c5726",
          "blockNumber": "0x1cb459",
          "transactionHash": "0x69e64774fc3e42cef90364d8838439e5e4eb62ddbd512938af0418fbb7beae4b",
          "transactionIndex": "0x1",
          "logIndex": "0x0",
          "removed": false
        }
      ],
      "status": "0x1",
      "logsBloom": "0x00000000000000000000000000000000000000000000000000000000001000000000000000000000000000000000000000000000000000000000000000000000000000000000000000000008000008000000000000000000000000000000000000000000020000000000000000000800000000000000000000000010000000000000000000000000080000000000000000000000002000000000000000000000000000000000040000080000000000000000000000000000000000000000000000000002000000000000000000000000000000000000000000000000000020000000000000000000000000000000000000000000000000000000000000000000",
      "type": "0x2",
      "effectiveGasPrice": "0x989680"
    },
    {
      "transactionHash": "0xcce89ba6f50558741a03ea29f9d15e1463c46296d1431a3b4f332335c74bdfff",
      "transactionIndex": "0x2",
      "blockHash": "0x7e78fa8909660f8f1dd4c7631b2a0e91699f53998f65319bab8920bbbf6c5726",
      "blockNumber": "0x1cb459",
      "from": "0xB7d030F7c6406446e703E73B3d1dd8611A2D87b6",
      "to": "0x5fF5386CfFc574E5A488CCBBB5422213C3DD500E",
      "cumulativeGasUsed": "0x525ca",
      "gasUsed": "0x292e5",
      "contractAddress": null,
      "logs": [
        {
          "address": "0x5fF5386CfFc574E5A488CCBBB5422213C3DD500E",
          "topics": [
            "0xddf252ad1be2c89b69c2b068fc378daa952ba7f163c4a11628f55a4df523b3ef",
            "0x0000000000000000000000000000000000000000000000000000000000000000",
            "0x0000000000000000000000008c4eb6988a199dabcae0ce31052b3f3ac591787e"
          ],
          "data": "0x00000000000000000000000000000000000000000000021e19e0c9bab2400000",
          "blockHash": "0x7e78fa8909660f8f1dd4c7631b2a0e91699f53998f65319bab8920bbbf6c5726",
          "blockNumber": "0x1cb459",
          "transactionHash": "0xcce89ba6f50558741a03ea29f9d15e1463c46296d1431a3b4f332335c74bdfff",
          "transactionIndex": "0x2",
          "logIndex": "0x1",
          "removed": false
        }
      ],
      "status": "0x1",
      "logsBloom": "0x00000000000000000000000000000000000000000000000000000000000000000000000000000000000000000000000000000000000040000000000000000000000000000000000000000008000000000000000000000000000000000000000000000000020000000000000000000800000000000000000000000010000000000000000100000000080000000000000000000000000000000000000000000000000000000000040000080000000001000000000000000000000000000000000000000002000000000000000000000000000000000000000000000000000020000000000000000000000000000000000000000000000000000000000000000000",
      "type": "0x2",
      "effectiveGasPrice": "0x989680"
    },
    {
      "transactionHash": "0x65819bee13e9b9989baa97e05e958f2f2ec395dc8dd5d35fce00885ebe3ca54f",
      "transactionIndex": "0x3",
      "blockHash": "0x7e78fa8909660f8f1dd4c7631b2a0e91699f53998f65319bab8920bbbf6c5726",
      "blockNumber": "0x1cb459",
      "from": "0xB7d030F7c6406446e703E73B3d1dd8611A2D87b6",
      "to": null,
      "cumulativeGasUsed": "0x2424eb",
      "gasUsed": "0x1eff21",
      "contractAddress": "0x5F1FaB4048Fa424c0cFdf1aa2A81D9aAfDAA2e55",
      "logs": [
        {
          "address": "0x5F1FaB4048Fa424c0cFdf1aa2A81D9aAfDAA2e55",
          "topics": [
            "0x8be0079c531659141344cd1fd0a4f28419497f9722a3daafe3b4186f6b6457e0",
            "0x0000000000000000000000000000000000000000000000000000000000000000",
            "0x000000000000000000000000b7d030f7c6406446e703e73b3d1dd8611a2d87b6"
          ],
          "data": "0x",
          "blockHash": "0x7e78fa8909660f8f1dd4c7631b2a0e91699f53998f65319bab8920bbbf6c5726",
          "blockNumber": "0x1cb459",
          "transactionHash": "0x65819bee13e9b9989baa97e05e958f2f2ec395dc8dd5d35fce00885ebe3ca54f",
          "transactionIndex": "0x3",
          "logIndex": "0x2",
          "removed": false
        }
      ],
      "status": "0x1",
      "logsBloom": "0x00000000000000000000000000000000000000000000000000800000000000000000000000000000000000000000000000000000000200000000000000000000000000000000000000000000000000000001000000400000000000000000000000000000020000000000000000000800000000000000000200000000000000400000000000400000000000000000000000000000000000000000000000000020000000000000000000000000000000000000000000000000000000000000000000000000000000000000000000000000000000000000000000000000000020000000000002000000000000000000000000000000000000000000000000000000",
      "type": "0x2",
      "effectiveGasPrice": "0x989680"
    },
    {
      "transactionHash": "0x13e2a741d71ca99f4a70e0e96d005bd5dfa4cfc11db06610ed8e128d7352617a",
      "transactionIndex": "0x4",
      "blockHash": "0x7e78fa8909660f8f1dd4c7631b2a0e91699f53998f65319bab8920bbbf6c5726",
      "blockNumber": "0x1cb459",
      "from": "0xB7d030F7c6406446e703E73B3d1dd8611A2D87b6",
      "to": "0x5F1FaB4048Fa424c0cFdf1aa2A81D9aAfDAA2e55",
      "cumulativeGasUsed": "0x26fa9c",
      "gasUsed": "0x2d5b1",
      "contractAddress": null,
      "logs": [
        {
          "address": "0x5F1FaB4048Fa424c0cFdf1aa2A81D9aAfDAA2e55",
          "topics": [
            "0xddf252ad1be2c89b69c2b068fc378daa952ba7f163c4a11628f55a4df523b3ef",
            "0x0000000000000000000000000000000000000000000000000000000000000000",
            "0x000000000000000000000000b7d030f7c6406446e703e73b3d1dd8611a2d87b6"
          ],
          "data": "0x00000000000000000000000000000000000000000000021e19e0c9bab2400000",
          "blockHash": "0x7e78fa8909660f8f1dd4c7631b2a0e91699f53998f65319bab8920bbbf6c5726",
          "blockNumber": "0x1cb459",
          "transactionHash": "0x13e2a741d71ca99f4a70e0e96d005bd5dfa4cfc11db06610ed8e128d7352617a",
          "transactionIndex": "0x4",
          "logIndex": "0x3",
          "removed": false
        }
      ],
      "status": "0x1",
      "logsBloom": "0x00000000000000000000000000000000000000000000000000000000000000000000000000000000000000000000000000000000000200000000000000000000000000000000000000000008000000000000000000400000000000000000000000000000020000000000000000000800000000000000000200000010000000000000000000400000000000000000000000000000000000000000000000000020000000000000000000000000000000000000000000000000000000000000000000000002000000000000000000000000000000000000000000000000000020000000000002000000000000000000000000000000000000000000000000000000",
      "type": "0x2",
      "effectiveGasPrice": "0x989680"
    },
    {
      "transactionHash": "0x3f285b72a184362dcbcb37cafa1bbe2ad5a7a8f40312f16ada4a432b7b0e9716",
      "transactionIndex": "0x1",
      "blockHash": "0x382f1a0e67cc8954e1f616812cc5fb7c0815a76ac729228222cda8290ea28cc5",
      "blockNumber": "0x1cb45a",
      "from": "0xB7d030F7c6406446e703E73B3d1dd8611A2D87b6",
      "to": "0x5F1FaB4048Fa424c0cFdf1aa2A81D9aAfDAA2e55",
      "cumulativeGasUsed": "0x292e5",
      "gasUsed": "0x292e5",
      "contractAddress": null,
      "logs": [
        {
          "address": "0x5F1FaB4048Fa424c0cFdf1aa2A81D9aAfDAA2e55",
          "topics": [
            "0xddf252ad1be2c89b69c2b068fc378daa952ba7f163c4a11628f55a4df523b3ef",
            "0x0000000000000000000000000000000000000000000000000000000000000000",
            "0x0000000000000000000000004f88f1014dd6ca0507780380111c098bee6b87e6"
          ],
          "data": "0x00000000000000000000000000000000000000000000021e19e0c9bab2400000",
          "blockHash": "0x382f1a0e67cc8954e1f616812cc5fb7c0815a76ac729228222cda8290ea28cc5",
          "blockNumber": "0x1cb45a",
          "transactionHash": "0x3f285b72a184362dcbcb37cafa1bbe2ad5a7a8f40312f16ada4a432b7b0e9716",
          "transactionIndex": "0x1",
          "logIndex": "0x0",
          "removed": false
        }
      ],
      "status": "0x1",
      "logsBloom": "0x00000000000000000000000002000000000000000000000000000000000000000000000000000000000000000000000000000000000200000000000000000000000000000000000000000008000000000000000000000000000000000000000000000000020000000000000000000800000000000000000000000010000000000000000000400000000000000000000000000000000000000000000000000000000000000000000000000000000000000000000004000000000000000000000000000002000000000000000000000000000000000000000000000000000020000000000002000000000000000000000000000000008000000000000000000000",
      "type": "0x2",
      "effectiveGasPrice": "0x989680"
    },
    {
      "transactionHash": "0xfaf061b118dc97570788272e543730524ce9cb0de4aaa51416ec4bcf986ad47c",
      "transactionIndex": "0x2",
      "blockHash": "0x382f1a0e67cc8954e1f616812cc5fb7c0815a76ac729228222cda8290ea28cc5",
      "blockNumber": "0x1cb45a",
      "from": "0xB7d030F7c6406446e703E73B3d1dd8611A2D87b6",
      "to": "0x5F1FaB4048Fa424c0cFdf1aa2A81D9aAfDAA2e55",
      "cumulativeGasUsed": "0x525ca",
      "gasUsed": "0x292e5",
      "contractAddress": null,
      "logs": [
        {
          "address": "0x5F1FaB4048Fa424c0cFdf1aa2A81D9aAfDAA2e55",
          "topics": [
            "0xddf252ad1be2c89b69c2b068fc378daa952ba7f163c4a11628f55a4df523b3ef",
            "0x0000000000000000000000000000000000000000000000000000000000000000",
            "0x000000000000000000000000c31f6b8133d618ad2ff1ac5faa3fc4b20557b901"
          ],
          "data": "0x00000000000000000000000000000000000000000000021e19e0c9bab2400000",
          "blockHash": "0x382f1a0e67cc8954e1f616812cc5fb7c0815a76ac729228222cda8290ea28cc5",
          "blockNumber": "0x1cb45a",
          "transactionHash": "0xfaf061b118dc97570788272e543730524ce9cb0de4aaa51416ec4bcf986ad47c",
          "transactionIndex": "0x2",
          "logIndex": "0x1",
          "removed": false
        }
      ],
      "status": "0x1",
      "logsBloom": "0x00000000000000000000000000000000000000000000000000000000000000000000000000000000000000000000000000000000000200000000000000000000000000000000000000000008000000000000000000000000000000000000000000000000020000000000000000000800000000000000000000000010400000000000000000400000000000000000000000000002000000000000000000000000000000000000000000000000000000000000000000000000080000000000000000000002000000000000000000000000000000000000000000000000000020000000000002000000000000000000000000000000000000000000000000000000",
      "type": "0x2",
      "effectiveGasPrice": "0x989680"
    },
    {
      "transactionHash": "0x001f626649593b6631dc7b67f7c9309881eec04ced0c88132a3d31900ea71451",
      "transactionIndex": "0x3",
      "blockHash": "0x382f1a0e67cc8954e1f616812cc5fb7c0815a76ac729228222cda8290ea28cc5",
      "blockNumber": "0x1cb45a",
      "from": "0xB7d030F7c6406446e703E73B3d1dd8611A2D87b6",
      "to": "0x5F1FaB4048Fa424c0cFdf1aa2A81D9aAfDAA2e55",
      "cumulativeGasUsed": "0x7b8af",
      "gasUsed": "0x292e5",
      "contractAddress": null,
      "logs": [
        {
          "address": "0x5F1FaB4048Fa424c0cFdf1aa2A81D9aAfDAA2e55",
          "topics": [
            "0xddf252ad1be2c89b69c2b068fc378daa952ba7f163c4a11628f55a4df523b3ef",
            "0x0000000000000000000000000000000000000000000000000000000000000000",
            "0x00000000000000000000000066e675533020c3cdee2f33e372320b7e2692211e"
          ],
          "data": "0x00000000000000000000000000000000000000000000021e19e0c9bab2400000",
          "blockHash": "0x382f1a0e67cc8954e1f616812cc5fb7c0815a76ac729228222cda8290ea28cc5",
          "blockNumber": "0x1cb45a",
          "transactionHash": "0x001f626649593b6631dc7b67f7c9309881eec04ced0c88132a3d31900ea71451",
          "transactionIndex": "0x3",
          "logIndex": "0x2",
          "removed": false
        }
      ],
      "status": "0x1",
      "logsBloom": "0x00000000000000000000000000000000000000000000000000000000001000000000000000000000000000000000000000000000000200000000000000000000000000000000000000000008000008000000000000000000000000000000000000000000020000000000000000000800000000000000000000000010000000000000000000400000000000000000000000000000002000000000000000000000000000000000000000000000000000000000000000000000000000000000000000000002000000000000000000000000000000000000000000000000000020000000000002000000000000000000000000000000000000000000000000000000",
      "type": "0x2",
      "effectiveGasPrice": "0x989680"
    },
    {
      "transactionHash": "0x34a5ba8f1be61fe8bfbddf3f923226079ac5e8119da45e4ebd82654f753b7c38",
      "transactionIndex": "0x1",
      "blockHash": "0x42807dae6f282c412c855f0c57609003688d891c56e308ce452fc704349d221d",
      "blockNumber": "0x1cb45b",
      "from": "0xB7d030F7c6406446e703E73B3d1dd8611A2D87b6",
      "to": "0x5F1FaB4048Fa424c0cFdf1aa2A81D9aAfDAA2e55",
      "cumulativeGasUsed": "0x292e5",
      "gasUsed": "0x292e5",
      "contractAddress": null,
      "logs": [
        {
          "address": "0x5F1FaB4048Fa424c0cFdf1aa2A81D9aAfDAA2e55",
          "topics": [
            "0xddf252ad1be2c89b69c2b068fc378daa952ba7f163c4a11628f55a4df523b3ef",
            "0x0000000000000000000000000000000000000000000000000000000000000000",
            "0x0000000000000000000000008c4eb6988a199dabcae0ce31052b3f3ac591787e"
          ],
          "data": "0x00000000000000000000000000000000000000000000021e19e0c9bab2400000",
          "blockHash": "0x42807dae6f282c412c855f0c57609003688d891c56e308ce452fc704349d221d",
          "blockNumber": "0x1cb45b",
          "transactionHash": "0x34a5ba8f1be61fe8bfbddf3f923226079ac5e8119da45e4ebd82654f753b7c38",
          "transactionIndex": "0x1",
          "logIndex": "0x0",
          "removed": false
        }
      ],
      "status": "0x1",
      "logsBloom": "0x00000000000000000000000000000000000000000000000000000000000000000000000000000000000000000000000000000000000240000000000000000000000000000000000000000008000000000000000000000000000000000000000000000000020000000000000000000800000000000000000000000010000000000000000100400000000000000000000000000000000000000000000000000000000000000000000000000000000001000000000000000000000000000000000000000002000000000000000000000000000000000000000000000000000020000000000002000000000000000000000000000000000000000000000000000000",
      "type": "0x2",
      "effectiveGasPrice": "0x989680"
    }
  ],
  "libraries": [],
  "pending": [],
  "returns": {},
  "timestamp": 1730703064,
  "chain": 98864,
  "commit": "6311277"
}