{
  "transactions": [
    {
      "hash": "0xb62abdb2e78dcb0d8b41263943787963fcf22a332b45250c91eb89cd89679651",
      "transactionType": "CREATE",
      "contractName": null,
      "contractAddress": "0x9eae2bda2b82e1e70e759c1b1dce6306595d55e0",
      "function": null,
      "arguments": null,
      "transaction": {
        "from": "0xb7d030f7c6406446e703e73b3d1dd8611a2d87b6",
        "gas": "0xcf1da",
        "value": "0x0",
        "input": "0x608060405234801562000010575f80fd5b5060405162000cd938038062000cd98339810160408190526200003391620001a8565b8282826003620000448382620002b8565b506004620000538282620002b8565b5050506001600160a01b0381166200008457604051631e4fbdf760e01b81525f600482015260240160405180910390fd5b6200008f8162000099565b5050505062000380565b600580546001600160a01b038381166001600160a01b0319831681179093556040519116919082907f8be0079c531659141344cd1fd0a4f28419497f9722a3daafe3b4186f6b6457e0905f90a35050565b634e487b7160e01b5f52604160045260245ffd5b5f82601f8301126200010e575f80fd5b81516001600160401b03808211156200012b576200012b620000ea565b604051601f8301601f19908116603f01168101908282118183101715620001565762000156620000ea565b8160405283815260209250868385880101111562000172575f80fd5b5f91505b8382101562000195578582018301518183018401529082019062000176565b5f93810190920192909252949350505050565b5f805f60608486031215620001bb575f80fd5b83516001600160a01b0381168114620001d2575f80fd5b60208501519093506001600160401b0380821115620001ef575f80fd5b620001fd87838801620000fe565b9350604086015191508082111562000213575f80fd5b506200022286828701620000fe565b9150509250925092565b600181811c908216806200024157607f821691505b6020821081036200026057634e487b7160e01b5f52602260045260245ffd5b50919050565b601f821115620002b3575f81815260208120601f850160051c810160208610156200028e5750805b601f850160051c820191505b81811015620002af578281556001016200029a565b5050505b505050565b81516001600160401b03811115620002d457620002d4620000ea565b620002ec81620002e584546200022c565b8462000266565b602080601f83116001811462000322575f84156200030a5750858301515b5f19600386901b1c1916600185901b178555620002af565b5f85815260208120601f198616915b82811015620003525788860151825594840194600190910190840162000331565b50858210156200037057878501515f19600388901b60f8161c191681555b5050505050600190811b01905550565b61094b806200038e5f395ff3fe608060405234801561000f575f80fd5b50600436106100f0575f3560e01c806370a082311161009357806395d89b411161006357806395d89b41146101ef578063a9059cbb146101f7578063dd62ed3e1461020a578063f2fde38b14610242575f80fd5b806370a0823114610191578063715018a6146101b957806379cc6790146101c15780638da5cb5b146101d4575f80fd5b806323b872dd116100ce57806323b872dd14610147578063313ce5671461015a57806340c10f191461016957806342966c681461017e575f80fd5b806306fdde03146100f4578063095ea7b31461011257806318160ddd14610135575b5f80fd5b6100fc610255565b604051610109919061078f565b60405180910390f35b6101256101203660046107f5565b6102e5565b6040519015158152602001610109565b6002545b604051908152602001610109565b61012561015536600461081d565b6102fe565b60405160128152602001610109565b61017c6101773660046107f5565b610321565b005b61017c61018c366004610856565b610337565b61013961019f36600461086d565b6001600160a01b03165f9081526020819052604090205490565b61017c610344565b61017c6101cf3660046107f5565b610357565b6005546040516001600160a01b039091168152602001610109565b6100fc61036c565b6101256102053660046107f5565b61037b565b61013961021836600461088d565b6001600160a01b039182165f90815260016020908152604080832093909416825291909152205490565b61017c61025036600461086d565b610388565b606060038054610264906108be565b80601f0160208091040260200160405190810160405280929190818152602001828054610290906108be565b80156102db5780601f106102b2576101008083540402835291602001916102db565b820191905f5260205f20905b8154815290600101906020018083116102be57829003601f168201915b5050505050905090565b5f336102f28185856103c7565b60019150505b92915050565b5f3361030b8582856103d9565b610316858585610454565b506001949350505050565b6103296104b1565b61033382826104de565b5050565b6103413382610512565b50565b61034c6104b1565b6103555f610546565b565b6103628233836103d9565b6103338282610512565b606060048054610264906108be565b5f336102f2818585610454565b6103906104b1565b6001600160a01b0381166103be57604051631e4fbdf760e01b81525f60048201526024015b60405180910390fd5b61034181610546565b6103d48383836001610597565b505050565b6001600160a01b038381165f908152600160209081526040808320938616835292905220545f19811461044e578181101561044057604051637dc7a0d960e11b81526001600160a01b038416600482015260248101829052604481018390526064016103b5565b61044e84848484035f610597565b50505050565b6001600160a01b03831661047d57604051634b637e8f60e11b81525f60048201526024016103b5565b6001600160a01b0382166104a65760405163ec442f0560e01b81525f60048201526024016103b5565b6103d4838383610669565b6005546001600160a01b031633146103555760405163118cdaa760e01b81523360048201526024016103b5565b6001600160a01b0382166105075760405163ec442f0560e01b81525f60048201526024016103b5565b6103335f8383610669565b6001600160a01b03821661053b57604051634b637e8f60e11b81525f60048201526024016103b5565b610333825f83610669565b600580546001600160a01b038381166001600160a01b0319831681179093556040519116919082907f8be0079c531659141344cd1fd0a4f28419497f9722a3daafe3b4186f6b6457e0905f90a35050565b6001600160a01b0384166105c05760405163e602df0560e01b81525f60048201526024016103b5565b6001600160a01b0383166105e957604051634a1406b160e11b81525f60048201526024016103b5565b6001600160a01b038085165f908152600160209081526040808320938716835292905220829055801561044e57826001600160a01b0316846001600160a01b03167f8c5be1e5ebec7d5bd14f71427d1e84f3dd0314c0f7b2291e5b200ac8c7c3b9258460405161065b91815260200190565b60405180910390a350505050565b6001600160a01b038316610693578060025f82825461068891906108f6565b909155506107039050565b6001600160a01b0383165f90815260208190526040902054818110156106e55760405163391434e360e21b81526001600160a01b038516600482015260248101829052604481018390526064016103b5565b6001600160a01b0384165f9081526020819052604090209082900390555b6001600160a01b03821661071f5760028054829003905561073d565b6001600160a01b0382165f9081526020819052604090208054820190555b816001600160a01b0316836001600160a01b03167fddf252ad1be2c89b69c2b068fc378daa952ba7f163c4a11628f55a4df523b3ef8360405161078291815260200190565b60405180910390a3505050565b5f6020808352835180828501525f5b818110156107ba5785810183015185820160400152820161079e565b505f604082860101526040601f19601f8301168501019250505092915050565b80356001600160a01b03811681146107f0575f80fd5b919050565b5f8060408385031215610806575f80fd5b61080f836107da565b946020939093013593505050565b5f805f6060848603121561082f575f80fd5b610838846107da565b9250610846602085016107da565b9150604084013590509250925092565b5f60208284031215610866575f80fd5b5035919050565b5f6020828403121561087d575f80fd5b610886826107da565b9392505050565b5f806040838503121561089e575f80fd5b6108a7836107da565b91506108b5602084016107da565b90509250929050565b600181811c908216806108d257607f821691505b6020821081036108f057634e487b7160e01b5f52602260045260245ffd5b50919050565b808201808211156102f857634e487b7160e01b5f52601160045260245ffdfea2646970667358221220d4345b66bfb7412d2ea509531419dca8158f537841ee0d9aa80e3d80c30a67d364736f6c63430008140033000000000000000000000000b7d030f7c6406446e703e73b3d1dd8611a2d87b6000000000000000000000000000000000000000000000000000000000000006000000000000000000000000000000000000000000000000000000000000000a0000000000000000000000000000000000000000000000000000000000000000a546574686572205553440000000000000000000000000000000000000000000000000000000000000000000000000000000000000000000000000000000000045553445400000000000000000000000000000000000000000000000000000000",
        "nonce": "0x4b",
        "chainId": "0x18230"
      },
      "additionalContracts": [],
      "isFixedGasLimit": false
    },
    {
      "hash": "0x9b7ce86c0d4cff7846f4ae9e367e73a066970876d6f1db820d2d44915d2b9478",
      "transactionType": "CALL",
      "contractName": null,
      "contractAddress": "0x9eae2bda2b82e1e70e759c1b1dce6306595d55e0",
      "function": "mint(address,uint256)",
      "arguments": [
        "0xB7d030F7c6406446e703E73B3d1dd8611A2D87b6",
        "10000000000000000000000"
      ],
      "transaction": {
        "from": "0xb7d030f7c6406446e703e73b3d1dd8611a2d87b6",
        "to": "0x9eae2bda2b82e1e70e759c1b1dce6306595d55e0",
        "gas": "0x17d4d",
        "value": "0x0",
        "input": "0x40c10f19000000000000000000000000b7d030f7c6406446e703e73b3d1dd8611a2d87b600000000000000000000000000000000000000000000021e19e0c9bab2400000",
        "nonce": "0x4c",
        "chainId": "0x18230"
      },
      "additionalContracts": [],
      "isFixedGasLimit": false
    },
    {
      "hash": "0x7205fdcf0b5afba1be28e80edb614e329d0e48721d41774f5c5e3c88c1b405e2",
      "transactionType": "CALL",
      "contractName": null,
      "contractAddress": "0x9eae2bda2b82e1e70e759c1b1dce6306595d55e0",
      "function": "mint(address,uint256)",
      "arguments": [
        "0x4F88F1014Dd6Ca0507780380111c098BeE6b87e6",
        "10000000000000000000000"
      ],
      "transaction": {
        "from": "0xb7d030f7c6406446e703e73b3d1dd8611a2d87b6",
        "to": "0x9eae2bda2b82e1e70e759c1b1dce6306595d55e0",
        "gas": "0x1320b",
        "value": "0x0",
        "input": "0x40c10f190000000000000000000000004f88f1014dd6ca0507780380111c098bee6b87e600000000000000000000000000000000000000000000021e19e0c9bab2400000",
        "nonce": "0x4d",
        "chainId": "0x18230"
      },
      "additionalContracts": [],
      "isFixedGasLimit": false
    },
    {
      "hash": "0xb4de9b26a3da245f789893f69baa8103bdfa377159d41928c583442d9ed82194",
      "transactionType": "CALL",
      "contractName": null,
      "contractAddress": "0x9eae2bda2b82e1e70e759c1b1dce6306595d55e0",
      "function": "mint(address,uint256)",
      "arguments": [
        "0xC31f6b8133d618aD2ff1AC5fAA3Fc4B20557B901",
        "10000000000000000000000"
      ],
      "transaction": {
        "from": "0xb7d030f7c6406446e703e73b3d1dd8611a2d87b6",
        "to": "0x9eae2bda2b82e1e70e759c1b1dce6306595d55e0",
        "gas": "0x1320b",
        "value": "0x0",
        "input": "0x40c10f19000000000000000000000000c31f6b8133d618ad2ff1ac5faa3fc4b20557b90100000000000000000000000000000000000000000000021e19e0c9bab2400000",
        "nonce": "0x4e",
        "chainId": "0x18230"
      },
      "additionalContracts": [],
      "isFixedGasLimit": false
    },
    {
      "hash": "0xc9184970f37f49d18f9794ac21a8091f739b2c78d942329d2bf7edca40122a31",
      "transactionType": "CALL",
      "contractName": null,
      "contractAddress": "0x9eae2bda2b82e1e70e759c1b1dce6306595d55e0",
      "function": "mint(address,uint256)",
      "arguments": [
        "0x66E675533020c3CDeE2F33E372320B7e2692211e",
        "10000000000000000000000"
      ],
      "transaction": {
        "from": "0xb7d030f7c6406446e703e73b3d1dd8611a2d87b6",
        "to": "0x9eae2bda2b82e1e70e759c1b1dce6306595d55e0",
        "gas": "0x1320b",
        "value": "0x0",
        "input": "0x40c10f1900000000000000000000000066e675533020c3cdee2f33e372320b7e2692211e00000000000000000000000000000000000000000000021e19e0c9bab2400000",
        "nonce": "0x4f",
        "chainId": "0x18230"
      },
      "additionalContracts": [],
      "isFixedGasLimit": false
    },
    {
      "hash": "0xd6364216b0cd444559409e6c0d22b39d3d5042ce82e00c32072ab95d437a8cd3",
      "transactionType": "CALL",
      "contractName": null,
      "contractAddress": "0x9eae2bda2b82e1e70e759c1b1dce6306595d55e0",
      "function": "mint(address,uint256)",
      "arguments": [
        "0x8c4Eb6988A199DAbcae0Ce31052b3f3aC591787e",
        "10000000000000000000000"
      ],
      "transaction": {
        "from": "0xb7d030f7c6406446e703e73b3d1dd8611a2d87b6",
        "to": "0x9eae2bda2b82e1e70e759c1b1dce6306595d55e0",
        "gas": "0x1320b",
        "value": "0x0",
        "input": "0x40c10f190000000000000000000000008c4eb6988a199dabcae0ce31052b3f3ac591787e00000000000000000000000000000000000000000000021e19e0c9bab2400000",
        "nonce": "0x50",
        "chainId": "0x18230"
      },
      "additionalContracts": [],
      "isFixedGasLimit": false
    },
    {
      "hash": "0x71f45a8b602af7e361c70d1bb2aad0245450acf325107870b0eaee6a888a0d62",
      "transactionType": "CREATE",
      "contractName": null,
      "contractAddress": "0x54a1c5d5d53a3d2c4c4aa849a3eafa36044e0163",
      "function": null,
      "arguments": null,
      "transaction": {
        "from": "0xb7d030f7c6406446e703e73b3d1dd8611a2d87b6",
        "gas": "0xcf1bb",
        "value": "0x0",
        "input": "0x608060405234801562000010575f80fd5b5060405162000cd938038062000cd98339810160408190526200003391620001a8565b8282826003620000448382620002b8565b506004620000538282620002b8565b5050506001600160a01b0381166200008457604051631e4fbdf760e01b81525f600482015260240160405180910390fd5b6200008f8162000099565b5050505062000380565b600580546001600160a01b038381166001600160a01b0319831681179093556040519116919082907f8be0079c531659141344cd1fd0a4f28419497f9722a3daafe3b4186f6b6457e0905f90a35050565b634e487b7160e01b5f52604160045260245ffd5b5f82601f8301126200010e575f80fd5b81516001600160401b03808211156200012b576200012b620000ea565b604051601f8301601f19908116603f01168101908282118183101715620001565762000156620000ea565b8160405283815260209250868385880101111562000172575f80fd5b5f91505b8382101562000195578582018301518183018401529082019062000176565b5f93810190920192909252949350505050565b5f805f60608486031215620001bb575f80fd5b83516001600160a01b0381168114620001d2575f80fd5b60208501519093506001600160401b0380821115620001ef575f80fd5b620001fd87838801620000fe565b9350604086015191508082111562000213575f80fd5b506200022286828701620000fe565b9150509250925092565b600181811c908216806200024157607f821691505b6020821081036200026057634e487b7160e01b5f52602260045260245ffd5b50919050565b601f821115620002b3575f81815260208120601f850160051c810160208610156200028e5750805b601f850160051c820191505b81811015620002af578281556001016200029a565b5050505b505050565b81516001600160401b03811115620002d457620002d4620000ea565b620002ec81620002e584546200022c565b8462000266565b602080601f83116001811462000322575f84156200030a5750858301515b5f19600386901b1c1916600185901b178555620002af565b5f85815260208120601f198616915b82811015620003525788860151825594840194600190910190840162000331565b50858210156200037057878501515f19600388901b60f8161c191681555b5050505050600190811b01905550565b61094b806200038e5f395ff3fe608060405234801561000f575f80fd5b50600436106100f0575f3560e01c806370a082311161009357806395d89b411161006357806395d89b41146101ef578063a9059cbb146101f7578063dd62ed3e1461020a578063f2fde38b14610242575f80fd5b806370a0823114610191578063715018a6146101b957806379cc6790146101c15780638da5cb5b146101d4575f80fd5b806323b872dd116100ce57806323b872dd14610147578063313ce5671461015a57806340c10f191461016957806342966c681461017e575f80fd5b806306fdde03146100f4578063095ea7b31461011257806318160ddd14610135575b5f80fd5b6100fc610255565b604051610109919061078f565b60405180910390f35b6101256101203660046107f5565b6102e5565b6040519015158152602001610109565b6002545b604051908152602001610109565b61012561015536600461081d565b6102fe565b60405160128152602001610109565b61017c6101773660046107f5565b610321565b005b61017c61018c366004610856565b610337565b61013961019f36600461086d565b6001600160a01b03165f9081526020819052604090205490565b61017c610344565b61017c6101cf3660046107f5565b610357565b6005546040516001600160a01b039091168152602001610109565b6100fc61036c565b6101256102053660046107f5565b61037b565b61013961021836600461088d565b6001600160a01b039182165f90815260016020908152604080832093909416825291909152205490565b61017c61025036600461086d565b610388565b606060038054610264906108be565b80601f0160208091040260200160405190810160405280929190818152602001828054610290906108be565b80156102db5780601f106102b2576101008083540402835291602001916102db565b820191905f5260205f20905b8154815290600101906020018083116102be57829003601f168201915b5050505050905090565b5f336102f28185856103c7565b60019150505b92915050565b5f3361030b8582856103d9565b610316858585610454565b506001949350505050565b6103296104b1565b61033382826104de565b5050565b6103413382610512565b50565b61034c6104b1565b6103555f610546565b565b6103628233836103d9565b6103338282610512565b606060048054610264906108be565b5f336102f2818585610454565b6103906104b1565b6001600160a01b0381166103be57604051631e4fbdf760e01b81525f60048201526024015b60405180910390fd5b61034181610546565b6103d48383836001610597565b505050565b6001600160a01b038381165f908152600160209081526040808320938616835292905220545f19811461044e578181101561044057604051637dc7a0d960e11b81526001600160a01b038416600482015260248101829052604481018390526064016103b5565b61044e84848484035f610597565b50505050565b6001600160a01b03831661047d57604051634b637e8f60e11b81525f60048201526024016103b5565b6001600160a01b0382166104a65760405163ec442f0560e01b81525f60048201526024016103b5565b6103d4838383610669565b6005546001600160a01b031633146103555760405163118cdaa760e01b81523360048201526024016103b5565b6001600160a01b0382166105075760405163ec442f0560e01b81525f60048201526024016103b5565b6103335f8383610669565b6001600160a01b03821661053b57604051634b637e8f60e11b81525f60048201526024016103b5565b610333825f83610669565b600580546001600160a01b038381166001600160a01b0319831681179093556040519116919082907f8be0079c531659141344cd1fd0a4f28419497f9722a3daafe3b4186f6b6457e0905f90a35050565b6001600160a01b0384166105c05760405163e602df0560e01b81525f60048201526024016103b5565b6001600160a01b0383166105e957604051634a1406b160e11b81525f60048201526024016103b5565b6001600160a01b038085165f908152600160209081526040808320938716835292905220829055801561044e57826001600160a01b0316846001600160a01b03167f8c5be1e5ebec7d5bd14f71427d1e84f3dd0314c0f7b2291e5b200ac8c7c3b9258460405161065b91815260200190565b60405180910390a350505050565b6001600160a01b038316610693578060025f82825461068891906108f6565b909155506107039050565b6001600160a01b0383165f90815260208190526040902054818110156106e55760405163391434e360e21b81526001600160a01b038516600482015260248101829052604481018390526064016103b5565b6001600160a01b0384165f9081526020819052604090209082900390555b6001600160a01b03821661071f5760028054829003905561073d565b6001600160a01b0382165f9081526020819052604090208054820190555b816001600160a01b0316836001600160a01b03167fddf252ad1be2c89b69c2b068fc378daa952ba7f163c4a11628f55a4df523b3ef8360405161078291815260200190565b60405180910390a3505050565b5f6020808352835180828501525f5b818110156107ba5785810183015185820160400152820161079e565b505f604082860101526040601f19601f8301168501019250505092915050565b80356001600160a01b03811681146107f0575f80fd5b919050565b5f8060408385031215610806575f80fd5b61080f836107da565b946020939093013593505050565b5f805f6060848603121561082f575f80fd5b610838846107da565b9250610846602085016107da565b9150604084013590509250925092565b5f60208284031215610866575f80fd5b5035919050565b5f6020828403121561087d575f80fd5b610886826107da565b9392505050565b5f806040838503121561089e575f80fd5b6108a7836107da565b91506108b5602084016107da565b90509250929050565b600181811c908216806108d257607f821691505b6020821081036108f057634e487b7160e01b5f52602260045260245ffd5b50919050565b808201808211156102f857634e487b7160e01b5f52601160045260245ffdfea2646970667358221220d4345b66bfb7412d2ea509531419dca8158f537841ee0d9aa80e3d80c30a67d364736f6c63430008140033000000000000000000000000b7d030f7c6406446e703e73b3d1dd8611a2d87b6000000000000000000000000000000000000000000000000000000000000006000000000000000000000000000000000000000000000000000000000000000a0000000000000000000000000000000000000000000000000000000000000000855534420436f696e00000000000000000000000000000000000000000000000000000000000000000000000000000000000000000000000000000000000000045553444300000000000000000000000000000000000000000000000000000000",
        "nonce": "0x51",
        "chainId": "0x18230"
      },
      "additionalContracts": [],
      "isFixedGasLimit": false
    },
    {
      "hash": "0x73addda37f4a3fe1a09471b237a45a9795cf9ed63c274534943a43596136b96d",
      "transactionType": "CALL",
      "contractName": null,
      "contractAddress": "0x54a1c5d5d53a3d2c4c4aa849a3eafa36044e0163",
      "function": "mint(address,uint256)",
      "arguments": [
        "0xB7d030F7c6406446e703E73B3d1dd8611A2D87b6",
        "10000000000000000000000"
      ],
      "transaction": {
        "from": "0xb7d030f7c6406446e703e73b3d1dd8611a2d87b6",
        "to": "0x54a1c5d5d53a3d2c4c4aa849a3eafa36044e0163",
        "gas": "0x17d4d",
        "value": "0x0",
        "input": "0x40c10f19000000000000000000000000b7d030f7c6406446e703e73b3d1dd8611a2d87b600000000000000000000000000000000000000000000021e19e0c9bab2400000",
        "nonce": "0x52",
        "chainId": "0x18230"
      },
      "additionalContracts": [],
      "isFixedGasLimit": false
    },
    {
      "hash": "0xe4d6f6f2eb5dc44381de8439cbbdf2be2ffa384980a2cfa0595615d181feffc0",
      "transactionType": "CALL",
      "contractName": null,
      "contractAddress": "0x54a1c5d5d53a3d2c4c4aa849a3eafa36044e0163",
      "function": "mint(address,uint256)",
      "arguments": [
        "0x4F88F1014Dd6Ca0507780380111c098BeE6b87e6",
        "10000000000000000000000"
      ],
      "transaction": {
        "from": "0xb7d030f7c6406446e703e73b3d1dd8611a2d87b6",
        "to": "0x54a1c5d5d53a3d2c4c4aa849a3eafa36044e0163",
        "gas": "0x1320b",
        "value": "0x0",
        "input": "0x40c10f190000000000000000000000004f88f1014dd6ca0507780380111c098bee6b87e600000000000000000000000000000000000000000000021e19e0c9bab2400000",
        "nonce": "0x53",
        "chainId": "0x18230"
      },
      "additionalContracts": [],
      "isFixedGasLimit": false
    },
    {
      "hash": "0x03b9e3fc397804f013abef750069b76a24e72f7a1db0fd35cecc159adce8dd46",
      "transactionType": "CALL",
      "contractName": null,
      "contractAddress": "0x54a1c5d5d53a3d2c4c4aa849a3eafa36044e0163",
      "function": "mint(address,uint256)",
      "arguments": [
        "0xC31f6b8133d618aD2ff1AC5fAA3Fc4B20557B901",
        "10000000000000000000000"
      ],
      "transaction": {
        "from": "0xb7d030f7c6406446e703e73b3d1dd8611a2d87b6",
        "to": "0x54a1c5d5d53a3d2c4c4aa849a3eafa36044e0163",
        "gas": "0x1320b",
        "value": "0x0",
        "input": "0x40c10f19000000000000000000000000c31f6b8133d618ad2ff1ac5faa3fc4b20557b90100000000000000000000000000000000000000000000021e19e0c9bab2400000",
        "nonce": "0x54",
        "chainId": "0x18230"
      },
      "additionalContracts": [],
      "isFixedGasLimit": false
    },
    {
      "hash": "0x1cf5b6ed372a7c540c1b604d74e870ac8f7abaee4d76c30dffd29c41c3fc1856",
      "transactionType": "CALL",
      "contractName": null,
      "contractAddress": "0x54a1c5d5d53a3d2c4c4aa849a3eafa36044e0163",
      "function": "mint(address,uint256)",
      "arguments": [
        "0x66E675533020c3CDeE2F33E372320B7e2692211e",
        "10000000000000000000000"
      ],
      "transaction": {
        "from": "0xb7d030f7c6406446e703e73b3d1dd8611a2d87b6",
        "to": "0x54a1c5d5d53a3d2c4c4aa849a3eafa36044e0163",
        "gas": "0x1320b",
        "value": "0x0",
        "input": "0x40c10f1900000000000000000000000066e675533020c3cdee2f33e372320b7e2692211e00000000000000000000000000000000000000000000021e19e0c9bab2400000",
        "nonce": "0x55",
        "chainId": "0x18230"
      },
      "additionalContracts": [],
      "isFixedGasLimit": false
    },
    {
      "hash": "0xfc4e6dae29a7e0015842447c61b257bfe81111c330e62ce5c74d5207c61062d3",
      "transactionType": "CALL",
      "contractName": null,
      "contractAddress": "0x54a1c5d5d53a3d2c4c4aa849a3eafa36044e0163",
      "function": "mint(address,uint256)",
      "arguments": [
        "0x8c4Eb6988A199DAbcae0Ce31052b3f3aC591787e",
        "10000000000000000000000"
      ],
      "transaction": {
        "from": "0xb7d030f7c6406446e703e73b3d1dd8611a2d87b6",
        "to": "0x54a1c5d5d53a3d2c4c4aa849a3eafa36044e0163",
        "gas": "0x1320b",
        "value": "0x0",
        "input": "0x40c10f190000000000000000000000008c4eb6988a199dabcae0ce31052b3f3ac591787e00000000000000000000000000000000000000000000021e19e0c9bab2400000",
        "nonce": "0x56",
        "chainId": "0x18230"
      },
      "additionalContracts": [],
      "isFixedGasLimit": false
    },
    {
      "hash": "0x07d2289872e49092eeaefa538cff92286aae3e0aaaf60bcf22518da5e7fb3e96",
      "transactionType": "CREATE",
      "contractName": null,
      "contractAddress": "0x43afc3e4c2e3be6dbdb3fc367026417c55120b4d",
      "function": null,
      "arguments": null,
      "transaction": {
        "from": "0xb7d030f7c6406446e703e73b3d1dd8611a2d87b6",
        "gas": "0xcf1e9",
        "value": "0x0",
        "input": "0x608060405234801562000010575f80fd5b5060405162000cd938038062000cd98339810160408190526200003391620001a8565b8282826003620000448382620002b8565b506004620000538282620002b8565b5050506001600160a01b0381166200008457604051631e4fbdf760e01b81525f600482015260240160405180910390fd5b6200008f8162000099565b5050505062000380565b600580546001600160a01b038381166001600160a01b0319831681179093556040519116919082907f8be0079c531659141344cd1fd0a4f28419497f9722a3daafe3b4186f6b6457e0905f90a35050565b634e487b7160e01b5f52604160045260245ffd5b5f82601f8301126200010e575f80fd5b81516001600160401b03808211156200012b576200012b620000ea565b604051601f8301601f19908116603f01168101908282118183101715620001565762000156620000ea565b8160405283815260209250868385880101111562000172575f80fd5b5f91505b8382101562000195578582018301518183018401529082019062000176565b5f93810190920192909252949350505050565b5f805f60608486031215620001bb575f80fd5b83516001600160a01b0381168114620001d2575f80fd5b60208501519093506001600160401b0380821115620001ef575f80fd5b620001fd87838801620000fe565b9350604086015191508082111562000213575f80fd5b506200022286828701620000fe565b9150509250925092565b600181811c908216806200024157607f821691505b6020821081036200026057634e487b7160e01b5f52602260045260245ffd5b50919050565b601f821115620002b3575f81815260208120601f850160051c810160208610156200028e5750805b601f850160051c820191505b81811015620002af578281556001016200029a565b5050505b505050565b81516001600160401b03811115620002d457620002d4620000ea565b620002ec81620002e584546200022c565b8462000266565b602080601f83116001811462000322575f84156200030a5750858301515b5f19600386901b1c1916600185901b178555620002af565b5f85815260208120601f198616915b82811015620003525788860151825594840194600190910190840162000331565b50858210156200037057878501515f19600388901b60f8161c191681555b5050505050600190811b01905550565b61094b806200038e5f395ff3fe608060405234801561000f575f80fd5b50600436106100f0575f3560e01c806370a082311161009357806395d89b411161006357806395d89b41146101ef578063a9059cbb146101f7578063dd62ed3e1461020a578063f2fde38b14610242575f80fd5b806370a0823114610191578063715018a6146101b957806379cc6790146101c15780638da5cb5b146101d4575f80fd5b806323b872dd116100ce57806323b872dd14610147578063313ce5671461015a57806340c10f191461016957806342966c681461017e575f80fd5b806306fdde03146100f4578063095ea7b31461011257806318160ddd14610135575b5f80fd5b6100fc610255565b604051610109919061078f565b60405180910390f35b6101256101203660046107f5565b6102e5565b6040519015158152602001610109565b6002545b604051908152602001610109565b61012561015536600461081d565b6102fe565b60405160128152602001610109565b61017c6101773660046107f5565b610321565b005b61017c61018c366004610856565b610337565b61013961019f36600461086d565b6001600160a01b03165f9081526020819052604090205490565b61017c610344565b61017c6101cf3660046107f5565b610357565b6005546040516001600160a01b039091168152602001610109565b6100fc61036c565b6101256102053660046107f5565b61037b565b61013961021836600461088d565b6001600160a01b039182165f90815260016020908152604080832093909416825291909152205490565b61017c61025036600461086d565b610388565b606060038054610264906108be565b80601f0160208091040260200160405190810160405280929190818152602001828054610290906108be565b80156102db5780601f106102b2576101008083540402835291602001916102db565b820191905f5260205f20905b8154815290600101906020018083116102be57829003601f168201915b5050505050905090565b5f336102f28185856103c7565b60019150505b92915050565b5f3361030b8582856103d9565b610316858585610454565b506001949350505050565b6103296104b1565b61033382826104de565b5050565b6103413382610512565b50565b61034c6104b1565b6103555f610546565b565b6103628233836103d9565b6103338282610512565b606060048054610264906108be565b5f336102f2818585610454565b6103906104b1565b6001600160a01b0381166103be57604051631e4fbdf760e01b81525f60048201526024015b60405180910390fd5b61034181610546565b6103d48383836001610597565b505050565b6001600160a01b038381165f908152600160209081526040808320938616835292905220545f19811461044e578181101561044057604051637dc7a0d960e11b81526001600160a01b038416600482015260248101829052604481018390526064016103b5565b61044e84848484035f610597565b50505050565b6001600160a01b03831661047d57604051634b637e8f60e11b81525f60048201526024016103b5565b6001600160a01b0382166104a65760405163ec442f0560e01b81525f60048201526024016103b5565b6103d4838383610669565b6005546001600160a01b031633146103555760405163118cdaa760e01b81523360048201526024016103b5565b6001600160a01b0382166105075760405163ec442f0560e01b81525f60048201526024016103b5565b6103335f8383610669565b6001600160a01b03821661053b57604051634b637e8f60e11b81525f60048201526024016103b5565b610333825f83610669565b600580546001600160a01b038381166001600160a01b0319831681179093556040519116919082907f8be0079c531659141344cd1fd0a4f28419497f9722a3daafe3b4186f6b6457e0905f90a35050565b6001600160a01b0384166105c05760405163e602df0560e01b81525f60048201526024016103b5565b6001600160a01b0383166105e957604051634a1406b160e11b81525f60048201526024016103b5565b6001600160a01b038085165f908152600160209081526040808320938716835292905220829055801561044e57826001600160a01b0316846001600160a01b03167f8c5be1e5ebec7d5bd14f71427d1e84f3dd0314c0f7b2291e5b200ac8c7c3b9258460405161065b91815260200190565b60405180910390a350505050565b6001600160a01b038316610693578060025f82825461068891906108f6565b909155506107039050565b6001600160a01b0383165f90815260208190526040902054818110156106e55760405163391434e360e21b81526001600160a01b038516600482015260248101829052604481018390526064016103b5565b6001600160a01b0384165f9081526020819052604090209082900390555b6001600160a01b03821661071f5760028054829003905561073d565b6001600160a01b0382165f9081526020819052604090208054820190555b816001600160a01b0316836001600160a01b03167fddf252ad1be2c89b69c2b068fc378daa952ba7f163c4a11628f55a4df523b3ef8360405161078291815260200190565b60405180910390a3505050565b5f6020808352835180828501525f5b818110156107ba5785810183015185820160400152820161079e565b505f604082860101526040601f19601f8301168501019250505092915050565b80356001600160a01b03811681146107f0575f80fd5b919050565b5f8060408385031215610806575f80fd5b61080f836107da565b946020939093013593505050565b5f805f6060848603121561082f575f80fd5b610838846107da565b9250610846602085016107da565b9150604084013590509250925092565b5f60208284031215610866575f80fd5b5035919050565b5f6020828403121561087d575f80fd5b610886826107da565b9392505050565b5f806040838503121561089e575f80fd5b6108a7836107da565b91506108b5602084016107da565b90509250929050565b600181811c908216806108d257607f821691505b6020821081036108f057634e487b7160e01b5f52602260045260245ffd5b50919050565b808201808211156102f857634e487b7160e01b5f52601160045260245ffdfea2646970667358221220d4345b66bfb7412d2ea509531419dca8158f537841ee0d9aa80e3d80c30a67d364736f6c63430008140033000000000000000000000000b7d030f7c6406446e703e73b3d1dd8611a2d87b6000000000000000000000000000000000000000000000000000000000000006000000000000000000000000000000000000000000000000000000000000000a0000000000000000000000000000000000000000000000000000000000000000b577261707065642042544300000000000000000000000000000000000000000000000000000000000000000000000000000000000000000000000000000000045742544300000000000000000000000000000000000000000000000000000000",
        "nonce": "0x57",
        "chainId": "0x18230"
      },
      "additionalContracts": [],
      "isFixedGasLimit": false
    },
    {
      "hash": "0x05b67d58de3bfb5a7283ee71b0dd4c5bda374563363159d8eb20080cb1113a4e",
      "transactionType": "CALL",
      "contractName": null,
      "contractAddress": "0x43afc3e4c2e3be6dbdb3fc367026417c55120b4d",
      "function": "mint(address,uint256)",
      "arguments": [
        "0xB7d030F7c6406446e703E73B3d1dd8611A2D87b6",
        "10000000000000000000"
      ],
      "transaction": {
        "from": "0xb7d030f7c6406446e703e73b3d1dd8611a2d87b6",
        "to": "0x43afc3e4c2e3be6dbdb3fc367026417c55120b4d",
        "gas": "0x17d2c",
        "value": "0x0",
        "input": "0x40c10f19000000000000000000000000b7d030f7c6406446e703e73b3d1dd8611a2d87b60000000000000000000000000000000000000000000000008ac7230489e80000",
        "nonce": "0x58",
        "chainId": "0x18230"
      },
      "additionalContracts": [],
      "isFixedGasLimit": false
    },
    {
      "hash": "0x53ed6f1ac06e96cacba118cfd262ff49c4023341159d6888bf38d4ed19e7c12e",
      "transactionType": "CALL",
      "contractName": null,
      "contractAddress": "0x43afc3e4c2e3be6dbdb3fc367026417c55120b4d",
      "function": "mint(address,uint256)",
      "arguments": [
        "0x4F88F1014Dd6Ca0507780380111c098BeE6b87e6",
        "10000000000000000000"
      ],
      "transaction": {
        "from": "0xb7d030f7c6406446e703e73b3d1dd8611a2d87b6",
        "to": "0x43afc3e4c2e3be6dbdb3fc367026417c55120b4d",
        "gas": "0x131e8",
        "value": "0x0",
        "input": "0x40c10f190000000000000000000000004f88f1014dd6ca0507780380111c098bee6b87e60000000000000000000000000000000000000000000000008ac7230489e80000",
        "nonce": "0x59",
        "chainId": "0x18230"
      },
      "additionalContracts": [],
      "isFixedGasLimit": false
    },
    {
      "hash": "0x5f6175122c507a667d126108b8fc13aa4b9ba298737f1e8a2a898aed36f83357",
      "transactionType": "CALL",
      "contractName": null,
      "contractAddress": "0x43afc3e4c2e3be6dbdb3fc367026417c55120b4d",
      "function": "mint(address,uint256)",
      "arguments": [
        "0xC31f6b8133d618aD2ff1AC5fAA3Fc4B20557B901",
        "10000000000000000000"
      ],
      "transaction": {
        "from": "0xb7d030f7c6406446e703e73b3d1dd8611a2d87b6",
        "to": "0x43afc3e4c2e3be6dbdb3fc367026417c55120b4d",
        "gas": "0x131e8",
        "value": "0x0",
        "input": "0x40c10f19000000000000000000000000c31f6b8133d618ad2ff1ac5faa3fc4b20557b9010000000000000000000000000000000000000000000000008ac7230489e80000",
        "nonce": "0x5a",
        "chainId": "0x18230"
      },
      "additionalContracts": [],
      "isFixedGasLimit": false
    },
    {
      "hash": "0xd94cdb3efca97a2c28e077da9d3b84d4c2673435c63f5eb56a95a42c5d968164",
      "transactionType": "CALL",
      "contractName": null,
      "contractAddress": "0x43afc3e4c2e3be6dbdb3fc367026417c55120b4d",
      "function": "mint(address,uint256)",
      "arguments": [
        "0x66E675533020c3CDeE2F33E372320B7e2692211e",
        "10000000000000000000"
      ],
      "transaction": {
        "from": "0xb7d030f7c6406446e703e73b3d1dd8611a2d87b6",
        "to": "0x43afc3e4c2e3be6dbdb3fc367026417c55120b4d",
        "gas": "0x131e8",
        "value": "0x0",
        "input": "0x40c10f1900000000000000000000000066e675533020c3cdee2f33e372320b7e2692211e0000000000000000000000000000000000000000000000008ac7230489e80000",
        "nonce": "0x5b",
        "chainId": "0x18230"
      },
      "additionalContracts": [],
      "isFixedGasLimit": false
    },
    {
      "hash": "0x5bd169e769208988904648e2cbd660c3cafd745e6fbd86b0357ac4d90d38943d",
      "transactionType": "CALL",
      "contractName": null,
      "contractAddress": "0x43afc3e4c2e3be6dbdb3fc367026417c55120b4d",
      "function": "mint(address,uint256)",
      "arguments": [
        "0x8c4Eb6988A199DAbcae0Ce31052b3f3aC591787e",
        "10000000000000000000"
      ],
      "transaction": {
        "from": "0xb7d030f7c6406446e703e73b3d1dd8611a2d87b6",
        "to": "0x43afc3e4c2e3be6dbdb3fc367026417c55120b4d",
        "gas": "0x131e8",
        "value": "0x0",
        "input": "0x40c10f190000000000000000000000008c4eb6988a199dabcae0ce31052b3f3ac591787e0000000000000000000000000000000000000000000000008ac7230489e80000",
        "nonce": "0x5c",
        "chainId": "0x18230"
      },
      "additionalContracts": [],
      "isFixedGasLimit": false
    },
    {
      "hash": "0xa954c69017d48fdc135d22d0fea3d31ed39a109fff288c1dd53ee1f585aa2c94",
      "transactionType": "CALL",
      "contractName": null,
      "contractAddress": "0xbae2a0d6a65e9ea0ddb4b00ebe4c89a0e1fe02f0",
      "function": "setAddresses(string[],address[])",
      "arguments": [
        "[\"TOKEN_USDT\", \"TOKEN_USDC\", \"TOKEN_WBTC\"]",
        "[0x9eaE2bDA2b82e1e70e759c1B1dce6306595D55E0, 0x54a1c5d5D53a3D2c4C4AA849A3EAfA36044E0163, 0x43AFC3E4c2E3bE6dbDB3Fc367026417c55120B4d]"
      ],
      "transaction": {
        "from": "0xb7d030f7c6406446e703e73b3d1dd8611a2d87b6",
        "to": "0xbae2a0d6a65e9ea0ddb4b00ebe4c89a0e1fe02f0",
        "gas": "0x24f68",
        "value": "0x0",
        "input": "0x7d69a892000000000000000000000000000000000000000000000000000000000000004000000000000000000000000000000000000000000000000000000000000001800000000000000000000000000000000000000000000000000000000000000003000000000000000000000000000000000000000000000000000000000000006000000000000000000000000000000000000000000000000000000000000000a000000000000000000000000000000000000000000000000000000000000000e0000000000000000000000000000000000000000000000000000000000000000a544f4b454e5f5553445400000000000000000000000000000000000000000000000000000000000000000000000000000000000000000000000000000000000a544f4b454e5f5553444300000000000000000000000000000000000000000000000000000000000000000000000000000000000000000000000000000000000a544f4b454e5f574254430000000000000000000000000000000000000000000000000000000000000000000000000000000000000000000000000000000000030000000000000000000000009eae2bda2b82e1e70e759c1b1dce6306595d55e000000000000000000000000054a1c5d5d53a3d2c4c4aa849a3eafa36044e016300000000000000000000000043afc3e4c2e3be6dbdb3fc367026417c55120b4d",
        "nonce": "0x5d",
        "chainId": "0x18230"
      },
      "additionalContracts": [],
      "isFixedGasLimit": false
    }
  ],
  "receipts": [
    {
      "status": "0x1",
      "cumulativeGasUsed": "0x9f51e",
      "logs": [
        {
          "address": "0x9eae2bda2b82e1e70e759c1b1dce6306595d55e0",
          "topics": [
            "0x8be0079c531659141344cd1fd0a4f28419497f9722a3daafe3b4186f6b6457e0",
            "0x0000000000000000000000000000000000000000000000000000000000000000",
            "0x000000000000000000000000b7d030f7c6406446e703e73b3d1dd8611a2d87b6"
          ],
          "data": "0x",
          "blockHash": "0xcf1a191191d18737ccaeef3b345fc3cb4e56920ab436267618eeafb3aaea7fd9",
          "blockNumber": "0xb6b35",
          "transactionHash": "0xb62abdb2e78dcb0d8b41263943787963fcf22a332b45250c91eb89cd89679651",
          "transactionIndex": "0x1",
          "logIndex": "0x0",
          "removed": false
        }
      ],
      "logsBloom": "0x00000000000000000000000000000000000000000000000000800000000000000000000000000000000000000000000000000000000000000000000000000000000000000000000000000000000000000001000000400000000000000000000000000000020000000000000000000800000000000000000200000000000000400000000000000000000000000000000000000000000000000000000000000020000000000000000000000000000000000000000000000000000000000020000000000000000000000000000000000000000000000000000000000000000020000000000000040000000000000000000000000000000000000000000000000000",
      "type": "0x2",
      "transactionHash": "0xb62abdb2e78dcb0d8b41263943787963fcf22a332b45250c91eb89cd89679651",
      "transactionIndex": "0x1",
      "blockHash": "0xcf1a191191d18737ccaeef3b345fc3cb4e56920ab436267618eeafb3aaea7fd9",
      "blockNumber": "0xb6b35",
      "gasUsed": "0x9f51e",
      "effectiveGasPrice": "0x989680",
      "from": "0xb7d030f7c6406446e703e73b3d1dd8611a2d87b6",
      "to": null,
      "contractAddress": "0x9eae2bda2b82e1e70e759c1b1dce6306595d55e0",
      "gasUsedForL1": "0x0",
      "l1BlockNumber": "0x6a3ca6"
    },
    {
      "status": "0x1",
      "cumulativeGasUsed": "0x1140f",
      "logs": [
        {
          "address": "0x9eae2bda2b82e1e70e759c1b1dce6306595d55e0",
          "topics": [
            "0xddf252ad1be2c89b69c2b068fc378daa952ba7f163c4a11628f55a4df523b3ef",
            "0x0000000000000000000000000000000000000000000000000000000000000000",
            "0x000000000000000000000000b7d030f7c6406446e703e73b3d1dd8611a2d87b6"
          ],
          "data": "0x00000000000000000000000000000000000000000000021e19e0c9bab2400000",
          "blockHash": "0xf0bd45f31c169adba477601c0a3c77143ef83bdd50a87f31a57b8a3ee80a8456",
          "blockNumber": "0xb6b37",
          "transactionHash": "0x9b7ce86c0d4cff7846f4ae9e367e73a066970876d6f1db820d2d44915d2b9478",
          "transactionIndex": "0x1",
          "logIndex": "0x0",
          "removed": false
        }
      ],
      "logsBloom": "0x00000000000000000000000000000000000000000000000000000000000000000000000000000000000000000000000000000000000000000000000000000000000000000000000000000008000000000000000000400000000000000000000000000000020000000000000000000800000000000000000200000010000000400000000000000000000000000000000000000000000000000000000000000020000000000000000000000000000000000000000000000000000000000020000000000002000000000000000000000000000000000000000000000000000020000000000000040000000000000000000000000000000000000000000000000000",
      "type": "0x2",
      "transactionHash": "0x9b7ce86c0d4cff7846f4ae9e367e73a066970876d6f1db820d2d44915d2b9478",
      "transactionIndex": "0x1",
      "blockHash": "0xf0bd45f31c169adba477601c0a3c77143ef83bdd50a87f31a57b8a3ee80a8456",
      "blockNumber": "0xb6b37",
      "gasUsed": "0x1140f",
      "effectiveGasPrice": "0x989680",
      "from": "0xb7d030f7c6406446e703e73b3d1dd8611a2d87b6",
      "to": "0x9eae2bda2b82e1e70e759c1b1dce6306595d55e0",
      "contractAddress": null,
      "gasUsedForL1": "0x0",
      "l1BlockNumber": "0x6a3ca6"
    },
    {
      "status": "0x1",
      "cumulativeGasUsed": "0x1e552",
      "logs": [
        {
          "address": "0x9eae2bda2b82e1e70e759c1b1dce6306595d55e0",
          "topics": [
            "0xddf252ad1be2c89b69c2b068fc378daa952ba7f163c4a11628f55a4df523b3ef",
            "0x0000000000000000000000000000000000000000000000000000000000000000",
            "0x0000000000000000000000004f88f1014dd6ca0507780380111c098bee6b87e6"
          ],
          "data": "0x00000000000000000000000000000000000000000000021e19e0c9bab2400000",
          "blockHash": "0xf0bd45f31c169adba477601c0a3c77143ef83bdd50a87f31a57b8a3ee80a8456",
          "blockNumber": "0xb6b37",
          "transactionHash": "0x7205fdcf0b5afba1be28e80edb614e329d0e48721d41774f5c5e3c88c1b405e2",
          "transactionIndex": "0x2",
          "logIndex": "0x1",
          "removed": false
        }
      ],
      "logsBloom": "0x00000000000000000000000002000000000000000000000000000000000000000000000000000000000000000000000000000000000000000000000000000000000000000000000000000008000000000000000000000000000000000000000000000000020000000000000000000800000000000000000000000010000000400000000000000000000000000000000000000000000000000000000000000000000000000000000000000000000000000000000004000000000000000020000000000002000000000000000000000000000000000000000000000000000020000000000000040000000000000000000000000000008000000000000000000000",
      "type": "0x2",
      "transactionHash": "0x7205fdcf0b5afba1be28e80edb614e329d0e48721d41774f5c5e3c88c1b405e2",
      "transactionIndex": "0x2",
      "blockHash": "0xf0bd45f31c169adba477601c0a3c77143ef83bdd50a87f31a57b8a3ee80a8456",
      "blockNumber": "0xb6b37",
      "gasUsed": "0xd143",
      "effectiveGasPrice": "0x989680",
      "from": "0xb7d030f7c6406446e703e73b3d1dd8611a2d87b6",
      "to": "0x9eae2bda2b82e1e70e759c1b1dce6306595d55e0",
      "contractAddress": null,
      "gasUsedForL1": "0x0",
      "l1BlockNumber": "0x6a3ca6"
    },
    {
      "status": "0x1",
      "cumulativeGasUsed": "0x2b695",
      "logs": [
        {
          "address": "0x9eae2bda2b82e1e70e759c1b1dce6306595d55e0",
          "topics": [
            "0xddf252ad1be2c89b69c2b068fc378daa952ba7f163c4a11628f55a4df523b3ef",
            "0x0000000000000000000000000000000000000000000000000000000000000000",
            "0x000000000000000000000000c31f6b8133d618ad2ff1ac5faa3fc4b20557b901"
          ],
          "data": "0x00000000000000000000000000000000000000000000021e19e0c9bab2400000",
          "blockHash": "0xf0bd45f31c169adba477601c0a3c77143ef83bdd50a87f31a57b8a3ee80a8456",
          "blockNumber": "0xb6b37",
          "transactionHash": "0xb4de9b26a3da245f789893f69baa8103bdfa377159d41928c583442d9ed82194",
          "transactionIndex": "0x3",
          "logIndex": "0x2",
          "removed": false
        }
      ],
      "logsBloom": "0x00000000000000000000000000000000000000000000000000000000000000000000000000000000000000000000000000000000000000000000000000000000000000000000000000000008000000000000000000000000000000000000000000000000020000000000000000000800000000000000000000000010400000400000000000000000000000000000000000000002000000000000000000000000000000000000000000000000000000000000000000000000080000000020000000000002000000000000000000000000000000000000000000000000000020000000000000040000000000000000000000000000000000000000000000000000",
      "type": "0x2",
      "transactionHash": "0xb4de9b26a3da245f789893f69baa8103bdfa377159d41928c583442d9ed82194",
      "transactionIndex": "0x3",
      "blockHash": "0xf0bd45f31c169adba477601c0a3c77143ef83bdd50a87f31a57b8a3ee80a8456",
      "blockNumber": "0xb6b37",
      "gasUsed": "0xd143",
      "effectiveGasPrice": "0x989680",
      "from": "0xb7d030f7c6406446e703e73b3d1dd8611a2d87b6",
      "to": "0x9eae2bda2b82e1e70e759c1b1dce6306595d55e0",
      "contractAddress": null,
      "gasUsedForL1": "0x0",
      "l1BlockNumber": "0x6a3ca6"
    },
    {
      "status": "0x1",
      "cumulativeGasUsed": "0x387d8",
      "logs": [
        {
          "address": "0x9eae2bda2b82e1e70e759c1b1dce6306595d55e0",
          "topics": [
            "0xddf252ad1be2c89b69c2b068fc378daa952ba7f163c4a11628f55a4df523b3ef",
            "0x0000000000000000000000000000000000000000000000000000000000000000",
            "0x00000000000000000000000066e675533020c3cdee2f33e372320b7e2692211e"
          ],
          "data": "0x00000000000000000000000000000000000000000000021e19e0c9bab2400000",
          "blockHash": "0xf0bd45f31c169adba477601c0a3c77143ef83bdd50a87f31a57b8a3ee80a8456",
          "blockNumber": "0xb6b37",
          "transactionHash": "0xc9184970f37f49d18f9794ac21a8091f739b2c78d942329d2bf7edca40122a31",
          "transactionIndex": "0x4",
          "logIndex": "0x3",
          "removed": false
        }
      ],
      "logsBloom": "0x00000000000000000000000000000000000000000000000000000000001000000000000000000000000000000000000000000000000000000000000000000000000000000000000000000008000008000000000000000000000000000000000000000000020000000000000000000800000000000000000000000010000000400000000000000000000000000000000000000000002000000000000000000000000000000000000000000000000000000000000000000000000000000020000000000002000000000000000000000000000000000000000000000000000020000000000000040000000000000000000000000000000000000000000000000000",
      "type": "0x2",
      "transactionHash": "0xc9184970f37f49d18f9794ac21a8091f739b2c78d942329d2bf7edca40122a31",
      "transactionIndex": "0x4",
      "blockHash": "0xf0bd45f31c169adba477601c0a3c77143ef83bdd50a87f31a57b8a3ee80a8456",
      "blockNumber": "0xb6b37",
      "gasUsed": "0xd143",
      "effectiveGasPrice": "0x989680",
      "from": "0xb7d030f7c6406446e703e73b3d1dd8611a2d87b6",
      "to": "0x9eae2bda2b82e1e70e759c1b1dce6306595d55e0",
      "contractAddress": null,
      "gasUsedForL1": "0x0",
      "l1BlockNumber": "0x6a3ca6"
    },
    {
      "status": "0x1",
      "cumulativeGasUsed": "0x4591b",
      "logs": [
        {
          "address": "0x9eae2bda2b82e1e70e759c1b1dce6306595d55e0",
          "topics": [
            "0xddf252ad1be2c89b69c2b068fc378daa952ba7f163c4a11628f55a4df523b3ef",
            "0x0000000000000000000000000000000000000000000000000000000000000000",
            "0x0000000000000000000000008c4eb6988a199dabcae0ce31052b3f3ac591787e"
          ],
          "data": "0x00000000000000000000000000000000000000000000021e19e0c9bab2400000",
          "blockHash": "0xf0bd45f31c169adba477601c0a3c77143ef83bdd50a87f31a57b8a3ee80a8456",
          "blockNumber": "0xb6b37",
          "transactionHash": "0xd6364216b0cd444559409e6c0d22b39d3d5042ce82e00c32072ab95d437a8cd3",
          "transactionIndex": "0x5",
          "logIndex": "0x4",
          "removed": false
        }
      ],
      "logsBloom": "0x00000000000000000000000000000000000000000000000000000000000000000000000000000000000000000000000000000000000040000000000000000000000000000000000000000008000000000000000000000000000000000000000000000000020000000000000000000800000000000000000000000010000000400000000100000000000000000000000000000000000000000000000000000000000000000000000000000000000001000000000000000000000000000020000000000002000000000000000000000000000000000000000000000000000020000000000000040000000000000000000000000000000000000000000000000000",
      "type": "0x2",
      "transactionHash": "0xd6364216b0cd444559409e6c0d22b39d3d5042ce82e00c32072ab95d437a8cd3",
      "transactionIndex": "0x5",
      "blockHash": "0xf0bd45f31c169adba477601c0a3c77143ef83bdd50a87f31a57b8a3ee80a8456",
      "blockNumber": "0xb6b37",
      "gasUsed": "0xd143",
      "effectiveGasPrice": "0x989680",
      "from": "0xb7d030f7c6406446e703e73b3d1dd8611a2d87b6",
      "to": "0x9eae2bda2b82e1e70e759c1b1dce6306595d55e0",
      "contractAddress": null,
      "gasUsedForL1": "0x0",
      "l1BlockNumber": "0x6a3ca6"
    },
    {
      "status": "0x1",
      "cumulativeGasUsed": "0xe4e21",
      "logs": [
        {
          "address": "0x54a1c5d5d53a3d2c4c4aa849a3eafa36044e0163",
          "topics": [
            "0x8be0079c531659141344cd1fd0a4f28419497f9722a3daafe3b4186f6b6457e0",
            "0x0000000000000000000000000000000000000000000000000000000000000000",
            "0x000000000000000000000000b7d030f7c6406446e703e73b3d1dd8611a2d87b6"
          ],
          "data": "0x",
          "blockHash": "0xf0bd45f31c169adba477601c0a3c77143ef83bdd50a87f31a57b8a3ee80a8456",
          "blockNumber": "0xb6b37",
          "transactionHash": "0x71f45a8b602af7e361c70d1bb2aad0245450acf325107870b0eaee6a888a0d62",
          "transactionIndex": "0x6",
          "logIndex": "0x5",
          "removed": false
        }
      ],
      "logsBloom": "0x00000000000000000000000000000000000000000000000000800000000000000000000000000000000000040000000000000000000000000000000000000000000000000000000000000000000000000001000000400000000000000000000000000000020000000000000000000800000000000000000200000000000000400000000000000000000000000000000000000000000000000000000000000020000000000000000000000000000000000000000000000000000000000008000000000000000000000000000000000000000000000000000000000000000020000000000000000000000000000000000000000000000000000000040000000000",
      "type": "0x2",
      "transactionHash": "0x71f45a8b602af7e361c70d1bb2aad0245450acf325107870b0eaee6a888a0d62",
      "transactionIndex": "0x6",
      "blockHash": "0xf0bd45f31c169adba477601c0a3c77143ef83bdd50a87f31a57b8a3ee80a8456",
      "blockNumber": "0xb6b37",
      "gasUsed": "0x9f506",
      "effectiveGasPrice": "0x989680",
      "from": "0xb7d030f7c6406446e703e73b3d1dd8611a2d87b6",
      "to": null,
      "contractAddress": "0x54a1c5d5d53a3d2c4c4aa849a3eafa36044e0163",
      "gasUsedForL1": "0x0",
      "l1BlockNumber": "0x6a3ca6"
    },
    {
      "status": "0x1",
      "cumulativeGasUsed": "0xf6230",
      "logs": [
        {
          "address": "0x54a1c5d5d53a3d2c4c4aa849a3eafa36044e0163",
          "topics": [
            "0xddf252ad1be2c89b69c2b068fc378daa952ba7f163c4a11628f55a4df523b3ef",
            "0x0000000000000000000000000000000000000000000000000000000000000000",
            "0x000000000000000000000000b7d030f7c6406446e703e73b3d1dd8611a2d87b6"
          ],
          "data": "0x00000000000000000000000000000000000000000000021e19e0c9bab2400000",
          "blockHash": "0xf0bd45f31c169adba477601c0a3c77143ef83bdd50a87f31a57b8a3ee80a8456",
          "blockNumber": "0xb6b37",
          "transactionHash": "0x73addda37f4a3fe1a09471b237a45a9795cf9ed63c274534943a43596136b96d",
          "transactionIndex": "0x7",
          "logIndex": "0x6",
          "removed": false
        }
      ],
      "logsBloom": "0x00000000000000000000000000000000000000000000000000000000000000000000000000000000000000040000000000000000000000000000000000000000000000000000000000000008000000000000000000400000000000000000000000000000020000000000000000000800000000000000000200000010000000000000000000000000000000000000000000000000000000000000000000000020000000000000000000000000000000000000000000000000000000000008000000000002000000000000000000000000000000000000000000000000000020000000000000000000000000000000000000000000000000000000040000000000",
      "type": "0x2",
      "transactionHash": "0x73addda37f4a3fe1a09471b237a45a9795cf9ed63c274534943a43596136b96d",
      "transactionIndex": "0x7",
      "blockHash": "0xf0bd45f31c169adba477601c0a3c77143ef83bdd50a87f31a57b8a3ee80a8456",
      "blockNumber": "0xb6b37",
      "gasUsed": "0x1140f",
      "effectiveGasPrice": "0x989680",
      "from": "0xb7d030f7c6406446e703e73b3d1dd8611a2d87b6",
      "to": "0x54a1c5d5d53a3d2c4c4aa849a3eafa36044e0163",
      "contractAddress": null,
      "gasUsedForL1": "0x0",
      "l1BlockNumber": "0x6a3ca6"
    },
    {
      "status": "0x1",
      "cumulativeGasUsed": "0xd143",
      "logs": [
        {
          "address": "0x54a1c5d5d53a3d2c4c4aa849a3eafa36044e0163",
          "topics": [
            "0xddf252ad1be2c89b69c2b068fc378daa952ba7f163c4a11628f55a4df523b3ef",
            "0x0000000000000000000000000000000000000000000000000000000000000000",
            "0x0000000000000000000000004f88f1014dd6ca0507780380111c098bee6b87e6"
          ],
          "data": "0x00000000000000000000000000000000000000000000021e19e0c9bab2400000",
          "blockHash": "0x46348bea5a7703a0177381131cd70cb503fb12afff5467118cc573df6b9c62e9",
          "blockNumber": "0xb6b38",
          "transactionHash": "0xe4d6f6f2eb5dc44381de8439cbbdf2be2ffa384980a2cfa0595615d181feffc0",
          "transactionIndex": "0x1",
          "logIndex": "0x0",
          "removed": false
        }
      ],
      "logsBloom": "0x00000000000000000000000002000000000000000000000000000000000000000000000000000000000000040000000000000000000000000000000000000000000000000000000000000008000000000000000000000000000000000000000000000000020000000000000000000800000000000000000000000010000000000000000000000000000000000000000000000000000000000000000000000000000000000000000000000000000000000000000004000000000000000008000000000002000000000000000000000000000000000000000000000000000020000000000000000000000000000000000000000000008000000000040000000000",
      "type": "0x2",
      "transactionHash": "0xe4d6f6f2eb5dc44381de8439cbbdf2be2ffa384980a2cfa0595615d181feffc0",
      "transactionIndex": "0x1",
      "blockHash": "0x46348bea5a7703a0177381131cd70cb503fb12afff5467118cc573df6b9c62e9",
      "blockNumber": "0xb6b38",
      "gasUsed": "0xd143",
      "effectiveGasPrice": "0x989680",
      "from": "0xb7d030f7c6406446e703e73b3d1dd8611a2d87b6",
      "to": "0x54a1c5d5d53a3d2c4c4aa849a3eafa36044e0163",
      "contractAddress": null,
      "gasUsedForL1": "0x0",
      "l1BlockNumber": "0x6a3ca6"
    },
    {
      "status": "0x1",
      "cumulativeGasUsed": "0x1a286",
      "logs": [
        {
          "address": "0x54a1c5d5d53a3d2c4c4aa849a3eafa36044e0163",
          "topics": [
            "0xddf252ad1be2c89b69c2b068fc378daa952ba7f163c4a11628f55a4df523b3ef",
            "0x0000000000000000000000000000000000000000000000000000000000000000",
            "0x000000000000000000000000c31f6b8133d618ad2ff1ac5faa3fc4b20557b901"
          ],
          "data": "0x00000000000000000000000000000000000000000000021e19e0c9bab2400000",
          "blockHash": "0x46348bea5a7703a0177381131cd70cb503fb12afff5467118cc573df6b9c62e9",
          "blockNumber": "0xb6b38",
          "transactionHash": "0x03b9e3fc397804f013abef750069b76a24e72f7a1db0fd35cecc159adce8dd46",
          "transactionIndex": "0x2",
          "logIndex": "0x1",
          "removed": false
        }
      ],
      "logsBloom": "0x00000000000000000000000000000000000000000000000000000000000000000000000000000000000000040000000000000000000000000000000000000000000000000000000000000008000000000000000000000000000000000000000000000000020000000000000000000800000000000000000000000010400000000000000000000000000000000000000000000002000000000000000000000000000000000000000000000000000000000000000000000000080000000008000000000002000000000000000000000000000000000000000000000000000020000000000000000000000000000000000000000000000000000000040000000000",
      "type": "0x2",
      "transactionHash": "0x03b9e3fc397804f013abef750069b76a24e72f7a1db0fd35cecc159adce8dd46",
      "transactionIndex": "0x2",
      "blockHash": "0x46348bea5a7703a0177381131cd70cb503fb12afff5467118cc573df6b9c62e9",
      "blockNumber": "0xb6b38",
      "gasUsed": "0xd143",
      "effectiveGasPrice": "0x989680",
      "from": "0xb7d030f7c6406446e703e73b3d1dd8611a2d87b6",
      "to": "0x54a1c5d5d53a3d2c4c4aa849a3eafa36044e0163",
      "contractAddress": null,
      "gasUsedForL1": "0x0",
      "l1BlockNumber": "0x6a3ca6"
    },
    {
      "status": "0x1",
      "cumulativeGasUsed": "0x273c9",
      "logs": [
        {
          "address": "0x54a1c5d5d53a3d2c4c4aa849a3eafa36044e0163",
          "topics": [
            "0xddf252ad1be2c89b69c2b068fc378daa952ba7f163c4a11628f55a4df523b3ef",
            "0x0000000000000000000000000000000000000000000000000000000000000000",
            "0x00000000000000000000000066e675533020c3cdee2f33e372320b7e2692211e"
          ],
          "data": "0x00000000000000000000000000000000000000000000021e19e0c9bab2400000",
          "blockHash": "0x46348bea5a7703a0177381131cd70cb503fb12afff5467118cc573df6b9c62e9",
          "blockNumber": "0xb6b38",
          "transactionHash": "0x1cf5b6ed372a7c540c1b604d74e870ac8f7abaee4d76c30dffd29c41c3fc1856",
          "transactionIndex": "0x3",
          "logIndex": "0x2",
          "removed": false
        }
      ],
      "logsBloom": "0x00000000000000000000000000000000000000000000000000000000001000000000000000000000000000040000000000000000000000000000000000000000000000000000000000000008000008000000000000000000000000000000000000000000020000000000000000000800000000000000000000000010000000000000000000000000000000000000000000000000002000000000000000000000000000000000000000000000000000000000000000000000000000000008000000000002000000000000000000000000000000000000000000000000000020000000000000000000000000000000000000000000000000000000040000000000",
      "type": "0x2",
      "transactionHash": "0x1cf5b6ed372a7c540c1b604d74e870ac8f7abaee4d76c30dffd29c41c3fc1856",
      "transactionIndex": "0x3",
      "blockHash": "0x46348bea5a7703a0177381131cd70cb503fb12afff5467118cc573df6b9c62e9",
      "blockNumber": "0xb6b38",
      "gasUsed": "0xd143",
      "effectiveGasPrice": "0x989680",
      "from": "0xb7d030f7c6406446e703e73b3d1dd8611a2d87b6",
      "to": "0x54a1c5d5d53a3d2c4c4aa849a3eafa36044e0163",
      "contractAddress": null,
      "gasUsedForL1": "0x0",
      "l1BlockNumber": "0x6a3ca6"
    },
    {
      "status": "0x1",
      "cumulativeGasUsed": "0x3450c",
      "logs": [
        {
          "address": "0x54a1c5d5d53a3d2c4c4aa849a3eafa36044e0163",
          "topics": [
            "0xddf252ad1be2c89b69c2b068fc378daa952ba7f163c4a11628f55a4df523b3ef",
            "0x0000000000000000000000000000000000000000000000000000000000000000",
            "0x0000000000000000000000008c4eb6988a199dabcae0ce31052b3f3ac591787e"
          ],
          "data": "0x00000000000000000000000000000000000000000000021e19e0c9bab2400000",
          "blockHash": "0x46348bea5a7703a0177381131cd70cb503fb12afff5467118cc573df6b9c62e9",
          "blockNumber": "0xb6b38",
          "transactionHash": "0xfc4e6dae29a7e0015842447c61b257bfe81111c330e62ce5c74d5207c61062d3",
          "transactionIndex": "0x4",
          "logIndex": "0x3",
          "removed": false
        }
      ],
      "logsBloom": "0x00000000000000000000000000000000000000000000000000000000000000000000000000000000000000040000000000000000000040000000000000000000000000000000000000000008000000000000000000000000000000000000000000000000020000000000000000000800000000000000000000000010000000000000000100000000000000000000000000000000000000000000000000000000000000000000000000000000000001000000000000000000000000000008000000000002000000000000000000000000000000000000000000000000000020000000000000000000000000000000000000000000000000000000040000000000",
      "type": "0x2",
      "transactionHash": "0xfc4e6dae29a7e0015842447c61b257bfe81111c330e62ce5c74d5207c61062d3",
      "transactionIndex": "0x4",
      "blockHash": "0x46348bea5a7703a0177381131cd70cb503fb12afff5467118cc573df6b9c62e9",
      "blockNumber": "0xb6b38",
      "gasUsed": "0xd143",
      "effectiveGasPrice": "0x989680",
      "from": "0xb7d030f7c6406446e703e73b3d1dd8611a2d87b6",
      "to": "0x54a1c5d5d53a3d2c4c4aa849a3eafa36044e0163",
      "contractAddress": null,
      "gasUsedForL1": "0x0",
      "l1BlockNumber": "0x6a3ca6"
    },
    {
      "status": "0x1",
      "cumulativeGasUsed": "0xd3a36",
      "logs": [
        {
          "address": "0x43afc3e4c2e3be6dbdb3fc367026417c55120b4d",
          "topics": [
            "0x8be0079c531659141344cd1fd0a4f28419497f9722a3daafe3b4186f6b6457e0",
            "0x0000000000000000000000000000000000000000000000000000000000000000",
            "0x000000000000000000000000b7d030f7c6406446e703e73b3d1dd8611a2d87b6"
          ],
          "data": "0x",
          "blockHash": "0x46348bea5a7703a0177381131cd70cb503fb12afff5467118cc573df6b9c62e9",
          "blockNumber": "0xb6b38",
          "transactionHash": "0x07d2289872e49092eeaefa538cff92286aae3e0aaaf60bcf22518da5e7fb3e96",
          "transactionIndex": "0x5",
          "logIndex": "0x4",
          "removed": false
        }
      ],
      "logsBloom": "0x00000000000000000000000000000000000000000000000000800000000000000000000000000000000000000000000000000000080000000000000000000000000000000000000000000000000000000001000000400000000000000000000040000000020000000000000000000800000000000000000200000000000000400000000000000000000000000000000000000000000000000000000000000020000000000000000000000000000000000000000000000000000000000000000000000000000000000000000000000000000000000000000000000000000020000000000000000000000000000000000000000000000000000000000000000001",
      "type": "0x2",
      "transactionHash": "0x07d2289872e49092eeaefa538cff92286aae3e0aaaf60bcf22518da5e7fb3e96",
      "transactionIndex": "0x5",
      "blockHash": "0x46348bea5a7703a0177381131cd70cb503fb12afff5467118cc573df6b9c62e9",
      "blockNumber": "0xb6b38",
      "gasUsed": "0x9f52a",
      "effectiveGasPrice": "0x989680",
      "from": "0xb7d030f7c6406446e703e73b3d1dd8611a2d87b6",
      "to": null,
      "contractAddress": "0x43afc3e4c2e3be6dbdb3fc367026417c55120b4d",
      "gasUsedForL1": "0x0",
      "l1BlockNumber": "0x6a3ca6"
    },
    {
      "status": "0x1",
      "cumulativeGasUsed": "0xe4e2d",
      "logs": [
        {
          "address": "0x43afc3e4c2e3be6dbdb3fc367026417c55120b4d",
          "topics": [
            "0xddf252ad1be2c89b69c2b068fc378daa952ba7f163c4a11628f55a4df523b3ef",
            "0x0000000000000000000000000000000000000000000000000000000000000000",
            "0x000000000000000000000000b7d030f7c6406446e703e73b3d1dd8611a2d87b6"
          ],
          "data": "0x0000000000000000000000000000000000000000000000008ac7230489e80000",
          "blockHash": "0x46348bea5a7703a0177381131cd70cb503fb12afff5467118cc573df6b9c62e9",
          "blockNumber": "0xb6b38",
          "transactionHash": "0x05b67d58de3bfb5a7283ee71b0dd4c5bda374563363159d8eb20080cb1113a4e",
          "transactionIndex": "0x6",
          "logIndex": "0x5",
          "removed": false
        }
      ],
      "logsBloom": "0x00000000000000000000000000000000000000000000000000000000000000000000000000000000000000000000000000000000080000000000000000000000000000000000000000000008000000000000000000400000000000000000000040000000020000000000000000000800000000000000000200000010000000000000000000000000000000000000000000000000000000000000000000000020000000000000000000000000000000000000000000000000000000000000000000000002000000000000000000000000000000000000000000000000000020000000000000000000000000000000000000000000000000000000000000000001",
      "type": "0x2",
      "transactionHash": "0x05b67d58de3bfb5a7283ee71b0dd4c5bda374563363159d8eb20080cb1113a4e",
      "transactionIndex": "0x6",
      "blockHash": "0x46348bea5a7703a0177381131cd70cb503fb12afff5467118cc573df6b9c62e9",
      "blockNumber": "0xb6b38",
      "gasUsed": "0x113f7",
      "effectiveGasPrice": "0x989680",
      "from": "0xb7d030f7c6406446e703e73b3d1dd8611a2d87b6",
      "to": "0x43afc3e4c2e3be6dbdb3fc367026417c55120b4d",
      "contractAddress": null,
      "gasUsedForL1": "0x0",
      "l1BlockNumber": "0x6a3ca6"
    },
    {
      "status": "0x1",
      "cumulativeGasUsed": "0xf1f58",
      "logs": [
        {
          "address": "0x43afc3e4c2e3be6dbdb3fc367026417c55120b4d",
          "topics": [
            "0xddf252ad1be2c89b69c2b068fc378daa952ba7f163c4a11628f55a4df523b3ef",
            "0x0000000000000000000000000000000000000000000000000000000000000000",
            "0x0000000000000000000000004f88f1014dd6ca0507780380111c098bee6b87e6"
          ],
          "data": "0x0000000000000000000000000000000000000000000000008ac7230489e80000",
          "blockHash": "0x46348bea5a7703a0177381131cd70cb503fb12afff5467118cc573df6b9c62e9",
          "blockNumber": "0xb6b38",
          "transactionHash": "0x53ed6f1ac06e96cacba118cfd262ff49c4023341159d6888bf38d4ed19e7c12e",
          "transactionIndex": "0x7",
          "logIndex": "0x6",
          "removed": false
        }
      ],
      "logsBloom": "0x00000000000000000000000002000000000000000000000000000000000000000000000000000000000000000000000000000000080000000000000000000000000000000000000000000008000000000000000000000000000000000000000040000000020000000000000000000800000000000000000000000010000000000000000000000000000000000000000000000000000000000000000000000000000000000000000000000000000000000000000004000000000000000000000000000002000000000000000000000000000000000000000000000000000020000000000000000000000000000000000000000000008000000000000000000001",
      "type": "0x2",
      "transactionHash": "0x53ed6f1ac06e96cacba118cfd262ff49c4023341159d6888bf38d4ed19e7c12e",
      "transactionIndex": "0x7",
      "blockHash": "0x46348bea5a7703a0177381131cd70cb503fb12afff5467118cc573df6b9c62e9",
      "blockNumber": "0xb6b38",
      "gasUsed": "0xd12b",
      "effectiveGasPrice": "0x989680",
      "from": "0xb7d030f7c6406446e703e73b3d1dd8611a2d87b6",
      "to": "0x43afc3e4c2e3be6dbdb3fc367026417c55120b4d",
      "contractAddress": null,
      "gasUsedForL1": "0x0",
      "l1BlockNumber": "0x6a3ca6"
    },
    {
      "status": "0x1",
      "cumulativeGasUsed": "0x37a55",
      "logs": [
        {
          "address": "0x43afc3e4c2e3be6dbdb3fc367026417c55120b4d",
          "topics": [
            "0xddf252ad1be2c89b69c2b068fc378daa952ba7f163c4a11628f55a4df523b3ef",
            "0x0000000000000000000000000000000000000000000000000000000000000000",
            "0x000000000000000000000000c31f6b8133d618ad2ff1ac5faa3fc4b20557b901"
          ],
          "data": "0x0000000000000000000000000000000000000000000000008ac7230489e80000",
          "blockHash": "0xbe453a9afc811d755ea448bebfb4253e05e3316dcd505970e0078acf03a3b4dd",
          "blockNumber": "0xb6b39",
          "transactionHash": "0x5f6175122c507a667d126108b8fc13aa4b9ba298737f1e8a2a898aed36f83357",
          "transactionIndex": "0x2",
          "logIndex": "0x8",
          "removed": false
        }
      ],
      "logsBloom": "0x00000000000000000000000000000000000000000000000000000000000000000000000000000000000000000000000000000000080000000000000000000000000000000000000000000008000000000000000000000000000000000000000040000000020000000000000000000800000000000000000000000010400000000000000000000000000000000000000000000002000000000000000000000000000000000000000000000000000000000000000000000000080000000000000000000002000000000000000000000000000000000000000000000000000020000000000000000000000000000000000000000000000000000000000000000001",
      "type": "0x2",
      "transactionHash": "0x5f6175122c507a667d126108b8fc13aa4b9ba298737f1e8a2a898aed36f83357",
      "transactionIndex": "0x2",
      "blockHash": "0xbe453a9afc811d755ea448bebfb4253e05e3316dcd505970e0078acf03a3b4dd",
      "blockNumber": "0xb6b39",
      "gasUsed": "0xd12b",
      "effectiveGasPrice": "0x989680",
      "from": "0xb7d030f7c6406446e703e73b3d1dd8611a2d87b6",
      "to": "0x43afc3e4c2e3be6dbdb3fc367026417c55120b4d",
      "contractAddress": null,
      "gasUsedForL1": "0x0",
      "l1BlockNumber": "0x6a3ca6"
    },
    {
      "status": "0x1",
      "cumulativeGasUsed": "0x44b80",
      "logs": [
        {
          "address": "0x43afc3e4c2e3be6dbdb3fc367026417c55120b4d",
          "topics": [
            "0xddf252ad1be2c89b69c2b068fc378daa952ba7f163c4a11628f55a4df523b3ef",
            "0x0000000000000000000000000000000000000000000000000000000000000000",
            "0x00000000000000000000000066e675533020c3cdee2f33e372320b7e2692211e"
          ],
          "data": "0x0000000000000000000000000000000000000000000000008ac7230489e80000",
          "blockHash": "0xbe453a9afc811d755ea448bebfb4253e05e3316dcd505970e0078acf03a3b4dd",
          "blockNumber": "0xb6b39",
          "transactionHash": "0xd94cdb3efca97a2c28e077da9d3b84d4c2673435c63f5eb56a95a42c5d968164",
          "transactionIndex": "0x3",
          "logIndex": "0x9",
          "removed": false
        }
      ],
      "logsBloom": "0x00000000000000000000000000000000000000000000000000000000001000000000000000000000000000000000000000000000080000000000000000000000000000000000000000000008000008000000000000000000000000000000000040000000020000000000000000000800000000000000000000000010000000000000000000000000000000000000000000000000002000000000000000000000000000000000000000000000000000000000000000000000000000000000000000000002000000000000000000000000000000000000000000000000000020000000000000000000000000000000000000000000000000000000000000000001",
      "type": "0x2",
      "transactionHash": "0xd94cdb3efca97a2c28e077da9d3b84d4c2673435c63f5eb56a95a42c5d968164",
      "transactionIndex": "0x3",
      "blockHash": "0xbe453a9afc811d755ea448bebfb4253e05e3316dcd505970e0078acf03a3b4dd",
      "blockNumber": "0xb6b39",
      "gasUsed": "0xd12b",
      "effectiveGasPrice": "0x989680",
      "from": "0xb7d030f7c6406446e703e73b3d1dd8611a2d87b6",
      "to": "0x43afc3e4c2e3be6dbdb3fc367026417c55120b4d",
      "contractAddress": null,
      "gasUsedForL1": "0x0",
      "l1BlockNumber": "0x6a3ca6"
    },
    {
      "status": "0x1",
      "cumulativeGasUsed": "0x51cab",
      "logs": [
        {
          "address": "0x43afc3e4c2e3be6dbdb3fc367026417c55120b4d",
          "topics": [
            "0xddf252ad1be2c89b69c2b068fc378daa952ba7f163c4a11628f55a4df523b3ef",
            "0x0000000000000000000000000000000000000000000000000000000000000000",
            "0x0000000000000000000000008c4eb6988a199dabcae0ce31052b3f3ac591787e"
          ],
          "data": "0x0000000000000000000000000000000000000000000000008ac7230489e80000",
          "blockHash": "0xbe453a9afc811d755ea448bebfb4253e05e3316dcd505970e0078acf03a3b4dd",
          "blockNumber": "0xb6b39",
          "transactionHash": "0x5bd169e769208988904648e2cbd660c3cafd745e6fbd86b0357ac4d90d38943d",
          "transactionIndex": "0x4",
          "logIndex": "0xa",
          "removed": false
        }
      ],
      "logsBloom": "0x00000000000000000000000000000000000000000000000000000000000000000000000000000000000000000000000000000000080040000000000000000000000000000000000000000008000000000000000000000000000000000000000040000000020000000000000000000800000000000000000000000010000000000000000100000000000000000000000000000000000000000000000000000000000000000000000000000000000001000000000000000000000000000000000000000002000000000000000000000000000000000000000000000000000020000000000000000000000000000000000000000000000000000000000000000001",
      "type": "0x2",
      "transactionHash": "0x5bd169e769208988904648e2cbd660c3cafd745e6fbd86b0357ac4d90d38943d",
      "transactionIndex": "0x4",
      "blockHash": "0xbe453a9afc811d755ea448bebfb4253e05e3316dcd505970e0078acf03a3b4dd",
      "blockNumber": "0xb6b39",
      "gasUsed": "0xd12b",
      "effectiveGasPrice": "0x989680",
      "from": "0xb7d030f7c6406446e703e73b3d1dd8611a2d87b6",
      "to": "0x43afc3e4c2e3be6dbdb3fc367026417c55120b4d",
      "contractAddress": null,
      "gasUsedForL1": "0x0",
      "l1BlockNumber": "0x6a3ca6"
    },
    {
      "status": "0x1",
      "cumulativeGasUsed": "0x6b10d",
      "logs": [
        {
          "address": "0xbae2a0d6a65e9ea0ddb4b00ebe4c89a0e1fe02f0",
          "topics": [
            "0xb0377b4035c2bd5b6aeb3eb7f139162c730ea47b957e4354f8a81ebb99573dec"
          ],
          "data": "0x00000000000000000000000000000000000000000000000000000000000000400000000000000000000000009eae2bda2b82e1e70e759c1b1dce6306595d55e0000000000000000000000000000000000000000000000000000000000000000a544f4b454e5f5553445400000000000000000000000000000000000000000000",
          "blockHash": "0xbe453a9afc811d755ea448bebfb4253e05e3316dcd505970e0078acf03a3b4dd",
          "blockNumber": "0xb6b39",
          "transactionHash": "0xa954c69017d48fdc135d22d0fea3d31ed39a109fff288c1dd53ee1f585aa2c94",
          "transactionIndex": "0x5",
          "logIndex": "0xb",
          "removed": false
        },
        {
          "address": "0xbae2a0d6a65e9ea0ddb4b00ebe4c89a0e1fe02f0",
          "topics": [
            "0xb0377b4035c2bd5b6aeb3eb7f139162c730ea47b957e4354f8a81ebb99573dec"
          ],
          "data": "0x000000000000000000000000000000000000000000000000000000000000004000000000000000000000000054a1c5d5d53a3d2c4c4aa849a3eafa36044e0163000000000000000000000000000000000000000000000000000000000000000a544f4b454e5f5553444300000000000000000000000000000000000000000000",
          "blockHash": "0xbe453a9afc811d755ea448bebfb4253e05e3316dcd505970e0078acf03a3b4dd",
          "blockNumber": "0xb6b39",
          "transactionHash": "0xa954c69017d48fdc135d22d0fea3d31ed39a109fff288c1dd53ee1f585aa2c94",
          "transactionIndex": "0x5",
          "logIndex": "0xc",
          "removed": false
        },
        {
          "address": "0xbae2a0d6a65e9ea0ddb4b00ebe4c89a0e1fe02f0",
          "topics": [
            "0xb0377b4035c2bd5b6aeb3eb7f139162c730ea47b957e4354f8a81ebb99573dec"
          ],
          "data": "0x000000000000000000000000000000000000000000000000000000000000004000000000000000000000000043afc3e4c2e3be6dbdb3fc367026417c55120b4d000000000000000000000000000000000000000000000000000000000000000a544f4b454e5f5742544300000000000000000000000000000000000000000000",
          "blockHash": "0xbe453a9afc811d755ea448bebfb4253e05e3316dcd505970e0078acf03a3b4dd",
          "blockNumber": "0xb6b39",
          "transactionHash": "0xa954c69017d48fdc135d22d0fea3d31ed39a109fff288c1dd53ee1f585aa2c94",
          "transactionIndex": "0x5",
          "logIndex": "0xd",
          "removed": false
        }
      ],
      "logsBloom": "0x00000000000000000000000000000000000000000000000000000000000000000000000000000000000000000000000000000000000000000200000000000000000000000000000000000000000000000000000000000000000010000000000000000000000000000000000000000000000000000000000000000000000000000000000000000000000000000000000000000000000000000000000000000000000000000000000000000000000000000000000000000000000000000000080000000000000000000000000000000000004000000000010000000000000000000000000000000000000000000000000000000400000000000000000000000000",
      "type": "0x2",
      "transactionHash": "0xa954c69017d48fdc135d22d0fea3d31ed39a109fff288c1dd53ee1f585aa2c94",
      "transactionIndex": "0x5",
      "blockHash": "0xbe453a9afc811d755ea448bebfb4253e05e3316dcd505970e0078acf03a3b4dd",
      "blockNumber": "0xb6b39",
      "gasUsed": "0x19462",
      "effectiveGasPrice": "0x989680",
      "from": "0xb7d030f7c6406446e703e73b3d1dd8611a2d87b6",
      "to": "0xbae2a0d6a65e9ea0ddb4b00ebe4c89a0e1fe02f0",
      "contractAddress": null,
      "gasUsedForL1": "0x0",
      "l1BlockNumber": "0x6a3ca6"
    }
  ],
  "libraries": [],
  "pending": [],
  "returns": {},
  "timestamp": 1730110051,
  "chain": 98864,
  "commit": "d5ea916"
}